{
  "_format": "hh-sol-artifact-1",
  "contractName": "VRFConsumer",
  "sourceName": "@chainlink/contracts/src/v0.8/tests/VRFConsumer.sol",
  "abi": [
    {
      "inputs": [
        {
          "internalType": "address",
          "name": "vrfCoordinator",
          "type": "address"
        },
        {
          "internalType": "address",
          "name": "link",
          "type": "address"
        }
      ],
      "stateMutability": "nonpayable",
      "type": "constructor"
    },
    {
      "inputs": [],
      "name": "randomnessOutput",
      "outputs": [
        {
          "internalType": "uint256",
          "name": "",
          "type": "uint256"
        }
      ],
      "stateMutability": "view",
      "type": "function"
    },
    {
      "inputs": [
        {
          "internalType": "bytes32",
          "name": "requestId",
          "type": "bytes32"
        },
        {
          "internalType": "uint256",
          "name": "randomness",
          "type": "uint256"
        }
      ],
      "name": "rawFulfillRandomness",
      "outputs": [],
      "stateMutability": "nonpayable",
      "type": "function"
    },
    {
      "inputs": [],
      "name": "requestId",
      "outputs": [
        {
          "internalType": "bytes32",
          "name": "",
          "type": "bytes32"
        }
      ],
      "stateMutability": "view",
      "type": "function"
    },
    {
      "inputs": [
        {
          "internalType": "bytes32",
          "name": "keyHash",
          "type": "bytes32"
        },
        {
          "internalType": "uint256",
          "name": "fee",
          "type": "uint256"
        }
      ],
      "name": "testRequestRandomness",
      "outputs": [
        {
          "internalType": "bytes32",
          "name": "",
          "type": "bytes32"
        }
      ],
      "stateMutability": "nonpayable",
      "type": "function"
    }
  ],
  "bytecode": "0x60c060405234801561001057600080fd5b5060405161047738038061047783398101604081905261002f91610062565b6001600160a01b0391821660a05216608052610095565b80516001600160a01b038116811461005d57600080fd5b919050565b6000806040838503121561007557600080fd5b61007e83610046565b915061008c60208401610046565b90509250929050565b60805160a0516103b76100c06000396000818160ba01526101640152600061013501526103b76000f3fe608060405234801561001057600080fd5b506004361061004b5760003560e01c80626d6cae146100505780632f47fd861461006b578063866ee7481461007457806394985ddd14610087575b600080fd5b61005960025481565b60405190815260200160405180910390f35b61005960015481565b6100596100823660046102ab565b61009c565b61009a6100953660046102ab565b6100af565b005b60006100a88383610131565b9392505050565b336001600160a01b037f0000000000000000000000000000000000000000000000000000000000000000161461012b5760405162461bcd60e51b815260206004820152601f60248201527f4f6e6c7920565246436f6f7264696e61746f722063616e2066756c66696c6c00604482015260640160405180910390fd5b60015550565b60007f00000000000000000000000000000000000000000000000000000000000000006001600160a01b0316634000aea07f0000000000000000000000000000000000000000000000000000000000000000848660006040516020016101a1929190918252602082015260400190565b6040516020818303038152906040526040518463ffffffff1660e01b81526004016101ce939291906102cd565b6020604051808303816000875af11580156101ed573d6000803e3d6000fd5b505050506040513d601f19601f820116820180604052508101906102119190610339565b5060008381526020818152604080832054815180840188905280830185905230606082015260808082018390528351808303909101815260a09091019092528151918301919091208684529290915261026b90600161035b565b6000858152602081815260409182902092909255805180830187905280820184905281518082038301815260609091019091528051910120949350505050565b600080604083850312156102be57600080fd5b50508035926020909101359150565b60018060a01b038416815260006020848184015260606040840152835180606085015260005b8181101561030f578581018301518582016080015282016102f3565b81811115610321576000608083870101525b50601f01601f19169290920160800195945050505050565b60006020828403121561034b57600080fd5b815180151581146100a857600080fd5b6000821982111561037c57634e487b7160e01b600052601160045260246000fd5b50019056fea2646970667358221220077a7862b3489191c72b73345d7f2a49631d86ccc563e89927073bd7d5f7b43464736f6c634300080a0033",
  "linkReferences": {},
  "deployedLinkReferences": {}
}