{
  "_format": "hh-sol-artifact-1",
  "contractName": "MockVRFCoordinator",
  "sourceName": "contracts/tests/VRFCoordinatorMock.sol",
  "abi": [
    {
      "inputs": [
        {
          "internalType": "bytes32",
          "name": "requestId",
          "type": "bytes32"
        },
        {
          "internalType": "uint256",
          "name": "randomness",
          "type": "uint256"
        },
        {
          "internalType": "address",
          "name": "consumerContract",
          "type": "address"
        }
      ],
      "name": "requestRandomness",
      "outputs": [],
      "stateMutability": "nonpayable",
      "type": "function"
    }
  ],
  "bytecode": "0x60806040526000805534801561001457600080fd5b506101c9806100246000396000f3fe608060405234801561001057600080fd5b506004361061002b5760003560e01c80633e04289a14610030575b600080fd5b61004361003e366004610112565b610045565b005b604080516001808252818301909252339160009190602080830190803683370190505090506000548160008151811061008057610080610157565b602090810291909101015260405163cf55fe9760e01b815260048101869052602481018590526001600160a01b03848116604483015283169063cf55fe9790606401600060405180830381600087803b1580156100dc57600080fd5b505af11580156100f0573d6000803e3d6000fd5b505050506001600080828254610106919061016d565b90915550505050505050565b60008060006060848603121561012757600080fd5b833592506020840135915060408401356001600160a01b038116811461014c57600080fd5b809150509250925092565b634e487b7160e01b600052603260045260246000fd5b6000821982111561018e57634e487b7160e01b600052601160045260246000fd5b50019056fea2646970667358221220c932bb516763254c0738e0fe6e1887b37d88084f853160a1c59fe78130a81ef864736f6c634300080a0033",
  "linkReferences": {},
  "deployedLinkReferences": {}
}