{
  "_format": "hh-sol-artifact-1",
  "contractName": "VRFCoordinatorV2TestHelper",
  "sourceName": "@chainlink/contracts/src/v0.8/tests/VRFCoordinatorV2TestHelper.sol",
  "abi": [
    {
      "inputs": [
        {
          "internalType": "address",
          "name": "link",
          "type": "address"
        },
        {
          "internalType": "address",
          "name": "blockhashStore",
          "type": "address"
        },
        {
          "internalType": "address",
          "name": "linkEthFeed",
          "type": "address"
        }
      ],
      "stateMutability": "nonpayable",
      "type": "constructor"
    },
    {
      "inputs": [
        {
          "internalType": "uint256",
          "name": "internalBalance",
          "type": "uint256"
        },
        {
          "internalType": "uint256",
          "name": "externalBalance",
          "type": "uint256"
        }
      ],
      "name": "BalanceInvariantViolated",
      "type": "error"
    },
    {
      "inputs": [
        {
          "internalType": "uint256",
          "name": "blockNum",
          "type": "uint256"
        }
      ],
      "name": "BlockhashNotInStore",
      "type": "error"
    },
    {
      "inputs": [
        {
          "internalType": "uint32",
          "name": "have",
          "type": "uint32"
        },
        {
          "internalType": "uint32",
          "name": "want",
          "type": "uint32"
        }
      ],
      "name": "GasLimitTooBig",
      "type": "error"
    },
    {
      "inputs": [],
      "name": "IncorrectCommitment",
      "type": "error"
    },
    {
      "inputs": [],
      "name": "InsufficientBalance",
      "type": "error"
    },
    {
      "inputs": [
        {
          "internalType": "uint256",
          "name": "have",
          "type": "uint256"
        },
        {
          "internalType": "uint256",
          "name": "want",
          "type": "uint256"
        }
      ],
      "name": "InsufficientGasForConsumer",
      "type": "error"
    },
    {
      "inputs": [],
      "name": "InvalidCalldata",
      "type": "error"
    },
    {
      "inputs": [
        {
          "internalType": "uint64",
          "name": "subId",
          "type": "uint64"
        },
        {
          "internalType": "address",
          "name": "consumer",
          "type": "address"
        }
      ],
      "name": "InvalidConsumer",
      "type": "error"
    },
    {
      "inputs": [
        {
          "internalType": "int256",
          "name": "linkWei",
          "type": "int256"
        }
      ],
      "name": "InvalidLinkWeiPrice",
      "type": "error"
    },
    {
      "inputs": [
        {
          "internalType": "uint16",
          "name": "have",
          "type": "uint16"
        },
        {
          "internalType": "uint16",
          "name": "min",
          "type": "uint16"
        },
        {
          "internalType": "uint16",
          "name": "max",
          "type": "uint16"
        }
      ],
      "name": "InvalidRequestConfirmations",
      "type": "error"
    },
    {
      "inputs": [],
      "name": "InvalidSubscription",
      "type": "error"
    },
    {
      "inputs": [
        {
          "internalType": "address",
          "name": "proposedOwner",
          "type": "address"
        }
      ],
      "name": "MustBeRequestedOwner",
      "type": "error"
    },
    {
      "inputs": [
        {
          "internalType": "address",
          "name": "owner",
          "type": "address"
        }
      ],
      "name": "MustBeSubOwner",
      "type": "error"
    },
    {
      "inputs": [],
      "name": "NoCorrespondingRequest",
      "type": "error"
    },
    {
      "inputs": [
        {
          "internalType": "bytes32",
          "name": "keyHash",
          "type": "bytes32"
        }
      ],
      "name": "NoSuchProvingKey",
      "type": "error"
    },
    {
      "inputs": [
        {
          "internalType": "uint32",
          "name": "have",
          "type": "uint32"
        },
        {
          "internalType": "uint32",
          "name": "want",
          "type": "uint32"
        }
      ],
      "name": "NumWordsTooBig",
      "type": "error"
    },
    {
      "inputs": [],
      "name": "OnlyCallableFromLink",
      "type": "error"
    },
    {
      "inputs": [],
      "name": "PaymentTooLarge",
      "type": "error"
    },
    {
      "inputs": [],
      "name": "PendingRequestExists",
      "type": "error"
    },
    {
      "inputs": [
        {
          "internalType": "bytes32",
          "name": "keyHash",
          "type": "bytes32"
        }
      ],
      "name": "ProvingKeyAlreadyRegistered",
      "type": "error"
    },
    {
      "inputs": [],
      "name": "Reentrant",
      "type": "error"
    },
    {
      "inputs": [],
      "name": "TooManyConsumers",
      "type": "error"
    },
    {
      "anonymous": false,
      "inputs": [
        {
          "indexed": false,
          "internalType": "uint16",
          "name": "minimumRequestConfirmations",
          "type": "uint16"
        },
        {
          "indexed": false,
          "internalType": "uint32",
          "name": "maxGasLimit",
          "type": "uint32"
        },
        {
          "indexed": false,
          "internalType": "uint32",
          "name": "stalenessSeconds",
          "type": "uint32"
        },
        {
          "indexed": false,
          "internalType": "uint32",
          "name": "gasAfterPaymentCalculation",
          "type": "uint32"
        },
        {
          "indexed": false,
          "internalType": "int256",
          "name": "fallbackWeiPerUnitLink",
          "type": "int256"
        },
        {
          "components": [
            {
              "internalType": "uint32",
              "name": "fulfillmentFlatFeeLinkPPMTier1",
              "type": "uint32"
            },
            {
              "internalType": "uint32",
              "name": "fulfillmentFlatFeeLinkPPMTier2",
              "type": "uint32"
            },
            {
              "internalType": "uint32",
              "name": "fulfillmentFlatFeeLinkPPMTier3",
              "type": "uint32"
            },
            {
              "internalType": "uint32",
              "name": "fulfillmentFlatFeeLinkPPMTier4",
              "type": "uint32"
            },
            {
              "internalType": "uint32",
              "name": "fulfillmentFlatFeeLinkPPMTier5",
              "type": "uint32"
            },
            {
              "internalType": "uint24",
              "name": "reqsForTier2",
              "type": "uint24"
            },
            {
              "internalType": "uint24",
              "name": "reqsForTier3",
              "type": "uint24"
            },
            {
              "internalType": "uint24",
              "name": "reqsForTier4",
              "type": "uint24"
            },
            {
              "internalType": "uint24",
              "name": "reqsForTier5",
              "type": "uint24"
            }
          ],
          "indexed": false,
          "internalType": "struct VRFCoordinatorV2.FeeConfig",
          "name": "feeConfig",
          "type": "tuple"
        }
      ],
      "name": "ConfigSet",
      "type": "event"
    },
    {
      "anonymous": false,
      "inputs": [
        {
          "indexed": false,
          "internalType": "address",
          "name": "to",
          "type": "address"
        },
        {
          "indexed": false,
          "internalType": "uint256",
          "name": "amount",
          "type": "uint256"
        }
      ],
      "name": "FundsRecovered",
      "type": "event"
    },
    {
      "anonymous": false,
      "inputs": [
        {
          "indexed": true,
          "internalType": "address",
          "name": "from",
          "type": "address"
        },
        {
          "indexed": true,
          "internalType": "address",
          "name": "to",
          "type": "address"
        }
      ],
      "name": "OwnershipTransferRequested",
      "type": "event"
    },
    {
      "anonymous": false,
      "inputs": [
        {
          "indexed": true,
          "internalType": "address",
          "name": "from",
          "type": "address"
        },
        {
          "indexed": true,
          "internalType": "address",
          "name": "to",
          "type": "address"
        }
      ],
      "name": "OwnershipTransferred",
      "type": "event"
    },
    {
      "anonymous": false,
      "inputs": [
        {
          "indexed": false,
          "internalType": "bytes32",
          "name": "keyHash",
          "type": "bytes32"
        },
        {
          "indexed": true,
          "internalType": "address",
          "name": "oracle",
          "type": "address"
        }
      ],
      "name": "ProvingKeyDeregistered",
      "type": "event"
    },
    {
      "anonymous": false,
      "inputs": [
        {
          "indexed": false,
          "internalType": "bytes32",
          "name": "keyHash",
          "type": "bytes32"
        },
        {
          "indexed": true,
          "internalType": "address",
          "name": "oracle",
          "type": "address"
        }
      ],
      "name": "ProvingKeyRegistered",
      "type": "event"
    },
    {
      "anonymous": false,
      "inputs": [
        {
          "indexed": true,
          "internalType": "uint256",
          "name": "requestId",
          "type": "uint256"
        },
        {
          "indexed": false,
          "internalType": "uint256",
          "name": "outputSeed",
          "type": "uint256"
        },
        {
          "indexed": false,
          "internalType": "uint96",
          "name": "payment",
          "type": "uint96"
        },
        {
          "indexed": false,
          "internalType": "bool",
          "name": "success",
          "type": "bool"
        }
      ],
      "name": "RandomWordsFulfilled",
      "type": "event"
    },
    {
      "anonymous": false,
      "inputs": [
        {
          "indexed": true,
          "internalType": "bytes32",
          "name": "keyHash",
          "type": "bytes32"
        },
        {
          "indexed": false,
          "internalType": "uint256",
          "name": "requestId",
          "type": "uint256"
        },
        {
          "indexed": false,
          "internalType": "uint256",
          "name": "preSeed",
          "type": "uint256"
        },
        {
          "indexed": true,
          "internalType": "uint64",
          "name": "subId",
          "type": "uint64"
        },
        {
          "indexed": false,
          "internalType": "uint16",
          "name": "minimumRequestConfirmations",
          "type": "uint16"
        },
        {
          "indexed": false,
          "internalType": "uint32",
          "name": "callbackGasLimit",
          "type": "uint32"
        },
        {
          "indexed": false,
          "internalType": "uint32",
          "name": "numWords",
          "type": "uint32"
        },
        {
          "indexed": true,
          "internalType": "address",
          "name": "sender",
          "type": "address"
        }
      ],
      "name": "RandomWordsRequested",
      "type": "event"
    },
    {
      "anonymous": false,
      "inputs": [
        {
          "indexed": true,
          "internalType": "uint64",
          "name": "subId",
          "type": "uint64"
        },
        {
          "indexed": false,
          "internalType": "address",
          "name": "to",
          "type": "address"
        },
        {
          "indexed": false,
          "internalType": "uint256",
          "name": "amount",
          "type": "uint256"
        }
      ],
      "name": "SubscriptionCanceled",
      "type": "event"
    },
    {
      "anonymous": false,
      "inputs": [
        {
          "indexed": true,
          "internalType": "uint64",
          "name": "subId",
          "type": "uint64"
        },
        {
          "indexed": false,
          "internalType": "address",
          "name": "consumer",
          "type": "address"
        }
      ],
      "name": "SubscriptionConsumerAdded",
      "type": "event"
    },
    {
      "anonymous": false,
      "inputs": [
        {
          "indexed": true,
          "internalType": "uint64",
          "name": "subId",
          "type": "uint64"
        },
        {
          "indexed": false,
          "internalType": "address",
          "name": "consumer",
          "type": "address"
        }
      ],
      "name": "SubscriptionConsumerRemoved",
      "type": "event"
    },
    {
      "anonymous": false,
      "inputs": [
        {
          "indexed": true,
          "internalType": "uint64",
          "name": "subId",
          "type": "uint64"
        },
        {
          "indexed": false,
          "internalType": "address",
          "name": "owner",
          "type": "address"
        }
      ],
      "name": "SubscriptionCreated",
      "type": "event"
    },
    {
      "anonymous": false,
      "inputs": [
        {
          "indexed": true,
          "internalType": "uint64",
          "name": "subId",
          "type": "uint64"
        },
        {
          "indexed": false,
          "internalType": "uint256",
          "name": "oldBalance",
          "type": "uint256"
        },
        {
          "indexed": false,
          "internalType": "uint256",
          "name": "newBalance",
          "type": "uint256"
        }
      ],
      "name": "SubscriptionFunded",
      "type": "event"
    },
    {
      "anonymous": false,
      "inputs": [
        {
          "indexed": true,
          "internalType": "uint64",
          "name": "subId",
          "type": "uint64"
        },
        {
          "indexed": false,
          "internalType": "address",
          "name": "from",
          "type": "address"
        },
        {
          "indexed": false,
          "internalType": "address",
          "name": "to",
          "type": "address"
        }
      ],
      "name": "SubscriptionOwnerTransferRequested",
      "type": "event"
    },
    {
      "anonymous": false,
      "inputs": [
        {
          "indexed": true,
          "internalType": "uint64",
          "name": "subId",
          "type": "uint64"
        },
        {
          "indexed": false,
          "internalType": "address",
          "name": "from",
          "type": "address"
        },
        {
          "indexed": false,
          "internalType": "address",
          "name": "to",
          "type": "address"
        }
      ],
      "name": "SubscriptionOwnerTransferred",
      "type": "event"
    },
    {
      "inputs": [],
      "name": "BLOCKHASH_STORE",
      "outputs": [
        {
          "internalType": "contract BlockhashStoreInterface",
          "name": "",
          "type": "address"
        }
      ],
      "stateMutability": "view",
      "type": "function"
    },
    {
      "inputs": [],
      "name": "LINK",
      "outputs": [
        {
          "internalType": "contract LinkTokenInterface",
          "name": "",
          "type": "address"
        }
      ],
      "stateMutability": "view",
      "type": "function"
    },
    {
      "inputs": [],
      "name": "LINK_ETH_FEED",
      "outputs": [
        {
          "internalType": "contract AggregatorV3Interface",
          "name": "",
          "type": "address"
        }
      ],
      "stateMutability": "view",
      "type": "function"
    },
    {
      "inputs": [],
      "name": "MAX_CONSUMERS",
      "outputs": [
        {
          "internalType": "uint16",
          "name": "",
          "type": "uint16"
        }
      ],
      "stateMutability": "view",
      "type": "function"
    },
    {
      "inputs": [],
      "name": "MAX_NUM_WORDS",
      "outputs": [
        {
          "internalType": "uint32",
          "name": "",
          "type": "uint32"
        }
      ],
      "stateMutability": "view",
      "type": "function"
    },
    {
      "inputs": [],
      "name": "MAX_REQUEST_CONFIRMATIONS",
      "outputs": [
        {
          "internalType": "uint16",
          "name": "",
          "type": "uint16"
        }
      ],
      "stateMutability": "view",
      "type": "function"
    },
    {
      "inputs": [],
      "name": "acceptOwnership",
      "outputs": [],
      "stateMutability": "nonpayable",
      "type": "function"
    },
    {
      "inputs": [
        {
          "internalType": "uint64",
          "name": "subId",
          "type": "uint64"
        }
      ],
      "name": "acceptSubscriptionOwnerTransfer",
      "outputs": [],
      "stateMutability": "nonpayable",
      "type": "function"
    },
    {
      "inputs": [
        {
          "internalType": "uint64",
          "name": "subId",
          "type": "uint64"
        },
        {
          "internalType": "address",
          "name": "consumer",
          "type": "address"
        }
      ],
      "name": "addConsumer",
      "outputs": [],
      "stateMutability": "nonpayable",
      "type": "function"
    },
    {
      "inputs": [
        {
          "internalType": "uint256",
          "name": "gasAfterPaymentCalculation",
          "type": "uint256"
        },
        {
          "internalType": "uint32",
          "name": "fulfillmentFlatFeeLinkPPM",
          "type": "uint32"
        },
        {
          "internalType": "uint256",
          "name": "weiPerUnitGas",
          "type": "uint256"
        }
      ],
      "name": "calculatePaymentAmountTest",
      "outputs": [],
      "stateMutability": "nonpayable",
      "type": "function"
    },
    {
      "inputs": [
        {
          "internalType": "uint64",
          "name": "subId",
          "type": "uint64"
        },
        {
          "internalType": "address",
          "name": "to",
          "type": "address"
        }
      ],
      "name": "cancelSubscription",
      "outputs": [],
      "stateMutability": "nonpayable",
      "type": "function"
    },
    {
      "inputs": [],
      "name": "createSubscription",
      "outputs": [
        {
          "internalType": "uint64",
          "name": "",
          "type": "uint64"
        }
      ],
      "stateMutability": "nonpayable",
      "type": "function"
    },
    {
      "inputs": [
        {
          "internalType": "uint256[2]",
          "name": "publicProvingKey",
          "type": "uint256[2]"
        }
      ],
      "name": "deregisterProvingKey",
      "outputs": [],
      "stateMutability": "nonpayable",
      "type": "function"
    },
    {
      "inputs": [
        {
          "components": [
            {
              "internalType": "uint256[2]",
              "name": "pk",
              "type": "uint256[2]"
            },
            {
              "internalType": "uint256[2]",
              "name": "gamma",
              "type": "uint256[2]"
            },
            {
              "internalType": "uint256",
              "name": "c",
              "type": "uint256"
            },
            {
              "internalType": "uint256",
              "name": "s",
              "type": "uint256"
            },
            {
              "internalType": "uint256",
              "name": "seed",
              "type": "uint256"
            },
            {
              "internalType": "address",
              "name": "uWitness",
              "type": "address"
            },
            {
              "internalType": "uint256[2]",
              "name": "cGammaWitness",
              "type": "uint256[2]"
            },
            {
              "internalType": "uint256[2]",
              "name": "sHashWitness",
              "type": "uint256[2]"
            },
            {
              "internalType": "uint256",
              "name": "zInv",
              "type": "uint256"
            }
          ],
          "internalType": "struct VRF.Proof",
          "name": "proof",
          "type": "tuple"
        },
        {
          "components": [
            {
              "internalType": "uint64",
              "name": "blockNum",
              "type": "uint64"
            },
            {
              "internalType": "uint64",
              "name": "subId",
              "type": "uint64"
            },
            {
              "internalType": "uint32",
              "name": "callbackGasLimit",
              "type": "uint32"
            },
            {
              "internalType": "uint32",
              "name": "numWords",
              "type": "uint32"
            },
            {
              "internalType": "address",
              "name": "sender",
              "type": "address"
            }
          ],
          "internalType": "struct VRFCoordinatorV2.RequestCommitment",
          "name": "rc",
          "type": "tuple"
        }
      ],
      "name": "fulfillRandomWords",
      "outputs": [
        {
          "internalType": "uint96",
          "name": "",
          "type": "uint96"
        }
      ],
      "stateMutability": "nonpayable",
      "type": "function"
    },
    {
      "inputs": [
        {
          "internalType": "uint256",
          "name": "requestId",
          "type": "uint256"
        }
      ],
      "name": "getCommitment",
      "outputs": [
        {
          "internalType": "bytes32",
          "name": "",
          "type": "bytes32"
        }
      ],
      "stateMutability": "view",
      "type": "function"
    },
    {
      "inputs": [],
      "name": "getConfig",
      "outputs": [
        {
          "internalType": "uint16",
          "name": "minimumRequestConfirmations",
          "type": "uint16"
        },
        {
          "internalType": "uint32",
          "name": "maxGasLimit",
          "type": "uint32"
        },
        {
          "internalType": "uint32",
          "name": "stalenessSeconds",
          "type": "uint32"
        },
        {
          "internalType": "uint32",
          "name": "gasAfterPaymentCalculation",
          "type": "uint32"
        }
      ],
      "stateMutability": "view",
      "type": "function"
    },
    {
      "inputs": [],
      "name": "getCurrentSubId",
      "outputs": [
        {
          "internalType": "uint64",
          "name": "",
          "type": "uint64"
        }
      ],
      "stateMutability": "view",
      "type": "function"
    },
    {
      "inputs": [],
      "name": "getFallbackWeiPerUnitLink",
      "outputs": [
        {
          "internalType": "int256",
          "name": "",
          "type": "int256"
        }
      ],
      "stateMutability": "view",
      "type": "function"
    },
    {
      "inputs": [],
      "name": "getFeeConfig",
      "outputs": [
        {
          "internalType": "uint32",
          "name": "fulfillmentFlatFeeLinkPPMTier1",
          "type": "uint32"
        },
        {
          "internalType": "uint32",
          "name": "fulfillmentFlatFeeLinkPPMTier2",
          "type": "uint32"
        },
        {
          "internalType": "uint32",
          "name": "fulfillmentFlatFeeLinkPPMTier3",
          "type": "uint32"
        },
        {
          "internalType": "uint32",
          "name": "fulfillmentFlatFeeLinkPPMTier4",
          "type": "uint32"
        },
        {
          "internalType": "uint32",
          "name": "fulfillmentFlatFeeLinkPPMTier5",
          "type": "uint32"
        },
        {
          "internalType": "uint24",
          "name": "reqsForTier2",
          "type": "uint24"
        },
        {
          "internalType": "uint24",
          "name": "reqsForTier3",
          "type": "uint24"
        },
        {
          "internalType": "uint24",
          "name": "reqsForTier4",
          "type": "uint24"
        },
        {
          "internalType": "uint24",
          "name": "reqsForTier5",
          "type": "uint24"
        }
      ],
      "stateMutability": "view",
      "type": "function"
    },
    {
      "inputs": [
        {
          "internalType": "uint64",
          "name": "reqCount",
          "type": "uint64"
        }
      ],
      "name": "getFeeTier",
      "outputs": [
        {
          "internalType": "uint32",
          "name": "",
          "type": "uint32"
        }
      ],
      "stateMutability": "view",
      "type": "function"
    },
    {
      "inputs": [],
      "name": "getGasStart",
      "outputs": [
        {
          "internalType": "uint256",
          "name": "",
          "type": "uint256"
        }
      ],
      "stateMutability": "view",
      "type": "function"
    },
    {
      "inputs": [],
      "name": "getPaymentAmount",
      "outputs": [
        {
          "internalType": "uint96",
          "name": "",
          "type": "uint96"
        }
      ],
      "stateMutability": "view",
      "type": "function"
    },
    {
      "inputs": [],
      "name": "getRequestConfig",
      "outputs": [
        {
          "internalType": "uint16",
          "name": "",
          "type": "uint16"
        },
        {
          "internalType": "uint32",
          "name": "",
          "type": "uint32"
        },
        {
          "internalType": "bytes32[]",
          "name": "",
          "type": "bytes32[]"
        }
      ],
      "stateMutability": "view",
      "type": "function"
    },
    {
      "inputs": [
        {
          "internalType": "uint64",
          "name": "subId",
          "type": "uint64"
        }
      ],
      "name": "getSubscription",
      "outputs": [
        {
          "internalType": "uint96",
          "name": "balance",
          "type": "uint96"
        },
        {
          "internalType": "uint64",
          "name": "reqCount",
          "type": "uint64"
        },
        {
          "internalType": "address",
          "name": "owner",
          "type": "address"
        },
        {
          "internalType": "address[]",
          "name": "consumers",
          "type": "address[]"
        }
      ],
      "stateMutability": "view",
      "type": "function"
    },
    {
      "inputs": [],
      "name": "getTotalBalance",
      "outputs": [
        {
          "internalType": "uint256",
          "name": "",
          "type": "uint256"
        }
      ],
      "stateMutability": "view",
      "type": "function"
    },
    {
      "inputs": [
        {
          "internalType": "uint256[2]",
          "name": "publicKey",
          "type": "uint256[2]"
        }
      ],
      "name": "hashOfKey",
      "outputs": [
        {
          "internalType": "bytes32",
          "name": "",
          "type": "bytes32"
        }
      ],
      "stateMutability": "pure",
      "type": "function"
    },
    {
      "inputs": [
        {
          "internalType": "address",
          "name": "",
          "type": "address"
        },
        {
          "internalType": "uint256",
          "name": "amount",
          "type": "uint256"
        },
        {
          "internalType": "bytes",
          "name": "data",
          "type": "bytes"
        }
      ],
      "name": "onTokenTransfer",
      "outputs": [],
      "stateMutability": "nonpayable",
      "type": "function"
    },
    {
      "inputs": [
        {
          "internalType": "address",
          "name": "recipient",
          "type": "address"
        },
        {
          "internalType": "uint96",
          "name": "amount",
          "type": "uint96"
        }
      ],
      "name": "oracleWithdraw",
      "outputs": [],
      "stateMutability": "nonpayable",
      "type": "function"
    },
    {
      "inputs": [],
      "name": "owner",
      "outputs": [
        {
          "internalType": "address",
          "name": "",
          "type": "address"
        }
      ],
      "stateMutability": "view",
      "type": "function"
    },
    {
      "inputs": [
        {
          "internalType": "uint64",
          "name": "subId",
          "type": "uint64"
        }
      ],
      "name": "ownerCancelSubscription",
      "outputs": [],
      "stateMutability": "nonpayable",
      "type": "function"
    },
    {
      "inputs": [
        {
          "internalType": "uint64",
          "name": "subId",
          "type": "uint64"
        }
      ],
      "name": "pendingRequestExists",
      "outputs": [
        {
          "internalType": "bool",
          "name": "",
          "type": "bool"
        }
      ],
      "stateMutability": "view",
      "type": "function"
    },
    {
      "inputs": [
        {
          "internalType": "address",
          "name": "to",
          "type": "address"
        }
      ],
      "name": "recoverFunds",
      "outputs": [],
      "stateMutability": "nonpayable",
      "type": "function"
    },
    {
      "inputs": [
        {
          "internalType": "address",
          "name": "oracle",
          "type": "address"
        },
        {
          "internalType": "uint256[2]",
          "name": "publicProvingKey",
          "type": "uint256[2]"
        }
      ],
      "name": "registerProvingKey",
      "outputs": [],
      "stateMutability": "nonpayable",
      "type": "function"
    },
    {
      "inputs": [
        {
          "internalType": "uint64",
          "name": "subId",
          "type": "uint64"
        },
        {
          "internalType": "address",
          "name": "consumer",
          "type": "address"
        }
      ],
      "name": "removeConsumer",
      "outputs": [],
      "stateMutability": "nonpayable",
      "type": "function"
    },
    {
      "inputs": [
        {
          "internalType": "bytes32",
          "name": "keyHash",
          "type": "bytes32"
        },
        {
          "internalType": "uint64",
          "name": "subId",
          "type": "uint64"
        },
        {
          "internalType": "uint16",
          "name": "requestConfirmations",
          "type": "uint16"
        },
        {
          "internalType": "uint32",
          "name": "callbackGasLimit",
          "type": "uint32"
        },
        {
          "internalType": "uint32",
          "name": "numWords",
          "type": "uint32"
        }
      ],
      "name": "requestRandomWords",
      "outputs": [
        {
          "internalType": "uint256",
          "name": "",
          "type": "uint256"
        }
      ],
      "stateMutability": "nonpayable",
      "type": "function"
    },
    {
      "inputs": [
        {
          "internalType": "uint64",
          "name": "subId",
          "type": "uint64"
        },
        {
          "internalType": "address",
          "name": "newOwner",
          "type": "address"
        }
      ],
      "name": "requestSubscriptionOwnerTransfer",
      "outputs": [],
      "stateMutability": "nonpayable",
      "type": "function"
    },
    {
      "inputs": [
        {
          "internalType": "uint16",
          "name": "minimumRequestConfirmations",
          "type": "uint16"
        },
        {
          "internalType": "uint32",
          "name": "maxGasLimit",
          "type": "uint32"
        },
        {
          "internalType": "uint32",
          "name": "stalenessSeconds",
          "type": "uint32"
        },
        {
          "internalType": "uint32",
          "name": "gasAfterPaymentCalculation",
          "type": "uint32"
        },
        {
          "internalType": "int256",
          "name": "fallbackWeiPerUnitLink",
          "type": "int256"
        },
        {
          "components": [
            {
              "internalType": "uint32",
              "name": "fulfillmentFlatFeeLinkPPMTier1",
              "type": "uint32"
            },
            {
              "internalType": "uint32",
              "name": "fulfillmentFlatFeeLinkPPMTier2",
              "type": "uint32"
            },
            {
              "internalType": "uint32",
              "name": "fulfillmentFlatFeeLinkPPMTier3",
              "type": "uint32"
            },
            {
              "internalType": "uint32",
              "name": "fulfillmentFlatFeeLinkPPMTier4",
              "type": "uint32"
            },
            {
              "internalType": "uint32",
              "name": "fulfillmentFlatFeeLinkPPMTier5",
              "type": "uint32"
            },
            {
              "internalType": "uint24",
              "name": "reqsForTier2",
              "type": "uint24"
            },
            {
              "internalType": "uint24",
              "name": "reqsForTier3",
              "type": "uint24"
            },
            {
              "internalType": "uint24",
              "name": "reqsForTier4",
              "type": "uint24"
            },
            {
              "internalType": "uint24",
              "name": "reqsForTier5",
              "type": "uint24"
            }
          ],
          "internalType": "struct VRFCoordinatorV2.FeeConfig",
          "name": "feeConfig",
          "type": "tuple"
        }
      ],
      "name": "setConfig",
      "outputs": [],
      "stateMutability": "nonpayable",
      "type": "function"
    },
    {
      "inputs": [
        {
          "internalType": "address",
          "name": "to",
          "type": "address"
        }
      ],
      "name": "transferOwnership",
      "outputs": [],
      "stateMutability": "nonpayable",
      "type": "function"
    },
    {
      "inputs": [],
      "name": "typeAndVersion",
      "outputs": [
        {
          "internalType": "string",
          "name": "",
          "type": "string"
        }
      ],
      "stateMutability": "pure",
      "type": "function"
    }
  ],
  "bytecode": "0x60e06040523480156200001157600080fd5b5060405162004a7638038062004a768339810160408190526200003491620001ae565b82828233806000816200008e5760405162461bcd60e51b815260206004820152601860248201527f43616e6e6f7420736574206f776e657220746f207a65726f000000000000000060448201526064015b60405180910390fd5b600080546001600160a01b0319166001600160a01b0384811691909117909155811615620000c157620000c181620000e5565b5050506001600160a01b03928316608052821660a0521660c05250620001f8915050565b6001600160a01b038116331415620001405760405162461bcd60e51b815260206004820152601760248201527f43616e6e6f74207472616e7366657220746f2073656c66000000000000000000604482015260640162000085565b600180546001600160a01b0319166001600160a01b0383811691821790925560008054604051929316917fed8889f560326eb138920d842192f0eb3dd22b4f139c87a2c57538e05bae12789190a350565b80516001600160a01b0381168114620001a957600080fd5b919050565b600080600060608486031215620001c457600080fd5b620001cf8462000191565b9250620001df6020850162000191565b9150620001ef6040850162000191565b90509250925092565b60805160a05160c05161481d620002596000396000818161049b0152612e300152600081816105a0015261304b01526000818161033b0152818161108e01528181611c4101528181612438015281816125290152612a36015261481d6000f3fe608060405234801561001057600080fd5b506004361061023c5760003560e01c80636f64f03f1161013b578063a4c0ed36116100b8578063d2f9f9a71161007c578063d2f9f9a71461062e578063d7ae1d3014610641578063e72f6e3014610654578063e82ad7d414610667578063f2fde38b1461068a57600080fd5b8063a4c0ed3614610588578063ad1783611461059b578063af198b97146105c2578063c3f909d4146105d5578063caf70c4a1461061b57600080fd5b806382359740116100ff57806382359740146105265780638da5cb5b146105395780639f87fad71461054a578063a21a23e41461055d578063a47c76961461056557600080fd5b80636f64f03f146104dd5780637341c10c146104f05780637697bc1814610503578063775de59d1461050b57806379ba50971461051e57600080fd5b8063356dac71116101c95780635fbbc0d21161018d5780635fbbc0d2146103e657806364d51a2a1461047b57806366316d8d14610483578063689c45171461049657806369bcdb7d146104bd57600080fd5b8063356dac71146103755780633e8817aa1461037d57806340d6bb82146103a25780634cb48a54146103c05780635d3b1d30146103d357600080fd5b806308821d581161021057806308821d58146102ae57806312b58349146102c157806315c48b84146102e3578063181f5a77146102fe5780631b6b6d231461033657600080fd5b80620122911461024157806302bcc5b61461026157806304c357cb1461027657806306bfa63714610289575b600080fd5b61024961069d565b60405161025893929190613cbc565b60405180910390f35b61027461026f366004613d32565b610719565b005b610274610284366004613d64565b610790565b6005546001600160401b03165b6040516001600160401b039091168152602001610258565b6102746102bc366004613da8565b6108db565b600554600160401b90046001600160601b03165b604051908152602001610258565b6102eb60c881565b60405161ffff9091168152602001610258565b60408051808201825260168152750565246436f6f7264696e61746f72563220312e302e360541b602082015290516102589190613dc4565b61035d7f000000000000000000000000000000000000000000000000000000000000000081565b6040516001600160a01b039091168152602001610258565b600a546102d5565b600d546001600160601b03165b6040516001600160601b039091168152602001610258565b6103ab6101f481565b60405163ffffffff9091168152602001610258565b6102746103ce366004613e91565b610a6f565b6102d56103e1366004613fb0565b610cc5565b600c546040805163ffffffff8084168252640100000000840481166020830152600160401b8404811692820192909252600160601b830482166060820152600160801b8304909116608082015262ffffff600160a01b8304811660a0830152600160b81b8304811660c0830152600160d01b8304811660e0830152600160e81b90920490911661010082015261012001610258565b6102eb606481565b61027461049136600461400e565b610f91565b61035d7f000000000000000000000000000000000000000000000000000000000000000081565b6102d56104cb366004614051565b60009081526009602052604090205490565b6102746104eb36600461406a565b61115b565b6102746104fe366004613d64565b61125a565b600e546102d5565b610274610519366004614095565b61140d565b610274611443565b610274610534366004613d32565b6114ed565b6000546001600160a01b031661035d565b610274610558366004613d64565b611649565b610296611974565b610578610573366004613d32565b611b11565b60405161025894939291906140ca565b610274610596366004614144565b611c0b565b61035d7f000000000000000000000000000000000000000000000000000000000000000081565b61038a6105d03660046142c9565b611dda565b600b546040805161ffff8316815263ffffffff62010000840481166020830152600160381b8404811692820192909252600160581b909204166060820152608001610258565b6102d5610629366004614391565b612199565b6103ab61063c366004613d32565b6121c9565b61027461064f366004613d64565b612346565b6102746106623660046143ad565b612418565b61067a610675366004613d32565b6125e2565b6040519015158152602001610258565b6102746106983660046143ad565b61278d565b600b546007805460408051602080840282018101909252828152600094859460609461ffff8316946201000090930463ffffffff1693919283919083018282801561070757602002820191906000526020600020905b8154815260200190600101908083116106f3575b50505050509050925092509250909192565b61072161279e565b6001600160401b0381166000908152600360205260409020546001600160a01b031661076057604051630fb532db60e11b815260040160405180910390fd5b6001600160401b03811660009081526003602052604090205461078d9082906001600160a01b03166127f3565b50565b6001600160401b03821660009081526003602052604090205482906001600160a01b0316806107d257604051630fb532db60e11b815260040160405180910390fd5b336001600160a01b0382161461080b57604051636c51fda960e11b81526001600160a01b03821660048201526024015b60405180910390fd5b600b54600160301b900460ff16156108365760405163769dd35360e11b815260040160405180910390fd5b6001600160401b0384166000908152600360205260409020600101546001600160a01b038481169116146108d5576001600160401b03841660008181526003602090815260409182902060010180546001600160a01b0319166001600160a01b0388169081179091558251338152918201527f69436ea6df009049404f564eff6622cd00522b0bd6a89efd9e52a355c4a879be91015b60405180910390a25b50505050565b6108e361279e565b604080518082018252600091610912919084906002908390839080828437600092019190915250612199915050565b6000818152600660205260409020549091506001600160a01b03168061094e57604051631dfd6e1360e21b815260048101839052602401610802565b600082815260066020526040812080546001600160a01b03191690555b600754811015610a26578260078281548110610989576109896143c8565b90600052602060002001541415610a145760078054600091906109ae906001906143f4565b815481106109be576109be6143c8565b9060005260206000200154905080600783815481106109df576109df6143c8565b60009182526020909120015560078054806109fc576109fc61440b565b60019003818190600052602060002001600090559055505b80610a1e81614421565b91505061096b565b50806001600160a01b03167f72be339577868f868798bac2c93e52d6f034fef4689a9848996c14ebb7416c0d83604051610a6291815260200190565b60405180910390a2505050565b610a7761279e565b60c861ffff87161115610ab15760405163539c34bb60e11b815261ffff871660048201819052602482015260c86044820152606401610802565b60008213610ad5576040516321ea67b360e11b815260048101839052602401610802565b6040805160a0808201835261ffff891680835263ffffffff89811660208086018290526000868801528a831660608088018290528b85166080988901819052600b805465ffffffffffff191690971762010000909502949094176effffffffffffffffff0000000000001916600160381b90920263ffffffff60581b191691909117600160581b909302929092179093558651600c80549489015189890151938a0151978a0151968a015160c08b015160e08c01516101008d015195881667ffffffffffffffff199099169890981764010000000093881693909302929092176fffffffffffffffff00000000000000001916600160401b9587169590950263ffffffff60601b191694909417600160601b988616989098029790971766ffffffffffffff60801b1916600160801b969094169590950262ffffff60a01b191692909217600160a01b62ffffff928316021765ffffffffffff60b81b1916600160b81b9582169590950262ffffff60d01b191694909417600160d01b92851692909202919091176001600160e81b0316600160e81b9390911692909202919091178155600a84905590517fc21e3bd2e0b339d2848f0dd956947a88966c242c0c0c582a33137a5c1ceb5cb291610cb591899189918991899189919061443c565b60405180910390a1505050505050565b600b54600090600160301b900460ff1615610cf35760405163769dd35360e11b815260040160405180910390fd5b6001600160401b0385166000908152600360205260409020546001600160a01b0316610d3257604051630fb532db60e11b815260040160405180910390fd5b3360009081526002602090815260408083206001600160401b03808a1685529252909120541680610d8757604051637800cff360e11b81526001600160401b0387166004820152336024820152604401610802565b600b5461ffff9081169086161080610da3575060c861ffff8616115b15610dda57600b5460405163539c34bb60e11b815261ffff8088166004830152909116602482015260c86044820152606401610802565b600b5463ffffffff6201000090910481169085161115610e2857600b54604051637aebf00f60e11b815263ffffffff8087166004830152620100009092049091166024820152604401610802565b6101f463ffffffff84161115610e61576040516311ce1afb60e21b815263ffffffff841660048201526101f46024820152604401610802565b6000610e6e826001614518565b9050600080610e7f8a338b86612b5b565b604080516020810184905243918101919091526001600160401b038c16606082015263ffffffff808b166080830152891660a08201523360c0820152919350915060e00160408051808303601f19018152828252805160209182012060008681526009835283902055848352820183905261ffff8a169082015263ffffffff80891660608301528716608082015233906001600160401b038b16908c907f63373d1c4696214b898952999c9aaec57dac1ee2723cec59bea6888f489a97729060a00160405180910390a4503360009081526002602090815260408083206001600160401b03808d168552925290912080549190931667ffffffffffffffff199091161790915591505095945050505050565b600b54600160301b900460ff1615610fbc5760405163769dd35360e11b815260040160405180910390fd5b336000908152600860205260409020546001600160601b0380831691161015610ff857604051631e9acf1760e31b815260040160405180910390fd5b33600090815260086020526040812080548392906110209084906001600160601b0316614543565b92506101000a8154816001600160601b0302191690836001600160601b0316021790555080600560088282829054906101000a90046001600160601b03166110689190614543565b92506101000a8154816001600160601b0302191690836001600160601b031602179055507f00000000000000000000000000000000000000000000000000000000000000006001600160a01b031663a9059cbb83836040518363ffffffff1660e01b81526004016110f79291906001600160a01b039290921682526001600160601b0316602082015260400190565b6020604051808303816000875af1158015611116573d6000803e3d6000fd5b505050506040513d601f19601f8201168201806040525081019061113a919061456b565b61115757604051631e9acf1760e31b815260040160405180910390fd5b5050565b61116361279e565b604080518082018252600091611192919084906002908390839080828437600092019190915250612199915050565b6000818152600660205260409020549091506001600160a01b0316156111ce57604051634a0b8fa760e01b815260048101829052602401610802565b600081815260066020908152604080832080546001600160a01b0319166001600160a01b0388169081179091556007805460018101825594527fa66cc928b5edb82af9bd49922954155ab7b0942694bea4ce44661d9a8736c688909301849055518381527fe729ae16526293f74ade739043022254f1489f616295a25bf72dfb4511ed73b89101610a62565b6001600160401b03821660009081526003602052604090205482906001600160a01b03168061129c57604051630fb532db60e11b815260040160405180910390fd5b336001600160a01b038216146112d057604051636c51fda960e11b81526001600160a01b0382166004820152602401610802565b600b54600160301b900460ff16156112fb5760405163769dd35360e11b815260040160405180910390fd5b6001600160401b03841660009081526003602052604090206002015460641415611338576040516305a48e0f60e01b815260040160405180910390fd5b6001600160a01b03831660009081526002602090815260408083206001600160401b0380891685529252909120541615611371576108d5565b6001600160a01b03831660008181526002602081815260408084206001600160401b038a16808652908352818520805467ffffffffffffffff19166001908117909155600384528286209094018054948501815585529382902090920180546001600160a01b03191685179055905192835290917f43dc749a04ac8fb825cbd514f7c0e13f13bc6f2ee66043b76629d51776cff8e091016108cc565b6114195a848484612bd5565b600d80546bffffffffffffffffffffffff19166001600160601b0392909216919091179055505050565b6001546001600160a01b031633146114965760405162461bcd60e51b815260206004820152601660248201527526bab9ba10313290383937b837b9b2b21037bbb732b960511b6044820152606401610802565b60008054336001600160a01b0319808316821784556001805490911690556040516001600160a01b0390921692909183917f8be0079c531659141344cd1fd0a4f28419497f9722a3daafe3b4186f6b6457e091a350565b600b54600160301b900460ff16156115185760405163769dd35360e11b815260040160405180910390fd5b6001600160401b0381166000908152600360205260409020546001600160a01b031661155757604051630fb532db60e11b815260040160405180910390fd5b6001600160401b0381166000908152600360205260409020600101546001600160a01b031633146115c4576001600160401b0381166000908152600360205260409081902060010154905163d084e97560e01b81526001600160a01b039091166004820152602401610802565b6001600160401b0381166000818152600360209081526040918290208054336001600160a01b0319808316821784556001909301805490931690925583516001600160a01b03909116808252928101919091529092917f6f1dc65165ffffedfd8e507b4a0f1fcfdada045ed11f6c26ba27cedfe87802f0910160405180910390a25050565b6001600160401b03821660009081526003602052604090205482906001600160a01b03168061168b57604051630fb532db60e11b815260040160405180910390fd5b336001600160a01b038216146116bf57604051636c51fda960e11b81526001600160a01b0382166004820152602401610802565b600b54600160301b900460ff16156116ea5760405163769dd35360e11b815260040160405180910390fd5b6001600160a01b03831660009081526002602090815260408083206001600160401b0380891685529252909120541661175057604051637800cff360e11b81526001600160401b03851660048201526001600160a01b0384166024820152604401610802565b6001600160401b0384166000908152600360209081526040808320600201805482518185028101850190935280835291929091908301828280156117bd57602002820191906000526020600020905b81546001600160a01b0316815260019091019060200180831161179f575b505050505090506000600182516117d491906143f4565b905060005b82518110156118fb57856001600160a01b03168382815181106117fe576117fe6143c8565b60200260200101516001600160a01b031614156118e9576000838381518110611829576118296143c8565b6020026020010151905080600360008a6001600160401b03166001600160401b03168152602001908152602001600020600201838154811061186d5761186d6143c8565b600091825260208083209190910180546001600160a01b0319166001600160a01b0394909416939093179092556001600160401b038a1681526003909152604090206002018054806118c1576118c161440b565b600082815260209020810160001990810180546001600160a01b0319169055019055506118fb565b806118f381614421565b9150506117d9565b506001600160a01b03851660008181526002602090815260408083206001600160401b038b1680855290835292819020805467ffffffffffffffff191690555192835290917f182bff9831466789164ca77075fffd84916d35a8180ba73c27e45634549b445b91015b60405180910390a2505050505050565b600b54600090600160301b900460ff16156119a25760405163769dd35360e11b815260040160405180910390fd5b600580546001600160401b03169060006119bb8361458d565b82546101009290920a6001600160401b03818102199093169183160217909155600554169050600080604051908082528060200260200182016040528015611a0d578160200160208202803683370190505b50604080518082018252600080825260208083018281526001600160401b03888116808552600484528685209551865493516001600160601b039091166001600160a01b031994851617600160601b919093160291909117909455845160608101865233815280830184815281870188815295855260038452959093208351815483166001600160a01b0391821617825595516001820180549093169616959095179055915180519495509093611aca9260028501920190613bca565b50506040513381526001600160401b03841691507f464722b4166576d3dcbba877b999bc35cf911f4eaf434b7eba68fa113951d0bf9060200160405180910390a250905090565b6001600160401b038116600090815260036020526040812054819081906060906001600160a01b0316611b5757604051630fb532db60e11b815260040160405180910390fd5b6001600160401b0380861660009081526004602090815260408083205460038352928190208054600290910180548351818602810186019094528084526001600160601b03861696600160601b909604909516946001600160a01b03909216939092918391830182828015611bf557602002820191906000526020600020905b81546001600160a01b03168152600190910190602001808311611bd7575b5050505050905093509350935093509193509193565b600b54600160301b900460ff1615611c365760405163769dd35360e11b815260040160405180910390fd5b336001600160a01b037f00000000000000000000000000000000000000000000000000000000000000001614611c7f576040516344b0e3c360e01b815260040160405180910390fd5b60208114611ca057604051638129bbcd60e01b815260040160405180910390fd5b6000611cae82840184613d32565b6001600160401b0381166000908152600360205260409020549091506001600160a01b0316611cf057604051630fb532db60e11b815260040160405180910390fd5b6001600160401b038116600090815260046020526040812080546001600160601b031691869190611d2183856145b4565b92506101000a8154816001600160601b0302191690836001600160601b0316021790555084600560088282829054906101000a90046001600160601b0316611d6991906145b4565b92506101000a8154816001600160601b0302191690836001600160601b03160217905550816001600160401b03167fd39ec07f4e209f627a4c427971473820dc129761ba28de8906bd56f57101d4f8828784611dc591906145d6565b60408051928352602083019190915201611964565b600b54600090600160301b900460ff1615611e085760405163769dd35360e11b815260040160405180910390fd5b60005a90506000806000611e1c8787612cab565b9250925092506000866060015163ffffffff166001600160401b03811115611e4657611e46613e3f565b604051908082528060200260200182016040528015611e6f578160200160208202803683370190505b50905060005b876060015163ffffffff16811015611ee35760408051602081018590529081018290526060016040516020818303038152906040528051906020012060001c828281518110611ec657611ec66143c8565b602090810291909101015280611edb81614421565b915050611e75565b50600083815260096020526040808220829055518190631fe543e360e01b90611f1290879086906024016145ee565b60408051601f198184030181529181526020820180516001600160e01b03166001600160e01b031990941693909317909252600b805466ff0000000000001916600160301b179055908a015160808b0151919250600091611f7a9163ffffffff169084612f25565b600b805466ff000000000000191690556020808c0180516001600160401b03908116600090815260049093526040808420549251821684529092208054939450600160601b918290048316936001939192600c92611fdc928692900416614518565b92506101000a8154816001600160401b0302191690836001600160401b0316021790555060006120318a600b600001600b9054906101000a900463ffffffff1663ffffffff1661202b856121c9565b3a612bd5565b6020808e01516001600160401b03166000908152600490915260409020549091506001600160601b038083169116101561207e57604051631e9acf1760e31b815260040160405180910390fd5b6020808d01516001600160401b0316600090815260049091526040812080548392906120b49084906001600160601b0316614543565b82546101009290920a6001600160601b0381810219909316918316021790915560008b8152600660209081526040808320546001600160a01b03168352600890915281208054859450909261210b918591166145b4565b92506101000a8154816001600160601b0302191690836001600160601b03160217905550877f7dffc5ae5ee4e2e4df1651cf6ad329a73cebdb728f37ea0187b9b17e036756e488838660405161217f939291909283526001600160601b039190911660208301521515604082015260600190565b60405180910390a299505050505050505050505b92915050565b6000816040516020016121ac919061465f565b604051602081830303815290604052805190602001209050919050565b6040805161012081018252600c5463ffffffff8082168352640100000000820481166020840152600160401b8204811693830193909352600160601b810483166060830152600160801b8104909216608082015262ffffff600160a01b8304811660a08301819052600160b81b8404821660c0840152600160d01b8404821660e0840152600160e81b909304166101008201526000916001600160401b03841611612275575192915050565b826001600160401b03168160a0015162ffffff161080156122a857508060c0015162ffffff16836001600160401b031611155b156122b7576020015192915050565b826001600160401b03168160c0015162ffffff161080156122ea57508060e0015162ffffff16836001600160401b031611155b156122f9576040015192915050565b826001600160401b03168160e0015162ffffff1610801561232d575080610100015162ffffff16836001600160401b031611155b1561233c576060015192915050565b6080015192915050565b6001600160401b03821660009081526003602052604090205482906001600160a01b03168061238857604051630fb532db60e11b815260040160405180910390fd5b336001600160a01b038216146123bc57604051636c51fda960e11b81526001600160a01b0382166004820152602401610802565b600b54600160301b900460ff16156123e75760405163769dd35360e11b815260040160405180910390fd5b6123f0846125e2565b1561240e57604051631685ecdd60e31b815260040160405180910390fd5b6108d584846127f3565b61242061279e565b6040516370a0823160e01b81523060048201526000907f00000000000000000000000000000000000000000000000000000000000000006001600160a01b0316906370a0823190602401602060405180830381865afa158015612487573d6000803e3d6000fd5b505050506040513d601f19601f820116820180604052508101906124ab919061466d565b600554909150600160401b90046001600160601b0316818111156124ec576040516354ced18160e11b81526004810182905260248101839052604401610802565b818110156125dd57600061250082846143f4565b60405163a9059cbb60e01b81526001600160a01b038681166004830152602482018390529192507f00000000000000000000000000000000000000000000000000000000000000009091169063a9059cbb906044016020604051808303816000875af1158015612574573d6000803e3d6000fd5b505050506040513d601f19601f82011682018060405250810190612598919061456b565b50604080516001600160a01b0386168152602081018390527f59bfc682b673f8cbf945f1e454df9334834abf7dfe7f92237ca29ecb9b436600910160405180910390a1505b505050565b6001600160401b0381166000908152600360209081526040808320815160608101835281546001600160a01b039081168252600183015416818501526002820180548451818702810187018652818152879693958601939092919083018282801561267657602002820191906000526020600020905b81546001600160a01b03168152600190910190602001808311612658575b505050505081525050905060005b8160400151518110156127835760005b600754811015612770576000612739600783815481106126b6576126b66143c8565b9060005260206000200154856040015185815181106126d7576126d76143c8565b60200260200101518860026000896040015189815181106126fa576126fa6143c8565b6020908102919091018101516001600160a01b0316825281810192909252604090810160009081206001600160401b03808f1683529352205416612b5b565b506000818152600960205260409020549091501561275d5750600195945050505050565b508061276881614421565b915050612694565b508061277b81614421565b915050612684565b5060009392505050565b61279561279e565b61078d81612f73565b6000546001600160a01b031633146127f15760405162461bcd60e51b815260206004820152601660248201527527b7363c9031b0b63630b1363290313c9037bbb732b960511b6044820152606401610802565b565b600b54600160301b900460ff161561281e5760405163769dd35360e11b815260040160405180910390fd5b6001600160401b0382166000908152600360209081526040808320815160608101835281546001600160a01b039081168252600183015416818501526002820180548451818702810187018652818152929593948601938301828280156128ae57602002820191906000526020600020905b81546001600160a01b03168152600190910190602001808311612890575b505050919092525050506001600160401b0380851660009081526004602090815260408083208151808301909252546001600160601b038116808352600160601b909104909416918101919091529293505b836040015151811015612981576002600085604001518381518110612927576129276143c8565b6020908102919091018101516001600160a01b0316825281810192909252604090810160009081206001600160401b038a1682529092529020805467ffffffffffffffff191690558061297981614421565b915050612900565b506001600160401b038516600090815260036020526040812080546001600160a01b031990811682556001820180549091169055906129c36002830182613c2f565b50506001600160401b038516600090815260046020526040902080546001600160a01b031916905560058054829190600890612a10908490600160401b90046001600160601b0316614543565b92506101000a8154816001600160601b0302191690836001600160601b031602179055507f00000000000000000000000000000000000000000000000000000000000000006001600160a01b031663a9059cbb85836001600160601b03166040518363ffffffff1660e01b8152600401612a9f9291906001600160a01b03929092168252602082015260400190565b6020604051808303816000875af1158015612abe573d6000803e3d6000fd5b505050506040513d601f19601f82011682018060405250810190612ae2919061456b565b612aff57604051631e9acf1760e31b815260040160405180910390fd5b604080516001600160a01b03861681526001600160601b03831660208201526001600160401b038716917fe8ed5b475a5b5987aa9165e8731bb78043f39eee32ec5a1169a89e27fcd49815910160405180910390a25050505050565b6040805160208082018790526001600160a01b0395909516818301526001600160401b039384166060820152919092166080808301919091528251808303909101815260a08201835280519084012060c082019490945260e080820185905282518083039091018152610100909101909152805191012091565b600080612be061301d565b905060008113612c06576040516321ea67b360e11b815260048101829052602401610802565b6000815a612c1489896145d6565b612c1e91906143f4565b612c3086670de0b6b3a7640000614686565b612c3a9190614686565b612c4491906146bb565b90506000612c5d63ffffffff871664e8d4a51000614686565b9050612c75816b033b2e3c9fd0803ce80000006143f4565b821115612c955760405163e80fa38160e01b815260040160405180910390fd5b612c9f81836145d6565b98975050505050505050565b6000806000612cbd8560000151612199565b6000818152600660205260409020549093506001600160a01b031680612cf957604051631dfd6e1360e21b815260048101859052602401610802565b6080860151604051612d18918691602001918252602082015260400190565b60408051601f1981840301815291815281516020928301206000818152600990935291205490935080612d5e57604051631b44092560e11b815260040160405180910390fd5b85516020808801516040808a015160608b015160808c01519251612dc9968b9690959491019586526001600160401b03948516602087015292909316604085015263ffffffff90811660608501529190911660808301526001600160a01b031660a082015260c00190565b604051602081830303815290604052805190602001208114612dfe5760405163354a450b60e21b815260040160405180910390fd5b85516001600160401b03164080612ed1578651604051631d2827a760e31b81526001600160401b0390911660048201527f00000000000000000000000000000000000000000000000000000000000000006001600160a01b03169063e9413d3890602401602060405180830381865afa158015612e7f573d6000803e3d6000fd5b505050506040513d601f19601f82011682018060405250810190612ea3919061466d565b905080612ed157865160405163175dadad60e01b81526001600160401b039091166004820152602401610802565b6000886080015182604051602001612ef3929190918252602082015260400190565b6040516020818303038152906040528051906020012060001c9050612f1889826130f8565b9450505050509250925092565b60005a611388811015612f3757600080fd5b611388810390508460408204820311612f4f57600080fd5b50823b612f5b57600080fd5b60008083516020850160008789f190505b9392505050565b6001600160a01b038116331415612fcc5760405162461bcd60e51b815260206004820152601760248201527f43616e6e6f74207472616e7366657220746f2073656c660000000000000000006044820152606401610802565b600180546001600160a01b0319166001600160a01b0383811691821790925560008054604051929316917fed8889f560326eb138920d842192f0eb3dd22b4f139c87a2c57538e05bae12789190a350565b600b5460408051633fabe5a360e21b81529051600092600160381b900463ffffffff169182151591849182917f00000000000000000000000000000000000000000000000000000000000000006001600160a01b03169163feaf968c9160048083019260a09291908290030181865afa15801561309e573d6000803e3d6000fd5b505050506040513d601f19601f820116820180604052508101906130c291906146e9565b5094509092508491505080156130e657506130dd82426143f4565b8463ffffffff16105b156130f05750600a545b949350505050565b600061312c8360000151846020015185604001518660600151868860a001518960c001518a60e001518b6101000151613163565b6003836020015160405160200161314492919061472d565b60408051601f1981840301815291905280516020909101209392505050565b61316c89613386565b6131b85760405162461bcd60e51b815260206004820152601a60248201527f7075626c6963206b6579206973206e6f74206f6e2063757276650000000000006044820152606401610802565b6131c188613386565b6132055760405162461bcd60e51b815260206004820152601560248201527467616d6d61206973206e6f74206f6e20637572766560581b6044820152606401610802565b61320e83613386565b61325a5760405162461bcd60e51b815260206004820152601d60248201527f6347616d6d615769746e657373206973206e6f74206f6e2063757276650000006044820152606401610802565b61326382613386565b6132af5760405162461bcd60e51b815260206004820152601c60248201527f73486173685769746e657373206973206e6f74206f6e206375727665000000006044820152606401610802565b6132bb878a8887613449565b6133075760405162461bcd60e51b815260206004820152601960248201527f6164647228632a706b2b732a6729213d5f755769746e657373000000000000006044820152606401610802565b60006133138a8761356c565b90506000613326898b878b8689896135d0565b90506000613337838d8d8a866136e9565b9050808a146133785760405162461bcd60e51b815260206004820152600d60248201526c34b73b30b634b210383937b7b360991b6044820152606401610802565b505050505050505050505050565b80516000906401000003d019116133d45760405162461bcd60e51b8152602060048201526012602482015271696e76616c696420782d6f7264696e61746560701b6044820152606401610802565b60208201516401000003d019116134225760405162461bcd60e51b8152602060048201526012602482015271696e76616c696420792d6f7264696e61746560701b6044820152606401610802565b60208201516401000003d0199080096134428360005b6020020151613729565b1492915050565b60006001600160a01b03821661348f5760405162461bcd60e51b815260206004820152600b60248201526a626164207769746e65737360a81b6044820152606401610802565b6020840151600090600116156134a657601c6134a9565b601b5b9050600070014551231950b75fc4402da1732fc9bebe1985876000602002015109865170014551231950b75fc4402da1732fc9bebe19918203925060009190890987516040805160008082526020820180845287905260ff88169282019290925260608101929092526080820183905291925060019060a0016020604051602081039080840390855afa158015613544573d6000803e3d6000fd5b5050604051601f1901516001600160a01b039081169088161495505050505050949350505050565b613574613c4d565b6135a16001848460405160200161358d93929190614741565b60405160208183030381529060405261374d565b90505b6135ad81613386565b6121935780516040805160208101929092526135c9910161358d565b90506135a4565b6135d8613c4d565b825186516401000003d01990819006910614156136375760405162461bcd60e51b815260206004820152601e60248201527f706f696e747320696e2073756d206d7573742062652064697374696e637400006044820152606401610802565b61364287898861379c565b6136875760405162461bcd60e51b8152602060048201526016602482015275119a5c9cdd081b5d5b0818da1958dac819985a5b195960521b6044820152606401610802565b61369284868561379c565b6136de5760405162461bcd60e51b815260206004820152601760248201527f5365636f6e64206d756c20636865636b206661696c65640000000000000000006044820152606401610802565b612c9f8684846138c4565b60006002868686858760405160200161370796959493929190614762565b60408051601f1981840301815291905280516020909101209695505050505050565b6000806401000003d01980848509840990506401000003d019600782089392505050565b613755613c4d565b61375e8261398b565b815261377361376e826000613438565b6139c6565b602082018190526002900660011415613797576020810180516401000003d0190390525b919050565b6000826137d95760405162461bcd60e51b815260206004820152600b60248201526a3d32b9379039b1b0b630b960a91b6044820152606401610802565b835160208501516000906137ef906002906147c1565b156137fb57601c6137fe565b601b5b9050600070014551231950b75fc4402da1732fc9bebe198387096040805160008082526020820180845281905260ff86169282019290925260608101869052608081018390529192509060019060a0016020604051602081039080840390855afa158015613870573d6000803e3d6000fd5b50505060206040510351905060008660405160200161388f91906147d5565b60408051601f1981840301815291905280516020909101206001600160a01b0392831692169190911498975050505050505050565b6138cc613c4d565b8351602080860151855191860151600093849384936138ed939091906139e6565b919450925090506401000003d01985820960011461394d5760405162461bcd60e51b815260206004820152601960248201527f696e765a206d75737420626520696e7665727365206f66207a000000000000006044820152606401610802565b60405180604001604052806401000003d0198061396c5761396c6146a5565b87860981526020016401000003d0198785099052979650505050505050565b805160208201205b6401000003d019811061379757604080516020808201939093528151808203840181529082019091528051910120613993565b60006121938260026139df6401000003d01960016145d6565b901c613ac6565b60008080600180826401000003d019896401000003d019038808905060006401000003d0198b6401000003d019038a0890506000613a2683838585613b5d565b9098509050613a3788828e88613b81565b9098509050613a4888828c87613b81565b90985090506000613a5b8d878b85613b81565b9098509050613a6c88828686613b5d565b9098509050613a7d88828e89613b81565b9098509050818114613ab2576401000003d019818a0998506401000003d01982890997506401000003d0198183099650613ab6565b8196505b5050505050509450945094915050565b600080613ad1613c6b565b6020808252818101819052604082015260608101859052608081018490526401000003d01960a0820152613b03613c89565b60208160c0846005600019fa925082613b535760405162461bcd60e51b81526020600482015260126024820152716269674d6f64457870206661696c7572652160701b6044820152606401610802565b5195945050505050565b6000806401000003d0198487096401000003d0198487099097909650945050505050565b600080806401000003d019878509905060006401000003d01987876401000003d019030990506401000003d0198183086401000003d01986890990999098509650505050505050565b828054828255906000526020600020908101928215613c1f579160200282015b82811115613c1f57825182546001600160a01b0319166001600160a01b03909116178255602090920191600190910190613bea565b50613c2b929150613ca7565b5090565b508054600082559060005260206000209081019061078d9190613ca7565b60405180604001604052806002906020820280368337509192915050565b6040518060c001604052806006906020820280368337509192915050565b60405180602001604052806001906020820280368337509192915050565b5b80821115613c2b5760008155600101613ca8565b60006060820161ffff86168352602063ffffffff86168185015260606040850152818551808452608086019150828701935060005b81811015613d0d57845183529383019391830191600101613cf1565b509098975050505050505050565b80356001600160401b038116811461379757600080fd5b600060208284031215613d4457600080fd5b612f6c82613d1b565b80356001600160a01b038116811461379757600080fd5b60008060408385031215613d7757600080fd5b613d8083613d1b565b9150613d8e60208401613d4d565b90509250929050565b806040810183101561219357600080fd5b600060408284031215613dba57600080fd5b612f6c8383613d97565b600060208083528351808285015260005b81811015613df157858101830151858201604001528201613dd5565b81811115613e03576000604083870101525b50601f01601f1916929092016040019392505050565b803561ffff8116811461379757600080fd5b803563ffffffff8116811461379757600080fd5b634e487b7160e01b600052604160045260246000fd5b60405161012081016001600160401b0381118282101715613e7857613e78613e3f565b60405290565b803562ffffff8116811461379757600080fd5b6000806000806000808688036101c0811215613eac57600080fd5b613eb588613e19565b9650613ec360208901613e2b565b9550613ed160408901613e2b565b9450613edf60608901613e2b565b93506080880135925061012080609f1983011215613efc57600080fd5b613f04613e55565b9150613f1260a08a01613e2b565b8252613f2060c08a01613e2b565b6020830152613f3160e08a01613e2b565b6040830152610100613f44818b01613e2b565b6060840152613f54828b01613e2b565b6080840152613f666101408b01613e7e565b60a0840152613f786101608b01613e7e565b60c0840152613f8a6101808b01613e7e565b60e0840152613f9c6101a08b01613e7e565b818401525050809150509295509295509295565b600080600080600060a08688031215613fc857600080fd5b85359450613fd860208701613d1b565b9350613fe660408701613e19565b9250613ff460608701613e2b565b915061400260808701613e2b565b90509295509295909350565b6000806040838503121561402157600080fd5b61402a83613d4d565b915060208301356001600160601b038116811461404657600080fd5b809150509250929050565b60006020828403121561406357600080fd5b5035919050565b6000806060838503121561407d57600080fd5b61408683613d4d565b9150613d8e8460208501613d97565b6000806000606084860312156140aa57600080fd5b833592506140ba60208501613e2b565b9150604084013590509250925092565b6000608082016001600160601b038716835260206001600160401b0387168185015260018060a01b0380871660408601526080606086015282865180855260a087019150838801945060005b81811015614134578551841683529484019491840191600101614116565b50909a9950505050505050505050565b6000806000806060858703121561415a57600080fd5b61416385613d4d565b93506020850135925060408501356001600160401b038082111561418657600080fd5b818701915087601f83011261419a57600080fd5b8135818111156141a957600080fd5b8860208285010111156141bb57600080fd5b95989497505060200194505050565b600082601f8301126141db57600080fd5b604051604081018181106001600160401b03821117156141fd576141fd613e3f565b806040525080604084018581111561421457600080fd5b845b8181101561422e578035835260209283019201614216565b509195945050505050565b600060a0828403121561424b57600080fd5b60405160a081018181106001600160401b038211171561426d5761426d613e3f565b60405290508061427c83613d1b565b815261428a60208401613d1b565b602082015261429b60408401613e2b565b60408201526142ac60608401613e2b565b60608201526142bd60808401613d4d565b60808201525092915050565b6000808284036102408112156142de57600080fd5b6101a0808212156142ee57600080fd5b6142f6613e55565b915061430286866141ca565b825261431186604087016141ca565b60208301526080850135604083015260a0850135606083015260c0850135608083015261434060e08601613d4d565b60a0830152610100614354878288016141ca565b60c08401526143678761014088016141ca565b60e0840152610180860135818401525081935061438686828701614239565b925050509250929050565b6000604082840312156143a357600080fd5b612f6c83836141ca565b6000602082840312156143bf57600080fd5b612f6c82613d4d565b634e487b7160e01b600052603260045260246000fd5b634e487b7160e01b600052601160045260246000fd5b600082821015614406576144066143de565b500390565b634e487b7160e01b600052603160045260246000fd5b6000600019821415614435576144356143de565b5060010190565b61ffff8716815263ffffffff86811660208301528581166040830152848116606083015260808201849052825480821660a08401526101c08301919061448f60c08501838360201c1663ffffffff169052565b6144a660e08501838360401c1663ffffffff169052565b6144be6101008501838360601c1663ffffffff169052565b6144d66101208501838360801c1663ffffffff169052565b62ffffff60a082901c811661014086015260b882901c811661016086015260d082901c1661018085015260e81c6101a090930192909252979650505050505050565b60006001600160401b0380831681851680830382111561453a5761453a6143de565b01949350505050565b60006001600160601b0383811690831681811015614563576145636143de565b039392505050565b60006020828403121561457d57600080fd5b81518015158114612f6c57600080fd5b60006001600160401b03808316818114156145aa576145aa6143de565b6001019392505050565b60006001600160601b0380831681851680830382111561453a5761453a6143de565b600082198211156145e9576145e96143de565b500190565b6000604082018483526020604081850152818551808452606086019150828701935060005b8181101561462f57845183529383019391830191600101614613565b5090979650505050505050565b8060005b60028110156108d5578151845260209384019390910190600101614640565b60408101612193828461463c565b60006020828403121561467f57600080fd5b5051919050565b60008160001904831182151516156146a0576146a06143de565b500290565b634e487b7160e01b600052601260045260246000fd5b6000826146ca576146ca6146a5565b500490565b805169ffffffffffffffffffff8116811461379757600080fd5b600080600080600060a0868803121561470157600080fd5b61470a866146cf565b9450602086015193506040860151925060608601519150614002608087016146cf565b82815260608101612f6c602083018461463c565b838152614751602082018461463c565b606081019190915260800192915050565b868152614772602082018761463c565b61477f606082018661463c565b61478c60a082018561463c565b61479960e082018461463c565b60609190911b6bffffffffffffffffffffffff19166101208201526101340195945050505050565b6000826147d0576147d06146a5565b500690565b6147df818361463c565b60400191905056fea2646970667358221220f2bb0c79a00e8ee46b594a18cbff42913b1c31f78b85c3a8e065361dd67f0a4b64736f6c634300080a0033",
  "linkReferences": {},
  "deployedLinkReferences": {}
}