{
  "_format": "hh-sol-artifact-1",
  "contractName": "TrashPossums",
  "sourceName": "contracts/TrashPossums.sol",
  "abi": [
    {
      "inputs": [
        {
          "internalType": "uint256",
          "name": "_possumPrice",
          "type": "uint256"
        },
        {
          "internalType": "uint256",
          "name": "_startMintDate",
          "type": "uint256"
        },
        {
          "internalType": "string",
          "name": "_baseUri",
          "type": "string"
        },
        {
          "internalType": "address",
          "name": "_randomness",
          "type": "address"
        }
      ],
      "stateMutability": "nonpayable",
      "type": "constructor"
    },
    {
      "anonymous": false,
      "inputs": [
        {
          "indexed": true,
          "internalType": "address",
          "name": "owner",
          "type": "address"
        },
        {
          "indexed": true,
          "internalType": "address",
          "name": "approved",
          "type": "address"
        },
        {
          "indexed": true,
          "internalType": "uint256",
          "name": "tokenId",
          "type": "uint256"
        }
      ],
      "name": "Approval",
      "type": "event"
    },
    {
      "anonymous": false,
      "inputs": [
        {
          "indexed": true,
          "internalType": "address",
          "name": "owner",
          "type": "address"
        },
        {
          "indexed": true,
          "internalType": "address",
          "name": "operator",
          "type": "address"
        },
        {
          "indexed": false,
          "internalType": "bool",
          "name": "approved",
          "type": "bool"
        }
      ],
      "name": "ApprovalForAll",
      "type": "event"
    },
    {
      "anonymous": false,
      "inputs": [
        {
          "indexed": true,
          "internalType": "address",
          "name": "previousOwner",
          "type": "address"
        },
        {
          "indexed": true,
          "internalType": "address",
          "name": "newOwner",
          "type": "address"
        }
      ],
      "name": "OwnershipTransferred",
      "type": "event"
    },
    {
      "anonymous": false,
      "inputs": [
        {
          "indexed": false,
          "internalType": "address",
          "name": "account",
          "type": "address"
        }
      ],
      "name": "Paused",
      "type": "event"
    },
    {
      "anonymous": false,
      "inputs": [
        {
          "indexed": true,
          "internalType": "address",
          "name": "to",
          "type": "address"
        },
        {
          "indexed": true,
          "internalType": "uint256",
          "name": "tokenId",
          "type": "uint256"
        }
      ],
      "name": "Reserved",
      "type": "event"
    },
    {
      "anonymous": false,
      "inputs": [
        {
          "indexed": true,
          "internalType": "address",
          "name": "from",
          "type": "address"
        },
        {
          "indexed": true,
          "internalType": "address",
          "name": "to",
          "type": "address"
        },
        {
          "indexed": true,
          "internalType": "uint256",
          "name": "tokenId",
          "type": "uint256"
        }
      ],
      "name": "Transfer",
      "type": "event"
    },
    {
      "anonymous": false,
      "inputs": [
        {
          "indexed": false,
          "internalType": "address",
          "name": "account",
          "type": "address"
        }
      ],
      "name": "Unpaused",
      "type": "event"
    },
    {
      "inputs": [
        {
          "internalType": "address",
          "name": "to",
          "type": "address"
        },
        {
          "internalType": "uint256",
          "name": "tokenId",
          "type": "uint256"
        }
      ],
      "name": "approve",
      "outputs": [],
      "stateMutability": "nonpayable",
      "type": "function"
    },
    {
      "inputs": [
        {
          "internalType": "address",
          "name": "owner",
          "type": "address"
        }
      ],
      "name": "balanceOf",
      "outputs": [
        {
          "internalType": "uint256",
          "name": "",
          "type": "uint256"
        }
      ],
      "stateMutability": "view",
      "type": "function"
    },
    {
      "inputs": [],
      "name": "baseTokenURI",
      "outputs": [
        {
          "internalType": "string",
          "name": "",
          "type": "string"
        }
      ],
      "stateMutability": "view",
      "type": "function"
    },
    {
      "inputs": [],
      "name": "baseURI",
      "outputs": [
        {
          "internalType": "string",
          "name": "",
          "type": "string"
        }
      ],
      "stateMutability": "view",
      "type": "function"
    },
    {
      "inputs": [],
      "name": "claimPossums",
      "outputs": [],
      "stateMutability": "payable",
      "type": "function"
    },
    {
      "inputs": [],
      "name": "contractURI",
      "outputs": [
        {
          "internalType": "string",
          "name": "",
          "type": "string"
        }
      ],
      "stateMutability": "view",
      "type": "function"
    },
    {
      "inputs": [
        {
          "internalType": "uint256",
          "name": "tokenId",
          "type": "uint256"
        }
      ],
      "name": "getApproved",
      "outputs": [
        {
          "internalType": "address",
          "name": "",
          "type": "address"
        }
      ],
      "stateMutability": "view",
      "type": "function"
    },
    {
      "inputs": [],
      "name": "getAvailablePossums",
      "outputs": [
        {
          "internalType": "uint256",
          "name": "",
          "type": "uint256"
        }
      ],
      "stateMutability": "view",
      "type": "function"
    },
    {
      "inputs": [],
      "name": "getBalance",
      "outputs": [
        {
          "internalType": "uint256",
          "name": "",
          "type": "uint256"
        }
      ],
      "stateMutability": "view",
      "type": "function"
    },
    {
      "inputs": [],
      "name": "getClaimDate",
      "outputs": [
        {
          "internalType": "uint256",
          "name": "",
          "type": "uint256"
        }
      ],
      "stateMutability": "view",
      "type": "function"
    },
    {
      "inputs": [],
      "name": "getMintingStartDate",
      "outputs": [
        {
          "internalType": "uint256",
          "name": "",
          "type": "uint256"
        }
      ],
      "stateMutability": "view",
      "type": "function"
    },
    {
      "inputs": [],
      "name": "getNumberOfReservedPossums",
      "outputs": [
        {
          "internalType": "uint256",
          "name": "",
          "type": "uint256"
        }
      ],
      "stateMutability": "view",
      "type": "function"
    },
    {
      "inputs": [],
      "name": "getPossumPrice",
      "outputs": [
        {
          "internalType": "uint256",
          "name": "",
          "type": "uint256"
        }
      ],
      "stateMutability": "view",
      "type": "function"
    },
    {
      "inputs": [
        {
          "internalType": "address",
          "name": "_wallet",
          "type": "address"
        }
      ],
      "name": "getReservedPossumIds",
      "outputs": [
        {
          "internalType": "uint256[]",
          "name": "reservedIds",
          "type": "uint256[]"
        }
      ],
      "stateMutability": "view",
      "type": "function"
    },
    {
      "inputs": [
        {
          "internalType": "address",
          "name": "_wallet",
          "type": "address"
        }
      ],
      "name": "getReservedPossumsPerWallet",
      "outputs": [
        {
          "internalType": "uint256",
          "name": "",
          "type": "uint256"
        }
      ],
      "stateMutability": "view",
      "type": "function"
    },
    {
      "inputs": [],
      "name": "getTotalMintedPossums",
      "outputs": [
        {
          "internalType": "uint256",
          "name": "",
          "type": "uint256"
        }
      ],
      "stateMutability": "view",
      "type": "function"
    },
    {
      "inputs": [],
      "name": "getTotalPossums",
      "outputs": [
        {
          "internalType": "uint256",
          "name": "",
          "type": "uint256"
        }
      ],
      "stateMutability": "pure",
      "type": "function"
    },
    {
      "inputs": [
        {
          "internalType": "address",
          "name": "owner",
          "type": "address"
        },
        {
          "internalType": "address",
          "name": "operator",
          "type": "address"
        }
      ],
      "name": "isApprovedForAll",
      "outputs": [
        {
          "internalType": "bool",
          "name": "",
          "type": "bool"
        }
      ],
      "stateMutability": "view",
      "type": "function"
    },
    {
      "inputs": [],
      "name": "maxPossumsPerTransaction",
      "outputs": [
        {
          "internalType": "uint256",
          "name": "",
          "type": "uint256"
        }
      ],
      "stateMutability": "view",
      "type": "function"
    },
    {
      "inputs": [],
      "name": "maxPossumsPerWallet",
      "outputs": [
        {
          "internalType": "uint256",
          "name": "",
          "type": "uint256"
        }
      ],
      "stateMutability": "view",
      "type": "function"
    },
    {
      "inputs": [],
      "name": "name",
      "outputs": [
        {
          "internalType": "string",
          "name": "",
          "type": "string"
        }
      ],
      "stateMutability": "view",
      "type": "function"
    },
    {
      "inputs": [],
      "name": "numberOfReservedPossums",
      "outputs": [
        {
          "internalType": "uint256",
          "name": "",
          "type": "uint256"
        }
      ],
      "stateMutability": "view",
      "type": "function"
    },
    {
      "inputs": [],
      "name": "owner",
      "outputs": [
        {
          "internalType": "address",
          "name": "",
          "type": "address"
        }
      ],
      "stateMutability": "view",
      "type": "function"
    },
    {
      "inputs": [
        {
          "internalType": "uint256",
          "name": "tokenId",
          "type": "uint256"
        }
      ],
      "name": "ownerOf",
      "outputs": [
        {
          "internalType": "address",
          "name": "",
          "type": "address"
        }
      ],
      "stateMutability": "view",
      "type": "function"
    },
    {
      "inputs": [],
      "name": "pause",
      "outputs": [],
      "stateMutability": "nonpayable",
      "type": "function"
    },
    {
      "inputs": [],
      "name": "paused",
      "outputs": [
        {
          "internalType": "bool",
          "name": "",
          "type": "bool"
        }
      ],
      "stateMutability": "view",
      "type": "function"
    },
    {
      "inputs": [],
      "name": "possumPrice",
      "outputs": [
        {
          "internalType": "uint256",
          "name": "",
          "type": "uint256"
        }
      ],
      "stateMutability": "view",
      "type": "function"
    },
    {
      "inputs": [],
      "name": "premintCount",
      "outputs": [
        {
          "internalType": "uint256",
          "name": "",
          "type": "uint256"
        }
      ],
      "stateMutability": "view",
      "type": "function"
    },
    {
      "inputs": [],
      "name": "premintPossums",
      "outputs": [],
      "stateMutability": "nonpayable",
      "type": "function"
    },
    {
      "inputs": [],
      "name": "randomness",
      "outputs": [
        {
          "internalType": "address",
          "name": "",
          "type": "address"
        }
      ],
      "stateMutability": "view",
      "type": "function"
    },
    {
      "inputs": [],
      "name": "renounceOwnership",
      "outputs": [],
      "stateMutability": "nonpayable",
      "type": "function"
    },
    {
      "inputs": [
        {
          "internalType": "uint256",
          "name": "amount",
          "type": "uint256"
        }
      ],
      "name": "reservePossums",
      "outputs": [],
      "stateMutability": "payable",
      "type": "function"
    },
    {
      "inputs": [
        {
          "internalType": "address",
          "name": "from",
          "type": "address"
        },
        {
          "internalType": "address",
          "name": "to",
          "type": "address"
        },
        {
          "internalType": "uint256",
          "name": "tokenId",
          "type": "uint256"
        }
      ],
      "name": "safeTransferFrom",
      "outputs": [],
      "stateMutability": "nonpayable",
      "type": "function"
    },
    {
      "inputs": [
        {
          "internalType": "address",
          "name": "from",
          "type": "address"
        },
        {
          "internalType": "address",
          "name": "to",
          "type": "address"
        },
        {
          "internalType": "uint256",
          "name": "tokenId",
          "type": "uint256"
        },
        {
          "internalType": "bytes",
          "name": "_data",
          "type": "bytes"
        }
      ],
      "name": "safeTransferFrom",
      "outputs": [],
      "stateMutability": "nonpayable",
      "type": "function"
    },
    {
      "inputs": [
        {
          "internalType": "address",
          "name": "operator",
          "type": "address"
        },
        {
          "internalType": "bool",
          "name": "approved",
          "type": "bool"
        }
      ],
      "name": "setApprovalForAll",
      "outputs": [],
      "stateMutability": "nonpayable",
      "type": "function"
    },
    {
      "inputs": [
        {
          "internalType": "string",
          "name": "_tokenURI",
          "type": "string"
        }
      ],
      "name": "setBaseTokenURI",
      "outputs": [],
      "stateMutability": "nonpayable",
      "type": "function"
    },
    {
      "inputs": [
        {
          "internalType": "uint256",
          "name": "_possumPrice",
          "type": "uint256"
        }
      ],
      "name": "setPossumPrice",
      "outputs": [],
      "stateMutability": "nonpayable",
      "type": "function"
    },
    {
      "inputs": [
        {
          "internalType": "address",
          "name": "_randomness",
          "type": "address"
        }
      ],
      "name": "setRandomness",
      "outputs": [],
      "stateMutability": "nonpayable",
      "type": "function"
    },
    {
      "inputs": [
        {
          "internalType": "uint256",
          "name": "_startMintDate",
          "type": "uint256"
        }
      ],
      "name": "setStartMintDate",
      "outputs": [],
      "stateMutability": "nonpayable",
      "type": "function"
    },
    {
      "inputs": [],
      "name": "startMintDate",
      "outputs": [
        {
          "internalType": "uint256",
          "name": "",
          "type": "uint256"
        }
      ],
      "stateMutability": "view",
      "type": "function"
    },
    {
      "inputs": [
        {
          "internalType": "bytes4",
          "name": "interfaceId",
          "type": "bytes4"
        }
      ],
      "name": "supportsInterface",
      "outputs": [
        {
          "internalType": "bool",
          "name": "",
          "type": "bool"
        }
      ],
      "stateMutability": "view",
      "type": "function"
    },
    {
      "inputs": [],
      "name": "symbol",
      "outputs": [
        {
          "internalType": "string",
          "name": "",
          "type": "string"
        }
      ],
      "stateMutability": "view",
      "type": "function"
    },
    {
      "inputs": [
        {
          "internalType": "uint256",
          "name": "index",
          "type": "uint256"
        }
      ],
      "name": "tokenByIndex",
      "outputs": [
        {
          "internalType": "uint256",
          "name": "",
          "type": "uint256"
        }
      ],
      "stateMutability": "view",
      "type": "function"
    },
    {
      "inputs": [
        {
          "internalType": "address",
          "name": "owner",
          "type": "address"
        },
        {
          "internalType": "uint256",
          "name": "index",
          "type": "uint256"
        }
      ],
      "name": "tokenOfOwnerByIndex",
      "outputs": [
        {
          "internalType": "uint256",
          "name": "",
          "type": "uint256"
        }
      ],
      "stateMutability": "view",
      "type": "function"
    },
    {
      "inputs": [
        {
          "internalType": "uint256",
          "name": "tokenId",
          "type": "uint256"
        }
      ],
      "name": "tokenURI",
      "outputs": [
        {
          "internalType": "string",
          "name": "",
          "type": "string"
        }
      ],
      "stateMutability": "view",
      "type": "function"
    },
    {
      "inputs": [],
      "name": "totalMintedPossums",
      "outputs": [
        {
          "internalType": "uint256",
          "name": "",
          "type": "uint256"
        }
      ],
      "stateMutability": "view",
      "type": "function"
    },
    {
      "inputs": [],
      "name": "totalPossums",
      "outputs": [
        {
          "internalType": "uint256",
          "name": "",
          "type": "uint256"
        }
      ],
      "stateMutability": "view",
      "type": "function"
    },
    {
      "inputs": [],
      "name": "totalSupply",
      "outputs": [
        {
          "internalType": "uint256",
          "name": "",
          "type": "uint256"
        }
      ],
      "stateMutability": "view",
      "type": "function"
    },
    {
      "inputs": [
        {
          "internalType": "address",
          "name": "from",
          "type": "address"
        },
        {
          "internalType": "address",
          "name": "to",
          "type": "address"
        },
        {
          "internalType": "uint256",
          "name": "tokenId",
          "type": "uint256"
        }
      ],
      "name": "transferFrom",
      "outputs": [],
      "stateMutability": "nonpayable",
      "type": "function"
    },
    {
      "inputs": [
        {
          "internalType": "address",
          "name": "newOwner",
          "type": "address"
        }
      ],
      "name": "transferOwnership",
      "outputs": [],
      "stateMutability": "nonpayable",
      "type": "function"
    },
    {
      "inputs": [],
      "name": "unpause",
      "outputs": [],
      "stateMutability": "nonpayable",
      "type": "function"
    },
    {
      "inputs": [],
      "name": "withdraw",
      "outputs": [],
      "stateMutability": "payable",
      "type": "function"
    },
    {
      "inputs": [
        {
          "internalType": "contract IERC20",
          "name": "token",
          "type": "address"
        },
        {
          "internalType": "uint256",
          "name": "_amount",
          "type": "uint256"
        }
      ],
      "name": "withdrawErc20",
      "outputs": [],
      "stateMutability": "nonpayable",
      "type": "function"
    },
    {
      "stateMutability": "payable",
      "type": "receive"
    }
  ],
  "bytecode": "0x60806040523480156200001157600080fd5b50604051620037133803806200371383398101604081905262000034916200023c565b604080518082018252600d81526c547261736820506f7373756d7360981b60208083019182528351808501909452600584526454504f535360d81b908401528151919291620000869160009162000163565b5080516200009c90600190602084019062000163565b505050620000b9620000b36200010d60201b60201c565b62000111565b600c805460ff19169055600e849055600d8390558151620000e290601290602085019062000163565b50601180546001600160a01b0319166001600160a01b0392909216919091179055506200037f915050565b3390565b600780546001600160a01b038381166001600160a01b0319831681179093556040519116919082907f8be0079c531659141344cd1fd0a4f28419497f9722a3daafe3b4186f6b6457e090600090a35050565b828054620001719062000342565b90600052602060002090601f016020900481019282620001955760008555620001e0565b82601f10620001b057805160ff1916838001178555620001e0565b82800160010185558215620001e0579182015b82811115620001e0578251825591602001919060010190620001c3565b50620001ee929150620001f2565b5090565b5b80821115620001ee5760008155600101620001f3565b634e487b7160e01b600052604160045260246000fd5b80516001600160a01b03811681146200023757600080fd5b919050565b600080600080608085870312156200025357600080fd5b845160208087015160408801519296509450906001600160401b03808211156200027c57600080fd5b818801915088601f8301126200029157600080fd5b815181811115620002a657620002a662000209565b604051601f8201601f19908116603f01168101908382118183101715620002d157620002d162000209565b816040528281528b86848701011115620002ea57600080fd5b600093505b828410156200030e5784840186015181850187015292850192620002ef565b82841115620003205760008684830101525b80975050505050505062000337606086016200021f565b905092959194509250565b600181811c908216806200035757607f821691505b602082108114156200037957634e487b7160e01b600052602260045260246000fd5b50919050565b613384806200038f6000396000f3fe60806040526004361061031d5760003560e01c80636c0360eb116101ab578063b031b35b116100f7578063da67e22a11610095578063e8a3d4851161006f578063e8a3d48514610806578063e985e9c514610866578063ead17506146108af578063f2fde38b146108c457600080fd5b8063da67e22a1461081b578063dca7728414610831578063e65fadc41461085157600080fd5b8063bd1f4b52116100d1578063bd1f4b52146107b1578063c87b56dd146107d1578063cc6bbd65146107f1578063d547cfb71461080657600080fd5b8063b031b35b14610774578063b37cb09d1461077c578063b88d4fde1461079157600080fd5b80638456cb591161016457806395d89b411161013e57806395d89b411461070a5780639d9ee6731461071f578063a22cb46514610734578063a37a85e91461075457600080fd5b80638456cb59146106c25780638481de5f146106d75780638da5cb5b146106ec57600080fd5b80636c0360eb1461062157806370a0823114610636578063715018a614610656578063723bcc131461066b5780637fd3352e1461068057806384511aff146106ad57600080fd5b80633ccfd60b1161026a57806350f257e1116102235780635ba36949116101fd5780635ba36949146105be5780635c975abb146105d45780636352211e146105ec5780636ab601171461060c57600080fd5b806350f257e11461055c578063530e04bb146105925780635b46a8f2146105a857600080fd5b80633ccfd60b146104ca5780633f4ba83a146104d2578063416c585d146104e757806342842e0e146104fc578063493143e41461051c5780634f6ccce71461053c57600080fd5b806318160ddd116102d75780632f745c59116102b15780632f745c591461045457806330176e131461047457806336013189146104945780633bb240bd146104b457600080fd5b806318160ddd1461040a57806323b872dd1461041f57806325554fb11461043f57600080fd5b806261b0ec1461032957806301ffc9a71461033e57806306fdde0314610373578063081812fc14610395578063095ea7b3146103cd57806312065fe0146103ed57600080fd5b3661032457005b600080fd5b61033c610337366004612d22565b6108e4565b005b34801561034a57600080fd5b5061035e610359366004612d51565b610b91565b60405190151581526020015b60405180910390f35b34801561037f57600080fd5b50610388610ba2565b60405161036a9190612dc6565b3480156103a157600080fd5b506103b56103b0366004612d22565b610c34565b6040516001600160a01b03909116815260200161036a565b3480156103d957600080fd5b5061033c6103e8366004612dee565b610cbc565b3480156103f957600080fd5b50475b60405190815260200161036a565b34801561041657600080fd5b50600a546103fc565b34801561042b57600080fd5b5061033c61043a366004612e1a565b610dcd565b34801561044b57600080fd5b506010546103fc565b34801561046057600080fd5b506103fc61046f366004612dee565b610dfe565b34801561048057600080fd5b5061033c61048f366004612e5b565b610e94565b3480156104a057600080fd5b506011546103b5906001600160a01b031681565b3480156104c057600080fd5b506103fc600e5481565b61033c610eca565b3480156104de57600080fd5b5061033c610fa4565b3480156104f357600080fd5b5061033c610fd8565b34801561050857600080fd5b5061033c610517366004612e1a565b6110f6565b34801561052857600080fd5b5061033c610537366004612d22565b611111565b34801561054857600080fd5b506103fc610557366004612d22565b611140565b34801561056857600080fd5b506103fc610577366004612ecd565b6001600160a01b031660009081526014602052604090205490565b34801561059e57600080fd5b506103fc600f5481565b3480156105b457600080fd5b506103fc611b5881565b3480156105ca57600080fd5b506103fc60105481565b3480156105e057600080fd5b50600c5460ff1661035e565b3480156105f857600080fd5b506103b5610607366004612d22565b6111d3565b34801561061857600080fd5b506103fc601b81565b34801561062d57600080fd5b5061038861124a565b34801561064257600080fd5b506103fc610651366004612ecd565b6112d8565b34801561066257600080fd5b5061033c61135f565b34801561067757600080fd5b50600e546103fc565b34801561068c57600080fd5b506106a061069b366004612ecd565b611393565b60405161036a9190612eea565b3480156106b957600080fd5b506103fc603681565b3480156106ce57600080fd5b5061033c6114e5565b3480156106e357600080fd5b506103fc611517565b3480156106f857600080fd5b506007546001600160a01b03166103b5565b34801561071657600080fd5b5061038861158a565b34801561072b57600080fd5b506103fc605081565b34801561074057600080fd5b5061033c61074f366004612f3c565b611599565b34801561076057600080fd5b5061033c61076f366004612ecd565b6115a4565b61033c6115f0565b34801561078857600080fd5b506103fc611880565b34801561079d57600080fd5b5061033c6107ac366004612f8b565b6118ca565b3480156107bd57600080fd5b5061033c6107cc366004612dee565b6118fc565b3480156107dd57600080fd5b506103886107ec366004612d22565b611a82565b3480156107fd57600080fd5b50611b586103fc565b34801561081257600080fd5b50610388611a8d565b34801561082757600080fd5b506103fc600d5481565b34801561083d57600080fd5b5061033c61084c366004612d22565b611a9c565b34801561085d57600080fd5b50600f546103fc565b34801561087257600080fd5b5061035e61088136600461306b565b6001600160a01b03918216600090815260056020908152604080832093909416825291909152205460ff1690565b3480156108bb57600080fd5b50600d546103fc565b3480156108d057600080fd5b5061033c6108df366004612ecd565b611acb565b600d54158015906108f6575042600d54105b61093b5760405162461bcd60e51b8152602060048201526011602482015270596f752061726520746f6f206561726c7960781b60448201526064015b60405180910390fd5b6000610945611517565b905081600e5461095591906130af565b3410156109b65760405162461bcd60e51b815260206004820152602960248201527f4e6f7420656e6f75676820457468657220746f207265736572766520746865736044820152686520706f7373756d7360b81b6064820152608401610932565b60008211610a065760405162461bcd60e51b815260206004820152601e60248201527f6e65656420746f2072657365727665206174206c656173742031204e465400006044820152606401610932565b33600090815260146020526040902054603690610a249084906130ce565b11158015610a4e575033600090815260136020526040902054603690610a4b9084906130ce565b11155b610a9a5760405162461bcd60e51b815260206004820152601f60248201527f596f752063616e6e6f742072657365727665206d6f726520706f7373756d73006044820152606401610932565b81811015610aea5760405162461bcd60e51b815260206004820152601760248201527f4e6f7420656e6f75676820506f7373756d73206c6566740000000000000000006044820152606401610932565b601b821115610b345760405162461bcd60e51b815260206004820152601660248201527526b0bc10191b903832b9103a3930b739b0b1ba34b7b760511b6044820152606401610932565b60005b82811015610b8c576000610b49611b66565b604051909150819033907f904dcdc411e931497b95b06ddf8f8184815dd3bedc3c7c7cd4aed3ccd30783d890600090a35080610b84816130e6565b915050610b37565b505050565b6000610b9c82611c11565b92915050565b606060008054610bb190613101565b80601f0160208091040260200160405190810160405280929190818152602001828054610bdd90613101565b8015610c2a5780601f10610bff57610100808354040283529160200191610c2a565b820191906000526020600020905b815481529060010190602001808311610c0d57829003601f168201915b5050505050905090565b6000610c3f82611c36565b610ca05760405162461bcd60e51b815260206004820152602c60248201527f4552433732313a20617070726f76656420717565727920666f72206e6f6e657860448201526b34b9ba32b73a103a37b5b2b760a11b6064820152608401610932565b506000908152600460205260409020546001600160a01b031690565b6000610cc7826111d3565b9050806001600160a01b0316836001600160a01b03161415610d355760405162461bcd60e51b815260206004820152602160248201527f4552433732313a20617070726f76616c20746f2063757272656e74206f776e656044820152603960f91b6064820152608401610932565b336001600160a01b0382161480610d515750610d518133610881565b610dc35760405162461bcd60e51b815260206004820152603860248201527f4552433732313a20617070726f76652063616c6c6572206973206e6f74206f7760448201527f6e6572206e6f7220617070726f76656420666f7220616c6c00000000000000006064820152608401610932565b610b8c8383611c53565b610dd73382611cc1565b610df35760405162461bcd60e51b815260040161093290613136565b610b8c838383611dab565b6000610e09836112d8565b8210610e6b5760405162461bcd60e51b815260206004820152602b60248201527f455243373231456e756d657261626c653a206f776e657220696e646578206f7560448201526a74206f6620626f756e647360a81b6064820152608401610932565b506001600160a01b03919091166000908152600860209081526040808320938352929052205490565b6007546001600160a01b03163314610ebe5760405162461bcd60e51b815260040161093290613187565b610b8c60128383612c15565b6007546001600160a01b03163314610ef45760405162461bcd60e51b815260040161093290613187565b476000610f096007546001600160a01b031690565b6001600160a01b03168260405160006040518083038185875af1925050503d8060008114610f53576040519150601f19603f3d011682016040523d82523d6000602084013e610f58565b606091505b5050905080610fa05760405162461bcd60e51b81526020600482015260146024820152732330b4b632b2103a379039b2b7321022ba3432b960611b6044820152606401610932565b5050565b6007546001600160a01b03163314610fce5760405162461bcd60e51b815260040161093290613187565b610fd6611f56565b565b6007546001600160a01b031633146110025760405162461bcd60e51b815260040161093290613187565b60115460408051631332545760e11b815290516000926001600160a01b031691632664a8ae9160048083019260209291908290030181865afa15801561104c573d6000803e3d6000fd5b505050506040513d601f19601f8201168201806040525081019061107091906131bc565b905080156110ce5760405162461bcd60e51b815260206004820152602560248201527f596f752063616e206f6e6c79207072656d696e742074686520506f7373756d73604482015264206f6e636560d81b6064820152608401610932565b60005b6050811015610fa0576110e43382611fe9565b806110ee816130e6565b9150506110d1565b610b8c838383604051806020016040528060008152506118ca565b6007546001600160a01b0316331461113b5760405162461bcd60e51b815260040161093290613187565b600d55565b600061114b600a5490565b82106111ae5760405162461bcd60e51b815260206004820152602c60248201527f455243373231456e756d657261626c653a20676c6f62616c20696e646578206f60448201526b7574206f6620626f756e647360a01b6064820152608401610932565b600a82815481106111c1576111c16131d9565b90600052602060002001549050919050565b6000818152600260205260408120546001600160a01b031680610b9c5760405162461bcd60e51b815260206004820152602960248201527f4552433732313a206f776e657220717565727920666f72206e6f6e657869737460448201526832b73a103a37b5b2b760b91b6064820152608401610932565b6012805461125790613101565b80601f016020809104026020016040519081016040528092919081815260200182805461128390613101565b80156112d05780601f106112a5576101008083540402835291602001916112d0565b820191906000526020600020905b8154815290600101906020018083116112b357829003601f168201915b505050505081565b60006001600160a01b0382166113435760405162461bcd60e51b815260206004820152602a60248201527f4552433732313a2062616c616e636520717565727920666f7220746865207a65604482015269726f206164647265737360b01b6064820152608401610932565b506001600160a01b031660009081526003602052604090205490565b6007546001600160a01b031633146113895760405162461bcd60e51b815260040161093290613187565b610fd6600061211d565b6001600160a01b0381166000908152601460205260409020546060906113fb5760405162461bcd60e51b815260206004820152601e60248201527f57616c6c657420686173206e6f20726573657276656420706f7373756d7300006044820152606401610932565b6001600160a01b03821660009081526014602052604090205467ffffffffffffffff81111561142c5761142c612f75565b604051908082528060200260200182016040528015611455578160200160208202803683370190505b50905060005b6001600160a01b0383166000908152601460205260409020548110156114df576001600160a01b03831660009081526014602052604090208054829081106114a5576114a56131d9565b90600052602060002001548282815181106114c2576114c26131d9565b6020908102919091010152806114d7816130e6565b91505061145b565b50919050565b6007546001600160a01b0316331461150f5760405162461bcd60e51b815260040161093290613187565b610fd661216f565b60115460408051638481de5f60e01b815290516000926001600160a01b031691638481de5f9160048083019260209291908290030181865afa158015611561573d6000803e3d6000fd5b505050506040513d601f19601f8201168201806040525081019061158591906131ef565b905090565b606060018054610bb190613101565b610fa03383836121ea565b6007546001600160a01b031633146115ce5760405162461bcd60e51b815260040161093290613187565b601180546001600160a01b0319166001600160a01b0392909216919091179055565b600d5415801590611602575042600d54105b6116425760405162461bcd60e51b8152602060048201526011602482015270596f752061726520746f6f206561726c7960781b6044820152606401610932565b600061164c611880565b336000908152601460205260409020549091506116ab5760405162461bcd60e51b815260206004820152601c60248201527f796f752068617665206e6f20726573657276656420706f7373756d73000000006044820152606401610932565b428110806116bd5750611b5860105410155b6116c657600080fd5b600080601160009054906101000a90046001600160a01b03166001600160a01b031663eb6ad24e6040518163ffffffff1660e01b8152600401602060405180830381865afa15801561171c573d6000803e3d6000fd5b505050506040513d601f19601f8201168201806040525081019061174091906131ef565b90508061178f5760405162461bcd60e51b815260206004820152601f60248201527f506f7373756d73206e6f7420726561647920746f20626520636c61696d6564006044820152606401610932565b60005b3360009081526014602052604090205481101561187a573360009081526014602052604081208054849190849081106117cd576117cd6131d9565b90600052602060002001546117e291906130ce565b90506117f16001611b58613208565b81111561182c5761180460016050613208565b6118116001611b58613208565b61181b9083613208565b61182591906130ce565b9350611830565b8093505b61183a3385611fe9565b33600090815260146020526040812080548490811061185b5761185b6131d9565b6000918252602090912001555080611872816130e6565b915050611792565b50505050565b601154604080516344657d2760e11b815290516000926001600160a01b0316916388cafa4e9160048083019260209291908290030181865afa158015611561573d6000803e3d6000fd5b6118d43383611cc1565b6118f05760405162461bcd60e51b815260040161093290613136565b61187a848484846122b9565b6007546001600160a01b031633146119265760405162461bcd60e51b815260040161093290613187565b6040516370a0823160e01b81523060048201526000906001600160a01b038416906370a0823190602401602060405180830381865afa15801561196d573d6000803e3d6000fd5b505050506040513d601f19601f8201168201806040525081019061199191906131ef565b116119f05760405162461bcd60e51b815260206004820152602960248201527f7468697320636f6e747261637420646f6573206e6f7420636f6e7461696e20746044820152683434b9903a37b5b2b760b91b6064820152608401610932565b816001600160a01b031663a9059cbb611a116007546001600160a01b031690565b6040516001600160e01b031960e084901b1681526001600160a01b039091166004820152602481018490526044016020604051808303816000875af1158015611a5e573d6000803e3d6000fd5b505050506040513d601f19601f82011682018060405250810190610b8c91906131bc565b6060610b9c826122ec565b606060128054610bb190613101565b6007546001600160a01b03163314611ac65760405162461bcd60e51b815260040161093290613187565b600e55565b6007546001600160a01b03163314611af55760405162461bcd60e51b815260040161093290613187565b6001600160a01b038116611b5a5760405162461bcd60e51b815260206004820152602660248201527f4f776e61626c653a206e6577206f776e657220697320746865207a65726f206160448201526564647265737360d01b6064820152608401610932565b611b638161211d565b50565b6011546040805163c6410f7b60e01b815290516000926001600160a01b03169163c6410f7b916004808301926020929190829003018187875af1158015611bb1573d6000803e3d6000fd5b505050506040513d601f19601f82011682018060405250810190611bd591906131ef565b33600090815260146020908152604082208054600181018255908352908220018290556010805492935090611c09836130e6565b919050555090565b60006001600160e01b0319821663780e9d6360e01b1480610b9c5750610b9c8261244e565b6000908152600260205260409020546001600160a01b0316151590565b600081815260046020526040902080546001600160a01b0319166001600160a01b0384169081179091558190611c88826111d3565b6001600160a01b03167f8c5be1e5ebec7d5bd14f71427d1e84f3dd0314c0f7b2291e5b200ac8c7c3b92560405160405180910390a45050565b6000611ccc82611c36565b611d2d5760405162461bcd60e51b815260206004820152602c60248201527f4552433732313a206f70657261746f7220717565727920666f72206e6f6e657860448201526b34b9ba32b73a103a37b5b2b760a11b6064820152608401610932565b6000611d38836111d3565b9050806001600160a01b0316846001600160a01b03161480611d735750836001600160a01b0316611d6884610c34565b6001600160a01b0316145b80611da357506001600160a01b0380821660009081526005602090815260408083209388168352929052205460ff165b949350505050565b826001600160a01b0316611dbe826111d3565b6001600160a01b031614611e265760405162461bcd60e51b815260206004820152602960248201527f4552433732313a207472616e73666572206f6620746f6b656e2074686174206960448201526839903737ba1037bbb760b91b6064820152608401610932565b6001600160a01b038216611e885760405162461bcd60e51b8152602060048201526024808201527f4552433732313a207472616e7366657220746f20746865207a65726f206164646044820152637265737360e01b6064820152608401610932565b611e9383838361249e565b611e9e600082611c53565b6001600160a01b0383166000908152600360205260408120805460019290611ec7908490613208565b90915550506001600160a01b0382166000908152600360205260408120805460019290611ef59084906130ce565b909155505060008181526002602052604080822080546001600160a01b0319166001600160a01b0386811691821790925591518493918716917fddf252ad1be2c89b69c2b068fc378daa952ba7f163c4a11628f55a4df523b3ef91a4505050565b600c5460ff16611f9f5760405162461bcd60e51b815260206004820152601460248201527314185d5cd8589b194e881b9bdd081c185d5cd95960621b6044820152606401610932565b600c805460ff191690557f5db9ee0a495bf2e6ff9c91a7834c1ba4fdd244a5e8aa4e537bd38aeae4b073aa335b6040516001600160a01b03909116815260200160405180910390a1565b611b58600f54111561203d5760405162461bcd60e51b815260206004820152601c60248201527f616c6c20506f7373756d732068617665206265656e206d696e746564000000006044820152606401610932565b61204782826124ef565b6120db816012805461205890613101565b80601f016020809104026020016040519081016040528092919081815260200182805461208490613101565b80156120d15780601f106120a6576101008083540402835291602001916120d1565b820191906000526020600020905b8154815290600101906020018083116120b457829003601f168201915b5050505050612509565b600f80549060006120eb836130e6565b90915550506001600160a01b0382166000908152601360205260408120805491612114836130e6565b91905055505050565b600780546001600160a01b038381166001600160a01b0319831681179093556040519116919082907f8be0079c531659141344cd1fd0a4f28419497f9722a3daafe3b4186f6b6457e090600090a35050565b600c5460ff16156121b55760405162461bcd60e51b815260206004820152601060248201526f14185d5cd8589b194e881c185d5cd95960821b6044820152606401610932565b600c805460ff191660011790557f62e78cea01bee320cd4e420270b5ea74000d11b0c9f74754ebdbfc544b05a258611fcc3390565b816001600160a01b0316836001600160a01b0316141561224c5760405162461bcd60e51b815260206004820152601960248201527f4552433732313a20617070726f766520746f2063616c6c6572000000000000006044820152606401610932565b6001600160a01b03838116600081815260056020908152604080832094871680845294825291829020805460ff191686151590811790915591519182527f17307eab39ab6107e8899845ad3d59bd9653f200f220920489ca2b5937696c31910160405180910390a3505050565b6122c4848484611dab565b6122d084848484612594565b61187a5760405162461bcd60e51b81526004016109329061321f565b60606122f782611c36565b61235d5760405162461bcd60e51b815260206004820152603160248201527f45524337323155524953746f726167653a2055524920717565727920666f72206044820152703737b732bc34b9ba32b73a103a37b5b2b760791b6064820152608401610932565b6000828152600660205260408120805461237690613101565b80601f01602080910402602001604051908101604052809291908181526020018280546123a290613101565b80156123ef5780601f106123c4576101008083540402835291602001916123ef565b820191906000526020600020905b8154815290600101906020018083116123d257829003601f168201915b505050505090506000612400611a8d565b9050805160001415612413575092915050565b81511561244557808260405160200161242d929190613271565b60405160208183030381529060405292505050919050565b611da384612692565b60006001600160e01b031982166380ac58cd60e01b148061247f57506001600160e01b03198216635b5e139f60e01b145b80610b9c57506301ffc9a760e01b6001600160e01b0319831614610b9c565b600c5460ff16156124e45760405162461bcd60e51b815260206004820152601060248201526f14185d5cd8589b194e881c185d5cd95960821b6044820152606401610932565b610b8c83838361275d565b610fa0828260405180602001604052806000815250612815565b61251282611c36565b6125755760405162461bcd60e51b815260206004820152602e60248201527f45524337323155524953746f726167653a2055524920736574206f66206e6f6e60448201526d32bc34b9ba32b73a103a37b5b2b760911b6064820152608401610932565b60008281526006602090815260409091208251610b8c92840190612c99565b60006001600160a01b0384163b1561268757604051630a85bd0160e11b81526001600160a01b0385169063150b7a02906125d89033908990889088906004016132a0565b6020604051808303816000875af1925050508015612613575060408051601f3d908101601f19168201909252612610918101906132dd565b60015b61266d573d808015612641576040519150601f19603f3d011682016040523d82523d6000602084013e612646565b606091505b5080516126655760405162461bcd60e51b81526004016109329061321f565b805181602001fd5b6001600160e01b031916630a85bd0160e11b149050611da3565b506001949350505050565b606061269d82611c36565b6127015760405162461bcd60e51b815260206004820152602f60248201527f4552433732314d657461646174613a2055524920717565727920666f72206e6f60448201526e3732bc34b9ba32b73a103a37b5b2b760891b6064820152608401610932565b600061270b611a8d565b9050600081511161272b5760405180602001604052806000815250612756565b8061273584612848565b604051602001612746929190613271565b6040516020818303038152906040525b9392505050565b6001600160a01b0383166127b8576127b381600a80546000838152600b60205260408120829055600182018355919091527fc65a7bb8d6351c1cf70c95a316cc6a92839c986682d98bc35f958f4883f9d2a80155565b6127db565b816001600160a01b0316836001600160a01b0316146127db576127db8382612946565b6001600160a01b0382166127f257610b8c816129e3565b826001600160a01b0316826001600160a01b031614610b8c57610b8c8282612a92565b61281f8383612ad6565b61282c6000848484612594565b610b8c5760405162461bcd60e51b81526004016109329061321f565b60608161286c5750506040805180820190915260018152600360fc1b602082015290565b8160005b81156128965780612880816130e6565b915061288f9050600a83613310565b9150612870565b60008167ffffffffffffffff8111156128b1576128b1612f75565b6040519080825280601f01601f1916602001820160405280156128db576020820181803683370190505b5090505b8415611da3576128f0600183613208565b91506128fd600a86613324565b6129089060306130ce565b60f81b81838151811061291d5761291d6131d9565b60200101906001600160f81b031916908160001a90535061293f600a86613310565b94506128df565b60006001612953846112d8565b61295d9190613208565b6000838152600960205260409020549091508082146129b0576001600160a01b03841660009081526008602090815260408083208584528252808320548484528184208190558352600990915290208190555b5060009182526009602090815260408084208490556001600160a01b039094168352600881528383209183525290812055565b600a546000906129f590600190613208565b6000838152600b6020526040812054600a8054939450909284908110612a1d57612a1d6131d9565b9060005260206000200154905080600a8381548110612a3e57612a3e6131d9565b6000918252602080832090910192909255828152600b9091526040808220849055858252812055600a805480612a7657612a76613338565b6001900381819060005260206000200160009055905550505050565b6000612a9d836112d8565b6001600160a01b039093166000908152600860209081526040808320868452825280832085905593825260099052919091209190915550565b6001600160a01b038216612b2c5760405162461bcd60e51b815260206004820181905260248201527f4552433732313a206d696e7420746f20746865207a65726f20616464726573736044820152606401610932565b612b3581611c36565b15612b825760405162461bcd60e51b815260206004820152601c60248201527f4552433732313a20746f6b656e20616c7265616479206d696e746564000000006044820152606401610932565b612b8e6000838361249e565b6001600160a01b0382166000908152600360205260408120805460019290612bb79084906130ce565b909155505060008181526002602052604080822080546001600160a01b0319166001600160a01b03861690811790915590518392907fddf252ad1be2c89b69c2b068fc378daa952ba7f163c4a11628f55a4df523b3ef908290a45050565b828054612c2190613101565b90600052602060002090601f016020900481019282612c435760008555612c89565b82601f10612c5c5782800160ff19823516178555612c89565b82800160010185558215612c89579182015b82811115612c89578235825591602001919060010190612c6e565b50612c95929150612d0d565b5090565b828054612ca590613101565b90600052602060002090601f016020900481019282612cc75760008555612c89565b82601f10612ce057805160ff1916838001178555612c89565b82800160010185558215612c89579182015b82811115612c89578251825591602001919060010190612cf2565b5b80821115612c955760008155600101612d0e565b600060208284031215612d3457600080fd5b5035919050565b6001600160e01b031981168114611b6357600080fd5b600060208284031215612d6357600080fd5b813561275681612d3b565b60005b83811015612d89578181015183820152602001612d71565b8381111561187a5750506000910152565b60008151808452612db2816020860160208601612d6e565b601f01601f19169290920160200192915050565b6020815260006127566020830184612d9a565b6001600160a01b0381168114611b6357600080fd5b60008060408385031215612e0157600080fd5b8235612e0c81612dd9565b946020939093013593505050565b600080600060608486031215612e2f57600080fd5b8335612e3a81612dd9565b92506020840135612e4a81612dd9565b929592945050506040919091013590565b60008060208385031215612e6e57600080fd5b823567ffffffffffffffff80821115612e8657600080fd5b818501915085601f830112612e9a57600080fd5b813581811115612ea957600080fd5b866020828501011115612ebb57600080fd5b60209290920196919550909350505050565b600060208284031215612edf57600080fd5b813561275681612dd9565b6020808252825182820181905260009190848201906040850190845b81811015612f2257835183529284019291840191600101612f06565b50909695505050505050565b8015158114611b6357600080fd5b60008060408385031215612f4f57600080fd5b8235612f5a81612dd9565b91506020830135612f6a81612f2e565b809150509250929050565b634e487b7160e01b600052604160045260246000fd5b60008060008060808587031215612fa157600080fd5b8435612fac81612dd9565b93506020850135612fbc81612dd9565b925060408501359150606085013567ffffffffffffffff80821115612fe057600080fd5b818701915087601f830112612ff457600080fd5b81358181111561300657613006612f75565b604051601f8201601f19908116603f0116810190838211818310171561302e5761302e612f75565b816040528281528a602084870101111561304757600080fd5b82602086016020830137600060208483010152809550505050505092959194509250565b6000806040838503121561307e57600080fd5b823561308981612dd9565b91506020830135612f6a81612dd9565b634e487b7160e01b600052601160045260246000fd5b60008160001904831182151516156130c9576130c9613099565b500290565b600082198211156130e1576130e1613099565b500190565b60006000198214156130fa576130fa613099565b5060010190565b600181811c9082168061311557607f821691505b602082108114156114df57634e487b7160e01b600052602260045260246000fd5b60208082526031908201527f4552433732313a207472616e736665722063616c6c6572206973206e6f74206f6040820152701ddb995c881b9bdc88185c1c1c9bdd9959607a1b606082015260800190565b6020808252818101527f4f776e61626c653a2063616c6c6572206973206e6f7420746865206f776e6572604082015260600190565b6000602082840312156131ce57600080fd5b815161275681612f2e565b634e487b7160e01b600052603260045260246000fd5b60006020828403121561320157600080fd5b5051919050565b60008282101561321a5761321a613099565b500390565b60208082526032908201527f4552433732313a207472616e7366657220746f206e6f6e20455243373231526560408201527131b2b4bb32b91034b6b83632b6b2b73a32b960711b606082015260800190565b60008351613283818460208801612d6e565b835190830190613297818360208801612d6e565b01949350505050565b6001600160a01b03858116825284166020820152604081018390526080606082018190526000906132d390830184612d9a565b9695505050505050565b6000602082840312156132ef57600080fd5b815161275681612d3b565b634e487b7160e01b600052601260045260246000fd5b60008261331f5761331f6132fa565b500490565b600082613333576133336132fa565b500690565b634e487b7160e01b600052603160045260246000fdfea26469706673582212201e739c54f3aa308b06ad2a147cb9eac3d3bcb6cd9b927c6e6ec3583fd3c7643664736f6c634300080a0033",
  "linkReferences": {},
  "deployedLinkReferences": {}
}