{
  "_format": "hh-sol-artifact-1",
  "contractName": "TrashPossums",
  "sourceName": "contracts/TrashPossums.sol",
  "abi": [
    {
      "inputs": [
        {
          "internalType": "uint256",
          "name": "_possumPrice",
          "type": "uint256"
        },
        {
          "internalType": "uint256",
          "name": "_startMintDate",
          "type": "uint256"
        },
        {
          "internalType": "string",
          "name": "_baseUri",
          "type": "string"
        },
        {
          "internalType": "address",
          "name": "_randomness",
          "type": "address"
        }
      ],
      "stateMutability": "nonpayable",
      "type": "constructor"
    },
    {
      "anonymous": false,
      "inputs": [
        {
          "indexed": true,
          "internalType": "address",
          "name": "owner",
          "type": "address"
        },
        {
          "indexed": true,
          "internalType": "address",
          "name": "approved",
          "type": "address"
        },
        {
          "indexed": true,
          "internalType": "uint256",
          "name": "tokenId",
          "type": "uint256"
        }
      ],
      "name": "Approval",
      "type": "event"
    },
    {
      "anonymous": false,
      "inputs": [
        {
          "indexed": true,
          "internalType": "address",
          "name": "owner",
          "type": "address"
        },
        {
          "indexed": true,
          "internalType": "address",
          "name": "operator",
          "type": "address"
        },
        {
          "indexed": false,
          "internalType": "bool",
          "name": "approved",
          "type": "bool"
        }
      ],
      "name": "ApprovalForAll",
      "type": "event"
    },
    {
      "anonymous": false,
      "inputs": [
        {
          "indexed": true,
          "internalType": "address",
          "name": "previousOwner",
          "type": "address"
        },
        {
          "indexed": true,
          "internalType": "address",
          "name": "newOwner",
          "type": "address"
        }
      ],
      "name": "OwnershipTransferred",
      "type": "event"
    },
    {
      "anonymous": false,
      "inputs": [
        {
          "indexed": false,
          "internalType": "address",
          "name": "account",
          "type": "address"
        }
      ],
      "name": "Paused",
      "type": "event"
    },
    {
      "anonymous": false,
      "inputs": [
        {
          "indexed": true,
          "internalType": "address",
          "name": "to",
          "type": "address"
        },
        {
          "indexed": true,
          "internalType": "uint256",
          "name": "tokenId",
          "type": "uint256"
        }
      ],
      "name": "Reserved",
      "type": "event"
    },
    {
      "anonymous": false,
      "inputs": [
        {
          "indexed": true,
          "internalType": "address",
          "name": "from",
          "type": "address"
        },
        {
          "indexed": true,
          "internalType": "address",
          "name": "to",
          "type": "address"
        },
        {
          "indexed": true,
          "internalType": "uint256",
          "name": "tokenId",
          "type": "uint256"
        }
      ],
      "name": "Transfer",
      "type": "event"
    },
    {
      "anonymous": false,
      "inputs": [
        {
          "indexed": false,
          "internalType": "address",
          "name": "account",
          "type": "address"
        }
      ],
      "name": "Unpaused",
      "type": "event"
    },
    {
      "inputs": [
        {
          "internalType": "address",
          "name": "to",
          "type": "address"
        },
        {
          "internalType": "uint256",
          "name": "tokenId",
          "type": "uint256"
        }
      ],
      "name": "approve",
      "outputs": [],
      "stateMutability": "nonpayable",
      "type": "function"
    },
    {
      "inputs": [
        {
          "internalType": "address",
          "name": "owner",
          "type": "address"
        }
      ],
      "name": "balanceOf",
      "outputs": [
        {
          "internalType": "uint256",
          "name": "",
          "type": "uint256"
        }
      ],
      "stateMutability": "view",
      "type": "function"
    },
    {
      "inputs": [],
      "name": "baseTokenURI",
      "outputs": [
        {
          "internalType": "string",
          "name": "",
          "type": "string"
        }
      ],
      "stateMutability": "view",
      "type": "function"
    },
    {
      "inputs": [],
      "name": "baseURI",
      "outputs": [
        {
          "internalType": "string",
          "name": "",
          "type": "string"
        }
      ],
      "stateMutability": "view",
      "type": "function"
    },
    {
      "inputs": [],
      "name": "claimPossums",
      "outputs": [],
      "stateMutability": "payable",
      "type": "function"
    },
    {
      "inputs": [
        {
          "internalType": "uint256",
          "name": "tokenId",
          "type": "uint256"
        }
      ],
      "name": "getApproved",
      "outputs": [
        {
          "internalType": "address",
          "name": "",
          "type": "address"
        }
      ],
      "stateMutability": "view",
      "type": "function"
    },
    {
      "inputs": [],
      "name": "getAvailablePossums",
      "outputs": [
        {
          "internalType": "uint256",
          "name": "",
          "type": "uint256"
        }
      ],
      "stateMutability": "view",
      "type": "function"
    },
    {
      "inputs": [],
      "name": "getBalance",
      "outputs": [
        {
          "internalType": "uint256",
          "name": "",
          "type": "uint256"
        }
      ],
      "stateMutability": "view",
      "type": "function"
    },
    {
      "inputs": [],
      "name": "getClaimDate",
      "outputs": [
        {
          "internalType": "uint256",
          "name": "",
          "type": "uint256"
        }
      ],
      "stateMutability": "view",
      "type": "function"
    },
    {
      "inputs": [],
      "name": "getMintingStartDate",
      "outputs": [
        {
          "internalType": "uint256",
          "name": "",
          "type": "uint256"
        }
      ],
      "stateMutability": "view",
      "type": "function"
    },
    {
      "inputs": [],
      "name": "getNumberOfReservedPossums",
      "outputs": [
        {
          "internalType": "uint256",
          "name": "",
          "type": "uint256"
        }
      ],
      "stateMutability": "view",
      "type": "function"
    },
    {
      "inputs": [],
      "name": "getPossumPrice",
      "outputs": [
        {
          "internalType": "uint256",
          "name": "",
          "type": "uint256"
        }
      ],
      "stateMutability": "view",
      "type": "function"
    },
    {
      "inputs": [
        {
          "internalType": "address",
          "name": "_wallet",
          "type": "address"
        }
      ],
      "name": "getReservedPossumIds",
      "outputs": [
        {
          "internalType": "uint256[]",
          "name": "reservedIds",
          "type": "uint256[]"
        }
      ],
      "stateMutability": "view",
      "type": "function"
    },
    {
      "inputs": [
        {
          "internalType": "address",
          "name": "_wallet",
          "type": "address"
        }
      ],
      "name": "getReservedPossumsPerWallet",
      "outputs": [
        {
          "internalType": "uint256",
          "name": "",
          "type": "uint256"
        }
      ],
      "stateMutability": "view",
      "type": "function"
    },
    {
      "inputs": [],
      "name": "getTotalMintedPossums",
      "outputs": [
        {
          "internalType": "uint256",
          "name": "",
          "type": "uint256"
        }
      ],
      "stateMutability": "view",
      "type": "function"
    },
    {
      "inputs": [],
      "name": "getTotalPossums",
      "outputs": [
        {
          "internalType": "uint256",
          "name": "",
          "type": "uint256"
        }
      ],
      "stateMutability": "pure",
      "type": "function"
    },
    {
      "inputs": [
        {
          "internalType": "address",
          "name": "owner",
          "type": "address"
        },
        {
          "internalType": "address",
          "name": "operator",
          "type": "address"
        }
      ],
      "name": "isApprovedForAll",
      "outputs": [
        {
          "internalType": "bool",
          "name": "",
          "type": "bool"
        }
      ],
      "stateMutability": "view",
      "type": "function"
    },
    {
      "inputs": [],
      "name": "maxPossumsPerTransaction",
      "outputs": [
        {
          "internalType": "uint256",
          "name": "",
          "type": "uint256"
        }
      ],
      "stateMutability": "view",
      "type": "function"
    },
    {
      "inputs": [],
      "name": "maxPossumsPerWallet",
      "outputs": [
        {
          "internalType": "uint256",
          "name": "",
          "type": "uint256"
        }
      ],
      "stateMutability": "view",
      "type": "function"
    },
    {
      "inputs": [],
      "name": "name",
      "outputs": [
        {
          "internalType": "string",
          "name": "",
          "type": "string"
        }
      ],
      "stateMutability": "view",
      "type": "function"
    },
    {
      "inputs": [],
      "name": "numberOfReservedPossums",
      "outputs": [
        {
          "internalType": "uint256",
          "name": "",
          "type": "uint256"
        }
      ],
      "stateMutability": "view",
      "type": "function"
    },
    {
      "inputs": [],
      "name": "owner",
      "outputs": [
        {
          "internalType": "address",
          "name": "",
          "type": "address"
        }
      ],
      "stateMutability": "view",
      "type": "function"
    },
    {
      "inputs": [
        {
          "internalType": "uint256",
          "name": "tokenId",
          "type": "uint256"
        }
      ],
      "name": "ownerOf",
      "outputs": [
        {
          "internalType": "address",
          "name": "",
          "type": "address"
        }
      ],
      "stateMutability": "view",
      "type": "function"
    },
    {
      "inputs": [],
      "name": "pause",
      "outputs": [],
      "stateMutability": "nonpayable",
      "type": "function"
    },
    {
      "inputs": [],
      "name": "paused",
      "outputs": [
        {
          "internalType": "bool",
          "name": "",
          "type": "bool"
        }
      ],
      "stateMutability": "view",
      "type": "function"
    },
    {
      "inputs": [],
      "name": "possumPrice",
      "outputs": [
        {
          "internalType": "uint256",
          "name": "",
          "type": "uint256"
        }
      ],
      "stateMutability": "view",
      "type": "function"
    },
    {
      "inputs": [],
      "name": "premintCount",
      "outputs": [
        {
          "internalType": "uint256",
          "name": "",
          "type": "uint256"
        }
      ],
      "stateMutability": "view",
      "type": "function"
    },
    {
      "inputs": [],
      "name": "premintPossums",
      "outputs": [],
      "stateMutability": "nonpayable",
      "type": "function"
    },
    {
      "inputs": [],
      "name": "randomness",
      "outputs": [
        {
          "internalType": "address",
          "name": "",
          "type": "address"
        }
      ],
      "stateMutability": "view",
      "type": "function"
    },
    {
      "inputs": [],
      "name": "renounceOwnership",
      "outputs": [],
      "stateMutability": "nonpayable",
      "type": "function"
    },
    {
      "inputs": [
        {
          "internalType": "uint256",
          "name": "amount",
          "type": "uint256"
        }
      ],
      "name": "reservePossums",
      "outputs": [],
      "stateMutability": "payable",
      "type": "function"
    },
    {
      "inputs": [
        {
          "internalType": "address",
          "name": "from",
          "type": "address"
        },
        {
          "internalType": "address",
          "name": "to",
          "type": "address"
        },
        {
          "internalType": "uint256",
          "name": "tokenId",
          "type": "uint256"
        }
      ],
      "name": "safeTransferFrom",
      "outputs": [],
      "stateMutability": "nonpayable",
      "type": "function"
    },
    {
      "inputs": [
        {
          "internalType": "address",
          "name": "from",
          "type": "address"
        },
        {
          "internalType": "address",
          "name": "to",
          "type": "address"
        },
        {
          "internalType": "uint256",
          "name": "tokenId",
          "type": "uint256"
        },
        {
          "internalType": "bytes",
          "name": "_data",
          "type": "bytes"
        }
      ],
      "name": "safeTransferFrom",
      "outputs": [],
      "stateMutability": "nonpayable",
      "type": "function"
    },
    {
      "inputs": [
        {
          "internalType": "address",
          "name": "operator",
          "type": "address"
        },
        {
          "internalType": "bool",
          "name": "approved",
          "type": "bool"
        }
      ],
      "name": "setApprovalForAll",
      "outputs": [],
      "stateMutability": "nonpayable",
      "type": "function"
    },
    {
      "inputs": [
        {
          "internalType": "string",
          "name": "_tokenURI",
          "type": "string"
        }
      ],
      "name": "setBaseTokenURI",
      "outputs": [],
      "stateMutability": "nonpayable",
      "type": "function"
    },
    {
      "inputs": [
        {
          "internalType": "uint256",
          "name": "_possumPrice",
          "type": "uint256"
        }
      ],
      "name": "setPossumPrice",
      "outputs": [],
      "stateMutability": "nonpayable",
      "type": "function"
    },
    {
      "inputs": [
        {
          "internalType": "address",
          "name": "_randomness",
          "type": "address"
        }
      ],
      "name": "setRandomness",
      "outputs": [],
      "stateMutability": "nonpayable",
      "type": "function"
    },
    {
      "inputs": [
        {
          "internalType": "uint256",
          "name": "_startMintDate",
          "type": "uint256"
        }
      ],
      "name": "setStartMintDate",
      "outputs": [],
      "stateMutability": "nonpayable",
      "type": "function"
    },
    {
      "inputs": [],
      "name": "startMintDate",
      "outputs": [
        {
          "internalType": "uint256",
          "name": "",
          "type": "uint256"
        }
      ],
      "stateMutability": "view",
      "type": "function"
    },
    {
      "inputs": [
        {
          "internalType": "bytes4",
          "name": "interfaceId",
          "type": "bytes4"
        }
      ],
      "name": "supportsInterface",
      "outputs": [
        {
          "internalType": "bool",
          "name": "",
          "type": "bool"
        }
      ],
      "stateMutability": "view",
      "type": "function"
    },
    {
      "inputs": [],
      "name": "symbol",
      "outputs": [
        {
          "internalType": "string",
          "name": "",
          "type": "string"
        }
      ],
      "stateMutability": "view",
      "type": "function"
    },
    {
      "inputs": [
        {
          "internalType": "uint256",
          "name": "index",
          "type": "uint256"
        }
      ],
      "name": "tokenByIndex",
      "outputs": [
        {
          "internalType": "uint256",
          "name": "",
          "type": "uint256"
        }
      ],
      "stateMutability": "view",
      "type": "function"
    },
    {
      "inputs": [
        {
          "internalType": "address",
          "name": "owner",
          "type": "address"
        },
        {
          "internalType": "uint256",
          "name": "index",
          "type": "uint256"
        }
      ],
      "name": "tokenOfOwnerByIndex",
      "outputs": [
        {
          "internalType": "uint256",
          "name": "",
          "type": "uint256"
        }
      ],
      "stateMutability": "view",
      "type": "function"
    },
    {
      "inputs": [
        {
          "internalType": "uint256",
          "name": "tokenId",
          "type": "uint256"
        }
      ],
      "name": "tokenURI",
      "outputs": [
        {
          "internalType": "string",
          "name": "",
          "type": "string"
        }
      ],
      "stateMutability": "view",
      "type": "function"
    },
    {
      "inputs": [],
      "name": "totalMintedPossums",
      "outputs": [
        {
          "internalType": "uint256",
          "name": "",
          "type": "uint256"
        }
      ],
      "stateMutability": "view",
      "type": "function"
    },
    {
      "inputs": [],
      "name": "totalPossums",
      "outputs": [
        {
          "internalType": "uint256",
          "name": "",
          "type": "uint256"
        }
      ],
      "stateMutability": "view",
      "type": "function"
    },
    {
      "inputs": [],
      "name": "totalSupply",
      "outputs": [
        {
          "internalType": "uint256",
          "name": "",
          "type": "uint256"
        }
      ],
      "stateMutability": "view",
      "type": "function"
    },
    {
      "inputs": [
        {
          "internalType": "address",
          "name": "from",
          "type": "address"
        },
        {
          "internalType": "address",
          "name": "to",
          "type": "address"
        },
        {
          "internalType": "uint256",
          "name": "tokenId",
          "type": "uint256"
        }
      ],
      "name": "transferFrom",
      "outputs": [],
      "stateMutability": "nonpayable",
      "type": "function"
    },
    {
      "inputs": [
        {
          "internalType": "address",
          "name": "newOwner",
          "type": "address"
        }
      ],
      "name": "transferOwnership",
      "outputs": [],
      "stateMutability": "nonpayable",
      "type": "function"
    },
    {
      "inputs": [],
      "name": "unpause",
      "outputs": [],
      "stateMutability": "nonpayable",
      "type": "function"
    },
    {
      "inputs": [],
      "name": "withdraw",
      "outputs": [],
      "stateMutability": "payable",
      "type": "function"
    },
    {
      "inputs": [
        {
          "internalType": "contract IERC20",
          "name": "token",
          "type": "address"
        },
        {
          "internalType": "uint256",
          "name": "_amount",
          "type": "uint256"
        }
      ],
      "name": "withdrawErc20",
      "outputs": [],
      "stateMutability": "nonpayable",
      "type": "function"
    },
    {
      "stateMutability": "payable",
      "type": "receive"
    }
  ],
  "bytecode": "0x60806040523480156200001157600080fd5b506040516200375a3803806200375a83398101604081905262000034916200023c565b604080518082018252600d81526c547261736820506f7373756d7360981b60208083019182528351808501909452600584526454504f535360d81b908401528151919291620000869160009162000163565b5080516200009c90600190602084019062000163565b505050620000b9620000b36200010d60201b60201c565b62000111565b600c805460ff19169055600e849055600d8390558151620000e290601290602085019062000163565b50601180546001600160a01b0319166001600160a01b0392909216919091179055506200037f915050565b3390565b600780546001600160a01b038381166001600160a01b0319831681179093556040519116919082907f8be0079c531659141344cd1fd0a4f28419497f9722a3daafe3b4186f6b6457e090600090a35050565b828054620001719062000342565b90600052602060002090601f016020900481019282620001955760008555620001e0565b82601f10620001b057805160ff1916838001178555620001e0565b82800160010185558215620001e0579182015b82811115620001e0578251825591602001919060010190620001c3565b50620001ee929150620001f2565b5090565b5b80821115620001ee5760008155600101620001f3565b634e487b7160e01b600052604160045260246000fd5b80516001600160a01b03811681146200023757600080fd5b919050565b600080600080608085870312156200025357600080fd5b845160208087015160408801519296509450906001600160401b03808211156200027c57600080fd5b818801915088601f8301126200029157600080fd5b815181811115620002a657620002a662000209565b604051601f8201601f19908116603f01168101908382118183101715620002d157620002d162000209565b816040528281528b86848701011115620002ea57600080fd5b600093505b828410156200030e5784840186015181850187015292850192620002ef565b82841115620003205760008684830101525b80975050505050505062000337606086016200021f565b905092959194509250565b600181811c908216806200035757607f821691505b602082108114156200037957634e487b7160e01b600052602260045260246000fd5b50919050565b6133cb806200038f6000396000f3fe6080604052600436106103025760003560e01c80636c0360eb11610190578063b031b35b116100dc578063d547cfb711610095578063e65fadc41161006f578063e65fadc414610836578063e985e9c51461084b578063ead1750614610894578063f2fde38b146108a957600080fd5b8063d547cfb7146107eb578063da67e22a14610800578063dca772841461081657600080fd5b8063b031b35b14610759578063b37cb09d14610761578063b88d4fde14610776578063bd1f4b5214610796578063c87b56dd146107b6578063cc6bbd65146107d657600080fd5b80638456cb591161014957806395d89b411161012357806395d89b41146106ef5780639d9ee67314610704578063a22cb46514610719578063a37a85e91461073957600080fd5b80638456cb59146106a75780638481de5f146106bc5780638da5cb5b146106d157600080fd5b80636c0360eb1461060657806370a082311461061b578063715018a61461063b578063723bcc13146106505780637fd3352e1461066557806384511aff1461069257600080fd5b80633ccfd60b1161024f57806350f257e1116102085780635ba36949116101e25780635ba36949146105a35780635c975abb146105b95780636352211e146105d15780636ab60117146105f157600080fd5b806350f257e114610541578063530e04bb146105775780635b46a8f21461058d57600080fd5b80633ccfd60b146104af5780633f4ba83a146104b7578063416c585d146104cc57806342842e0e146104e1578063493143e4146105015780634f6ccce71461052157600080fd5b806318160ddd116102bc5780632f745c59116102965780632f745c591461043957806330176e131461045957806336013189146104795780633bb240bd1461049957600080fd5b806318160ddd146103ef57806323b872dd1461040457806325554fb11461042457600080fd5b806261b0ec1461030e57806301ffc9a71461032357806306fdde0314610358578063081812fc1461037a578063095ea7b3146103b257806312065fe0146103d257600080fd5b3661030957005b600080fd5b61032161031c366004612d69565b6108c9565b005b34801561032f57600080fd5b5061034361033e366004612d98565b610b76565b60405190151581526020015b60405180910390f35b34801561036457600080fd5b5061036d610b87565b60405161034f9190612e0d565b34801561038657600080fd5b5061039a610395366004612d69565b610c19565b6040516001600160a01b03909116815260200161034f565b3480156103be57600080fd5b506103216103cd366004612e35565b610ca1565b3480156103de57600080fd5b50475b60405190815260200161034f565b3480156103fb57600080fd5b50600a546103e1565b34801561041057600080fd5b5061032161041f366004612e61565b610db2565b34801561043057600080fd5b506010546103e1565b34801561044557600080fd5b506103e1610454366004612e35565b610de3565b34801561046557600080fd5b50610321610474366004612ea2565b610e79565b34801561048557600080fd5b5060115461039a906001600160a01b031681565b3480156104a557600080fd5b506103e1600e5481565b610321610eaf565b3480156104c357600080fd5b50610321610f89565b3480156104d857600080fd5b50610321610fbd565b3480156104ed57600080fd5b506103216104fc366004612e61565b61113d565b34801561050d57600080fd5b5061032161051c366004612d69565b611158565b34801561052d57600080fd5b506103e161053c366004612d69565b611187565b34801561054d57600080fd5b506103e161055c366004612f14565b6001600160a01b031660009081526014602052604090205490565b34801561058357600080fd5b506103e1600f5481565b34801561059957600080fd5b506103e1611b5881565b3480156105af57600080fd5b506103e160105481565b3480156105c557600080fd5b50600c5460ff16610343565b3480156105dd57600080fd5b5061039a6105ec366004612d69565b61121a565b3480156105fd57600080fd5b506103e1601b81565b34801561061257600080fd5b5061036d611291565b34801561062757600080fd5b506103e1610636366004612f14565b61131f565b34801561064757600080fd5b506103216113a6565b34801561065c57600080fd5b50600e546103e1565b34801561067157600080fd5b50610685610680366004612f14565b6113da565b60405161034f9190612f31565b34801561069e57600080fd5b506103e1603681565b3480156106b357600080fd5b5061032161152c565b3480156106c857600080fd5b506103e161155e565b3480156106dd57600080fd5b506007546001600160a01b031661039a565b3480156106fb57600080fd5b5061036d6115d1565b34801561071057600080fd5b506103e1606481565b34801561072557600080fd5b50610321610734366004612f83565b6115e0565b34801561074557600080fd5b50610321610754366004612f14565b6115eb565b610321611637565b34801561076d57600080fd5b506103e16118c7565b34801561078257600080fd5b50610321610791366004612fd2565b611911565b3480156107a257600080fd5b506103216107b1366004612e35565b611943565b3480156107c257600080fd5b5061036d6107d1366004612d69565b611ac9565b3480156107e257600080fd5b50611b586103e1565b3480156107f757600080fd5b5061036d611ad4565b34801561080c57600080fd5b506103e1600d5481565b34801561082257600080fd5b50610321610831366004612d69565b611ae3565b34801561084257600080fd5b50600f546103e1565b34801561085757600080fd5b506103436108663660046130b2565b6001600160a01b03918216600090815260056020908152604080832093909416825291909152205460ff1690565b3480156108a057600080fd5b50600d546103e1565b3480156108b557600080fd5b506103216108c4366004612f14565b611b12565b600d54158015906108db575042600d54105b6109205760405162461bcd60e51b8152602060048201526011602482015270596f752061726520746f6f206561726c7960781b60448201526064015b60405180910390fd5b600061092a61155e565b905081600e5461093a91906130f6565b34101561099b5760405162461bcd60e51b815260206004820152602960248201527f4e6f7420656e6f75676820457468657220746f207265736572766520746865736044820152686520706f7373756d7360b81b6064820152608401610917565b600082116109eb5760405162461bcd60e51b815260206004820152601e60248201527f6e65656420746f2072657365727665206174206c656173742031204e465400006044820152606401610917565b33600090815260146020526040902054603690610a09908490613115565b11158015610a33575033600090815260136020526040902054603690610a30908490613115565b11155b610a7f5760405162461bcd60e51b815260206004820152601f60248201527f596f752063616e6e6f742072657365727665206d6f726520706f7373756d73006044820152606401610917565b81811015610acf5760405162461bcd60e51b815260206004820152601760248201527f4e6f7420656e6f75676820506f7373756d73206c6566740000000000000000006044820152606401610917565b601b821115610b195760405162461bcd60e51b815260206004820152601660248201527526b0bc10191b903832b9103a3930b739b0b1ba34b7b760511b6044820152606401610917565b60005b82811015610b71576000610b2e611bad565b604051909150819033907f904dcdc411e931497b95b06ddf8f8184815dd3bedc3c7c7cd4aed3ccd30783d890600090a35080610b698161312d565b915050610b1c565b505050565b6000610b8182611c58565b92915050565b606060008054610b9690613148565b80601f0160208091040260200160405190810160405280929190818152602001828054610bc290613148565b8015610c0f5780601f10610be457610100808354040283529160200191610c0f565b820191906000526020600020905b815481529060010190602001808311610bf257829003601f168201915b5050505050905090565b6000610c2482611c7d565b610c855760405162461bcd60e51b815260206004820152602c60248201527f4552433732313a20617070726f76656420717565727920666f72206e6f6e657860448201526b34b9ba32b73a103a37b5b2b760a11b6064820152608401610917565b506000908152600460205260409020546001600160a01b031690565b6000610cac8261121a565b9050806001600160a01b0316836001600160a01b03161415610d1a5760405162461bcd60e51b815260206004820152602160248201527f4552433732313a20617070726f76616c20746f2063757272656e74206f776e656044820152603960f91b6064820152608401610917565b336001600160a01b0382161480610d365750610d368133610866565b610da85760405162461bcd60e51b815260206004820152603860248201527f4552433732313a20617070726f76652063616c6c6572206973206e6f74206f7760448201527f6e6572206e6f7220617070726f76656420666f7220616c6c00000000000000006064820152608401610917565b610b718383611c9a565b610dbc3382611d08565b610dd85760405162461bcd60e51b81526004016109179061317d565b610b71838383611df2565b6000610dee8361131f565b8210610e505760405162461bcd60e51b815260206004820152602b60248201527f455243373231456e756d657261626c653a206f776e657220696e646578206f7560448201526a74206f6620626f756e647360a81b6064820152608401610917565b506001600160a01b03919091166000908152600860209081526040808320938352929052205490565b6007546001600160a01b03163314610ea35760405162461bcd60e51b8152600401610917906131ce565b610b7160128383612c5c565b6007546001600160a01b03163314610ed95760405162461bcd60e51b8152600401610917906131ce565b476000610eee6007546001600160a01b031690565b6001600160a01b03168260405160006040518083038185875af1925050503d8060008114610f38576040519150601f19603f3d011682016040523d82523d6000602084013e610f3d565b606091505b5050905080610f855760405162461bcd60e51b81526020600482015260146024820152732330b4b632b2103a379039b2b7321022ba3432b960611b6044820152606401610917565b5050565b6007546001600160a01b03163314610fb35760405162461bcd60e51b8152600401610917906131ce565b610fbb611f9d565b565b6007546001600160a01b03163314610fe75760405162461bcd60e51b8152600401610917906131ce565b60115460408051631332545760e11b815290516000926001600160a01b031691632664a8ae9160048083019260209291908290030181865afa158015611031573d6000803e3d6000fd5b505050506040513d601f19601f820116820180604052508101906110559190613203565b905080156110b35760405162461bcd60e51b815260206004820152602560248201527f596f752063616e206f6e6c79207072656d696e742074686520506f7373756d73604482015264206f6e636560d81b6064820152608401610917565b60005b60648110156110db576110c93382612030565b806110d38161312d565b9150506110b6565b50601154604051631c8ac9a560e31b8152606460048201526001600160a01b039091169063e4564d2890602401600060405180830381600087803b15801561112257600080fd5b505af1158015611136573d6000803e3d6000fd5b5050505050565b610b7183838360405180602001604052806000815250611911565b6007546001600160a01b031633146111825760405162461bcd60e51b8152600401610917906131ce565b600d55565b6000611192600a5490565b82106111f55760405162461bcd60e51b815260206004820152602c60248201527f455243373231456e756d657261626c653a20676c6f62616c20696e646578206f60448201526b7574206f6620626f756e647360a01b6064820152608401610917565b600a828154811061120857611208613220565b90600052602060002001549050919050565b6000818152600260205260408120546001600160a01b031680610b815760405162461bcd60e51b815260206004820152602960248201527f4552433732313a206f776e657220717565727920666f72206e6f6e657869737460448201526832b73a103a37b5b2b760b91b6064820152608401610917565b6012805461129e90613148565b80601f01602080910402602001604051908101604052809291908181526020018280546112ca90613148565b80156113175780601f106112ec57610100808354040283529160200191611317565b820191906000526020600020905b8154815290600101906020018083116112fa57829003601f168201915b505050505081565b60006001600160a01b03821661138a5760405162461bcd60e51b815260206004820152602a60248201527f4552433732313a2062616c616e636520717565727920666f7220746865207a65604482015269726f206164647265737360b01b6064820152608401610917565b506001600160a01b031660009081526003602052604090205490565b6007546001600160a01b031633146113d05760405162461bcd60e51b8152600401610917906131ce565b610fbb6000612164565b6001600160a01b0381166000908152601460205260409020546060906114425760405162461bcd60e51b815260206004820152601e60248201527f57616c6c657420686173206e6f20726573657276656420706f7373756d7300006044820152606401610917565b6001600160a01b03821660009081526014602052604090205467ffffffffffffffff81111561147357611473612fbc565b60405190808252806020026020018201604052801561149c578160200160208202803683370190505b50905060005b6001600160a01b038316600090815260146020526040902054811015611526576001600160a01b03831660009081526014602052604090208054829081106114ec576114ec613220565b906000526020600020015482828151811061150957611509613220565b60209081029190910101528061151e8161312d565b9150506114a2565b50919050565b6007546001600160a01b031633146115565760405162461bcd60e51b8152600401610917906131ce565b610fbb6121b6565b60115460408051638481de5f60e01b815290516000926001600160a01b031691638481de5f9160048083019260209291908290030181865afa1580156115a8573d6000803e3d6000fd5b505050506040513d601f19601f820116820180604052508101906115cc9190613236565b905090565b606060018054610b9690613148565b610f85338383612231565b6007546001600160a01b031633146116155760405162461bcd60e51b8152600401610917906131ce565b601180546001600160a01b0319166001600160a01b0392909216919091179055565b600d5415801590611649575042600d54105b6116895760405162461bcd60e51b8152602060048201526011602482015270596f752061726520746f6f206561726c7960781b6044820152606401610917565b60006116936118c7565b336000908152601460205260409020549091506116f25760405162461bcd60e51b815260206004820152601c60248201527f796f752068617665206e6f20726573657276656420706f7373756d73000000006044820152606401610917565b428110806117045750611b5860105410155b61170d57600080fd5b600080601160009054906101000a90046001600160a01b03166001600160a01b031663eb6ad24e6040518163ffffffff1660e01b8152600401602060405180830381865afa158015611763573d6000803e3d6000fd5b505050506040513d601f19601f820116820180604052508101906117879190613236565b9050806117d65760405162461bcd60e51b815260206004820152601f60248201527f506f7373756d73206e6f7420726561647920746f20626520636c61696d6564006044820152606401610917565b60005b336000908152601460205260409020548110156118c15733600090815260146020526040812080548491908490811061181457611814613220565b90600052602060002001546118299190613115565b90506118386001611b5861324f565b8111156118735761184b6001606461324f565b6118586001611b5861324f565b611862908361324f565b61186c9190613115565b9350611877565b8093505b6118813385612030565b3360009081526014602052604081208054849081106118a2576118a2613220565b60009182526020909120015550806118b98161312d565b9150506117d9565b50505050565b601154604080516344657d2760e11b815290516000926001600160a01b0316916388cafa4e9160048083019260209291908290030181865afa1580156115a8573d6000803e3d6000fd5b61191b3383611d08565b6119375760405162461bcd60e51b81526004016109179061317d565b6118c184848484612300565b6007546001600160a01b0316331461196d5760405162461bcd60e51b8152600401610917906131ce565b6040516370a0823160e01b81523060048201526000906001600160a01b038416906370a0823190602401602060405180830381865afa1580156119b4573d6000803e3d6000fd5b505050506040513d601f19601f820116820180604052508101906119d89190613236565b11611a375760405162461bcd60e51b815260206004820152602960248201527f7468697320636f6e747261637420646f6573206e6f7420636f6e7461696e20746044820152683434b9903a37b5b2b760b91b6064820152608401610917565b816001600160a01b031663a9059cbb611a586007546001600160a01b031690565b6040516001600160e01b031960e084901b1681526001600160a01b039091166004820152602481018490526044016020604051808303816000875af1158015611aa5573d6000803e3d6000fd5b505050506040513d601f19601f82011682018060405250810190610b719190613203565b6060610b8182612333565b606060128054610b9690613148565b6007546001600160a01b03163314611b0d5760405162461bcd60e51b8152600401610917906131ce565b600e55565b6007546001600160a01b03163314611b3c5760405162461bcd60e51b8152600401610917906131ce565b6001600160a01b038116611ba15760405162461bcd60e51b815260206004820152602660248201527f4f776e61626c653a206e6577206f776e657220697320746865207a65726f206160448201526564647265737360d01b6064820152608401610917565b611baa81612164565b50565b6011546040805163c6410f7b60e01b815290516000926001600160a01b03169163c6410f7b916004808301926020929190829003018187875af1158015611bf8573d6000803e3d6000fd5b505050506040513d601f19601f82011682018060405250810190611c1c9190613236565b33600090815260146020908152604082208054600181018255908352908220018290556010805492935090611c508361312d565b919050555090565b60006001600160e01b0319821663780e9d6360e01b1480610b815750610b8182612495565b6000908152600260205260409020546001600160a01b0316151590565b600081815260046020526040902080546001600160a01b0319166001600160a01b0384169081179091558190611ccf8261121a565b6001600160a01b03167f8c5be1e5ebec7d5bd14f71427d1e84f3dd0314c0f7b2291e5b200ac8c7c3b92560405160405180910390a45050565b6000611d1382611c7d565b611d745760405162461bcd60e51b815260206004820152602c60248201527f4552433732313a206f70657261746f7220717565727920666f72206e6f6e657860448201526b34b9ba32b73a103a37b5b2b760a11b6064820152608401610917565b6000611d7f8361121a565b9050806001600160a01b0316846001600160a01b03161480611dba5750836001600160a01b0316611daf84610c19565b6001600160a01b0316145b80611dea57506001600160a01b0380821660009081526005602090815260408083209388168352929052205460ff165b949350505050565b826001600160a01b0316611e058261121a565b6001600160a01b031614611e6d5760405162461bcd60e51b815260206004820152602960248201527f4552433732313a207472616e73666572206f6620746f6b656e2074686174206960448201526839903737ba1037bbb760b91b6064820152608401610917565b6001600160a01b038216611ecf5760405162461bcd60e51b8152602060048201526024808201527f4552433732313a207472616e7366657220746f20746865207a65726f206164646044820152637265737360e01b6064820152608401610917565b611eda8383836124e5565b611ee5600082611c9a565b6001600160a01b0383166000908152600360205260408120805460019290611f0e90849061324f565b90915550506001600160a01b0382166000908152600360205260408120805460019290611f3c908490613115565b909155505060008181526002602052604080822080546001600160a01b0319166001600160a01b0386811691821790925591518493918716917fddf252ad1be2c89b69c2b068fc378daa952ba7f163c4a11628f55a4df523b3ef91a4505050565b600c5460ff16611fe65760405162461bcd60e51b815260206004820152601460248201527314185d5cd8589b194e881b9bdd081c185d5cd95960621b6044820152606401610917565b600c805460ff191690557f5db9ee0a495bf2e6ff9c91a7834c1ba4fdd244a5e8aa4e537bd38aeae4b073aa335b6040516001600160a01b03909116815260200160405180910390a1565b611b58600f5411156120845760405162461bcd60e51b815260206004820152601c60248201527f616c6c20506f7373756d732068617665206265656e206d696e746564000000006044820152606401610917565b61208e8282612536565b612122816012805461209f90613148565b80601f01602080910402602001604051908101604052809291908181526020018280546120cb90613148565b80156121185780601f106120ed57610100808354040283529160200191612118565b820191906000526020600020905b8154815290600101906020018083116120fb57829003601f168201915b5050505050612550565b600f80549060006121328361312d565b90915550506001600160a01b038216600090815260136020526040812080549161215b8361312d565b91905055505050565b600780546001600160a01b038381166001600160a01b0319831681179093556040519116919082907f8be0079c531659141344cd1fd0a4f28419497f9722a3daafe3b4186f6b6457e090600090a35050565b600c5460ff16156121fc5760405162461bcd60e51b815260206004820152601060248201526f14185d5cd8589b194e881c185d5cd95960821b6044820152606401610917565b600c805460ff191660011790557f62e78cea01bee320cd4e420270b5ea74000d11b0c9f74754ebdbfc544b05a2586120133390565b816001600160a01b0316836001600160a01b031614156122935760405162461bcd60e51b815260206004820152601960248201527f4552433732313a20617070726f766520746f2063616c6c6572000000000000006044820152606401610917565b6001600160a01b03838116600081815260056020908152604080832094871680845294825291829020805460ff191686151590811790915591519182527f17307eab39ab6107e8899845ad3d59bd9653f200f220920489ca2b5937696c31910160405180910390a3505050565b61230b848484611df2565b612317848484846125db565b6118c15760405162461bcd60e51b815260040161091790613266565b606061233e82611c7d565b6123a45760405162461bcd60e51b815260206004820152603160248201527f45524337323155524953746f726167653a2055524920717565727920666f72206044820152703737b732bc34b9ba32b73a103a37b5b2b760791b6064820152608401610917565b600082815260066020526040812080546123bd90613148565b80601f01602080910402602001604051908101604052809291908181526020018280546123e990613148565b80156124365780601f1061240b57610100808354040283529160200191612436565b820191906000526020600020905b81548152906001019060200180831161241957829003601f168201915b505050505090506000612447611ad4565b905080516000141561245a575092915050565b81511561248c5780826040516020016124749291906132b8565b60405160208183030381529060405292505050919050565b611dea846126d9565b60006001600160e01b031982166380ac58cd60e01b14806124c657506001600160e01b03198216635b5e139f60e01b145b80610b8157506301ffc9a760e01b6001600160e01b0319831614610b81565b600c5460ff161561252b5760405162461bcd60e51b815260206004820152601060248201526f14185d5cd8589b194e881c185d5cd95960821b6044820152606401610917565b610b718383836127a4565b610f8582826040518060200160405280600081525061285c565b61255982611c7d565b6125bc5760405162461bcd60e51b815260206004820152602e60248201527f45524337323155524953746f726167653a2055524920736574206f66206e6f6e60448201526d32bc34b9ba32b73a103a37b5b2b760911b6064820152608401610917565b60008281526006602090815260409091208251610b7192840190612ce0565b60006001600160a01b0384163b156126ce57604051630a85bd0160e11b81526001600160a01b0385169063150b7a029061261f9033908990889088906004016132e7565b6020604051808303816000875af192505050801561265a575060408051601f3d908101601f1916820190925261265791810190613324565b60015b6126b4573d808015612688576040519150601f19603f3d011682016040523d82523d6000602084013e61268d565b606091505b5080516126ac5760405162461bcd60e51b815260040161091790613266565b805181602001fd5b6001600160e01b031916630a85bd0160e11b149050611dea565b506001949350505050565b60606126e482611c7d565b6127485760405162461bcd60e51b815260206004820152602f60248201527f4552433732314d657461646174613a2055524920717565727920666f72206e6f60448201526e3732bc34b9ba32b73a103a37b5b2b760891b6064820152608401610917565b6000612752611ad4565b90506000815111612772576040518060200160405280600081525061279d565b8061277c8461288f565b60405160200161278d9291906132b8565b6040516020818303038152906040525b9392505050565b6001600160a01b0383166127ff576127fa81600a80546000838152600b60205260408120829055600182018355919091527fc65a7bb8d6351c1cf70c95a316cc6a92839c986682d98bc35f958f4883f9d2a80155565b612822565b816001600160a01b0316836001600160a01b03161461282257612822838261298d565b6001600160a01b03821661283957610b7181612a2a565b826001600160a01b0316826001600160a01b031614610b7157610b718282612ad9565b6128668383612b1d565b61287360008484846125db565b610b715760405162461bcd60e51b815260040161091790613266565b6060816128b35750506040805180820190915260018152600360fc1b602082015290565b8160005b81156128dd57806128c78161312d565b91506128d69050600a83613357565b91506128b7565b60008167ffffffffffffffff8111156128f8576128f8612fbc565b6040519080825280601f01601f191660200182016040528015612922576020820181803683370190505b5090505b8415611dea5761293760018361324f565b9150612944600a8661336b565b61294f906030613115565b60f81b81838151811061296457612964613220565b60200101906001600160f81b031916908160001a905350612986600a86613357565b9450612926565b6000600161299a8461131f565b6129a4919061324f565b6000838152600960205260409020549091508082146129f7576001600160a01b03841660009081526008602090815260408083208584528252808320548484528184208190558352600990915290208190555b5060009182526009602090815260408084208490556001600160a01b039094168352600881528383209183525290812055565b600a54600090612a3c9060019061324f565b6000838152600b6020526040812054600a8054939450909284908110612a6457612a64613220565b9060005260206000200154905080600a8381548110612a8557612a85613220565b6000918252602080832090910192909255828152600b9091526040808220849055858252812055600a805480612abd57612abd61337f565b6001900381819060005260206000200160009055905550505050565b6000612ae48361131f565b6001600160a01b039093166000908152600860209081526040808320868452825280832085905593825260099052919091209190915550565b6001600160a01b038216612b735760405162461bcd60e51b815260206004820181905260248201527f4552433732313a206d696e7420746f20746865207a65726f20616464726573736044820152606401610917565b612b7c81611c7d565b15612bc95760405162461bcd60e51b815260206004820152601c60248201527f4552433732313a20746f6b656e20616c7265616479206d696e746564000000006044820152606401610917565b612bd5600083836124e5565b6001600160a01b0382166000908152600360205260408120805460019290612bfe908490613115565b909155505060008181526002602052604080822080546001600160a01b0319166001600160a01b03861690811790915590518392907fddf252ad1be2c89b69c2b068fc378daa952ba7f163c4a11628f55a4df523b3ef908290a45050565b828054612c6890613148565b90600052602060002090601f016020900481019282612c8a5760008555612cd0565b82601f10612ca35782800160ff19823516178555612cd0565b82800160010185558215612cd0579182015b82811115612cd0578235825591602001919060010190612cb5565b50612cdc929150612d54565b5090565b828054612cec90613148565b90600052602060002090601f016020900481019282612d0e5760008555612cd0565b82601f10612d2757805160ff1916838001178555612cd0565b82800160010185558215612cd0579182015b82811115612cd0578251825591602001919060010190612d39565b5b80821115612cdc5760008155600101612d55565b600060208284031215612d7b57600080fd5b5035919050565b6001600160e01b031981168114611baa57600080fd5b600060208284031215612daa57600080fd5b813561279d81612d82565b60005b83811015612dd0578181015183820152602001612db8565b838111156118c15750506000910152565b60008151808452612df9816020860160208601612db5565b601f01601f19169290920160200192915050565b60208152600061279d6020830184612de1565b6001600160a01b0381168114611baa57600080fd5b60008060408385031215612e4857600080fd5b8235612e5381612e20565b946020939093013593505050565b600080600060608486031215612e7657600080fd5b8335612e8181612e20565b92506020840135612e9181612e20565b929592945050506040919091013590565b60008060208385031215612eb557600080fd5b823567ffffffffffffffff80821115612ecd57600080fd5b818501915085601f830112612ee157600080fd5b813581811115612ef057600080fd5b866020828501011115612f0257600080fd5b60209290920196919550909350505050565b600060208284031215612f2657600080fd5b813561279d81612e20565b6020808252825182820181905260009190848201906040850190845b81811015612f6957835183529284019291840191600101612f4d565b50909695505050505050565b8015158114611baa57600080fd5b60008060408385031215612f9657600080fd5b8235612fa181612e20565b91506020830135612fb181612f75565b809150509250929050565b634e487b7160e01b600052604160045260246000fd5b60008060008060808587031215612fe857600080fd5b8435612ff381612e20565b9350602085013561300381612e20565b925060408501359150606085013567ffffffffffffffff8082111561302757600080fd5b818701915087601f83011261303b57600080fd5b81358181111561304d5761304d612fbc565b604051601f8201601f19908116603f0116810190838211818310171561307557613075612fbc565b816040528281528a602084870101111561308e57600080fd5b82602086016020830137600060208483010152809550505050505092959194509250565b600080604083850312156130c557600080fd5b82356130d081612e20565b91506020830135612fb181612e20565b634e487b7160e01b600052601160045260246000fd5b6000816000190483118215151615613110576131106130e0565b500290565b60008219821115613128576131286130e0565b500190565b6000600019821415613141576131416130e0565b5060010190565b600181811c9082168061315c57607f821691505b6020821081141561152657634e487b7160e01b600052602260045260246000fd5b60208082526031908201527f4552433732313a207472616e736665722063616c6c6572206973206e6f74206f6040820152701ddb995c881b9bdc88185c1c1c9bdd9959607a1b606082015260800190565b6020808252818101527f4f776e61626c653a2063616c6c6572206973206e6f7420746865206f776e6572604082015260600190565b60006020828403121561321557600080fd5b815161279d81612f75565b634e487b7160e01b600052603260045260246000fd5b60006020828403121561324857600080fd5b5051919050565b600082821015613261576132616130e0565b500390565b60208082526032908201527f4552433732313a207472616e7366657220746f206e6f6e20455243373231526560408201527131b2b4bb32b91034b6b83632b6b2b73a32b960711b606082015260800190565b600083516132ca818460208801612db5565b8351908301906132de818360208801612db5565b01949350505050565b6001600160a01b038581168252841660208201526040810183905260806060820181905260009061331a90830184612de1565b9695505050505050565b60006020828403121561333657600080fd5b815161279d81612d82565b634e487b7160e01b600052601260045260246000fd5b60008261336657613366613341565b500490565b60008261337a5761337a613341565b500690565b634e487b7160e01b600052603160045260246000fdfea264697066735822122020461a44eee9ee2fe3320c426f36ed5cb05d729f9888b6de700189070c40fcdc64736f6c634300080a0033",
  "linkReferences": {},
  "deployedLinkReferences": {}
}