{
  "_format": "hh-sol-artifact-1",
  "contractName": "TrashPossums",
  "sourceName": "contracts/TrashPossums.sol",
  "abi": [
    {
      "inputs": [],
      "stateMutability": "nonpayable",
      "type": "constructor"
    },
    {
      "anonymous": false,
      "inputs": [
        {
          "indexed": true,
          "internalType": "address",
          "name": "owner",
          "type": "address"
        },
        {
          "indexed": true,
          "internalType": "address",
          "name": "approved",
          "type": "address"
        },
        {
          "indexed": true,
          "internalType": "uint256",
          "name": "tokenId",
          "type": "uint256"
        }
      ],
      "name": "Approval",
      "type": "event"
    },
    {
      "anonymous": false,
      "inputs": [
        {
          "indexed": true,
          "internalType": "address",
          "name": "owner",
          "type": "address"
        },
        {
          "indexed": true,
          "internalType": "address",
          "name": "operator",
          "type": "address"
        },
        {
          "indexed": false,
          "internalType": "bool",
          "name": "approved",
          "type": "bool"
        }
      ],
      "name": "ApprovalForAll",
      "type": "event"
    },
    {
      "anonymous": false,
      "inputs": [
        {
          "indexed": true,
          "internalType": "address",
          "name": "from",
          "type": "address"
        },
        {
          "indexed": true,
          "internalType": "uint256",
          "name": "tokenId",
          "type": "uint256"
        }
      ],
      "name": "Mint",
      "type": "event"
    },
    {
      "anonymous": false,
      "inputs": [
        {
          "indexed": true,
          "internalType": "address",
          "name": "previousOwner",
          "type": "address"
        },
        {
          "indexed": true,
          "internalType": "address",
          "name": "newOwner",
          "type": "address"
        }
      ],
      "name": "OwnershipTransferred",
      "type": "event"
    },
    {
      "anonymous": false,
      "inputs": [
        {
          "indexed": false,
          "internalType": "address",
          "name": "account",
          "type": "address"
        }
      ],
      "name": "Paused",
      "type": "event"
    },
    {
      "anonymous": false,
      "inputs": [
        {
          "indexed": true,
          "internalType": "address",
          "name": "from",
          "type": "address"
        },
        {
          "indexed": true,
          "internalType": "address",
          "name": "to",
          "type": "address"
        },
        {
          "indexed": true,
          "internalType": "uint256",
          "name": "tokenId",
          "type": "uint256"
        }
      ],
      "name": "Transfer",
      "type": "event"
    },
    {
      "anonymous": false,
      "inputs": [
        {
          "indexed": false,
          "internalType": "address",
          "name": "account",
          "type": "address"
        }
      ],
      "name": "Unpaused",
      "type": "event"
    },
    {
      "inputs": [],
      "name": "addAvailablePossums",
      "outputs": [
        {
          "internalType": "bool",
          "name": "",
          "type": "bool"
        }
      ],
      "stateMutability": "nonpayable",
      "type": "function"
    },
    {
      "inputs": [
        {
          "internalType": "uint256",
          "name": "tokenId",
          "type": "uint256"
        },
        {
          "internalType": "string",
          "name": "ipfsUri",
          "type": "string"
        }
      ],
      "name": "addPossumUri",
      "outputs": [],
      "stateMutability": "nonpayable",
      "type": "function"
    },
    {
      "inputs": [
        {
          "internalType": "address",
          "name": "to",
          "type": "address"
        },
        {
          "internalType": "uint256",
          "name": "tokenId",
          "type": "uint256"
        }
      ],
      "name": "approve",
      "outputs": [],
      "stateMutability": "nonpayable",
      "type": "function"
    },
    {
      "inputs": [
        {
          "internalType": "address",
          "name": "addr1",
          "type": "address"
        }
      ],
      "name": "balanceOf",
      "outputs": [
        {
          "internalType": "uint256",
          "name": "",
          "type": "uint256"
        }
      ],
      "stateMutability": "view",
      "type": "function"
    },
    {
      "inputs": [],
      "name": "baseTokenURI",
      "outputs": [
        {
          "internalType": "string",
          "name": "",
          "type": "string"
        }
      ],
      "stateMutability": "view",
      "type": "function"
    },
    {
      "inputs": [
        {
          "internalType": "uint256",
          "name": "tokenId",
          "type": "uint256"
        }
      ],
      "name": "burn",
      "outputs": [],
      "stateMutability": "nonpayable",
      "type": "function"
    },
    {
      "inputs": [
        {
          "internalType": "uint256",
          "name": "tokenId",
          "type": "uint256"
        }
      ],
      "name": "getApproved",
      "outputs": [
        {
          "internalType": "address",
          "name": "",
          "type": "address"
        }
      ],
      "stateMutability": "view",
      "type": "function"
    },
    {
      "inputs": [],
      "name": "getAvailablePossums",
      "outputs": [
        {
          "internalType": "uint256",
          "name": "",
          "type": "uint256"
        }
      ],
      "stateMutability": "view",
      "type": "function"
    },
    {
      "inputs": [],
      "name": "getMintingStartDate",
      "outputs": [
        {
          "internalType": "uint256",
          "name": "",
          "type": "uint256"
        }
      ],
      "stateMutability": "view",
      "type": "function"
    },
    {
      "inputs": [],
      "name": "getpossumPrice",
      "outputs": [
        {
          "internalType": "uint256",
          "name": "",
          "type": "uint256"
        }
      ],
      "stateMutability": "view",
      "type": "function"
    },
    {
      "inputs": [
        {
          "internalType": "address",
          "name": "owner",
          "type": "address"
        },
        {
          "internalType": "address",
          "name": "operator",
          "type": "address"
        }
      ],
      "name": "isApprovedForAll",
      "outputs": [
        {
          "internalType": "bool",
          "name": "",
          "type": "bool"
        }
      ],
      "stateMutability": "view",
      "type": "function"
    },
    {
      "inputs": [],
      "name": "maxPossumsPerWallet",
      "outputs": [
        {
          "internalType": "uint256",
          "name": "",
          "type": "uint256"
        }
      ],
      "stateMutability": "view",
      "type": "function"
    },
    {
      "inputs": [
        {
          "internalType": "uint256",
          "name": "amount",
          "type": "uint256"
        }
      ],
      "name": "mintPossums",
      "outputs": [],
      "stateMutability": "payable",
      "type": "function"
    },
    {
      "inputs": [],
      "name": "name",
      "outputs": [
        {
          "internalType": "string",
          "name": "",
          "type": "string"
        }
      ],
      "stateMutability": "view",
      "type": "function"
    },
    {
      "inputs": [],
      "name": "owner",
      "outputs": [
        {
          "internalType": "address",
          "name": "",
          "type": "address"
        }
      ],
      "stateMutability": "view",
      "type": "function"
    },
    {
      "inputs": [
        {
          "internalType": "uint256",
          "name": "tokenId",
          "type": "uint256"
        }
      ],
      "name": "ownerOf",
      "outputs": [
        {
          "internalType": "address",
          "name": "",
          "type": "address"
        }
      ],
      "stateMutability": "view",
      "type": "function"
    },
    {
      "inputs": [],
      "name": "pause",
      "outputs": [],
      "stateMutability": "nonpayable",
      "type": "function"
    },
    {
      "inputs": [],
      "name": "paused",
      "outputs": [
        {
          "internalType": "bool",
          "name": "",
          "type": "bool"
        }
      ],
      "stateMutability": "view",
      "type": "function"
    },
    {
      "inputs": [],
      "name": "premintPossums",
      "outputs": [],
      "stateMutability": "nonpayable",
      "type": "function"
    },
    {
      "inputs": [],
      "name": "renounceOwnership",
      "outputs": [],
      "stateMutability": "nonpayable",
      "type": "function"
    },
    {
      "inputs": [
        {
          "internalType": "address",
          "name": "from",
          "type": "address"
        },
        {
          "internalType": "address",
          "name": "to",
          "type": "address"
        },
        {
          "internalType": "uint256",
          "name": "tokenId",
          "type": "uint256"
        }
      ],
      "name": "safeTransferFrom",
      "outputs": [],
      "stateMutability": "nonpayable",
      "type": "function"
    },
    {
      "inputs": [
        {
          "internalType": "address",
          "name": "from",
          "type": "address"
        },
        {
          "internalType": "address",
          "name": "to",
          "type": "address"
        },
        {
          "internalType": "uint256",
          "name": "tokenId",
          "type": "uint256"
        },
        {
          "internalType": "bytes",
          "name": "_data",
          "type": "bytes"
        }
      ],
      "name": "safeTransferFrom",
      "outputs": [],
      "stateMutability": "nonpayable",
      "type": "function"
    },
    {
      "inputs": [
        {
          "internalType": "address",
          "name": "operator",
          "type": "address"
        },
        {
          "internalType": "bool",
          "name": "approved",
          "type": "bool"
        }
      ],
      "name": "setApprovalForAll",
      "outputs": [],
      "stateMutability": "nonpayable",
      "type": "function"
    },
    {
      "inputs": [
        {
          "internalType": "string",
          "name": "_uri",
          "type": "string"
        }
      ],
      "name": "setBaseTokenURI",
      "outputs": [],
      "stateMutability": "nonpayable",
      "type": "function"
    },
    {
      "inputs": [
        {
          "internalType": "uint256",
          "name": "_possumPrice",
          "type": "uint256"
        }
      ],
      "name": "setPossumPrice",
      "outputs": [],
      "stateMutability": "nonpayable",
      "type": "function"
    },
    {
      "inputs": [
        {
          "internalType": "bytes4",
          "name": "interfaceId",
          "type": "bytes4"
        }
      ],
      "name": "supportsInterface",
      "outputs": [
        {
          "internalType": "bool",
          "name": "",
          "type": "bool"
        }
      ],
      "stateMutability": "view",
      "type": "function"
    },
    {
      "inputs": [],
      "name": "symbol",
      "outputs": [
        {
          "internalType": "string",
          "name": "",
          "type": "string"
        }
      ],
      "stateMutability": "view",
      "type": "function"
    },
    {
      "inputs": [
        {
          "internalType": "uint256",
          "name": "index",
          "type": "uint256"
        }
      ],
      "name": "tokenByIndex",
      "outputs": [
        {
          "internalType": "uint256",
          "name": "",
          "type": "uint256"
        }
      ],
      "stateMutability": "view",
      "type": "function"
    },
    {
      "inputs": [
        {
          "internalType": "address",
          "name": "owner",
          "type": "address"
        },
        {
          "internalType": "uint256",
          "name": "index",
          "type": "uint256"
        }
      ],
      "name": "tokenOfOwnerByIndex",
      "outputs": [
        {
          "internalType": "uint256",
          "name": "",
          "type": "uint256"
        }
      ],
      "stateMutability": "view",
      "type": "function"
    },
    {
      "inputs": [
        {
          "internalType": "uint256",
          "name": "tokenId",
          "type": "uint256"
        }
      ],
      "name": "tokenURI",
      "outputs": [
        {
          "internalType": "string",
          "name": "",
          "type": "string"
        }
      ],
      "stateMutability": "view",
      "type": "function"
    },
    {
      "inputs": [],
      "name": "totalPossums",
      "outputs": [
        {
          "internalType": "uint256",
          "name": "",
          "type": "uint256"
        }
      ],
      "stateMutability": "view",
      "type": "function"
    },
    {
      "inputs": [],
      "name": "totalSupply",
      "outputs": [
        {
          "internalType": "uint256",
          "name": "",
          "type": "uint256"
        }
      ],
      "stateMutability": "view",
      "type": "function"
    },
    {
      "inputs": [
        {
          "internalType": "address",
          "name": "from",
          "type": "address"
        },
        {
          "internalType": "address",
          "name": "to",
          "type": "address"
        },
        {
          "internalType": "uint256",
          "name": "tokenId",
          "type": "uint256"
        }
      ],
      "name": "transferFrom",
      "outputs": [],
      "stateMutability": "nonpayable",
      "type": "function"
    },
    {
      "inputs": [
        {
          "internalType": "address",
          "name": "newOwner",
          "type": "address"
        }
      ],
      "name": "transferOwnership",
      "outputs": [],
      "stateMutability": "nonpayable",
      "type": "function"
    },
    {
      "inputs": [],
      "name": "unpause",
      "outputs": [],
      "stateMutability": "nonpayable",
      "type": "function"
    },
    {
      "inputs": [],
      "name": "withdraw",
      "outputs": [],
      "stateMutability": "nonpayable",
      "type": "function"
    }
  ],
  "bytecode": "0x60806040526003600d556361323870600e5566f8b0a10e470000600f5560006010556101156011556000601260006101000a81548160ff021916908315150217905550604051806080016040528060448152602001620059a06044913960139080519060200190620000739291906200024c565b506000601760006101000a81548160ff0219169083151502179055503480156200009c57600080fd5b506040518060400160405280600d81526020017f547261736820506f7373756d73000000000000000000000000000000000000008152506040518060400160405280600981526020017f5452415348504f535300000000000000000000000000000000000000000000008152508160009080519060200190620001219291906200024c565b5080600190805190602001906200013a9291906200024c565b5050506000600b60006101000a81548160ff021916908315150217905550620001786200016c6200017e60201b60201c565b6200018660201b60201c565b62000361565b600033905090565b6000600b60019054906101000a900473ffffffffffffffffffffffffffffffffffffffff16905081600b60016101000a81548173ffffffffffffffffffffffffffffffffffffffff021916908373ffffffffffffffffffffffffffffffffffffffff1602179055508173ffffffffffffffffffffffffffffffffffffffff168173ffffffffffffffffffffffffffffffffffffffff167f8be0079c531659141344cd1fd0a4f28419497f9722a3daafe3b4186f6b6457e060405160405180910390a35050565b8280546200025a90620002fc565b90600052602060002090601f0160209004810192826200027e5760008555620002ca565b82601f106200029957805160ff1916838001178555620002ca565b82800160010185558215620002ca579182015b82811115620002c9578251825591602001919060010190620002ac565b5b509050620002d99190620002dd565b5090565b5b80821115620002f8576000816000905550600101620002de565b5090565b600060028204905060018216806200031557607f821691505b602082108114156200032c576200032b62000332565b5b50919050565b7f4e487b7100000000000000000000000000000000000000000000000000000000600052602260045260246000fd5b61562f80620003716000396000f3fe60806040526004361061020f5760003560e01c80635c975abb1161011857806395d89b41116100a0578063d547cfb71161006f578063d547cfb714610744578063dca772841461076f578063e985e9c514610798578063ead17506146107d5578063f2fde38b146108005761020f565b806395d89b411461068a578063a22cb465146106b5578063b88d4fde146106de578063c87b56dd146107075761020f565b8063715018a6116100e7578063715018a6146105db57806384511aff146105f25780638456cb591461061d5780638481de5f146106345780638da5cb5b1461065f5761020f565b80635c975abb1461051a5780636352211e14610545578063671099381461058257806370a082311461059e5761020f565b806330176e131161019b57806342842e0e1161016a57806342842e0e1461043557806342966c681461045e5780634639dba3146104875780634f6ccce7146104b25780635b46a8f2146104ef5761020f565b806330176e13146103c75780633ccfd60b146103f05780633f4ba83a14610407578063416c585d1461041e5761020f565b806318160ddd116101e257806318160ddd146102e2578063201d2a211461030d57806323b872dd14610336578063276ced9b1461035f5780632f745c591461038a5761020f565b806301ffc9a71461021457806306fdde0314610251578063081812fc1461027c578063095ea7b3146102b9575b600080fd5b34801561022057600080fd5b5061023b60048036038101906102369190613cfa565b610829565b6040516102489190614484565b60405180910390f35b34801561025d57600080fd5b5061026661083b565b604051610273919061449f565b60405180910390f35b34801561028857600080fd5b506102a3600480360381019061029e9190613d8d565b6108cd565b6040516102b0919061441d565b60405180910390f35b3480156102c557600080fd5b506102e060048036038101906102db9190613cbe565b610952565b005b3480156102ee57600080fd5b506102f7610a6a565b60405161030491906148ff565b60405180910390f35b34801561031957600080fd5b50610334600480360381019061032f9190613db6565b610a74565b005b34801561034257600080fd5b5061035d60048036038101906103589190613bb8565b610b18565b005b34801561036b57600080fd5b50610374610b78565b6040516103819190614484565b60405180910390f35b34801561039657600080fd5b506103b160048036038101906103ac9190613cbe565b610c97565b6040516103be91906148ff565b60405180910390f35b3480156103d357600080fd5b506103ee60048036038101906103e99190613d4c565b610d3c565b005b3480156103fc57600080fd5b50610405610dd2565b005b34801561041357600080fd5b5061041c610e9d565b005b34801561042a57600080fd5b50610433610f23565b005b34801561044157600080fd5b5061045c60048036038101906104579190613bb8565b61109b565b005b34801561046a57600080fd5b5061048560048036038101906104809190613d8d565b6110bb565b005b34801561049357600080fd5b5061049c611117565b6040516104a991906148ff565b60405180910390f35b3480156104be57600080fd5b506104d960048036038101906104d49190613d8d565b611121565b6040516104e691906148ff565b60405180910390f35b3480156104fb57600080fd5b506105046111b8565b60405161051191906148ff565b60405180910390f35b34801561052657600080fd5b5061052f6111be565b60405161053c9190614484565b60405180910390f35b34801561055157600080fd5b5061056c60048036038101906105679190613d8d565b6111d5565b604051610579919061441d565b60405180910390f35b61059c60048036038101906105979190613d8d565b611287565b005b3480156105aa57600080fd5b506105c560048036038101906105c09190613b53565b6114cf565b6040516105d291906148ff565b60405180910390f35b3480156105e757600080fd5b506105f0611518565b005b3480156105fe57600080fd5b506106076115a0565b60405161061491906148ff565b60405180910390f35b34801561062957600080fd5b506106326115a5565b005b34801561064057600080fd5b5061064961162b565b60405161065691906148ff565b60405180910390f35b34801561066b57600080fd5b50610674611638565b604051610681919061441d565b60405180910390f35b34801561069657600080fd5b5061069f611662565b6040516106ac919061449f565b60405180910390f35b3480156106c157600080fd5b506106dc60048036038101906106d79190613c82565b6116f4565b005b3480156106ea57600080fd5b5061070560048036038101906107009190613c07565b611875565b005b34801561071357600080fd5b5061072e60048036038101906107299190613d8d565b6118d7565b60405161073b919061449f565b60405180910390f35b34801561075057600080fd5b506107596118e9565b604051610766919061449f565b60405180910390f35b34801561077b57600080fd5b5061079660048036038101906107919190613d8d565b61197b565b005b3480156107a457600080fd5b506107bf60048036038101906107ba9190613b7c565b611a01565b6040516107cc9190614484565b60405180910390f35b3480156107e157600080fd5b506107ea611a95565b6040516107f791906148ff565b60405180910390f35b34801561080c57600080fd5b5061082760048036038101906108229190613b53565b611a9f565b005b600061083482611b97565b9050919050565b60606000805461084a90614b7f565b80601f016020809104026020016040519081016040528092919081815260200182805461087690614b7f565b80156108c35780601f10610898576101008083540402835291602001916108c3565b820191906000526020600020905b8154815290600101906020018083116108a657829003601f168201915b5050505050905090565b60006108d882611c11565b610917576040517f08c379a000000000000000000000000000000000000000000000000000000000815260040161090e9061479f565b60405180910390fd5b6004600083815260200190815260200160002060009054906101000a900473ffffffffffffffffffffffffffffffffffffffff169050919050565b600061095d826111d5565b90508073ffffffffffffffffffffffffffffffffffffffff168373ffffffffffffffffffffffffffffffffffffffff1614156109ce576040517f08c379a00000000000000000000000000000000000000000000000000000000081526004016109c59061483f565b60405180910390fd5b8073ffffffffffffffffffffffffffffffffffffffff166109ed611c7d565b73ffffffffffffffffffffffffffffffffffffffff161480610a1c5750610a1b81610a16611c7d565b611a01565b5b610a5b576040517f08c379a0000000000000000000000000000000000000000000000000000000008152600401610a529061469f565b60405180910390fd5b610a658383611c85565b505050565b6000601054905090565b610a7c611c7d565b73ffffffffffffffffffffffffffffffffffffffff16610a9a611638565b73ffffffffffffffffffffffffffffffffffffffff1614610af0576040517f08c379a0000000000000000000000000000000000000000000000000000000008152600401610ae7906147df565b60405180910390fd5b8181601660008681526020019081526020016000209190610b12929190613867565b50505050565b610b29610b23611c7d565b82611d3e565b610b68576040517f08c379a0000000000000000000000000000000000000000000000000000000008152600401610b5f9061485f565b60405180910390fd5b610b73838383611e1c565b505050565b6000610b82611c7d565b73ffffffffffffffffffffffffffffffffffffffff16610ba0611638565b73ffffffffffffffffffffffffffffffffffffffff1614610bf6576040517f08c379a0000000000000000000000000000000000000000000000000000000008152600401610bed906147df565b60405180910390fd5b60001515601760009054906101000a900460ff16151514610c1657600080fd5b60005b6104e18161ffff1611610c6657601581908060018154018082558091505060019003906000526020600020016000909161ffff169091909150558080610c5e90614be2565b915050610c19565b506001601760006101000a81548160ff021916908315150217905550601760009054906101000a900460ff16905090565b6000610ca283612078565b8210610ce3576040517f08c379a0000000000000000000000000000000000000000000000000000000008152600401610cda9061451f565b60405180910390fd5b600660008473ffffffffffffffffffffffffffffffffffffffff1673ffffffffffffffffffffffffffffffffffffffff168152602001908152602001600020600083815260200190815260200160002054905092915050565b610d44611c7d565b73ffffffffffffffffffffffffffffffffffffffff16610d62611638565b73ffffffffffffffffffffffffffffffffffffffff1614610db8576040517f08c379a0000000000000000000000000000000000000000000000000000000008152600401610daf906147df565b60405180910390fd5b8060139080519060200190610dce9291906138ed565b5050565b610dda611c7d565b73ffffffffffffffffffffffffffffffffffffffff16610df8611638565b73ffffffffffffffffffffffffffffffffffffffff1614610e4e576040517f08c379a0000000000000000000000000000000000000000000000000000000008152600401610e45906147df565b60405180910390fd5b60004790503373ffffffffffffffffffffffffffffffffffffffff166108fc829081150290604051600060405180830381858888f19350505050158015610e99573d6000803e3d6000fd5b5050565b610ea5611c7d565b73ffffffffffffffffffffffffffffffffffffffff16610ec3611638565b73ffffffffffffffffffffffffffffffffffffffff1614610f19576040517f08c379a0000000000000000000000000000000000000000000000000000000008152600401610f10906147df565b60405180910390fd5b610f21612130565b565b610f2b611c7d565b73ffffffffffffffffffffffffffffffffffffffff16610f49611638565b73ffffffffffffffffffffffffffffffffffffffff1614610f9f576040517f08c379a0000000000000000000000000000000000000000000000000000000008152600401610f96906147df565b60405180910390fd5b601260009054906101000a900460ff1615610fef576040517f08c379a0000000000000000000000000000000000000000000000000000000008152600401610fe69061465f565b60405180910390fd5b6011546015805490501015611039576040517f08c379a00000000000000000000000000000000000000000000000000000000081526004016110309061489f565b60405180910390fd5b6011546010600082825461104d91906149e4565b9250508190555060005b60115481101561107d5761106a336121d2565b808061107590614c0d565b915050611057565b506001601260006101000a81548160ff021916908315150217905550565b6110b683838360405180602001604052806000815250611875565b505050565b6110cc6110c6611c7d565b82611d3e565b61110b576040517f08c379a0000000000000000000000000000000000000000000000000000000008152600401611102906148df565b60405180910390fd5b61111481612233565b50565b6000600f54905090565b600061112b61223f565b821061116c576040517f08c379a00000000000000000000000000000000000000000000000000000000081526004016111639061487f565b60405180910390fd5b600882815481106111a6577f4e487b7100000000000000000000000000000000000000000000000000000000600052603260045260246000fd5b90600052602060002001549050919050565b6104e181565b6000600b60009054906101000a900460ff16905090565b6000806002600084815260200190815260200160002060009054906101000a900473ffffffffffffffffffffffffffffffffffffffff169050600073ffffffffffffffffffffffffffffffffffffffff168173ffffffffffffffffffffffffffffffffffffffff16141561127e576040517f08c379a00000000000000000000000000000000000000000000000000000000081526004016112759061471f565b60405180910390fd5b80915050919050565b3373ffffffffffffffffffffffffffffffffffffffff163273ffffffffffffffffffffffffffffffffffffffff16146112f5576040517f08c379a00000000000000000000000000000000000000000000000000000000081526004016112ec9061455f565b60405180910390fd5b6000600e541415801561130a575042600e5411155b611349576040517f08c379a0000000000000000000000000000000000000000000000000000000008152600401611340906146df565b60405180910390fd5b601b81601460003373ffffffffffffffffffffffffffffffffffffffff1673ffffffffffffffffffffffffffffffffffffffff1681526020019081526020016000205461139691906149e4565b11156113d7576040517f08c379a00000000000000000000000000000000000000000000000000000000081526004016113ce9061459f565b60405180910390fd5b80601580549050101561141f576040517f08c379a0000000000000000000000000000000000000000000000000000000008152600401611416906146bf565b60405180910390fd5b600d54811115611464576040517f08c379a000000000000000000000000000000000000000000000000000000000815260040161145b906147bf565b60405180910390fd5b60005b818110156114cb57611478336121d2565b6114b86040518060400160405280601081526020017f6d696e74696e67203120706f7373756d00000000000000000000000000000000815250333061224c565b80806114c390614c0d565b915050611467565b5050565b6000601460008373ffffffffffffffffffffffffffffffffffffffff1673ffffffffffffffffffffffffffffffffffffffff168152602001908152602001600020549050919050565b611520611c7d565b73ffffffffffffffffffffffffffffffffffffffff1661153e611638565b73ffffffffffffffffffffffffffffffffffffffff1614611594576040517f08c379a000000000000000000000000000000000000000000000000000000000815260040161158b906147df565b60405180910390fd5b61159e60006122eb565b565b601b81565b6115ad611c7d565b73ffffffffffffffffffffffffffffffffffffffff166115cb611638565b73ffffffffffffffffffffffffffffffffffffffff1614611621576040517f08c379a0000000000000000000000000000000000000000000000000000000008152600401611618906147df565b60405180910390fd5b6116296123b1565b565b6000601580549050905090565b6000600b60019054906101000a900473ffffffffffffffffffffffffffffffffffffffff16905090565b60606001805461167190614b7f565b80601f016020809104026020016040519081016040528092919081815260200182805461169d90614b7f565b80156116ea5780601f106116bf576101008083540402835291602001916116ea565b820191906000526020600020905b8154815290600101906020018083116116cd57829003601f168201915b5050505050905090565b6116fc611c7d565b73ffffffffffffffffffffffffffffffffffffffff168273ffffffffffffffffffffffffffffffffffffffff16141561176a576040517f08c379a0000000000000000000000000000000000000000000000000000000008152600401611761906145ff565b60405180910390fd5b8060056000611777611c7d565b73ffffffffffffffffffffffffffffffffffffffff1673ffffffffffffffffffffffffffffffffffffffff16815260200190815260200160002060008473ffffffffffffffffffffffffffffffffffffffff1673ffffffffffffffffffffffffffffffffffffffff16815260200190815260200160002060006101000a81548160ff0219169083151502179055508173ffffffffffffffffffffffffffffffffffffffff16611824611c7d565b73ffffffffffffffffffffffffffffffffffffffff167f17307eab39ab6107e8899845ad3d59bd9653f200f220920489ca2b5937696c31836040516118699190614484565b60405180910390a35050565b611886611880611c7d565b83611d3e565b6118c5576040517f08c379a00000000000000000000000000000000000000000000000000000000081526004016118bc9061485f565b60405180910390fd5b6118d184848484612454565b50505050565b60606118e2826124b0565b9050919050565b6060601380546118f890614b7f565b80601f016020809104026020016040519081016040528092919081815260200182805461192490614b7f565b80156119715780601f1061194657610100808354040283529160200191611971565b820191906000526020600020905b81548152906001019060200180831161195457829003601f168201915b5050505050905090565b611983611c7d565b73ffffffffffffffffffffffffffffffffffffffff166119a1611638565b73ffffffffffffffffffffffffffffffffffffffff16146119f7576040517f08c379a00000000000000000000000000000000000000000000000000000000081526004016119ee906147df565b60405180910390fd5b80600f8190555050565b6000600560008473ffffffffffffffffffffffffffffffffffffffff1673ffffffffffffffffffffffffffffffffffffffff16815260200190815260200160002060008373ffffffffffffffffffffffffffffffffffffffff1673ffffffffffffffffffffffffffffffffffffffff16815260200190815260200160002060009054906101000a900460ff16905092915050565b6000600e54905090565b611aa7611c7d565b73ffffffffffffffffffffffffffffffffffffffff16611ac5611638565b73ffffffffffffffffffffffffffffffffffffffff1614611b1b576040517f08c379a0000000000000000000000000000000000000000000000000000000008152600401611b12906147df565b60405180910390fd5b600073ffffffffffffffffffffffffffffffffffffffff168173ffffffffffffffffffffffffffffffffffffffff161415611b8b576040517f08c379a0000000000000000000000000000000000000000000000000000000008152600401611b829061457f565b60405180910390fd5b611b94816122eb565b50565b60007f780e9d63000000000000000000000000000000000000000000000000000000007bffffffffffffffffffffffffffffffffffffffffffffffffffffffff1916827bffffffffffffffffffffffffffffffffffffffffffffffffffffffff19161480611c0a5750611c0982612602565b5b9050919050565b60008073ffffffffffffffffffffffffffffffffffffffff166002600084815260200190815260200160002060009054906101000a900473ffffffffffffffffffffffffffffffffffffffff1673ffffffffffffffffffffffffffffffffffffffff1614159050919050565b600033905090565b816004600083815260200190815260200160002060006101000a81548173ffffffffffffffffffffffffffffffffffffffff021916908373ffffffffffffffffffffffffffffffffffffffff160217905550808273ffffffffffffffffffffffffffffffffffffffff16611cf8836111d5565b73ffffffffffffffffffffffffffffffffffffffff167f8c5be1e5ebec7d5bd14f71427d1e84f3dd0314c0f7b2291e5b200ac8c7c3b92560405160405180910390a45050565b6000611d4982611c11565b611d88576040517f08c379a0000000000000000000000000000000000000000000000000000000008152600401611d7f9061463f565b60405180910390fd5b6000611d93836111d5565b90508073ffffffffffffffffffffffffffffffffffffffff168473ffffffffffffffffffffffffffffffffffffffff161480611e0257508373ffffffffffffffffffffffffffffffffffffffff16611dea846108cd565b73ffffffffffffffffffffffffffffffffffffffff16145b80611e135750611e128185611a01565b5b91505092915050565b8273ffffffffffffffffffffffffffffffffffffffff16611e3c826111d5565b73ffffffffffffffffffffffffffffffffffffffff1614611e92576040517f08c379a0000000000000000000000000000000000000000000000000000000008152600401611e89906147ff565b60405180910390fd5b600073ffffffffffffffffffffffffffffffffffffffff168273ffffffffffffffffffffffffffffffffffffffff161415611f02576040517f08c379a0000000000000000000000000000000000000000000000000000000008152600401611ef9906145df565b60405180910390fd5b611f0d8383836126e4565b611f18600082611c85565b6001600360008573ffffffffffffffffffffffffffffffffffffffff1673ffffffffffffffffffffffffffffffffffffffff1681526020019081526020016000206000828254611f689190614a6b565b925050819055506001600360008473ffffffffffffffffffffffffffffffffffffffff1673ffffffffffffffffffffffffffffffffffffffff1681526020019081526020016000206000828254611fbf91906149e4565b92505081905550816002600083815260200190815260200160002060006101000a81548173ffffffffffffffffffffffffffffffffffffffff021916908373ffffffffffffffffffffffffffffffffffffffff160217905550808273ffffffffffffffffffffffffffffffffffffffff168473ffffffffffffffffffffffffffffffffffffffff167fddf252ad1be2c89b69c2b068fc378daa952ba7f163c4a11628f55a4df523b3ef60405160405180910390a4505050565b60008073ffffffffffffffffffffffffffffffffffffffff168273ffffffffffffffffffffffffffffffffffffffff1614156120e9576040517f08c379a00000000000000000000000000000000000000000000000000000000081526004016120e0906146ff565b60405180910390fd5b600360008373ffffffffffffffffffffffffffffffffffffffff1673ffffffffffffffffffffffffffffffffffffffff168152602001908152602001600020549050919050565b6121386111be565b612177576040517f08c379a000000000000000000000000000000000000000000000000000000000815260040161216e906144ff565b60405180910390fd5b6000600b60006101000a81548160ff0219169083151502179055507f5db9ee0a495bf2e6ff9c91a7834c1ba4fdd244a5e8aa4e537bd38aeae4b073aa6121bb611c7d565b6040516121c8919061441d565b60405180910390a1565b6104e16010541115612219576040517f08c379a00000000000000000000000000000000000000000000000000000000081526004016122109061461f565b60405180910390fd5b600061222361273c565b905061222f8282612886565b5050565b61223c81612a37565b50565b6000600880549050905090565b6122e6838383604051602401612264939291906144c1565b6040516020818303038152906040527ffcec75e0000000000000000000000000000000000000000000000000000000007bffffffffffffffffffffffffffffffffffffffffffffffffffffffff19166020820180517bffffffffffffffffffffffffffffffffffffffffffffffffffffffff8381831617835250505050612a8a565b505050565b6000600b60019054906101000a900473ffffffffffffffffffffffffffffffffffffffff16905081600b60016101000a81548173ffffffffffffffffffffffffffffffffffffffff021916908373ffffffffffffffffffffffffffffffffffffffff1602179055508173ffffffffffffffffffffffffffffffffffffffff168173ffffffffffffffffffffffffffffffffffffffff167f8be0079c531659141344cd1fd0a4f28419497f9722a3daafe3b4186f6b6457e060405160405180910390a35050565b6123b96111be565b156123f9576040517f08c379a00000000000000000000000000000000000000000000000000000000081526004016123f09061467f565b60405180910390fd5b6001600b60006101000a81548160ff0219169083151502179055507f62e78cea01bee320cd4e420270b5ea74000d11b0c9f74754ebdbfc544b05a25861243d611c7d565b60405161244a919061441d565b60405180910390a1565b61245f848484611e1c565b61246b84848484612ab3565b6124aa576040517f08c379a00000000000000000000000000000000000000000000000000000000081526004016124a19061453f565b60405180910390fd5b50505050565b60606124bb82611c11565b6124fa576040517f08c379a00000000000000000000000000000000000000000000000000000000081526004016124f19061477f565b60405180910390fd5b6000600a6000848152602001908152602001600020805461251a90614b7f565b80601f016020809104026020016040519081016040528092919081815260200182805461254690614b7f565b80156125935780601f1061256857610100808354040283529160200191612593565b820191906000526020600020905b81548152906001019060200180831161257657829003601f168201915b5050505050905060006125a4612c4a565b90506000815114156125ba5781925050506125fd565b6000825111156125ef5780826040516020016125d792919061439a565b604051602081830303815290604052925050506125fd565b6125f884612cdc565b925050505b919050565b60007f80ac58cd000000000000000000000000000000000000000000000000000000007bffffffffffffffffffffffffffffffffffffffffffffffffffffffff1916827bffffffffffffffffffffffffffffffffffffffffffffffffffffffff191614806126cd57507f5b5e139f000000000000000000000000000000000000000000000000000000007bffffffffffffffffffffffffffffffffffffffffffffffffffffffff1916827bffffffffffffffffffffffffffffffffffffffffffffffffffffffff1916145b806126dd57506126dc82612d83565b5b9050919050565b6126ec6111be565b1561272c576040517f08c379a00000000000000000000000000000000000000000000000000000000081526004016127239061467f565b60405180910390fd5b612737838383612ded565b505050565b60008061274d601580549050612f01565b905060158181548110612789577f4e487b7100000000000000000000000000000000000000000000000000000000600052603260045260246000fd5b90600052602060002001549150601560016015805490506127aa9190614a6b565b815481106127e1577f4e487b7100000000000000000000000000000000000000000000000000000000600052603260045260246000fd5b906000526020600020015460158281548110612826577f4e487b7100000000000000000000000000000000000000000000000000000000600052603260045260246000fd5b9060005260206000200181905550601580548061286c577f4e487b7100000000000000000000000000000000000000000000000000000000600052603160045260246000fd5b600190038181906000526020600020016000905590555090565b6104e160105411156128cd576040517f08c379a00000000000000000000000000000000000000000000000000000000081526004016128c4906148bf565b60405180910390fd5b60006016600083815260200190815260200160002080546128ed90614b7f565b80601f016020809104026020016040519081016040528092919081815260200182805461291990614b7f565b80156129665780601f1061293b57610100808354040283529160200191612966565b820191906000526020600020905b81548152906001019060200180831161294957829003601f168201915b505050505090506129778383612f5e565b6129818282612f7c565b6010600081548092919061299490614c0d565b9190505550601460008473ffffffffffffffffffffffffffffffffffffffff1673ffffffffffffffffffffffffffffffffffffffff16815260200190815260200160002060008154809291906129e990614c0d565b9190505550818373ffffffffffffffffffffffffffffffffffffffff167f0f6798a560793a54c3bcfe86a93cde1e73087d944c0ea20544137d412139688560405160405180910390a3505050565b612a4081612ff0565b6000600a60008381526020019081526020016000208054612a6090614b7f565b905014612a8757600a60008281526020019081526020016000206000612a869190613973565b5b50565b60008151905060006a636f6e736f6c652e6c6f679050602083016000808483855afa5050505050565b6000612ad48473ffffffffffffffffffffffffffffffffffffffff16613101565b15612c3d578373ffffffffffffffffffffffffffffffffffffffff1663150b7a02612afd611c7d565b8786866040518563ffffffff1660e01b8152600401612b1f9493929190614438565b602060405180830381600087803b158015612b3957600080fd5b505af1925050508015612b6a57506040513d601f19601f82011682018060405250810190612b679190613d23565b60015b612bed573d8060008114612b9a576040519150601f19603f3d011682016040523d82523d6000602084013e612b9f565b606091505b50600081511415612be5576040517f08c379a0000000000000000000000000000000000000000000000000000000008152600401612bdc9061453f565b60405180910390fd5b805181602001fd5b63150b7a0260e01b7bffffffffffffffffffffffffffffffffffffffffffffffffffffffff1916817bffffffffffffffffffffffffffffffffffffffffffffffffffffffff191614915050612c42565b600190505b949350505050565b606060138054612c5990614b7f565b80601f0160208091040260200160405190810160405280929190818152602001828054612c8590614b7f565b8015612cd25780601f10612ca757610100808354040283529160200191612cd2565b820191906000526020600020905b815481529060010190602001808311612cb557829003601f168201915b5050505050905090565b6060612ce782611c11565b612d26576040517f08c379a0000000000000000000000000000000000000000000000000000000008152600401612d1d9061481f565b60405180910390fd5b6000612d30612c4a565b90506000815111612d505760405180602001604052806000815250612d7b565b80612d5a84613114565b604051602001612d6b92919061439a565b6040516020818303038152906040525b915050919050565b60007f01ffc9a7000000000000000000000000000000000000000000000000000000007bffffffffffffffffffffffffffffffffffffffffffffffffffffffff1916827bffffffffffffffffffffffffffffffffffffffffffffffffffffffff1916149050919050565b612df88383836132c1565b600073ffffffffffffffffffffffffffffffffffffffff168373ffffffffffffffffffffffffffffffffffffffff161415612e3b57612e36816132c6565b612e7a565b8173ffffffffffffffffffffffffffffffffffffffff168373ffffffffffffffffffffffffffffffffffffffff1614612e7957612e78838261330f565b5b5b600073ffffffffffffffffffffffffffffffffffffffff168273ffffffffffffffffffffffffffffffffffffffff161415612ebd57612eb88161347c565b612efc565b8273ffffffffffffffffffffffffffffffffffffffff168273ffffffffffffffffffffffffffffffffffffffff1614612efb57612efa82826135bf565b5b5b505050565b600080601580549050600143612f179190614a6b565b40414433604051602001612f2f9594939291906143be565b6040516020818303038152906040528051906020012060001c90508281612f569190614ca0565b915050919050565b612f7882826040518060200160405280600081525061363e565b5050565b612f8582611c11565b612fc4576040517f08c379a0000000000000000000000000000000000000000000000000000000008152600401612fbb9061473f565b60405180910390fd5b80600a60008481526020019081526020016000209080519060200190612feb9291906138ed565b505050565b6000612ffb826111d5565b9050613009816000846126e4565b613014600083611c85565b6001600360008373ffffffffffffffffffffffffffffffffffffffff1673ffffffffffffffffffffffffffffffffffffffff16815260200190815260200160002060008282546130649190614a6b565b925050819055506002600083815260200190815260200160002060006101000a81549073ffffffffffffffffffffffffffffffffffffffff021916905581600073ffffffffffffffffffffffffffffffffffffffff168273ffffffffffffffffffffffffffffffffffffffff167fddf252ad1be2c89b69c2b068fc378daa952ba7f163c4a11628f55a4df523b3ef60405160405180910390a45050565b600080823b905060008111915050919050565b6060600082141561315c576040518060400160405280600181526020017f300000000000000000000000000000000000000000000000000000000000000081525090506132bc565b600082905060005b6000821461318e57808061317790614c0d565b915050600a826131879190614a3a565b9150613164565b60008167ffffffffffffffff8111156131d0577f4e487b7100000000000000000000000000000000000000000000000000000000600052604160045260246000fd5b6040519080825280601f01601f1916602001820160405280156132025781602001600182028036833780820191505090505b5090505b600085146132b55760018261321b9190614a6b565b9150600a8561322a9190614ca0565b603061323691906149e4565b60f81b818381518110613272577f4e487b7100000000000000000000000000000000000000000000000000000000600052603260045260246000fd5b60200101907effffffffffffffffffffffffffffffffffffffffffffffffffffffffffffff1916908160001a905350600a856132ae9190614a3a565b9450613206565b8093505050505b919050565b505050565b6008805490506009600083815260200190815260200160002081905550600881908060018154018082558091505060019003906000526020600020016000909190919091505550565b6000600161331c84612078565b6133269190614a6b565b905060006007600084815260200190815260200160002054905081811461340b576000600660008673ffffffffffffffffffffffffffffffffffffffff1673ffffffffffffffffffffffffffffffffffffffff168152602001908152602001600020600084815260200190815260200160002054905080600660008773ffffffffffffffffffffffffffffffffffffffff1673ffffffffffffffffffffffffffffffffffffffff168152602001908152602001600020600084815260200190815260200160002081905550816007600083815260200190815260200160002081905550505b6007600084815260200190815260200160002060009055600660008573ffffffffffffffffffffffffffffffffffffffff1673ffffffffffffffffffffffffffffffffffffffff16815260200190815260200160002060008381526020019081526020016000206000905550505050565b600060016008805490506134909190614a6b565b90506000600960008481526020019081526020016000205490506000600883815481106134e6577f4e487b7100000000000000000000000000000000000000000000000000000000600052603260045260246000fd5b90600052602060002001549050806008838154811061352e577f4e487b7100000000000000000000000000000000000000000000000000000000600052603260045260246000fd5b9060005260206000200181905550816009600083815260200190815260200160002081905550600960008581526020019081526020016000206000905560088054806135a3577f4e487b7100000000000000000000000000000000000000000000000000000000600052603160045260246000fd5b6001900381819060005260206000200160009055905550505050565b60006135ca83612078565b905081600660008573ffffffffffffffffffffffffffffffffffffffff1673ffffffffffffffffffffffffffffffffffffffff168152602001908152602001600020600083815260200190815260200160002081905550806007600084815260200190815260200160002081905550505050565b6136488383613699565b6136556000848484612ab3565b613694576040517f08c379a000000000000000000000000000000000000000000000000000000000815260040161368b9061453f565b60405180910390fd5b505050565b600073ffffffffffffffffffffffffffffffffffffffff168273ffffffffffffffffffffffffffffffffffffffff161415613709576040517f08c379a00000000000000000000000000000000000000000000000000000000081526004016137009061475f565b60405180910390fd5b61371281611c11565b15613752576040517f08c379a0000000000000000000000000000000000000000000000000000000008152600401613749906145bf565b60405180910390fd5b61375e600083836126e4565b6001600360008473ffffffffffffffffffffffffffffffffffffffff1673ffffffffffffffffffffffffffffffffffffffff16815260200190815260200160002060008282546137ae91906149e4565b92505081905550816002600083815260200190815260200160002060006101000a81548173ffffffffffffffffffffffffffffffffffffffff021916908373ffffffffffffffffffffffffffffffffffffffff160217905550808273ffffffffffffffffffffffffffffffffffffffff16600073ffffffffffffffffffffffffffffffffffffffff167fddf252ad1be2c89b69c2b068fc378daa952ba7f163c4a11628f55a4df523b3ef60405160405180910390a45050565b82805461387390614b7f565b90600052602060002090601f01602090048101928261389557600085556138dc565b82601f106138ae57803560ff19168380011785556138dc565b828001600101855582156138dc579182015b828111156138db5782358255916020019190600101906138c0565b5b5090506138e991906139b3565b5090565b8280546138f990614b7f565b90600052602060002090601f01602090048101928261391b5760008555613962565b82601f1061393457805160ff1916838001178555613962565b82800160010185558215613962579182015b82811115613961578251825591602001919060010190613946565b5b50905061396f91906139b3565b5090565b50805461397f90614b7f565b6000825580601f1061399157506139b0565b601f0160209004906000526020600020908101906139af91906139b3565b5b50565b5b808211156139cc5760008160009055506001016139b4565b5090565b60006139e36139de8461493f565b61491a565b9050828152602081018484840111156139fb57600080fd5b613a06848285614b3d565b509392505050565b6000613a21613a1c84614970565b61491a565b905082815260208101848484011115613a3957600080fd5b613a44848285614b3d565b509392505050565b600081359050613a5b8161559d565b92915050565b600081359050613a70816155b4565b92915050565b600081359050613a85816155cb565b92915050565b600081519050613a9a816155cb565b92915050565b600082601f830112613ab157600080fd5b8135613ac18482602086016139d0565b91505092915050565b60008083601f840112613adc57600080fd5b8235905067ffffffffffffffff811115613af557600080fd5b602083019150836001820283011115613b0d57600080fd5b9250929050565b600082601f830112613b2557600080fd5b8135613b35848260208601613a0e565b91505092915050565b600081359050613b4d816155e2565b92915050565b600060208284031215613b6557600080fd5b6000613b7384828501613a4c565b91505092915050565b60008060408385031215613b8f57600080fd5b6000613b9d85828601613a4c565b9250506020613bae85828601613a4c565b9150509250929050565b600080600060608486031215613bcd57600080fd5b6000613bdb86828701613a4c565b9350506020613bec86828701613a4c565b9250506040613bfd86828701613b3e565b9150509250925092565b60008060008060808587031215613c1d57600080fd5b6000613c2b87828801613a4c565b9450506020613c3c87828801613a4c565b9350506040613c4d87828801613b3e565b925050606085013567ffffffffffffffff811115613c6a57600080fd5b613c7687828801613aa0565b91505092959194509250565b60008060408385031215613c9557600080fd5b6000613ca385828601613a4c565b9250506020613cb485828601613a61565b9150509250929050565b60008060408385031215613cd157600080fd5b6000613cdf85828601613a4c565b9250506020613cf085828601613b3e565b9150509250929050565b600060208284031215613d0c57600080fd5b6000613d1a84828501613a76565b91505092915050565b600060208284031215613d3557600080fd5b6000613d4384828501613a8b565b91505092915050565b600060208284031215613d5e57600080fd5b600082013567ffffffffffffffff811115613d7857600080fd5b613d8484828501613b14565b91505092915050565b600060208284031215613d9f57600080fd5b6000613dad84828501613b3e565b91505092915050565b600080600060408486031215613dcb57600080fd5b6000613dd986828701613b3e565b935050602084013567ffffffffffffffff811115613df657600080fd5b613e0286828701613aca565b92509250509250925092565b613e1f613e1a82614ab1565b614c68565b82525050565b613e2e81614a9f565b82525050565b613e45613e4082614a9f565b614c56565b82525050565b613e5481614ac3565b82525050565b613e6b613e6682614acf565b614c7a565b82525050565b6000613e7c826149a1565b613e8681856149b7565b9350613e96818560208601614b4c565b613e9f81614d8d565b840191505092915050565b6000613eb5826149ac565b613ebf81856149c8565b9350613ecf818560208601614b4c565b613ed881614d8d565b840191505092915050565b6000613eee826149ac565b613ef881856149d9565b9350613f08818560208601614b4c565b80840191505092915050565b6000613f216014836149c8565b9150613f2c82614dab565b602082019050919050565b6000613f44602b836149c8565b9150613f4f82614dd4565b604082019050919050565b6000613f676032836149c8565b9150613f7282614e23565b604082019050919050565b6000613f8a6030836149c8565b9150613f9582614e72565b604082019050919050565b6000613fad6026836149c8565b9150613fb882614ec1565b604082019050919050565b6000613fd0601d836149c8565b9150613fdb82614f10565b602082019050919050565b6000613ff3601c836149c8565b9150613ffe82614f39565b602082019050919050565b60006140166024836149c8565b915061402182614f62565b604082019050919050565b60006140396019836149c8565b915061404482614fb1565b602082019050919050565b600061405c601c836149c8565b915061406782614fda565b602082019050919050565b600061407f602c836149c8565b915061408a82615003565b604082019050919050565b60006140a26025836149c8565b91506140ad82615052565b604082019050919050565b60006140c56010836149c8565b91506140d0826150a1565b602082019050919050565b60006140e86038836149c8565b91506140f3826150ca565b604082019050919050565b600061410b601c836149c8565b915061411682615119565b602082019050919050565b600061412e6011836149c8565b915061413982615142565b602082019050919050565b6000614151602a836149c8565b915061415c8261516b565b604082019050919050565b60006141746029836149c8565b915061417f826151ba565b604082019050919050565b6000614197602e836149c8565b91506141a282615209565b604082019050919050565b60006141ba6020836149c8565b91506141c582615258565b602082019050919050565b60006141dd6031836149c8565b91506141e882615281565b604082019050919050565b6000614200602c836149c8565b915061420b826152d0565b604082019050919050565b6000614223600d836149c8565b915061422e8261531f565b602082019050919050565b60006142466020836149c8565b915061425182615348565b602082019050919050565b60006142696029836149c8565b915061427482615371565b604082019050919050565b600061428c602f836149c8565b9150614297826153c0565b604082019050919050565b60006142af6021836149c8565b91506142ba8261540f565b604082019050919050565b60006142d26031836149c8565b91506142dd8261545e565b604082019050919050565b60006142f5602c836149c8565b9150614300826154ad565b604082019050919050565b6000614318601d836149c8565b9150614323826154fc565b602082019050919050565b600061433b601c836149c8565b915061434682615525565b602082019050919050565b600061435e6030836149c8565b91506143698261554e565b604082019050919050565b61437d81614b33565b82525050565b61439461438f82614b33565b614c96565b82525050565b60006143a68285613ee3565b91506143b28284613ee3565b91508190509392505050565b60006143ca8288614383565b6020820191506143da8287613e5a565b6020820191506143ea8286613e0e565b6014820191506143fa8285614383565b60208201915061440a8284613e34565b6014820191508190509695505050505050565b60006020820190506144326000830184613e25565b92915050565b600060808201905061444d6000830187613e25565b61445a6020830186613e25565b6144676040830185614374565b81810360608301526144798184613e71565b905095945050505050565b60006020820190506144996000830184613e4b565b92915050565b600060208201905081810360008301526144b98184613eaa565b905092915050565b600060608201905081810360008301526144db8186613eaa565b90506144ea6020830185613e25565b6144f76040830184613e25565b949350505050565b6000602082019050818103600083015261451881613f14565b9050919050565b6000602082019050818103600083015261453881613f37565b9050919050565b6000602082019050818103600083015261455881613f5a565b9050919050565b6000602082019050818103600083015261457881613f7d565b9050919050565b6000602082019050818103600083015261459881613fa0565b9050919050565b600060208201905081810360008301526145b881613fc3565b9050919050565b600060208201905081810360008301526145d881613fe6565b9050919050565b600060208201905081810360008301526145f881614009565b9050919050565b600060208201905081810360008301526146188161402c565b9050919050565b600060208201905081810360008301526146388161404f565b9050919050565b6000602082019050818103600083015261465881614072565b9050919050565b6000602082019050818103600083015261467881614095565b9050919050565b60006020820190508181036000830152614698816140b8565b9050919050565b600060208201905081810360008301526146b8816140db565b9050919050565b600060208201905081810360008301526146d8816140fe565b9050919050565b600060208201905081810360008301526146f881614121565b9050919050565b6000602082019050818103600083015261471881614144565b9050919050565b6000602082019050818103600083015261473881614167565b9050919050565b600060208201905081810360008301526147588161418a565b9050919050565b60006020820190508181036000830152614778816141ad565b9050919050565b60006020820190508181036000830152614798816141d0565b9050919050565b600060208201905081810360008301526147b8816141f3565b9050919050565b600060208201905081810360008301526147d881614216565b9050919050565b600060208201905081810360008301526147f881614239565b9050919050565b600060208201905081810360008301526148188161425c565b9050919050565b600060208201905081810360008301526148388161427f565b9050919050565b60006020820190508181036000830152614858816142a2565b9050919050565b60006020820190508181036000830152614878816142c5565b9050919050565b60006020820190508181036000830152614898816142e8565b9050919050565b600060208201905081810360008301526148b88161430b565b9050919050565b600060208201905081810360008301526148d88161432e565b9050919050565b600060208201905081810360008301526148f881614351565b9050919050565b60006020820190506149146000830184614374565b92915050565b6000614924614935565b90506149308282614bb1565b919050565b6000604051905090565b600067ffffffffffffffff82111561495a57614959614d5e565b5b61496382614d8d565b9050602081019050919050565b600067ffffffffffffffff82111561498b5761498a614d5e565b5b61499482614d8d565b9050602081019050919050565b600081519050919050565b600081519050919050565b600082825260208201905092915050565b600082825260208201905092915050565b600081905092915050565b60006149ef82614b33565b91506149fa83614b33565b9250827fffffffffffffffffffffffffffffffffffffffffffffffffffffffffffffffff03821115614a2f57614a2e614cd1565b5b828201905092915050565b6000614a4582614b33565b9150614a5083614b33565b925082614a6057614a5f614d00565b5b828204905092915050565b6000614a7682614b33565b9150614a8183614b33565b925082821015614a9457614a93614cd1565b5b828203905092915050565b6000614aaa82614b13565b9050919050565b6000614abc82614b13565b9050919050565b60008115159050919050565b6000819050919050565b60007fffffffff0000000000000000000000000000000000000000000000000000000082169050919050565b600061ffff82169050919050565b600073ffffffffffffffffffffffffffffffffffffffff82169050919050565b6000819050919050565b82818337600083830152505050565b60005b83811015614b6a578082015181840152602081019050614b4f565b83811115614b79576000848401525b50505050565b60006002820490506001821680614b9757607f821691505b60208210811415614bab57614baa614d2f565b5b50919050565b614bba82614d8d565b810181811067ffffffffffffffff82111715614bd957614bd8614d5e565b5b80604052505050565b6000614bed82614b05565b915061ffff821415614c0257614c01614cd1565b5b600182019050919050565b6000614c1882614b33565b91507fffffffffffffffffffffffffffffffffffffffffffffffffffffffffffffffff821415614c4b57614c4a614cd1565b5b600182019050919050565b6000614c6182614c84565b9050919050565b6000614c7382614c84565b9050919050565b6000819050919050565b6000614c8f82614d9e565b9050919050565b6000819050919050565b6000614cab82614b33565b9150614cb683614b33565b925082614cc657614cc5614d00565b5b828206905092915050565b7f4e487b7100000000000000000000000000000000000000000000000000000000600052601160045260246000fd5b7f4e487b7100000000000000000000000000000000000000000000000000000000600052601260045260246000fd5b7f4e487b7100000000000000000000000000000000000000000000000000000000600052602260045260246000fd5b7f4e487b7100000000000000000000000000000000000000000000000000000000600052604160045260246000fd5b6000601f19601f8301169050919050565b60008160601b9050919050565b7f5061757361626c653a206e6f7420706175736564000000000000000000000000600082015250565b7f455243373231456e756d657261626c653a206f776e657220696e646578206f7560008201527f74206f6620626f756e6473000000000000000000000000000000000000000000602082015250565b7f4552433732313a207472616e7366657220746f206e6f6e20455243373231526560008201527f63656976657220696d706c656d656e7465720000000000000000000000000000602082015250565b7f5468652063616c6c65722063616e206f6e6c792062652061207573657220616e60008201527f64206e6f74206120636f6e747261637400000000000000000000000000000000602082015250565b7f4f776e61626c653a206e6577206f776e657220697320746865207a65726f206160008201527f6464726573730000000000000000000000000000000000000000000000000000602082015250565b7f596f752063616e6e6f7420636c61696d206d6f726520706f7373756d73000000600082015250565b7f4552433732313a20746f6b656e20616c7265616479206d696e74656400000000600082015250565b7f4552433732313a207472616e7366657220746f20746865207a65726f2061646460008201527f7265737300000000000000000000000000000000000000000000000000000000602082015250565b7f4552433732313a20617070726f766520746f2063616c6c657200000000000000600082015250565b7f416c6c20706f7373756d732068617665206265656e206d696e74656400000000600082015250565b7f4552433732313a206f70657261746f7220717565727920666f72206e6f6e657860008201527f697374656e7420746f6b656e0000000000000000000000000000000000000000602082015250565b7f596f752063616e206f6e6c79207072656d696e742074686520506f7373756d7360008201527f206f6e6365000000000000000000000000000000000000000000000000000000602082015250565b7f5061757361626c653a2070617573656400000000000000000000000000000000600082015250565b7f4552433732313a20617070726f76652063616c6c6572206973206e6f74206f7760008201527f6e6572206e6f7220617070726f76656420666f7220616c6c0000000000000000602082015250565b7f4e6f20506f7373756d206c65667420746f20626520636c61696d656400000000600082015250565b7f596f752061726520746f6f206561726c79000000000000000000000000000000600082015250565b7f4552433732313a2062616c616e636520717565727920666f7220746865207a6560008201527f726f206164647265737300000000000000000000000000000000000000000000602082015250565b7f4552433732313a206f776e657220717565727920666f72206e6f6e657869737460008201527f656e7420746f6b656e0000000000000000000000000000000000000000000000602082015250565b7f45524337323155524953746f726167653a2055524920736574206f66206e6f6e60008201527f6578697374656e7420746f6b656e000000000000000000000000000000000000602082015250565b7f4552433732313a206d696e7420746f20746865207a65726f2061646472657373600082015250565b7f45524337323155524953746f726167653a2055524920717565727920666f722060008201527f6e6f6e6578697374656e7420746f6b656e000000000000000000000000000000602082015250565b7f4552433732313a20617070726f76656420717565727920666f72206e6f6e657860008201527f697374656e7420746f6b656e0000000000000000000000000000000000000000602082015250565b7f4d61782032372070657220747800000000000000000000000000000000000000600082015250565b7f4f776e61626c653a2063616c6c6572206973206e6f7420746865206f776e6572600082015250565b7f4552433732313a207472616e73666572206f6620746f6b656e2074686174206960008201527f73206e6f74206f776e0000000000000000000000000000000000000000000000602082015250565b7f4552433732314d657461646174613a2055524920717565727920666f72206e6f60008201527f6e6578697374656e7420746f6b656e0000000000000000000000000000000000602082015250565b7f4552433732313a20617070726f76616c20746f2063757272656e74206f776e6560008201527f7200000000000000000000000000000000000000000000000000000000000000602082015250565b7f4552433732313a207472616e736665722063616c6c6572206973206e6f74206f60008201527f776e6572206e6f7220617070726f766564000000000000000000000000000000602082015250565b7f455243373231456e756d657261626c653a20676c6f62616c20696e646578206f60008201527f7574206f6620626f756e64730000000000000000000000000000000000000000602082015250565b7f4e6f20506f7373756d73206c65667420746f20626520636c61696d6564000000600082015250565b7f616c6c20506f7373756d732068617665206265656e206d696e74656400000000600082015250565b7f4552433732314275726e61626c653a2063616c6c6572206973206e6f74206f7760008201527f6e6572206e6f7220617070726f76656400000000000000000000000000000000602082015250565b6155a681614a9f565b81146155b157600080fd5b50565b6155bd81614ac3565b81146155c857600080fd5b50565b6155d481614ad9565b81146155df57600080fd5b50565b6155eb81614b33565b81146155f657600080fd5b5056fea264697066735822122084ff2105eaf784bfe30d9f7dc9b468b1533f8728deca24ea6e2984411e420ac064736f6c6343000804003368747470733a2f2f697066732e696f2f697066732f516d53526b6d45444b57556548693546694e705155424163437137724b696e686635506275385a505a4e6b5038722f",
  "linkReferences": {},
  "deployedLinkReferences": {}
}