{
  "_format": "hh-sol-artifact-1",
  "contractName": "TrashPossums",
  "sourceName": "contracts/TrashPossums.sol",
  "abi": [
    {
      "inputs": [
        {
          "internalType": "uint256",
          "name": "_possumPrice",
          "type": "uint256"
        },
        {
          "internalType": "uint256",
          "name": "_startMintDate",
          "type": "uint256"
        },
        {
          "internalType": "string",
          "name": "_baseUri",
          "type": "string"
        },
        {
          "internalType": "address",
          "name": "_VRFAddress",
          "type": "address"
        },
        {
          "internalType": "address",
          "name": "_linkToken",
          "type": "address"
        },
        {
          "internalType": "bytes32",
          "name": "_keyHash",
          "type": "bytes32"
        },
        {
          "internalType": "uint256",
          "name": "_fee",
          "type": "uint256"
        }
      ],
      "stateMutability": "nonpayable",
      "type": "constructor"
    },
    {
      "anonymous": false,
      "inputs": [
        {
          "indexed": true,
          "internalType": "address",
          "name": "owner",
          "type": "address"
        },
        {
          "indexed": true,
          "internalType": "address",
          "name": "approved",
          "type": "address"
        },
        {
          "indexed": true,
          "internalType": "uint256",
          "name": "tokenId",
          "type": "uint256"
        }
      ],
      "name": "Approval",
      "type": "event"
    },
    {
      "anonymous": false,
      "inputs": [
        {
          "indexed": true,
          "internalType": "address",
          "name": "owner",
          "type": "address"
        },
        {
          "indexed": true,
          "internalType": "address",
          "name": "operator",
          "type": "address"
        },
        {
          "indexed": false,
          "internalType": "bool",
          "name": "approved",
          "type": "bool"
        }
      ],
      "name": "ApprovalForAll",
      "type": "event"
    },
    {
      "anonymous": false,
      "inputs": [
        {
          "indexed": true,
          "internalType": "address",
          "name": "mintedTo",
          "type": "address"
        },
        {
          "indexed": true,
          "internalType": "uint256",
          "name": "tokenId",
          "type": "uint256"
        }
      ],
      "name": "Mint",
      "type": "event"
    },
    {
      "anonymous": false,
      "inputs": [
        {
          "indexed": true,
          "internalType": "address",
          "name": "previousOwner",
          "type": "address"
        },
        {
          "indexed": true,
          "internalType": "address",
          "name": "newOwner",
          "type": "address"
        }
      ],
      "name": "OwnershipTransferred",
      "type": "event"
    },
    {
      "anonymous": false,
      "inputs": [
        {
          "indexed": false,
          "internalType": "address",
          "name": "account",
          "type": "address"
        }
      ],
      "name": "Paused",
      "type": "event"
    },
    {
      "anonymous": false,
      "inputs": [
        {
          "indexed": true,
          "internalType": "address",
          "name": "from",
          "type": "address"
        },
        {
          "indexed": true,
          "internalType": "address",
          "name": "to",
          "type": "address"
        },
        {
          "indexed": true,
          "internalType": "uint256",
          "name": "tokenId",
          "type": "uint256"
        }
      ],
      "name": "Transfer",
      "type": "event"
    },
    {
      "anonymous": false,
      "inputs": [
        {
          "indexed": false,
          "internalType": "address",
          "name": "account",
          "type": "address"
        }
      ],
      "name": "Unpaused",
      "type": "event"
    },
    {
      "inputs": [
        {
          "internalType": "address",
          "name": "to",
          "type": "address"
        },
        {
          "internalType": "uint256",
          "name": "tokenId",
          "type": "uint256"
        }
      ],
      "name": "approve",
      "outputs": [],
      "stateMutability": "nonpayable",
      "type": "function"
    },
    {
      "inputs": [
        {
          "internalType": "address",
          "name": "addr1",
          "type": "address"
        }
      ],
      "name": "balanceOf",
      "outputs": [
        {
          "internalType": "uint256",
          "name": "",
          "type": "uint256"
        }
      ],
      "stateMutability": "view",
      "type": "function"
    },
    {
      "inputs": [],
      "name": "baseTokenURI",
      "outputs": [
        {
          "internalType": "string",
          "name": "",
          "type": "string"
        }
      ],
      "stateMutability": "view",
      "type": "function"
    },
    {
      "inputs": [
        {
          "internalType": "uint256",
          "name": "tokenId",
          "type": "uint256"
        }
      ],
      "name": "getApproved",
      "outputs": [
        {
          "internalType": "address",
          "name": "",
          "type": "address"
        }
      ],
      "stateMutability": "view",
      "type": "function"
    },
    {
      "inputs": [],
      "name": "getMintingStartDate",
      "outputs": [
        {
          "internalType": "uint256",
          "name": "",
          "type": "uint256"
        }
      ],
      "stateMutability": "view",
      "type": "function"
    },
    {
      "inputs": [],
      "name": "getNumberOfAvailablePossums",
      "outputs": [
        {
          "internalType": "uint256",
          "name": "",
          "type": "uint256"
        }
      ],
      "stateMutability": "view",
      "type": "function"
    },
    {
      "inputs": [],
      "name": "getpossumPrice",
      "outputs": [
        {
          "internalType": "uint256",
          "name": "",
          "type": "uint256"
        }
      ],
      "stateMutability": "view",
      "type": "function"
    },
    {
      "inputs": [
        {
          "internalType": "address",
          "name": "owner",
          "type": "address"
        },
        {
          "internalType": "address",
          "name": "operator",
          "type": "address"
        }
      ],
      "name": "isApprovedForAll",
      "outputs": [
        {
          "internalType": "bool",
          "name": "",
          "type": "bool"
        }
      ],
      "stateMutability": "view",
      "type": "function"
    },
    {
      "inputs": [],
      "name": "maxPossumsPerWallet",
      "outputs": [
        {
          "internalType": "uint256",
          "name": "",
          "type": "uint256"
        }
      ],
      "stateMutability": "view",
      "type": "function"
    },
    {
      "inputs": [
        {
          "internalType": "uint256",
          "name": "amount",
          "type": "uint256"
        }
      ],
      "name": "mintPossums",
      "outputs": [],
      "stateMutability": "payable",
      "type": "function"
    },
    {
      "inputs": [],
      "name": "name",
      "outputs": [
        {
          "internalType": "string",
          "name": "",
          "type": "string"
        }
      ],
      "stateMutability": "view",
      "type": "function"
    },
    {
      "inputs": [],
      "name": "owner",
      "outputs": [
        {
          "internalType": "address",
          "name": "",
          "type": "address"
        }
      ],
      "stateMutability": "view",
      "type": "function"
    },
    {
      "inputs": [
        {
          "internalType": "uint256",
          "name": "tokenId",
          "type": "uint256"
        }
      ],
      "name": "ownerOf",
      "outputs": [
        {
          "internalType": "address",
          "name": "",
          "type": "address"
        }
      ],
      "stateMutability": "view",
      "type": "function"
    },
    {
      "inputs": [],
      "name": "pause",
      "outputs": [],
      "stateMutability": "nonpayable",
      "type": "function"
    },
    {
      "inputs": [],
      "name": "paused",
      "outputs": [
        {
          "internalType": "bool",
          "name": "",
          "type": "bool"
        }
      ],
      "stateMutability": "view",
      "type": "function"
    },
    {
      "inputs": [],
      "name": "premintPossums",
      "outputs": [],
      "stateMutability": "nonpayable",
      "type": "function"
    },
    {
      "inputs": [
        {
          "internalType": "bytes32",
          "name": "requestId",
          "type": "bytes32"
        },
        {
          "internalType": "uint256",
          "name": "randomness",
          "type": "uint256"
        }
      ],
      "name": "rawFulfillRandomness",
      "outputs": [],
      "stateMutability": "nonpayable",
      "type": "function"
    },
    {
      "inputs": [],
      "name": "renounceOwnership",
      "outputs": [],
      "stateMutability": "nonpayable",
      "type": "function"
    },
    {
      "inputs": [
        {
          "internalType": "address",
          "name": "from",
          "type": "address"
        },
        {
          "internalType": "address",
          "name": "to",
          "type": "address"
        },
        {
          "internalType": "uint256",
          "name": "tokenId",
          "type": "uint256"
        }
      ],
      "name": "safeTransferFrom",
      "outputs": [],
      "stateMutability": "nonpayable",
      "type": "function"
    },
    {
      "inputs": [
        {
          "internalType": "address",
          "name": "from",
          "type": "address"
        },
        {
          "internalType": "address",
          "name": "to",
          "type": "address"
        },
        {
          "internalType": "uint256",
          "name": "tokenId",
          "type": "uint256"
        },
        {
          "internalType": "bytes",
          "name": "_data",
          "type": "bytes"
        }
      ],
      "name": "safeTransferFrom",
      "outputs": [],
      "stateMutability": "nonpayable",
      "type": "function"
    },
    {
      "inputs": [
        {
          "internalType": "address",
          "name": "operator",
          "type": "address"
        },
        {
          "internalType": "bool",
          "name": "approved",
          "type": "bool"
        }
      ],
      "name": "setApprovalForAll",
      "outputs": [],
      "stateMutability": "nonpayable",
      "type": "function"
    },
    {
      "inputs": [
        {
          "internalType": "string",
          "name": "_uri",
          "type": "string"
        }
      ],
      "name": "setBaseTokenURI",
      "outputs": [],
      "stateMutability": "nonpayable",
      "type": "function"
    },
    {
      "inputs": [
        {
          "internalType": "uint256",
          "name": "_possumPrice",
          "type": "uint256"
        }
      ],
      "name": "setPossumPrice",
      "outputs": [],
      "stateMutability": "nonpayable",
      "type": "function"
    },
    {
      "inputs": [
        {
          "internalType": "uint256",
          "name": "tokenId",
          "type": "uint256"
        },
        {
          "internalType": "string",
          "name": "_ipfsUri",
          "type": "string"
        }
      ],
      "name": "setPossumUri",
      "outputs": [],
      "stateMutability": "nonpayable",
      "type": "function"
    },
    {
      "inputs": [
        {
          "internalType": "bytes4",
          "name": "interfaceId",
          "type": "bytes4"
        }
      ],
      "name": "supportsInterface",
      "outputs": [
        {
          "internalType": "bool",
          "name": "",
          "type": "bool"
        }
      ],
      "stateMutability": "view",
      "type": "function"
    },
    {
      "inputs": [],
      "name": "symbol",
      "outputs": [
        {
          "internalType": "string",
          "name": "",
          "type": "string"
        }
      ],
      "stateMutability": "view",
      "type": "function"
    },
    {
      "inputs": [
        {
          "internalType": "uint256",
          "name": "index",
          "type": "uint256"
        }
      ],
      "name": "tokenByIndex",
      "outputs": [
        {
          "internalType": "uint256",
          "name": "",
          "type": "uint256"
        }
      ],
      "stateMutability": "view",
      "type": "function"
    },
    {
      "inputs": [
        {
          "internalType": "address",
          "name": "owner",
          "type": "address"
        },
        {
          "internalType": "uint256",
          "name": "index",
          "type": "uint256"
        }
      ],
      "name": "tokenOfOwnerByIndex",
      "outputs": [
        {
          "internalType": "uint256",
          "name": "",
          "type": "uint256"
        }
      ],
      "stateMutability": "view",
      "type": "function"
    },
    {
      "inputs": [
        {
          "internalType": "uint256",
          "name": "tokenId",
          "type": "uint256"
        }
      ],
      "name": "tokenURI",
      "outputs": [
        {
          "internalType": "string",
          "name": "",
          "type": "string"
        }
      ],
      "stateMutability": "view",
      "type": "function"
    },
    {
      "inputs": [],
      "name": "totalPossums",
      "outputs": [
        {
          "internalType": "uint256",
          "name": "",
          "type": "uint256"
        }
      ],
      "stateMutability": "view",
      "type": "function"
    },
    {
      "inputs": [],
      "name": "totalSupply",
      "outputs": [
        {
          "internalType": "uint256",
          "name": "",
          "type": "uint256"
        }
      ],
      "stateMutability": "view",
      "type": "function"
    },
    {
      "inputs": [
        {
          "internalType": "address",
          "name": "from",
          "type": "address"
        },
        {
          "internalType": "address",
          "name": "to",
          "type": "address"
        },
        {
          "internalType": "uint256",
          "name": "tokenId",
          "type": "uint256"
        }
      ],
      "name": "transferFrom",
      "outputs": [],
      "stateMutability": "nonpayable",
      "type": "function"
    },
    {
      "inputs": [
        {
          "internalType": "address",
          "name": "newOwner",
          "type": "address"
        }
      ],
      "name": "transferOwnership",
      "outputs": [],
      "stateMutability": "nonpayable",
      "type": "function"
    },
    {
      "inputs": [],
      "name": "unpause",
      "outputs": [],
      "stateMutability": "nonpayable",
      "type": "function"
    },
    {
      "inputs": [],
      "name": "withdraw",
      "outputs": [],
      "stateMutability": "nonpayable",
      "type": "function"
    },
    {
      "stateMutability": "payable",
      "type": "receive"
    }
  ],
  "bytecode": "0x61271060c08181526204e2e06040529060e06204e200803683375050815162000030926015925060200190620001ac565b503480156200003e57600080fd5b50604051620036eb380380620036eb8339810160408190526200006191620002ac565b604080518082018252600d81526c547261736820506f7373756d7360981b60208083019182528351808501909452600584526454504f535360d81b90840152815187938793929091620000b791600091620001fc565b508051620000cd906001906020840190620001fc565b5050600b805460ff1916905550620000e53362000152565b6001600160601b0319606092831b811660a052911b16608052600e879055600d86905584516200011d906011906020880190620001fc565b5060129190915560135550601980546001600160a01b0319166001600160a01b03929092169190911790555062000425915050565b600b80546001600160a01b03838116610100818102610100600160a81b031985161790945560405193909204169182907f8be0079c531659141344cd1fd0a4f28419497f9722a3daafe3b4186f6b6457e090600090a35050565b828054828255906000526020600020908101928215620001ea579160200282015b82811115620001ea578251825591602001919060010190620001cd565b50620001f892915062000278565b5090565b8280546200020a90620003d2565b90600052602060002090601f0160209004810192826200022e5760008555620001ea565b82601f106200024957805160ff1916838001178555620001ea565b82800160010185558215620001ea5791820182811115620001ea578251825591602001919060010190620001cd565b5b80821115620001f8576000815560010162000279565b80516001600160a01b0381168114620002a757600080fd5b919050565b600080600080600080600060e0888a031215620002c7578283fd5b87516020808a015160408b01519299509750906001600160401b0380821115620002ef578586fd5b818b0191508b601f83011262000303578586fd5b8151818111156200031857620003186200040f565b604051601f8201601f19908116603f011681019083821181831017156200034357620003436200040f565b816040528281528e868487010111156200035b578889fd5b8893505b828410156200037e57848401860151818501870152928501926200035f565b828411156200038f57888684830101525b809a50505050505050620003a6606089016200028f565b9350620003b6608089016200028f565b925060a0880151915060c0880151905092959891949750929550565b600181811c90821680620003e757607f821691505b602082108114156200040957634e487b7160e01b600052602260045260246000fd5b50919050565b634e487b7160e01b600052604160045260246000fd5b60805160601c60a05160601c61328c6200045f60003960008181610fe3015261251b0152600081816120eb01526124ec015261328c6000f3fe6080604052600436106102085760003560e01c80636710993811610118578063b59bb11e116100a0578063dca772841161006f578063dca7728414610590578063e985e9c5146105b0578063ead17506146105f9578063f2fde38b1461060e578063f9f346f51461062e57600080fd5b8063b59bb11e14610526578063b88d4fde1461053b578063c87b56dd1461055b578063d547cfb71461057b57600080fd5b80638456cb59116100e75780638456cb59146104995780638da5cb5b146104ae57806394985ddd146104d157806395d89b41146104f1578063a22cb4651461050657600080fd5b8063671099381461042657806370a0823114610439578063715018a61461046f57806384511aff1461048457600080fd5b80633ccfd60b1161019b5780634639dba31161016a5780634639dba3146103a35780634f6ccce7146103b85780635b46a8f2146103d85780635c975abb146103ee5780636352211e1461040657600080fd5b80633ccfd60b146103445780633f4ba83a14610359578063416c585d1461036e57806342842e0e1461038357600080fd5b806318160ddd116101d757806318160ddd146102c557806323b872dd146102e45780632f745c591461030457806330176e131461032457600080fd5b806301ffc9a71461021457806306fdde0314610249578063081812fc1461026b578063095ea7b3146102a357600080fd5b3661020f57005b600080fd5b34801561022057600080fd5b5061023461022f366004612dbd565b61064e565b60405190151581526020015b60405180910390f35b34801561025557600080fd5b5061025e61065f565b6040516102409190612faa565b34801561027757600080fd5b5061028b610286366004612e3b565b6106f1565b6040516001600160a01b039091168152602001610240565b3480156102af57600080fd5b506102c36102be366004612d57565b61077e565b005b3480156102d157600080fd5b50600f545b604051908152602001610240565b3480156102f057600080fd5b506102c36102ff366004612c6d565b610894565b34801561031057600080fd5b506102d661031f366004612d57565b6108c5565b34801561033057600080fd5b506102c361033f366004612df5565b61095b565b34801561035057600080fd5b506102c36109a2565b34801561036557600080fd5b506102c3610a01565b34801561037a57600080fd5b506102c3610a3b565b34801561038f57600080fd5b506102c361039e366004612c6d565b610be2565b3480156103af57600080fd5b50600e546102d6565b3480156103c457600080fd5b506102d66103d3366004612e3b565b610bfd565b3480156103e457600080fd5b506102d661271081565b3480156103fa57600080fd5b50600b5460ff16610234565b34801561041257600080fd5b5061028b610421366004612e3b565b610c9e565b6102c3610434366004612e3b565b610d15565b34801561044557600080fd5b506102d6610454366004612c21565b6001600160a01b031660009081526014602052604090205490565b34801561047b57600080fd5b506102c3610f66565b34801561049057600080fd5b506102d6603681565b3480156104a557600080fd5b506102c3610fa0565b3480156104ba57600080fd5b50600b5461010090046001600160a01b031661028b565b3480156104dd57600080fd5b506102c36104ec366004612d9c565b610fd8565b3480156104fd57600080fd5b5061025e61105a565b34801561051257600080fd5b506102c3610521366004612d21565b611069565b34801561053257600080fd5b506015546102d6565b34801561054757600080fd5b506102c3610556366004612ca8565b611074565b34801561056757600080fd5b5061025e610576366004612e3b565b6110ac565b34801561058757600080fd5b5061025e6110b7565b34801561059c57600080fd5b506102c36105ab366004612e3b565b6110c6565b3480156105bc57600080fd5b506102346105cb366004612c3b565b6001600160a01b03918216600090815260056020908152604080832093909416825291909152205460ff1690565b34801561060557600080fd5b50600d546102d6565b34801561061a57600080fd5b506102c3610629366004612c21565b6110fb565b34801561063a57600080fd5b506102c3610649366004612e6b565b61119c565b60006106598261125f565b92915050565b60606000805461066e90613186565b80601f016020809104026020016040519081016040528092919081815260200182805461069a90613186565b80156106e75780601f106106bc576101008083540402835291602001916106e7565b820191906000526020600020905b8154815290600101906020018083116106ca57829003601f168201915b5050505050905090565b60006106fc82611284565b6107625760405162461bcd60e51b815260206004820152602c60248201527f4552433732313a20617070726f76656420717565727920666f72206e6f6e657860448201526b34b9ba32b73a103a37b5b2b760a11b60648201526084015b60405180910390fd5b506000908152600460205260409020546001600160a01b031690565b600061078982610c9e565b9050806001600160a01b0316836001600160a01b031614156107f75760405162461bcd60e51b815260206004820152602160248201527f4552433732313a20617070726f76616c20746f2063757272656e74206f776e656044820152603960f91b6064820152608401610759565b336001600160a01b0382161480610813575061081381336105cb565b6108855760405162461bcd60e51b815260206004820152603860248201527f4552433732313a20617070726f76652063616c6c6572206973206e6f74206f7760448201527f6e6572206e6f7220617070726f76656420666f7220616c6c00000000000000006064820152608401610759565b61088f83836112a1565b505050565b61089e338261130f565b6108ba5760405162461bcd60e51b8152600401610759906130c6565b61088f8383836113f9565b60006108d0836115a4565b82106109325760405162461bcd60e51b815260206004820152602b60248201527f455243373231456e756d657261626c653a206f776e657220696e646578206f7560448201526a74206f6620626f756e647360a81b6064820152608401610759565b506001600160a01b03919091166000908152600760209081526040808320938352929052205490565b600b546001600160a01b0361010090910416331461098b5760405162461bcd60e51b815260040161075990613091565b805161099e906011906020840190612a86565b5050565b600b546001600160a01b036101009091041633146109d25760405162461bcd60e51b815260040161075990613091565b6040514790339082156108fc029083906000818181858888f1935050505015801561099e573d6000803e3d6000fd5b600b546001600160a01b03610100909104163314610a315760405162461bcd60e51b815260040161075990613091565b610a3961162b565b565b600b546001600160a01b03610100909104163314610a6b5760405162461bcd60e51b815260040161075990613091565b60105460ff1615610acc5760405162461bcd60e51b815260206004820152602560248201527f596f752063616e206f6e6c79207072656d696e742074686520506f7373756d73604482015264206f6e636560d81b6064820152608401610759565b60155460641115610b1f5760405162461bcd60e51b815260206004820152601d60248201527f4e6f20506f7373756d73206c65667420746f20626520636c61696d65640000006044820152606401610759565b6064600f6000828254610b329190613117565b90915550600090505b6064811015610bd257610b4e33826116be565b601554610b5d90600190613143565b60158281548110610b7e57634e487b7160e01b600052603260045260246000fd5b6000918252602090912001556015805480610ba957634e487b7160e01b600052603160045260246000fd5b600190038181906000526020600020016000905590558080610bca906131c1565b915050610b3b565b506010805460ff19166001179055565b61088f83838360405180602001604052806000815250611074565b6000610c0860095490565b8210610c6b5760405162461bcd60e51b815260206004820152602c60248201527f455243373231456e756d657261626c653a20676c6f62616c20696e646578206f60448201526b7574206f6620626f756e647360a01b6064820152608401610759565b60098281548110610c8c57634e487b7160e01b600052603260045260246000fd5b90600052602060002001549050919050565b6000818152600260205260408120546001600160a01b0316806106595760405162461bcd60e51b815260206004820152602960248201527f4552433732313a206f776e657220717565727920666f72206e6f6e657869737460448201526832b73a103a37b5b2b760b91b6064820152608401610759565b323314610d7d5760405162461bcd60e51b815260206004820152603060248201527f5468652063616c6c65722063616e206f6e6c792062652061207573657220616e60448201526f19081b9bdd08184818dbdb9d1c9858dd60821b6064820152608401610759565b600d5415801590610d90575042600d5411155b610dd05760405162461bcd60e51b8152602060048201526011602482015270596f752061726520746f6f206561726c7960781b6044820152606401610759565b33600090815260146020526040902054603690610dee908390613117565b1115610e3c5760405162461bcd60e51b815260206004820152601d60248201527f596f752063616e6e6f7420636c61696d206d6f726520706f7373756d730000006044820152606401610759565b601554811115610e8e5760405162461bcd60e51b815260206004820152601c60248201527f4e6f20506f7373756d206c65667420746f20626520636c61696d6564000000006044820152606401610759565b601b811115610ecf5760405162461bcd60e51b815260206004820152600d60248201526c09ac2f040646e40e0cae440e8f609b1b6044820152606401610759565b610efb6040518060400160405280600a81526020016936b9b39739b2b73232b960b11b81525033611794565b60005b8181101561099e576000610f106117d9565b9050610f1c33826116be565b610f53604051806040016040528060138152602001726d696e74696e67203120706f7373756d20746f60681b815250333084611b58565b5080610f5e816131c1565b915050610efe565b600b546001600160a01b03610100909104163314610f965760405162461bcd60e51b815260040161075990613091565b610a396000611ba1565b600b546001600160a01b03610100909104163314610fd05760405162461bcd60e51b815260040161075990613091565b610a39611bfb565b336001600160a01b037f000000000000000000000000000000000000000000000000000000000000000016146110505760405162461bcd60e51b815260206004820152601f60248201527f4f6e6c7920565246436f6f7264696e61746f722063616e2066756c66696c6c006044820152606401610759565b61099e8282611c76565b60606001805461066e90613186565b61099e338383611cfc565b61107e338361130f565b61109a5760405162461bcd60e51b8152600401610759906130c6565b6110a684848484611dcb565b50505050565b606061065982611dfe565b60606011805461066e90613186565b600b546001600160a01b036101009091041633146110f65760405162461bcd60e51b815260040161075990613091565b600e55565b600b546001600160a01b0361010090910416331461112b5760405162461bcd60e51b815260040161075990613091565b6001600160a01b0381166111905760405162461bcd60e51b815260206004820152602660248201527f4f776e61626c653a206e6577206f776e657220697320746865207a65726f206160448201526564647265737360d01b6064820152608401610759565b61119981611ba1565b50565b600b546001600160a01b036101009091041633146111cc5760405162461bcd60e51b815260040161075990613091565b60008381526017602052604090205460ff16156111e857600080fd5b6112288383838080601f016020809104026020016040519081016040528093929190818152602001838380828437600092019190915250611f6092505050565b6000838152601660205260409020611241908383612b06565b5050506000908152601760205260409020805460ff19166001179055565b60006001600160e01b0319821663780e9d6360e01b1480610659575061065982611feb565b6000908152600260205260409020546001600160a01b0316151590565b600081815260046020526040902080546001600160a01b0319166001600160a01b03841690811790915581906112d682610c9e565b6001600160a01b03167f8c5be1e5ebec7d5bd14f71427d1e84f3dd0314c0f7b2291e5b200ac8c7c3b92560405160405180910390a45050565b600061131a82611284565b61137b5760405162461bcd60e51b815260206004820152602c60248201527f4552433732313a206f70657261746f7220717565727920666f72206e6f6e657860448201526b34b9ba32b73a103a37b5b2b760a11b6064820152608401610759565b600061138683610c9e565b9050806001600160a01b0316846001600160a01b031614806113c15750836001600160a01b03166113b6846106f1565b6001600160a01b0316145b806113f157506001600160a01b0380821660009081526005602090815260408083209388168352929052205460ff165b949350505050565b826001600160a01b031661140c82610c9e565b6001600160a01b0316146114745760405162461bcd60e51b815260206004820152602960248201527f4552433732313a207472616e73666572206f6620746f6b656e2074686174206960448201526839903737ba1037bbb760b91b6064820152608401610759565b6001600160a01b0382166114d65760405162461bcd60e51b8152602060048201526024808201527f4552433732313a207472616e7366657220746f20746865207a65726f206164646044820152637265737360e01b6064820152608401610759565b6114e183838361203b565b6114ec6000826112a1565b6001600160a01b0383166000908152600360205260408120805460019290611515908490613143565b90915550506001600160a01b0382166000908152600360205260408120805460019290611543908490613117565b909155505060008181526002602052604080822080546001600160a01b0319166001600160a01b0386811691821790925591518493918716917fddf252ad1be2c89b69c2b068fc378daa952ba7f163c4a11628f55a4df523b3ef91a4505050565b60006001600160a01b03821661160f5760405162461bcd60e51b815260206004820152602a60248201527f4552433732313a2062616c616e636520717565727920666f7220746865207a65604482015269726f206164647265737360b01b6064820152608401610759565b506001600160a01b031660009081526003602052604090205490565b600b5460ff166116745760405162461bcd60e51b815260206004820152601460248201527314185d5cd8589b194e881b9bdd081c185d5cd95960621b6044820152606401610759565b600b805460ff191690557f5db9ee0a495bf2e6ff9c91a7834c1ba4fdd244a5e8aa4e537bd38aeae4b073aa335b6040516001600160a01b03909116815260200160405180910390a1565b612710600f5411156117125760405162461bcd60e51b815260206004820152601c60248201527f616c6c20506f7373756d732068617665206265656e206d696e746564000000006044820152606401610759565b61171c828261208c565b600f805490600061172c836131c1565b90915550506001600160a01b0382166000908152601460205260408120805491611755836131c1565b909155505060405181906001600160a01b038416907f0f6798a560793a54c3bcfe86a93cde1e73087d944c0ea20544137d412139688590600090a35050565b61099e82826040516024016117aa929190612fbd565b60408051601f198184030181529190526020810180516001600160e01b031663319af33360e01b1790526120a6565b60006117e36120c7565b5060185460408051808201909152600d81526c3930b73237b690373ab6b132b960991b602082015261181590826121e0565b6015818154811061183657634e487b7160e01b600052603260045260246000fd5b9060005260206000200154600014801561188857506015805461185b90600190613143565b8154811061187957634e487b7160e01b600052603260045260246000fd5b90600052602060002001546000145b156119075760155490915081906118a190600190613143565b601582815481106118c257634e487b7160e01b600052603260045260246000fd5b60009182526020909120015560158054806118ed57634e487b7160e01b600052603160045260246000fd5b600190038181906000526020600020016000905590555090565b6015818154811061192857634e487b7160e01b600052603260045260246000fd5b906000526020600020015460001415801561197b57506015805461194e90600190613143565b8154811061196c57634e487b7160e01b600052603260045260246000fd5b90600052602060002001546000145b156119c057601581815481106119a157634e487b7160e01b600052603260045260246000fd5b9060005260206000200154915060016015805490506118a19190613143565b601581815481106119e157634e487b7160e01b600052603260045260246000fd5b9060005260206000200154600014158015611a35575060158054611a0790600190613143565b81548110611a2557634e487b7160e01b600052603260045260246000fd5b9060005260206000200154600014155b15611ac65760158181548110611a5b57634e487b7160e01b600052603260045260246000fd5b9060005260206000200154915060156001601580549050611a7c9190613143565b81548110611a9a57634e487b7160e01b600052603260045260246000fd5b9060005260206000200154601582815481106118c257634e487b7160e01b600052603260045260246000fd5b60158181548110611ae757634e487b7160e01b600052603260045260246000fd5b90600052602060002001546000148015611b3a575060158054611b0c90600190613143565b81548110611b2a57634e487b7160e01b600052603260045260246000fd5b9060005260206000200154600014155b15611b5457601580549192508291611a7c90600190613143565b5090565b6110a684848484604051602401611b729493929190612fe7565b60408051601f198184030181529190526020810180516001600160e01b0316636eb7943d60e01b1790526120a6565b600b80546001600160a01b03838116610100818102610100600160a81b031985161790945560405193909204169182907f8be0079c531659141344cd1fd0a4f28419497f9722a3daafe3b4186f6b6457e090600090a35050565b600b5460ff1615611c415760405162461bcd60e51b815260206004820152601060248201526f14185d5cd8589b194e881c185d5cd95960821b6044820152606401610759565b600b805460ff191660011790557f62e78cea01bee320cd4e420270b5ea74000d11b0c9f74754ebdbfc544b05a2586116a13390565b6019546001600160a01b031633148015611c8f57508115155b611cdb5760405162461bcd60e51b815260206004820181905260248201527f6f6e6c792056524620436f6f7264696e61746f722063616e2066756c66696c6c6044820152606401610759565b601554600190611ceb90836131dc565b611cf59190613143565b6018555050565b816001600160a01b0316836001600160a01b03161415611d5e5760405162461bcd60e51b815260206004820152601960248201527f4552433732313a20617070726f766520746f2063616c6c6572000000000000006044820152606401610759565b6001600160a01b03838116600081815260056020908152604080832094871680845294825291829020805460ff191686151590811790915591519182527f17307eab39ab6107e8899845ad3d59bd9653f200f220920489ca2b5937696c31910160405180910390a3505050565b611dd68484846113f9565b611de284848484612225565b6110a65760405162461bcd60e51b81526004016107599061303f565b6060611e0982611284565b611e6f5760405162461bcd60e51b815260206004820152603160248201527f45524337323155524953746f726167653a2055524920717565727920666f72206044820152703737b732bc34b9ba32b73a103a37b5b2b760791b6064820152608401610759565b60008281526006602052604081208054611e8890613186565b80601f0160208091040260200160405190810160405280929190818152602001828054611eb490613186565b8015611f015780601f10611ed657610100808354040283529160200191611f01565b820191906000526020600020905b815481529060010190602001808311611ee457829003601f168201915b505050505090506000611f126110b7565b9050805160001415611f25575092915050565b815115611f57578082604051602001611f3f929190612f0e565b60405160208183030381529060405292505050919050565b6113f184612332565b611f6982611284565b611fcc5760405162461bcd60e51b815260206004820152602e60248201527f45524337323155524953746f726167653a2055524920736574206f66206e6f6e60448201526d32bc34b9ba32b73a103a37b5b2b760911b6064820152608401610759565b6000828152600660209081526040909120825161088f92840190612a86565b60006001600160e01b031982166380ac58cd60e01b148061201c57506001600160e01b03198216635b5e139f60e01b145b8061065957506301ffc9a760e01b6001600160e01b0319831614610659565b600b5460ff16156120815760405162461bcd60e51b815260206004820152601060248201526f14185d5cd8589b194e881c185d5cd95960821b6044820152606401610759565b61088f8383836123fd565b61099e8282604051806020016040528060008152506124b5565b80516a636f6e736f6c652e6c6f67602083016000808483855afa5050505050565b6013546040516370a0823160e01b8152306004820152600091906001600160a01b037f000000000000000000000000000000000000000000000000000000000000000016906370a082319060240160206040518083038186803b15801561212d57600080fd5b505afa158015612141573d6000803e3d6000fd5b505050506040513d601f19601f820116820180604052508101906121659190612e53565b10156121cd5760405162461bcd60e51b815260206004820152603160248201527f4e6f7420656e6f756768204c696e6b2020696e20636f6e747261637420746f2060448201527033b2ba103930b73237b690373ab6b132b960791b6064820152608401610759565b6121db6012546013546124e8565b905090565b61099e82826040516024016121f692919061301d565b60408051601f198184030181529190526020810180516001600160e01b03166309710a9d60e41b1790526120a6565b60006001600160a01b0384163b1561232757604051630a85bd0160e11b81526001600160a01b0385169063150b7a0290612269903390899088908890600401612f3d565b602060405180830381600087803b15801561228357600080fd5b505af19250505080156122b3575060408051601f3d908101601f191682019092526122b091810190612dd9565b60015b61230d573d8080156122e1576040519150601f19603f3d011682016040523d82523d6000602084013e6122e6565b606091505b5080516123055760405162461bcd60e51b81526004016107599061303f565b805181602001fd5b6001600160e01b031916630a85bd0160e11b1490506113f1565b506001949350505050565b606061233d82611284565b6123a15760405162461bcd60e51b815260206004820152602f60248201527f4552433732314d657461646174613a2055524920717565727920666f72206e6f60448201526e3732bc34b9ba32b73a103a37b5b2b760891b6064820152608401610759565b60006123ab6110b7565b905060008151116123cb57604051806020016040528060008152506123f6565b806123d584612673565b6040516020016123e6929190612f0e565b6040516020818303038152906040525b9392505050565b6001600160a01b0383166124585761245381600980546000838152600a60205260408120829055600182018355919091527f6e1540171b6c0c960b71a7020d9f60077f6af931a8bbf590da0223dacf75c7af0155565b61247b565b816001600160a01b0316836001600160a01b03161461247b5761247b838261278d565b6001600160a01b0382166124925761088f8161282a565b826001600160a01b0316826001600160a01b03161461088f5761088f8282612903565b6124bf8383612947565b6124cc6000848484612225565b61088f5760405162461bcd60e51b81526004016107599061303f565b60007f00000000000000000000000000000000000000000000000000000000000000006001600160a01b0316634000aea07f000000000000000000000000000000000000000000000000000000000000000084866000604051602001612558929190918252602082015260400190565b6040516020818303038152906040526040518463ffffffff1660e01b815260040161258593929190612f7a565b602060405180830381600087803b15801561259f57600080fd5b505af11580156125b3573d6000803e3d6000fd5b505050506040513d601f19601f820116820180604052508101906125d79190612d80565b506000838152600c6020818152604080842054815180840189905280830186905230606082015260808082018390528351808303909101815260a090910190925281519183019190912093879052919052612633906001613117565b6000858152600c60205260409020556113f18482604080516020808201949094528082019290925280518083038201815260609092019052805191012090565b6060816126975750506040805180820190915260018152600360fc1b602082015290565b8160005b81156126c157806126ab816131c1565b91506126ba9050600a8361312f565b915061269b565b60008167ffffffffffffffff8111156126ea57634e487b7160e01b600052604160045260246000fd5b6040519080825280601f01601f191660200182016040528015612714576020820181803683370190505b5090505b84156113f157612729600183613143565b9150612736600a866131dc565b612741906030613117565b60f81b81838151811061276457634e487b7160e01b600052603260045260246000fd5b60200101906001600160f81b031916908160001a905350612786600a8661312f565b9450612718565b6000600161279a846115a4565b6127a49190613143565b6000838152600860205260409020549091508082146127f7576001600160a01b03841660009081526007602090815260408083208584528252808320548484528184208190558352600890915290208190555b5060009182526008602090815260408084208490556001600160a01b039094168352600781528383209183525290812055565b60095460009061283c90600190613143565b6000838152600a60205260408120546009805493945090928490811061287257634e487b7160e01b600052603260045260246000fd5b9060005260206000200154905080600983815481106128a157634e487b7160e01b600052603260045260246000fd5b6000918252602080832090910192909255828152600a909152604080822084905585825281205560098054806128e757634e487b7160e01b600052603160045260246000fd5b6001900381819060005260206000200160009055905550505050565b600061290e836115a4565b6001600160a01b039093166000908152600760209081526040808320868452825280832085905593825260089052919091209190915550565b6001600160a01b03821661299d5760405162461bcd60e51b815260206004820181905260248201527f4552433732313a206d696e7420746f20746865207a65726f20616464726573736044820152606401610759565b6129a681611284565b156129f35760405162461bcd60e51b815260206004820152601c60248201527f4552433732313a20746f6b656e20616c7265616479206d696e746564000000006044820152606401610759565b6129ff6000838361203b565b6001600160a01b0382166000908152600360205260408120805460019290612a28908490613117565b909155505060008181526002602052604080822080546001600160a01b0319166001600160a01b03861690811790915590518392907fddf252ad1be2c89b69c2b068fc378daa952ba7f163c4a11628f55a4df523b3ef908290a45050565b828054612a9290613186565b90600052602060002090601f016020900481019282612ab45760008555612afa565b82601f10612acd57805160ff1916838001178555612afa565b82800160010185558215612afa579182015b82811115612afa578251825591602001919060010190612adf565b50611b54929150612b7a565b828054612b1290613186565b90600052602060002090601f016020900481019282612b345760008555612afa565b82601f10612b4d5782800160ff19823516178555612afa565b82800160010185558215612afa579182015b82811115612afa578235825591602001919060010190612b5f565b5b80821115611b545760008155600101612b7b565b600067ffffffffffffffff80841115612baa57612baa61321c565b604051601f8501601f19908116603f01168101908282118183101715612bd257612bd261321c565b81604052809350858152868686011115612beb57600080fd5b858560208301376000602087830101525050509392505050565b80356001600160a01b0381168114612c1c57600080fd5b919050565b600060208284031215612c32578081fd5b6123f682612c05565b60008060408385031215612c4d578081fd5b612c5683612c05565b9150612c6460208401612c05565b90509250929050565b600080600060608486031215612c81578081fd5b612c8a84612c05565b9250612c9860208501612c05565b9150604084013590509250925092565b60008060008060808587031215612cbd578081fd5b612cc685612c05565b9350612cd460208601612c05565b925060408501359150606085013567ffffffffffffffff811115612cf6578182fd5b8501601f81018713612d06578182fd5b612d1587823560208401612b8f565b91505092959194509250565b60008060408385031215612d33578182fd5b612d3c83612c05565b91506020830135612d4c81613232565b809150509250929050565b60008060408385031215612d69578182fd5b612d7283612c05565b946020939093013593505050565b600060208284031215612d91578081fd5b81516123f681613232565b60008060408385031215612dae578182fd5b50508035926020909101359150565b600060208284031215612dce578081fd5b81356123f681613240565b600060208284031215612dea578081fd5b81516123f681613240565b600060208284031215612e06578081fd5b813567ffffffffffffffff811115612e1c578182fd5b8201601f81018413612e2c578182fd5b6113f184823560208401612b8f565b600060208284031215612e4c578081fd5b5035919050565b600060208284031215612e64578081fd5b5051919050565b600080600060408486031215612e7f578081fd5b83359250602084013567ffffffffffffffff80821115612e9d578283fd5b818601915086601f830112612eb0578283fd5b813581811115612ebe578384fd5b876020828501011115612ecf578384fd5b6020830194508093505050509250925092565b60008151808452612efa81602086016020860161315a565b601f01601f19169290920160200192915050565b60008351612f2081846020880161315a565b835190830190612f3481836020880161315a565b01949350505050565b6001600160a01b0385811682528416602082015260408101839052608060608201819052600090612f7090830184612ee2565b9695505050505050565b60018060a01b0384168152826020820152606060408201526000612fa16060830184612ee2565b95945050505050565b6020815260006123f66020830184612ee2565b604081526000612fd06040830185612ee2565b905060018060a01b03831660208301529392505050565b608081526000612ffa6080830187612ee2565b6001600160a01b0395861660208401529390941660408201526060015292915050565b6040815260006130306040830185612ee2565b90508260208301529392505050565b60208082526032908201527f4552433732313a207472616e7366657220746f206e6f6e20455243373231526560408201527131b2b4bb32b91034b6b83632b6b2b73a32b960711b606082015260800190565b6020808252818101527f4f776e61626c653a2063616c6c6572206973206e6f7420746865206f776e6572604082015260600190565b60208082526031908201527f4552433732313a207472616e736665722063616c6c6572206973206e6f74206f6040820152701ddb995c881b9bdc88185c1c1c9bdd9959607a1b606082015260800190565b6000821982111561312a5761312a6131f0565b500190565b60008261313e5761313e613206565b500490565b600082821015613155576131556131f0565b500390565b60005b8381101561317557818101518382015260200161315d565b838111156110a65750506000910152565b600181811c9082168061319a57607f821691505b602082108114156131bb57634e487b7160e01b600052602260045260246000fd5b50919050565b60006000198214156131d5576131d56131f0565b5060010190565b6000826131eb576131eb613206565b500690565b634e487b7160e01b600052601160045260246000fd5b634e487b7160e01b600052601260045260246000fd5b634e487b7160e01b600052604160045260246000fd5b801515811461119957600080fd5b6001600160e01b03198116811461119957600080fdfea26469706673582212209803df93d8d0f69f7b43165b5546e371638203260bea93b6ff4af41c4014de3e64736f6c63430008040033",
  "linkReferences": {},
  "deployedLinkReferences": {}
}