{
  "_format": "hh-sol-artifact-1",
  "contractName": "TrashPossums",
  "sourceName": "contracts/TrashPossums.sol",
  "abi": [
    {
      "inputs": [
        {
          "internalType": "uint256",
          "name": "_possumPrice",
          "type": "uint256"
        },
        {
          "internalType": "uint256",
          "name": "_startMintDate",
          "type": "uint256"
        },
        {
          "internalType": "string",
          "name": "_baseUri",
          "type": "string"
        },
        {
          "internalType": "address",
          "name": "_randomness",
          "type": "address"
        },
        {
          "internalType": "uint256",
          "name": "_premintCount",
          "type": "uint256"
        }
      ],
      "stateMutability": "nonpayable",
      "type": "constructor"
    },
    {
      "anonymous": false,
      "inputs": [
        {
          "indexed": true,
          "internalType": "address",
          "name": "owner",
          "type": "address"
        },
        {
          "indexed": true,
          "internalType": "address",
          "name": "approved",
          "type": "address"
        },
        {
          "indexed": true,
          "internalType": "uint256",
          "name": "tokenId",
          "type": "uint256"
        }
      ],
      "name": "Approval",
      "type": "event"
    },
    {
      "anonymous": false,
      "inputs": [
        {
          "indexed": true,
          "internalType": "address",
          "name": "owner",
          "type": "address"
        },
        {
          "indexed": true,
          "internalType": "address",
          "name": "operator",
          "type": "address"
        },
        {
          "indexed": false,
          "internalType": "bool",
          "name": "approved",
          "type": "bool"
        }
      ],
      "name": "ApprovalForAll",
      "type": "event"
    },
    {
      "anonymous": false,
      "inputs": [
        {
          "indexed": true,
          "internalType": "address",
          "name": "previousOwner",
          "type": "address"
        },
        {
          "indexed": true,
          "internalType": "address",
          "name": "newOwner",
          "type": "address"
        }
      ],
      "name": "OwnershipTransferred",
      "type": "event"
    },
    {
      "anonymous": false,
      "inputs": [
        {
          "indexed": false,
          "internalType": "address",
          "name": "account",
          "type": "address"
        }
      ],
      "name": "Paused",
      "type": "event"
    },
    {
      "anonymous": false,
      "inputs": [
        {
          "indexed": true,
          "internalType": "address",
          "name": "to",
          "type": "address"
        },
        {
          "indexed": true,
          "internalType": "uint256",
          "name": "tokenId",
          "type": "uint256"
        }
      ],
      "name": "Reserved",
      "type": "event"
    },
    {
      "anonymous": false,
      "inputs": [
        {
          "indexed": true,
          "internalType": "address",
          "name": "from",
          "type": "address"
        },
        {
          "indexed": true,
          "internalType": "address",
          "name": "to",
          "type": "address"
        },
        {
          "indexed": true,
          "internalType": "uint256",
          "name": "tokenId",
          "type": "uint256"
        }
      ],
      "name": "Transfer",
      "type": "event"
    },
    {
      "anonymous": false,
      "inputs": [
        {
          "indexed": false,
          "internalType": "address",
          "name": "account",
          "type": "address"
        }
      ],
      "name": "Unpaused",
      "type": "event"
    },
    {
      "inputs": [
        {
          "internalType": "address",
          "name": "to",
          "type": "address"
        },
        {
          "internalType": "uint256",
          "name": "tokenId",
          "type": "uint256"
        }
      ],
      "name": "approve",
      "outputs": [],
      "stateMutability": "nonpayable",
      "type": "function"
    },
    {
      "inputs": [
        {
          "internalType": "address",
          "name": "owner",
          "type": "address"
        }
      ],
      "name": "balanceOf",
      "outputs": [
        {
          "internalType": "uint256",
          "name": "",
          "type": "uint256"
        }
      ],
      "stateMutability": "view",
      "type": "function"
    },
    {
      "inputs": [],
      "name": "baseURI",
      "outputs": [
        {
          "internalType": "string",
          "name": "",
          "type": "string"
        }
      ],
      "stateMutability": "view",
      "type": "function"
    },
    {
      "inputs": [],
      "name": "claimPossums",
      "outputs": [],
      "stateMutability": "payable",
      "type": "function"
    },
    {
      "inputs": [],
      "name": "contractURI",
      "outputs": [
        {
          "internalType": "string",
          "name": "",
          "type": "string"
        }
      ],
      "stateMutability": "view",
      "type": "function"
    },
    {
      "inputs": [
        {
          "internalType": "uint256",
          "name": "tokenId",
          "type": "uint256"
        }
      ],
      "name": "getApproved",
      "outputs": [
        {
          "internalType": "address",
          "name": "",
          "type": "address"
        }
      ],
      "stateMutability": "view",
      "type": "function"
    },
    {
      "inputs": [],
      "name": "getAvailablePossums",
      "outputs": [
        {
          "internalType": "uint256",
          "name": "",
          "type": "uint256"
        }
      ],
      "stateMutability": "view",
      "type": "function"
    },
    {
      "inputs": [],
      "name": "getBalance",
      "outputs": [
        {
          "internalType": "uint256",
          "name": "",
          "type": "uint256"
        }
      ],
      "stateMutability": "view",
      "type": "function"
    },
    {
      "inputs": [],
      "name": "getClaimDate",
      "outputs": [
        {
          "internalType": "uint256",
          "name": "",
          "type": "uint256"
        }
      ],
      "stateMutability": "view",
      "type": "function"
    },
    {
      "inputs": [],
      "name": "getMintingStartDate",
      "outputs": [
        {
          "internalType": "uint256",
          "name": "",
          "type": "uint256"
        }
      ],
      "stateMutability": "view",
      "type": "function"
    },
    {
      "inputs": [],
      "name": "getNumberOfReservedPossums",
      "outputs": [
        {
          "internalType": "uint256",
          "name": "",
          "type": "uint256"
        }
      ],
      "stateMutability": "view",
      "type": "function"
    },
    {
      "inputs": [],
      "name": "getPossumPrice",
      "outputs": [
        {
          "internalType": "uint256",
          "name": "",
          "type": "uint256"
        }
      ],
      "stateMutability": "view",
      "type": "function"
    },
    {
      "inputs": [
        {
          "internalType": "address",
          "name": "_wallet",
          "type": "address"
        }
      ],
      "name": "getReservedPossumIds",
      "outputs": [
        {
          "internalType": "uint256[]",
          "name": "reservedIds",
          "type": "uint256[]"
        }
      ],
      "stateMutability": "view",
      "type": "function"
    },
    {
      "inputs": [
        {
          "internalType": "address",
          "name": "_wallet",
          "type": "address"
        }
      ],
      "name": "getReservedPossumsPerWallet",
      "outputs": [
        {
          "internalType": "uint256",
          "name": "",
          "type": "uint256"
        }
      ],
      "stateMutability": "view",
      "type": "function"
    },
    {
      "inputs": [],
      "name": "getTotalMintedPossums",
      "outputs": [
        {
          "internalType": "uint256",
          "name": "",
          "type": "uint256"
        }
      ],
      "stateMutability": "view",
      "type": "function"
    },
    {
      "inputs": [],
      "name": "getTotalPossums",
      "outputs": [
        {
          "internalType": "uint256",
          "name": "",
          "type": "uint256"
        }
      ],
      "stateMutability": "pure",
      "type": "function"
    },
    {
      "inputs": [
        {
          "internalType": "address",
          "name": "owner",
          "type": "address"
        },
        {
          "internalType": "address",
          "name": "operator",
          "type": "address"
        }
      ],
      "name": "isApprovedForAll",
      "outputs": [
        {
          "internalType": "bool",
          "name": "",
          "type": "bool"
        }
      ],
      "stateMutability": "view",
      "type": "function"
    },
    {
      "inputs": [],
      "name": "maxPossumsPerTransaction",
      "outputs": [
        {
          "internalType": "uint256",
          "name": "",
          "type": "uint256"
        }
      ],
      "stateMutability": "view",
      "type": "function"
    },
    {
      "inputs": [],
      "name": "maxPossumsPerWallet",
      "outputs": [
        {
          "internalType": "uint256",
          "name": "",
          "type": "uint256"
        }
      ],
      "stateMutability": "view",
      "type": "function"
    },
    {
      "inputs": [],
      "name": "name",
      "outputs": [
        {
          "internalType": "string",
          "name": "",
          "type": "string"
        }
      ],
      "stateMutability": "view",
      "type": "function"
    },
    {
      "inputs": [],
      "name": "numberOfReservedPossums",
      "outputs": [
        {
          "internalType": "uint256",
          "name": "",
          "type": "uint256"
        }
      ],
      "stateMutability": "view",
      "type": "function"
    },
    {
      "inputs": [],
      "name": "owner",
      "outputs": [
        {
          "internalType": "address",
          "name": "",
          "type": "address"
        }
      ],
      "stateMutability": "view",
      "type": "function"
    },
    {
      "inputs": [
        {
          "internalType": "uint256",
          "name": "tokenId",
          "type": "uint256"
        }
      ],
      "name": "ownerOf",
      "outputs": [
        {
          "internalType": "address",
          "name": "",
          "type": "address"
        }
      ],
      "stateMutability": "view",
      "type": "function"
    },
    {
      "inputs": [],
      "name": "pause",
      "outputs": [],
      "stateMutability": "nonpayable",
      "type": "function"
    },
    {
      "inputs": [],
      "name": "paused",
      "outputs": [
        {
          "internalType": "bool",
          "name": "",
          "type": "bool"
        }
      ],
      "stateMutability": "view",
      "type": "function"
    },
    {
      "inputs": [],
      "name": "possumPrice",
      "outputs": [
        {
          "internalType": "uint256",
          "name": "",
          "type": "uint256"
        }
      ],
      "stateMutability": "view",
      "type": "function"
    },
    {
      "inputs": [],
      "name": "premintCount",
      "outputs": [
        {
          "internalType": "uint256",
          "name": "",
          "type": "uint256"
        }
      ],
      "stateMutability": "view",
      "type": "function"
    },
    {
      "inputs": [],
      "name": "premintPossums",
      "outputs": [],
      "stateMutability": "nonpayable",
      "type": "function"
    },
    {
      "inputs": [],
      "name": "randomness",
      "outputs": [
        {
          "internalType": "address",
          "name": "",
          "type": "address"
        }
      ],
      "stateMutability": "view",
      "type": "function"
    },
    {
      "inputs": [],
      "name": "renounceOwnership",
      "outputs": [],
      "stateMutability": "nonpayable",
      "type": "function"
    },
    {
      "inputs": [
        {
          "internalType": "uint256",
          "name": "amount",
          "type": "uint256"
        }
      ],
      "name": "reservePossums",
      "outputs": [],
      "stateMutability": "payable",
      "type": "function"
    },
    {
      "inputs": [
        {
          "internalType": "address",
          "name": "from",
          "type": "address"
        },
        {
          "internalType": "address",
          "name": "to",
          "type": "address"
        },
        {
          "internalType": "uint256",
          "name": "tokenId",
          "type": "uint256"
        }
      ],
      "name": "safeTransferFrom",
      "outputs": [],
      "stateMutability": "nonpayable",
      "type": "function"
    },
    {
      "inputs": [
        {
          "internalType": "address",
          "name": "from",
          "type": "address"
        },
        {
          "internalType": "address",
          "name": "to",
          "type": "address"
        },
        {
          "internalType": "uint256",
          "name": "tokenId",
          "type": "uint256"
        },
        {
          "internalType": "bytes",
          "name": "_data",
          "type": "bytes"
        }
      ],
      "name": "safeTransferFrom",
      "outputs": [],
      "stateMutability": "nonpayable",
      "type": "function"
    },
    {
      "inputs": [
        {
          "internalType": "address",
          "name": "operator",
          "type": "address"
        },
        {
          "internalType": "bool",
          "name": "approved",
          "type": "bool"
        }
      ],
      "name": "setApprovalForAll",
      "outputs": [],
      "stateMutability": "nonpayable",
      "type": "function"
    },
    {
      "inputs": [
        {
          "internalType": "string",
          "name": "_tokenURI",
          "type": "string"
        }
      ],
      "name": "setBaseTokenURI",
      "outputs": [],
      "stateMutability": "nonpayable",
      "type": "function"
    },
    {
      "inputs": [
        {
          "internalType": "uint256",
          "name": "_possumPrice",
          "type": "uint256"
        }
      ],
      "name": "setPossumPrice",
      "outputs": [],
      "stateMutability": "nonpayable",
      "type": "function"
    },
    {
      "inputs": [
        {
          "internalType": "address",
          "name": "_randomness",
          "type": "address"
        }
      ],
      "name": "setRandomness",
      "outputs": [],
      "stateMutability": "nonpayable",
      "type": "function"
    },
    {
      "inputs": [
        {
          "internalType": "uint256",
          "name": "_startMintDate",
          "type": "uint256"
        }
      ],
      "name": "setStartMintDate",
      "outputs": [],
      "stateMutability": "nonpayable",
      "type": "function"
    },
    {
      "inputs": [],
      "name": "startMintDate",
      "outputs": [
        {
          "internalType": "uint256",
          "name": "",
          "type": "uint256"
        }
      ],
      "stateMutability": "view",
      "type": "function"
    },
    {
      "inputs": [
        {
          "internalType": "bytes4",
          "name": "interfaceId",
          "type": "bytes4"
        }
      ],
      "name": "supportsInterface",
      "outputs": [
        {
          "internalType": "bool",
          "name": "",
          "type": "bool"
        }
      ],
      "stateMutability": "view",
      "type": "function"
    },
    {
      "inputs": [],
      "name": "symbol",
      "outputs": [
        {
          "internalType": "string",
          "name": "",
          "type": "string"
        }
      ],
      "stateMutability": "view",
      "type": "function"
    },
    {
      "inputs": [
        {
          "internalType": "uint256",
          "name": "index",
          "type": "uint256"
        }
      ],
      "name": "tokenByIndex",
      "outputs": [
        {
          "internalType": "uint256",
          "name": "",
          "type": "uint256"
        }
      ],
      "stateMutability": "view",
      "type": "function"
    },
    {
      "inputs": [
        {
          "internalType": "address",
          "name": "owner",
          "type": "address"
        },
        {
          "internalType": "uint256",
          "name": "index",
          "type": "uint256"
        }
      ],
      "name": "tokenOfOwnerByIndex",
      "outputs": [
        {
          "internalType": "uint256",
          "name": "",
          "type": "uint256"
        }
      ],
      "stateMutability": "view",
      "type": "function"
    },
    {
      "inputs": [
        {
          "internalType": "uint256",
          "name": "tokenId",
          "type": "uint256"
        }
      ],
      "name": "tokenURI",
      "outputs": [
        {
          "internalType": "string",
          "name": "",
          "type": "string"
        }
      ],
      "stateMutability": "view",
      "type": "function"
    },
    {
      "inputs": [],
      "name": "totalMintedPossums",
      "outputs": [
        {
          "internalType": "uint256",
          "name": "",
          "type": "uint256"
        }
      ],
      "stateMutability": "view",
      "type": "function"
    },
    {
      "inputs": [],
      "name": "totalPossums",
      "outputs": [
        {
          "internalType": "uint256",
          "name": "",
          "type": "uint256"
        }
      ],
      "stateMutability": "view",
      "type": "function"
    },
    {
      "inputs": [],
      "name": "totalSupply",
      "outputs": [
        {
          "internalType": "uint256",
          "name": "",
          "type": "uint256"
        }
      ],
      "stateMutability": "view",
      "type": "function"
    },
    {
      "inputs": [
        {
          "internalType": "address",
          "name": "from",
          "type": "address"
        },
        {
          "internalType": "address",
          "name": "to",
          "type": "address"
        },
        {
          "internalType": "uint256",
          "name": "tokenId",
          "type": "uint256"
        }
      ],
      "name": "transferFrom",
      "outputs": [],
      "stateMutability": "nonpayable",
      "type": "function"
    },
    {
      "inputs": [
        {
          "internalType": "address",
          "name": "newOwner",
          "type": "address"
        }
      ],
      "name": "transferOwnership",
      "outputs": [],
      "stateMutability": "nonpayable",
      "type": "function"
    },
    {
      "inputs": [],
      "name": "unpause",
      "outputs": [],
      "stateMutability": "nonpayable",
      "type": "function"
    },
    {
      "inputs": [],
      "name": "withdraw",
      "outputs": [],
      "stateMutability": "payable",
      "type": "function"
    },
    {
      "inputs": [
        {
          "internalType": "contract IERC20",
          "name": "token",
          "type": "address"
        },
        {
          "internalType": "uint256",
          "name": "_amount",
          "type": "uint256"
        }
      ],
      "name": "withdrawErc20",
      "outputs": [],
      "stateMutability": "nonpayable",
      "type": "function"
    },
    {
      "stateMutability": "payable",
      "type": "receive"
    }
  ],
  "bytecode": "0x60806040523480156200001157600080fd5b506040516200374738038062003747833981016040819052620000349162000240565b604080518082018252600d81526c547261736820506f7373756d7360981b60208083019182528351808501909452600584526454504f535360d81b908401528151919291620000869160009162000167565b5080516200009c90600190602084019062000167565b505050620000b9620000b36200011160201b60201c565b62000115565b600c805460ff19169055600f859055600e8490558251620000e290601390602086019062000167565b50601280546001600160a01b0319166001600160a01b039390931692909217909155600d55506200038d915050565b3390565b600780546001600160a01b038381166001600160a01b0319831681179093556040519116919082907f8be0079c531659141344cd1fd0a4f28419497f9722a3daafe3b4186f6b6457e090600090a35050565b828054620001759062000350565b90600052602060002090601f016020900481019282620001995760008555620001e4565b82601f10620001b457805160ff1916838001178555620001e4565b82800160010185558215620001e4579182015b82811115620001e4578251825591602001919060010190620001c7565b50620001f2929150620001f6565b5090565b5b80821115620001f25760008155600101620001f7565b634e487b7160e01b600052604160045260246000fd5b80516001600160a01b03811681146200023b57600080fd5b919050565b600080600080600060a086880312156200025957600080fd5b855160208088015160408901519297509550906001600160401b03808211156200028257600080fd5b818901915089601f8301126200029757600080fd5b815181811115620002ac57620002ac6200020d565b604051601f8201601f19908116603f01168101908382118183101715620002d757620002d76200020d565b816040528281528c86848701011115620002f057600080fd5b600093505b82841015620003145784840186015181850187015292850192620002f5565b82841115620003265760008684830101525b8098505050505050506200033d6060870162000223565b9150608086015190509295509295909350565b600181811c908216806200036557607f821691505b602082108114156200038757634e487b7160e01b600052602260045260246000fd5b50919050565b6133aa806200039d6000396000f3fe6080604052600436106103025760003560e01c80636c0360eb11610190578063b031b35b116100dc578063da67e22a11610095578063e8a3d4851161006f578063e8a3d48514610837578063e985e9c51461084c578063ead1750614610895578063f2fde38b146108aa57600080fd5b8063da67e22a146107ec578063dca7728414610802578063e65fadc41461082257600080fd5b8063b031b35b1461075a578063b37cb09d14610762578063b88d4fde14610777578063bd1f4b5214610797578063c87b56dd146107b7578063cc6bbd65146107d757600080fd5b80638456cb591161014957806395d89b411161012357806395d89b41146106ef5780639d9ee67314610704578063a22cb4651461071a578063a37a85e91461073a57600080fd5b80638456cb59146106a75780638481de5f146106bc5780638da5cb5b146106d157600080fd5b80636c0360eb1461060657806370a082311461061b578063715018a61461063b578063723bcc13146106505780637fd3352e1461066557806384511aff1461069257600080fd5b80633ccfd60b1161024f57806350f257e1116102085780635ba36949116101e25780635ba36949146105a35780635c975abb146105b95780636352211e146105d15780636ab60117146105f157600080fd5b806350f257e114610541578063530e04bb146105775780635b46a8f21461058d57600080fd5b80633ccfd60b146104af5780633f4ba83a146104b7578063416c585d146104cc57806342842e0e146104e1578063493143e4146105015780634f6ccce71461052157600080fd5b806318160ddd116102bc5780632f745c59116102965780632f745c591461043957806330176e131461045957806336013189146104795780633bb240bd1461049957600080fd5b806318160ddd146103ef57806323b872dd1461040457806325554fb11461042457600080fd5b806261b0ec1461030e57806301ffc9a71461032357806306fdde0314610358578063081812fc1461037a578063095ea7b3146103b257806312065fe0146103d257600080fd5b3661030957005b600080fd5b61032161031c366004612d48565b6108ca565b005b34801561032f57600080fd5b5061034361033e366004612d77565b610b77565b60405190151581526020015b60405180910390f35b34801561036457600080fd5b5061036d610b88565b60405161034f9190612dec565b34801561038657600080fd5b5061039a610395366004612d48565b610c1a565b6040516001600160a01b03909116815260200161034f565b3480156103be57600080fd5b506103216103cd366004612e14565b610ca2565b3480156103de57600080fd5b50475b60405190815260200161034f565b3480156103fb57600080fd5b50600a546103e1565b34801561041057600080fd5b5061032161041f366004612e40565b610db3565b34801561043057600080fd5b506011546103e1565b34801561044557600080fd5b506103e1610454366004612e14565b610de4565b34801561046557600080fd5b50610321610474366004612e81565b610e7a565b34801561048557600080fd5b5060125461039a906001600160a01b031681565b3480156104a557600080fd5b506103e1600f5481565b610321610eb0565b3480156104c357600080fd5b50610321610f8a565b3480156104d857600080fd5b50610321610fbe565b3480156104ed57600080fd5b506103216104fc366004612e40565b6110dd565b34801561050d57600080fd5b5061032161051c366004612d48565b6110f8565b34801561052d57600080fd5b506103e161053c366004612d48565b611127565b34801561054d57600080fd5b506103e161055c366004612ef3565b6001600160a01b031660009081526015602052604090205490565b34801561058357600080fd5b506103e160105481565b34801561059957600080fd5b506103e1611b5881565b3480156105af57600080fd5b506103e160115481565b3480156105c557600080fd5b50600c5460ff16610343565b3480156105dd57600080fd5b5061039a6105ec366004612d48565b6111ba565b3480156105fd57600080fd5b506103e1601b81565b34801561061257600080fd5b5061036d611231565b34801561062757600080fd5b506103e1610636366004612ef3565b6112bf565b34801561064757600080fd5b50610321611346565b34801561065c57600080fd5b50600f546103e1565b34801561067157600080fd5b50610685610680366004612ef3565b61137a565b60405161034f9190612f10565b34801561069e57600080fd5b506103e1603681565b3480156106b357600080fd5b506103216114cc565b3480156106c857600080fd5b506103e16114fe565b3480156106dd57600080fd5b506007546001600160a01b031661039a565b3480156106fb57600080fd5b5061036d611571565b34801561071057600080fd5b506103e1600d5481565b34801561072657600080fd5b50610321610735366004612f62565b611580565b34801561074657600080fd5b50610321610755366004612ef3565b61158b565b6103216115d7565b34801561076e57600080fd5b506103e16118a0565b34801561078357600080fd5b50610321610792366004612fb1565b6118ea565b3480156107a357600080fd5b506103216107b2366004612e14565b611922565b3480156107c357600080fd5b5061036d6107d2366004612d48565b611aa8565b3480156107e357600080fd5b50611b586103e1565b3480156107f857600080fd5b506103e1600e5481565b34801561080e57600080fd5b5061032161081d366004612d48565b611ab3565b34801561082e57600080fd5b506010546103e1565b34801561084357600080fd5b5061036d611ae2565b34801561085857600080fd5b50610343610867366004613091565b6001600160a01b03918216600090815260056020908152604080832093909416825291909152205460ff1690565b3480156108a157600080fd5b50600e546103e1565b3480156108b657600080fd5b506103216108c5366004612ef3565b611af1565b600e54158015906108dc575042600e54105b6109215760405162461bcd60e51b8152602060048201526011602482015270596f752061726520746f6f206561726c7960781b60448201526064015b60405180910390fd5b600061092b6114fe565b905081600f5461093b91906130d5565b34101561099c5760405162461bcd60e51b815260206004820152602960248201527f4e6f7420656e6f75676820457468657220746f207265736572766520746865736044820152686520706f7373756d7360b81b6064820152608401610918565b600082116109ec5760405162461bcd60e51b815260206004820152601e60248201527f6e65656420746f2072657365727665206174206c656173742031204e465400006044820152606401610918565b33600090815260156020526040902054603690610a0a9084906130f4565b11158015610a34575033600090815260146020526040902054603690610a319084906130f4565b11155b610a805760405162461bcd60e51b815260206004820152601f60248201527f596f752063616e6e6f742072657365727665206d6f726520706f7373756d73006044820152606401610918565b81811015610ad05760405162461bcd60e51b815260206004820152601760248201527f4e6f7420656e6f75676820506f7373756d73206c6566740000000000000000006044820152606401610918565b601b821115610b1a5760405162461bcd60e51b815260206004820152601660248201527526b0bc10191b903832b9103a3930b739b0b1ba34b7b760511b6044820152606401610918565b60005b82811015610b72576000610b2f611b8c565b604051909150819033907f904dcdc411e931497b95b06ddf8f8184815dd3bedc3c7c7cd4aed3ccd30783d890600090a35080610b6a8161310c565b915050610b1d565b505050565b6000610b8282611c37565b92915050565b606060008054610b9790613127565b80601f0160208091040260200160405190810160405280929190818152602001828054610bc390613127565b8015610c105780601f10610be557610100808354040283529160200191610c10565b820191906000526020600020905b815481529060010190602001808311610bf357829003601f168201915b5050505050905090565b6000610c2582611c5c565b610c865760405162461bcd60e51b815260206004820152602c60248201527f4552433732313a20617070726f76656420717565727920666f72206e6f6e657860448201526b34b9ba32b73a103a37b5b2b760a11b6064820152608401610918565b506000908152600460205260409020546001600160a01b031690565b6000610cad826111ba565b9050806001600160a01b0316836001600160a01b03161415610d1b5760405162461bcd60e51b815260206004820152602160248201527f4552433732313a20617070726f76616c20746f2063757272656e74206f776e656044820152603960f91b6064820152608401610918565b336001600160a01b0382161480610d375750610d378133610867565b610da95760405162461bcd60e51b815260206004820152603860248201527f4552433732313a20617070726f76652063616c6c6572206973206e6f74206f7760448201527f6e6572206e6f7220617070726f76656420666f7220616c6c00000000000000006064820152608401610918565b610b728383611c79565b610dbd3382611ce7565b610dd95760405162461bcd60e51b81526004016109189061315c565b610b72838383611dd1565b6000610def836112bf565b8210610e515760405162461bcd60e51b815260206004820152602b60248201527f455243373231456e756d657261626c653a206f776e657220696e646578206f7560448201526a74206f6620626f756e647360a81b6064820152608401610918565b506001600160a01b03919091166000908152600860209081526040808320938352929052205490565b6007546001600160a01b03163314610ea45760405162461bcd60e51b8152600401610918906131ad565b610b7260138383612c3b565b6007546001600160a01b03163314610eda5760405162461bcd60e51b8152600401610918906131ad565b476000610eef6007546001600160a01b031690565b6001600160a01b03168260405160006040518083038185875af1925050503d8060008114610f39576040519150601f19603f3d011682016040523d82523d6000602084013e610f3e565b606091505b5050905080610f865760405162461bcd60e51b81526020600482015260146024820152732330b4b632b2103a379039b2b7321022ba3432b960611b6044820152606401610918565b5050565b6007546001600160a01b03163314610fb45760405162461bcd60e51b8152600401610918906131ad565b610fbc611f7c565b565b6007546001600160a01b03163314610fe85760405162461bcd60e51b8152600401610918906131ad565b60125460408051631332545760e11b815290516000926001600160a01b031691632664a8ae9160048083019260209291908290030181865afa158015611032573d6000803e3d6000fd5b505050506040513d601f19601f8201168201806040525081019061105691906131e2565b905080156110b45760405162461bcd60e51b815260206004820152602560248201527f596f752063616e206f6e6c79207072656d696e742074686520506f7373756d73604482015264206f6e636560d81b6064820152608401610918565b60005b600d54811015610f86576110cb338261200f565b806110d58161310c565b9150506110b7565b610b72838383604051806020016040528060008152506118ea565b6007546001600160a01b031633146111225760405162461bcd60e51b8152600401610918906131ad565b600e55565b6000611132600a5490565b82106111955760405162461bcd60e51b815260206004820152602c60248201527f455243373231456e756d657261626c653a20676c6f62616c20696e646578206f60448201526b7574206f6620626f756e647360a01b6064820152608401610918565b600a82815481106111a8576111a86131ff565b90600052602060002001549050919050565b6000818152600260205260408120546001600160a01b031680610b825760405162461bcd60e51b815260206004820152602960248201527f4552433732313a206f776e657220717565727920666f72206e6f6e657869737460448201526832b73a103a37b5b2b760b91b6064820152608401610918565b6013805461123e90613127565b80601f016020809104026020016040519081016040528092919081815260200182805461126a90613127565b80156112b75780601f1061128c576101008083540402835291602001916112b7565b820191906000526020600020905b81548152906001019060200180831161129a57829003601f168201915b505050505081565b60006001600160a01b03821661132a5760405162461bcd60e51b815260206004820152602a60248201527f4552433732313a2062616c616e636520717565727920666f7220746865207a65604482015269726f206164647265737360b01b6064820152608401610918565b506001600160a01b031660009081526003602052604090205490565b6007546001600160a01b031633146113705760405162461bcd60e51b8152600401610918906131ad565b610fbc6000612143565b6001600160a01b0381166000908152601560205260409020546060906113e25760405162461bcd60e51b815260206004820152601e60248201527f57616c6c657420686173206e6f20726573657276656420706f7373756d7300006044820152606401610918565b6001600160a01b03821660009081526015602052604090205467ffffffffffffffff81111561141357611413612f9b565b60405190808252806020026020018201604052801561143c578160200160208202803683370190505b50905060005b6001600160a01b0383166000908152601560205260409020548110156114c6576001600160a01b038316600090815260156020526040902080548290811061148c5761148c6131ff565b90600052602060002001548282815181106114a9576114a96131ff565b6020908102919091010152806114be8161310c565b915050611442565b50919050565b6007546001600160a01b031633146114f65760405162461bcd60e51b8152600401610918906131ad565b610fbc612195565b60125460408051638481de5f60e01b815290516000926001600160a01b031691638481de5f9160048083019260209291908290030181865afa158015611548573d6000803e3d6000fd5b505050506040513d601f19601f8201168201806040525081019061156c9190613215565b905090565b606060018054610b9790613127565b610f86338383612210565b6007546001600160a01b031633146115b55760405162461bcd60e51b8152600401610918906131ad565b601280546001600160a01b0319166001600160a01b0392909216919091179055565b600e54158015906115e9575042600e54105b6116295760405162461bcd60e51b8152602060048201526011602482015270596f752061726520746f6f206561726c7960781b6044820152606401610918565b60006116336118a0565b33600090815260156020526040902054909150806116935760405162461bcd60e51b815260206004820152601c60248201527f796f752068617665206e6f20726573657276656420706f7373756d73000000006044820152606401610918565b428210806116a55750611b5860115410155b6116ae57600080fd5b33600090815260146020526040902054603610156116cb57600080fd5b600080601260009054906101000a90046001600160a01b03166001600160a01b031663eb6ad24e6040518163ffffffff1660e01b8152600401602060405180830381865afa158015611721573d6000803e3d6000fd5b505050506040513d601f19601f820116820180604052508101906117459190613215565b9050806117945760405162461bcd60e51b815260206004820152601f60248201527f506f7373756d73206e6f7420726561647920746f20626520636c61696d6564006044820152606401610918565b60005b83811015611846573360009081526015602052604081208054849190849081106117c3576117c36131ff565b90600052602060002001546117d891906130f4565b90506117e76001611b5861322e565b811115611825576001600d546117fd919061322e565b61180a6001611b5861322e565b611814908361322e565b61181e91906130f4565b9350611829565b8093505b611833338561200f565b508061183e8161310c565b915050611797565b5060005b838110156118995733600090815260156020526040902080548061187057611870613245565b6001900381819060005260206000200160009055905580806118919061310c565b91505061184a565b5050505050565b601254604080516344657d2760e11b815290516000926001600160a01b0316916388cafa4e9160048083019260209291908290030181865afa158015611548573d6000803e3d6000fd5b6118f43383611ce7565b6119105760405162461bcd60e51b81526004016109189061315c565b61191c848484846122df565b50505050565b6007546001600160a01b0316331461194c5760405162461bcd60e51b8152600401610918906131ad565b6040516370a0823160e01b81523060048201526000906001600160a01b038416906370a0823190602401602060405180830381865afa158015611993573d6000803e3d6000fd5b505050506040513d601f19601f820116820180604052508101906119b79190613215565b11611a165760405162461bcd60e51b815260206004820152602960248201527f7468697320636f6e747261637420646f6573206e6f7420636f6e7461696e20746044820152683434b9903a37b5b2b760b91b6064820152608401610918565b816001600160a01b031663a9059cbb611a376007546001600160a01b031690565b6040516001600160e01b031960e084901b1681526001600160a01b039091166004820152602481018490526044016020604051808303816000875af1158015611a84573d6000803e3d6000fd5b505050506040513d601f19601f82011682018060405250810190610b7291906131e2565b6060610b8282612312565b6007546001600160a01b03163314611add5760405162461bcd60e51b8152600401610918906131ad565b600f55565b606060138054610b9790613127565b6007546001600160a01b03163314611b1b5760405162461bcd60e51b8152600401610918906131ad565b6001600160a01b038116611b805760405162461bcd60e51b815260206004820152602660248201527f4f776e61626c653a206e6577206f776e657220697320746865207a65726f206160448201526564647265737360d01b6064820152608401610918565b611b8981612143565b50565b6012546040805163c6410f7b60e01b815290516000926001600160a01b03169163c6410f7b916004808301926020929190829003018187875af1158015611bd7573d6000803e3d6000fd5b505050506040513d601f19601f82011682018060405250810190611bfb9190613215565b33600090815260156020908152604082208054600181018255908352908220018290556011805492935090611c2f8361310c565b919050555090565b60006001600160e01b0319821663780e9d6360e01b1480610b825750610b8282612474565b6000908152600260205260409020546001600160a01b0316151590565b600081815260046020526040902080546001600160a01b0319166001600160a01b0384169081179091558190611cae826111ba565b6001600160a01b03167f8c5be1e5ebec7d5bd14f71427d1e84f3dd0314c0f7b2291e5b200ac8c7c3b92560405160405180910390a45050565b6000611cf282611c5c565b611d535760405162461bcd60e51b815260206004820152602c60248201527f4552433732313a206f70657261746f7220717565727920666f72206e6f6e657860448201526b34b9ba32b73a103a37b5b2b760a11b6064820152608401610918565b6000611d5e836111ba565b9050806001600160a01b0316846001600160a01b03161480611d995750836001600160a01b0316611d8e84610c1a565b6001600160a01b0316145b80611dc957506001600160a01b0380821660009081526005602090815260408083209388168352929052205460ff165b949350505050565b826001600160a01b0316611de4826111ba565b6001600160a01b031614611e4c5760405162461bcd60e51b815260206004820152602960248201527f4552433732313a207472616e73666572206f6620746f6b656e2074686174206960448201526839903737ba1037bbb760b91b6064820152608401610918565b6001600160a01b038216611eae5760405162461bcd60e51b8152602060048201526024808201527f4552433732313a207472616e7366657220746f20746865207a65726f206164646044820152637265737360e01b6064820152608401610918565b611eb98383836124c4565b611ec4600082611c79565b6001600160a01b0383166000908152600360205260408120805460019290611eed90849061322e565b90915550506001600160a01b0382166000908152600360205260408120805460019290611f1b9084906130f4565b909155505060008181526002602052604080822080546001600160a01b0319166001600160a01b0386811691821790925591518493918716917fddf252ad1be2c89b69c2b068fc378daa952ba7f163c4a11628f55a4df523b3ef91a4505050565b600c5460ff16611fc55760405162461bcd60e51b815260206004820152601460248201527314185d5cd8589b194e881b9bdd081c185d5cd95960621b6044820152606401610918565b600c805460ff191690557f5db9ee0a495bf2e6ff9c91a7834c1ba4fdd244a5e8aa4e537bd38aeae4b073aa335b6040516001600160a01b03909116815260200160405180910390a1565b611b5860105411156120635760405162461bcd60e51b815260206004820152601c60248201527f616c6c20506f7373756d732068617665206265656e206d696e746564000000006044820152606401610918565b61206d8282612515565b612101816013805461207e90613127565b80601f01602080910402602001604051908101604052809291908181526020018280546120aa90613127565b80156120f75780601f106120cc576101008083540402835291602001916120f7565b820191906000526020600020905b8154815290600101906020018083116120da57829003601f168201915b505050505061252f565b601080549060006121118361310c565b90915550506001600160a01b038216600090815260146020526040812080549161213a8361310c565b91905055505050565b600780546001600160a01b038381166001600160a01b0319831681179093556040519116919082907f8be0079c531659141344cd1fd0a4f28419497f9722a3daafe3b4186f6b6457e090600090a35050565b600c5460ff16156121db5760405162461bcd60e51b815260206004820152601060248201526f14185d5cd8589b194e881c185d5cd95960821b6044820152606401610918565b600c805460ff191660011790557f62e78cea01bee320cd4e420270b5ea74000d11b0c9f74754ebdbfc544b05a258611ff23390565b816001600160a01b0316836001600160a01b031614156122725760405162461bcd60e51b815260206004820152601960248201527f4552433732313a20617070726f766520746f2063616c6c6572000000000000006044820152606401610918565b6001600160a01b03838116600081815260056020908152604080832094871680845294825291829020805460ff191686151590811790915591519182527f17307eab39ab6107e8899845ad3d59bd9653f200f220920489ca2b5937696c31910160405180910390a3505050565b6122ea848484611dd1565b6122f6848484846125ba565b61191c5760405162461bcd60e51b81526004016109189061325b565b606061231d82611c5c565b6123835760405162461bcd60e51b815260206004820152603160248201527f45524337323155524953746f726167653a2055524920717565727920666f72206044820152703737b732bc34b9ba32b73a103a37b5b2b760791b6064820152608401610918565b6000828152600660205260408120805461239c90613127565b80601f01602080910402602001604051908101604052809291908181526020018280546123c890613127565b80156124155780601f106123ea57610100808354040283529160200191612415565b820191906000526020600020905b8154815290600101906020018083116123f857829003601f168201915b505050505090506000612426611ae2565b9050805160001415612439575092915050565b81511561246b5780826040516020016124539291906132ad565b60405160208183030381529060405292505050919050565b611dc9846126b8565b60006001600160e01b031982166380ac58cd60e01b14806124a557506001600160e01b03198216635b5e139f60e01b145b80610b8257506301ffc9a760e01b6001600160e01b0319831614610b82565b600c5460ff161561250a5760405162461bcd60e51b815260206004820152601060248201526f14185d5cd8589b194e881c185d5cd95960821b6044820152606401610918565b610b72838383612783565b610f8682826040518060200160405280600081525061283b565b61253882611c5c565b61259b5760405162461bcd60e51b815260206004820152602e60248201527f45524337323155524953746f726167653a2055524920736574206f66206e6f6e60448201526d32bc34b9ba32b73a103a37b5b2b760911b6064820152608401610918565b60008281526006602090815260409091208251610b7292840190612cbf565b60006001600160a01b0384163b156126ad57604051630a85bd0160e11b81526001600160a01b0385169063150b7a02906125fe9033908990889088906004016132dc565b6020604051808303816000875af1925050508015612639575060408051601f3d908101601f1916820190925261263691810190613319565b60015b612693573d808015612667576040519150601f19603f3d011682016040523d82523d6000602084013e61266c565b606091505b50805161268b5760405162461bcd60e51b81526004016109189061325b565b805181602001fd5b6001600160e01b031916630a85bd0160e11b149050611dc9565b506001949350505050565b60606126c382611c5c565b6127275760405162461bcd60e51b815260206004820152602f60248201527f4552433732314d657461646174613a2055524920717565727920666f72206e6f60448201526e3732bc34b9ba32b73a103a37b5b2b760891b6064820152608401610918565b6000612731611ae2565b90506000815111612751576040518060200160405280600081525061277c565b8061275b8461286e565b60405160200161276c9291906132ad565b6040516020818303038152906040525b9392505050565b6001600160a01b0383166127de576127d981600a80546000838152600b60205260408120829055600182018355919091527fc65a7bb8d6351c1cf70c95a316cc6a92839c986682d98bc35f958f4883f9d2a80155565b612801565b816001600160a01b0316836001600160a01b03161461280157612801838261296c565b6001600160a01b03821661281857610b7281612a09565b826001600160a01b0316826001600160a01b031614610b7257610b728282612ab8565b6128458383612afc565b61285260008484846125ba565b610b725760405162461bcd60e51b81526004016109189061325b565b6060816128925750506040805180820190915260018152600360fc1b602082015290565b8160005b81156128bc57806128a68161310c565b91506128b59050600a8361334c565b9150612896565b60008167ffffffffffffffff8111156128d7576128d7612f9b565b6040519080825280601f01601f191660200182016040528015612901576020820181803683370190505b5090505b8415611dc95761291660018361322e565b9150612923600a86613360565b61292e9060306130f4565b60f81b818381518110612943576129436131ff565b60200101906001600160f81b031916908160001a905350612965600a8661334c565b9450612905565b60006001612979846112bf565b612983919061322e565b6000838152600960205260409020549091508082146129d6576001600160a01b03841660009081526008602090815260408083208584528252808320548484528184208190558352600990915290208190555b5060009182526009602090815260408084208490556001600160a01b039094168352600881528383209183525290812055565b600a54600090612a1b9060019061322e565b6000838152600b6020526040812054600a8054939450909284908110612a4357612a436131ff565b9060005260206000200154905080600a8381548110612a6457612a646131ff565b6000918252602080832090910192909255828152600b9091526040808220849055858252812055600a805480612a9c57612a9c613245565b6001900381819060005260206000200160009055905550505050565b6000612ac3836112bf565b6001600160a01b039093166000908152600860209081526040808320868452825280832085905593825260099052919091209190915550565b6001600160a01b038216612b525760405162461bcd60e51b815260206004820181905260248201527f4552433732313a206d696e7420746f20746865207a65726f20616464726573736044820152606401610918565b612b5b81611c5c565b15612ba85760405162461bcd60e51b815260206004820152601c60248201527f4552433732313a20746f6b656e20616c7265616479206d696e746564000000006044820152606401610918565b612bb4600083836124c4565b6001600160a01b0382166000908152600360205260408120805460019290612bdd9084906130f4565b909155505060008181526002602052604080822080546001600160a01b0319166001600160a01b03861690811790915590518392907fddf252ad1be2c89b69c2b068fc378daa952ba7f163c4a11628f55a4df523b3ef908290a45050565b828054612c4790613127565b90600052602060002090601f016020900481019282612c695760008555612caf565b82601f10612c825782800160ff19823516178555612caf565b82800160010185558215612caf579182015b82811115612caf578235825591602001919060010190612c94565b50612cbb929150612d33565b5090565b828054612ccb90613127565b90600052602060002090601f016020900481019282612ced5760008555612caf565b82601f10612d0657805160ff1916838001178555612caf565b82800160010185558215612caf579182015b82811115612caf578251825591602001919060010190612d18565b5b80821115612cbb5760008155600101612d34565b600060208284031215612d5a57600080fd5b5035919050565b6001600160e01b031981168114611b8957600080fd5b600060208284031215612d8957600080fd5b813561277c81612d61565b60005b83811015612daf578181015183820152602001612d97565b8381111561191c5750506000910152565b60008151808452612dd8816020860160208601612d94565b601f01601f19169290920160200192915050565b60208152600061277c6020830184612dc0565b6001600160a01b0381168114611b8957600080fd5b60008060408385031215612e2757600080fd5b8235612e3281612dff565b946020939093013593505050565b600080600060608486031215612e5557600080fd5b8335612e6081612dff565b92506020840135612e7081612dff565b929592945050506040919091013590565b60008060208385031215612e9457600080fd5b823567ffffffffffffffff80821115612eac57600080fd5b818501915085601f830112612ec057600080fd5b813581811115612ecf57600080fd5b866020828501011115612ee157600080fd5b60209290920196919550909350505050565b600060208284031215612f0557600080fd5b813561277c81612dff565b6020808252825182820181905260009190848201906040850190845b81811015612f4857835183529284019291840191600101612f2c565b50909695505050505050565b8015158114611b8957600080fd5b60008060408385031215612f7557600080fd5b8235612f8081612dff565b91506020830135612f9081612f54565b809150509250929050565b634e487b7160e01b600052604160045260246000fd5b60008060008060808587031215612fc757600080fd5b8435612fd281612dff565b93506020850135612fe281612dff565b925060408501359150606085013567ffffffffffffffff8082111561300657600080fd5b818701915087601f83011261301a57600080fd5b81358181111561302c5761302c612f9b565b604051601f8201601f19908116603f0116810190838211818310171561305457613054612f9b565b816040528281528a602084870101111561306d57600080fd5b82602086016020830137600060208483010152809550505050505092959194509250565b600080604083850312156130a457600080fd5b82356130af81612dff565b91506020830135612f9081612dff565b634e487b7160e01b600052601160045260246000fd5b60008160001904831182151516156130ef576130ef6130bf565b500290565b60008219821115613107576131076130bf565b500190565b6000600019821415613120576131206130bf565b5060010190565b600181811c9082168061313b57607f821691505b602082108114156114c657634e487b7160e01b600052602260045260246000fd5b60208082526031908201527f4552433732313a207472616e736665722063616c6c6572206973206e6f74206f6040820152701ddb995c881b9bdc88185c1c1c9bdd9959607a1b606082015260800190565b6020808252818101527f4f776e61626c653a2063616c6c6572206973206e6f7420746865206f776e6572604082015260600190565b6000602082840312156131f457600080fd5b815161277c81612f54565b634e487b7160e01b600052603260045260246000fd5b60006020828403121561322757600080fd5b5051919050565b600082821015613240576132406130bf565b500390565b634e487b7160e01b600052603160045260246000fd5b60208082526032908201527f4552433732313a207472616e7366657220746f206e6f6e20455243373231526560408201527131b2b4bb32b91034b6b83632b6b2b73a32b960711b606082015260800190565b600083516132bf818460208801612d94565b8351908301906132d3818360208801612d94565b01949350505050565b6001600160a01b038581168252841660208201526040810183905260806060820181905260009061330f90830184612dc0565b9695505050505050565b60006020828403121561332b57600080fd5b815161277c81612d61565b634e487b7160e01b600052601260045260246000fd5b60008261335b5761335b613336565b500490565b60008261336f5761336f613336565b50069056fea2646970667358221220f998daf183bad3a7bb75e3842e169396fa3332629267888b4b0d579d2688ce0e64736f6c634300080a0033",
  "linkReferences": {},
  "deployedLinkReferences": {}
}