{
  "_format": "hh-sol-artifact-1",
  "contractName": "TrashPossums",
  "sourceName": "contracts/TrashPossums.sol",
  "abi": [
    {
      "inputs": [
        {
          "internalType": "uint256",
          "name": "_possumPrice",
          "type": "uint256"
        },
        {
          "internalType": "uint256",
          "name": "_startMintDate",
          "type": "uint256"
        },
        {
          "internalType": "string",
          "name": "_baseUri",
          "type": "string"
        },
        {
          "internalType": "address",
          "name": "_randomness",
          "type": "address"
        }
      ],
      "stateMutability": "nonpayable",
      "type": "constructor"
    },
    {
      "anonymous": false,
      "inputs": [
        {
          "indexed": true,
          "internalType": "address",
          "name": "owner",
          "type": "address"
        },
        {
          "indexed": true,
          "internalType": "address",
          "name": "approved",
          "type": "address"
        },
        {
          "indexed": true,
          "internalType": "uint256",
          "name": "tokenId",
          "type": "uint256"
        }
      ],
      "name": "Approval",
      "type": "event"
    },
    {
      "anonymous": false,
      "inputs": [
        {
          "indexed": true,
          "internalType": "address",
          "name": "owner",
          "type": "address"
        },
        {
          "indexed": true,
          "internalType": "address",
          "name": "operator",
          "type": "address"
        },
        {
          "indexed": false,
          "internalType": "bool",
          "name": "approved",
          "type": "bool"
        }
      ],
      "name": "ApprovalForAll",
      "type": "event"
    },
    {
      "anonymous": false,
      "inputs": [
        {
          "indexed": true,
          "internalType": "address",
          "name": "previousOwner",
          "type": "address"
        },
        {
          "indexed": true,
          "internalType": "address",
          "name": "newOwner",
          "type": "address"
        }
      ],
      "name": "OwnershipTransferred",
      "type": "event"
    },
    {
      "anonymous": false,
      "inputs": [
        {
          "indexed": false,
          "internalType": "address",
          "name": "account",
          "type": "address"
        }
      ],
      "name": "Paused",
      "type": "event"
    },
    {
      "anonymous": false,
      "inputs": [
        {
          "indexed": true,
          "internalType": "address",
          "name": "to",
          "type": "address"
        },
        {
          "indexed": true,
          "internalType": "uint256",
          "name": "tokenId",
          "type": "uint256"
        }
      ],
      "name": "Reserved",
      "type": "event"
    },
    {
      "anonymous": false,
      "inputs": [
        {
          "indexed": true,
          "internalType": "address",
          "name": "from",
          "type": "address"
        },
        {
          "indexed": true,
          "internalType": "address",
          "name": "to",
          "type": "address"
        },
        {
          "indexed": true,
          "internalType": "uint256",
          "name": "tokenId",
          "type": "uint256"
        }
      ],
      "name": "Transfer",
      "type": "event"
    },
    {
      "anonymous": false,
      "inputs": [
        {
          "indexed": false,
          "internalType": "address",
          "name": "account",
          "type": "address"
        }
      ],
      "name": "Unpaused",
      "type": "event"
    },
    {
      "inputs": [
        {
          "internalType": "address",
          "name": "to",
          "type": "address"
        },
        {
          "internalType": "uint256",
          "name": "tokenId",
          "type": "uint256"
        }
      ],
      "name": "approve",
      "outputs": [],
      "stateMutability": "nonpayable",
      "type": "function"
    },
    {
      "inputs": [
        {
          "internalType": "address",
          "name": "owner",
          "type": "address"
        }
      ],
      "name": "balanceOf",
      "outputs": [
        {
          "internalType": "uint256",
          "name": "",
          "type": "uint256"
        }
      ],
      "stateMutability": "view",
      "type": "function"
    },
    {
      "inputs": [],
      "name": "baseTokenURI",
      "outputs": [
        {
          "internalType": "string",
          "name": "",
          "type": "string"
        }
      ],
      "stateMutability": "view",
      "type": "function"
    },
    {
      "inputs": [],
      "name": "claimPossums",
      "outputs": [],
      "stateMutability": "payable",
      "type": "function"
    },
    {
      "inputs": [
        {
          "internalType": "uint256",
          "name": "tokenId",
          "type": "uint256"
        }
      ],
      "name": "getApproved",
      "outputs": [
        {
          "internalType": "address",
          "name": "",
          "type": "address"
        }
      ],
      "stateMutability": "view",
      "type": "function"
    },
    {
      "inputs": [],
      "name": "getAvailablePossums",
      "outputs": [
        {
          "internalType": "uint256",
          "name": "",
          "type": "uint256"
        }
      ],
      "stateMutability": "view",
      "type": "function"
    },
    {
      "inputs": [],
      "name": "getBalance",
      "outputs": [
        {
          "internalType": "uint256",
          "name": "",
          "type": "uint256"
        }
      ],
      "stateMutability": "view",
      "type": "function"
    },
    {
      "inputs": [],
      "name": "getClaimDate",
      "outputs": [
        {
          "internalType": "uint256",
          "name": "",
          "type": "uint256"
        }
      ],
      "stateMutability": "view",
      "type": "function"
    },
    {
      "inputs": [],
      "name": "getMintingStartDate",
      "outputs": [
        {
          "internalType": "uint256",
          "name": "",
          "type": "uint256"
        }
      ],
      "stateMutability": "view",
      "type": "function"
    },
    {
      "inputs": [],
      "name": "getNumberOfReservedPossums",
      "outputs": [
        {
          "internalType": "uint256",
          "name": "",
          "type": "uint256"
        }
      ],
      "stateMutability": "view",
      "type": "function"
    },
    {
      "inputs": [],
      "name": "getPossumPrice",
      "outputs": [
        {
          "internalType": "uint256",
          "name": "",
          "type": "uint256"
        }
      ],
      "stateMutability": "view",
      "type": "function"
    },
    {
      "inputs": [
        {
          "internalType": "address",
          "name": "_wallet",
          "type": "address"
        }
      ],
      "name": "getReservedPossumIds",
      "outputs": [
        {
          "internalType": "uint256[]",
          "name": "reservedIds",
          "type": "uint256[]"
        }
      ],
      "stateMutability": "view",
      "type": "function"
    },
    {
      "inputs": [
        {
          "internalType": "address",
          "name": "_wallet",
          "type": "address"
        }
      ],
      "name": "getReservedPossumsPerWallet",
      "outputs": [
        {
          "internalType": "uint256",
          "name": "",
          "type": "uint256"
        }
      ],
      "stateMutability": "view",
      "type": "function"
    },
    {
      "inputs": [],
      "name": "getTotalMintedPossums",
      "outputs": [
        {
          "internalType": "uint256",
          "name": "",
          "type": "uint256"
        }
      ],
      "stateMutability": "view",
      "type": "function"
    },
    {
      "inputs": [],
      "name": "getTotalPossums",
      "outputs": [
        {
          "internalType": "uint256",
          "name": "",
          "type": "uint256"
        }
      ],
      "stateMutability": "pure",
      "type": "function"
    },
    {
      "inputs": [
        {
          "internalType": "address",
          "name": "owner",
          "type": "address"
        },
        {
          "internalType": "address",
          "name": "operator",
          "type": "address"
        }
      ],
      "name": "isApprovedForAll",
      "outputs": [
        {
          "internalType": "bool",
          "name": "",
          "type": "bool"
        }
      ],
      "stateMutability": "view",
      "type": "function"
    },
    {
      "inputs": [],
      "name": "maxPossumsPerWallet",
      "outputs": [
        {
          "internalType": "uint256",
          "name": "",
          "type": "uint256"
        }
      ],
      "stateMutability": "view",
      "type": "function"
    },
    {
      "inputs": [],
      "name": "name",
      "outputs": [
        {
          "internalType": "string",
          "name": "",
          "type": "string"
        }
      ],
      "stateMutability": "view",
      "type": "function"
    },
    {
      "inputs": [],
      "name": "owner",
      "outputs": [
        {
          "internalType": "address",
          "name": "",
          "type": "address"
        }
      ],
      "stateMutability": "view",
      "type": "function"
    },
    {
      "inputs": [
        {
          "internalType": "uint256",
          "name": "tokenId",
          "type": "uint256"
        }
      ],
      "name": "ownerOf",
      "outputs": [
        {
          "internalType": "address",
          "name": "",
          "type": "address"
        }
      ],
      "stateMutability": "view",
      "type": "function"
    },
    {
      "inputs": [],
      "name": "pause",
      "outputs": [],
      "stateMutability": "nonpayable",
      "type": "function"
    },
    {
      "inputs": [],
      "name": "paused",
      "outputs": [
        {
          "internalType": "bool",
          "name": "",
          "type": "bool"
        }
      ],
      "stateMutability": "view",
      "type": "function"
    },
    {
      "inputs": [],
      "name": "premintPossums",
      "outputs": [],
      "stateMutability": "nonpayable",
      "type": "function"
    },
    {
      "inputs": [],
      "name": "randomness",
      "outputs": [
        {
          "internalType": "address",
          "name": "",
          "type": "address"
        }
      ],
      "stateMutability": "view",
      "type": "function"
    },
    {
      "inputs": [],
      "name": "renounceOwnership",
      "outputs": [],
      "stateMutability": "nonpayable",
      "type": "function"
    },
    {
      "inputs": [
        {
          "internalType": "uint256",
          "name": "amount",
          "type": "uint256"
        }
      ],
      "name": "reservePossums",
      "outputs": [],
      "stateMutability": "payable",
      "type": "function"
    },
    {
      "inputs": [
        {
          "internalType": "address",
          "name": "from",
          "type": "address"
        },
        {
          "internalType": "address",
          "name": "to",
          "type": "address"
        },
        {
          "internalType": "uint256",
          "name": "tokenId",
          "type": "uint256"
        }
      ],
      "name": "safeTransferFrom",
      "outputs": [],
      "stateMutability": "nonpayable",
      "type": "function"
    },
    {
      "inputs": [
        {
          "internalType": "address",
          "name": "from",
          "type": "address"
        },
        {
          "internalType": "address",
          "name": "to",
          "type": "address"
        },
        {
          "internalType": "uint256",
          "name": "tokenId",
          "type": "uint256"
        },
        {
          "internalType": "bytes",
          "name": "_data",
          "type": "bytes"
        }
      ],
      "name": "safeTransferFrom",
      "outputs": [],
      "stateMutability": "nonpayable",
      "type": "function"
    },
    {
      "inputs": [
        {
          "internalType": "address",
          "name": "operator",
          "type": "address"
        },
        {
          "internalType": "bool",
          "name": "approved",
          "type": "bool"
        }
      ],
      "name": "setApprovalForAll",
      "outputs": [],
      "stateMutability": "nonpayable",
      "type": "function"
    },
    {
      "inputs": [
        {
          "internalType": "string",
          "name": "_tokenURI",
          "type": "string"
        }
      ],
      "name": "setBaseTokenURI",
      "outputs": [],
      "stateMutability": "nonpayable",
      "type": "function"
    },
    {
      "inputs": [
        {
          "internalType": "uint256",
          "name": "_possumPrice",
          "type": "uint256"
        }
      ],
      "name": "setPossumPrice",
      "outputs": [],
      "stateMutability": "nonpayable",
      "type": "function"
    },
    {
      "inputs": [
        {
          "internalType": "bytes4",
          "name": "interfaceId",
          "type": "bytes4"
        }
      ],
      "name": "supportsInterface",
      "outputs": [
        {
          "internalType": "bool",
          "name": "",
          "type": "bool"
        }
      ],
      "stateMutability": "view",
      "type": "function"
    },
    {
      "inputs": [],
      "name": "symbol",
      "outputs": [
        {
          "internalType": "string",
          "name": "",
          "type": "string"
        }
      ],
      "stateMutability": "view",
      "type": "function"
    },
    {
      "inputs": [
        {
          "internalType": "uint256",
          "name": "index",
          "type": "uint256"
        }
      ],
      "name": "tokenByIndex",
      "outputs": [
        {
          "internalType": "uint256",
          "name": "",
          "type": "uint256"
        }
      ],
      "stateMutability": "view",
      "type": "function"
    },
    {
      "inputs": [
        {
          "internalType": "address",
          "name": "owner",
          "type": "address"
        },
        {
          "internalType": "uint256",
          "name": "index",
          "type": "uint256"
        }
      ],
      "name": "tokenOfOwnerByIndex",
      "outputs": [
        {
          "internalType": "uint256",
          "name": "",
          "type": "uint256"
        }
      ],
      "stateMutability": "view",
      "type": "function"
    },
    {
      "inputs": [
        {
          "internalType": "uint256",
          "name": "tokenId",
          "type": "uint256"
        }
      ],
      "name": "tokenURI",
      "outputs": [
        {
          "internalType": "string",
          "name": "",
          "type": "string"
        }
      ],
      "stateMutability": "view",
      "type": "function"
    },
    {
      "inputs": [],
      "name": "totalPossums",
      "outputs": [
        {
          "internalType": "uint256",
          "name": "",
          "type": "uint256"
        }
      ],
      "stateMutability": "view",
      "type": "function"
    },
    {
      "inputs": [],
      "name": "totalSupply",
      "outputs": [
        {
          "internalType": "uint256",
          "name": "",
          "type": "uint256"
        }
      ],
      "stateMutability": "view",
      "type": "function"
    },
    {
      "inputs": [
        {
          "internalType": "address",
          "name": "from",
          "type": "address"
        },
        {
          "internalType": "address",
          "name": "to",
          "type": "address"
        },
        {
          "internalType": "uint256",
          "name": "tokenId",
          "type": "uint256"
        }
      ],
      "name": "transferFrom",
      "outputs": [],
      "stateMutability": "nonpayable",
      "type": "function"
    },
    {
      "inputs": [
        {
          "internalType": "address",
          "name": "newOwner",
          "type": "address"
        }
      ],
      "name": "transferOwnership",
      "outputs": [],
      "stateMutability": "nonpayable",
      "type": "function"
    },
    {
      "inputs": [],
      "name": "unpause",
      "outputs": [],
      "stateMutability": "nonpayable",
      "type": "function"
    },
    {
      "inputs": [],
      "name": "withdraw",
      "outputs": [],
      "stateMutability": "payable",
      "type": "function"
    },
    {
      "inputs": [
        {
          "internalType": "contract IERC20",
          "name": "token",
          "type": "address"
        },
        {
          "internalType": "uint256",
          "name": "_amount",
          "type": "uint256"
        }
      ],
      "name": "withdrawErc20",
      "outputs": [],
      "stateMutability": "nonpayable",
      "type": "function"
    },
    {
      "stateMutability": "payable",
      "type": "receive"
    }
  ],
  "bytecode": "0x60806040523480156200001157600080fd5b50604051620037123803806200371283398101604081905262000034916200023c565b604080518082018252600d81526c547261736820506f7373756d7360981b60208083019182528351808501909452600584526454504f535360d81b908401528151919291620000869160009162000163565b5080516200009c90600190602084019062000163565b505050620000b9620000b36200010d60201b60201c565b62000111565b600c805460ff19169055600e849055600d8390558151620000e290601090602085019062000163565b50601280546001600160a01b0319166001600160a01b0392909216919091179055506200037f915050565b3390565b600780546001600160a01b038381166001600160a01b0319831681179093556040519116919082907f8be0079c531659141344cd1fd0a4f28419497f9722a3daafe3b4186f6b6457e090600090a35050565b828054620001719062000342565b90600052602060002090601f016020900481019282620001955760008555620001e0565b82601f10620001b057805160ff1916838001178555620001e0565b82800160010185558215620001e0579182015b82811115620001e0578251825591602001919060010190620001c3565b50620001ee929150620001f2565b5090565b5b80821115620001ee5760008155600101620001f3565b634e487b7160e01b600052604160045260246000fd5b80516001600160a01b03811681146200023757600080fd5b919050565b600080600080608085870312156200025357600080fd5b845160208087015160408801519296509450906001600160401b03808211156200027c57600080fd5b818801915088601f8301126200029157600080fd5b815181811115620002a657620002a662000209565b604051601f8201601f19908116603f01168101908382118183101715620002d157620002d162000209565b816040528281528b86848701011115620002ea57600080fd5b600093505b828410156200030e5784840186015181850187015292850192620002ef565b82841115620003205760008684830101525b80975050505050505062000337606086016200021f565b905092959194509250565b600181811c908216806200035757607f821691505b602082108114156200037957634e487b7160e01b600052602260045260246000fd5b50919050565b613383806200038f6000396000f3fe60806040526004361061025f5760003560e01c806370a0823111610144578063b37cb09d116100b6578063d547cfb71161007a578063d547cfb714610687578063dca772841461069c578063e65fadc4146106bc578063e985e9c5146106d1578063ead175061461071a578063f2fde38b1461072f57600080fd5b8063b37cb09d146105fd578063b88d4fde14610612578063bd1f4b5214610632578063c87b56dd14610652578063cc6bbd651461067257600080fd5b80638456cb59116101085780638456cb59146105785780638481de5f1461058d5780638da5cb5b146105a257806395d89b41146105c0578063a22cb465146105d5578063b031b35b146105f557600080fd5b806370a08231146104ec578063715018a61461050c578063723bcc13146105215780637fd3352e1461053657806384511aff1461056357600080fd5b806330176e13116101dd57806342842e0e116101a157806342842e0e146104285780634f6ccce71461044857806350f257e1146104685780635b46a8f21461049e5780635c975abb146104b45780636352211e146104cc57600080fd5b806330176e13146103b657806336013189146103d65780633ccfd60b146103f65780633f4ba83a146103fe578063416c585d1461041357600080fd5b806312065fe01161022457806312065fe01461032f57806318160ddd1461034c57806323b872dd1461036157806325554fb1146103815780632f745c591461039657600080fd5b806261b0ec1461026b57806301ffc9a71461028057806306fdde03146102b5578063081812fc146102d7578063095ea7b31461030f57600080fd5b3661026657005b600080fd5b61027e610279366004612cf3565b61074f565b005b34801561028c57600080fd5b506102a061029b366004612d22565b610be0565b60405190151581526020015b60405180910390f35b3480156102c157600080fd5b506102ca610bf1565b6040516102ac9190612d97565b3480156102e357600080fd5b506102f76102f2366004612cf3565b610c83565b6040516001600160a01b0390911681526020016102ac565b34801561031b57600080fd5b5061027e61032a366004612dbf565b610d0b565b34801561033b57600080fd5b50475b6040519081526020016102ac565b34801561035857600080fd5b50600a5461033e565b34801561036d57600080fd5b5061027e61037c366004612deb565b610e21565b34801561038d57600080fd5b5060115461033e565b3480156103a257600080fd5b5061033e6103b1366004612dbf565b610e52565b3480156103c257600080fd5b5061027e6103d1366004612e2c565b610ee8565b3480156103e257600080fd5b506012546102f7906001600160a01b031681565b61027e610f1e565b34801561040a57600080fd5b5061027e610ff8565b34801561041f57600080fd5b5061027e61102c565b34801561043457600080fd5b5061027e610443366004612deb565b611210565b34801561045457600080fd5b5061033e610463366004612cf3565b61122b565b34801561047457600080fd5b5061033e610483366004612e9e565b6001600160a01b031660009081526014602052604090205490565b3480156104aa57600080fd5b5061033e61271081565b3480156104c057600080fd5b50600c5460ff166102a0565b3480156104d857600080fd5b506102f76104e7366004612cf3565b6112be565b3480156104f857600080fd5b5061033e610507366004612e9e565b611335565b34801561051857600080fd5b5061027e6113bc565b34801561052d57600080fd5b50600e5461033e565b34801561054257600080fd5b50610556610551366004612e9e565b6113f0565b6040516102ac9190612ebb565b34801561056f57600080fd5b5061033e603481565b34801561058457600080fd5b5061027e611542565b34801561059957600080fd5b5061033e611574565b3480156105ae57600080fd5b506007546001600160a01b03166102f7565b3480156105cc57600080fd5b506102ca6115e7565b3480156105e157600080fd5b5061027e6105f0366004612f0d565b6115f6565b61027e611601565b34801561060957600080fd5b5061033e6118b5565b34801561061e57600080fd5b5061027e61062d366004612f5c565b6118ff565b34801561063e57600080fd5b5061027e61064d366004612dbf565b611931565b34801561065e57600080fd5b506102ca61066d366004612cf3565b611a96565b34801561067e57600080fd5b5061271061033e565b34801561069357600080fd5b506102ca611aa1565b3480156106a857600080fd5b5061027e6106b7366004612cf3565b611ab0565b3480156106c857600080fd5b50600f5461033e565b3480156106dd57600080fd5b506102a06106ec36600461303c565b6001600160a01b03918216600090815260056020908152604080832093909416825291909152205460ff1690565b34801561072657600080fd5b50600d5461033e565b34801561073b57600080fd5b5061027e61074a366004612e9e565b611adf565b600d5415801590610761575042600d54105b6107a65760405162461bcd60e51b8152602060048201526011602482015270596f752061726520746f6f206561726c7960781b60448201526064015b60405180910390fd5b601254604080516375b5692760e11b815290516000926001600160a01b03169163eb6ad24e9160048083019260209291908290030181865afa1580156107f0573d6000803e3d6000fd5b505050506040513d601f19601f82011682018060405250810190610814919061306a565b90506000601260009054906101000a90046001600160a01b03166001600160a01b0316638481de5f6040518163ffffffff1660e01b8152600401602060405180830381865afa15801561086b573d6000803e3d6000fd5b505050506040513d601f19601f8201168201806040525081019061088f919061306a565b905082600e5461089f9190613099565b3410156109005760405162461bcd60e51b815260206004820152602960248201527f4e6f7420656e6f75676820457468657220746f207265736572766520746865736044820152686520706f7373756d7360b81b606482015260840161079d565b600083116109505760405162461bcd60e51b815260206004820152601e60248201527f6e65656420746f2072657365727665206174206c656173742031204e46540000604482015260640161079d565b3360009081526013602052604090205460349061096e9085906130b8565b11156109bc5760405162461bcd60e51b815260206004820152601f60248201527f596f752063616e6e6f742072657365727665206d6f726520706f7373756d7300604482015260640161079d565b828110156109fe5760405162461bcd60e51b815260206004820152600f60248201526e139bc8141bdcdcdd5b5cc81b19599d608a1b604482015260640161079d565b601b831115610a485760405162461bcd60e51b815260206004820152601660248201527526b0bc10191b903832b9103a3930b739b0b1ba34b7b760511b604482015260640161079d565b8115610abc5760405162461bcd60e51b815260206004820152603760248201527f6f666673657420616c726561647920656e61637465642c2063616e6e6f74207260448201527f65736572766520616e79206d6f726520706f7373756d73000000000000000000606482015260840161079d565b60005b83811015610bda576012546040805163c6410f7b60e01b815290516000926001600160a01b03169163c6410f7b916004808301926020929190829003018187875af1158015610b12573d6000803e3d6000fd5b505050506040513d601f19601f82011682018060405250810190610b36919061306a565b33600090815260146020908152604082208054600181018255908352908220018290556011805492935090610b6a836130d0565b9190505550610b9a604051806040016040528060088152602001671c995cd95c9d995960c21b8152503383611b7a565b604051819033907f904dcdc411e931497b95b06ddf8f8184815dd3bedc3c7c7cd4aed3ccd30783d890600090a35080610bd2816130d0565b915050610abf565b50505050565b6000610beb82611bc1565b92915050565b606060008054610c00906130eb565b80601f0160208091040260200160405190810160405280929190818152602001828054610c2c906130eb565b8015610c795780601f10610c4e57610100808354040283529160200191610c79565b820191906000526020600020905b815481529060010190602001808311610c5c57829003601f168201915b5050505050905090565b6000610c8e82611be6565b610cef5760405162461bcd60e51b815260206004820152602c60248201527f4552433732313a20617070726f76656420717565727920666f72206e6f6e657860448201526b34b9ba32b73a103a37b5b2b760a11b606482015260840161079d565b506000908152600460205260409020546001600160a01b031690565b6000610d16826112be565b9050806001600160a01b0316836001600160a01b03161415610d845760405162461bcd60e51b815260206004820152602160248201527f4552433732313a20617070726f76616c20746f2063757272656e74206f776e656044820152603960f91b606482015260840161079d565b336001600160a01b0382161480610da05750610da081336106ec565b610e125760405162461bcd60e51b815260206004820152603860248201527f4552433732313a20617070726f76652063616c6c6572206973206e6f74206f7760448201527f6e6572206e6f7220617070726f76656420666f7220616c6c0000000000000000606482015260840161079d565b610e1c8383611c03565b505050565b610e2b3382611c71565b610e475760405162461bcd60e51b815260040161079d90613120565b610e1c838383611d5b565b6000610e5d83611335565b8210610ebf5760405162461bcd60e51b815260206004820152602b60248201527f455243373231456e756d657261626c653a206f776e657220696e646578206f7560448201526a74206f6620626f756e647360a81b606482015260840161079d565b506001600160a01b03919091166000908152600860209081526040808320938352929052205490565b6007546001600160a01b03163314610f125760405162461bcd60e51b815260040161079d90613171565b610e1c60108383612be6565b6007546001600160a01b03163314610f485760405162461bcd60e51b815260040161079d90613171565b476000610f5d6007546001600160a01b031690565b6001600160a01b03168260405160006040518083038185875af1925050503d8060008114610fa7576040519150601f19603f3d011682016040523d82523d6000602084013e610fac565b606091505b5050905080610ff45760405162461bcd60e51b81526020600482015260146024820152732330b4b632b2103a379039b2b7321022ba3432b960611b604482015260640161079d565b5050565b6007546001600160a01b031633146110225760405162461bcd60e51b815260040161079d90613171565b61102a611f06565b565b6007546001600160a01b031633146110565760405162461bcd60e51b815260040161079d90613171565b60125460408051638481de5f60e01b815290516000926001600160a01b031691638481de5f9160048083019260209291908290030181865afa1580156110a0573d6000803e3d6000fd5b505050506040513d601f19601f820116820180604052508101906110c4919061306a565b60155490915060ff16156111285760405162461bcd60e51b815260206004820152602560248201527f596f752063616e206f6e6c79207072656d696e742074686520506f7373756d73604482015264206f6e636560d81b606482015260840161079d565b60648110156111795760405162461bcd60e51b815260206004820152601d60248201527f4e6f20506f7373756d73206c65667420746f20626520636c61696d6564000000604482015260640161079d565b60005b60648110156111a15761118f3382611f99565b80611199816130d0565b91505061117c565b50601254604051631c8ac9a560e31b8152606460048201526001600160a01b039091169063e4564d2890602401600060405180830381600087803b1580156111e857600080fd5b505af11580156111fc573d6000803e3d6000fd5b50506015805460ff19166001179055505050565b610e1c838383604051806020016040528060008152506118ff565b6000611236600a5490565b82106112995760405162461bcd60e51b815260206004820152602c60248201527f455243373231456e756d657261626c653a20676c6f62616c20696e646578206f60448201526b7574206f6620626f756e647360a01b606482015260840161079d565b600a82815481106112ac576112ac6131a6565b90600052602060002001549050919050565b6000818152600260205260408120546001600160a01b031680610beb5760405162461bcd60e51b815260206004820152602960248201527f4552433732313a206f776e657220717565727920666f72206e6f6e657869737460448201526832b73a103a37b5b2b760b91b606482015260840161079d565b60006001600160a01b0382166113a05760405162461bcd60e51b815260206004820152602a60248201527f4552433732313a2062616c616e636520717565727920666f7220746865207a65604482015269726f206164647265737360b01b606482015260840161079d565b506001600160a01b031660009081526003602052604090205490565b6007546001600160a01b031633146113e65760405162461bcd60e51b815260040161079d90613171565b61102a60006120cd565b6001600160a01b0381166000908152601460205260409020546060906114585760405162461bcd60e51b815260206004820152601e60248201527f57616c6c657420686173206e6f20726573657276656420706f7373756d730000604482015260640161079d565b6001600160a01b03821660009081526014602052604090205467ffffffffffffffff81111561148957611489612f46565b6040519080825280602002602001820160405280156114b2578160200160208202803683370190505b50905060005b6001600160a01b03831660009081526014602052604090205481101561153c576001600160a01b0383166000908152601460205260409020805482908110611502576115026131a6565b906000526020600020015482828151811061151f5761151f6131a6565b602090810291909101015280611534816130d0565b9150506114b8565b50919050565b6007546001600160a01b0316331461156c5760405162461bcd60e51b815260040161079d90613171565b61102a61211f565b60125460408051638481de5f60e01b815290516000926001600160a01b031691638481de5f9160048083019260209291908290030181865afa1580156115be573d6000803e3d6000fd5b505050506040513d601f19601f820116820180604052508101906115e2919061306a565b905090565b606060018054610c00906130eb565b610ff433838361219a565b600d5415801590611613575042600d54105b6116535760405162461bcd60e51b8152602060048201526011602482015270596f752061726520746f6f206561726c7960781b604482015260640161079d565b600061165d6118b5565b336000908152601460205260409020549091506116bc5760405162461bcd60e51b815260206004820152601c60248201527f796f752068617665206e6f20726573657276656420706f7373756d7300000000604482015260640161079d565b428110806116cd5750612710601154145b6116d657600080fd5b600080601260009054906101000a90046001600160a01b03166001600160a01b031663eb6ad24e6040518163ffffffff1660e01b8152600401602060405180830381865afa15801561172c573d6000803e3d6000fd5b505050506040513d601f19601f82011682018060405250810190611750919061306a565b90508061179f5760405162461bcd60e51b815260206004820152601f60248201527f506f7373756d73206e6f7420726561647920746f20626520636c61696d656400604482015260640161079d565b60005b33600090815260146020526040902054811015610bda573360009081526014602052604081208054849190849081106117dd576117dd6131a6565b90600052602060002001546117f291906130b8565b905061180160016127106131bc565b81111561183c57611814600160646131bc565b61182160016127106131bc565b61182b90836131bc565b61183591906130b8565b9350611840565b8093505b61186b60405180604001604052806008815260200167636c61696d696e6760c01b8152503386611b7a565b6118753385611f99565b336000908152601460205260408120805484908110611896576118966131a6565b60009182526020909120015550806118ad816130d0565b9150506117a2565b601254604080516344657d2760e11b815290516000926001600160a01b0316916388cafa4e9160048083019260209291908290030181865afa1580156115be573d6000803e3d6000fd5b6119093383611c71565b6119255760405162461bcd60e51b815260040161079d90613120565b610bda84848484612269565b6007546001600160a01b0316331461195b5760405162461bcd60e51b815260040161079d90613171565b6040516370a0823160e01b81523060048201526000906001600160a01b038416906370a0823190602401602060405180830381865afa1580156119a2573d6000803e3d6000fd5b505050506040513d601f19601f820116820180604052508101906119c6919061306a565b11611a255760405162461bcd60e51b815260206004820152602960248201527f7468697320636f6e747261637420646f6573206e6f7420636f6e7461696e20746044820152683434b9903a37b5b2b760b91b606482015260840161079d565b60405163a9059cbb60e01b8152336004820152602481018290526001600160a01b0383169063a9059cbb906044016020604051808303816000875af1158015611a72573d6000803e3d6000fd5b505050506040513d601f19601f82011682018060405250810190610e1c91906131d3565b6060610beb8261229c565b606060108054610c00906130eb565b6007546001600160a01b03163314611ada5760405162461bcd60e51b815260040161079d90613171565b600e55565b6007546001600160a01b03163314611b095760405162461bcd60e51b815260040161079d90613171565b6001600160a01b038116611b6e5760405162461bcd60e51b815260206004820152602660248201527f4f776e61626c653a206e6577206f776e657220697320746865207a65726f206160448201526564647265737360d01b606482015260840161079d565b611b77816120cd565b50565b610e1c838383604051602401611b92939291906131f0565b60408051601f198184030181529190526020810180516001600160e01b03166307c8121760e01b1790526123fe565b60006001600160e01b0319821663780e9d6360e01b1480610beb5750610beb8261241f565b6000908152600260205260409020546001600160a01b0316151590565b600081815260046020526040902080546001600160a01b0319166001600160a01b0384169081179091558190611c38826112be565b6001600160a01b03167f8c5be1e5ebec7d5bd14f71427d1e84f3dd0314c0f7b2291e5b200ac8c7c3b92560405160405180910390a45050565b6000611c7c82611be6565b611cdd5760405162461bcd60e51b815260206004820152602c60248201527f4552433732313a206f70657261746f7220717565727920666f72206e6f6e657860448201526b34b9ba32b73a103a37b5b2b760a11b606482015260840161079d565b6000611ce8836112be565b9050806001600160a01b0316846001600160a01b03161480611d235750836001600160a01b0316611d1884610c83565b6001600160a01b0316145b80611d5357506001600160a01b0380821660009081526005602090815260408083209388168352929052205460ff165b949350505050565b826001600160a01b0316611d6e826112be565b6001600160a01b031614611dd65760405162461bcd60e51b815260206004820152602960248201527f4552433732313a207472616e73666572206f6620746f6b656e2074686174206960448201526839903737ba1037bbb760b91b606482015260840161079d565b6001600160a01b038216611e385760405162461bcd60e51b8152602060048201526024808201527f4552433732313a207472616e7366657220746f20746865207a65726f206164646044820152637265737360e01b606482015260840161079d565b611e4383838361246f565b611e4e600082611c03565b6001600160a01b0383166000908152600360205260408120805460019290611e779084906131bc565b90915550506001600160a01b0382166000908152600360205260408120805460019290611ea59084906130b8565b909155505060008181526002602052604080822080546001600160a01b0319166001600160a01b0386811691821790925591518493918716917fddf252ad1be2c89b69c2b068fc378daa952ba7f163c4a11628f55a4df523b3ef91a4505050565b600c5460ff16611f4f5760405162461bcd60e51b815260206004820152601460248201527314185d5cd8589b194e881b9bdd081c185d5cd95960621b604482015260640161079d565b600c805460ff191690557f5db9ee0a495bf2e6ff9c91a7834c1ba4fdd244a5e8aa4e537bd38aeae4b073aa335b6040516001600160a01b03909116815260200160405180910390a1565b612710600f541115611fed5760405162461bcd60e51b815260206004820152601c60248201527f616c6c20506f7373756d732068617665206265656e206d696e74656400000000604482015260640161079d565b611ff782826124c0565b61208b8160108054612008906130eb565b80601f0160208091040260200160405190810160405280929190818152602001828054612034906130eb565b80156120815780601f1061205657610100808354040283529160200191612081565b820191906000526020600020905b81548152906001019060200180831161206457829003601f168201915b50505050506124da565b600f805490600061209b836130d0565b90915550506001600160a01b03821660009081526013602052604081208054916120c4836130d0565b91905055505050565b600780546001600160a01b038381166001600160a01b0319831681179093556040519116919082907f8be0079c531659141344cd1fd0a4f28419497f9722a3daafe3b4186f6b6457e090600090a35050565b600c5460ff16156121655760405162461bcd60e51b815260206004820152601060248201526f14185d5cd8589b194e881c185d5cd95960821b604482015260640161079d565b600c805460ff191660011790557f62e78cea01bee320cd4e420270b5ea74000d11b0c9f74754ebdbfc544b05a258611f7c3390565b816001600160a01b0316836001600160a01b031614156121fc5760405162461bcd60e51b815260206004820152601960248201527f4552433732313a20617070726f766520746f2063616c6c657200000000000000604482015260640161079d565b6001600160a01b03838116600081815260056020908152604080832094871680845294825291829020805460ff191686151590811790915591519182527f17307eab39ab6107e8899845ad3d59bd9653f200f220920489ca2b5937696c31910160405180910390a3505050565b612274848484611d5b565b61228084848484612565565b610bda5760405162461bcd60e51b815260040161079d9061321e565b60606122a782611be6565b61230d5760405162461bcd60e51b815260206004820152603160248201527f45524337323155524953746f726167653a2055524920717565727920666f72206044820152703737b732bc34b9ba32b73a103a37b5b2b760791b606482015260840161079d565b60008281526006602052604081208054612326906130eb565b80601f0160208091040260200160405190810160405280929190818152602001828054612352906130eb565b801561239f5780601f106123745761010080835404028352916020019161239f565b820191906000526020600020905b81548152906001019060200180831161238257829003601f168201915b5050505050905060006123b0611aa1565b90508051600014156123c3575092915050565b8151156123f55780826040516020016123dd929190613270565b60405160208183030381529060405292505050919050565b611d5384612663565b80516a636f6e736f6c652e6c6f67602083016000808483855afa5050505050565b60006001600160e01b031982166380ac58cd60e01b148061245057506001600160e01b03198216635b5e139f60e01b145b80610beb57506301ffc9a760e01b6001600160e01b0319831614610beb565b600c5460ff16156124b55760405162461bcd60e51b815260206004820152601060248201526f14185d5cd8589b194e881c185d5cd95960821b604482015260640161079d565b610e1c83838361272e565b610ff48282604051806020016040528060008152506127e6565b6124e382611be6565b6125465760405162461bcd60e51b815260206004820152602e60248201527f45524337323155524953746f726167653a2055524920736574206f66206e6f6e60448201526d32bc34b9ba32b73a103a37b5b2b760911b606482015260840161079d565b60008281526006602090815260409091208251610e1c92840190612c6a565b60006001600160a01b0384163b1561265857604051630a85bd0160e11b81526001600160a01b0385169063150b7a02906125a990339089908890889060040161329f565b6020604051808303816000875af19250505080156125e4575060408051601f3d908101601f191682019092526125e1918101906132dc565b60015b61263e573d808015612612576040519150601f19603f3d011682016040523d82523d6000602084013e612617565b606091505b5080516126365760405162461bcd60e51b815260040161079d9061321e565b805181602001fd5b6001600160e01b031916630a85bd0160e11b149050611d53565b506001949350505050565b606061266e82611be6565b6126d25760405162461bcd60e51b815260206004820152602f60248201527f4552433732314d657461646174613a2055524920717565727920666f72206e6f60448201526e3732bc34b9ba32b73a103a37b5b2b760891b606482015260840161079d565b60006126dc611aa1565b905060008151116126fc5760405180602001604052806000815250612727565b8061270684612819565b604051602001612717929190613270565b6040516020818303038152906040525b9392505050565b6001600160a01b0383166127895761278481600a80546000838152600b60205260408120829055600182018355919091527fc65a7bb8d6351c1cf70c95a316cc6a92839c986682d98bc35f958f4883f9d2a80155565b6127ac565b816001600160a01b0316836001600160a01b0316146127ac576127ac8382612917565b6001600160a01b0382166127c357610e1c816129b4565b826001600160a01b0316826001600160a01b031614610e1c57610e1c8282612a63565b6127f08383612aa7565b6127fd6000848484612565565b610e1c5760405162461bcd60e51b815260040161079d9061321e565b60608161283d5750506040805180820190915260018152600360fc1b602082015290565b8160005b81156128675780612851816130d0565b91506128609050600a8361330f565b9150612841565b60008167ffffffffffffffff81111561288257612882612f46565b6040519080825280601f01601f1916602001820160405280156128ac576020820181803683370190505b5090505b8415611d53576128c16001836131bc565b91506128ce600a86613323565b6128d99060306130b8565b60f81b8183815181106128ee576128ee6131a6565b60200101906001600160f81b031916908160001a905350612910600a8661330f565b94506128b0565b6000600161292484611335565b61292e91906131bc565b600083815260096020526040902054909150808214612981576001600160a01b03841660009081526008602090815260408083208584528252808320548484528184208190558352600990915290208190555b5060009182526009602090815260408084208490556001600160a01b039094168352600881528383209183525290812055565b600a546000906129c6906001906131bc565b6000838152600b6020526040812054600a80549394509092849081106129ee576129ee6131a6565b9060005260206000200154905080600a8381548110612a0f57612a0f6131a6565b6000918252602080832090910192909255828152600b9091526040808220849055858252812055600a805480612a4757612a47613337565b6001900381819060005260206000200160009055905550505050565b6000612a6e83611335565b6001600160a01b039093166000908152600860209081526040808320868452825280832085905593825260099052919091209190915550565b6001600160a01b038216612afd5760405162461bcd60e51b815260206004820181905260248201527f4552433732313a206d696e7420746f20746865207a65726f2061646472657373604482015260640161079d565b612b0681611be6565b15612b535760405162461bcd60e51b815260206004820152601c60248201527f4552433732313a20746f6b656e20616c7265616479206d696e74656400000000604482015260640161079d565b612b5f6000838361246f565b6001600160a01b0382166000908152600360205260408120805460019290612b889084906130b8565b909155505060008181526002602052604080822080546001600160a01b0319166001600160a01b03861690811790915590518392907fddf252ad1be2c89b69c2b068fc378daa952ba7f163c4a11628f55a4df523b3ef908290a45050565b828054612bf2906130eb565b90600052602060002090601f016020900481019282612c145760008555612c5a565b82601f10612c2d5782800160ff19823516178555612c5a565b82800160010185558215612c5a579182015b82811115612c5a578235825591602001919060010190612c3f565b50612c66929150612cde565b5090565b828054612c76906130eb565b90600052602060002090601f016020900481019282612c985760008555612c5a565b82601f10612cb157805160ff1916838001178555612c5a565b82800160010185558215612c5a579182015b82811115612c5a578251825591602001919060010190612cc3565b5b80821115612c665760008155600101612cdf565b600060208284031215612d0557600080fd5b5035919050565b6001600160e01b031981168114611b7757600080fd5b600060208284031215612d3457600080fd5b813561272781612d0c565b60005b83811015612d5a578181015183820152602001612d42565b83811115610bda5750506000910152565b60008151808452612d83816020860160208601612d3f565b601f01601f19169290920160200192915050565b6020815260006127276020830184612d6b565b6001600160a01b0381168114611b7757600080fd5b60008060408385031215612dd257600080fd5b8235612ddd81612daa565b946020939093013593505050565b600080600060608486031215612e0057600080fd5b8335612e0b81612daa565b92506020840135612e1b81612daa565b929592945050506040919091013590565b60008060208385031215612e3f57600080fd5b823567ffffffffffffffff80821115612e5757600080fd5b818501915085601f830112612e6b57600080fd5b813581811115612e7a57600080fd5b866020828501011115612e8c57600080fd5b60209290920196919550909350505050565b600060208284031215612eb057600080fd5b813561272781612daa565b6020808252825182820181905260009190848201906040850190845b81811015612ef357835183529284019291840191600101612ed7565b50909695505050505050565b8015158114611b7757600080fd5b60008060408385031215612f2057600080fd5b8235612f2b81612daa565b91506020830135612f3b81612eff565b809150509250929050565b634e487b7160e01b600052604160045260246000fd5b60008060008060808587031215612f7257600080fd5b8435612f7d81612daa565b93506020850135612f8d81612daa565b925060408501359150606085013567ffffffffffffffff80821115612fb157600080fd5b818701915087601f830112612fc557600080fd5b813581811115612fd757612fd7612f46565b604051601f8201601f19908116603f01168101908382118183101715612fff57612fff612f46565b816040528281528a602084870101111561301857600080fd5b82602086016020830137600060208483010152809550505050505092959194509250565b6000806040838503121561304f57600080fd5b823561305a81612daa565b91506020830135612f3b81612daa565b60006020828403121561307c57600080fd5b5051919050565b634e487b7160e01b600052601160045260246000fd5b60008160001904831182151516156130b3576130b3613083565b500290565b600082198211156130cb576130cb613083565b500190565b60006000198214156130e4576130e4613083565b5060010190565b600181811c908216806130ff57607f821691505b6020821081141561153c57634e487b7160e01b600052602260045260246000fd5b60208082526031908201527f4552433732313a207472616e736665722063616c6c6572206973206e6f74206f6040820152701ddb995c881b9bdc88185c1c1c9bdd9959607a1b606082015260800190565b6020808252818101527f4f776e61626c653a2063616c6c6572206973206e6f7420746865206f776e6572604082015260600190565b634e487b7160e01b600052603260045260246000fd5b6000828210156131ce576131ce613083565b500390565b6000602082840312156131e557600080fd5b815161272781612eff565b6060815260006132036060830186612d6b565b6001600160a01b039490941660208301525060400152919050565b60208082526032908201527f4552433732313a207472616e7366657220746f206e6f6e20455243373231526560408201527131b2b4bb32b91034b6b83632b6b2b73a32b960711b606082015260800190565b60008351613282818460208801612d3f565b835190830190613296818360208801612d3f565b01949350505050565b6001600160a01b03858116825284166020820152604081018390526080606082018190526000906132d290830184612d6b565b9695505050505050565b6000602082840312156132ee57600080fd5b815161272781612d0c565b634e487b7160e01b600052601260045260246000fd5b60008261331e5761331e6132f9565b500490565b600082613332576133326132f9565b500690565b634e487b7160e01b600052603160045260246000fdfea264697066735822122074afc76cf00931ba3e6d3941922a0d309cd0d9f32a5e1c308bcb91c2be43aabf64736f6c634300080a0033",
  "linkReferences": {},
  "deployedLinkReferences": {}
}