{
  "_format": "hh-sol-artifact-1",
  "contractName": "TrashPossums",
  "sourceName": "contracts/TrashPossums.sol",
  "abi": [
    {
      "inputs": [
        {
          "internalType": "uint256",
          "name": "_possumPrice",
          "type": "uint256"
        },
        {
          "internalType": "uint256",
          "name": "_startMintDate",
          "type": "uint256"
        },
        {
          "internalType": "string",
          "name": "_baseUri",
          "type": "string"
        },
        {
          "internalType": "address",
          "name": "_VRFAddress",
          "type": "address"
        },
        {
          "internalType": "address",
          "name": "_linkToken",
          "type": "address"
        },
        {
          "internalType": "bytes32",
          "name": "_keyHash",
          "type": "bytes32"
        },
        {
          "internalType": "uint256",
          "name": "_fee",
          "type": "uint256"
        },
        {
          "internalType": "uint256",
          "name": "_claimDate",
          "type": "uint256"
        }
      ],
      "stateMutability": "nonpayable",
      "type": "constructor"
    },
    {
      "anonymous": false,
      "inputs": [
        {
          "indexed": true,
          "internalType": "address",
          "name": "owner",
          "type": "address"
        },
        {
          "indexed": true,
          "internalType": "address",
          "name": "approved",
          "type": "address"
        },
        {
          "indexed": true,
          "internalType": "uint256",
          "name": "tokenId",
          "type": "uint256"
        }
      ],
      "name": "Approval",
      "type": "event"
    },
    {
      "anonymous": false,
      "inputs": [
        {
          "indexed": true,
          "internalType": "address",
          "name": "owner",
          "type": "address"
        },
        {
          "indexed": true,
          "internalType": "address",
          "name": "operator",
          "type": "address"
        },
        {
          "indexed": false,
          "internalType": "bool",
          "name": "approved",
          "type": "bool"
        }
      ],
      "name": "ApprovalForAll",
      "type": "event"
    },
    {
      "anonymous": false,
      "inputs": [
        {
          "indexed": true,
          "internalType": "address",
          "name": "previousOwner",
          "type": "address"
        },
        {
          "indexed": true,
          "internalType": "address",
          "name": "newOwner",
          "type": "address"
        }
      ],
      "name": "OwnershipTransferred",
      "type": "event"
    },
    {
      "anonymous": false,
      "inputs": [
        {
          "indexed": false,
          "internalType": "address",
          "name": "account",
          "type": "address"
        }
      ],
      "name": "Paused",
      "type": "event"
    },
    {
      "anonymous": false,
      "inputs": [
        {
          "indexed": true,
          "internalType": "address",
          "name": "from",
          "type": "address"
        },
        {
          "indexed": true,
          "internalType": "address",
          "name": "to",
          "type": "address"
        },
        {
          "indexed": true,
          "internalType": "uint256",
          "name": "tokenId",
          "type": "uint256"
        }
      ],
      "name": "Transfer",
      "type": "event"
    },
    {
      "anonymous": false,
      "inputs": [
        {
          "indexed": false,
          "internalType": "address",
          "name": "account",
          "type": "address"
        }
      ],
      "name": "Unpaused",
      "type": "event"
    },
    {
      "inputs": [
        {
          "internalType": "address",
          "name": "to",
          "type": "address"
        },
        {
          "internalType": "uint256",
          "name": "tokenId",
          "type": "uint256"
        }
      ],
      "name": "approve",
      "outputs": [],
      "stateMutability": "nonpayable",
      "type": "function"
    },
    {
      "inputs": [
        {
          "internalType": "address",
          "name": "owner",
          "type": "address"
        }
      ],
      "name": "balanceOf",
      "outputs": [
        {
          "internalType": "uint256",
          "name": "",
          "type": "uint256"
        }
      ],
      "stateMutability": "view",
      "type": "function"
    },
    {
      "inputs": [],
      "name": "baseTokenURI",
      "outputs": [
        {
          "internalType": "string",
          "name": "",
          "type": "string"
        }
      ],
      "stateMutability": "view",
      "type": "function"
    },
    {
      "inputs": [],
      "name": "claimPossums",
      "outputs": [],
      "stateMutability": "nonpayable",
      "type": "function"
    },
    {
      "inputs": [],
      "name": "executeOffset",
      "outputs": [],
      "stateMutability": "nonpayable",
      "type": "function"
    },
    {
      "inputs": [
        {
          "internalType": "uint256",
          "name": "tokenId",
          "type": "uint256"
        }
      ],
      "name": "getApproved",
      "outputs": [
        {
          "internalType": "address",
          "name": "",
          "type": "address"
        }
      ],
      "stateMutability": "view",
      "type": "function"
    },
    {
      "inputs": [],
      "name": "getClaimDate",
      "outputs": [
        {
          "internalType": "uint256",
          "name": "",
          "type": "uint256"
        }
      ],
      "stateMutability": "view",
      "type": "function"
    },
    {
      "inputs": [],
      "name": "getMintingStartDate",
      "outputs": [
        {
          "internalType": "uint256",
          "name": "",
          "type": "uint256"
        }
      ],
      "stateMutability": "view",
      "type": "function"
    },
    {
      "inputs": [],
      "name": "getNumberOfAvailablePossums",
      "outputs": [
        {
          "internalType": "uint256",
          "name": "",
          "type": "uint256"
        }
      ],
      "stateMutability": "view",
      "type": "function"
    },
    {
      "inputs": [
        {
          "internalType": "address",
          "name": "_wallet",
          "type": "address"
        }
      ],
      "name": "getNumberOfReservedPossums",
      "outputs": [
        {
          "internalType": "uint256",
          "name": "",
          "type": "uint256"
        }
      ],
      "stateMutability": "view",
      "type": "function"
    },
    {
      "inputs": [],
      "name": "getOffset",
      "outputs": [
        {
          "internalType": "uint256",
          "name": "",
          "type": "uint256"
        }
      ],
      "stateMutability": "view",
      "type": "function"
    },
    {
      "inputs": [],
      "name": "getPossumPrice",
      "outputs": [
        {
          "internalType": "uint256",
          "name": "",
          "type": "uint256"
        }
      ],
      "stateMutability": "view",
      "type": "function"
    },
    {
      "inputs": [
        {
          "internalType": "address",
          "name": "_wallet",
          "type": "address"
        }
      ],
      "name": "getReservedPossumIds",
      "outputs": [
        {
          "internalType": "uint256[]",
          "name": "reservedIds",
          "type": "uint256[]"
        }
      ],
      "stateMutability": "view",
      "type": "function"
    },
    {
      "inputs": [
        {
          "internalType": "address",
          "name": "owner",
          "type": "address"
        },
        {
          "internalType": "address",
          "name": "operator",
          "type": "address"
        }
      ],
      "name": "isApprovedForAll",
      "outputs": [
        {
          "internalType": "bool",
          "name": "",
          "type": "bool"
        }
      ],
      "stateMutability": "view",
      "type": "function"
    },
    {
      "inputs": [],
      "name": "maxPossumsPerWallet",
      "outputs": [
        {
          "internalType": "uint256",
          "name": "",
          "type": "uint256"
        }
      ],
      "stateMutability": "view",
      "type": "function"
    },
    {
      "inputs": [],
      "name": "name",
      "outputs": [
        {
          "internalType": "string",
          "name": "",
          "type": "string"
        }
      ],
      "stateMutability": "view",
      "type": "function"
    },
    {
      "inputs": [],
      "name": "offsetExecuted",
      "outputs": [
        {
          "internalType": "bool",
          "name": "",
          "type": "bool"
        }
      ],
      "stateMutability": "view",
      "type": "function"
    },
    {
      "inputs": [],
      "name": "owner",
      "outputs": [
        {
          "internalType": "address",
          "name": "",
          "type": "address"
        }
      ],
      "stateMutability": "view",
      "type": "function"
    },
    {
      "inputs": [
        {
          "internalType": "uint256",
          "name": "tokenId",
          "type": "uint256"
        }
      ],
      "name": "ownerOf",
      "outputs": [
        {
          "internalType": "address",
          "name": "",
          "type": "address"
        }
      ],
      "stateMutability": "view",
      "type": "function"
    },
    {
      "inputs": [],
      "name": "pause",
      "outputs": [],
      "stateMutability": "nonpayable",
      "type": "function"
    },
    {
      "inputs": [],
      "name": "paused",
      "outputs": [
        {
          "internalType": "bool",
          "name": "",
          "type": "bool"
        }
      ],
      "stateMutability": "view",
      "type": "function"
    },
    {
      "inputs": [],
      "name": "premintPossums",
      "outputs": [],
      "stateMutability": "nonpayable",
      "type": "function"
    },
    {
      "inputs": [
        {
          "internalType": "bytes32",
          "name": "requestId",
          "type": "bytes32"
        },
        {
          "internalType": "uint256",
          "name": "randomness",
          "type": "uint256"
        }
      ],
      "name": "rawFulfillRandomness",
      "outputs": [],
      "stateMutability": "nonpayable",
      "type": "function"
    },
    {
      "inputs": [],
      "name": "renounceOwnership",
      "outputs": [],
      "stateMutability": "nonpayable",
      "type": "function"
    },
    {
      "inputs": [
        {
          "internalType": "uint256",
          "name": "amount",
          "type": "uint256"
        }
      ],
      "name": "reservePossums",
      "outputs": [],
      "stateMutability": "payable",
      "type": "function"
    },
    {
      "inputs": [
        {
          "internalType": "address",
          "name": "from",
          "type": "address"
        },
        {
          "internalType": "address",
          "name": "to",
          "type": "address"
        },
        {
          "internalType": "uint256",
          "name": "tokenId",
          "type": "uint256"
        }
      ],
      "name": "safeTransferFrom",
      "outputs": [],
      "stateMutability": "nonpayable",
      "type": "function"
    },
    {
      "inputs": [
        {
          "internalType": "address",
          "name": "from",
          "type": "address"
        },
        {
          "internalType": "address",
          "name": "to",
          "type": "address"
        },
        {
          "internalType": "uint256",
          "name": "tokenId",
          "type": "uint256"
        },
        {
          "internalType": "bytes",
          "name": "_data",
          "type": "bytes"
        }
      ],
      "name": "safeTransferFrom",
      "outputs": [],
      "stateMutability": "nonpayable",
      "type": "function"
    },
    {
      "inputs": [
        {
          "internalType": "address",
          "name": "operator",
          "type": "address"
        },
        {
          "internalType": "bool",
          "name": "approved",
          "type": "bool"
        }
      ],
      "name": "setApprovalForAll",
      "outputs": [],
      "stateMutability": "nonpayable",
      "type": "function"
    },
    {
      "inputs": [
        {
          "internalType": "string",
          "name": "_uri",
          "type": "string"
        }
      ],
      "name": "setBaseTokenURI",
      "outputs": [],
      "stateMutability": "nonpayable",
      "type": "function"
    },
    {
      "inputs": [
        {
          "internalType": "uint256",
          "name": "_possumPrice",
          "type": "uint256"
        }
      ],
      "name": "setPossumPrice",
      "outputs": [],
      "stateMutability": "nonpayable",
      "type": "function"
    },
    {
      "inputs": [
        {
          "internalType": "bytes4",
          "name": "interfaceId",
          "type": "bytes4"
        }
      ],
      "name": "supportsInterface",
      "outputs": [
        {
          "internalType": "bool",
          "name": "",
          "type": "bool"
        }
      ],
      "stateMutability": "view",
      "type": "function"
    },
    {
      "inputs": [],
      "name": "symbol",
      "outputs": [
        {
          "internalType": "string",
          "name": "",
          "type": "string"
        }
      ],
      "stateMutability": "view",
      "type": "function"
    },
    {
      "inputs": [
        {
          "internalType": "uint256",
          "name": "index",
          "type": "uint256"
        }
      ],
      "name": "tokenByIndex",
      "outputs": [
        {
          "internalType": "uint256",
          "name": "",
          "type": "uint256"
        }
      ],
      "stateMutability": "view",
      "type": "function"
    },
    {
      "inputs": [
        {
          "internalType": "address",
          "name": "owner",
          "type": "address"
        },
        {
          "internalType": "uint256",
          "name": "index",
          "type": "uint256"
        }
      ],
      "name": "tokenOfOwnerByIndex",
      "outputs": [
        {
          "internalType": "uint256",
          "name": "",
          "type": "uint256"
        }
      ],
      "stateMutability": "view",
      "type": "function"
    },
    {
      "inputs": [
        {
          "internalType": "uint256",
          "name": "tokenId",
          "type": "uint256"
        }
      ],
      "name": "tokenURI",
      "outputs": [
        {
          "internalType": "string",
          "name": "",
          "type": "string"
        }
      ],
      "stateMutability": "view",
      "type": "function"
    },
    {
      "inputs": [],
      "name": "totalPossums",
      "outputs": [
        {
          "internalType": "uint256",
          "name": "",
          "type": "uint256"
        }
      ],
      "stateMutability": "view",
      "type": "function"
    },
    {
      "inputs": [],
      "name": "totalSupply",
      "outputs": [
        {
          "internalType": "uint256",
          "name": "",
          "type": "uint256"
        }
      ],
      "stateMutability": "view",
      "type": "function"
    },
    {
      "inputs": [
        {
          "internalType": "address",
          "name": "from",
          "type": "address"
        },
        {
          "internalType": "address",
          "name": "to",
          "type": "address"
        },
        {
          "internalType": "uint256",
          "name": "tokenId",
          "type": "uint256"
        }
      ],
      "name": "transferFrom",
      "outputs": [],
      "stateMutability": "nonpayable",
      "type": "function"
    },
    {
      "inputs": [
        {
          "internalType": "address",
          "name": "newOwner",
          "type": "address"
        }
      ],
      "name": "transferOwnership",
      "outputs": [],
      "stateMutability": "nonpayable",
      "type": "function"
    },
    {
      "inputs": [],
      "name": "unpause",
      "outputs": [],
      "stateMutability": "nonpayable",
      "type": "function"
    },
    {
      "inputs": [],
      "name": "withdraw",
      "outputs": [],
      "stateMutability": "nonpayable",
      "type": "function"
    },
    {
      "inputs": [
        {
          "internalType": "contract IERC20",
          "name": "token",
          "type": "address"
        },
        {
          "internalType": "uint256",
          "name": "_amount",
          "type": "uint256"
        }
      ],
      "name": "withdrawErc20",
      "outputs": [],
      "stateMutability": "nonpayable",
      "type": "function"
    },
    {
      "stateMutability": "payable",
      "type": "receive"
    }
  ],
  "bytecode": "0x61271060c08181526204e2e06040529060e06204e200803683375050815162000030926018925060200190620001b0565b503480156200003e57600080fd5b5060405162003c9838038062003c988339810160408190526200006191620002b0565b604080518082018252600d81526c547261736820506f7373756d7360981b60208083019182528351808501909452600584526454504f535360d81b90840152815188938893929091620000b79160009162000200565b508051620000cd90600190602084019062000200565b5050600b805460ff1916905550620000e53362000156565b6001600160601b0319606092831b811660a052911b16608052600e889055600d87905585516200011d90601190602089019062000200565b50601292909255601355601480546001600160a01b0319166001600160a01b039490941693909317909255506015555062000433915050565b600b80546001600160a01b03838116610100818102610100600160a81b031985161790945560405193909204169182907f8be0079c531659141344cd1fd0a4f28419497f9722a3daafe3b4186f6b6457e090600090a35050565b828054828255906000526020600020908101928215620001ee579160200282015b82811115620001ee578251825591602001919060010190620001d1565b50620001fc9291506200027c565b5090565b8280546200020e90620003e0565b90600052602060002090601f016020900481019282620002325760008555620001ee565b82601f106200024d57805160ff1916838001178555620001ee565b82800160010185558215620001ee5791820182811115620001ee578251825591602001919060010190620001d1565b5b80821115620001fc57600081556001016200027d565b80516001600160a01b0381168114620002ab57600080fd5b919050565b600080600080600080600080610100898b031215620002cd578384fd5b88516020808b015160408c0151929a509850906001600160401b0380821115620002f5578687fd5b818c0191508c601f83011262000309578687fd5b8151818111156200031e576200031e6200041d565b604051601f8201601f19908116603f011681019083821181831017156200034957620003496200041d565b816040528281528f868487010111156200036157898afd5b8993505b8284101562000384578484018601518185018701529285019262000365565b828411156200039557898684830101525b809b50505050505050620003ac60608a0162000293565b9450620003bc60808a0162000293565b935060a0890151925060c0890151915060e089015190509295985092959890939650565b600181811c90821680620003f557607f821691505b602082108114156200041757634e487b7160e01b600052602260045260246000fd5b50919050565b634e487b7160e01b600052604160045260246000fd5b60805160601c60a05160601c61382b6200046d6000396000818161134101526129f30152600081816124ba01526129c4015261382b6000f3fe6080604052600436106102545760003560e01c806384511aff11610139578063b88d4fde116100b6578063dca772841161007a578063dca772841461066a578063e985e9c51461068a578063eace0561146106d3578063ead1750614610709578063eb6ad24e1461071e578063f2fde38b1461073357600080fd5b8063b88d4fde146105e0578063bd1f4b5214610600578063c87b56dd14610620578063cdbfc95014610640578063d547cfb71461065557600080fd5b80639b48f484116100fd5780639b48f48414610569578063a22cb46514610581578063b031b35b146105a1578063b37cb09d146105b6578063b59bb11e146105cb57600080fd5b806384511aff146104e75780638456cb59146104fc5780638da5cb5b1461051157806394985ddd1461053457806395d89b411461055457600080fd5b80633f4ba83a116101d25780635c975abb116101965780635c975abb146104385780636352211e1461045057806370a0823114610470578063715018a614610490578063723bcc13146104a55780637fd3352e146104ba57600080fd5b80633f4ba83a146103b8578063416c585d146103cd57806342842e0e146103e25780634f6ccce7146104025780635b46a8f21461042257600080fd5b806318160ddd1161021957806318160ddd1461032457806323b872dd146103435780632f745c591461036357806330176e13146103835780633ccfd60b146103a357600080fd5b806261b0ec1461026057806301ffc9a71461027557806306fdde03146102aa578063081812fc146102cc578063095ea7b31461030457600080fd5b3661025b57005b600080fd5b61027361026e3660046133c1565b610753565b005b34801561028157600080fd5b50610295610290366004613343565b610a1c565b60405190151581526020015b60405180910390f35b3480156102b657600080fd5b506102bf610a2d565b6040516102a191906134fd565b3480156102d857600080fd5b506102ec6102e73660046133c1565b610abf565b6040516001600160a01b0390911681526020016102a1565b34801561031057600080fd5b5061027361031f3660046132db565b610b47565b34801561033057600080fd5b50600f545b6040519081526020016102a1565b34801561034f57600080fd5b5061027361035e3660046131f1565b610c5d565b34801561036f57600080fd5b5061033561037e3660046132db565b610c8e565b34801561038f57600080fd5b5061027361039e36600461337b565b610d24565b3480156103af57600080fd5b50610273610d67565b3480156103c457600080fd5b50610273610dc6565b3480156103d957600080fd5b50610273610e00565b3480156103ee57600080fd5b506102736103fd3660046131f1565b610f8e565b34801561040e57600080fd5b5061033561041d3660046133c1565b610fa9565b34801561042e57600080fd5b5061033561271081565b34801561044457600080fd5b50600b5460ff16610295565b34801561045c57600080fd5b506102ec61046b3660046133c1565b61104a565b34801561047c57600080fd5b5061033561048b36600461319d565b6110c1565b34801561049c57600080fd5b50610273611148565b3480156104b157600080fd5b50600e54610335565b3480156104c657600080fd5b506104da6104d536600461319d565b611182565b6040516102a191906134b9565b3480156104f357600080fd5b50610335603681565b34801561050857600080fd5b506102736112fe565b34801561051d57600080fd5b50600b5461010090046001600160a01b03166102ec565b34801561054057600080fd5b5061027361054f366004613322565b611336565b34801561056057600080fd5b506102bf6113b8565b34801561057557600080fd5b50601a5460ff16610295565b34801561058d57600080fd5b5061027361059c3660046132ae565b6113c7565b3480156105ad57600080fd5b506102736113d2565b3480156105c257600080fd5b50601554610335565b3480156105d757600080fd5b50601854610335565b3480156105ec57600080fd5b506102736105fb366004613231565b61156c565b34801561060c57600080fd5b5061027361061b3660046132db565b6115a4565b34801561062c57600080fd5b506102bf61063b3660046133c1565b61172d565b34801561064c57600080fd5b50610273611738565b34801561066157600080fd5b506102bf61177e565b34801561067657600080fd5b506102736106853660046133c1565b61178d565b34801561069657600080fd5b506102956106a53660046131b9565b6001600160a01b03918216600090815260056020908152604080832093909416825291909152205460ff1690565b3480156106df57600080fd5b506103356106ee36600461319d565b6001600160a01b031660009081526017602052604090205490565b34801561071557600080fd5b50600d54610335565b34801561072a57600080fd5b50601954610335565b34801561073f57600080fd5b5061027361074e36600461319d565b6117c2565b32331461077b5760405162461bcd60e51b8152600401610772906135b2565b60405180910390fd5b600d541580159061078e575043600d5411155b6107ce5760405162461bcd60e51b8152602060048201526011602482015270596f752061726520746f6f206561726c7960781b6044820152606401610772565b80600e546107dc91906136b4565b34101561083d5760405162461bcd60e51b815260206004820152602960248201527f4e6f7420656e6f75676820457468657220746f207265736572766520746865736044820152686520706f7373756d7360b81b6064820152608401610772565b6000811161088d5760405162461bcd60e51b815260206004820152601b60248201527f6e65656420746f206d696e74206174206c656173742031204e465400000000006044820152606401610772565b336000908152601660205260409020546036906108ab908390613688565b11156108f95760405162461bcd60e51b815260206004820152601f60248201527f596f752063616e6e6f742072657365727665206d6f726520706f7373756d73006044820152606401610772565b60185481111561093d5760405162461bcd60e51b815260206004820152600f60248201526e139bc8141bdcdcdd5b5cc81b19599d608a1b6044820152606401610772565b601b8111156109875760405162461bcd60e51b815260206004820152601660248201527526b0bc10191b903832b9103a3930b739b0b1ba34b7b760511b6044820152606401610772565b6019541561099457600080fd5b60005b81811015610a185760006109a9611863565b33600081815260176020908152604080832080546001810182559084529282902090920184905581518083019092526013825272726573657276696e6720706f7373756d20746f60681b90820152919250610a05919083611b92565b5080610a108161374b565b915050610997565b5050565b6000610a2782611bd9565b92915050565b606060008054610a3c90613716565b80601f0160208091040260200160405190810160405280929190818152602001828054610a6890613716565b8015610ab55780601f10610a8a57610100808354040283529160200191610ab5565b820191906000526020600020905b815481529060010190602001808311610a9857829003601f168201915b5050505050905090565b6000610aca82611bfe565b610b2b5760405162461bcd60e51b815260206004820152602c60248201527f4552433732313a20617070726f76656420717565727920666f72206e6f6e657860448201526b34b9ba32b73a103a37b5b2b760a11b6064820152608401610772565b506000908152600460205260409020546001600160a01b031690565b6000610b528261104a565b9050806001600160a01b0316836001600160a01b03161415610bc05760405162461bcd60e51b815260206004820152602160248201527f4552433732313a20617070726f76616c20746f2063757272656e74206f776e656044820152603960f91b6064820152608401610772565b336001600160a01b0382161480610bdc5750610bdc81336106a5565b610c4e5760405162461bcd60e51b815260206004820152603860248201527f4552433732313a20617070726f76652063616c6c6572206973206e6f74206f7760448201527f6e6572206e6f7220617070726f76656420666f7220616c6c00000000000000006064820152608401610772565b610c588383611c1b565b505050565b610c673382611c89565b610c835760405162461bcd60e51b815260040161077290613637565b610c58838383611d73565b6000610c99836110c1565b8210610cfb5760405162461bcd60e51b815260206004820152602b60248201527f455243373231456e756d657261626c653a206f776e657220696e646578206f7560448201526a74206f6620626f756e647360a81b6064820152608401610772565b506001600160a01b03919091166000908152600760209081526040808320938352929052205490565b600b546001600160a01b03610100909104163314610d545760405162461bcd60e51b815260040161077290613602565b8051610a1890601190602084019061308e565b600b546001600160a01b03610100909104163314610d975760405162461bcd60e51b815260040161077290613602565b6040514790339082156108fc029083906000818181858888f19350505050158015610a18573d6000803e3d6000fd5b600b546001600160a01b03610100909104163314610df65760405162461bcd60e51b815260040161077290613602565b610dfe611f1e565b565b600b546001600160a01b03610100909104163314610e305760405162461bcd60e51b815260040161077290613602565b60105460ff1615610e915760405162461bcd60e51b815260206004820152602560248201527f596f752063616e206f6e6c79207072656d696e742074686520506f7373756d73604482015264206f6e636560d81b6064820152608401610772565b60185460641115610ee45760405162461bcd60e51b815260206004820152601d60248201527f4e6f20506f7373756d73206c65667420746f20626520636c61696d65640000006044820152606401610772565b60005b6064811015610f7e57610efa3382611fb1565b601854610f09906001906136d3565b60188281548110610f2a57634e487b7160e01b600052603260045260246000fd5b6000918252602090912001556018805480610f5557634e487b7160e01b600052603160045260246000fd5b600190038181906000526020600020016000905590558080610f769061374b565b915050610ee7565b506010805460ff19166001179055565b610c588383836040518060200160405280600081525061156c565b6000610fb460095490565b82106110175760405162461bcd60e51b815260206004820152602c60248201527f455243373231456e756d657261626c653a20676c6f62616c20696e646578206f60448201526b7574206f6620626f756e647360a01b6064820152608401610772565b6009828154811061103857634e487b7160e01b600052603260045260246000fd5b90600052602060002001549050919050565b6000818152600260205260408120546001600160a01b031680610a275760405162461bcd60e51b815260206004820152602960248201527f4552433732313a206f776e657220717565727920666f72206e6f6e657869737460448201526832b73a103a37b5b2b760b91b6064820152608401610772565b60006001600160a01b03821661112c5760405162461bcd60e51b815260206004820152602a60248201527f4552433732313a2062616c616e636520717565727920666f7220746865207a65604482015269726f206164647265737360b01b6064820152608401610772565b506001600160a01b031660009081526003602052604090205490565b600b546001600160a01b036101009091041633146111785760405162461bcd60e51b815260040161077290613602565b610dfe60006120e5565b6001600160a01b0381166000908152601760205260409020546060906111ea5760405162461bcd60e51b815260206004820152601e60248201527f57616c6c657420686173206e6f20726573657276656420706f7373756d7300006044820152606401610772565b6001600160a01b03821660009081526017602052604090205467ffffffffffffffff81111561122957634e487b7160e01b600052604160045260246000fd5b604051908082528060200260200182016040528015611252578160200160208202803683370190505b50905060005b6001600160a01b0383166000908152601760205260409020548110156112f8576001600160a01b03831660009081526017602052604090208054829081106112b057634e487b7160e01b600052603260045260246000fd5b90600052602060002001548282815181106112db57634e487b7160e01b600052603260045260246000fd5b6020908102919091010152806112f08161374b565b915050611258565b50919050565b600b546001600160a01b0361010090910416331461132e5760405162461bcd60e51b815260040161077290613602565b610dfe61213f565b336001600160a01b037f000000000000000000000000000000000000000000000000000000000000000016146113ae5760405162461bcd60e51b815260206004820152601f60248201527f4f6e6c7920565246436f6f7264696e61746f722063616e2066756c66696c6c006044820152606401610772565b610a1882826121ba565b606060018054610a3c90613716565b610a18338383612232565b3233146113f15760405162461bcd60e51b8152600401610772906135b2565b3360009081526017602052604090205461144d5760405162461bcd60e51b815260206004820152601c60248201527f796f752068617665206e6f20726573657276656420706f7373756d73000000006044820152606401610772565b60195461149c5760405162461bcd60e51b815260206004820152601f60248201527f506f7373756d73206e6f7420726561647920746f20626520636c61696d6564006044820152606401610772565b6000805b33600090815260176020526040902054811015610a18576019543360009081526017602052604081208054919291849081106114ec57634e487b7160e01b600052603260045260246000fd5b90600052602060002001546115019190613688565b905061151060016127106136d3565b81111561154b57611523600160646136d3565b61153060016127106136d3565b61153a90836136d3565b6115449190613688565b925061154f565b8092505b6115593384611fb1565b50806115648161374b565b9150506114a0565b6115763383611c89565b6115925760405162461bcd60e51b815260040161077290613637565b61159e84848484612301565b50505050565b600b546001600160a01b036101009091041633146115d45760405162461bcd60e51b815260040161077290613602565b6040516370a0823160e01b81523060048201526000906001600160a01b038416906370a082319060240160206040518083038186803b15801561161657600080fd5b505afa15801561162a573d6000803e3d6000fd5b505050506040513d601f19601f8201168201806040525081019061164e91906133d9565b116116ad5760405162461bcd60e51b815260206004820152602960248201527f7468697320636f6e747261637420646f6573206e6f7420636f6e7461696e20746044820152683434b9903a37b5b2b760b91b6064820152608401610772565b60405163a9059cbb60e01b8152336004820152602481018290526001600160a01b0383169063a9059cbb90604401602060405180830381600087803b1580156116f557600080fd5b505af1158015611709573d6000803e3d6000fd5b505050506040513d601f19601f82011682018060405250810190610c589190613306565b6060610a2782612334565b601a5460ff161561174857600080fd5b6018541580611758575060155443115b61176157600080fd5b611769612496565b50600a601955601a805460ff19166001179055565b606060118054610a3c90613716565b600b546001600160a01b036101009091041633146117bd5760405162461bcd60e51b815260040161077290613602565b600e55565b600b546001600160a01b036101009091041633146117f25760405162461bcd60e51b815260040161077290613602565b6001600160a01b0381166118575760405162461bcd60e51b815260206004820152602660248201527f4f776e61626c653a206e6577206f776e657220697320746865207a65726f206160448201526564647265737360d01b6064820152608401610772565b611860816120e5565b50565b60008061186e6125af565b90506018818154811061189157634e487b7160e01b600052603260045260246000fd5b906000526020600020015460001480156118e35750601880546118b6906001906136d3565b815481106118d457634e487b7160e01b600052603260045260246000fd5b90600052602060002001546000145b1561192e5760185490915081906118fc906001906136d3565b6018828154811061191d57634e487b7160e01b600052603260045260246000fd5b600091825260209091200155611b59565b6018818154811061194f57634e487b7160e01b600052603260045260246000fd5b90600052602060002001546000141580156119a2575060188054611975906001906136d3565b8154811061199357634e487b7160e01b600052603260045260246000fd5b90600052602060002001546000145b156119e757601881815481106119c857634e487b7160e01b600052603260045260246000fd5b9060005260206000200154915060016018805490506118fc91906136d3565b60188181548110611a0857634e487b7160e01b600052603260045260246000fd5b9060005260206000200154600014158015611a5c575060188054611a2e906001906136d3565b81548110611a4c57634e487b7160e01b600052603260045260246000fd5b9060005260206000200154600014155b15611aed5760188181548110611a8257634e487b7160e01b600052603260045260246000fd5b9060005260206000200154915060186001601880549050611aa391906136d3565b81548110611ac157634e487b7160e01b600052603260045260246000fd5b90600052602060002001546018828154811061191d57634e487b7160e01b600052603260045260246000fd5b601880549192508291611b02906001906136d3565b81548110611b2057634e487b7160e01b600052603260045260246000fd5b906000526020600020015460188281548110611b4c57634e487b7160e01b600052603260045260246000fd5b6000918252602090912001555b6018805480611b7857634e487b7160e01b600052603160045260246000fd5b600190038181906000526020600020016000905590555090565b610c58838383604051602401611baa93929190613510565b60408051601f198184030181529190526020810180516001600160e01b03166307c8121760e01b179052612682565b60006001600160e01b0319821663780e9d6360e01b1480610a275750610a27826126a3565b6000908152600260205260409020546001600160a01b0316151590565b600081815260046020526040902080546001600160a01b0319166001600160a01b0384169081179091558190611c508261104a565b6001600160a01b03167f8c5be1e5ebec7d5bd14f71427d1e84f3dd0314c0f7b2291e5b200ac8c7c3b92560405160405180910390a45050565b6000611c9482611bfe565b611cf55760405162461bcd60e51b815260206004820152602c60248201527f4552433732313a206f70657261746f7220717565727920666f72206e6f6e657860448201526b34b9ba32b73a103a37b5b2b760a11b6064820152608401610772565b6000611d008361104a565b9050806001600160a01b0316846001600160a01b03161480611d3b5750836001600160a01b0316611d3084610abf565b6001600160a01b0316145b80611d6b57506001600160a01b0380821660009081526005602090815260408083209388168352929052205460ff165b949350505050565b826001600160a01b0316611d868261104a565b6001600160a01b031614611dee5760405162461bcd60e51b815260206004820152602960248201527f4552433732313a207472616e73666572206f6620746f6b656e2074686174206960448201526839903737ba1037bbb760b91b6064820152608401610772565b6001600160a01b038216611e505760405162461bcd60e51b8152602060048201526024808201527f4552433732313a207472616e7366657220746f20746865207a65726f206164646044820152637265737360e01b6064820152608401610772565b611e5b8383836126f3565b611e66600082611c1b565b6001600160a01b0383166000908152600360205260408120805460019290611e8f9084906136d3565b90915550506001600160a01b0382166000908152600360205260408120805460019290611ebd908490613688565b909155505060008181526002602052604080822080546001600160a01b0319166001600160a01b0386811691821790925591518493918716917fddf252ad1be2c89b69c2b068fc378daa952ba7f163c4a11628f55a4df523b3ef91a4505050565b600b5460ff16611f675760405162461bcd60e51b815260206004820152601460248201527314185d5cd8589b194e881b9bdd081c185d5cd95960621b6044820152606401610772565b600b805460ff191690557f5db9ee0a495bf2e6ff9c91a7834c1ba4fdd244a5e8aa4e537bd38aeae4b073aa335b6040516001600160a01b03909116815260200160405180910390a1565b612710600f5411156120055760405162461bcd60e51b815260206004820152601c60248201527f616c6c20506f7373756d732068617665206265656e206d696e746564000000006044820152606401610772565b61200f8282612744565b6120a3816011805461202090613716565b80601f016020809104026020016040519081016040528092919081815260200182805461204c90613716565b80156120995780601f1061206e57610100808354040283529160200191612099565b820191906000526020600020905b81548152906001019060200180831161207c57829003601f168201915b505050505061275e565b600f80549060006120b38361374b565b90915550506001600160a01b03821660009081526016602052604081208054916120dc8361374b565b91905055505050565b600b80546001600160a01b03838116610100818102610100600160a81b031985161790945560405193909204169182907f8be0079c531659141344cd1fd0a4f28419497f9722a3daafe3b4186f6b6457e090600090a35050565b600b5460ff16156121855760405162461bcd60e51b815260206004820152601060248201526f14185d5cd8589b194e881c185d5cd95960821b6044820152606401610772565b600b805460ff191660011790557f62e78cea01bee320cd4e420270b5ea74000d11b0c9f74754ebdbfc544b05a258611f943390565b6014546001600160a01b0316331480156121d357508115155b61221f5760405162461bcd60e51b815260206004820181905260248201527f6f6e6c792056524620436f6f7264696e61746f722063616e2066756c66696c6c6044820152606401610772565b61222b61270f82613766565b6019555050565b816001600160a01b0316836001600160a01b031614156122945760405162461bcd60e51b815260206004820152601960248201527f4552433732313a20617070726f766520746f2063616c6c6572000000000000006044820152606401610772565b6001600160a01b03838116600081815260056020908152604080832094871680845294825291829020805460ff191686151590811790915591519182527f17307eab39ab6107e8899845ad3d59bd9653f200f220920489ca2b5937696c31910160405180910390a3505050565b61230c848484611d73565b612318848484846127e9565b61159e5760405162461bcd60e51b815260040161077290613560565b606061233f82611bfe565b6123a55760405162461bcd60e51b815260206004820152603160248201527f45524337323155524953746f726167653a2055524920717565727920666f72206044820152703737b732bc34b9ba32b73a103a37b5b2b760791b6064820152608401610772565b600082815260066020526040812080546123be90613716565b80601f01602080910402602001604051908101604052809291908181526020018280546123ea90613716565b80156124375780601f1061240c57610100808354040283529160200191612437565b820191906000526020600020905b81548152906001019060200180831161241a57829003601f168201915b50505050509050600061244861177e565b905080516000141561245b575092915050565b81511561248d57808260405160200161247592919061341d565b60405160208183030381529060405292505050919050565b611d6b846128f6565b6013546040516370a0823160e01b8152306004820152600091906001600160a01b037f000000000000000000000000000000000000000000000000000000000000000016906370a082319060240160206040518083038186803b1580156124fc57600080fd5b505afa158015612510573d6000803e3d6000fd5b505050506040513d601f19601f8201168201806040525081019061253491906133d9565b101561259c5760405162461bcd60e51b815260206004820152603160248201527f4e6f7420656e6f756768204c696e6b2020696e20636f6e747261637420746f2060448201527033b2ba103930b73237b690373ab6b132b960791b6064820152608401610772565b6125aa6012546013546129c0565b905090565b60185460009081906125c26001436136d3565b6040805160208101939093529040908201526bffffffffffffffffffffffff1941606090811b82168184015244607484015233901b16609482015260a80160408051601f198184030181528282528051602091820120838301909252600d83526c3930b73237b690373ab6b132b960991b9083015260185490925061265e919060019061264f9085613766565b61265991906136d3565b612b4b565b6018546000906001906126719084613766565b61267b91906136d3565b9392505050565b80516a636f6e736f6c652e6c6f67602083016000808483855afa5050505050565b60006001600160e01b031982166380ac58cd60e01b14806126d457506001600160e01b03198216635b5e139f60e01b145b80610a2757506301ffc9a760e01b6001600160e01b0319831614610a27565b600b5460ff16156127395760405162461bcd60e51b815260206004820152601060248201526f14185d5cd8589b194e881c185d5cd95960821b6044820152606401610772565b610c58838383612b90565b610a18828260405180602001604052806000815250612c48565b61276782611bfe565b6127ca5760405162461bcd60e51b815260206004820152602e60248201527f45524337323155524953746f726167653a2055524920736574206f66206e6f6e60448201526d32bc34b9ba32b73a103a37b5b2b760911b6064820152608401610772565b60008281526006602090815260409091208251610c589284019061308e565b60006001600160a01b0384163b156128eb57604051630a85bd0160e11b81526001600160a01b0385169063150b7a029061282d90339089908890889060040161344c565b602060405180830381600087803b15801561284757600080fd5b505af1925050508015612877575060408051601f3d908101601f191682019092526128749181019061335f565b60015b6128d1573d8080156128a5576040519150601f19603f3d011682016040523d82523d6000602084013e6128aa565b606091505b5080516128c95760405162461bcd60e51b815260040161077290613560565b805181602001fd5b6001600160e01b031916630a85bd0160e11b149050611d6b565b506001949350505050565b606061290182611bfe565b6129655760405162461bcd60e51b815260206004820152602f60248201527f4552433732314d657461646174613a2055524920717565727920666f72206e6f60448201526e3732bc34b9ba32b73a103a37b5b2b760891b6064820152608401610772565b600061296f61177e565b9050600081511161298f576040518060200160405280600081525061267b565b8061299984612c7b565b6040516020016129aa92919061341d565b6040516020818303038152906040529392505050565b60007f00000000000000000000000000000000000000000000000000000000000000006001600160a01b0316634000aea07f000000000000000000000000000000000000000000000000000000000000000084866000604051602001612a30929190918252602082015260400190565b6040516020818303038152906040526040518463ffffffff1660e01b8152600401612a5d93929190613489565b602060405180830381600087803b158015612a7757600080fd5b505af1158015612a8b573d6000803e3d6000fd5b505050506040513d601f19601f82011682018060405250810190612aaf9190613306565b506000838152600c6020818152604080842054815180840189905280830186905230606082015260808082018390528351808303909101815260a090910190925281519183019190912093879052919052612b0b906001613688565b6000858152600c6020526040902055611d6b8482604080516020808201949094528082019290925280518083038201815260609092019052805191012090565b610a188282604051602401612b6192919061353e565b60408051601f198184030181529190526020810180516001600160e01b03166309710a9d60e41b179052612682565b6001600160a01b038316612beb57612be681600980546000838152600a60205260408120829055600182018355919091527f6e1540171b6c0c960b71a7020d9f60077f6af931a8bbf590da0223dacf75c7af0155565b612c0e565b816001600160a01b0316836001600160a01b031614612c0e57612c0e8382612d95565b6001600160a01b038216612c2557610c5881612e32565b826001600160a01b0316826001600160a01b031614610c5857610c588282612f0b565b612c528383612f4f565b612c5f60008484846127e9565b610c585760405162461bcd60e51b815260040161077290613560565b606081612c9f5750506040805180820190915260018152600360fc1b602082015290565b8160005b8115612cc95780612cb38161374b565b9150612cc29050600a836136a0565b9150612ca3565b60008167ffffffffffffffff811115612cf257634e487b7160e01b600052604160045260246000fd5b6040519080825280601f01601f191660200182016040528015612d1c576020820181803683370190505b5090505b8415611d6b57612d316001836136d3565b9150612d3e600a86613766565b612d49906030613688565b60f81b818381518110612d6c57634e487b7160e01b600052603260045260246000fd5b60200101906001600160f81b031916908160001a905350612d8e600a866136a0565b9450612d20565b60006001612da2846110c1565b612dac91906136d3565b600083815260086020526040902054909150808214612dff576001600160a01b03841660009081526007602090815260408083208584528252808320548484528184208190558352600890915290208190555b5060009182526008602090815260408084208490556001600160a01b039094168352600781528383209183525290812055565b600954600090612e44906001906136d3565b6000838152600a602052604081205460098054939450909284908110612e7a57634e487b7160e01b600052603260045260246000fd5b906000526020600020015490508060098381548110612ea957634e487b7160e01b600052603260045260246000fd5b6000918252602080832090910192909255828152600a90915260408082208490558582528120556009805480612eef57634e487b7160e01b600052603160045260246000fd5b6001900381819060005260206000200160009055905550505050565b6000612f16836110c1565b6001600160a01b039093166000908152600760209081526040808320868452825280832085905593825260089052919091209190915550565b6001600160a01b038216612fa55760405162461bcd60e51b815260206004820181905260248201527f4552433732313a206d696e7420746f20746865207a65726f20616464726573736044820152606401610772565b612fae81611bfe565b15612ffb5760405162461bcd60e51b815260206004820152601c60248201527f4552433732313a20746f6b656e20616c7265616479206d696e746564000000006044820152606401610772565b613007600083836126f3565b6001600160a01b0382166000908152600360205260408120805460019290613030908490613688565b909155505060008181526002602052604080822080546001600160a01b0319166001600160a01b03861690811790915590518392907fddf252ad1be2c89b69c2b068fc378daa952ba7f163c4a11628f55a4df523b3ef908290a45050565b82805461309a90613716565b90600052602060002090601f0160209004810192826130bc5760008555613102565b82601f106130d557805160ff1916838001178555613102565b82800160010185558215613102579182015b828111156131025782518255916020019190600101906130e7565b5061310e929150613112565b5090565b5b8082111561310e5760008155600101613113565b600067ffffffffffffffff80841115613142576131426137a6565b604051601f8501601f19908116603f0116810190828211818310171561316a5761316a6137a6565b8160405280935085815286868601111561318357600080fd5b858560208301376000602087830101525050509392505050565b6000602082840312156131ae578081fd5b813561267b816137bc565b600080604083850312156131cb578081fd5b82356131d6816137bc565b915060208301356131e6816137bc565b809150509250929050565b600080600060608486031215613205578081fd5b8335613210816137bc565b92506020840135613220816137bc565b929592945050506040919091013590565b60008060008060808587031215613246578081fd5b8435613251816137bc565b93506020850135613261816137bc565b925060408501359150606085013567ffffffffffffffff811115613283578182fd5b8501601f81018713613293578182fd5b6132a287823560208401613127565b91505092959194509250565b600080604083850312156132c0578182fd5b82356132cb816137bc565b915060208301356131e6816137d1565b600080604083850312156132ed578182fd5b82356132f8816137bc565b946020939093013593505050565b600060208284031215613317578081fd5b815161267b816137d1565b60008060408385031215613334578182fd5b50508035926020909101359150565b600060208284031215613354578081fd5b813561267b816137df565b600060208284031215613370578081fd5b815161267b816137df565b60006020828403121561338c578081fd5b813567ffffffffffffffff8111156133a2578182fd5b8201601f810184136133b2578182fd5b611d6b84823560208401613127565b6000602082840312156133d2578081fd5b5035919050565b6000602082840312156133ea578081fd5b5051919050565b600081518084526134098160208601602086016136ea565b601f01601f19169290920160200192915050565b6000835161342f8184602088016136ea565b8351908301906134438183602088016136ea565b01949350505050565b6001600160a01b038581168252841660208201526040810183905260806060820181905260009061347f908301846133f1565b9695505050505050565b60018060a01b03841681528260208201526060604082015260006134b060608301846133f1565b95945050505050565b6020808252825182820181905260009190848201906040850190845b818110156134f1578351835292840192918401916001016134d5565b50909695505050505050565b60208152600061267b60208301846133f1565b60608152600061352360608301866133f1565b6001600160a01b039490941660208301525060400152919050565b60408152600061355160408301856133f1565b90508260208301529392505050565b60208082526032908201527f4552433732313a207472616e7366657220746f206e6f6e20455243373231526560408201527131b2b4bb32b91034b6b83632b6b2b73a32b960711b606082015260800190565b60208082526030908201527f5468652063616c6c65722063616e206f6e6c792062652061207573657220616e60408201526f19081b9bdd08184818dbdb9d1c9858dd60821b606082015260800190565b6020808252818101527f4f776e61626c653a2063616c6c6572206973206e6f7420746865206f776e6572604082015260600190565b60208082526031908201527f4552433732313a207472616e736665722063616c6c6572206973206e6f74206f6040820152701ddb995c881b9bdc88185c1c1c9bdd9959607a1b606082015260800190565b6000821982111561369b5761369b61377a565b500190565b6000826136af576136af613790565b500490565b60008160001904831182151516156136ce576136ce61377a565b500290565b6000828210156136e5576136e561377a565b500390565b60005b838110156137055781810151838201526020016136ed565b8381111561159e5750506000910152565b600181811c9082168061372a57607f821691505b602082108114156112f857634e487b7160e01b600052602260045260246000fd5b600060001982141561375f5761375f61377a565b5060010190565b60008261377557613775613790565b500690565b634e487b7160e01b600052601160045260246000fd5b634e487b7160e01b600052601260045260246000fd5b634e487b7160e01b600052604160045260246000fd5b6001600160a01b038116811461186057600080fd5b801515811461186057600080fd5b6001600160e01b03198116811461186057600080fdfea2646970667358221220186afc64c268bece2214cda5f2ee216358d02fbfc54e04a638a402a8031ac11b64736f6c63430008040033",
  "linkReferences": {},
  "deployedLinkReferences": {}
}