{
  "_format": "hh-sol-artifact-1",
  "contractName": "TrashPossums",
  "sourceName": "contracts/TrashPossums.sol",
  "abi": [
    {
      "inputs": [
        {
          "internalType": "uint256",
          "name": "_possumPrice",
          "type": "uint256"
        },
        {
          "internalType": "uint256",
          "name": "_startMintDate",
          "type": "uint256"
        },
        {
          "internalType": "string",
          "name": "_baseUri",
          "type": "string"
        },
        {
          "internalType": "address",
          "name": "_VRFAddress",
          "type": "address"
        },
        {
          "internalType": "address",
          "name": "_linkToken",
          "type": "address"
        },
        {
          "internalType": "bytes32",
          "name": "_keyHash",
          "type": "bytes32"
        },
        {
          "internalType": "uint256",
          "name": "_fee",
          "type": "uint256"
        },
        {
          "internalType": "uint256",
          "name": "_claimDate",
          "type": "uint256"
        }
      ],
      "stateMutability": "nonpayable",
      "type": "constructor"
    },
    {
      "anonymous": false,
      "inputs": [
        {
          "indexed": true,
          "internalType": "address",
          "name": "owner",
          "type": "address"
        },
        {
          "indexed": true,
          "internalType": "address",
          "name": "approved",
          "type": "address"
        },
        {
          "indexed": true,
          "internalType": "uint256",
          "name": "tokenId",
          "type": "uint256"
        }
      ],
      "name": "Approval",
      "type": "event"
    },
    {
      "anonymous": false,
      "inputs": [
        {
          "indexed": true,
          "internalType": "address",
          "name": "owner",
          "type": "address"
        },
        {
          "indexed": true,
          "internalType": "address",
          "name": "operator",
          "type": "address"
        },
        {
          "indexed": false,
          "internalType": "bool",
          "name": "approved",
          "type": "bool"
        }
      ],
      "name": "ApprovalForAll",
      "type": "event"
    },
    {
      "anonymous": false,
      "inputs": [
        {
          "indexed": true,
          "internalType": "address",
          "name": "previousOwner",
          "type": "address"
        },
        {
          "indexed": true,
          "internalType": "address",
          "name": "newOwner",
          "type": "address"
        }
      ],
      "name": "OwnershipTransferred",
      "type": "event"
    },
    {
      "anonymous": false,
      "inputs": [
        {
          "indexed": false,
          "internalType": "address",
          "name": "account",
          "type": "address"
        }
      ],
      "name": "Paused",
      "type": "event"
    },
    {
      "anonymous": false,
      "inputs": [
        {
          "indexed": true,
          "internalType": "address",
          "name": "from",
          "type": "address"
        },
        {
          "indexed": true,
          "internalType": "address",
          "name": "to",
          "type": "address"
        },
        {
          "indexed": true,
          "internalType": "uint256",
          "name": "tokenId",
          "type": "uint256"
        }
      ],
      "name": "Transfer",
      "type": "event"
    },
    {
      "anonymous": false,
      "inputs": [
        {
          "indexed": false,
          "internalType": "address",
          "name": "account",
          "type": "address"
        }
      ],
      "name": "Unpaused",
      "type": "event"
    },
    {
      "inputs": [
        {
          "internalType": "address",
          "name": "to",
          "type": "address"
        },
        {
          "internalType": "uint256",
          "name": "tokenId",
          "type": "uint256"
        }
      ],
      "name": "approve",
      "outputs": [],
      "stateMutability": "nonpayable",
      "type": "function"
    },
    {
      "inputs": [
        {
          "internalType": "address",
          "name": "owner",
          "type": "address"
        }
      ],
      "name": "balanceOf",
      "outputs": [
        {
          "internalType": "uint256",
          "name": "",
          "type": "uint256"
        }
      ],
      "stateMutability": "view",
      "type": "function"
    },
    {
      "inputs": [],
      "name": "baseTokenURI",
      "outputs": [
        {
          "internalType": "string",
          "name": "",
          "type": "string"
        }
      ],
      "stateMutability": "view",
      "type": "function"
    },
    {
      "inputs": [],
      "name": "claimPossums",
      "outputs": [],
      "stateMutability": "nonpayable",
      "type": "function"
    },
    {
      "inputs": [],
      "name": "executeOffset",
      "outputs": [],
      "stateMutability": "nonpayable",
      "type": "function"
    },
    {
      "inputs": [
        {
          "internalType": "uint256",
          "name": "tokenId",
          "type": "uint256"
        }
      ],
      "name": "getApproved",
      "outputs": [
        {
          "internalType": "address",
          "name": "",
          "type": "address"
        }
      ],
      "stateMutability": "view",
      "type": "function"
    },
    {
      "inputs": [],
      "name": "getClaimDate",
      "outputs": [
        {
          "internalType": "uint256",
          "name": "",
          "type": "uint256"
        }
      ],
      "stateMutability": "view",
      "type": "function"
    },
    {
      "inputs": [],
      "name": "getMintingStartDate",
      "outputs": [
        {
          "internalType": "uint256",
          "name": "",
          "type": "uint256"
        }
      ],
      "stateMutability": "view",
      "type": "function"
    },
    {
      "inputs": [],
      "name": "getNumberOfAvailablePossums",
      "outputs": [
        {
          "internalType": "uint256",
          "name": "",
          "type": "uint256"
        }
      ],
      "stateMutability": "view",
      "type": "function"
    },
    {
      "inputs": [
        {
          "internalType": "address",
          "name": "_wallet",
          "type": "address"
        }
      ],
      "name": "getNumberOfReservedPossums",
      "outputs": [
        {
          "internalType": "uint256",
          "name": "",
          "type": "uint256"
        }
      ],
      "stateMutability": "view",
      "type": "function"
    },
    {
      "inputs": [],
      "name": "getOffset",
      "outputs": [
        {
          "internalType": "uint256",
          "name": "",
          "type": "uint256"
        }
      ],
      "stateMutability": "view",
      "type": "function"
    },
    {
      "inputs": [],
      "name": "getPossumPrice",
      "outputs": [
        {
          "internalType": "uint256",
          "name": "",
          "type": "uint256"
        }
      ],
      "stateMutability": "view",
      "type": "function"
    },
    {
      "inputs": [
        {
          "internalType": "address",
          "name": "_wallet",
          "type": "address"
        }
      ],
      "name": "getReservedPossumIds",
      "outputs": [
        {
          "internalType": "uint256[]",
          "name": "reservedIds",
          "type": "uint256[]"
        }
      ],
      "stateMutability": "view",
      "type": "function"
    },
    {
      "inputs": [
        {
          "internalType": "address",
          "name": "owner",
          "type": "address"
        },
        {
          "internalType": "address",
          "name": "operator",
          "type": "address"
        }
      ],
      "name": "isApprovedForAll",
      "outputs": [
        {
          "internalType": "bool",
          "name": "",
          "type": "bool"
        }
      ],
      "stateMutability": "view",
      "type": "function"
    },
    {
      "inputs": [],
      "name": "maxPossumsPerWallet",
      "outputs": [
        {
          "internalType": "uint256",
          "name": "",
          "type": "uint256"
        }
      ],
      "stateMutability": "view",
      "type": "function"
    },
    {
      "inputs": [],
      "name": "name",
      "outputs": [
        {
          "internalType": "string",
          "name": "",
          "type": "string"
        }
      ],
      "stateMutability": "view",
      "type": "function"
    },
    {
      "inputs": [],
      "name": "owner",
      "outputs": [
        {
          "internalType": "address",
          "name": "",
          "type": "address"
        }
      ],
      "stateMutability": "view",
      "type": "function"
    },
    {
      "inputs": [
        {
          "internalType": "uint256",
          "name": "tokenId",
          "type": "uint256"
        }
      ],
      "name": "ownerOf",
      "outputs": [
        {
          "internalType": "address",
          "name": "",
          "type": "address"
        }
      ],
      "stateMutability": "view",
      "type": "function"
    },
    {
      "inputs": [],
      "name": "pause",
      "outputs": [],
      "stateMutability": "nonpayable",
      "type": "function"
    },
    {
      "inputs": [],
      "name": "paused",
      "outputs": [
        {
          "internalType": "bool",
          "name": "",
          "type": "bool"
        }
      ],
      "stateMutability": "view",
      "type": "function"
    },
    {
      "inputs": [],
      "name": "premintPossums",
      "outputs": [],
      "stateMutability": "nonpayable",
      "type": "function"
    },
    {
      "inputs": [
        {
          "internalType": "bytes32",
          "name": "requestId",
          "type": "bytes32"
        },
        {
          "internalType": "uint256",
          "name": "randomness",
          "type": "uint256"
        }
      ],
      "name": "rawFulfillRandomness",
      "outputs": [],
      "stateMutability": "nonpayable",
      "type": "function"
    },
    {
      "inputs": [],
      "name": "renounceOwnership",
      "outputs": [],
      "stateMutability": "nonpayable",
      "type": "function"
    },
    {
      "inputs": [
        {
          "internalType": "uint256",
          "name": "amount",
          "type": "uint256"
        }
      ],
      "name": "reservePossums",
      "outputs": [],
      "stateMutability": "payable",
      "type": "function"
    },
    {
      "inputs": [
        {
          "internalType": "address",
          "name": "from",
          "type": "address"
        },
        {
          "internalType": "address",
          "name": "to",
          "type": "address"
        },
        {
          "internalType": "uint256",
          "name": "tokenId",
          "type": "uint256"
        }
      ],
      "name": "safeTransferFrom",
      "outputs": [],
      "stateMutability": "nonpayable",
      "type": "function"
    },
    {
      "inputs": [
        {
          "internalType": "address",
          "name": "from",
          "type": "address"
        },
        {
          "internalType": "address",
          "name": "to",
          "type": "address"
        },
        {
          "internalType": "uint256",
          "name": "tokenId",
          "type": "uint256"
        },
        {
          "internalType": "bytes",
          "name": "_data",
          "type": "bytes"
        }
      ],
      "name": "safeTransferFrom",
      "outputs": [],
      "stateMutability": "nonpayable",
      "type": "function"
    },
    {
      "inputs": [
        {
          "internalType": "address",
          "name": "operator",
          "type": "address"
        },
        {
          "internalType": "bool",
          "name": "approved",
          "type": "bool"
        }
      ],
      "name": "setApprovalForAll",
      "outputs": [],
      "stateMutability": "nonpayable",
      "type": "function"
    },
    {
      "inputs": [
        {
          "internalType": "string",
          "name": "_uri",
          "type": "string"
        }
      ],
      "name": "setBaseTokenURI",
      "outputs": [],
      "stateMutability": "nonpayable",
      "type": "function"
    },
    {
      "inputs": [
        {
          "internalType": "uint256",
          "name": "_possumPrice",
          "type": "uint256"
        }
      ],
      "name": "setPossumPrice",
      "outputs": [],
      "stateMutability": "nonpayable",
      "type": "function"
    },
    {
      "inputs": [
        {
          "internalType": "bytes4",
          "name": "interfaceId",
          "type": "bytes4"
        }
      ],
      "name": "supportsInterface",
      "outputs": [
        {
          "internalType": "bool",
          "name": "",
          "type": "bool"
        }
      ],
      "stateMutability": "view",
      "type": "function"
    },
    {
      "inputs": [],
      "name": "symbol",
      "outputs": [
        {
          "internalType": "string",
          "name": "",
          "type": "string"
        }
      ],
      "stateMutability": "view",
      "type": "function"
    },
    {
      "inputs": [
        {
          "internalType": "uint256",
          "name": "index",
          "type": "uint256"
        }
      ],
      "name": "tokenByIndex",
      "outputs": [
        {
          "internalType": "uint256",
          "name": "",
          "type": "uint256"
        }
      ],
      "stateMutability": "view",
      "type": "function"
    },
    {
      "inputs": [
        {
          "internalType": "address",
          "name": "owner",
          "type": "address"
        },
        {
          "internalType": "uint256",
          "name": "index",
          "type": "uint256"
        }
      ],
      "name": "tokenOfOwnerByIndex",
      "outputs": [
        {
          "internalType": "uint256",
          "name": "",
          "type": "uint256"
        }
      ],
      "stateMutability": "view",
      "type": "function"
    },
    {
      "inputs": [
        {
          "internalType": "uint256",
          "name": "tokenId",
          "type": "uint256"
        }
      ],
      "name": "tokenURI",
      "outputs": [
        {
          "internalType": "string",
          "name": "",
          "type": "string"
        }
      ],
      "stateMutability": "view",
      "type": "function"
    },
    {
      "inputs": [],
      "name": "totalPossums",
      "outputs": [
        {
          "internalType": "uint256",
          "name": "",
          "type": "uint256"
        }
      ],
      "stateMutability": "view",
      "type": "function"
    },
    {
      "inputs": [],
      "name": "totalSupply",
      "outputs": [
        {
          "internalType": "uint256",
          "name": "",
          "type": "uint256"
        }
      ],
      "stateMutability": "view",
      "type": "function"
    },
    {
      "inputs": [
        {
          "internalType": "address",
          "name": "from",
          "type": "address"
        },
        {
          "internalType": "address",
          "name": "to",
          "type": "address"
        },
        {
          "internalType": "uint256",
          "name": "tokenId",
          "type": "uint256"
        }
      ],
      "name": "transferFrom",
      "outputs": [],
      "stateMutability": "nonpayable",
      "type": "function"
    },
    {
      "inputs": [
        {
          "internalType": "address",
          "name": "newOwner",
          "type": "address"
        }
      ],
      "name": "transferOwnership",
      "outputs": [],
      "stateMutability": "nonpayable",
      "type": "function"
    },
    {
      "inputs": [],
      "name": "unpause",
      "outputs": [],
      "stateMutability": "nonpayable",
      "type": "function"
    },
    {
      "inputs": [],
      "name": "withdraw",
      "outputs": [],
      "stateMutability": "nonpayable",
      "type": "function"
    },
    {
      "inputs": [
        {
          "internalType": "contract IERC20",
          "name": "token",
          "type": "address"
        },
        {
          "internalType": "uint256",
          "name": "_amount",
          "type": "uint256"
        }
      ],
      "name": "withdrawErc20",
      "outputs": [],
      "stateMutability": "nonpayable",
      "type": "function"
    },
    {
      "stateMutability": "payable",
      "type": "receive"
    }
  ],
  "bytecode": "0x61271060c08181526204e2e06040529060e06204e200803683375050815162000030926018925060200190620001b0565b503480156200003e57600080fd5b5060405162003c6338038062003c638339810160408190526200006191620002b0565b604080518082018252600d81526c547261736820506f7373756d7360981b60208083019182528351808501909452600584526454504f535360d81b90840152815188938893929091620000b79160009162000200565b508051620000cd90600190602084019062000200565b5050600b805460ff1916905550620000e53362000156565b6001600160601b0319606092831b811660a052911b16608052600e889055600d87905585516200011d90601190602089019062000200565b50601292909255601355601480546001600160a01b0319166001600160a01b039490941693909317909255506015555062000433915050565b600b80546001600160a01b03838116610100818102610100600160a81b031985161790945560405193909204169182907f8be0079c531659141344cd1fd0a4f28419497f9722a3daafe3b4186f6b6457e090600090a35050565b828054828255906000526020600020908101928215620001ee579160200282015b82811115620001ee578251825591602001919060010190620001d1565b50620001fc9291506200027c565b5090565b8280546200020e90620003e0565b90600052602060002090601f016020900481019282620002325760008555620001ee565b82601f106200024d57805160ff1916838001178555620001ee565b82800160010185558215620001ee5791820182811115620001ee578251825591602001919060010190620001d1565b5b80821115620001fc57600081556001016200027d565b80516001600160a01b0381168114620002ab57600080fd5b919050565b600080600080600080600080610100898b031215620002cd578384fd5b88516020808b015160408c0151929a509850906001600160401b0380821115620002f5578687fd5b818c0191508c601f83011262000309578687fd5b8151818111156200031e576200031e6200041d565b604051601f8201601f19908116603f011681019083821181831017156200034957620003496200041d565b816040528281528f868487010111156200036157898afd5b8993505b8284101562000384578484018601518185018701529285019262000365565b828411156200039557898684830101525b809b50505050505050620003ac60608a0162000293565b9450620003bc60808a0162000293565b935060a0890151925060c0890151915060e089015190509295985092959890939650565b600181811c90821680620003f557607f821691505b602082108114156200041757634e487b7160e01b600052602260045260246000fd5b50919050565b634e487b7160e01b600052604160045260246000fd5b60805160601c60a05160601c6137f66200046d6000396000818161131e01526129be015260008181612492015261298f01526137f66000f3fe6080604052600436106102495760003560e01c80637fd3352e11610139578063b88d4fde116100b6578063dca772841161007a578063dca7728414610647578063e985e9c514610667578063eace0561146106b0578063ead17506146106e6578063eb6ad24e146106fb578063f2fde38b1461071057600080fd5b8063b88d4fde146105bd578063bd1f4b52146105dd578063c87b56dd146105fd578063cdbfc9501461061d578063d547cfb71461063257600080fd5b806395d89b41116100fd57806395d89b4114610549578063a22cb4651461055e578063b031b35b1461057e578063b37cb09d14610593578063b59bb11e146105a857600080fd5b80637fd3352e146104af57806384511aff146104dc5780638456cb59146104f15780638da5cb5b1461050657806394985ddd1461052957600080fd5b80633f4ba83a116101c75780635c975abb1161018b5780635c975abb1461042d5780636352211e1461044557806370a0823114610465578063715018a614610485578063723bcc131461049a57600080fd5b80633f4ba83a146103ad578063416c585d146103c257806342842e0e146103d75780634f6ccce7146103f75780635b46a8f21461041757600080fd5b806318160ddd1161020e57806318160ddd1461031957806323b872dd146103385780632f745c591461035857806330176e13146103785780633ccfd60b1461039857600080fd5b806261b0ec1461025557806301ffc9a71461026a57806306fdde031461029f578063081812fc146102c1578063095ea7b3146102f957600080fd5b3661025057005b600080fd5b61026861026336600461338c565b610730565b005b34801561027657600080fd5b5061028a61028536600461330e565b6109f9565b60405190151581526020015b60405180910390f35b3480156102ab57600080fd5b506102b4610a0a565b60405161029691906134c8565b3480156102cd57600080fd5b506102e16102dc36600461338c565b610a9c565b6040516001600160a01b039091168152602001610296565b34801561030557600080fd5b506102686103143660046132a6565b610b24565b34801561032557600080fd5b50600f545b604051908152602001610296565b34801561034457600080fd5b506102686103533660046131bc565b610c3a565b34801561036457600080fd5b5061032a6103733660046132a6565b610c6b565b34801561038457600080fd5b50610268610393366004613346565b610d01565b3480156103a457600080fd5b50610268610d44565b3480156103b957600080fd5b50610268610da3565b3480156103ce57600080fd5b50610268610ddd565b3480156103e357600080fd5b506102686103f23660046131bc565b610f6b565b34801561040357600080fd5b5061032a61041236600461338c565b610f86565b34801561042357600080fd5b5061032a61271081565b34801561043957600080fd5b50600b5460ff1661028a565b34801561045157600080fd5b506102e161046036600461338c565b611027565b34801561047157600080fd5b5061032a610480366004613168565b61109e565b34801561049157600080fd5b50610268611125565b3480156104a657600080fd5b50600e5461032a565b3480156104bb57600080fd5b506104cf6104ca366004613168565b61115f565b6040516102969190613484565b3480156104e857600080fd5b5061032a603681565b3480156104fd57600080fd5b506102686112db565b34801561051257600080fd5b50600b5461010090046001600160a01b03166102e1565b34801561053557600080fd5b506102686105443660046132ed565b611313565b34801561055557600080fd5b506102b4611395565b34801561056a57600080fd5b50610268610579366004613279565b6113a4565b34801561058a57600080fd5b506102686113af565b34801561059f57600080fd5b5060155461032a565b3480156105b457600080fd5b5060185461032a565b3480156105c957600080fd5b506102686105d83660046131fc565b611549565b3480156105e957600080fd5b506102686105f83660046132a6565b611581565b34801561060957600080fd5b506102b461061836600461338c565b61170a565b34801561062957600080fd5b50610268611715565b34801561063e57600080fd5b506102b4611756565b34801561065357600080fd5b5061026861066236600461338c565b611765565b34801561067357600080fd5b5061028a610682366004613184565b6001600160a01b03918216600090815260056020908152604080832093909416825291909152205460ff1690565b3480156106bc57600080fd5b5061032a6106cb366004613168565b6001600160a01b031660009081526017602052604090205490565b3480156106f257600080fd5b50600d5461032a565b34801561070757600080fd5b5060195461032a565b34801561071c57600080fd5b5061026861072b366004613168565b61179a565b3233146107585760405162461bcd60e51b815260040161074f9061357d565b60405180910390fd5b600d541580159061076b575043600d5411155b6107ab5760405162461bcd60e51b8152602060048201526011602482015270596f752061726520746f6f206561726c7960781b604482015260640161074f565b80600e546107b9919061367f565b34101561081a5760405162461bcd60e51b815260206004820152602960248201527f4e6f7420656e6f75676820457468657220746f207265736572766520746865736044820152686520706f7373756d7360b81b606482015260840161074f565b6000811161086a5760405162461bcd60e51b815260206004820152601b60248201527f6e65656420746f206d696e74206174206c656173742031204e46540000000000604482015260640161074f565b33600090815260166020526040902054603690610888908390613653565b11156108d65760405162461bcd60e51b815260206004820152601f60248201527f596f752063616e6e6f742072657365727665206d6f726520706f7373756d7300604482015260640161074f565b60185481111561091a5760405162461bcd60e51b815260206004820152600f60248201526e139bc8141bdcdcdd5b5cc81b19599d608a1b604482015260640161074f565b601b8111156109645760405162461bcd60e51b815260206004820152601660248201527526b0bc10191b903832b9103a3930b739b0b1ba34b7b760511b604482015260640161074f565b6019541561097157600080fd5b60005b818110156109f557600061098661183b565b33600081815260176020908152604080832080546001810182559084529282902090920184905581518083019092526013825272726573657276696e6720706f7373756d20746f60681b908201529192506109e2919083611b6a565b50806109ed81613716565b915050610974565b5050565b6000610a0482611bb1565b92915050565b606060008054610a19906136e1565b80601f0160208091040260200160405190810160405280929190818152602001828054610a45906136e1565b8015610a925780601f10610a6757610100808354040283529160200191610a92565b820191906000526020600020905b815481529060010190602001808311610a7557829003601f168201915b5050505050905090565b6000610aa782611bd6565b610b085760405162461bcd60e51b815260206004820152602c60248201527f4552433732313a20617070726f76656420717565727920666f72206e6f6e657860448201526b34b9ba32b73a103a37b5b2b760a11b606482015260840161074f565b506000908152600460205260409020546001600160a01b031690565b6000610b2f82611027565b9050806001600160a01b0316836001600160a01b03161415610b9d5760405162461bcd60e51b815260206004820152602160248201527f4552433732313a20617070726f76616c20746f2063757272656e74206f776e656044820152603960f91b606482015260840161074f565b336001600160a01b0382161480610bb95750610bb98133610682565b610c2b5760405162461bcd60e51b815260206004820152603860248201527f4552433732313a20617070726f76652063616c6c6572206973206e6f74206f7760448201527f6e6572206e6f7220617070726f76656420666f7220616c6c0000000000000000606482015260840161074f565b610c358383611bf3565b505050565b610c443382611c61565b610c605760405162461bcd60e51b815260040161074f90613602565b610c35838383611d4b565b6000610c768361109e565b8210610cd85760405162461bcd60e51b815260206004820152602b60248201527f455243373231456e756d657261626c653a206f776e657220696e646578206f7560448201526a74206f6620626f756e647360a81b606482015260840161074f565b506001600160a01b03919091166000908152600760209081526040808320938352929052205490565b600b546001600160a01b03610100909104163314610d315760405162461bcd60e51b815260040161074f906135cd565b80516109f5906011906020840190613059565b600b546001600160a01b03610100909104163314610d745760405162461bcd60e51b815260040161074f906135cd565b6040514790339082156108fc029083906000818181858888f193505050501580156109f5573d6000803e3d6000fd5b600b546001600160a01b03610100909104163314610dd35760405162461bcd60e51b815260040161074f906135cd565b610ddb611ef6565b565b600b546001600160a01b03610100909104163314610e0d5760405162461bcd60e51b815260040161074f906135cd565b60105460ff1615610e6e5760405162461bcd60e51b815260206004820152602560248201527f596f752063616e206f6e6c79207072656d696e742074686520506f7373756d73604482015264206f6e636560d81b606482015260840161074f565b60185460641115610ec15760405162461bcd60e51b815260206004820152601d60248201527f4e6f20506f7373756d73206c65667420746f20626520636c61696d6564000000604482015260640161074f565b60005b6064811015610f5b57610ed73382611f89565b601854610ee69060019061369e565b60188281548110610f0757634e487b7160e01b600052603260045260246000fd5b6000918252602090912001556018805480610f3257634e487b7160e01b600052603160045260246000fd5b600190038181906000526020600020016000905590558080610f5390613716565b915050610ec4565b506010805460ff19166001179055565b610c3583838360405180602001604052806000815250611549565b6000610f9160095490565b8210610ff45760405162461bcd60e51b815260206004820152602c60248201527f455243373231456e756d657261626c653a20676c6f62616c20696e646578206f60448201526b7574206f6620626f756e647360a01b606482015260840161074f565b6009828154811061101557634e487b7160e01b600052603260045260246000fd5b90600052602060002001549050919050565b6000818152600260205260408120546001600160a01b031680610a045760405162461bcd60e51b815260206004820152602960248201527f4552433732313a206f776e657220717565727920666f72206e6f6e657869737460448201526832b73a103a37b5b2b760b91b606482015260840161074f565b60006001600160a01b0382166111095760405162461bcd60e51b815260206004820152602a60248201527f4552433732313a2062616c616e636520717565727920666f7220746865207a65604482015269726f206164647265737360b01b606482015260840161074f565b506001600160a01b031660009081526003602052604090205490565b600b546001600160a01b036101009091041633146111555760405162461bcd60e51b815260040161074f906135cd565b610ddb60006120bd565b6001600160a01b0381166000908152601760205260409020546060906111c75760405162461bcd60e51b815260206004820152601e60248201527f57616c6c657420686173206e6f20726573657276656420706f7373756d730000604482015260640161074f565b6001600160a01b03821660009081526017602052604090205467ffffffffffffffff81111561120657634e487b7160e01b600052604160045260246000fd5b60405190808252806020026020018201604052801561122f578160200160208202803683370190505b50905060005b6001600160a01b0383166000908152601760205260409020548110156112d5576001600160a01b038316600090815260176020526040902080548290811061128d57634e487b7160e01b600052603260045260246000fd5b90600052602060002001548282815181106112b857634e487b7160e01b600052603260045260246000fd5b6020908102919091010152806112cd81613716565b915050611235565b50919050565b600b546001600160a01b0361010090910416331461130b5760405162461bcd60e51b815260040161074f906135cd565b610ddb612117565b336001600160a01b037f0000000000000000000000000000000000000000000000000000000000000000161461138b5760405162461bcd60e51b815260206004820152601f60248201527f4f6e6c7920565246436f6f7264696e61746f722063616e2066756c66696c6c00604482015260640161074f565b6109f58282612192565b606060018054610a19906136e1565b6109f533838361220a565b3233146113ce5760405162461bcd60e51b815260040161074f9061357d565b3360009081526017602052604090205461142a5760405162461bcd60e51b815260206004820152601c60248201527f796f752068617665206e6f20726573657276656420706f7373756d7300000000604482015260640161074f565b6019546114795760405162461bcd60e51b815260206004820152601f60248201527f506f7373756d73206e6f7420726561647920746f20626520636c61696d656400604482015260640161074f565b6000805b336000908152601760205260409020548110156109f5576019543360009081526017602052604081208054919291849081106114c957634e487b7160e01b600052603260045260246000fd5b90600052602060002001546114de9190613653565b90506114ed600161271061369e565b811115611528576115006001606461369e565b61150d600161271061369e565b611517908361369e565b6115219190613653565b925061152c565b8092505b6115363384611f89565b508061154181613716565b91505061147d565b6115533383611c61565b61156f5760405162461bcd60e51b815260040161074f90613602565b61157b848484846122d9565b50505050565b600b546001600160a01b036101009091041633146115b15760405162461bcd60e51b815260040161074f906135cd565b6040516370a0823160e01b81523060048201526000906001600160a01b038416906370a082319060240160206040518083038186803b1580156115f357600080fd5b505afa158015611607573d6000803e3d6000fd5b505050506040513d601f19601f8201168201806040525081019061162b91906133a4565b1161168a5760405162461bcd60e51b815260206004820152602960248201527f7468697320636f6e747261637420646f6573206e6f7420636f6e7461696e20746044820152683434b9903a37b5b2b760b91b606482015260840161074f565b60405163a9059cbb60e01b8152336004820152602481018290526001600160a01b0383169063a9059cbb90604401602060405180830381600087803b1580156116d257600080fd5b505af11580156116e6573d6000803e3d6000fd5b505050506040513d601f19601f82011682018060405250810190610c3591906132d1565b6060610a048261230c565b601a5460ff161561172557600080fd5b6018541580611735575060155443115b61173e57600080fd5b61174661246e565b50601a805460ff19166001179055565b606060118054610a19906136e1565b600b546001600160a01b036101009091041633146117955760405162461bcd60e51b815260040161074f906135cd565b600e55565b600b546001600160a01b036101009091041633146117ca5760405162461bcd60e51b815260040161074f906135cd565b6001600160a01b03811661182f5760405162461bcd60e51b815260206004820152602660248201527f4f776e61626c653a206e6577206f776e657220697320746865207a65726f206160448201526564647265737360d01b606482015260840161074f565b611838816120bd565b50565b600080611846612587565b90506018818154811061186957634e487b7160e01b600052603260045260246000fd5b906000526020600020015460001480156118bb57506018805461188e9060019061369e565b815481106118ac57634e487b7160e01b600052603260045260246000fd5b90600052602060002001546000145b156119065760185490915081906118d49060019061369e565b601882815481106118f557634e487b7160e01b600052603260045260246000fd5b600091825260209091200155611b31565b6018818154811061192757634e487b7160e01b600052603260045260246000fd5b906000526020600020015460001415801561197a57506018805461194d9060019061369e565b8154811061196b57634e487b7160e01b600052603260045260246000fd5b90600052602060002001546000145b156119bf57601881815481106119a057634e487b7160e01b600052603260045260246000fd5b9060005260206000200154915060016018805490506118d4919061369e565b601881815481106119e057634e487b7160e01b600052603260045260246000fd5b9060005260206000200154600014158015611a34575060188054611a069060019061369e565b81548110611a2457634e487b7160e01b600052603260045260246000fd5b9060005260206000200154600014155b15611ac55760188181548110611a5a57634e487b7160e01b600052603260045260246000fd5b9060005260206000200154915060186001601880549050611a7b919061369e565b81548110611a9957634e487b7160e01b600052603260045260246000fd5b9060005260206000200154601882815481106118f557634e487b7160e01b600052603260045260246000fd5b601880549192508291611ada9060019061369e565b81548110611af857634e487b7160e01b600052603260045260246000fd5b906000526020600020015460188281548110611b2457634e487b7160e01b600052603260045260246000fd5b6000918252602090912001555b6018805480611b5057634e487b7160e01b600052603160045260246000fd5b600190038181906000526020600020016000905590555090565b610c35838383604051602401611b82939291906134db565b60408051601f198184030181529190526020810180516001600160e01b03166307c8121760e01b17905261264d565b60006001600160e01b0319821663780e9d6360e01b1480610a045750610a048261266e565b6000908152600260205260409020546001600160a01b0316151590565b600081815260046020526040902080546001600160a01b0319166001600160a01b0384169081179091558190611c2882611027565b6001600160a01b03167f8c5be1e5ebec7d5bd14f71427d1e84f3dd0314c0f7b2291e5b200ac8c7c3b92560405160405180910390a45050565b6000611c6c82611bd6565b611ccd5760405162461bcd60e51b815260206004820152602c60248201527f4552433732313a206f70657261746f7220717565727920666f72206e6f6e657860448201526b34b9ba32b73a103a37b5b2b760a11b606482015260840161074f565b6000611cd883611027565b9050806001600160a01b0316846001600160a01b03161480611d135750836001600160a01b0316611d0884610a9c565b6001600160a01b0316145b80611d4357506001600160a01b0380821660009081526005602090815260408083209388168352929052205460ff165b949350505050565b826001600160a01b0316611d5e82611027565b6001600160a01b031614611dc65760405162461bcd60e51b815260206004820152602960248201527f4552433732313a207472616e73666572206f6620746f6b656e2074686174206960448201526839903737ba1037bbb760b91b606482015260840161074f565b6001600160a01b038216611e285760405162461bcd60e51b8152602060048201526024808201527f4552433732313a207472616e7366657220746f20746865207a65726f206164646044820152637265737360e01b606482015260840161074f565b611e338383836126be565b611e3e600082611bf3565b6001600160a01b0383166000908152600360205260408120805460019290611e6790849061369e565b90915550506001600160a01b0382166000908152600360205260408120805460019290611e95908490613653565b909155505060008181526002602052604080822080546001600160a01b0319166001600160a01b0386811691821790925591518493918716917fddf252ad1be2c89b69c2b068fc378daa952ba7f163c4a11628f55a4df523b3ef91a4505050565b600b5460ff16611f3f5760405162461bcd60e51b815260206004820152601460248201527314185d5cd8589b194e881b9bdd081c185d5cd95960621b604482015260640161074f565b600b805460ff191690557f5db9ee0a495bf2e6ff9c91a7834c1ba4fdd244a5e8aa4e537bd38aeae4b073aa335b6040516001600160a01b03909116815260200160405180910390a1565b612710600f541115611fdd5760405162461bcd60e51b815260206004820152601c60248201527f616c6c20506f7373756d732068617665206265656e206d696e74656400000000604482015260640161074f565b611fe7828261270f565b61207b8160118054611ff8906136e1565b80601f0160208091040260200160405190810160405280929190818152602001828054612024906136e1565b80156120715780601f1061204657610100808354040283529160200191612071565b820191906000526020600020905b81548152906001019060200180831161205457829003601f168201915b5050505050612729565b600f805490600061208b83613716565b90915550506001600160a01b03821660009081526016602052604081208054916120b483613716565b91905055505050565b600b80546001600160a01b03838116610100818102610100600160a81b031985161790945560405193909204169182907f8be0079c531659141344cd1fd0a4f28419497f9722a3daafe3b4186f6b6457e090600090a35050565b600b5460ff161561215d5760405162461bcd60e51b815260206004820152601060248201526f14185d5cd8589b194e881c185d5cd95960821b604482015260640161074f565b600b805460ff191660011790557f62e78cea01bee320cd4e420270b5ea74000d11b0c9f74754ebdbfc544b05a258611f6c3390565b6014546001600160a01b0316331480156121ab57508115155b6121f75760405162461bcd60e51b815260206004820181905260248201527f6f6e6c792056524620436f6f7264696e61746f722063616e2066756c66696c6c604482015260640161074f565b61220361270f82613731565b6019555050565b816001600160a01b0316836001600160a01b0316141561226c5760405162461bcd60e51b815260206004820152601960248201527f4552433732313a20617070726f766520746f2063616c6c657200000000000000604482015260640161074f565b6001600160a01b03838116600081815260056020908152604080832094871680845294825291829020805460ff191686151590811790915591519182527f17307eab39ab6107e8899845ad3d59bd9653f200f220920489ca2b5937696c31910160405180910390a3505050565b6122e4848484611d4b565b6122f0848484846127b4565b61157b5760405162461bcd60e51b815260040161074f9061352b565b606061231782611bd6565b61237d5760405162461bcd60e51b815260206004820152603160248201527f45524337323155524953746f726167653a2055524920717565727920666f72206044820152703737b732bc34b9ba32b73a103a37b5b2b760791b606482015260840161074f565b60008281526006602052604081208054612396906136e1565b80601f01602080910402602001604051908101604052809291908181526020018280546123c2906136e1565b801561240f5780601f106123e45761010080835404028352916020019161240f565b820191906000526020600020905b8154815290600101906020018083116123f257829003601f168201915b505050505090506000612420611756565b9050805160001415612433575092915050565b81511561246557808260405160200161244d9291906133e8565b60405160208183030381529060405292505050919050565b611d43846128c1565b6013546040516370a0823160e01b8152306004820152600091906001600160a01b037f000000000000000000000000000000000000000000000000000000000000000016906370a082319060240160206040518083038186803b1580156124d457600080fd5b505afa1580156124e8573d6000803e3d6000fd5b505050506040513d601f19601f8201168201806040525081019061250c91906133a4565b10156125745760405162461bcd60e51b815260206004820152603160248201527f4e6f7420656e6f756768204c696e6b2020696e20636f6e747261637420746f2060448201527033b2ba103930b73237b690373ab6b132b960791b606482015260840161074f565b61258260125460135461298b565b905090565b601854600090819061259a60014361369e565b6040805160208101939093529040908201526bffffffffffffffffffffffff1941606090811b82168184015244607484015233901b16609482015260a80160408051601f198184030181528282528051602091820120838301909252600d83526c3930b73237b690373ab6b132b960991b9083015260185490925061262991906126249084613731565b612b16565b60185460009060019061263c9084613731565b612646919061369e565b9392505050565b80516a636f6e736f6c652e6c6f67602083016000808483855afa5050505050565b60006001600160e01b031982166380ac58cd60e01b148061269f57506001600160e01b03198216635b5e139f60e01b145b80610a0457506301ffc9a760e01b6001600160e01b0319831614610a04565b600b5460ff16156127045760405162461bcd60e51b815260206004820152601060248201526f14185d5cd8589b194e881c185d5cd95960821b604482015260640161074f565b610c35838383612b5b565b6109f5828260405180602001604052806000815250612c13565b61273282611bd6565b6127955760405162461bcd60e51b815260206004820152602e60248201527f45524337323155524953746f726167653a2055524920736574206f66206e6f6e60448201526d32bc34b9ba32b73a103a37b5b2b760911b606482015260840161074f565b60008281526006602090815260409091208251610c3592840190613059565b60006001600160a01b0384163b156128b657604051630a85bd0160e11b81526001600160a01b0385169063150b7a02906127f8903390899088908890600401613417565b602060405180830381600087803b15801561281257600080fd5b505af1925050508015612842575060408051601f3d908101601f1916820190925261283f9181019061332a565b60015b61289c573d808015612870576040519150601f19603f3d011682016040523d82523d6000602084013e612875565b606091505b5080516128945760405162461bcd60e51b815260040161074f9061352b565b805181602001fd5b6001600160e01b031916630a85bd0160e11b149050611d43565b506001949350505050565b60606128cc82611bd6565b6129305760405162461bcd60e51b815260206004820152602f60248201527f4552433732314d657461646174613a2055524920717565727920666f72206e6f60448201526e3732bc34b9ba32b73a103a37b5b2b760891b606482015260840161074f565b600061293a611756565b9050600081511161295a5760405180602001604052806000815250612646565b8061296484612c46565b6040516020016129759291906133e8565b6040516020818303038152906040529392505050565b60007f00000000000000000000000000000000000000000000000000000000000000006001600160a01b0316634000aea07f0000000000000000000000000000000000000000000000000000000000000000848660006040516020016129fb929190918252602082015260400190565b6040516020818303038152906040526040518463ffffffff1660e01b8152600401612a2893929190613454565b602060405180830381600087803b158015612a4257600080fd5b505af1158015612a56573d6000803e3d6000fd5b505050506040513d601f19601f82011682018060405250810190612a7a91906132d1565b506000838152600c6020818152604080842054815180840189905280830186905230606082015260808082018390528351808303909101815260a090910190925281519183019190912093879052919052612ad6906001613653565b6000858152600c6020526040902055611d438482604080516020808201949094528082019290925280518083038201815260609092019052805191012090565b6109f58282604051602401612b2c929190613509565b60408051601f198184030181529190526020810180516001600160e01b03166309710a9d60e41b17905261264d565b6001600160a01b038316612bb657612bb181600980546000838152600a60205260408120829055600182018355919091527f6e1540171b6c0c960b71a7020d9f60077f6af931a8bbf590da0223dacf75c7af0155565b612bd9565b816001600160a01b0316836001600160a01b031614612bd957612bd98382612d60565b6001600160a01b038216612bf057610c3581612dfd565b826001600160a01b0316826001600160a01b031614610c3557610c358282612ed6565b612c1d8383612f1a565b612c2a60008484846127b4565b610c355760405162461bcd60e51b815260040161074f9061352b565b606081612c6a5750506040805180820190915260018152600360fc1b602082015290565b8160005b8115612c945780612c7e81613716565b9150612c8d9050600a8361366b565b9150612c6e565b60008167ffffffffffffffff811115612cbd57634e487b7160e01b600052604160045260246000fd5b6040519080825280601f01601f191660200182016040528015612ce7576020820181803683370190505b5090505b8415611d4357612cfc60018361369e565b9150612d09600a86613731565b612d14906030613653565b60f81b818381518110612d3757634e487b7160e01b600052603260045260246000fd5b60200101906001600160f81b031916908160001a905350612d59600a8661366b565b9450612ceb565b60006001612d6d8461109e565b612d77919061369e565b600083815260086020526040902054909150808214612dca576001600160a01b03841660009081526007602090815260408083208584528252808320548484528184208190558352600890915290208190555b5060009182526008602090815260408084208490556001600160a01b039094168352600781528383209183525290812055565b600954600090612e0f9060019061369e565b6000838152600a602052604081205460098054939450909284908110612e4557634e487b7160e01b600052603260045260246000fd5b906000526020600020015490508060098381548110612e7457634e487b7160e01b600052603260045260246000fd5b6000918252602080832090910192909255828152600a90915260408082208490558582528120556009805480612eba57634e487b7160e01b600052603160045260246000fd5b6001900381819060005260206000200160009055905550505050565b6000612ee18361109e565b6001600160a01b039093166000908152600760209081526040808320868452825280832085905593825260089052919091209190915550565b6001600160a01b038216612f705760405162461bcd60e51b815260206004820181905260248201527f4552433732313a206d696e7420746f20746865207a65726f2061646472657373604482015260640161074f565b612f7981611bd6565b15612fc65760405162461bcd60e51b815260206004820152601c60248201527f4552433732313a20746f6b656e20616c7265616479206d696e74656400000000604482015260640161074f565b612fd2600083836126be565b6001600160a01b0382166000908152600360205260408120805460019290612ffb908490613653565b909155505060008181526002602052604080822080546001600160a01b0319166001600160a01b03861690811790915590518392907fddf252ad1be2c89b69c2b068fc378daa952ba7f163c4a11628f55a4df523b3ef908290a45050565b828054613065906136e1565b90600052602060002090601f01602090048101928261308757600085556130cd565b82601f106130a057805160ff19168380011785556130cd565b828001600101855582156130cd579182015b828111156130cd5782518255916020019190600101906130b2565b506130d99291506130dd565b5090565b5b808211156130d957600081556001016130de565b600067ffffffffffffffff8084111561310d5761310d613771565b604051601f8501601f19908116603f0116810190828211818310171561313557613135613771565b8160405280935085815286868601111561314e57600080fd5b858560208301376000602087830101525050509392505050565b600060208284031215613179578081fd5b813561264681613787565b60008060408385031215613196578081fd5b82356131a181613787565b915060208301356131b181613787565b809150509250929050565b6000806000606084860312156131d0578081fd5b83356131db81613787565b925060208401356131eb81613787565b929592945050506040919091013590565b60008060008060808587031215613211578081fd5b843561321c81613787565b9350602085013561322c81613787565b925060408501359150606085013567ffffffffffffffff81111561324e578182fd5b8501601f8101871361325e578182fd5b61326d878235602084016130f2565b91505092959194509250565b6000806040838503121561328b578182fd5b823561329681613787565b915060208301356131b18161379c565b600080604083850312156132b8578182fd5b82356132c381613787565b946020939093013593505050565b6000602082840312156132e2578081fd5b81516126468161379c565b600080604083850312156132ff578182fd5b50508035926020909101359150565b60006020828403121561331f578081fd5b8135612646816137aa565b60006020828403121561333b578081fd5b8151612646816137aa565b600060208284031215613357578081fd5b813567ffffffffffffffff81111561336d578182fd5b8201601f8101841361337d578182fd5b611d43848235602084016130f2565b60006020828403121561339d578081fd5b5035919050565b6000602082840312156133b5578081fd5b5051919050565b600081518084526133d48160208601602086016136b5565b601f01601f19169290920160200192915050565b600083516133fa8184602088016136b5565b83519083019061340e8183602088016136b5565b01949350505050565b6001600160a01b038581168252841660208201526040810183905260806060820181905260009061344a908301846133bc565b9695505050505050565b60018060a01b038416815282602082015260606040820152600061347b60608301846133bc565b95945050505050565b6020808252825182820181905260009190848201906040850190845b818110156134bc578351835292840192918401916001016134a0565b50909695505050505050565b60208152600061264660208301846133bc565b6060815260006134ee60608301866133bc565b6001600160a01b039490941660208301525060400152919050565b60408152600061351c60408301856133bc565b90508260208301529392505050565b60208082526032908201527f4552433732313a207472616e7366657220746f206e6f6e20455243373231526560408201527131b2b4bb32b91034b6b83632b6b2b73a32b960711b606082015260800190565b60208082526030908201527f5468652063616c6c65722063616e206f6e6c792062652061207573657220616e60408201526f19081b9bdd08184818dbdb9d1c9858dd60821b606082015260800190565b6020808252818101527f4f776e61626c653a2063616c6c6572206973206e6f7420746865206f776e6572604082015260600190565b60208082526031908201527f4552433732313a207472616e736665722063616c6c6572206973206e6f74206f6040820152701ddb995c881b9bdc88185c1c1c9bdd9959607a1b606082015260800190565b6000821982111561366657613666613745565b500190565b60008261367a5761367a61375b565b500490565b600081600019048311821515161561369957613699613745565b500290565b6000828210156136b0576136b0613745565b500390565b60005b838110156136d05781810151838201526020016136b8565b8381111561157b5750506000910152565b600181811c908216806136f557607f821691505b602082108114156112d557634e487b7160e01b600052602260045260246000fd5b600060001982141561372a5761372a613745565b5060010190565b6000826137405761374061375b565b500690565b634e487b7160e01b600052601160045260246000fd5b634e487b7160e01b600052601260045260246000fd5b634e487b7160e01b600052604160045260246000fd5b6001600160a01b038116811461183857600080fd5b801515811461183857600080fd5b6001600160e01b03198116811461183857600080fdfea26469706673582212201acd9b500ff43710ac5fb83301d825b29e4bf5f619359b62f8783ec01a197c8664736f6c63430008040033",
  "linkReferences": {},
  "deployedLinkReferences": {}
}