{
  "_format": "hh-sol-artifact-1",
  "contractName": "TrashPossums",
  "sourceName": "contracts/TrashPossums.sol",
  "abi": [
    {
      "inputs": [
        {
          "internalType": "uint256",
          "name": "_possumPrice",
          "type": "uint256"
        },
        {
          "internalType": "uint256",
          "name": "_startMintDate",
          "type": "uint256"
        },
        {
          "internalType": "string",
          "name": "_baseUri",
          "type": "string"
        },
        {
          "internalType": "address",
          "name": "_VRFAddress",
          "type": "address"
        },
        {
          "internalType": "address",
          "name": "_linkToken",
          "type": "address"
        },
        {
          "internalType": "bytes32",
          "name": "_keyHash",
          "type": "bytes32"
        },
        {
          "internalType": "uint256",
          "name": "_fee",
          "type": "uint256"
        },
        {
          "internalType": "uint256",
          "name": "_claimDate",
          "type": "uint256"
        }
      ],
      "stateMutability": "nonpayable",
      "type": "constructor"
    },
    {
      "anonymous": false,
      "inputs": [
        {
          "indexed": true,
          "internalType": "address",
          "name": "owner",
          "type": "address"
        },
        {
          "indexed": true,
          "internalType": "address",
          "name": "approved",
          "type": "address"
        },
        {
          "indexed": true,
          "internalType": "uint256",
          "name": "tokenId",
          "type": "uint256"
        }
      ],
      "name": "Approval",
      "type": "event"
    },
    {
      "anonymous": false,
      "inputs": [
        {
          "indexed": true,
          "internalType": "address",
          "name": "owner",
          "type": "address"
        },
        {
          "indexed": true,
          "internalType": "address",
          "name": "operator",
          "type": "address"
        },
        {
          "indexed": false,
          "internalType": "bool",
          "name": "approved",
          "type": "bool"
        }
      ],
      "name": "ApprovalForAll",
      "type": "event"
    },
    {
      "anonymous": false,
      "inputs": [
        {
          "indexed": true,
          "internalType": "address",
          "name": "previousOwner",
          "type": "address"
        },
        {
          "indexed": true,
          "internalType": "address",
          "name": "newOwner",
          "type": "address"
        }
      ],
      "name": "OwnershipTransferred",
      "type": "event"
    },
    {
      "anonymous": false,
      "inputs": [
        {
          "indexed": false,
          "internalType": "address",
          "name": "account",
          "type": "address"
        }
      ],
      "name": "Paused",
      "type": "event"
    },
    {
      "anonymous": false,
      "inputs": [
        {
          "indexed": true,
          "internalType": "address",
          "name": "from",
          "type": "address"
        },
        {
          "indexed": true,
          "internalType": "address",
          "name": "to",
          "type": "address"
        },
        {
          "indexed": true,
          "internalType": "uint256",
          "name": "tokenId",
          "type": "uint256"
        }
      ],
      "name": "Transfer",
      "type": "event"
    },
    {
      "anonymous": false,
      "inputs": [
        {
          "indexed": false,
          "internalType": "address",
          "name": "account",
          "type": "address"
        }
      ],
      "name": "Unpaused",
      "type": "event"
    },
    {
      "inputs": [
        {
          "internalType": "address",
          "name": "to",
          "type": "address"
        },
        {
          "internalType": "uint256",
          "name": "tokenId",
          "type": "uint256"
        }
      ],
      "name": "approve",
      "outputs": [],
      "stateMutability": "nonpayable",
      "type": "function"
    },
    {
      "inputs": [
        {
          "internalType": "address",
          "name": "owner",
          "type": "address"
        }
      ],
      "name": "balanceOf",
      "outputs": [
        {
          "internalType": "uint256",
          "name": "",
          "type": "uint256"
        }
      ],
      "stateMutability": "view",
      "type": "function"
    },
    {
      "inputs": [],
      "name": "baseTokenURI",
      "outputs": [
        {
          "internalType": "string",
          "name": "",
          "type": "string"
        }
      ],
      "stateMutability": "view",
      "type": "function"
    },
    {
      "inputs": [],
      "name": "claimPossums",
      "outputs": [],
      "stateMutability": "nonpayable",
      "type": "function"
    },
    {
      "inputs": [],
      "name": "executeOffset",
      "outputs": [],
      "stateMutability": "nonpayable",
      "type": "function"
    },
    {
      "inputs": [
        {
          "internalType": "uint256",
          "name": "tokenId",
          "type": "uint256"
        }
      ],
      "name": "getApproved",
      "outputs": [
        {
          "internalType": "address",
          "name": "",
          "type": "address"
        }
      ],
      "stateMutability": "view",
      "type": "function"
    },
    {
      "inputs": [],
      "name": "getClaimDate",
      "outputs": [
        {
          "internalType": "uint256",
          "name": "",
          "type": "uint256"
        }
      ],
      "stateMutability": "view",
      "type": "function"
    },
    {
      "inputs": [],
      "name": "getMintingStartDate",
      "outputs": [
        {
          "internalType": "uint256",
          "name": "",
          "type": "uint256"
        }
      ],
      "stateMutability": "view",
      "type": "function"
    },
    {
      "inputs": [],
      "name": "getNumberOfAvailablePossums",
      "outputs": [
        {
          "internalType": "uint256",
          "name": "",
          "type": "uint256"
        }
      ],
      "stateMutability": "view",
      "type": "function"
    },
    {
      "inputs": [
        {
          "internalType": "address",
          "name": "_wallet",
          "type": "address"
        }
      ],
      "name": "getNumberOfReservedPossums",
      "outputs": [
        {
          "internalType": "uint256",
          "name": "",
          "type": "uint256"
        }
      ],
      "stateMutability": "view",
      "type": "function"
    },
    {
      "inputs": [],
      "name": "getOffset",
      "outputs": [
        {
          "internalType": "uint256",
          "name": "",
          "type": "uint256"
        }
      ],
      "stateMutability": "view",
      "type": "function"
    },
    {
      "inputs": [],
      "name": "getPossumPrice",
      "outputs": [
        {
          "internalType": "uint256",
          "name": "",
          "type": "uint256"
        }
      ],
      "stateMutability": "view",
      "type": "function"
    },
    {
      "inputs": [
        {
          "internalType": "address",
          "name": "_wallet",
          "type": "address"
        }
      ],
      "name": "getReservedPossumIds",
      "outputs": [
        {
          "internalType": "uint256[]",
          "name": "reservedIds",
          "type": "uint256[]"
        }
      ],
      "stateMutability": "view",
      "type": "function"
    },
    {
      "inputs": [
        {
          "internalType": "address",
          "name": "owner",
          "type": "address"
        },
        {
          "internalType": "address",
          "name": "operator",
          "type": "address"
        }
      ],
      "name": "isApprovedForAll",
      "outputs": [
        {
          "internalType": "bool",
          "name": "",
          "type": "bool"
        }
      ],
      "stateMutability": "view",
      "type": "function"
    },
    {
      "inputs": [],
      "name": "maxPossumsPerWallet",
      "outputs": [
        {
          "internalType": "uint256",
          "name": "",
          "type": "uint256"
        }
      ],
      "stateMutability": "view",
      "type": "function"
    },
    {
      "inputs": [],
      "name": "name",
      "outputs": [
        {
          "internalType": "string",
          "name": "",
          "type": "string"
        }
      ],
      "stateMutability": "view",
      "type": "function"
    },
    {
      "inputs": [],
      "name": "owner",
      "outputs": [
        {
          "internalType": "address",
          "name": "",
          "type": "address"
        }
      ],
      "stateMutability": "view",
      "type": "function"
    },
    {
      "inputs": [
        {
          "internalType": "uint256",
          "name": "tokenId",
          "type": "uint256"
        }
      ],
      "name": "ownerOf",
      "outputs": [
        {
          "internalType": "address",
          "name": "",
          "type": "address"
        }
      ],
      "stateMutability": "view",
      "type": "function"
    },
    {
      "inputs": [],
      "name": "pause",
      "outputs": [],
      "stateMutability": "nonpayable",
      "type": "function"
    },
    {
      "inputs": [],
      "name": "paused",
      "outputs": [
        {
          "internalType": "bool",
          "name": "",
          "type": "bool"
        }
      ],
      "stateMutability": "view",
      "type": "function"
    },
    {
      "inputs": [],
      "name": "premintPossums",
      "outputs": [],
      "stateMutability": "nonpayable",
      "type": "function"
    },
    {
      "inputs": [
        {
          "internalType": "bytes32",
          "name": "requestId",
          "type": "bytes32"
        },
        {
          "internalType": "uint256",
          "name": "randomness",
          "type": "uint256"
        }
      ],
      "name": "rawFulfillRandomness",
      "outputs": [],
      "stateMutability": "nonpayable",
      "type": "function"
    },
    {
      "inputs": [],
      "name": "renounceOwnership",
      "outputs": [],
      "stateMutability": "nonpayable",
      "type": "function"
    },
    {
      "inputs": [
        {
          "internalType": "uint256",
          "name": "amount",
          "type": "uint256"
        }
      ],
      "name": "reservePossums",
      "outputs": [],
      "stateMutability": "payable",
      "type": "function"
    },
    {
      "inputs": [
        {
          "internalType": "address",
          "name": "from",
          "type": "address"
        },
        {
          "internalType": "address",
          "name": "to",
          "type": "address"
        },
        {
          "internalType": "uint256",
          "name": "tokenId",
          "type": "uint256"
        }
      ],
      "name": "safeTransferFrom",
      "outputs": [],
      "stateMutability": "nonpayable",
      "type": "function"
    },
    {
      "inputs": [
        {
          "internalType": "address",
          "name": "from",
          "type": "address"
        },
        {
          "internalType": "address",
          "name": "to",
          "type": "address"
        },
        {
          "internalType": "uint256",
          "name": "tokenId",
          "type": "uint256"
        },
        {
          "internalType": "bytes",
          "name": "_data",
          "type": "bytes"
        }
      ],
      "name": "safeTransferFrom",
      "outputs": [],
      "stateMutability": "nonpayable",
      "type": "function"
    },
    {
      "inputs": [
        {
          "internalType": "address",
          "name": "operator",
          "type": "address"
        },
        {
          "internalType": "bool",
          "name": "approved",
          "type": "bool"
        }
      ],
      "name": "setApprovalForAll",
      "outputs": [],
      "stateMutability": "nonpayable",
      "type": "function"
    },
    {
      "inputs": [
        {
          "internalType": "string",
          "name": "_uri",
          "type": "string"
        }
      ],
      "name": "setBaseTokenURI",
      "outputs": [],
      "stateMutability": "nonpayable",
      "type": "function"
    },
    {
      "inputs": [
        {
          "internalType": "uint256",
          "name": "_possumPrice",
          "type": "uint256"
        }
      ],
      "name": "setPossumPrice",
      "outputs": [],
      "stateMutability": "nonpayable",
      "type": "function"
    },
    {
      "inputs": [
        {
          "internalType": "bytes4",
          "name": "interfaceId",
          "type": "bytes4"
        }
      ],
      "name": "supportsInterface",
      "outputs": [
        {
          "internalType": "bool",
          "name": "",
          "type": "bool"
        }
      ],
      "stateMutability": "view",
      "type": "function"
    },
    {
      "inputs": [],
      "name": "symbol",
      "outputs": [
        {
          "internalType": "string",
          "name": "",
          "type": "string"
        }
      ],
      "stateMutability": "view",
      "type": "function"
    },
    {
      "inputs": [
        {
          "internalType": "uint256",
          "name": "index",
          "type": "uint256"
        }
      ],
      "name": "tokenByIndex",
      "outputs": [
        {
          "internalType": "uint256",
          "name": "",
          "type": "uint256"
        }
      ],
      "stateMutability": "view",
      "type": "function"
    },
    {
      "inputs": [
        {
          "internalType": "address",
          "name": "owner",
          "type": "address"
        },
        {
          "internalType": "uint256",
          "name": "index",
          "type": "uint256"
        }
      ],
      "name": "tokenOfOwnerByIndex",
      "outputs": [
        {
          "internalType": "uint256",
          "name": "",
          "type": "uint256"
        }
      ],
      "stateMutability": "view",
      "type": "function"
    },
    {
      "inputs": [
        {
          "internalType": "uint256",
          "name": "tokenId",
          "type": "uint256"
        }
      ],
      "name": "tokenURI",
      "outputs": [
        {
          "internalType": "string",
          "name": "",
          "type": "string"
        }
      ],
      "stateMutability": "view",
      "type": "function"
    },
    {
      "inputs": [],
      "name": "totalPossums",
      "outputs": [
        {
          "internalType": "uint256",
          "name": "",
          "type": "uint256"
        }
      ],
      "stateMutability": "view",
      "type": "function"
    },
    {
      "inputs": [],
      "name": "totalSupply",
      "outputs": [
        {
          "internalType": "uint256",
          "name": "",
          "type": "uint256"
        }
      ],
      "stateMutability": "view",
      "type": "function"
    },
    {
      "inputs": [
        {
          "internalType": "address",
          "name": "from",
          "type": "address"
        },
        {
          "internalType": "address",
          "name": "to",
          "type": "address"
        },
        {
          "internalType": "uint256",
          "name": "tokenId",
          "type": "uint256"
        }
      ],
      "name": "transferFrom",
      "outputs": [],
      "stateMutability": "nonpayable",
      "type": "function"
    },
    {
      "inputs": [
        {
          "internalType": "address",
          "name": "newOwner",
          "type": "address"
        }
      ],
      "name": "transferOwnership",
      "outputs": [],
      "stateMutability": "nonpayable",
      "type": "function"
    },
    {
      "inputs": [],
      "name": "unpause",
      "outputs": [],
      "stateMutability": "nonpayable",
      "type": "function"
    },
    {
      "inputs": [],
      "name": "withdraw",
      "outputs": [],
      "stateMutability": "nonpayable",
      "type": "function"
    },
    {
      "inputs": [
        {
          "internalType": "contract IERC20",
          "name": "token",
          "type": "address"
        },
        {
          "internalType": "uint256",
          "name": "_amount",
          "type": "uint256"
        }
      ],
      "name": "withdrawErc20",
      "outputs": [],
      "stateMutability": "nonpayable",
      "type": "function"
    },
    {
      "stateMutability": "payable",
      "type": "receive"
    }
  ],
  "bytecode": "0x61271060c08181526204e2e06040529060e06204e200803683375050815162000030926018925060200190620001b0565b503480156200003e57600080fd5b5060405162003bec38038062003bec8339810160408190526200006191620002b0565b604080518082018252600d81526c547261736820506f7373756d7360981b60208083019182528351808501909452600584526454504f535360d81b90840152815188938893929091620000b79160009162000200565b508051620000cd90600190602084019062000200565b5050600b805460ff1916905550620000e53362000156565b6001600160601b0319606092831b811660a052911b16608052600e889055600d87905585516200011d90601190602089019062000200565b50601292909255601355601480546001600160a01b0319166001600160a01b039490941693909317909255506015555062000433915050565b600b80546001600160a01b03838116610100818102610100600160a81b031985161790945560405193909204169182907f8be0079c531659141344cd1fd0a4f28419497f9722a3daafe3b4186f6b6457e090600090a35050565b828054828255906000526020600020908101928215620001ee579160200282015b82811115620001ee578251825591602001919060010190620001d1565b50620001fc9291506200027c565b5090565b8280546200020e90620003e0565b90600052602060002090601f016020900481019282620002325760008555620001ee565b82601f106200024d57805160ff1916838001178555620001ee565b82800160010185558215620001ee5791820182811115620001ee578251825591602001919060010190620001d1565b5b80821115620001fc57600081556001016200027d565b80516001600160a01b0381168114620002ab57600080fd5b919050565b600080600080600080600080610100898b031215620002cd578384fd5b88516020808b015160408c0151929a509850906001600160401b0380821115620002f5578687fd5b818c0191508c601f83011262000309578687fd5b8151818111156200031e576200031e6200041d565b604051601f8201601f19908116603f011681019083821181831017156200034957620003496200041d565b816040528281528f868487010111156200036157898afd5b8993505b8284101562000384578484018601518185018701529285019262000365565b828411156200039557898684830101525b809b50505050505050620003ac60608a0162000293565b9450620003bc60808a0162000293565b935060a0890151925060c0890151915060e089015190509295985092959890939650565b600181811c90821680620003f557607f821691505b602082108114156200041757634e487b7160e01b600052602260045260246000fd5b50919050565b634e487b7160e01b600052604160045260246000fd5b60805160601c60a05160601c61377f6200046d6000396000818161131e015261294701526000818161241b0152612918015261377f6000f3fe6080604052600436106102495760003560e01c80637fd3352e11610139578063b88d4fde116100b6578063dca772841161007a578063dca7728414610647578063e985e9c514610667578063eace0561146106b0578063ead17506146106e6578063eb6ad24e146106fb578063f2fde38b1461071057600080fd5b8063b88d4fde146105bd578063bd1f4b52146105dd578063c87b56dd146105fd578063cdbfc9501461061d578063d547cfb71461063257600080fd5b806395d89b41116100fd57806395d89b4114610549578063a22cb4651461055e578063b031b35b1461057e578063b37cb09d14610593578063b59bb11e146105a857600080fd5b80637fd3352e146104af57806384511aff146104dc5780638456cb59146104f15780638da5cb5b1461050657806394985ddd1461052957600080fd5b80633f4ba83a116101c75780635c975abb1161018b5780635c975abb1461042d5780636352211e1461044557806370a0823114610465578063715018a614610485578063723bcc131461049a57600080fd5b80633f4ba83a146103ad578063416c585d146103c257806342842e0e146103d75780634f6ccce7146103f75780635b46a8f21461041757600080fd5b806318160ddd1161020e57806318160ddd1461031957806323b872dd146103385780632f745c591461035857806330176e13146103785780633ccfd60b1461039857600080fd5b806261b0ec1461025557806301ffc9a71461026a57806306fdde031461029f578063081812fc146102c1578063095ea7b3146102f957600080fd5b3661025057005b600080fd5b610268610263366004613315565b610730565b005b34801561027657600080fd5b5061028a610285366004613297565b6109f9565b60405190151581526020015b60405180910390f35b3480156102ab57600080fd5b506102b4610a0a565b6040516102969190613451565b3480156102cd57600080fd5b506102e16102dc366004613315565b610a9c565b6040516001600160a01b039091168152602001610296565b34801561030557600080fd5b5061026861031436600461322f565b610b24565b34801561032557600080fd5b50600f545b604051908152602001610296565b34801561034457600080fd5b50610268610353366004613145565b610c3a565b34801561036457600080fd5b5061032a61037336600461322f565b610c6b565b34801561038457600080fd5b506102686103933660046132cf565b610d01565b3480156103a457600080fd5b50610268610d44565b3480156103b957600080fd5b50610268610da3565b3480156103ce57600080fd5b50610268610ddd565b3480156103e357600080fd5b506102686103f2366004613145565b610f6b565b34801561040357600080fd5b5061032a610412366004613315565b610f86565b34801561042357600080fd5b5061032a61271081565b34801561043957600080fd5b50600b5460ff1661028a565b34801561045157600080fd5b506102e1610460366004613315565b611027565b34801561047157600080fd5b5061032a6104803660046130f1565b61109e565b34801561049157600080fd5b50610268611125565b3480156104a657600080fd5b50600e5461032a565b3480156104bb57600080fd5b506104cf6104ca3660046130f1565b61115f565b604051610296919061340d565b3480156104e857600080fd5b5061032a603681565b3480156104fd57600080fd5b506102686112db565b34801561051257600080fd5b50600b5461010090046001600160a01b03166102e1565b34801561053557600080fd5b50610268610544366004613276565b611313565b34801561055557600080fd5b506102b4611395565b34801561056a57600080fd5b50610268610579366004613202565b6113a4565b34801561058a57600080fd5b506102686113af565b34801561059f57600080fd5b5060155461032a565b3480156105b457600080fd5b5060185461032a565b3480156105c957600080fd5b506102686105d8366004613185565b6114d2565b3480156105e957600080fd5b506102686105f836600461322f565b61150a565b34801561060957600080fd5b506102b4610618366004613315565b611693565b34801561062957600080fd5b5061026861169e565b34801561063e57600080fd5b506102b46116df565b34801561065357600080fd5b50610268610662366004613315565b6116ee565b34801561067357600080fd5b5061028a61068236600461310d565b6001600160a01b03918216600090815260056020908152604080832093909416825291909152205460ff1690565b3480156106bc57600080fd5b5061032a6106cb3660046130f1565b6001600160a01b031660009081526017602052604090205490565b3480156106f257600080fd5b50600d5461032a565b34801561070757600080fd5b5060195461032a565b34801561071c57600080fd5b5061026861072b3660046130f1565b611723565b3233146107585760405162461bcd60e51b815260040161074f90613506565b60405180910390fd5b600d541580159061076b575043600d5411155b6107ab5760405162461bcd60e51b8152602060048201526011602482015270596f752061726520746f6f206561726c7960781b604482015260640161074f565b80600e546107b99190613608565b34101561081a5760405162461bcd60e51b815260206004820152602960248201527f4e6f7420656e6f75676820457468657220746f207265736572766520746865736044820152686520706f7373756d7360b81b606482015260840161074f565b6000811161086a5760405162461bcd60e51b815260206004820152601b60248201527f6e65656420746f206d696e74206174206c656173742031204e46540000000000604482015260640161074f565b336000908152601660205260409020546036906108889083906135dc565b11156108d65760405162461bcd60e51b815260206004820152601f60248201527f596f752063616e6e6f742072657365727665206d6f726520706f7373756d7300604482015260640161074f565b60185481111561091a5760405162461bcd60e51b815260206004820152600f60248201526e139bc8141bdcdcdd5b5cc81b19599d608a1b604482015260640161074f565b601b8111156109645760405162461bcd60e51b815260206004820152601660248201527526b0bc10191b903832b9103a3930b739b0b1ba34b7b760511b604482015260640161074f565b6019541561097157600080fd5b60005b818110156109f55760006109866117c4565b33600081815260176020908152604080832080546001810182559084529282902090920184905581518083019092526013825272726573657276696e6720706f7373756d20746f60681b908201529192506109e2919083611af3565b50806109ed8161369f565b915050610974565b5050565b6000610a0482611b3a565b92915050565b606060008054610a199061366a565b80601f0160208091040260200160405190810160405280929190818152602001828054610a459061366a565b8015610a925780601f10610a6757610100808354040283529160200191610a92565b820191906000526020600020905b815481529060010190602001808311610a7557829003601f168201915b5050505050905090565b6000610aa782611b5f565b610b085760405162461bcd60e51b815260206004820152602c60248201527f4552433732313a20617070726f76656420717565727920666f72206e6f6e657860448201526b34b9ba32b73a103a37b5b2b760a11b606482015260840161074f565b506000908152600460205260409020546001600160a01b031690565b6000610b2f82611027565b9050806001600160a01b0316836001600160a01b03161415610b9d5760405162461bcd60e51b815260206004820152602160248201527f4552433732313a20617070726f76616c20746f2063757272656e74206f776e656044820152603960f91b606482015260840161074f565b336001600160a01b0382161480610bb95750610bb98133610682565b610c2b5760405162461bcd60e51b815260206004820152603860248201527f4552433732313a20617070726f76652063616c6c6572206973206e6f74206f7760448201527f6e6572206e6f7220617070726f76656420666f7220616c6c0000000000000000606482015260840161074f565b610c358383611b7c565b505050565b610c443382611bea565b610c605760405162461bcd60e51b815260040161074f9061358b565b610c35838383611cd4565b6000610c768361109e565b8210610cd85760405162461bcd60e51b815260206004820152602b60248201527f455243373231456e756d657261626c653a206f776e657220696e646578206f7560448201526a74206f6620626f756e647360a81b606482015260840161074f565b506001600160a01b03919091166000908152600760209081526040808320938352929052205490565b600b546001600160a01b03610100909104163314610d315760405162461bcd60e51b815260040161074f90613556565b80516109f5906011906020840190612fe2565b600b546001600160a01b03610100909104163314610d745760405162461bcd60e51b815260040161074f90613556565b6040514790339082156108fc029083906000818181858888f193505050501580156109f5573d6000803e3d6000fd5b600b546001600160a01b03610100909104163314610dd35760405162461bcd60e51b815260040161074f90613556565b610ddb611e7f565b565b600b546001600160a01b03610100909104163314610e0d5760405162461bcd60e51b815260040161074f90613556565b60105460ff1615610e6e5760405162461bcd60e51b815260206004820152602560248201527f596f752063616e206f6e6c79207072656d696e742074686520506f7373756d73604482015264206f6e636560d81b606482015260840161074f565b60185460641115610ec15760405162461bcd60e51b815260206004820152601d60248201527f4e6f20506f7373756d73206c65667420746f20626520636c61696d6564000000604482015260640161074f565b60005b6064811015610f5b57610ed73382611f12565b601854610ee690600190613627565b60188281548110610f0757634e487b7160e01b600052603260045260246000fd5b6000918252602090912001556018805480610f3257634e487b7160e01b600052603160045260246000fd5b600190038181906000526020600020016000905590558080610f539061369f565b915050610ec4565b506010805460ff19166001179055565b610c35838383604051806020016040528060008152506114d2565b6000610f9160095490565b8210610ff45760405162461bcd60e51b815260206004820152602c60248201527f455243373231456e756d657261626c653a20676c6f62616c20696e646578206f60448201526b7574206f6620626f756e647360a01b606482015260840161074f565b6009828154811061101557634e487b7160e01b600052603260045260246000fd5b90600052602060002001549050919050565b6000818152600260205260408120546001600160a01b031680610a045760405162461bcd60e51b815260206004820152602960248201527f4552433732313a206f776e657220717565727920666f72206e6f6e657869737460448201526832b73a103a37b5b2b760b91b606482015260840161074f565b60006001600160a01b0382166111095760405162461bcd60e51b815260206004820152602a60248201527f4552433732313a2062616c616e636520717565727920666f7220746865207a65604482015269726f206164647265737360b01b606482015260840161074f565b506001600160a01b031660009081526003602052604090205490565b600b546001600160a01b036101009091041633146111555760405162461bcd60e51b815260040161074f90613556565b610ddb6000612046565b6001600160a01b0381166000908152601760205260409020546060906111c75760405162461bcd60e51b815260206004820152601e60248201527f57616c6c657420686173206e6f20726573657276656420706f7373756d730000604482015260640161074f565b6001600160a01b03821660009081526017602052604090205467ffffffffffffffff81111561120657634e487b7160e01b600052604160045260246000fd5b60405190808252806020026020018201604052801561122f578160200160208202803683370190505b50905060005b6001600160a01b0383166000908152601760205260409020548110156112d5576001600160a01b038316600090815260176020526040902080548290811061128d57634e487b7160e01b600052603260045260246000fd5b90600052602060002001548282815181106112b857634e487b7160e01b600052603260045260246000fd5b6020908102919091010152806112cd8161369f565b915050611235565b50919050565b600b546001600160a01b0361010090910416331461130b5760405162461bcd60e51b815260040161074f90613556565b610ddb6120a0565b336001600160a01b037f0000000000000000000000000000000000000000000000000000000000000000161461138b5760405162461bcd60e51b815260206004820152601f60248201527f4f6e6c7920565246436f6f7264696e61746f722063616e2066756c66696c6c00604482015260640161074f565b6109f5828261211b565b606060018054610a199061366a565b6109f5338383612193565b3233146113ce5760405162461bcd60e51b815260040161074f90613506565b3360009081526017602052604090205461142a5760405162461bcd60e51b815260206004820152601c60248201527f796f752068617665206e6f20726573657276656420706f7373756d7300000000604482015260640161074f565b6000805b336000908152601760205260409020548110156109f55760195433600090815260176020526040812080549192918490811061147a57634e487b7160e01b600052603260045260246000fd5b906000526020600020015461148f91906135dc565b90506127108111156114b5576114a86064612710613627565b6114b29082613627565b92505b6114bf3384611f12565b50806114ca8161369f565b91505061142e565b6114dc3383611bea565b6114f85760405162461bcd60e51b815260040161074f9061358b565b61150484848484612262565b50505050565b600b546001600160a01b0361010090910416331461153a5760405162461bcd60e51b815260040161074f90613556565b6040516370a0823160e01b81523060048201526000906001600160a01b038416906370a082319060240160206040518083038186803b15801561157c57600080fd5b505afa158015611590573d6000803e3d6000fd5b505050506040513d601f19601f820116820180604052508101906115b4919061332d565b116116135760405162461bcd60e51b815260206004820152602960248201527f7468697320636f6e747261637420646f6573206e6f7420636f6e7461696e20746044820152683434b9903a37b5b2b760b91b606482015260840161074f565b60405163a9059cbb60e01b8152336004820152602481018290526001600160a01b0383169063a9059cbb90604401602060405180830381600087803b15801561165b57600080fd5b505af115801561166f573d6000803e3d6000fd5b505050506040513d601f19601f82011682018060405250810190610c35919061325a565b6060610a0482612295565b601a5460ff16156116ae57600080fd5b60185415806116be575060155443115b6116c757600080fd5b6116cf6123f7565b50601a805460ff19166001179055565b606060118054610a199061366a565b600b546001600160a01b0361010090910416331461171e5760405162461bcd60e51b815260040161074f90613556565b600e55565b600b546001600160a01b036101009091041633146117535760405162461bcd60e51b815260040161074f90613556565b6001600160a01b0381166117b85760405162461bcd60e51b815260206004820152602660248201527f4f776e61626c653a206e6577206f776e657220697320746865207a65726f206160448201526564647265737360d01b606482015260840161074f565b6117c181612046565b50565b6000806117cf612510565b9050601881815481106117f257634e487b7160e01b600052603260045260246000fd5b9060005260206000200154600014801561184457506018805461181790600190613627565b8154811061183557634e487b7160e01b600052603260045260246000fd5b90600052602060002001546000145b1561188f57601854909150819061185d90600190613627565b6018828154811061187e57634e487b7160e01b600052603260045260246000fd5b600091825260209091200155611aba565b601881815481106118b057634e487b7160e01b600052603260045260246000fd5b90600052602060002001546000141580156119035750601880546118d690600190613627565b815481106118f457634e487b7160e01b600052603260045260246000fd5b90600052602060002001546000145b15611948576018818154811061192957634e487b7160e01b600052603260045260246000fd5b90600052602060002001549150600160188054905061185d9190613627565b6018818154811061196957634e487b7160e01b600052603260045260246000fd5b90600052602060002001546000141580156119bd57506018805461198f90600190613627565b815481106119ad57634e487b7160e01b600052603260045260246000fd5b9060005260206000200154600014155b15611a4e57601881815481106119e357634e487b7160e01b600052603260045260246000fd5b9060005260206000200154915060186001601880549050611a049190613627565b81548110611a2257634e487b7160e01b600052603260045260246000fd5b90600052602060002001546018828154811061187e57634e487b7160e01b600052603260045260246000fd5b601880549192508291611a6390600190613627565b81548110611a8157634e487b7160e01b600052603260045260246000fd5b906000526020600020015460188281548110611aad57634e487b7160e01b600052603260045260246000fd5b6000918252602090912001555b6018805480611ad957634e487b7160e01b600052603160045260246000fd5b600190038181906000526020600020016000905590555090565b610c35838383604051602401611b0b93929190613464565b60408051601f198184030181529190526020810180516001600160e01b03166307c8121760e01b1790526125d6565b60006001600160e01b0319821663780e9d6360e01b1480610a045750610a04826125f7565b6000908152600260205260409020546001600160a01b0316151590565b600081815260046020526040902080546001600160a01b0319166001600160a01b0384169081179091558190611bb182611027565b6001600160a01b03167f8c5be1e5ebec7d5bd14f71427d1e84f3dd0314c0f7b2291e5b200ac8c7c3b92560405160405180910390a45050565b6000611bf582611b5f565b611c565760405162461bcd60e51b815260206004820152602c60248201527f4552433732313a206f70657261746f7220717565727920666f72206e6f6e657860448201526b34b9ba32b73a103a37b5b2b760a11b606482015260840161074f565b6000611c6183611027565b9050806001600160a01b0316846001600160a01b03161480611c9c5750836001600160a01b0316611c9184610a9c565b6001600160a01b0316145b80611ccc57506001600160a01b0380821660009081526005602090815260408083209388168352929052205460ff165b949350505050565b826001600160a01b0316611ce782611027565b6001600160a01b031614611d4f5760405162461bcd60e51b815260206004820152602960248201527f4552433732313a207472616e73666572206f6620746f6b656e2074686174206960448201526839903737ba1037bbb760b91b606482015260840161074f565b6001600160a01b038216611db15760405162461bcd60e51b8152602060048201526024808201527f4552433732313a207472616e7366657220746f20746865207a65726f206164646044820152637265737360e01b606482015260840161074f565b611dbc838383612647565b611dc7600082611b7c565b6001600160a01b0383166000908152600360205260408120805460019290611df0908490613627565b90915550506001600160a01b0382166000908152600360205260408120805460019290611e1e9084906135dc565b909155505060008181526002602052604080822080546001600160a01b0319166001600160a01b0386811691821790925591518493918716917fddf252ad1be2c89b69c2b068fc378daa952ba7f163c4a11628f55a4df523b3ef91a4505050565b600b5460ff16611ec85760405162461bcd60e51b815260206004820152601460248201527314185d5cd8589b194e881b9bdd081c185d5cd95960621b604482015260640161074f565b600b805460ff191690557f5db9ee0a495bf2e6ff9c91a7834c1ba4fdd244a5e8aa4e537bd38aeae4b073aa335b6040516001600160a01b03909116815260200160405180910390a1565b612710600f541115611f665760405162461bcd60e51b815260206004820152601c60248201527f616c6c20506f7373756d732068617665206265656e206d696e74656400000000604482015260640161074f565b611f708282612698565b6120048160118054611f819061366a565b80601f0160208091040260200160405190810160405280929190818152602001828054611fad9061366a565b8015611ffa5780601f10611fcf57610100808354040283529160200191611ffa565b820191906000526020600020905b815481529060010190602001808311611fdd57829003601f168201915b50505050506126b2565b600f80549060006120148361369f565b90915550506001600160a01b038216600090815260166020526040812080549161203d8361369f565b91905055505050565b600b80546001600160a01b03838116610100818102610100600160a81b031985161790945560405193909204169182907f8be0079c531659141344cd1fd0a4f28419497f9722a3daafe3b4186f6b6457e090600090a35050565b600b5460ff16156120e65760405162461bcd60e51b815260206004820152601060248201526f14185d5cd8589b194e881c185d5cd95960821b604482015260640161074f565b600b805460ff191660011790557f62e78cea01bee320cd4e420270b5ea74000d11b0c9f74754ebdbfc544b05a258611ef53390565b6014546001600160a01b03163314801561213457508115155b6121805760405162461bcd60e51b815260206004820181905260248201527f6f6e6c792056524620436f6f7264696e61746f722063616e2066756c66696c6c604482015260640161074f565b61218c61270f826136ba565b6019555050565b816001600160a01b0316836001600160a01b031614156121f55760405162461bcd60e51b815260206004820152601960248201527f4552433732313a20617070726f766520746f2063616c6c657200000000000000604482015260640161074f565b6001600160a01b03838116600081815260056020908152604080832094871680845294825291829020805460ff191686151590811790915591519182527f17307eab39ab6107e8899845ad3d59bd9653f200f220920489ca2b5937696c31910160405180910390a3505050565b61226d848484611cd4565b6122798484848461273d565b6115045760405162461bcd60e51b815260040161074f906134b4565b60606122a082611b5f565b6123065760405162461bcd60e51b815260206004820152603160248201527f45524337323155524953746f726167653a2055524920717565727920666f72206044820152703737b732bc34b9ba32b73a103a37b5b2b760791b606482015260840161074f565b6000828152600660205260408120805461231f9061366a565b80601f016020809104026020016040519081016040528092919081815260200182805461234b9061366a565b80156123985780601f1061236d57610100808354040283529160200191612398565b820191906000526020600020905b81548152906001019060200180831161237b57829003601f168201915b5050505050905060006123a96116df565b90508051600014156123bc575092915050565b8151156123ee5780826040516020016123d6929190613371565b60405160208183030381529060405292505050919050565b611ccc8461284a565b6013546040516370a0823160e01b8152306004820152600091906001600160a01b037f000000000000000000000000000000000000000000000000000000000000000016906370a082319060240160206040518083038186803b15801561245d57600080fd5b505afa158015612471573d6000803e3d6000fd5b505050506040513d601f19601f82011682018060405250810190612495919061332d565b10156124fd5760405162461bcd60e51b815260206004820152603160248201527f4e6f7420656e6f756768204c696e6b2020696e20636f6e747261637420746f2060448201527033b2ba103930b73237b690373ab6b132b960791b606482015260840161074f565b61250b601254601354612914565b905090565b6018546000908190612523600143613627565b6040805160208101939093529040908201526bffffffffffffffffffffffff1941606090811b82168184015244607484015233901b16609482015260a80160408051601f198184030181528282528051602091820120838301909252600d83526c3930b73237b690373ab6b132b960991b908301526018549092506125b291906125ad90846136ba565b612a9f565b6018546000906001906125c590846136ba565b6125cf9190613627565b9392505050565b80516a636f6e736f6c652e6c6f67602083016000808483855afa5050505050565b60006001600160e01b031982166380ac58cd60e01b148061262857506001600160e01b03198216635b5e139f60e01b145b80610a0457506301ffc9a760e01b6001600160e01b0319831614610a04565b600b5460ff161561268d5760405162461bcd60e51b815260206004820152601060248201526f14185d5cd8589b194e881c185d5cd95960821b604482015260640161074f565b610c35838383612ae4565b6109f5828260405180602001604052806000815250612b9c565b6126bb82611b5f565b61271e5760405162461bcd60e51b815260206004820152602e60248201527f45524337323155524953746f726167653a2055524920736574206f66206e6f6e60448201526d32bc34b9ba32b73a103a37b5b2b760911b606482015260840161074f565b60008281526006602090815260409091208251610c3592840190612fe2565b60006001600160a01b0384163b1561283f57604051630a85bd0160e11b81526001600160a01b0385169063150b7a02906127819033908990889088906004016133a0565b602060405180830381600087803b15801561279b57600080fd5b505af19250505080156127cb575060408051601f3d908101601f191682019092526127c8918101906132b3565b60015b612825573d8080156127f9576040519150601f19603f3d011682016040523d82523d6000602084013e6127fe565b606091505b50805161281d5760405162461bcd60e51b815260040161074f906134b4565b805181602001fd5b6001600160e01b031916630a85bd0160e11b149050611ccc565b506001949350505050565b606061285582611b5f565b6128b95760405162461bcd60e51b815260206004820152602f60248201527f4552433732314d657461646174613a2055524920717565727920666f72206e6f60448201526e3732bc34b9ba32b73a103a37b5b2b760891b606482015260840161074f565b60006128c36116df565b905060008151116128e357604051806020016040528060008152506125cf565b806128ed84612bcf565b6040516020016128fe929190613371565b6040516020818303038152906040529392505050565b60007f00000000000000000000000000000000000000000000000000000000000000006001600160a01b0316634000aea07f000000000000000000000000000000000000000000000000000000000000000084866000604051602001612984929190918252602082015260400190565b6040516020818303038152906040526040518463ffffffff1660e01b81526004016129b1939291906133dd565b602060405180830381600087803b1580156129cb57600080fd5b505af11580156129df573d6000803e3d6000fd5b505050506040513d601f19601f82011682018060405250810190612a03919061325a565b506000838152600c6020818152604080842054815180840189905280830186905230606082015260808082018390528351808303909101815260a090910190925281519183019190912093879052919052612a5f9060016135dc565b6000858152600c6020526040902055611ccc8482604080516020808201949094528082019290925280518083038201815260609092019052805191012090565b6109f58282604051602401612ab5929190613492565b60408051601f198184030181529190526020810180516001600160e01b03166309710a9d60e41b1790526125d6565b6001600160a01b038316612b3f57612b3a81600980546000838152600a60205260408120829055600182018355919091527f6e1540171b6c0c960b71a7020d9f60077f6af931a8bbf590da0223dacf75c7af0155565b612b62565b816001600160a01b0316836001600160a01b031614612b6257612b628382612ce9565b6001600160a01b038216612b7957610c3581612d86565b826001600160a01b0316826001600160a01b031614610c3557610c358282612e5f565b612ba68383612ea3565b612bb3600084848461273d565b610c355760405162461bcd60e51b815260040161074f906134b4565b606081612bf35750506040805180820190915260018152600360fc1b602082015290565b8160005b8115612c1d5780612c078161369f565b9150612c169050600a836135f4565b9150612bf7565b60008167ffffffffffffffff811115612c4657634e487b7160e01b600052604160045260246000fd5b6040519080825280601f01601f191660200182016040528015612c70576020820181803683370190505b5090505b8415611ccc57612c85600183613627565b9150612c92600a866136ba565b612c9d9060306135dc565b60f81b818381518110612cc057634e487b7160e01b600052603260045260246000fd5b60200101906001600160f81b031916908160001a905350612ce2600a866135f4565b9450612c74565b60006001612cf68461109e565b612d009190613627565b600083815260086020526040902054909150808214612d53576001600160a01b03841660009081526007602090815260408083208584528252808320548484528184208190558352600890915290208190555b5060009182526008602090815260408084208490556001600160a01b039094168352600781528383209183525290812055565b600954600090612d9890600190613627565b6000838152600a602052604081205460098054939450909284908110612dce57634e487b7160e01b600052603260045260246000fd5b906000526020600020015490508060098381548110612dfd57634e487b7160e01b600052603260045260246000fd5b6000918252602080832090910192909255828152600a90915260408082208490558582528120556009805480612e4357634e487b7160e01b600052603160045260246000fd5b6001900381819060005260206000200160009055905550505050565b6000612e6a8361109e565b6001600160a01b039093166000908152600760209081526040808320868452825280832085905593825260089052919091209190915550565b6001600160a01b038216612ef95760405162461bcd60e51b815260206004820181905260248201527f4552433732313a206d696e7420746f20746865207a65726f2061646472657373604482015260640161074f565b612f0281611b5f565b15612f4f5760405162461bcd60e51b815260206004820152601c60248201527f4552433732313a20746f6b656e20616c7265616479206d696e74656400000000604482015260640161074f565b612f5b60008383612647565b6001600160a01b0382166000908152600360205260408120805460019290612f849084906135dc565b909155505060008181526002602052604080822080546001600160a01b0319166001600160a01b03861690811790915590518392907fddf252ad1be2c89b69c2b068fc378daa952ba7f163c4a11628f55a4df523b3ef908290a45050565b828054612fee9061366a565b90600052602060002090601f0160209004810192826130105760008555613056565b82601f1061302957805160ff1916838001178555613056565b82800160010185558215613056579182015b8281111561305657825182559160200191906001019061303b565b50613062929150613066565b5090565b5b808211156130625760008155600101613067565b600067ffffffffffffffff80841115613096576130966136fa565b604051601f8501601f19908116603f011681019082821181831017156130be576130be6136fa565b816040528093508581528686860111156130d757600080fd5b858560208301376000602087830101525050509392505050565b600060208284031215613102578081fd5b81356125cf81613710565b6000806040838503121561311f578081fd5b823561312a81613710565b9150602083013561313a81613710565b809150509250929050565b600080600060608486031215613159578081fd5b833561316481613710565b9250602084013561317481613710565b929592945050506040919091013590565b6000806000806080858703121561319a578081fd5b84356131a581613710565b935060208501356131b581613710565b925060408501359150606085013567ffffffffffffffff8111156131d7578182fd5b8501601f810187136131e7578182fd5b6131f68782356020840161307b565b91505092959194509250565b60008060408385031215613214578182fd5b823561321f81613710565b9150602083013561313a81613725565b60008060408385031215613241578182fd5b823561324c81613710565b946020939093013593505050565b60006020828403121561326b578081fd5b81516125cf81613725565b60008060408385031215613288578182fd5b50508035926020909101359150565b6000602082840312156132a8578081fd5b81356125cf81613733565b6000602082840312156132c4578081fd5b81516125cf81613733565b6000602082840312156132e0578081fd5b813567ffffffffffffffff8111156132f6578182fd5b8201601f81018413613306578182fd5b611ccc8482356020840161307b565b600060208284031215613326578081fd5b5035919050565b60006020828403121561333e578081fd5b5051919050565b6000815180845261335d81602086016020860161363e565b601f01601f19169290920160200192915050565b6000835161338381846020880161363e565b83519083019061339781836020880161363e565b01949350505050565b6001600160a01b03858116825284166020820152604081018390526080606082018190526000906133d390830184613345565b9695505050505050565b60018060a01b03841681528260208201526060604082015260006134046060830184613345565b95945050505050565b6020808252825182820181905260009190848201906040850190845b8181101561344557835183529284019291840191600101613429565b50909695505050505050565b6020815260006125cf6020830184613345565b6060815260006134776060830186613345565b6001600160a01b039490941660208301525060400152919050565b6040815260006134a56040830185613345565b90508260208301529392505050565b60208082526032908201527f4552433732313a207472616e7366657220746f206e6f6e20455243373231526560408201527131b2b4bb32b91034b6b83632b6b2b73a32b960711b606082015260800190565b60208082526030908201527f5468652063616c6c65722063616e206f6e6c792062652061207573657220616e60408201526f19081b9bdd08184818dbdb9d1c9858dd60821b606082015260800190565b6020808252818101527f4f776e61626c653a2063616c6c6572206973206e6f7420746865206f776e6572604082015260600190565b60208082526031908201527f4552433732313a207472616e736665722063616c6c6572206973206e6f74206f6040820152701ddb995c881b9bdc88185c1c1c9bdd9959607a1b606082015260800190565b600082198211156135ef576135ef6136ce565b500190565b600082613603576136036136e4565b500490565b6000816000190483118215151615613622576136226136ce565b500290565b600082821015613639576136396136ce565b500390565b60005b83811015613659578181015183820152602001613641565b838111156115045750506000910152565b600181811c9082168061367e57607f821691505b602082108114156112d557634e487b7160e01b600052602260045260246000fd5b60006000198214156136b3576136b36136ce565b5060010190565b6000826136c9576136c96136e4565b500690565b634e487b7160e01b600052601160045260246000fd5b634e487b7160e01b600052601260045260246000fd5b634e487b7160e01b600052604160045260246000fd5b6001600160a01b03811681146117c157600080fd5b80151581146117c157600080fd5b6001600160e01b0319811681146117c157600080fdfea26469706673582212200b1425313214cd0a7bebe006fc1f30a390127bc3de515f82941f30e577b9d0e064736f6c63430008040033",
  "linkReferences": {},
  "deployedLinkReferences": {}
}