{
  "_format": "hh-sol-artifact-1",
  "contractName": "TrashPossums",
  "sourceName": "contracts/TrashPossums.sol",
  "abi": [
    {
      "inputs": [
        {
          "internalType": "uint256",
          "name": "_possumPrice",
          "type": "uint256"
        },
        {
          "internalType": "uint256",
          "name": "_startMintDate",
          "type": "uint256"
        },
        {
          "internalType": "string",
          "name": "_baseUri",
          "type": "string"
        },
        {
          "internalType": "uint256",
          "name": "_claimDate",
          "type": "uint256"
        },
        {
          "internalType": "address",
          "name": "_VRFAddress",
          "type": "address"
        },
        {
          "internalType": "address",
          "name": "_linkToken",
          "type": "address"
        },
        {
          "internalType": "bytes32",
          "name": "_keyHash",
          "type": "bytes32"
        },
        {
          "internalType": "uint256",
          "name": "_fee",
          "type": "uint256"
        },
        {
          "internalType": "uint256",
          "name": "_totalPossums",
          "type": "uint256"
        }
      ],
      "stateMutability": "nonpayable",
      "type": "constructor"
    },
    {
      "anonymous": false,
      "inputs": [
        {
          "indexed": true,
          "internalType": "address",
          "name": "owner",
          "type": "address"
        },
        {
          "indexed": true,
          "internalType": "address",
          "name": "approved",
          "type": "address"
        },
        {
          "indexed": true,
          "internalType": "uint256",
          "name": "tokenId",
          "type": "uint256"
        }
      ],
      "name": "Approval",
      "type": "event"
    },
    {
      "anonymous": false,
      "inputs": [
        {
          "indexed": true,
          "internalType": "address",
          "name": "owner",
          "type": "address"
        },
        {
          "indexed": true,
          "internalType": "address",
          "name": "operator",
          "type": "address"
        },
        {
          "indexed": false,
          "internalType": "bool",
          "name": "approved",
          "type": "bool"
        }
      ],
      "name": "ApprovalForAll",
      "type": "event"
    },
    {
      "anonymous": false,
      "inputs": [
        {
          "indexed": true,
          "internalType": "address",
          "name": "previousOwner",
          "type": "address"
        },
        {
          "indexed": true,
          "internalType": "address",
          "name": "newOwner",
          "type": "address"
        }
      ],
      "name": "OwnershipTransferred",
      "type": "event"
    },
    {
      "anonymous": false,
      "inputs": [
        {
          "indexed": false,
          "internalType": "address",
          "name": "account",
          "type": "address"
        }
      ],
      "name": "Paused",
      "type": "event"
    },
    {
      "anonymous": false,
      "inputs": [
        {
          "indexed": true,
          "internalType": "address",
          "name": "to",
          "type": "address"
        },
        {
          "indexed": true,
          "internalType": "uint256",
          "name": "tokenId",
          "type": "uint256"
        }
      ],
      "name": "Reserved",
      "type": "event"
    },
    {
      "anonymous": false,
      "inputs": [
        {
          "indexed": true,
          "internalType": "address",
          "name": "from",
          "type": "address"
        },
        {
          "indexed": true,
          "internalType": "address",
          "name": "to",
          "type": "address"
        },
        {
          "indexed": true,
          "internalType": "uint256",
          "name": "tokenId",
          "type": "uint256"
        }
      ],
      "name": "Transfer",
      "type": "event"
    },
    {
      "anonymous": false,
      "inputs": [
        {
          "indexed": false,
          "internalType": "address",
          "name": "account",
          "type": "address"
        }
      ],
      "name": "Unpaused",
      "type": "event"
    },
    {
      "inputs": [
        {
          "internalType": "address",
          "name": "to",
          "type": "address"
        },
        {
          "internalType": "uint256",
          "name": "tokenId",
          "type": "uint256"
        }
      ],
      "name": "approve",
      "outputs": [],
      "stateMutability": "nonpayable",
      "type": "function"
    },
    {
      "inputs": [],
      "name": "arrayLength",
      "outputs": [
        {
          "internalType": "uint256",
          "name": "",
          "type": "uint256"
        }
      ],
      "stateMutability": "view",
      "type": "function"
    },
    {
      "inputs": [
        {
          "internalType": "address",
          "name": "owner",
          "type": "address"
        }
      ],
      "name": "balanceOf",
      "outputs": [
        {
          "internalType": "uint256",
          "name": "",
          "type": "uint256"
        }
      ],
      "stateMutability": "view",
      "type": "function"
    },
    {
      "inputs": [],
      "name": "baseTokenURI",
      "outputs": [
        {
          "internalType": "string",
          "name": "",
          "type": "string"
        }
      ],
      "stateMutability": "view",
      "type": "function"
    },
    {
      "inputs": [],
      "name": "claimPossums",
      "outputs": [],
      "stateMutability": "nonpayable",
      "type": "function"
    },
    {
      "inputs": [],
      "name": "executeOffset",
      "outputs": [
        {
          "internalType": "bool",
          "name": "",
          "type": "bool"
        }
      ],
      "stateMutability": "nonpayable",
      "type": "function"
    },
    {
      "inputs": [
        {
          "internalType": "uint256",
          "name": "tokenId",
          "type": "uint256"
        }
      ],
      "name": "getApproved",
      "outputs": [
        {
          "internalType": "address",
          "name": "",
          "type": "address"
        }
      ],
      "stateMutability": "view",
      "type": "function"
    },
    {
      "inputs": [],
      "name": "getAvailiblePossums",
      "outputs": [
        {
          "internalType": "uint256",
          "name": "",
          "type": "uint256"
        }
      ],
      "stateMutability": "view",
      "type": "function"
    },
    {
      "inputs": [],
      "name": "getBalance",
      "outputs": [
        {
          "internalType": "uint256",
          "name": "",
          "type": "uint256"
        }
      ],
      "stateMutability": "view",
      "type": "function"
    },
    {
      "inputs": [],
      "name": "getClaimDate",
      "outputs": [
        {
          "internalType": "uint256",
          "name": "",
          "type": "uint256"
        }
      ],
      "stateMutability": "view",
      "type": "function"
    },
    {
      "inputs": [],
      "name": "getMintingStartDate",
      "outputs": [
        {
          "internalType": "uint256",
          "name": "",
          "type": "uint256"
        }
      ],
      "stateMutability": "view",
      "type": "function"
    },
    {
      "inputs": [],
      "name": "getNumberOfReservedPossums",
      "outputs": [
        {
          "internalType": "uint256",
          "name": "",
          "type": "uint256"
        }
      ],
      "stateMutability": "view",
      "type": "function"
    },
    {
      "inputs": [],
      "name": "getOffset",
      "outputs": [
        {
          "internalType": "uint256",
          "name": "",
          "type": "uint256"
        }
      ],
      "stateMutability": "view",
      "type": "function"
    },
    {
      "inputs": [],
      "name": "getPossumPrice",
      "outputs": [
        {
          "internalType": "uint256",
          "name": "",
          "type": "uint256"
        }
      ],
      "stateMutability": "view",
      "type": "function"
    },
    {
      "inputs": [],
      "name": "getPremintNumber",
      "outputs": [
        {
          "internalType": "uint256",
          "name": "",
          "type": "uint256"
        }
      ],
      "stateMutability": "view",
      "type": "function"
    },
    {
      "inputs": [
        {
          "internalType": "address",
          "name": "_wallet",
          "type": "address"
        }
      ],
      "name": "getReservedPossumIds",
      "outputs": [
        {
          "internalType": "uint256[]",
          "name": "reservedIds",
          "type": "uint256[]"
        }
      ],
      "stateMutability": "view",
      "type": "function"
    },
    {
      "inputs": [
        {
          "internalType": "address",
          "name": "_wallet",
          "type": "address"
        }
      ],
      "name": "getReservedPossumsPerWallet",
      "outputs": [
        {
          "internalType": "uint256",
          "name": "",
          "type": "uint256"
        }
      ],
      "stateMutability": "view",
      "type": "function"
    },
    {
      "inputs": [],
      "name": "getTotalPossums",
      "outputs": [
        {
          "internalType": "uint256",
          "name": "",
          "type": "uint256"
        }
      ],
      "stateMutability": "view",
      "type": "function"
    },
    {
      "inputs": [],
      "name": "gettrash",
      "outputs": [
        {
          "internalType": "address",
          "name": "",
          "type": "address"
        }
      ],
      "stateMutability": "view",
      "type": "function"
    },
    {
      "inputs": [
        {
          "internalType": "address",
          "name": "owner",
          "type": "address"
        },
        {
          "internalType": "address",
          "name": "operator",
          "type": "address"
        }
      ],
      "name": "isApprovedForAll",
      "outputs": [
        {
          "internalType": "bool",
          "name": "",
          "type": "bool"
        }
      ],
      "stateMutability": "view",
      "type": "function"
    },
    {
      "inputs": [],
      "name": "maxPossumsPerWallet",
      "outputs": [
        {
          "internalType": "uint256",
          "name": "",
          "type": "uint256"
        }
      ],
      "stateMutability": "view",
      "type": "function"
    },
    {
      "inputs": [],
      "name": "name",
      "outputs": [
        {
          "internalType": "string",
          "name": "",
          "type": "string"
        }
      ],
      "stateMutability": "view",
      "type": "function"
    },
    {
      "inputs": [],
      "name": "offsetExecuted",
      "outputs": [
        {
          "internalType": "bool",
          "name": "",
          "type": "bool"
        }
      ],
      "stateMutability": "view",
      "type": "function"
    },
    {
      "inputs": [],
      "name": "owner",
      "outputs": [
        {
          "internalType": "address",
          "name": "",
          "type": "address"
        }
      ],
      "stateMutability": "view",
      "type": "function"
    },
    {
      "inputs": [
        {
          "internalType": "uint256",
          "name": "tokenId",
          "type": "uint256"
        }
      ],
      "name": "ownerOf",
      "outputs": [
        {
          "internalType": "address",
          "name": "",
          "type": "address"
        }
      ],
      "stateMutability": "view",
      "type": "function"
    },
    {
      "inputs": [],
      "name": "pause",
      "outputs": [],
      "stateMutability": "nonpayable",
      "type": "function"
    },
    {
      "inputs": [],
      "name": "paused",
      "outputs": [
        {
          "internalType": "bool",
          "name": "",
          "type": "bool"
        }
      ],
      "stateMutability": "view",
      "type": "function"
    },
    {
      "inputs": [],
      "name": "premintPossums",
      "outputs": [],
      "stateMutability": "nonpayable",
      "type": "function"
    },
    {
      "inputs": [],
      "name": "premintSet",
      "outputs": [
        {
          "internalType": "bool",
          "name": "",
          "type": "bool"
        }
      ],
      "stateMutability": "view",
      "type": "function"
    },
    {
      "inputs": [],
      "name": "premintingComplete",
      "outputs": [
        {
          "internalType": "bool",
          "name": "",
          "type": "bool"
        }
      ],
      "stateMutability": "view",
      "type": "function"
    },
    {
      "inputs": [],
      "name": "randomIdOffsetExecuted",
      "outputs": [
        {
          "internalType": "bool",
          "name": "",
          "type": "bool"
        }
      ],
      "stateMutability": "view",
      "type": "function"
    },
    {
      "inputs": [
        {
          "internalType": "bytes32",
          "name": "requestId",
          "type": "bytes32"
        },
        {
          "internalType": "uint256",
          "name": "randomness",
          "type": "uint256"
        }
      ],
      "name": "rawFulfillRandomness",
      "outputs": [],
      "stateMutability": "nonpayable",
      "type": "function"
    },
    {
      "inputs": [],
      "name": "renounceOwnership",
      "outputs": [],
      "stateMutability": "nonpayable",
      "type": "function"
    },
    {
      "inputs": [
        {
          "internalType": "uint256",
          "name": "amount",
          "type": "uint256"
        }
      ],
      "name": "reservePossums",
      "outputs": [],
      "stateMutability": "payable",
      "type": "function"
    },
    {
      "inputs": [
        {
          "internalType": "address",
          "name": "from",
          "type": "address"
        },
        {
          "internalType": "address",
          "name": "to",
          "type": "address"
        },
        {
          "internalType": "uint256",
          "name": "tokenId",
          "type": "uint256"
        }
      ],
      "name": "safeTransferFrom",
      "outputs": [],
      "stateMutability": "nonpayable",
      "type": "function"
    },
    {
      "inputs": [
        {
          "internalType": "address",
          "name": "from",
          "type": "address"
        },
        {
          "internalType": "address",
          "name": "to",
          "type": "address"
        },
        {
          "internalType": "uint256",
          "name": "tokenId",
          "type": "uint256"
        },
        {
          "internalType": "bytes",
          "name": "_data",
          "type": "bytes"
        }
      ],
      "name": "safeTransferFrom",
      "outputs": [],
      "stateMutability": "nonpayable",
      "type": "function"
    },
    {
      "inputs": [
        {
          "internalType": "address",
          "name": "operator",
          "type": "address"
        },
        {
          "internalType": "bool",
          "name": "approved",
          "type": "bool"
        }
      ],
      "name": "setApprovalForAll",
      "outputs": [],
      "stateMutability": "nonpayable",
      "type": "function"
    },
    {
      "inputs": [
        {
          "internalType": "string",
          "name": "_uri",
          "type": "string"
        }
      ],
      "name": "setBaseTokenURI",
      "outputs": [],
      "stateMutability": "nonpayable",
      "type": "function"
    },
    {
      "inputs": [
        {
          "internalType": "uint256",
          "name": "_possumPrice",
          "type": "uint256"
        }
      ],
      "name": "setPossumPrice",
      "outputs": [],
      "stateMutability": "nonpayable",
      "type": "function"
    },
    {
      "inputs": [
        {
          "internalType": "bytes4",
          "name": "interfaceId",
          "type": "bytes4"
        }
      ],
      "name": "supportsInterface",
      "outputs": [
        {
          "internalType": "bool",
          "name": "",
          "type": "bool"
        }
      ],
      "stateMutability": "view",
      "type": "function"
    },
    {
      "inputs": [],
      "name": "symbol",
      "outputs": [
        {
          "internalType": "string",
          "name": "",
          "type": "string"
        }
      ],
      "stateMutability": "view",
      "type": "function"
    },
    {
      "inputs": [
        {
          "internalType": "uint256",
          "name": "index",
          "type": "uint256"
        }
      ],
      "name": "tokenByIndex",
      "outputs": [
        {
          "internalType": "uint256",
          "name": "",
          "type": "uint256"
        }
      ],
      "stateMutability": "view",
      "type": "function"
    },
    {
      "inputs": [
        {
          "internalType": "address",
          "name": "owner",
          "type": "address"
        },
        {
          "internalType": "uint256",
          "name": "index",
          "type": "uint256"
        }
      ],
      "name": "tokenOfOwnerByIndex",
      "outputs": [
        {
          "internalType": "uint256",
          "name": "",
          "type": "uint256"
        }
      ],
      "stateMutability": "view",
      "type": "function"
    },
    {
      "inputs": [
        {
          "internalType": "uint256",
          "name": "tokenId",
          "type": "uint256"
        }
      ],
      "name": "tokenURI",
      "outputs": [
        {
          "internalType": "string",
          "name": "",
          "type": "string"
        }
      ],
      "stateMutability": "view",
      "type": "function"
    },
    {
      "inputs": [],
      "name": "totalPossums",
      "outputs": [
        {
          "internalType": "uint256",
          "name": "",
          "type": "uint256"
        }
      ],
      "stateMutability": "view",
      "type": "function"
    },
    {
      "inputs": [],
      "name": "totalSupply",
      "outputs": [
        {
          "internalType": "uint256",
          "name": "",
          "type": "uint256"
        }
      ],
      "stateMutability": "view",
      "type": "function"
    },
    {
      "inputs": [
        {
          "internalType": "address",
          "name": "from",
          "type": "address"
        },
        {
          "internalType": "address",
          "name": "to",
          "type": "address"
        },
        {
          "internalType": "uint256",
          "name": "tokenId",
          "type": "uint256"
        }
      ],
      "name": "transferFrom",
      "outputs": [],
      "stateMutability": "nonpayable",
      "type": "function"
    },
    {
      "inputs": [
        {
          "internalType": "address",
          "name": "newOwner",
          "type": "address"
        }
      ],
      "name": "transferOwnership",
      "outputs": [],
      "stateMutability": "nonpayable",
      "type": "function"
    },
    {
      "inputs": [],
      "name": "trashSet",
      "outputs": [
        {
          "internalType": "bool",
          "name": "",
          "type": "bool"
        }
      ],
      "stateMutability": "view",
      "type": "function"
    },
    {
      "inputs": [],
      "name": "unpause",
      "outputs": [],
      "stateMutability": "nonpayable",
      "type": "function"
    },
    {
      "inputs": [],
      "name": "withdraw",
      "outputs": [],
      "stateMutability": "payable",
      "type": "function"
    },
    {
      "inputs": [
        {
          "internalType": "contract IERC20",
          "name": "token",
          "type": "address"
        },
        {
          "internalType": "uint256",
          "name": "_amount",
          "type": "uint256"
        }
      ],
      "name": "withdrawErc20",
      "outputs": [],
      "stateMutability": "nonpayable",
      "type": "function"
    },
    {
      "stateMutability": "payable",
      "type": "receive"
    }
  ],
  "bytecode": "0x606460135561271060c08181526204e2e06040529060e06204e20080368337505081516200003592601692506020019062000276565b503480156200004357600080fd5b50604051620043c8380380620043c8833981016040819052620000669162000376565b84848484898585856040518060400160405280600d81526020016c547261736820506f7373756d7360981b8152506040518060400160405280600581526020016454504f535360d81b8152508160009080519060200190620000ca929190620002c6565b508051620000e0906001906020840190620002c6565b5050600b805460ff1916905550606091821b6001600160601b031990811660a052911b16608052600f93909355600e80546001600160a01b0319166001600160a01b039690961695909517909455600d55601192909255506015556200014d620001473390565b62000192565b601a899055601988905586516200016c90601c9060208a0190620002c6565b50601d86905560188190556200018230620001e4565b5050505050505050505062000506565b601780546001600160a01b038381166001600160a01b0319831681179093556040519116919082907f8be0079c531659141344cd1fd0a4f28419497f9722a3daafe3b4186f6b6457e090600090a35050565b601454600090610100900460ff1615620002445760405162461bcd60e51b815260206004820152601a60248201527f74726173682068617320616c7265616479206265656e20736574000000000000604482015260640160405180910390fd5b50601280546001600160a01b039092166001600160a01b0319909216821790556014805461ff00191661010017905590565b828054828255906000526020600020908101928215620002b4579160200282015b82811115620002b457825182559160200191906001019062000297565b50620002c292915062000342565b5090565b828054620002d490620004b3565b90600052602060002090601f016020900481019282620002f85760008555620002b4565b82601f106200031357805160ff1916838001178555620002b4565b82800160010185558215620002b45791820182811115620002b457825182559160200191906001019062000297565b5b80821115620002c2576000815560010162000343565b80516001600160a01b03811681146200037157600080fd5b919050565b60008060008060008060008060006101208a8c03121562000395578485fd5b895160208b015160408c0151919a5098506001600160401b0380821115620003bb578687fd5b818c0191508c601f830112620003cf578687fd5b815181811115620003e457620003e4620004f0565b604051601f8201601f19908116603f011681019083821181831017156200040f576200040f620004f0565b816040528281528f60208487010111156200042857898afd5b8993505b828410156200044f5760208486010151602085830101526020840193506200042c565b82841115620004615789602084830101525b809b50505050505060608a015195506200047e60808b0162000359565b94506200048e60a08b0162000359565b935060c08a0151925060e08a015191506101008a015190509295985092959850929598565b600181811c90821680620004c857607f821691505b60208210811415620004ea57634e487b7160e01b600052602260045260246000fd5b50919050565b634e487b7160e01b600052604160045260246000fd5b60805160601c60a05160601c613e88620005406000396000818161164a015261314f015260008181612ab601526131200152613e886000f3fe6080604052600436106103425760003560e01c80637fd3352e116101b0578063be374b7a116100ec578063dca7728411610095578063ead175061161006f578063ead17506146108d5578063eb6ad24e146108ea578063ecb77ff3146108ff578063f2fde38b1461091457600080fd5b8063dca7728414610856578063e554482e14610876578063e985e9c51461088c57600080fd5b8063cc6bbd65116100c6578063cc6bbd6514610817578063cdbfc9501461082c578063d547cfb71461084157600080fd5b8063be374b7a146107b8578063c87b56dd146107d8578063ca3d8b85146107f857600080fd5b806395d89b4111610159578063b031b35b11610133578063b031b35b1461074e578063b37cb09d14610763578063b88d4fde14610778578063bd1f4b521461079857600080fd5b806395d89b41146106fb5780639b48f48414610710578063a22cb4651461072e57600080fd5b806388a4dcae1161018a57806388a4dcae1461069f5780638da5cb5b146106bd57806394985ddd146106db57600080fd5b80637fd3352e1461064857806384511aff146106755780638456cb591461068a57600080fd5b80633f4ba83a1161027f57806350f257e1116102285780636352211e116102025780636352211e146105de57806370a08231146105fe578063715018a61461061e578063723bcc131461063357600080fd5b806350f257e11461057b5780635b46a8f2146105b05780635c975abb146105c657600080fd5b806343aceab61161025957806343aceab61461052c5780634e4a72de146105415780634f6ccce71461055b57600080fd5b80633f4ba83a146104e2578063416c585d146104f757806342842e0e1461050c57600080fd5b806318160ddd116102ec57806325554fb1116102c657806325554fb1146104855780632f745c591461049a57806330176e13146104ba5780633ccfd60b146104da57600080fd5b806318160ddd1461042f5780632344e9181461044457806323b872dd1461046557600080fd5b8063081812fc1161031d578063081812fc146103ba578063095ea7b3146103f257806312065fe01461041257600080fd5b806261b0ec1461034e57806301ffc9a71461036357806306fdde031461039857600080fd5b3661034957005b600080fd5b61036161035c366004613b7e565b610934565b005b34801561036f57600080fd5b5061038361037e366004613b00565b610c2c565b60405190151581526020015b60405180910390f35b3480156103a457600080fd5b506103ad610c3d565b60405161038f9190613cba565b3480156103c657600080fd5b506103da6103d5366004613b7e565b610ccf565b6040516001600160a01b03909116815260200161038f565b3480156103fe57600080fd5b5061036161040d366004613a98565b610d75565b34801561041e57600080fd5b50475b60405190815260200161038f565b34801561043b57600080fd5b50601b54610421565b34801561045057600080fd5b50601454610383906301000000900460ff1681565b34801561047157600080fd5b506103616104803660046139ae565b610ea2565b34801561049157600080fd5b50601e54610421565b3480156104a657600080fd5b506104216104b5366004613a98565b610f29565b3480156104c657600080fd5b506103616104d5366004613b38565b610fd1565b610361611042565b3480156104ee57600080fd5b50610361611151565b34801561050357600080fd5b506103616111b5565b34801561051857600080fd5b506103616105273660046139ae565b61120f565b34801561053857600080fd5b50601654610421565b34801561054d57600080fd5b506014546103839060ff1681565b34801561056757600080fd5b50610421610576366004613b7e565b61122a565b34801561058757600080fd5b5061042161059636600461395a565b6001600160a01b0316600090815260208052604090205490565b3480156105bc57600080fd5b5061042160185481565b3480156105d257600080fd5b50600b5460ff16610383565b3480156105ea57600080fd5b506103da6105f9366004613b7e565b6112dc565b34801561060a57600080fd5b5061042161061936600461395a565b611367565b34801561062a57600080fd5b50610361611401565b34801561063f57600080fd5b50601a54610421565b34801561065457600080fd5b5061066861066336600461395a565b611465565b60405161038f9190613c76565b34801561068157600080fd5b50610421603481565b34801561069657600080fd5b506103616115dd565b3480156106ab57600080fd5b506012546001600160a01b03166103da565b3480156106c957600080fd5b506017546001600160a01b03166103da565b3480156106e757600080fd5b506103616106f6366004613adf565b61163f565b34801561070757600080fd5b506103ad6116c1565b34801561071c57600080fd5b5060145462010000900460ff16610383565b34801561073a57600080fd5b50610361610749366004613a6b565b6116d0565b34801561075a57600080fd5b506103616116db565b34801561076f57600080fd5b50601d54610421565b34801561078457600080fd5b506103616107933660046139ee565b61182e565b3480156107a457600080fd5b506103616107b3366004613a98565b6118bc565b3480156107c457600080fd5b506014546103839062010000900460ff1681565b3480156107e457600080fd5b506103ad6107f3366004613b7e565b611ab5565b34801561080457600080fd5b5060145461038390610100900460ff1681565b34801561082357600080fd5b50601854610421565b34801561083857600080fd5b50610383611ac0565b34801561084d57600080fd5b506103ad611bc0565b34801561086257600080fd5b50610361610871366004613b7e565b611bcf565b34801561088257600080fd5b5061042160155481565b34801561089857600080fd5b506103836108a7366004613976565b6001600160a01b03918216600090815260056020908152604080832093909416825291909152205460ff1690565b3480156108e157600080fd5b50601954610421565b3480156108f657600080fd5b50601054610421565b34801561090b57600080fd5b50601354610421565b34801561092057600080fd5b5061036161092f36600461395a565b611c2e565b61093d42611d10565b6019541580159061095057504260195411155b6109a15760405162461bcd60e51b815260206004820152601160248201527f596f752061726520746f6f206561726c7900000000000000000000000000000060448201526064015b60405180910390fd5b60006109ac60165490565b905081601a546109bc9190613cf9565b341015610a315760405162461bcd60e51b815260206004820152602960248201527f4e6f7420656e6f75676820457468657220746f2072657365727665207468657360448201527f6520706f7373756d7300000000000000000000000000000000000000000000006064820152608401610998565b60008211610a815760405162461bcd60e51b815260206004820152601b60248201527f6e65656420746f206d696e74206174206c656173742031204e465400000000006044820152606401610998565b336000908152601f6020526040902054603490610a9f908490613ccd565b1115610aed5760405162461bcd60e51b815260206004820152601f60248201527f596f752063616e6e6f742072657365727665206d6f726520706f7373756d73006044820152606401610998565b81811015610b3d5760405162461bcd60e51b815260206004820152600f60248201527f4e6f20506f7373756d73206c65667400000000000000000000000000000000006044820152606401610998565b601b821115610b8e5760405162461bcd60e51b815260206004820152601660248201527f4d617820323720706572207472616e73616374696f6e000000000000000000006044820152606401610998565b60105415610b9b57600080fd5b60005b82811015610c27576000610bb0611d83565b336000908152602080805260408220805460018101825590835290822001829055601e805492935090610be283613d90565b9091555050604051819033907f904dcdc411e931497b95b06ddf8f8184815dd3bedc3c7c7cd4aed3ccd30783d890600090a35080610c1f81613d90565b915050610b9e565b505050565b6000610c37826120b2565b92915050565b606060008054610c4c90613d5b565b80601f0160208091040260200160405190810160405280929190818152602001828054610c7890613d5b565b8015610cc55780601f10610c9a57610100808354040283529160200191610cc5565b820191906000526020600020905b815481529060010190602001808311610ca857829003601f168201915b5050505050905090565b6000818152600260205260408120546001600160a01b0316610d595760405162461bcd60e51b815260206004820152602c60248201527f4552433732313a20617070726f76656420717565727920666f72206e6f6e657860448201527f697374656e7420746f6b656e00000000000000000000000000000000000000006064820152608401610998565b506000908152600460205260409020546001600160a01b031690565b6000610d80826112dc565b9050806001600160a01b0316836001600160a01b03161415610e0a5760405162461bcd60e51b815260206004820152602160248201527f4552433732313a20617070726f76616c20746f2063757272656e74206f776e6560448201527f72000000000000000000000000000000000000000000000000000000000000006064820152608401610998565b336001600160a01b0382161480610e265750610e2681336108a7565b610e985760405162461bcd60e51b815260206004820152603860248201527f4552433732313a20617070726f76652063616c6c6572206973206e6f74206f7760448201527f6e6572206e6f7220617070726f76656420666f7220616c6c00000000000000006064820152608401610998565b610c278383612108565b610eac3382612183565b610f1e5760405162461bcd60e51b815260206004820152603160248201527f4552433732313a207472616e736665722063616c6c6572206973206e6f74206f60448201527f776e6572206e6f7220617070726f7665640000000000000000000000000000006064820152608401610998565b610c2783838361228b565b6000610f3483611367565b8210610fa85760405162461bcd60e51b815260206004820152602b60248201527f455243373231456e756d657261626c653a206f776e657220696e646578206f7560448201527f74206f6620626f756e64730000000000000000000000000000000000000000006064820152608401610998565b506001600160a01b03919091166000908152600760209081526040808320938352929052205490565b6017546001600160a01b0316331461102b5760405162461bcd60e51b815260206004820181905260248201527f4f776e61626c653a2063616c6c6572206973206e6f7420746865206f776e65726044820152606401610998565b805161103e90601c90602084019061384b565b5050565b6017546001600160a01b0316331461109c5760405162461bcd60e51b815260206004820181905260248201527f4f776e61626c653a2063616c6c6572206973206e6f7420746865206f776e65726044820152606401610998565b4760006110b16017546001600160a01b031690565b6001600160a01b03168260405160006040518083038185875af1925050503d80600081146110fb576040519150601f19603f3d011682016040523d82523d6000602084013e611100565b606091505b505090508061103e5760405162461bcd60e51b815260206004820152601460248201527f4661696c656420746f2073656e642045746865720000000000000000000000006044820152606401610998565b6017546001600160a01b031633146111ab5760405162461bcd60e51b815260206004820181905260248201527f4f776e61626c653a2063616c6c6572206973206e6f7420746865206f776e65726044820152606401610998565b6111b3612470565b565b6017546001600160a01b031633146111b35760405162461bcd60e51b815260206004820181905260248201527f4f776e61626c653a2063616c6c6572206973206e6f7420746865206f776e65726044820152606401610998565b610c278383836040518060200160405280600081525061182e565b600061123560095490565b82106112a95760405162461bcd60e51b815260206004820152602c60248201527f455243373231456e756d657261626c653a20676c6f62616c20696e646578206f60448201527f7574206f6620626f756e647300000000000000000000000000000000000000006064820152608401610998565b600982815481106112ca57634e487b7160e01b600052603260045260246000fd5b90600052602060002001549050919050565b6000818152600260205260408120546001600160a01b031680610c375760405162461bcd60e51b815260206004820152602960248201527f4552433732313a206f776e657220717565727920666f72206e6f6e657869737460448201527f656e7420746f6b656e00000000000000000000000000000000000000000000006064820152608401610998565b60006001600160a01b0382166113e55760405162461bcd60e51b815260206004820152602a60248201527f4552433732313a2062616c616e636520717565727920666f7220746865207a6560448201527f726f2061646472657373000000000000000000000000000000000000000000006064820152608401610998565b506001600160a01b031660009081526003602052604090205490565b6017546001600160a01b0316331461145b5760405162461bcd60e51b815260206004820181905260248201527f4f776e61626c653a2063616c6c6572206973206e6f7420746865206f776e65726044820152606401610998565b6111b3600061250c565b6001600160a01b03811660009081526020805260409020546060906114cc5760405162461bcd60e51b815260206004820152601e60248201527f57616c6c657420686173206e6f20726573657276656420706f7373756d7300006044820152606401610998565b6001600160a01b038216600090815260208052604090205467ffffffffffffffff81111561150a57634e487b7160e01b600052604160045260246000fd5b604051908082528060200260200182016040528015611533578160200160208202803683370190505b50905060005b6001600160a01b03831660009081526020805260409020548110156115d7576001600160a01b0383166000908152602080526040902080548290811061158f57634e487b7160e01b600052603260045260246000fd5b90600052602060002001548282815181106115ba57634e487b7160e01b600052603260045260246000fd5b6020908102919091010152806115cf81613d90565b915050611539565b50919050565b6017546001600160a01b031633146116375760405162461bcd60e51b815260206004820181905260248201527f4f776e61626c653a2063616c6c6572206973206e6f7420746865206f776e65726044820152606401610998565b6111b361256b565b336001600160a01b037f000000000000000000000000000000000000000000000000000000000000000016146116b75760405162461bcd60e51b815260206004820152601f60248201527f4f6e6c7920565246436f6f7264696e61746f722063616e2066756c66696c6c006044820152606401610998565b61103e82826125f3565b606060018054610c4c90613d5b565b61103e33838361266b565b3360009081526020805260409020546117365760405162461bcd60e51b815260206004820152601c60248201527f796f752068617665206e6f20726573657276656420706f7373756d73000000006044820152606401610998565b42601d5410806117495750601854601e54145b61175257600080fd5b60008061175e60105490565b905060005b336000908152602080526040902054811015610c275733600090815260208052604081208054849190849081106117aa57634e487b7160e01b600052603260045260246000fd5b90600052602060002001546117bf9190613ccd565b905060016018546117d09190613d18565b81111561180d576117e360016064613d18565b60016018546117f29190613d18565b6117fc9083613d18565b6118069190613ccd565b9350611811565b8093505b61181b338561273a565b508061182681613d90565b915050611763565b6118383383612183565b6118aa5760405162461bcd60e51b815260206004820152603160248201527f4552433732313a207472616e736665722063616c6c6572206973206e6f74206f60448201527f776e6572206e6f7220617070726f7665640000000000000000000000000000006064820152608401610998565b6118b68484848461286e565b50505050565b6017546001600160a01b031633146119165760405162461bcd60e51b815260206004820181905260248201527f4f776e61626c653a2063616c6c6572206973206e6f7420746865206f776e65726044820152606401610998565b6040517f70a082310000000000000000000000000000000000000000000000000000000081523060048201526000906001600160a01b038416906370a082319060240160206040518083038186803b15801561197157600080fd5b505afa158015611985573d6000803e3d6000fd5b505050506040513d601f19601f820116820180604052508101906119a99190613b96565b11611a1c5760405162461bcd60e51b815260206004820152602960248201527f7468697320636f6e747261637420646f6573206e6f7420636f6e7461696e207460448201527f68697320746f6b656e00000000000000000000000000000000000000000000006064820152608401610998565b6040517fa9059cbb000000000000000000000000000000000000000000000000000000008152336004820152602481018290526001600160a01b0383169063a9059cbb90604401602060405180830381600087803b158015611a7d57600080fd5b505af1158015611a91573d6000803e3d6000fd5b505050506040513d601f19601f82011682018060405250810190610c279190613ac3565b6060610c37826128f7565b60145460009062010000900460ff1615611b1c5760405162461bcd60e51b815260206004820152601760248201527f6f666673657420616c72656164792065786563757465640000000000000000006044820152606401610998565b6016541580611b2c575060115442115b611b785760405162461bcd60e51b815260206004820152601960248201527f43616e6e6f742065786563757465206f666673657420796574000000000000006044820152606401610998565b611b80612a75565b5050600a601055601480547fffffffffffffffffffffffffffffffffffffffffffffffffffffffffff00ffff166201000090811791829055900460ff1690565b6060601c8054610c4c90613d5b565b6017546001600160a01b03163314611c295760405162461bcd60e51b815260206004820181905260248201527f4f776e61626c653a2063616c6c6572206973206e6f7420746865206f776e65726044820152606401610998565b601a55565b6017546001600160a01b03163314611c885760405162461bcd60e51b815260206004820181905260248201527f4f776e61626c653a2063616c6c6572206973206e6f7420746865206f776e65726044820152606401610998565b6001600160a01b038116611d045760405162461bcd60e51b815260206004820152602660248201527f4f776e61626c653a206e6577206f776e657220697320746865207a65726f206160448201527f64647265737300000000000000000000000000000000000000000000000000006064820152608401610998565b611d0d8161250c565b50565b611d0d81604051602401611d2691815260200190565b60408051601f198184030181529190526020810180517bffffffffffffffffffffffffffffffffffffffffffffffffffffffff167ff5b1bba900000000000000000000000000000000000000000000000000000000179052612bbf565b600080611d8e612be0565b905060168181548110611db157634e487b7160e01b600052603260045260246000fd5b90600052602060002001546000148015611e03575060168054611dd690600190613d18565b81548110611df457634e487b7160e01b600052603260045260246000fd5b90600052602060002001546000145b15611e4e576016549091508190611e1c90600190613d18565b60168281548110611e3d57634e487b7160e01b600052603260045260246000fd5b600091825260209091200155612079565b60168181548110611e6f57634e487b7160e01b600052603260045260246000fd5b9060005260206000200154600014158015611ec2575060168054611e9590600190613d18565b81548110611eb357634e487b7160e01b600052603260045260246000fd5b90600052602060002001546000145b15611f075760168181548110611ee857634e487b7160e01b600052603260045260246000fd5b906000526020600020015491506001601680549050611e1c9190613d18565b60168181548110611f2857634e487b7160e01b600052603260045260246000fd5b9060005260206000200154600014158015611f7c575060168054611f4e90600190613d18565b81548110611f6c57634e487b7160e01b600052603260045260246000fd5b9060005260206000200154600014155b1561200d5760168181548110611fa257634e487b7160e01b600052603260045260246000fd5b9060005260206000200154915060166001601680549050611fc39190613d18565b81548110611fe157634e487b7160e01b600052603260045260246000fd5b906000526020600020015460168281548110611e3d57634e487b7160e01b600052603260045260246000fd5b60168054919250829161202290600190613d18565b8154811061204057634e487b7160e01b600052603260045260246000fd5b90600052602060002001546016828154811061206c57634e487b7160e01b600052603260045260246000fd5b6000918252602090912001555b601680548061209857634e487b7160e01b600052603160045260246000fd5b600190038181906000526020600020016000905590555090565b60007fffffffff0000000000000000000000000000000000000000000000000000000082167f780e9d63000000000000000000000000000000000000000000000000000000001480610c375750610c3782612c83565b6000818152600460205260409020805473ffffffffffffffffffffffffffffffffffffffff19166001600160a01b038416908117909155819061214a826112dc565b6001600160a01b03167f8c5be1e5ebec7d5bd14f71427d1e84f3dd0314c0f7b2291e5b200ac8c7c3b92560405160405180910390a45050565b6000818152600260205260408120546001600160a01b031661220d5760405162461bcd60e51b815260206004820152602c60248201527f4552433732313a206f70657261746f7220717565727920666f72206e6f6e657860448201527f697374656e7420746f6b656e00000000000000000000000000000000000000006064820152608401610998565b6000612218836112dc565b9050806001600160a01b0316846001600160a01b031614806122535750836001600160a01b031661224884610ccf565b6001600160a01b0316145b8061228357506001600160a01b0380821660009081526005602090815260408083209388168352929052205460ff165b949350505050565b826001600160a01b031661229e826112dc565b6001600160a01b03161461231a5760405162461bcd60e51b815260206004820152602960248201527f4552433732313a207472616e73666572206f6620746f6b656e2074686174206960448201527f73206e6f74206f776e00000000000000000000000000000000000000000000006064820152608401610998565b6001600160a01b0382166123955760405162461bcd60e51b8152602060048201526024808201527f4552433732313a207472616e7366657220746f20746865207a65726f2061646460448201527f72657373000000000000000000000000000000000000000000000000000000006064820152608401610998565b6123a0838383612d66565b6123ab600082612108565b6001600160a01b03831660009081526003602052604081208054600192906123d4908490613d18565b90915550506001600160a01b0382166000908152600360205260408120805460019290612402908490613ccd565b9091555050600081815260026020526040808220805473ffffffffffffffffffffffffffffffffffffffff19166001600160a01b0386811691821790925591518493918716917fddf252ad1be2c89b69c2b068fc378daa952ba7f163c4a11628f55a4df523b3ef91a4505050565b600b5460ff166124c25760405162461bcd60e51b815260206004820152601460248201527f5061757361626c653a206e6f74207061757365640000000000000000000000006044820152606401610998565b600b805460ff191690557f5db9ee0a495bf2e6ff9c91a7834c1ba4fdd244a5e8aa4e537bd38aeae4b073aa335b6040516001600160a01b03909116815260200160405180910390a1565b601780546001600160a01b0383811673ffffffffffffffffffffffffffffffffffffffff19831681179093556040519116919082907f8be0079c531659141344cd1fd0a4f28419497f9722a3daafe3b4186f6b6457e090600090a35050565b600b5460ff16156125be5760405162461bcd60e51b815260206004820152601060248201527f5061757361626c653a20706175736564000000000000000000000000000000006044820152606401610998565b600b805460ff191660011790557f62e78cea01bee320cd4e420270b5ea74000d11b0c9f74754ebdbfc544b05a2586124ef3390565b600e546001600160a01b03163314801561260c57508115155b6126585760405162461bcd60e51b815260206004820181905260248201527f6f6e6c792056524620436f6f7264696e61746f722063616e2066756c66696c6c6044820152606401610998565b61266461270f82613dab565b6010555050565b816001600160a01b0316836001600160a01b031614156126cd5760405162461bcd60e51b815260206004820152601960248201527f4552433732313a20617070726f766520746f2063616c6c6572000000000000006044820152606401610998565b6001600160a01b03838116600081815260056020908152604080832094871680845294825291829020805460ff191686151590811790915591519182527f17307eab39ab6107e8899845ad3d59bd9653f200f220920489ca2b5937696c31910160405180910390a3505050565b601854601b54111561278e5760405162461bcd60e51b815260206004820152601c60248201527f616c6c20506f7373756d732068617665206265656e206d696e746564000000006044820152606401610998565b6127988282612dc4565b61282c81601c80546127a990613d5b565b80601f01602080910402602001604051908101604052809291908181526020018280546127d590613d5b565b80156128225780601f106127f757610100808354040283529160200191612822565b820191906000526020600020905b81548152906001019060200180831161280557829003601f168201915b5050505050612dde565b601b805490600061283c83613d90565b90915550506001600160a01b0382166000908152601f6020526040812080549161286583613d90565b91905055505050565b61287984848461228b565b61288584848484612e87565b6118b65760405162461bcd60e51b815260206004820152603260248201527f4552433732313a207472616e7366657220746f206e6f6e20455243373231526560448201527f63656976657220696d706c656d656e74657200000000000000000000000000006064820152608401610998565b6000818152600260205260409020546060906001600160a01b03166129845760405162461bcd60e51b815260206004820152603160248201527f45524337323155524953746f726167653a2055524920717565727920666f722060448201527f6e6f6e6578697374656e7420746f6b656e0000000000000000000000000000006064820152608401610998565b6000828152600660205260408120805461299d90613d5b565b80601f01602080910402602001604051908101604052809291908181526020018280546129c990613d5b565b8015612a165780601f106129eb57610100808354040283529160200191612a16565b820191906000526020600020905b8154815290600101906020018083116129f957829003601f168201915b505050505090506000612a27611bc0565b9050805160001415612a3a575092915050565b815115612a6c578082604051602001612a54929190613bda565b60405160208183030381529060405292505050919050565b61228384613034565b60004260115410612a8557600080fd5b600d546040517f70a082310000000000000000000000000000000000000000000000000000000081523060048201527f00000000000000000000000000000000000000000000000000000000000000006001600160a01b0316906370a082319060240160206040518083038186803b158015612b0057600080fd5b505afa158015612b14573d6000803e3d6000fd5b505050506040513d601f19601f82011682018060405250810190612b389190613b96565b1015612bac5760405162461bcd60e51b815260206004820152603160248201527f4e6f7420656e6f756768204c696e6b2020696e20636f6e747261637420746f2060448201527f6765742072616e646f6d206e756d6265720000000000000000000000000000006064820152608401610998565b612bba600f54600d5461311c565b905090565b80516a636f6e736f6c652e6c6f67602083016000808483855afa5050505050565b6016546000908190612bf3600143613d18565b6040805160208101939093529040908201527fffffffffffffffffffffffffffffffffffffffff00000000000000000000000041606090811b82168184015244607484015233901b16609482015260a80160408051601f198184030181529190528051602090910120601654909150600090600190612c729084613dab565b612c7c9190613d18565b9392505050565b60007fffffffff0000000000000000000000000000000000000000000000000000000082167f80ac58cd000000000000000000000000000000000000000000000000000000001480612d1657507fffffffff0000000000000000000000000000000000000000000000000000000082167f5b5e139f00000000000000000000000000000000000000000000000000000000145b80610c3757507f01ffc9a7000000000000000000000000000000000000000000000000000000007fffffffff00000000000000000000000000000000000000000000000000000000831614610c37565b600b5460ff1615612db95760405162461bcd60e51b815260206004820152601060248201527f5061757361626c653a20706175736564000000000000000000000000000000006044820152606401610998565b610c278383836132a7565b61103e82826040518060200160405280600081525061335f565b6000828152600260205260409020546001600160a01b0316612e685760405162461bcd60e51b815260206004820152602e60248201527f45524337323155524953746f726167653a2055524920736574206f66206e6f6e60448201527f6578697374656e7420746f6b656e0000000000000000000000000000000000006064820152608401610998565b60008281526006602090815260409091208251610c279284019061384b565b60006001600160a01b0384163b15613029576040517f150b7a020000000000000000000000000000000000000000000000000000000081526001600160a01b0385169063150b7a0290612ee4903390899088908890600401613c09565b602060405180830381600087803b158015612efe57600080fd5b505af1925050508015612f2e575060408051601f3d908101601f19168201909252612f2b91810190613b1c565b60015b612fde573d808015612f5c576040519150601f19603f3d011682016040523d82523d6000602084013e612f61565b606091505b508051612fd65760405162461bcd60e51b815260206004820152603260248201527f4552433732313a207472616e7366657220746f206e6f6e20455243373231526560448201527f63656976657220696d706c656d656e74657200000000000000000000000000006064820152608401610998565b805181602001fd5b7fffffffff00000000000000000000000000000000000000000000000000000000167f150b7a0200000000000000000000000000000000000000000000000000000000149050612283565b506001949350505050565b6000818152600260205260409020546060906001600160a01b03166130c15760405162461bcd60e51b815260206004820152602f60248201527f4552433732314d657461646174613a2055524920717565727920666f72206e6f60448201527f6e6578697374656e7420746f6b656e00000000000000000000000000000000006064820152608401610998565b60006130cb611bc0565b905060008151116130eb5760405180602001604052806000815250612c7c565b806130f5846133e8565b604051602001613106929190613bda565b6040516020818303038152906040529392505050565b60007f00000000000000000000000000000000000000000000000000000000000000006001600160a01b0316634000aea07f00000000000000000000000000000000000000000000000000000000000000008486600060405160200161318c929190918252602082015260400190565b6040516020818303038152906040526040518463ffffffff1660e01b81526004016131b993929190613c45565b602060405180830381600087803b1580156131d357600080fd5b505af11580156131e7573d6000803e3d6000fd5b505050506040513d601f19601f8201168201806040525081019061320b9190613ac3565b506000838152600c6020818152604080842054815180840189905280830186905230606082015260808082018390528351808303909101815260a090910190925281519183019190912093879052919052613267906001613ccd565b6000858152600c60205260409020556122838482604080516020808201949094528082019290925280518083038201815260609092019052805191012090565b6001600160a01b038316613302576132fd81600980546000838152600a60205260408120829055600182018355919091527f6e1540171b6c0c960b71a7020d9f60077f6af931a8bbf590da0223dacf75c7af0155565b613325565b816001600160a01b0316836001600160a01b031614613325576133258382613536565b6001600160a01b03821661333c57610c27816135d3565b826001600160a01b0316826001600160a01b031614610c2757610c2782826136ac565b61336983836136f0565b6133766000848484612e87565b610c275760405162461bcd60e51b815260206004820152603260248201527f4552433732313a207472616e7366657220746f206e6f6e20455243373231526560448201527f63656976657220696d706c656d656e74657200000000000000000000000000006064820152608401610998565b60608161342857505060408051808201909152600181527f3000000000000000000000000000000000000000000000000000000000000000602082015290565b8160005b8115613452578061343c81613d90565b915061344b9050600a83613ce5565b915061342c565b60008167ffffffffffffffff81111561347b57634e487b7160e01b600052604160045260246000fd5b6040519080825280601f01601f1916602001820160405280156134a5576020820181803683370190505b5090505b8415612283576134ba600183613d18565b91506134c7600a86613dab565b6134d2906030613ccd565b60f81b8183815181106134f557634e487b7160e01b600052603260045260246000fd5b60200101907effffffffffffffffffffffffffffffffffffffffffffffffffffffffffffff1916908160001a90535061352f600a86613ce5565b94506134a9565b6000600161354384611367565b61354d9190613d18565b6000838152600860205260409020549091508082146135a0576001600160a01b03841660009081526007602090815260408083208584528252808320548484528184208190558352600890915290208190555b5060009182526008602090815260408084208490556001600160a01b039094168352600781528383209183525290812055565b6009546000906135e590600190613d18565b6000838152600a60205260408120546009805493945090928490811061361b57634e487b7160e01b600052603260045260246000fd5b90600052602060002001549050806009838154811061364a57634e487b7160e01b600052603260045260246000fd5b6000918252602080832090910192909255828152600a9091526040808220849055858252812055600980548061369057634e487b7160e01b600052603160045260246000fd5b6001900381819060005260206000200160009055905550505050565b60006136b783611367565b6001600160a01b039093166000908152600760209081526040808320868452825280832085905593825260089052919091209190915550565b6001600160a01b0382166137465760405162461bcd60e51b815260206004820181905260248201527f4552433732313a206d696e7420746f20746865207a65726f20616464726573736044820152606401610998565b6000818152600260205260409020546001600160a01b0316156137ab5760405162461bcd60e51b815260206004820152601c60248201527f4552433732313a20746f6b656e20616c7265616479206d696e746564000000006044820152606401610998565b6137b760008383612d66565b6001600160a01b03821660009081526003602052604081208054600192906137e0908490613ccd565b9091555050600081815260026020526040808220805473ffffffffffffffffffffffffffffffffffffffff19166001600160a01b03861690811790915590518392907fddf252ad1be2c89b69c2b068fc378daa952ba7f163c4a11628f55a4df523b3ef908290a45050565b82805461385790613d5b565b90600052602060002090601f01602090048101928261387957600085556138bf565b82601f1061389257805160ff19168380011785556138bf565b828001600101855582156138bf579182015b828111156138bf5782518255916020019190600101906138a4565b506138cb9291506138cf565b5090565b5b808211156138cb57600081556001016138d0565b600067ffffffffffffffff808411156138ff576138ff613deb565b604051601f8501601f19908116603f0116810190828211818310171561392757613927613deb565b8160405280935085815286868601111561394057600080fd5b858560208301376000602087830101525050509392505050565b60006020828403121561396b578081fd5b8135612c7c81613e01565b60008060408385031215613988578081fd5b823561399381613e01565b915060208301356139a381613e01565b809150509250929050565b6000806000606084860312156139c2578081fd5b83356139cd81613e01565b925060208401356139dd81613e01565b929592945050506040919091013590565b60008060008060808587031215613a03578081fd5b8435613a0e81613e01565b93506020850135613a1e81613e01565b925060408501359150606085013567ffffffffffffffff811115613a40578182fd5b8501601f81018713613a50578182fd5b613a5f878235602084016138e4565b91505092959194509250565b60008060408385031215613a7d578182fd5b8235613a8881613e01565b915060208301356139a381613e16565b60008060408385031215613aaa578182fd5b8235613ab581613e01565b946020939093013593505050565b600060208284031215613ad4578081fd5b8151612c7c81613e16565b60008060408385031215613af1578182fd5b50508035926020909101359150565b600060208284031215613b11578081fd5b8135612c7c81613e24565b600060208284031215613b2d578081fd5b8151612c7c81613e24565b600060208284031215613b49578081fd5b813567ffffffffffffffff811115613b5f578182fd5b8201601f81018413613b6f578182fd5b612283848235602084016138e4565b600060208284031215613b8f578081fd5b5035919050565b600060208284031215613ba7578081fd5b5051919050565b60008151808452613bc6816020860160208601613d2f565b601f01601f19169290920160200192915050565b60008351613bec818460208801613d2f565b835190830190613c00818360208801613d2f565b01949350505050565b60006001600160a01b03808716835280861660208401525083604083015260806060830152613c3b6080830184613bae565b9695505050505050565b6001600160a01b0384168152826020820152606060408201526000613c6d6060830184613bae565b95945050505050565b6020808252825182820181905260009190848201906040850190845b81811015613cae57835183529284019291840191600101613c92565b50909695505050505050565b602081526000612c7c6020830184613bae565b60008219821115613ce057613ce0613dbf565b500190565b600082613cf457613cf4613dd5565b500490565b6000816000190483118215151615613d1357613d13613dbf565b500290565b600082821015613d2a57613d2a613dbf565b500390565b60005b83811015613d4a578181015183820152602001613d32565b838111156118b65750506000910152565b600181811c90821680613d6f57607f821691505b602082108114156115d757634e487b7160e01b600052602260045260246000fd5b6000600019821415613da457613da4613dbf565b5060010190565b600082613dba57613dba613dd5565b500690565b634e487b7160e01b600052601160045260246000fd5b634e487b7160e01b600052601260045260246000fd5b634e487b7160e01b600052604160045260246000fd5b6001600160a01b0381168114611d0d57600080fd5b8015158114611d0d57600080fd5b7fffffffff0000000000000000000000000000000000000000000000000000000081168114611d0d57600080fdfea26469706673582212205465ceea3bf6f9d141addeae93535a8643defef2c5b484913ef82ab61f99288f64736f6c63430008040033",
  "linkReferences": {},
  "deployedLinkReferences": {}
}