{
  "_format": "hh-sol-artifact-1",
  "contractName": "TrashPossums",
  "sourceName": "contracts/TrashPossums.sol",
  "abi": [
    {
      "inputs": [
        {
          "internalType": "uint256",
          "name": "_possumPrice",
          "type": "uint256"
        },
        {
          "internalType": "uint256",
          "name": "_startMintDate",
          "type": "uint256"
        },
        {
          "internalType": "string",
          "name": "_baseUri",
          "type": "string"
        },
        {
          "internalType": "address",
          "name": "_VRFAddress",
          "type": "address"
        },
        {
          "internalType": "address",
          "name": "_linkToken",
          "type": "address"
        },
        {
          "internalType": "bytes32",
          "name": "_keyHash",
          "type": "bytes32"
        },
        {
          "internalType": "uint256",
          "name": "_fee",
          "type": "uint256"
        },
        {
          "internalType": "uint256",
          "name": "_claimDate",
          "type": "uint256"
        }
      ],
      "stateMutability": "nonpayable",
      "type": "constructor"
    },
    {
      "anonymous": false,
      "inputs": [
        {
          "indexed": true,
          "internalType": "address",
          "name": "owner",
          "type": "address"
        },
        {
          "indexed": true,
          "internalType": "address",
          "name": "approved",
          "type": "address"
        },
        {
          "indexed": true,
          "internalType": "uint256",
          "name": "tokenId",
          "type": "uint256"
        }
      ],
      "name": "Approval",
      "type": "event"
    },
    {
      "anonymous": false,
      "inputs": [
        {
          "indexed": true,
          "internalType": "address",
          "name": "owner",
          "type": "address"
        },
        {
          "indexed": true,
          "internalType": "address",
          "name": "operator",
          "type": "address"
        },
        {
          "indexed": false,
          "internalType": "bool",
          "name": "approved",
          "type": "bool"
        }
      ],
      "name": "ApprovalForAll",
      "type": "event"
    },
    {
      "anonymous": false,
      "inputs": [
        {
          "indexed": true,
          "internalType": "address",
          "name": "previousOwner",
          "type": "address"
        },
        {
          "indexed": true,
          "internalType": "address",
          "name": "newOwner",
          "type": "address"
        }
      ],
      "name": "OwnershipTransferred",
      "type": "event"
    },
    {
      "anonymous": false,
      "inputs": [
        {
          "indexed": false,
          "internalType": "address",
          "name": "account",
          "type": "address"
        }
      ],
      "name": "Paused",
      "type": "event"
    },
    {
      "anonymous": false,
      "inputs": [
        {
          "indexed": true,
          "internalType": "address",
          "name": "to",
          "type": "address"
        },
        {
          "indexed": true,
          "internalType": "uint256",
          "name": "tokenId",
          "type": "uint256"
        }
      ],
      "name": "Reserved",
      "type": "event"
    },
    {
      "anonymous": false,
      "inputs": [
        {
          "indexed": true,
          "internalType": "address",
          "name": "from",
          "type": "address"
        },
        {
          "indexed": true,
          "internalType": "address",
          "name": "to",
          "type": "address"
        },
        {
          "indexed": true,
          "internalType": "uint256",
          "name": "tokenId",
          "type": "uint256"
        }
      ],
      "name": "Transfer",
      "type": "event"
    },
    {
      "anonymous": false,
      "inputs": [
        {
          "indexed": false,
          "internalType": "address",
          "name": "account",
          "type": "address"
        }
      ],
      "name": "Unpaused",
      "type": "event"
    },
    {
      "inputs": [
        {
          "internalType": "address",
          "name": "to",
          "type": "address"
        },
        {
          "internalType": "uint256",
          "name": "tokenId",
          "type": "uint256"
        }
      ],
      "name": "approve",
      "outputs": [],
      "stateMutability": "nonpayable",
      "type": "function"
    },
    {
      "inputs": [
        {
          "internalType": "address",
          "name": "owner",
          "type": "address"
        }
      ],
      "name": "balanceOf",
      "outputs": [
        {
          "internalType": "uint256",
          "name": "",
          "type": "uint256"
        }
      ],
      "stateMutability": "view",
      "type": "function"
    },
    {
      "inputs": [],
      "name": "baseTokenURI",
      "outputs": [
        {
          "internalType": "string",
          "name": "",
          "type": "string"
        }
      ],
      "stateMutability": "view",
      "type": "function"
    },
    {
      "inputs": [],
      "name": "claimPossums",
      "outputs": [],
      "stateMutability": "nonpayable",
      "type": "function"
    },
    {
      "inputs": [],
      "name": "executeOffset",
      "outputs": [],
      "stateMutability": "nonpayable",
      "type": "function"
    },
    {
      "inputs": [
        {
          "internalType": "uint256",
          "name": "tokenId",
          "type": "uint256"
        }
      ],
      "name": "getApproved",
      "outputs": [
        {
          "internalType": "address",
          "name": "",
          "type": "address"
        }
      ],
      "stateMutability": "view",
      "type": "function"
    },
    {
      "inputs": [],
      "name": "getBalance",
      "outputs": [
        {
          "internalType": "uint256",
          "name": "",
          "type": "uint256"
        }
      ],
      "stateMutability": "view",
      "type": "function"
    },
    {
      "inputs": [],
      "name": "getClaimDate",
      "outputs": [
        {
          "internalType": "uint256",
          "name": "",
          "type": "uint256"
        }
      ],
      "stateMutability": "view",
      "type": "function"
    },
    {
      "inputs": [],
      "name": "getMintingStartDate",
      "outputs": [
        {
          "internalType": "uint256",
          "name": "",
          "type": "uint256"
        }
      ],
      "stateMutability": "view",
      "type": "function"
    },
    {
      "inputs": [],
      "name": "getNumberOfAvailablePossums",
      "outputs": [
        {
          "internalType": "uint256",
          "name": "",
          "type": "uint256"
        }
      ],
      "stateMutability": "view",
      "type": "function"
    },
    {
      "inputs": [
        {
          "internalType": "address",
          "name": "_wallet",
          "type": "address"
        }
      ],
      "name": "getNumberOfReservedPossums",
      "outputs": [
        {
          "internalType": "uint256",
          "name": "",
          "type": "uint256"
        }
      ],
      "stateMutability": "view",
      "type": "function"
    },
    {
      "inputs": [],
      "name": "getOffset",
      "outputs": [
        {
          "internalType": "uint256",
          "name": "",
          "type": "uint256"
        }
      ],
      "stateMutability": "view",
      "type": "function"
    },
    {
      "inputs": [],
      "name": "getPossumPrice",
      "outputs": [
        {
          "internalType": "uint256",
          "name": "",
          "type": "uint256"
        }
      ],
      "stateMutability": "view",
      "type": "function"
    },
    {
      "inputs": [
        {
          "internalType": "address",
          "name": "_wallet",
          "type": "address"
        }
      ],
      "name": "getReservedPossumIds",
      "outputs": [
        {
          "internalType": "uint256[]",
          "name": "reservedIds",
          "type": "uint256[]"
        }
      ],
      "stateMutability": "view",
      "type": "function"
    },
    {
      "inputs": [
        {
          "internalType": "address",
          "name": "owner",
          "type": "address"
        },
        {
          "internalType": "address",
          "name": "operator",
          "type": "address"
        }
      ],
      "name": "isApprovedForAll",
      "outputs": [
        {
          "internalType": "bool",
          "name": "",
          "type": "bool"
        }
      ],
      "stateMutability": "view",
      "type": "function"
    },
    {
      "inputs": [],
      "name": "maxPossumsPerWallet",
      "outputs": [
        {
          "internalType": "uint256",
          "name": "",
          "type": "uint256"
        }
      ],
      "stateMutability": "view",
      "type": "function"
    },
    {
      "inputs": [],
      "name": "name",
      "outputs": [
        {
          "internalType": "string",
          "name": "",
          "type": "string"
        }
      ],
      "stateMutability": "view",
      "type": "function"
    },
    {
      "inputs": [],
      "name": "offsetExecuted",
      "outputs": [
        {
          "internalType": "bool",
          "name": "",
          "type": "bool"
        }
      ],
      "stateMutability": "view",
      "type": "function"
    },
    {
      "inputs": [],
      "name": "owner",
      "outputs": [
        {
          "internalType": "address",
          "name": "",
          "type": "address"
        }
      ],
      "stateMutability": "view",
      "type": "function"
    },
    {
      "inputs": [
        {
          "internalType": "uint256",
          "name": "tokenId",
          "type": "uint256"
        }
      ],
      "name": "ownerOf",
      "outputs": [
        {
          "internalType": "address",
          "name": "",
          "type": "address"
        }
      ],
      "stateMutability": "view",
      "type": "function"
    },
    {
      "inputs": [],
      "name": "pause",
      "outputs": [],
      "stateMutability": "nonpayable",
      "type": "function"
    },
    {
      "inputs": [],
      "name": "paused",
      "outputs": [
        {
          "internalType": "bool",
          "name": "",
          "type": "bool"
        }
      ],
      "stateMutability": "view",
      "type": "function"
    },
    {
      "inputs": [],
      "name": "premintPossums",
      "outputs": [],
      "stateMutability": "nonpayable",
      "type": "function"
    },
    {
      "inputs": [
        {
          "internalType": "bytes32",
          "name": "requestId",
          "type": "bytes32"
        },
        {
          "internalType": "uint256",
          "name": "randomness",
          "type": "uint256"
        }
      ],
      "name": "rawFulfillRandomness",
      "outputs": [],
      "stateMutability": "nonpayable",
      "type": "function"
    },
    {
      "inputs": [],
      "name": "renounceOwnership",
      "outputs": [],
      "stateMutability": "nonpayable",
      "type": "function"
    },
    {
      "inputs": [
        {
          "internalType": "uint256",
          "name": "amount",
          "type": "uint256"
        }
      ],
      "name": "reservePossums",
      "outputs": [],
      "stateMutability": "payable",
      "type": "function"
    },
    {
      "inputs": [
        {
          "internalType": "address",
          "name": "from",
          "type": "address"
        },
        {
          "internalType": "address",
          "name": "to",
          "type": "address"
        },
        {
          "internalType": "uint256",
          "name": "tokenId",
          "type": "uint256"
        }
      ],
      "name": "safeTransferFrom",
      "outputs": [],
      "stateMutability": "nonpayable",
      "type": "function"
    },
    {
      "inputs": [
        {
          "internalType": "address",
          "name": "from",
          "type": "address"
        },
        {
          "internalType": "address",
          "name": "to",
          "type": "address"
        },
        {
          "internalType": "uint256",
          "name": "tokenId",
          "type": "uint256"
        },
        {
          "internalType": "bytes",
          "name": "_data",
          "type": "bytes"
        }
      ],
      "name": "safeTransferFrom",
      "outputs": [],
      "stateMutability": "nonpayable",
      "type": "function"
    },
    {
      "inputs": [
        {
          "internalType": "address",
          "name": "operator",
          "type": "address"
        },
        {
          "internalType": "bool",
          "name": "approved",
          "type": "bool"
        }
      ],
      "name": "setApprovalForAll",
      "outputs": [],
      "stateMutability": "nonpayable",
      "type": "function"
    },
    {
      "inputs": [
        {
          "internalType": "string",
          "name": "_uri",
          "type": "string"
        }
      ],
      "name": "setBaseTokenURI",
      "outputs": [],
      "stateMutability": "nonpayable",
      "type": "function"
    },
    {
      "inputs": [
        {
          "internalType": "uint256",
          "name": "_possumPrice",
          "type": "uint256"
        }
      ],
      "name": "setPossumPrice",
      "outputs": [],
      "stateMutability": "nonpayable",
      "type": "function"
    },
    {
      "inputs": [
        {
          "internalType": "bytes4",
          "name": "interfaceId",
          "type": "bytes4"
        }
      ],
      "name": "supportsInterface",
      "outputs": [
        {
          "internalType": "bool",
          "name": "",
          "type": "bool"
        }
      ],
      "stateMutability": "view",
      "type": "function"
    },
    {
      "inputs": [],
      "name": "symbol",
      "outputs": [
        {
          "internalType": "string",
          "name": "",
          "type": "string"
        }
      ],
      "stateMutability": "view",
      "type": "function"
    },
    {
      "inputs": [
        {
          "internalType": "uint256",
          "name": "index",
          "type": "uint256"
        }
      ],
      "name": "tokenByIndex",
      "outputs": [
        {
          "internalType": "uint256",
          "name": "",
          "type": "uint256"
        }
      ],
      "stateMutability": "view",
      "type": "function"
    },
    {
      "inputs": [
        {
          "internalType": "address",
          "name": "owner",
          "type": "address"
        },
        {
          "internalType": "uint256",
          "name": "index",
          "type": "uint256"
        }
      ],
      "name": "tokenOfOwnerByIndex",
      "outputs": [
        {
          "internalType": "uint256",
          "name": "",
          "type": "uint256"
        }
      ],
      "stateMutability": "view",
      "type": "function"
    },
    {
      "inputs": [
        {
          "internalType": "uint256",
          "name": "tokenId",
          "type": "uint256"
        }
      ],
      "name": "tokenURI",
      "outputs": [
        {
          "internalType": "string",
          "name": "",
          "type": "string"
        }
      ],
      "stateMutability": "view",
      "type": "function"
    },
    {
      "inputs": [],
      "name": "totalPossums",
      "outputs": [
        {
          "internalType": "uint256",
          "name": "",
          "type": "uint256"
        }
      ],
      "stateMutability": "view",
      "type": "function"
    },
    {
      "inputs": [],
      "name": "totalSupply",
      "outputs": [
        {
          "internalType": "uint256",
          "name": "",
          "type": "uint256"
        }
      ],
      "stateMutability": "view",
      "type": "function"
    },
    {
      "inputs": [
        {
          "internalType": "address",
          "name": "from",
          "type": "address"
        },
        {
          "internalType": "address",
          "name": "to",
          "type": "address"
        },
        {
          "internalType": "uint256",
          "name": "tokenId",
          "type": "uint256"
        }
      ],
      "name": "transferFrom",
      "outputs": [],
      "stateMutability": "nonpayable",
      "type": "function"
    },
    {
      "inputs": [
        {
          "internalType": "address",
          "name": "newOwner",
          "type": "address"
        }
      ],
      "name": "transferOwnership",
      "outputs": [],
      "stateMutability": "nonpayable",
      "type": "function"
    },
    {
      "inputs": [],
      "name": "unpause",
      "outputs": [],
      "stateMutability": "nonpayable",
      "type": "function"
    },
    {
      "inputs": [],
      "name": "withdraw",
      "outputs": [],
      "stateMutability": "payable",
      "type": "function"
    },
    {
      "inputs": [
        {
          "internalType": "contract IERC20",
          "name": "token",
          "type": "address"
        },
        {
          "internalType": "uint256",
          "name": "_amount",
          "type": "uint256"
        }
      ],
      "name": "withdrawErc20",
      "outputs": [],
      "stateMutability": "nonpayable",
      "type": "function"
    },
    {
      "stateMutability": "payable",
      "type": "receive"
    }
  ],
  "bytecode": "0x61271060c08181526204e2e06040529060e06204e200803683375050815162000030926018925060200190620001b0565b503480156200003e57600080fd5b5060405162003cd538038062003cd58339810160408190526200006191620002b0565b604080518082018252600d81526c547261736820506f7373756d7360981b60208083019182528351808501909452600584526454504f535360d81b90840152815188938893929091620000b79160009162000200565b508051620000cd90600190602084019062000200565b5050600b805460ff1916905550620000e53362000156565b6001600160601b0319606092831b811660a052911b16608052600e889055600d87905585516200011d90601190602089019062000200565b50601292909255601355601480546001600160a01b0319166001600160a01b039490941693909317909255506015555062000433915050565b600b80546001600160a01b03838116610100818102610100600160a81b031985161790945560405193909204169182907f8be0079c531659141344cd1fd0a4f28419497f9722a3daafe3b4186f6b6457e090600090a35050565b828054828255906000526020600020908101928215620001ee579160200282015b82811115620001ee578251825591602001919060010190620001d1565b50620001fc9291506200027c565b5090565b8280546200020e90620003e0565b90600052602060002090601f016020900481019282620002325760008555620001ee565b82601f106200024d57805160ff1916838001178555620001ee565b82800160010185558215620001ee5791820182811115620001ee578251825591602001919060010190620001d1565b5b80821115620001fc57600081556001016200027d565b80516001600160a01b0381168114620002ab57600080fd5b919050565b600080600080600080600080610100898b031215620002cd578384fd5b88516020808b015160408c0151929a509850906001600160401b0380821115620002f5578687fd5b818c0191508c601f83011262000309578687fd5b8151818111156200031e576200031e6200041d565b604051601f8201601f19908116603f011681019083821181831017156200034957620003496200041d565b816040528281528f868487010111156200036157898afd5b8993505b8284101562000384578484018601518185018701529285019262000365565b828411156200039557898684830101525b809b50505050505050620003ac60608a0162000293565b9450620003bc60808a0162000293565b935060a0890151925060c0890151915060e089015190509295985092959890939650565b600181811c90821680620003f557607f821691505b602082108114156200041757634e487b7160e01b600052602260045260246000fd5b50919050565b634e487b7160e01b600052604160045260246000fd5b60805160601c60a05160601c6138686200046d600039600081816113d20152612ac50152600081816125cf0152612a9601526138686000f3fe60806040526004361061025f5760003560e01c80637fd3352e11610144578063b88d4fde116100b6578063dca772841161007a578063dca772841461067b578063e985e9c51461069b578063eace0561146106e4578063ead175061461071a578063eb6ad24e1461072f578063f2fde38b1461074457600080fd5b8063b88d4fde146105f1578063bd1f4b5214610611578063c87b56dd14610631578063cdbfc95014610651578063d547cfb71461066657600080fd5b806395d89b411161010857806395d89b41146105655780639b48f4841461057a578063a22cb46514610592578063b031b35b146105b2578063b37cb09d146105c7578063b59bb11e146105dc57600080fd5b80637fd3352e146104cb57806384511aff146104f85780638456cb591461050d5780638da5cb5b1461052257806394985ddd1461054557600080fd5b80633ccfd60b116101dd5780635b46a8f2116101a15780635b46a8f2146104335780635c975abb146104495780636352211e1461046157806370a0823114610481578063715018a6146104a1578063723bcc13146104b657600080fd5b80633ccfd60b146103c15780633f4ba83a146103c9578063416c585d146103de57806342842e0e146103f35780634f6ccce71461041357600080fd5b806312065fe01161022457806312065fe01461032f57806318160ddd1461034c57806323b872dd146103615780632f745c591461038157806330176e13146103a157600080fd5b806261b0ec1461026b57806301ffc9a71461028057806306fdde03146102b5578063081812fc146102d7578063095ea7b31461030f57600080fd5b3661026657005b600080fd5b61027e61027936600461344e565b610764565b005b34801561028c57600080fd5b506102a061029b3660046133d0565b610a2a565b60405190151581526020015b60405180910390f35b3480156102c157600080fd5b506102ca610a3b565b6040516102ac919061358a565b3480156102e357600080fd5b506102f76102f236600461344e565b610acd565b6040516001600160a01b0390911681526020016102ac565b34801561031b57600080fd5b5061027e61032a366004613368565b610b55565b34801561033b57600080fd5b50475b6040519081526020016102ac565b34801561035857600080fd5b50600f5461033e565b34801561036d57600080fd5b5061027e61037c36600461327e565b610c6b565b34801561038d57600080fd5b5061033e61039c366004613368565b610c9c565b3480156103ad57600080fd5b5061027e6103bc366004613408565b610d32565b61027e610d75565b3480156103d557600080fd5b5061027e610e57565b3480156103ea57600080fd5b5061027e610e91565b3480156103ff57600080fd5b5061027e61040e36600461327e565b61101f565b34801561041f57600080fd5b5061033e61042e36600461344e565b61103a565b34801561043f57600080fd5b5061033e61271081565b34801561045557600080fd5b50600b5460ff166102a0565b34801561046d57600080fd5b506102f761047c36600461344e565b6110db565b34801561048d57600080fd5b5061033e61049c36600461322a565b611152565b3480156104ad57600080fd5b5061027e6111d9565b3480156104c257600080fd5b50600e5461033e565b3480156104d757600080fd5b506104eb6104e636600461322a565b611213565b6040516102ac9190613546565b34801561050457600080fd5b5061033e603681565b34801561051957600080fd5b5061027e61138f565b34801561052e57600080fd5b50600b5461010090046001600160a01b03166102f7565b34801561055157600080fd5b5061027e6105603660046133af565b6113c7565b34801561057157600080fd5b506102ca611449565b34801561058657600080fd5b50601a5460ff166102a0565b34801561059e57600080fd5b5061027e6105ad36600461333b565b611458565b3480156105be57600080fd5b5061027e611463565b3480156105d357600080fd5b5060155461033e565b3480156105e857600080fd5b5060185461033e565b3480156105fd57600080fd5b5061027e61060c3660046132be565b6115fd565b34801561061d57600080fd5b5061027e61062c366004613368565b611635565b34801561063d57600080fd5b506102ca61064c36600461344e565b6117be565b34801561065d57600080fd5b5061027e6117c9565b34801561067257600080fd5b506102ca611895565b34801561068757600080fd5b5061027e61069636600461344e565b6118a4565b3480156106a757600080fd5b506102a06106b6366004613246565b6001600160a01b03918216600090815260056020908152604080832093909416825291909152205460ff1690565b3480156106f057600080fd5b5061033e6106ff36600461322a565b6001600160a01b031660009081526017602052604090205490565b34801561072657600080fd5b50600d5461033e565b34801561073b57600080fd5b5060195461033e565b34801561075057600080fd5b5061027e61075f36600461322a565b6118d9565b32331461078c5760405162461bcd60e51b8152600401610783906135ef565b60405180910390fd5b6107954261197a565b600d54158015906107a8575042600d5411155b6107e85760405162461bcd60e51b8152602060048201526011602482015270596f752061726520746f6f206561726c7960781b6044820152606401610783565b80600e546107f691906136f1565b3410156108575760405162461bcd60e51b815260206004820152602960248201527f4e6f7420656e6f75676820457468657220746f207265736572766520746865736044820152686520706f7373756d7360b81b6064820152608401610783565b600081116108a75760405162461bcd60e51b815260206004820152601b60248201527f6e65656420746f206d696e74206174206c656173742031204e465400000000006044820152606401610783565b336000908152601660205260409020546036906108c59083906136c5565b11156109135760405162461bcd60e51b815260206004820152601f60248201527f596f752063616e6e6f742072657365727665206d6f726520706f7373756d73006044820152606401610783565b6018548111156109575760405162461bcd60e51b815260206004820152600f60248201526e139bc8141bdcdcdd5b5cc81b19599d608a1b6044820152606401610783565b601b8111156109a15760405162461bcd60e51b815260206004820152601660248201527526b0bc10191b903832b9103a3930b739b0b1ba34b7b760511b6044820152606401610783565b601954156109ae57600080fd5b60005b81811015610a265760006109c36119bf565b33600081815260176020908152604080832080546001810182559084529183209091018490555192935083927f904dcdc411e931497b95b06ddf8f8184815dd3bedc3c7c7cd4aed3ccd30783d89190a35080610a1e81613788565b9150506109b1565b5050565b6000610a3582611cee565b92915050565b606060008054610a4a90613753565b80601f0160208091040260200160405190810160405280929190818152602001828054610a7690613753565b8015610ac35780601f10610a9857610100808354040283529160200191610ac3565b820191906000526020600020905b815481529060010190602001808311610aa657829003601f168201915b5050505050905090565b6000610ad882611d13565b610b395760405162461bcd60e51b815260206004820152602c60248201527f4552433732313a20617070726f76656420717565727920666f72206e6f6e657860448201526b34b9ba32b73a103a37b5b2b760a11b6064820152608401610783565b506000908152600460205260409020546001600160a01b031690565b6000610b60826110db565b9050806001600160a01b0316836001600160a01b03161415610bce5760405162461bcd60e51b815260206004820152602160248201527f4552433732313a20617070726f76616c20746f2063757272656e74206f776e656044820152603960f91b6064820152608401610783565b336001600160a01b0382161480610bea5750610bea81336106b6565b610c5c5760405162461bcd60e51b815260206004820152603860248201527f4552433732313a20617070726f76652063616c6c6572206973206e6f74206f7760448201527f6e6572206e6f7220617070726f76656420666f7220616c6c00000000000000006064820152608401610783565b610c668383611d30565b505050565b610c753382611d9e565b610c915760405162461bcd60e51b815260040161078390613674565b610c66838383611e88565b6000610ca783611152565b8210610d095760405162461bcd60e51b815260206004820152602b60248201527f455243373231456e756d657261626c653a206f776e657220696e646578206f7560448201526a74206f6620626f756e647360a81b6064820152608401610783565b506001600160a01b03919091166000908152600760209081526040808320938352929052205490565b600b546001600160a01b03610100909104163314610d625760405162461bcd60e51b81526004016107839061363f565b8051610a2690601190602084019061311b565b600b546001600160a01b03610100909104163314610da55760405162461bcd60e51b81526004016107839061363f565b476000610dc0600b546001600160a01b036101009091041690565b6001600160a01b03168260405160006040518083038185875af1925050503d8060008114610e0a576040519150601f19603f3d011682016040523d82523d6000602084013e610e0f565b606091505b5050905080610a265760405162461bcd60e51b81526020600482015260146024820152732330b4b632b2103a379039b2b7321022ba3432b960611b6044820152606401610783565b600b546001600160a01b03610100909104163314610e875760405162461bcd60e51b81526004016107839061363f565b610e8f612033565b565b600b546001600160a01b03610100909104163314610ec15760405162461bcd60e51b81526004016107839061363f565b60105460ff1615610f225760405162461bcd60e51b815260206004820152602560248201527f596f752063616e206f6e6c79207072656d696e742074686520506f7373756d73604482015264206f6e636560d81b6064820152608401610783565b60185460641115610f755760405162461bcd60e51b815260206004820152601d60248201527f4e6f20506f7373756d73206c65667420746f20626520636c61696d65640000006044820152606401610783565b60005b606481101561100f57610f8b33826120c6565b601854610f9a90600190613710565b60188281548110610fbb57634e487b7160e01b600052603260045260246000fd5b6000918252602090912001556018805480610fe657634e487b7160e01b600052603160045260246000fd5b60019003818190600052602060002001600090559055808061100790613788565b915050610f78565b506010805460ff19166001179055565b610c66838383604051806020016040528060008152506115fd565b600061104560095490565b82106110a85760405162461bcd60e51b815260206004820152602c60248201527f455243373231456e756d657261626c653a20676c6f62616c20696e646578206f60448201526b7574206f6620626f756e647360a01b6064820152608401610783565b600982815481106110c957634e487b7160e01b600052603260045260246000fd5b90600052602060002001549050919050565b6000818152600260205260408120546001600160a01b031680610a355760405162461bcd60e51b815260206004820152602960248201527f4552433732313a206f776e657220717565727920666f72206e6f6e657869737460448201526832b73a103a37b5b2b760b91b6064820152608401610783565b60006001600160a01b0382166111bd5760405162461bcd60e51b815260206004820152602a60248201527f4552433732313a2062616c616e636520717565727920666f7220746865207a65604482015269726f206164647265737360b01b6064820152608401610783565b506001600160a01b031660009081526003602052604090205490565b600b546001600160a01b036101009091041633146112095760405162461bcd60e51b81526004016107839061363f565b610e8f60006121fa565b6001600160a01b03811660009081526017602052604090205460609061127b5760405162461bcd60e51b815260206004820152601e60248201527f57616c6c657420686173206e6f20726573657276656420706f7373756d7300006044820152606401610783565b6001600160a01b03821660009081526017602052604090205467ffffffffffffffff8111156112ba57634e487b7160e01b600052604160045260246000fd5b6040519080825280602002602001820160405280156112e3578160200160208202803683370190505b50905060005b6001600160a01b038316600090815260176020526040902054811015611389576001600160a01b038316600090815260176020526040902080548290811061134157634e487b7160e01b600052603260045260246000fd5b906000526020600020015482828151811061136c57634e487b7160e01b600052603260045260246000fd5b60209081029190910101528061138181613788565b9150506112e9565b50919050565b600b546001600160a01b036101009091041633146113bf5760405162461bcd60e51b81526004016107839061363f565b610e8f612254565b336001600160a01b037f0000000000000000000000000000000000000000000000000000000000000000161461143f5760405162461bcd60e51b815260206004820152601f60248201527f4f6e6c7920565246436f6f7264696e61746f722063616e2066756c66696c6c006044820152606401610783565b610a2682826122cf565b606060018054610a4a90613753565b610a26338383612347565b3233146114825760405162461bcd60e51b8152600401610783906135ef565b336000908152601760205260409020546114de5760405162461bcd60e51b815260206004820152601c60248201527f796f752068617665206e6f20726573657276656420706f7373756d73000000006044820152606401610783565b60195461152d5760405162461bcd60e51b815260206004820152601f60248201527f506f7373756d73206e6f7420726561647920746f20626520636c61696d6564006044820152606401610783565b6000805b33600090815260176020526040902054811015610a265760195433600090815260176020526040812080549192918490811061157d57634e487b7160e01b600052603260045260246000fd5b906000526020600020015461159291906136c5565b90506115a16001612710613710565b8111156115dc576115b460016064613710565b6115c16001612710613710565b6115cb9083613710565b6115d591906136c5565b92506115e0565b8092505b6115ea33846120c6565b50806115f581613788565b915050611531565b6116073383611d9e565b6116235760405162461bcd60e51b815260040161078390613674565b61162f84848484612416565b50505050565b600b546001600160a01b036101009091041633146116655760405162461bcd60e51b81526004016107839061363f565b6040516370a0823160e01b81523060048201526000906001600160a01b038416906370a082319060240160206040518083038186803b1580156116a757600080fd5b505afa1580156116bb573d6000803e3d6000fd5b505050506040513d601f19601f820116820180604052508101906116df9190613466565b1161173e5760405162461bcd60e51b815260206004820152602960248201527f7468697320636f6e747261637420646f6573206e6f7420636f6e7461696e20746044820152683434b9903a37b5b2b760b91b6064820152608401610783565b60405163a9059cbb60e01b8152336004820152602481018290526001600160a01b0383169063a9059cbb90604401602060405180830381600087803b15801561178657600080fd5b505af115801561179a573d6000803e3d6000fd5b505050506040513d601f19601f82011682018060405250810190610c669190613393565b6060610a3582612449565b601a5460ff161561181c5760405162461bcd60e51b815260206004820152601760248201527f6f666673657420616c72656164792065786563757465640000000000000000006044820152606401610783565b601854158061182c575060155442115b6118785760405162461bcd60e51b815260206004820152601960248201527f43616e6e6f742065786563757465206f666673657420796574000000000000006044820152606401610783565b6118806125ab565b50600a601955601a805460ff19166001179055565b606060118054610a4a90613753565b600b546001600160a01b036101009091041633146118d45760405162461bcd60e51b81526004016107839061363f565b600e55565b600b546001600160a01b036101009091041633146119095760405162461bcd60e51b81526004016107839061363f565b6001600160a01b03811661196e5760405162461bcd60e51b815260206004820152602660248201527f4f776e61626c653a206e6577206f776e657220697320746865207a65726f206160448201526564647265737360d01b6064820152608401610783565b611977816121fa565b50565b6119778160405160240161199091815260200190565b60408051601f198184030181529190526020810180516001600160e01b031663f5b1bba960e01b1790526126c4565b6000806119ca6126e5565b9050601881815481106119ed57634e487b7160e01b600052603260045260246000fd5b90600052602060002001546000148015611a3f575060188054611a1290600190613710565b81548110611a3057634e487b7160e01b600052603260045260246000fd5b90600052602060002001546000145b15611a8a576018549091508190611a5890600190613710565b60188281548110611a7957634e487b7160e01b600052603260045260246000fd5b600091825260209091200155611cb5565b60188181548110611aab57634e487b7160e01b600052603260045260246000fd5b9060005260206000200154600014158015611afe575060188054611ad190600190613710565b81548110611aef57634e487b7160e01b600052603260045260246000fd5b90600052602060002001546000145b15611b435760188181548110611b2457634e487b7160e01b600052603260045260246000fd5b906000526020600020015491506001601880549050611a589190613710565b60188181548110611b6457634e487b7160e01b600052603260045260246000fd5b9060005260206000200154600014158015611bb8575060188054611b8a90600190613710565b81548110611ba857634e487b7160e01b600052603260045260246000fd5b9060005260206000200154600014155b15611c495760188181548110611bde57634e487b7160e01b600052603260045260246000fd5b9060005260206000200154915060186001601880549050611bff9190613710565b81548110611c1d57634e487b7160e01b600052603260045260246000fd5b906000526020600020015460188281548110611a7957634e487b7160e01b600052603260045260246000fd5b601880549192508291611c5e90600190613710565b81548110611c7c57634e487b7160e01b600052603260045260246000fd5b906000526020600020015460188281548110611ca857634e487b7160e01b600052603260045260246000fd5b6000918252602090912001555b6018805480611cd457634e487b7160e01b600052603160045260246000fd5b600190038181906000526020600020016000905590555090565b60006001600160e01b0319821663780e9d6360e01b1480610a355750610a3582612775565b6000908152600260205260409020546001600160a01b0316151590565b600081815260046020526040902080546001600160a01b0319166001600160a01b0384169081179091558190611d65826110db565b6001600160a01b03167f8c5be1e5ebec7d5bd14f71427d1e84f3dd0314c0f7b2291e5b200ac8c7c3b92560405160405180910390a45050565b6000611da982611d13565b611e0a5760405162461bcd60e51b815260206004820152602c60248201527f4552433732313a206f70657261746f7220717565727920666f72206e6f6e657860448201526b34b9ba32b73a103a37b5b2b760a11b6064820152608401610783565b6000611e15836110db565b9050806001600160a01b0316846001600160a01b03161480611e505750836001600160a01b0316611e4584610acd565b6001600160a01b0316145b80611e8057506001600160a01b0380821660009081526005602090815260408083209388168352929052205460ff165b949350505050565b826001600160a01b0316611e9b826110db565b6001600160a01b031614611f035760405162461bcd60e51b815260206004820152602960248201527f4552433732313a207472616e73666572206f6620746f6b656e2074686174206960448201526839903737ba1037bbb760b91b6064820152608401610783565b6001600160a01b038216611f655760405162461bcd60e51b8152602060048201526024808201527f4552433732313a207472616e7366657220746f20746865207a65726f206164646044820152637265737360e01b6064820152608401610783565b611f708383836127c5565b611f7b600082611d30565b6001600160a01b0383166000908152600360205260408120805460019290611fa4908490613710565b90915550506001600160a01b0382166000908152600360205260408120805460019290611fd29084906136c5565b909155505060008181526002602052604080822080546001600160a01b0319166001600160a01b0386811691821790925591518493918716917fddf252ad1be2c89b69c2b068fc378daa952ba7f163c4a11628f55a4df523b3ef91a4505050565b600b5460ff1661207c5760405162461bcd60e51b815260206004820152601460248201527314185d5cd8589b194e881b9bdd081c185d5cd95960621b6044820152606401610783565b600b805460ff191690557f5db9ee0a495bf2e6ff9c91a7834c1ba4fdd244a5e8aa4e537bd38aeae4b073aa335b6040516001600160a01b03909116815260200160405180910390a1565b612710600f54111561211a5760405162461bcd60e51b815260206004820152601c60248201527f616c6c20506f7373756d732068617665206265656e206d696e746564000000006044820152606401610783565b6121248282612816565b6121b8816011805461213590613753565b80601f016020809104026020016040519081016040528092919081815260200182805461216190613753565b80156121ae5780601f10612183576101008083540402835291602001916121ae565b820191906000526020600020905b81548152906001019060200180831161219157829003601f168201915b5050505050612830565b600f80549060006121c883613788565b90915550506001600160a01b03821660009081526016602052604081208054916121f183613788565b91905055505050565b600b80546001600160a01b03838116610100818102610100600160a81b031985161790945560405193909204169182907f8be0079c531659141344cd1fd0a4f28419497f9722a3daafe3b4186f6b6457e090600090a35050565b600b5460ff161561229a5760405162461bcd60e51b815260206004820152601060248201526f14185d5cd8589b194e881c185d5cd95960821b6044820152606401610783565b600b805460ff191660011790557f62e78cea01bee320cd4e420270b5ea74000d11b0c9f74754ebdbfc544b05a2586120a93390565b6014546001600160a01b0316331480156122e857508115155b6123345760405162461bcd60e51b815260206004820181905260248201527f6f6e6c792056524620436f6f7264696e61746f722063616e2066756c66696c6c6044820152606401610783565b61234061270f826137a3565b6019555050565b816001600160a01b0316836001600160a01b031614156123a95760405162461bcd60e51b815260206004820152601960248201527f4552433732313a20617070726f766520746f2063616c6c6572000000000000006044820152606401610783565b6001600160a01b03838116600081815260056020908152604080832094871680845294825291829020805460ff191686151590811790915591519182527f17307eab39ab6107e8899845ad3d59bd9653f200f220920489ca2b5937696c31910160405180910390a3505050565b612421848484611e88565b61242d848484846128bb565b61162f5760405162461bcd60e51b81526004016107839061359d565b606061245482611d13565b6124ba5760405162461bcd60e51b815260206004820152603160248201527f45524337323155524953746f726167653a2055524920717565727920666f72206044820152703737b732bc34b9ba32b73a103a37b5b2b760791b6064820152608401610783565b600082815260066020526040812080546124d390613753565b80601f01602080910402602001604051908101604052809291908181526020018280546124ff90613753565b801561254c5780601f106125215761010080835404028352916020019161254c565b820191906000526020600020905b81548152906001019060200180831161252f57829003601f168201915b50505050509050600061255d611895565b9050805160001415612570575092915050565b8151156125a257808260405160200161258a9291906134aa565b60405160208183030381529060405292505050919050565b611e80846129c8565b6013546040516370a0823160e01b8152306004820152600091906001600160a01b037f000000000000000000000000000000000000000000000000000000000000000016906370a082319060240160206040518083038186803b15801561261157600080fd5b505afa158015612625573d6000803e3d6000fd5b505050506040513d601f19601f820116820180604052508101906126499190613466565b10156126b15760405162461bcd60e51b815260206004820152603160248201527f4e6f7420656e6f756768204c696e6b2020696e20636f6e747261637420746f2060448201527033b2ba103930b73237b690373ab6b132b960791b6064820152608401610783565b6126bf601254601354612a92565b905090565b80516a636f6e736f6c652e6c6f67602083016000808483855afa5050505050565b60185460009081906126f8600143613710565b6040805160208101939093529040908201526bffffffffffffffffffffffff1941606090811b82168184015244607484015233901b16609482015260a80160408051601f19818403018152919052805160209091012060185490915060009060019061276490846137a3565b61276e9190613710565b9392505050565b60006001600160e01b031982166380ac58cd60e01b14806127a657506001600160e01b03198216635b5e139f60e01b145b80610a3557506301ffc9a760e01b6001600160e01b0319831614610a35565b600b5460ff161561280b5760405162461bcd60e51b815260206004820152601060248201526f14185d5cd8589b194e881c185d5cd95960821b6044820152606401610783565b610c66838383612c1d565b610a26828260405180602001604052806000815250612cd5565b61283982611d13565b61289c5760405162461bcd60e51b815260206004820152602e60248201527f45524337323155524953746f726167653a2055524920736574206f66206e6f6e60448201526d32bc34b9ba32b73a103a37b5b2b760911b6064820152608401610783565b60008281526006602090815260409091208251610c669284019061311b565b60006001600160a01b0384163b156129bd57604051630a85bd0160e11b81526001600160a01b0385169063150b7a02906128ff9033908990889088906004016134d9565b602060405180830381600087803b15801561291957600080fd5b505af1925050508015612949575060408051601f3d908101601f19168201909252612946918101906133ec565b60015b6129a3573d808015612977576040519150601f19603f3d011682016040523d82523d6000602084013e61297c565b606091505b50805161299b5760405162461bcd60e51b81526004016107839061359d565b805181602001fd5b6001600160e01b031916630a85bd0160e11b149050611e80565b506001949350505050565b60606129d382611d13565b612a375760405162461bcd60e51b815260206004820152602f60248201527f4552433732314d657461646174613a2055524920717565727920666f72206e6f60448201526e3732bc34b9ba32b73a103a37b5b2b760891b6064820152608401610783565b6000612a41611895565b90506000815111612a61576040518060200160405280600081525061276e565b80612a6b84612d08565b604051602001612a7c9291906134aa565b6040516020818303038152906040529392505050565b60007f00000000000000000000000000000000000000000000000000000000000000006001600160a01b0316634000aea07f000000000000000000000000000000000000000000000000000000000000000084866000604051602001612b02929190918252602082015260400190565b6040516020818303038152906040526040518463ffffffff1660e01b8152600401612b2f93929190613516565b602060405180830381600087803b158015612b4957600080fd5b505af1158015612b5d573d6000803e3d6000fd5b505050506040513d601f19601f82011682018060405250810190612b819190613393565b506000838152600c6020818152604080842054815180840189905280830186905230606082015260808082018390528351808303909101815260a090910190925281519183019190912093879052919052612bdd9060016136c5565b6000858152600c6020526040902055611e808482604080516020808201949094528082019290925280518083038201815260609092019052805191012090565b6001600160a01b038316612c7857612c7381600980546000838152600a60205260408120829055600182018355919091527f6e1540171b6c0c960b71a7020d9f60077f6af931a8bbf590da0223dacf75c7af0155565b612c9b565b816001600160a01b0316836001600160a01b031614612c9b57612c9b8382612e22565b6001600160a01b038216612cb257610c6681612ebf565b826001600160a01b0316826001600160a01b031614610c6657610c668282612f98565b612cdf8383612fdc565b612cec60008484846128bb565b610c665760405162461bcd60e51b81526004016107839061359d565b606081612d2c5750506040805180820190915260018152600360fc1b602082015290565b8160005b8115612d565780612d4081613788565b9150612d4f9050600a836136dd565b9150612d30565b60008167ffffffffffffffff811115612d7f57634e487b7160e01b600052604160045260246000fd5b6040519080825280601f01601f191660200182016040528015612da9576020820181803683370190505b5090505b8415611e8057612dbe600183613710565b9150612dcb600a866137a3565b612dd69060306136c5565b60f81b818381518110612df957634e487b7160e01b600052603260045260246000fd5b60200101906001600160f81b031916908160001a905350612e1b600a866136dd565b9450612dad565b60006001612e2f84611152565b612e399190613710565b600083815260086020526040902054909150808214612e8c576001600160a01b03841660009081526007602090815260408083208584528252808320548484528184208190558352600890915290208190555b5060009182526008602090815260408084208490556001600160a01b039094168352600781528383209183525290812055565b600954600090612ed190600190613710565b6000838152600a602052604081205460098054939450909284908110612f0757634e487b7160e01b600052603260045260246000fd5b906000526020600020015490508060098381548110612f3657634e487b7160e01b600052603260045260246000fd5b6000918252602080832090910192909255828152600a90915260408082208490558582528120556009805480612f7c57634e487b7160e01b600052603160045260246000fd5b6001900381819060005260206000200160009055905550505050565b6000612fa383611152565b6001600160a01b039093166000908152600760209081526040808320868452825280832085905593825260089052919091209190915550565b6001600160a01b0382166130325760405162461bcd60e51b815260206004820181905260248201527f4552433732313a206d696e7420746f20746865207a65726f20616464726573736044820152606401610783565b61303b81611d13565b156130885760405162461bcd60e51b815260206004820152601c60248201527f4552433732313a20746f6b656e20616c7265616479206d696e746564000000006044820152606401610783565b613094600083836127c5565b6001600160a01b03821660009081526003602052604081208054600192906130bd9084906136c5565b909155505060008181526002602052604080822080546001600160a01b0319166001600160a01b03861690811790915590518392907fddf252ad1be2c89b69c2b068fc378daa952ba7f163c4a11628f55a4df523b3ef908290a45050565b82805461312790613753565b90600052602060002090601f016020900481019282613149576000855561318f565b82601f1061316257805160ff191683800117855561318f565b8280016001018555821561318f579182015b8281111561318f578251825591602001919060010190613174565b5061319b92915061319f565b5090565b5b8082111561319b57600081556001016131a0565b600067ffffffffffffffff808411156131cf576131cf6137e3565b604051601f8501601f19908116603f011681019082821181831017156131f7576131f76137e3565b8160405280935085815286868601111561321057600080fd5b858560208301376000602087830101525050509392505050565b60006020828403121561323b578081fd5b813561276e816137f9565b60008060408385031215613258578081fd5b8235613263816137f9565b91506020830135613273816137f9565b809150509250929050565b600080600060608486031215613292578081fd5b833561329d816137f9565b925060208401356132ad816137f9565b929592945050506040919091013590565b600080600080608085870312156132d3578081fd5b84356132de816137f9565b935060208501356132ee816137f9565b925060408501359150606085013567ffffffffffffffff811115613310578182fd5b8501601f81018713613320578182fd5b61332f878235602084016131b4565b91505092959194509250565b6000806040838503121561334d578182fd5b8235613358816137f9565b915060208301356132738161380e565b6000806040838503121561337a578182fd5b8235613385816137f9565b946020939093013593505050565b6000602082840312156133a4578081fd5b815161276e8161380e565b600080604083850312156133c1578182fd5b50508035926020909101359150565b6000602082840312156133e1578081fd5b813561276e8161381c565b6000602082840312156133fd578081fd5b815161276e8161381c565b600060208284031215613419578081fd5b813567ffffffffffffffff81111561342f578182fd5b8201601f8101841361343f578182fd5b611e80848235602084016131b4565b60006020828403121561345f578081fd5b5035919050565b600060208284031215613477578081fd5b5051919050565b60008151808452613496816020860160208601613727565b601f01601f19169290920160200192915050565b600083516134bc818460208801613727565b8351908301906134d0818360208801613727565b01949350505050565b6001600160a01b038581168252841660208201526040810183905260806060820181905260009061350c9083018461347e565b9695505050505050565b60018060a01b038416815282602082015260606040820152600061353d606083018461347e565b95945050505050565b6020808252825182820181905260009190848201906040850190845b8181101561357e57835183529284019291840191600101613562565b50909695505050505050565b60208152600061276e602083018461347e565b60208082526032908201527f4552433732313a207472616e7366657220746f206e6f6e20455243373231526560408201527131b2b4bb32b91034b6b83632b6b2b73a32b960711b606082015260800190565b60208082526030908201527f5468652063616c6c65722063616e206f6e6c792062652061207573657220616e60408201526f19081b9bdd08184818dbdb9d1c9858dd60821b606082015260800190565b6020808252818101527f4f776e61626c653a2063616c6c6572206973206e6f7420746865206f776e6572604082015260600190565b60208082526031908201527f4552433732313a207472616e736665722063616c6c6572206973206e6f74206f6040820152701ddb995c881b9bdc88185c1c1c9bdd9959607a1b606082015260800190565b600082198211156136d8576136d86137b7565b500190565b6000826136ec576136ec6137cd565b500490565b600081600019048311821515161561370b5761370b6137b7565b500290565b600082821015613722576137226137b7565b500390565b60005b8381101561374257818101518382015260200161372a565b8381111561162f5750506000910152565b600181811c9082168061376757607f821691505b6020821081141561138957634e487b7160e01b600052602260045260246000fd5b600060001982141561379c5761379c6137b7565b5060010190565b6000826137b2576137b26137cd565b500690565b634e487b7160e01b600052601160045260246000fd5b634e487b7160e01b600052601260045260246000fd5b634e487b7160e01b600052604160045260246000fd5b6001600160a01b038116811461197757600080fd5b801515811461197757600080fd5b6001600160e01b03198116811461197757600080fdfea264697066735822122015867c8e0e13507f54089d8c63d0e79a9ea1fe3c5ebddcd330d95db583d1ef4564736f6c63430008040033",
  "linkReferences": {},
  "deployedLinkReferences": {}
}