{
  "_format": "hh-sol-artifact-1",
  "contractName": "TrashPossums",
  "sourceName": "contracts/TrashPossums.sol",
  "abi": [
    {
      "inputs": [
        {
          "internalType": "uint256",
          "name": "_possumPrice",
          "type": "uint256"
        },
        {
          "internalType": "uint256",
          "name": "_startMintDate",
          "type": "uint256"
        },
        {
          "internalType": "string",
          "name": "_baseUri",
          "type": "string"
        },
        {
          "internalType": "address",
          "name": "_randomness",
          "type": "address"
        }
      ],
      "stateMutability": "nonpayable",
      "type": "constructor"
    },
    {
      "anonymous": false,
      "inputs": [
        {
          "indexed": true,
          "internalType": "address",
          "name": "owner",
          "type": "address"
        },
        {
          "indexed": true,
          "internalType": "address",
          "name": "approved",
          "type": "address"
        },
        {
          "indexed": true,
          "internalType": "uint256",
          "name": "tokenId",
          "type": "uint256"
        }
      ],
      "name": "Approval",
      "type": "event"
    },
    {
      "anonymous": false,
      "inputs": [
        {
          "indexed": true,
          "internalType": "address",
          "name": "owner",
          "type": "address"
        },
        {
          "indexed": true,
          "internalType": "address",
          "name": "operator",
          "type": "address"
        },
        {
          "indexed": false,
          "internalType": "bool",
          "name": "approved",
          "type": "bool"
        }
      ],
      "name": "ApprovalForAll",
      "type": "event"
    },
    {
      "anonymous": false,
      "inputs": [
        {
          "indexed": true,
          "internalType": "address",
          "name": "previousOwner",
          "type": "address"
        },
        {
          "indexed": true,
          "internalType": "address",
          "name": "newOwner",
          "type": "address"
        }
      ],
      "name": "OwnershipTransferred",
      "type": "event"
    },
    {
      "anonymous": false,
      "inputs": [
        {
          "indexed": false,
          "internalType": "address",
          "name": "account",
          "type": "address"
        }
      ],
      "name": "Paused",
      "type": "event"
    },
    {
      "anonymous": false,
      "inputs": [
        {
          "indexed": true,
          "internalType": "address",
          "name": "to",
          "type": "address"
        },
        {
          "indexed": true,
          "internalType": "uint256",
          "name": "tokenId",
          "type": "uint256"
        }
      ],
      "name": "Reserved",
      "type": "event"
    },
    {
      "anonymous": false,
      "inputs": [
        {
          "indexed": true,
          "internalType": "address",
          "name": "from",
          "type": "address"
        },
        {
          "indexed": true,
          "internalType": "address",
          "name": "to",
          "type": "address"
        },
        {
          "indexed": true,
          "internalType": "uint256",
          "name": "tokenId",
          "type": "uint256"
        }
      ],
      "name": "Transfer",
      "type": "event"
    },
    {
      "anonymous": false,
      "inputs": [
        {
          "indexed": false,
          "internalType": "address",
          "name": "account",
          "type": "address"
        }
      ],
      "name": "Unpaused",
      "type": "event"
    },
    {
      "inputs": [
        {
          "internalType": "address",
          "name": "to",
          "type": "address"
        },
        {
          "internalType": "uint256",
          "name": "tokenId",
          "type": "uint256"
        }
      ],
      "name": "approve",
      "outputs": [],
      "stateMutability": "nonpayable",
      "type": "function"
    },
    {
      "inputs": [
        {
          "internalType": "address",
          "name": "owner",
          "type": "address"
        }
      ],
      "name": "balanceOf",
      "outputs": [
        {
          "internalType": "uint256",
          "name": "",
          "type": "uint256"
        }
      ],
      "stateMutability": "view",
      "type": "function"
    },
    {
      "inputs": [],
      "name": "baseTokenURI",
      "outputs": [
        {
          "internalType": "string",
          "name": "",
          "type": "string"
        }
      ],
      "stateMutability": "view",
      "type": "function"
    },
    {
      "inputs": [],
      "name": "claimPossums",
      "outputs": [],
      "stateMutability": "payable",
      "type": "function"
    },
    {
      "inputs": [
        {
          "internalType": "uint256",
          "name": "tokenId",
          "type": "uint256"
        }
      ],
      "name": "getApproved",
      "outputs": [
        {
          "internalType": "address",
          "name": "",
          "type": "address"
        }
      ],
      "stateMutability": "view",
      "type": "function"
    },
    {
      "inputs": [],
      "name": "getAvailablePossums",
      "outputs": [
        {
          "internalType": "uint256",
          "name": "",
          "type": "uint256"
        }
      ],
      "stateMutability": "view",
      "type": "function"
    },
    {
      "inputs": [],
      "name": "getBalance",
      "outputs": [
        {
          "internalType": "uint256",
          "name": "",
          "type": "uint256"
        }
      ],
      "stateMutability": "view",
      "type": "function"
    },
    {
      "inputs": [],
      "name": "getClaimDate",
      "outputs": [
        {
          "internalType": "uint256",
          "name": "",
          "type": "uint256"
        }
      ],
      "stateMutability": "view",
      "type": "function"
    },
    {
      "inputs": [],
      "name": "getMintingStartDate",
      "outputs": [
        {
          "internalType": "uint256",
          "name": "",
          "type": "uint256"
        }
      ],
      "stateMutability": "view",
      "type": "function"
    },
    {
      "inputs": [],
      "name": "getNumberOfReservedPossums",
      "outputs": [
        {
          "internalType": "uint256",
          "name": "",
          "type": "uint256"
        }
      ],
      "stateMutability": "view",
      "type": "function"
    },
    {
      "inputs": [],
      "name": "getPossumPrice",
      "outputs": [
        {
          "internalType": "uint256",
          "name": "",
          "type": "uint256"
        }
      ],
      "stateMutability": "view",
      "type": "function"
    },
    {
      "inputs": [
        {
          "internalType": "address",
          "name": "_wallet",
          "type": "address"
        }
      ],
      "name": "getReservedPossumIds",
      "outputs": [
        {
          "internalType": "uint256[]",
          "name": "reservedIds",
          "type": "uint256[]"
        }
      ],
      "stateMutability": "view",
      "type": "function"
    },
    {
      "inputs": [
        {
          "internalType": "address",
          "name": "_wallet",
          "type": "address"
        }
      ],
      "name": "getReservedPossumsPerWallet",
      "outputs": [
        {
          "internalType": "uint256",
          "name": "",
          "type": "uint256"
        }
      ],
      "stateMutability": "view",
      "type": "function"
    },
    {
      "inputs": [],
      "name": "getTotalMintedPossums",
      "outputs": [
        {
          "internalType": "uint256",
          "name": "",
          "type": "uint256"
        }
      ],
      "stateMutability": "view",
      "type": "function"
    },
    {
      "inputs": [],
      "name": "getTotalPossums",
      "outputs": [
        {
          "internalType": "uint256",
          "name": "",
          "type": "uint256"
        }
      ],
      "stateMutability": "pure",
      "type": "function"
    },
    {
      "inputs": [
        {
          "internalType": "address",
          "name": "owner",
          "type": "address"
        },
        {
          "internalType": "address",
          "name": "operator",
          "type": "address"
        }
      ],
      "name": "isApprovedForAll",
      "outputs": [
        {
          "internalType": "bool",
          "name": "",
          "type": "bool"
        }
      ],
      "stateMutability": "view",
      "type": "function"
    },
    {
      "inputs": [],
      "name": "maxPossumsPerWallet",
      "outputs": [
        {
          "internalType": "uint256",
          "name": "",
          "type": "uint256"
        }
      ],
      "stateMutability": "view",
      "type": "function"
    },
    {
      "inputs": [],
      "name": "name",
      "outputs": [
        {
          "internalType": "string",
          "name": "",
          "type": "string"
        }
      ],
      "stateMutability": "view",
      "type": "function"
    },
    {
      "inputs": [],
      "name": "owner",
      "outputs": [
        {
          "internalType": "address",
          "name": "",
          "type": "address"
        }
      ],
      "stateMutability": "view",
      "type": "function"
    },
    {
      "inputs": [
        {
          "internalType": "uint256",
          "name": "tokenId",
          "type": "uint256"
        }
      ],
      "name": "ownerOf",
      "outputs": [
        {
          "internalType": "address",
          "name": "",
          "type": "address"
        }
      ],
      "stateMutability": "view",
      "type": "function"
    },
    {
      "inputs": [],
      "name": "pause",
      "outputs": [],
      "stateMutability": "nonpayable",
      "type": "function"
    },
    {
      "inputs": [],
      "name": "paused",
      "outputs": [
        {
          "internalType": "bool",
          "name": "",
          "type": "bool"
        }
      ],
      "stateMutability": "view",
      "type": "function"
    },
    {
      "inputs": [],
      "name": "premintPossums",
      "outputs": [],
      "stateMutability": "nonpayable",
      "type": "function"
    },
    {
      "inputs": [],
      "name": "randomness",
      "outputs": [
        {
          "internalType": "address",
          "name": "",
          "type": "address"
        }
      ],
      "stateMutability": "view",
      "type": "function"
    },
    {
      "inputs": [],
      "name": "renounceOwnership",
      "outputs": [],
      "stateMutability": "nonpayable",
      "type": "function"
    },
    {
      "inputs": [
        {
          "internalType": "uint256",
          "name": "amount",
          "type": "uint256"
        }
      ],
      "name": "reservePossums",
      "outputs": [],
      "stateMutability": "payable",
      "type": "function"
    },
    {
      "inputs": [
        {
          "internalType": "address",
          "name": "from",
          "type": "address"
        },
        {
          "internalType": "address",
          "name": "to",
          "type": "address"
        },
        {
          "internalType": "uint256",
          "name": "tokenId",
          "type": "uint256"
        }
      ],
      "name": "safeTransferFrom",
      "outputs": [],
      "stateMutability": "nonpayable",
      "type": "function"
    },
    {
      "inputs": [
        {
          "internalType": "address",
          "name": "from",
          "type": "address"
        },
        {
          "internalType": "address",
          "name": "to",
          "type": "address"
        },
        {
          "internalType": "uint256",
          "name": "tokenId",
          "type": "uint256"
        },
        {
          "internalType": "bytes",
          "name": "_data",
          "type": "bytes"
        }
      ],
      "name": "safeTransferFrom",
      "outputs": [],
      "stateMutability": "nonpayable",
      "type": "function"
    },
    {
      "inputs": [
        {
          "internalType": "address",
          "name": "operator",
          "type": "address"
        },
        {
          "internalType": "bool",
          "name": "approved",
          "type": "bool"
        }
      ],
      "name": "setApprovalForAll",
      "outputs": [],
      "stateMutability": "nonpayable",
      "type": "function"
    },
    {
      "inputs": [
        {
          "internalType": "string",
          "name": "_tokenURI",
          "type": "string"
        }
      ],
      "name": "setBaseTokenURI",
      "outputs": [],
      "stateMutability": "nonpayable",
      "type": "function"
    },
    {
      "inputs": [
        {
          "internalType": "uint256",
          "name": "_possumPrice",
          "type": "uint256"
        }
      ],
      "name": "setPossumPrice",
      "outputs": [],
      "stateMutability": "nonpayable",
      "type": "function"
    },
    {
      "inputs": [
        {
          "internalType": "bytes4",
          "name": "interfaceId",
          "type": "bytes4"
        }
      ],
      "name": "supportsInterface",
      "outputs": [
        {
          "internalType": "bool",
          "name": "",
          "type": "bool"
        }
      ],
      "stateMutability": "view",
      "type": "function"
    },
    {
      "inputs": [],
      "name": "symbol",
      "outputs": [
        {
          "internalType": "string",
          "name": "",
          "type": "string"
        }
      ],
      "stateMutability": "view",
      "type": "function"
    },
    {
      "inputs": [
        {
          "internalType": "uint256",
          "name": "index",
          "type": "uint256"
        }
      ],
      "name": "tokenByIndex",
      "outputs": [
        {
          "internalType": "uint256",
          "name": "",
          "type": "uint256"
        }
      ],
      "stateMutability": "view",
      "type": "function"
    },
    {
      "inputs": [
        {
          "internalType": "address",
          "name": "owner",
          "type": "address"
        },
        {
          "internalType": "uint256",
          "name": "index",
          "type": "uint256"
        }
      ],
      "name": "tokenOfOwnerByIndex",
      "outputs": [
        {
          "internalType": "uint256",
          "name": "",
          "type": "uint256"
        }
      ],
      "stateMutability": "view",
      "type": "function"
    },
    {
      "inputs": [
        {
          "internalType": "uint256",
          "name": "tokenId",
          "type": "uint256"
        }
      ],
      "name": "tokenURI",
      "outputs": [
        {
          "internalType": "string",
          "name": "",
          "type": "string"
        }
      ],
      "stateMutability": "view",
      "type": "function"
    },
    {
      "inputs": [],
      "name": "totalPossums",
      "outputs": [
        {
          "internalType": "uint256",
          "name": "",
          "type": "uint256"
        }
      ],
      "stateMutability": "view",
      "type": "function"
    },
    {
      "inputs": [],
      "name": "totalSupply",
      "outputs": [
        {
          "internalType": "uint256",
          "name": "",
          "type": "uint256"
        }
      ],
      "stateMutability": "view",
      "type": "function"
    },
    {
      "inputs": [
        {
          "internalType": "address",
          "name": "from",
          "type": "address"
        },
        {
          "internalType": "address",
          "name": "to",
          "type": "address"
        },
        {
          "internalType": "uint256",
          "name": "tokenId",
          "type": "uint256"
        }
      ],
      "name": "transferFrom",
      "outputs": [],
      "stateMutability": "nonpayable",
      "type": "function"
    },
    {
      "inputs": [
        {
          "internalType": "address",
          "name": "newOwner",
          "type": "address"
        }
      ],
      "name": "transferOwnership",
      "outputs": [],
      "stateMutability": "nonpayable",
      "type": "function"
    },
    {
      "inputs": [],
      "name": "unpause",
      "outputs": [],
      "stateMutability": "nonpayable",
      "type": "function"
    },
    {
      "inputs": [],
      "name": "withdraw",
      "outputs": [],
      "stateMutability": "payable",
      "type": "function"
    },
    {
      "inputs": [
        {
          "internalType": "contract IERC20",
          "name": "token",
          "type": "address"
        },
        {
          "internalType": "uint256",
          "name": "_amount",
          "type": "uint256"
        }
      ],
      "name": "withdrawErc20",
      "outputs": [],
      "stateMutability": "nonpayable",
      "type": "function"
    },
    {
      "stateMutability": "payable",
      "type": "receive"
    }
  ],
  "bytecode": "0x60806040523480156200001157600080fd5b50604051620035c2380380620035c283398101604081905262000034916200023c565b604080518082018252600d81526c547261736820506f7373756d7360981b60208083019182528351808501909452600584526454504f535360d81b908401528151919291620000869160009162000163565b5080516200009c90600190602084019062000163565b505050620000b9620000b36200010d60201b60201c565b62000111565b600c805460ff19169055600e849055600d8390558151620000e290601090602085019062000163565b50601280546001600160a01b0319166001600160a01b0392909216919091179055506200037f915050565b3390565b600780546001600160a01b038381166001600160a01b0319831681179093556040519116919082907f8be0079c531659141344cd1fd0a4f28419497f9722a3daafe3b4186f6b6457e090600090a35050565b828054620001719062000342565b90600052602060002090601f016020900481019282620001955760008555620001e0565b82601f10620001b057805160ff1916838001178555620001e0565b82800160010185558215620001e0579182015b82811115620001e0578251825591602001919060010190620001c3565b50620001ee929150620001f2565b5090565b5b80821115620001ee5760008155600101620001f3565b634e487b7160e01b600052604160045260246000fd5b80516001600160a01b03811681146200023757600080fd5b919050565b600080600080608085870312156200025357600080fd5b845160208087015160408801519296509450906001600160401b03808211156200027c57600080fd5b818801915088601f8301126200029157600080fd5b815181811115620002a657620002a662000209565b604051601f8201601f19908116603f01168101908382118183101715620002d157620002d162000209565b816040528281528b86848701011115620002ea57600080fd5b600093505b828410156200030e5784840186015181850187015292850192620002ef565b82841115620003205760008684830101525b80975050505050505062000337606086016200021f565b905092959194509250565b600181811c908216806200035757607f821691505b602082108114156200037957634e487b7160e01b600052602260045260246000fd5b50919050565b613233806200038f6000396000f3fe60806040526004361061025f5760003560e01c806370a0823111610144578063b37cb09d116100b6578063d547cfb71161007a578063d547cfb714610687578063dca772841461069c578063e65fadc4146106bc578063e985e9c5146106d1578063ead175061461071a578063f2fde38b1461072f57600080fd5b8063b37cb09d146105fd578063b88d4fde14610612578063bd1f4b5214610632578063c87b56dd14610652578063cc6bbd651461067257600080fd5b80638456cb59116101085780638456cb59146105785780638481de5f1461058d5780638da5cb5b146105a257806395d89b41146105c0578063a22cb465146105d5578063b031b35b146105f557600080fd5b806370a08231146104ec578063715018a61461050c578063723bcc13146105215780637fd3352e1461053657806384511aff1461056357600080fd5b806330176e13116101dd57806342842e0e116101a157806342842e0e146104285780634f6ccce71461044857806350f257e1146104685780635b46a8f21461049e5780635c975abb146104b45780636352211e146104cc57600080fd5b806330176e13146103b657806336013189146103d65780633ccfd60b146103f65780633f4ba83a146103fe578063416c585d1461041357600080fd5b806312065fe01161022457806312065fe01461032f57806318160ddd1461034c57806323b872dd1461036157806325554fb1146103815780632f745c591461039657600080fd5b806261b0ec1461026b57806301ffc9a71461028057806306fdde03146102b5578063081812fc146102d7578063095ea7b31461030f57600080fd5b3661026657005b600080fd5b61027e610279366004612bd1565b61074f565b005b34801561028c57600080fd5b506102a061029b366004612c00565b610bb5565b60405190151581526020015b60405180910390f35b3480156102c157600080fd5b506102ca610bc6565b6040516102ac9190612c75565b3480156102e357600080fd5b506102f76102f2366004612bd1565b610c58565b6040516001600160a01b0390911681526020016102ac565b34801561031b57600080fd5b5061027e61032a366004612c9d565b610ce0565b34801561033b57600080fd5b50475b6040519081526020016102ac565b34801561035857600080fd5b50600a5461033e565b34801561036d57600080fd5b5061027e61037c366004612cc9565b610df6565b34801561038d57600080fd5b5060115461033e565b3480156103a257600080fd5b5061033e6103b1366004612c9d565b610e27565b3480156103c257600080fd5b5061027e6103d1366004612d0a565b610ebd565b3480156103e257600080fd5b506012546102f7906001600160a01b031681565b61027e610ef3565b34801561040a57600080fd5b5061027e610fcd565b34801561041f57600080fd5b5061027e611001565b34801561043457600080fd5b5061027e610443366004612cc9565b611181565b34801561045457600080fd5b5061033e610463366004612bd1565b61119c565b34801561047457600080fd5b5061033e610483366004612d7c565b6001600160a01b031660009081526014602052604090205490565b3480156104aa57600080fd5b5061033e61271081565b3480156104c057600080fd5b50600c5460ff166102a0565b3480156104d857600080fd5b506102f76104e7366004612bd1565b61122f565b3480156104f857600080fd5b5061033e610507366004612d7c565b6112a6565b34801561051857600080fd5b5061027e61132d565b34801561052d57600080fd5b50600e5461033e565b34801561054257600080fd5b50610556610551366004612d7c565b611361565b6040516102ac9190612d99565b34801561056f57600080fd5b5061033e603481565b34801561058457600080fd5b5061027e6114b3565b34801561059957600080fd5b5061033e6114e5565b3480156105ae57600080fd5b506007546001600160a01b03166102f7565b3480156105cc57600080fd5b506102ca611558565b3480156105e157600080fd5b5061027e6105f0366004612deb565b611567565b61027e611572565b34801561060957600080fd5b5061033e6117fb565b34801561061e57600080fd5b5061027e61062d366004612e3a565b611845565b34801561063e57600080fd5b5061027e61064d366004612c9d565b611877565b34801561065e57600080fd5b506102ca61066d366004612bd1565b6119dc565b34801561067e57600080fd5b5061271061033e565b34801561069357600080fd5b506102ca6119e7565b3480156106a857600080fd5b5061027e6106b7366004612bd1565b6119f6565b3480156106c857600080fd5b50600f5461033e565b3480156106dd57600080fd5b506102a06106ec366004612f1a565b6001600160a01b03918216600090815260056020908152604080832093909416825291909152205460ff1690565b34801561072657600080fd5b50600d5461033e565b34801561073b57600080fd5b5061027e61074a366004612d7c565b611a25565b600d5415801590610761575042600d54105b6107a65760405162461bcd60e51b8152602060048201526011602482015270596f752061726520746f6f206561726c7960781b60448201526064015b60405180910390fd5b601254604080516375b5692760e11b815290516000926001600160a01b03169163eb6ad24e9160048083019260209291908290030181865afa1580156107f0573d6000803e3d6000fd5b505050506040513d601f19601f820116820180604052508101906108149190612f48565b90506000601260009054906101000a90046001600160a01b03166001600160a01b0316638481de5f6040518163ffffffff1660e01b8152600401602060405180830381865afa15801561086b573d6000803e3d6000fd5b505050506040513d601f19601f8201168201806040525081019061088f9190612f48565b905082600e5461089f9190612f77565b3410156109005760405162461bcd60e51b815260206004820152602960248201527f4e6f7420656e6f75676820457468657220746f207265736572766520746865736044820152686520706f7373756d7360b81b606482015260840161079d565b600083116109505760405162461bcd60e51b815260206004820152601e60248201527f6e65656420746f2072657365727665206174206c656173742031204e46540000604482015260640161079d565b3360009081526013602052604090205460349061096e908590612f96565b11156109bc5760405162461bcd60e51b815260206004820152601f60248201527f596f752063616e6e6f742072657365727665206d6f726520706f7373756d7300604482015260640161079d565b828110156109fe5760405162461bcd60e51b815260206004820152600f60248201526e139bc8141bdcdcdd5b5cc81b19599d608a1b604482015260640161079d565b601b831115610a485760405162461bcd60e51b815260206004820152601660248201527526b0bc10191b903832b9103a3930b739b0b1ba34b7b760511b604482015260640161079d565b8115610abc5760405162461bcd60e51b815260206004820152603760248201527f6f666673657420616c726561647920656e61637465642c2063616e6e6f74207260448201527f65736572766520616e79206d6f726520706f7373756d73000000000000000000606482015260840161079d565b60005b83811015610baf576012546040805163c6410f7b60e01b815290516000926001600160a01b03169163c6410f7b916004808301926020929190829003018187875af1158015610b12573d6000803e3d6000fd5b505050506040513d601f19601f82011682018060405250810190610b369190612f48565b33600090815260146020908152604082208054600181018255908352908220018290556011805492935090610b6a83612fae565b9091555050604051819033907f904dcdc411e931497b95b06ddf8f8184815dd3bedc3c7c7cd4aed3ccd30783d890600090a35080610ba781612fae565b915050610abf565b50505050565b6000610bc082611ac0565b92915050565b606060008054610bd590612fc9565b80601f0160208091040260200160405190810160405280929190818152602001828054610c0190612fc9565b8015610c4e5780601f10610c2357610100808354040283529160200191610c4e565b820191906000526020600020905b815481529060010190602001808311610c3157829003601f168201915b5050505050905090565b6000610c6382611ae5565b610cc45760405162461bcd60e51b815260206004820152602c60248201527f4552433732313a20617070726f76656420717565727920666f72206e6f6e657860448201526b34b9ba32b73a103a37b5b2b760a11b606482015260840161079d565b506000908152600460205260409020546001600160a01b031690565b6000610ceb8261122f565b9050806001600160a01b0316836001600160a01b03161415610d595760405162461bcd60e51b815260206004820152602160248201527f4552433732313a20617070726f76616c20746f2063757272656e74206f776e656044820152603960f91b606482015260840161079d565b336001600160a01b0382161480610d755750610d7581336106ec565b610de75760405162461bcd60e51b815260206004820152603860248201527f4552433732313a20617070726f76652063616c6c6572206973206e6f74206f7760448201527f6e6572206e6f7220617070726f76656420666f7220616c6c0000000000000000606482015260840161079d565b610df18383611b02565b505050565b610e003382611b70565b610e1c5760405162461bcd60e51b815260040161079d90612ffe565b610df1838383611c5a565b6000610e32836112a6565b8210610e945760405162461bcd60e51b815260206004820152602b60248201527f455243373231456e756d657261626c653a206f776e657220696e646578206f7560448201526a74206f6620626f756e647360a81b606482015260840161079d565b506001600160a01b03919091166000908152600860209081526040808320938352929052205490565b6007546001600160a01b03163314610ee75760405162461bcd60e51b815260040161079d9061304f565b610df160108383612ac4565b6007546001600160a01b03163314610f1d5760405162461bcd60e51b815260040161079d9061304f565b476000610f326007546001600160a01b031690565b6001600160a01b03168260405160006040518083038185875af1925050503d8060008114610f7c576040519150601f19603f3d011682016040523d82523d6000602084013e610f81565b606091505b5050905080610fc95760405162461bcd60e51b81526020600482015260146024820152732330b4b632b2103a379039b2b7321022ba3432b960611b604482015260640161079d565b5050565b6007546001600160a01b03163314610ff75760405162461bcd60e51b815260040161079d9061304f565b610fff611e05565b565b6007546001600160a01b0316331461102b5760405162461bcd60e51b815260040161079d9061304f565b60125460408051631332545760e11b815290516000926001600160a01b031691632664a8ae9160048083019260209291908290030181865afa158015611075573d6000803e3d6000fd5b505050506040513d601f19601f820116820180604052508101906110999190613084565b905080156110f75760405162461bcd60e51b815260206004820152602560248201527f596f752063616e206f6e6c79207072656d696e742074686520506f7373756d73604482015264206f6e636560d81b606482015260840161079d565b60005b606481101561111f5761110d3382611e98565b8061111781612fae565b9150506110fa565b50601254604051631c8ac9a560e31b8152606460048201526001600160a01b039091169063e4564d2890602401600060405180830381600087803b15801561116657600080fd5b505af115801561117a573d6000803e3d6000fd5b5050505050565b610df183838360405180602001604052806000815250611845565b60006111a7600a5490565b821061120a5760405162461bcd60e51b815260206004820152602c60248201527f455243373231456e756d657261626c653a20676c6f62616c20696e646578206f60448201526b7574206f6620626f756e647360a01b606482015260840161079d565b600a828154811061121d5761121d6130a1565b90600052602060002001549050919050565b6000818152600260205260408120546001600160a01b031680610bc05760405162461bcd60e51b815260206004820152602960248201527f4552433732313a206f776e657220717565727920666f72206e6f6e657869737460448201526832b73a103a37b5b2b760b91b606482015260840161079d565b60006001600160a01b0382166113115760405162461bcd60e51b815260206004820152602a60248201527f4552433732313a2062616c616e636520717565727920666f7220746865207a65604482015269726f206164647265737360b01b606482015260840161079d565b506001600160a01b031660009081526003602052604090205490565b6007546001600160a01b031633146113575760405162461bcd60e51b815260040161079d9061304f565b610fff6000611fcc565b6001600160a01b0381166000908152601460205260409020546060906113c95760405162461bcd60e51b815260206004820152601e60248201527f57616c6c657420686173206e6f20726573657276656420706f7373756d730000604482015260640161079d565b6001600160a01b03821660009081526014602052604090205467ffffffffffffffff8111156113fa576113fa612e24565b604051908082528060200260200182016040528015611423578160200160208202803683370190505b50905060005b6001600160a01b0383166000908152601460205260409020548110156114ad576001600160a01b0383166000908152601460205260409020805482908110611473576114736130a1565b9060005260206000200154828281518110611490576114906130a1565b6020908102919091010152806114a581612fae565b915050611429565b50919050565b6007546001600160a01b031633146114dd5760405162461bcd60e51b815260040161079d9061304f565b610fff61201e565b60125460408051638481de5f60e01b815290516000926001600160a01b031691638481de5f9160048083019260209291908290030181865afa15801561152f573d6000803e3d6000fd5b505050506040513d601f19601f820116820180604052508101906115539190612f48565b905090565b606060018054610bd590612fc9565b610fc9338383612099565b600d5415801590611584575042600d54105b6115c45760405162461bcd60e51b8152602060048201526011602482015270596f752061726520746f6f206561726c7960781b604482015260640161079d565b60006115ce6117fb565b3360009081526014602052604090205490915061162d5760405162461bcd60e51b815260206004820152601c60248201527f796f752068617665206e6f20726573657276656420706f7373756d7300000000604482015260640161079d565b4281108061163e5750612710601154145b61164757600080fd5b600080601260009054906101000a90046001600160a01b03166001600160a01b031663eb6ad24e6040518163ffffffff1660e01b8152600401602060405180830381865afa15801561169d573d6000803e3d6000fd5b505050506040513d601f19601f820116820180604052508101906116c19190612f48565b9050806117105760405162461bcd60e51b815260206004820152601f60248201527f506f7373756d73206e6f7420726561647920746f20626520636c61696d656400604482015260640161079d565b60005b33600090815260146020526040902054811015610baf5733600090815260146020526040812080548491908490811061174e5761174e6130a1565b90600052602060002001546117639190612f96565b905061177260016127106130b7565b8111156117ad57611785600160646130b7565b61179260016127106130b7565b61179c90836130b7565b6117a69190612f96565b93506117b1565b8093505b6117bb3385611e98565b3360009081526014602052604081208054849081106117dc576117dc6130a1565b60009182526020909120015550806117f381612fae565b915050611713565b601254604080516344657d2760e11b815290516000926001600160a01b0316916388cafa4e9160048083019260209291908290030181865afa15801561152f573d6000803e3d6000fd5b61184f3383611b70565b61186b5760405162461bcd60e51b815260040161079d90612ffe565b610baf84848484612168565b6007546001600160a01b031633146118a15760405162461bcd60e51b815260040161079d9061304f565b6040516370a0823160e01b81523060048201526000906001600160a01b038416906370a0823190602401602060405180830381865afa1580156118e8573d6000803e3d6000fd5b505050506040513d601f19601f8201168201806040525081019061190c9190612f48565b1161196b5760405162461bcd60e51b815260206004820152602960248201527f7468697320636f6e747261637420646f6573206e6f7420636f6e7461696e20746044820152683434b9903a37b5b2b760b91b606482015260840161079d565b60405163a9059cbb60e01b8152336004820152602481018290526001600160a01b0383169063a9059cbb906044016020604051808303816000875af11580156119b8573d6000803e3d6000fd5b505050506040513d601f19601f82011682018060405250810190610df19190613084565b6060610bc08261219b565b606060108054610bd590612fc9565b6007546001600160a01b03163314611a205760405162461bcd60e51b815260040161079d9061304f565b600e55565b6007546001600160a01b03163314611a4f5760405162461bcd60e51b815260040161079d9061304f565b6001600160a01b038116611ab45760405162461bcd60e51b815260206004820152602660248201527f4f776e61626c653a206e6577206f776e657220697320746865207a65726f206160448201526564647265737360d01b606482015260840161079d565b611abd81611fcc565b50565b60006001600160e01b0319821663780e9d6360e01b1480610bc05750610bc0826122fd565b6000908152600260205260409020546001600160a01b0316151590565b600081815260046020526040902080546001600160a01b0319166001600160a01b0384169081179091558190611b378261122f565b6001600160a01b03167f8c5be1e5ebec7d5bd14f71427d1e84f3dd0314c0f7b2291e5b200ac8c7c3b92560405160405180910390a45050565b6000611b7b82611ae5565b611bdc5760405162461bcd60e51b815260206004820152602c60248201527f4552433732313a206f70657261746f7220717565727920666f72206e6f6e657860448201526b34b9ba32b73a103a37b5b2b760a11b606482015260840161079d565b6000611be78361122f565b9050806001600160a01b0316846001600160a01b03161480611c225750836001600160a01b0316611c1784610c58565b6001600160a01b0316145b80611c5257506001600160a01b0380821660009081526005602090815260408083209388168352929052205460ff165b949350505050565b826001600160a01b0316611c6d8261122f565b6001600160a01b031614611cd55760405162461bcd60e51b815260206004820152602960248201527f4552433732313a207472616e73666572206f6620746f6b656e2074686174206960448201526839903737ba1037bbb760b91b606482015260840161079d565b6001600160a01b038216611d375760405162461bcd60e51b8152602060048201526024808201527f4552433732313a207472616e7366657220746f20746865207a65726f206164646044820152637265737360e01b606482015260840161079d565b611d4283838361234d565b611d4d600082611b02565b6001600160a01b0383166000908152600360205260408120805460019290611d769084906130b7565b90915550506001600160a01b0382166000908152600360205260408120805460019290611da4908490612f96565b909155505060008181526002602052604080822080546001600160a01b0319166001600160a01b0386811691821790925591518493918716917fddf252ad1be2c89b69c2b068fc378daa952ba7f163c4a11628f55a4df523b3ef91a4505050565b600c5460ff16611e4e5760405162461bcd60e51b815260206004820152601460248201527314185d5cd8589b194e881b9bdd081c185d5cd95960621b604482015260640161079d565b600c805460ff191690557f5db9ee0a495bf2e6ff9c91a7834c1ba4fdd244a5e8aa4e537bd38aeae4b073aa335b6040516001600160a01b03909116815260200160405180910390a1565b612710600f541115611eec5760405162461bcd60e51b815260206004820152601c60248201527f616c6c20506f7373756d732068617665206265656e206d696e74656400000000604482015260640161079d565b611ef6828261239e565b611f8a8160108054611f0790612fc9565b80601f0160208091040260200160405190810160405280929190818152602001828054611f3390612fc9565b8015611f805780601f10611f5557610100808354040283529160200191611f80565b820191906000526020600020905b815481529060010190602001808311611f6357829003601f168201915b50505050506123b8565b600f8054906000611f9a83612fae565b90915550506001600160a01b0382166000908152601360205260408120805491611fc383612fae565b91905055505050565b600780546001600160a01b038381166001600160a01b0319831681179093556040519116919082907f8be0079c531659141344cd1fd0a4f28419497f9722a3daafe3b4186f6b6457e090600090a35050565b600c5460ff16156120645760405162461bcd60e51b815260206004820152601060248201526f14185d5cd8589b194e881c185d5cd95960821b604482015260640161079d565b600c805460ff191660011790557f62e78cea01bee320cd4e420270b5ea74000d11b0c9f74754ebdbfc544b05a258611e7b3390565b816001600160a01b0316836001600160a01b031614156120fb5760405162461bcd60e51b815260206004820152601960248201527f4552433732313a20617070726f766520746f2063616c6c657200000000000000604482015260640161079d565b6001600160a01b03838116600081815260056020908152604080832094871680845294825291829020805460ff191686151590811790915591519182527f17307eab39ab6107e8899845ad3d59bd9653f200f220920489ca2b5937696c31910160405180910390a3505050565b612173848484611c5a565b61217f84848484612443565b610baf5760405162461bcd60e51b815260040161079d906130ce565b60606121a682611ae5565b61220c5760405162461bcd60e51b815260206004820152603160248201527f45524337323155524953746f726167653a2055524920717565727920666f72206044820152703737b732bc34b9ba32b73a103a37b5b2b760791b606482015260840161079d565b6000828152600660205260408120805461222590612fc9565b80601f016020809104026020016040519081016040528092919081815260200182805461225190612fc9565b801561229e5780601f106122735761010080835404028352916020019161229e565b820191906000526020600020905b81548152906001019060200180831161228157829003601f168201915b5050505050905060006122af6119e7565b90508051600014156122c2575092915050565b8151156122f45780826040516020016122dc929190613120565b60405160208183030381529060405292505050919050565b611c5284612541565b60006001600160e01b031982166380ac58cd60e01b148061232e57506001600160e01b03198216635b5e139f60e01b145b80610bc057506301ffc9a760e01b6001600160e01b0319831614610bc0565b600c5460ff16156123935760405162461bcd60e51b815260206004820152601060248201526f14185d5cd8589b194e881c185d5cd95960821b604482015260640161079d565b610df183838361260c565b610fc98282604051806020016040528060008152506126c4565b6123c182611ae5565b6124245760405162461bcd60e51b815260206004820152602e60248201527f45524337323155524953746f726167653a2055524920736574206f66206e6f6e60448201526d32bc34b9ba32b73a103a37b5b2b760911b606482015260840161079d565b60008281526006602090815260409091208251610df192840190612b48565b60006001600160a01b0384163b1561253657604051630a85bd0160e11b81526001600160a01b0385169063150b7a029061248790339089908890889060040161314f565b6020604051808303816000875af19250505080156124c2575060408051601f3d908101601f191682019092526124bf9181019061318c565b60015b61251c573d8080156124f0576040519150601f19603f3d011682016040523d82523d6000602084013e6124f5565b606091505b5080516125145760405162461bcd60e51b815260040161079d906130ce565b805181602001fd5b6001600160e01b031916630a85bd0160e11b149050611c52565b506001949350505050565b606061254c82611ae5565b6125b05760405162461bcd60e51b815260206004820152602f60248201527f4552433732314d657461646174613a2055524920717565727920666f72206e6f60448201526e3732bc34b9ba32b73a103a37b5b2b760891b606482015260840161079d565b60006125ba6119e7565b905060008151116125da5760405180602001604052806000815250612605565b806125e4846126f7565b6040516020016125f5929190613120565b6040516020818303038152906040525b9392505050565b6001600160a01b0383166126675761266281600a80546000838152600b60205260408120829055600182018355919091527fc65a7bb8d6351c1cf70c95a316cc6a92839c986682d98bc35f958f4883f9d2a80155565b61268a565b816001600160a01b0316836001600160a01b03161461268a5761268a83826127f5565b6001600160a01b0382166126a157610df181612892565b826001600160a01b0316826001600160a01b031614610df157610df18282612941565b6126ce8383612985565b6126db6000848484612443565b610df15760405162461bcd60e51b815260040161079d906130ce565b60608161271b5750506040805180820190915260018152600360fc1b602082015290565b8160005b8115612745578061272f81612fae565b915061273e9050600a836131bf565b915061271f565b60008167ffffffffffffffff81111561276057612760612e24565b6040519080825280601f01601f19166020018201604052801561278a576020820181803683370190505b5090505b8415611c525761279f6001836130b7565b91506127ac600a866131d3565b6127b7906030612f96565b60f81b8183815181106127cc576127cc6130a1565b60200101906001600160f81b031916908160001a9053506127ee600a866131bf565b945061278e565b60006001612802846112a6565b61280c91906130b7565b60008381526009602052604090205490915080821461285f576001600160a01b03841660009081526008602090815260408083208584528252808320548484528184208190558352600990915290208190555b5060009182526009602090815260408084208490556001600160a01b039094168352600881528383209183525290812055565b600a546000906128a4906001906130b7565b6000838152600b6020526040812054600a80549394509092849081106128cc576128cc6130a1565b9060005260206000200154905080600a83815481106128ed576128ed6130a1565b6000918252602080832090910192909255828152600b9091526040808220849055858252812055600a805480612925576129256131e7565b6001900381819060005260206000200160009055905550505050565b600061294c836112a6565b6001600160a01b039093166000908152600860209081526040808320868452825280832085905593825260099052919091209190915550565b6001600160a01b0382166129db5760405162461bcd60e51b815260206004820181905260248201527f4552433732313a206d696e7420746f20746865207a65726f2061646472657373604482015260640161079d565b6129e481611ae5565b15612a315760405162461bcd60e51b815260206004820152601c60248201527f4552433732313a20746f6b656e20616c7265616479206d696e74656400000000604482015260640161079d565b612a3d6000838361234d565b6001600160a01b0382166000908152600360205260408120805460019290612a66908490612f96565b909155505060008181526002602052604080822080546001600160a01b0319166001600160a01b03861690811790915590518392907fddf252ad1be2c89b69c2b068fc378daa952ba7f163c4a11628f55a4df523b3ef908290a45050565b828054612ad090612fc9565b90600052602060002090601f016020900481019282612af25760008555612b38565b82601f10612b0b5782800160ff19823516178555612b38565b82800160010185558215612b38579182015b82811115612b38578235825591602001919060010190612b1d565b50612b44929150612bbc565b5090565b828054612b5490612fc9565b90600052602060002090601f016020900481019282612b765760008555612b38565b82601f10612b8f57805160ff1916838001178555612b38565b82800160010185558215612b38579182015b82811115612b38578251825591602001919060010190612ba1565b5b80821115612b445760008155600101612bbd565b600060208284031215612be357600080fd5b5035919050565b6001600160e01b031981168114611abd57600080fd5b600060208284031215612c1257600080fd5b813561260581612bea565b60005b83811015612c38578181015183820152602001612c20565b83811115610baf5750506000910152565b60008151808452612c61816020860160208601612c1d565b601f01601f19169290920160200192915050565b6020815260006126056020830184612c49565b6001600160a01b0381168114611abd57600080fd5b60008060408385031215612cb057600080fd5b8235612cbb81612c88565b946020939093013593505050565b600080600060608486031215612cde57600080fd5b8335612ce981612c88565b92506020840135612cf981612c88565b929592945050506040919091013590565b60008060208385031215612d1d57600080fd5b823567ffffffffffffffff80821115612d3557600080fd5b818501915085601f830112612d4957600080fd5b813581811115612d5857600080fd5b866020828501011115612d6a57600080fd5b60209290920196919550909350505050565b600060208284031215612d8e57600080fd5b813561260581612c88565b6020808252825182820181905260009190848201906040850190845b81811015612dd157835183529284019291840191600101612db5565b50909695505050505050565b8015158114611abd57600080fd5b60008060408385031215612dfe57600080fd5b8235612e0981612c88565b91506020830135612e1981612ddd565b809150509250929050565b634e487b7160e01b600052604160045260246000fd5b60008060008060808587031215612e5057600080fd5b8435612e5b81612c88565b93506020850135612e6b81612c88565b925060408501359150606085013567ffffffffffffffff80821115612e8f57600080fd5b818701915087601f830112612ea357600080fd5b813581811115612eb557612eb5612e24565b604051601f8201601f19908116603f01168101908382118183101715612edd57612edd612e24565b816040528281528a6020848701011115612ef657600080fd5b82602086016020830137600060208483010152809550505050505092959194509250565b60008060408385031215612f2d57600080fd5b8235612f3881612c88565b91506020830135612e1981612c88565b600060208284031215612f5a57600080fd5b5051919050565b634e487b7160e01b600052601160045260246000fd5b6000816000190483118215151615612f9157612f91612f61565b500290565b60008219821115612fa957612fa9612f61565b500190565b6000600019821415612fc257612fc2612f61565b5060010190565b600181811c90821680612fdd57607f821691505b602082108114156114ad57634e487b7160e01b600052602260045260246000fd5b60208082526031908201527f4552433732313a207472616e736665722063616c6c6572206973206e6f74206f6040820152701ddb995c881b9bdc88185c1c1c9bdd9959607a1b606082015260800190565b6020808252818101527f4f776e61626c653a2063616c6c6572206973206e6f7420746865206f776e6572604082015260600190565b60006020828403121561309657600080fd5b815161260581612ddd565b634e487b7160e01b600052603260045260246000fd5b6000828210156130c9576130c9612f61565b500390565b60208082526032908201527f4552433732313a207472616e7366657220746f206e6f6e20455243373231526560408201527131b2b4bb32b91034b6b83632b6b2b73a32b960711b606082015260800190565b60008351613132818460208801612c1d565b835190830190613146818360208801612c1d565b01949350505050565b6001600160a01b038581168252841660208201526040810183905260806060820181905260009061318290830184612c49565b9695505050505050565b60006020828403121561319e57600080fd5b815161260581612bea565b634e487b7160e01b600052601260045260246000fd5b6000826131ce576131ce6131a9565b500490565b6000826131e2576131e26131a9565b500690565b634e487b7160e01b600052603160045260246000fdfea26469706673582212202ac725c00605100d43ccce703faeb3ddb337410a5d7aef668dccd458abffdf7664736f6c634300080a0033",
  "linkReferences": {},
  "deployedLinkReferences": {}
}