{
  "_format": "hh-sol-artifact-1",
  "contractName": "TrashPossums",
  "sourceName": "contracts/TrashPossums.sol",
  "abi": [
    {
      "inputs": [
        {
          "internalType": "uint256",
          "name": "_possumPrice",
          "type": "uint256"
        },
        {
          "internalType": "uint256",
          "name": "_startMintDate",
          "type": "uint256"
        },
        {
          "internalType": "string",
          "name": "_baseUri",
          "type": "string"
        },
        {
          "internalType": "address",
          "name": "_randomness",
          "type": "address"
        },
        {
          "internalType": "uint256",
          "name": "_premintCount",
          "type": "uint256"
        }
      ],
      "stateMutability": "nonpayable",
      "type": "constructor"
    },
    {
      "anonymous": false,
      "inputs": [
        {
          "indexed": true,
          "internalType": "address",
          "name": "owner",
          "type": "address"
        },
        {
          "indexed": true,
          "internalType": "address",
          "name": "approved",
          "type": "address"
        },
        {
          "indexed": true,
          "internalType": "uint256",
          "name": "tokenId",
          "type": "uint256"
        }
      ],
      "name": "Approval",
      "type": "event"
    },
    {
      "anonymous": false,
      "inputs": [
        {
          "indexed": true,
          "internalType": "address",
          "name": "owner",
          "type": "address"
        },
        {
          "indexed": true,
          "internalType": "address",
          "name": "operator",
          "type": "address"
        },
        {
          "indexed": false,
          "internalType": "bool",
          "name": "approved",
          "type": "bool"
        }
      ],
      "name": "ApprovalForAll",
      "type": "event"
    },
    {
      "anonymous": false,
      "inputs": [
        {
          "indexed": true,
          "internalType": "address",
          "name": "previousOwner",
          "type": "address"
        },
        {
          "indexed": true,
          "internalType": "address",
          "name": "newOwner",
          "type": "address"
        }
      ],
      "name": "OwnershipTransferred",
      "type": "event"
    },
    {
      "anonymous": false,
      "inputs": [
        {
          "indexed": false,
          "internalType": "address",
          "name": "account",
          "type": "address"
        }
      ],
      "name": "Paused",
      "type": "event"
    },
    {
      "anonymous": false,
      "inputs": [
        {
          "indexed": true,
          "internalType": "address",
          "name": "to",
          "type": "address"
        },
        {
          "indexed": true,
          "internalType": "uint256",
          "name": "tokenId",
          "type": "uint256"
        }
      ],
      "name": "Reserved",
      "type": "event"
    },
    {
      "anonymous": false,
      "inputs": [
        {
          "indexed": true,
          "internalType": "address",
          "name": "from",
          "type": "address"
        },
        {
          "indexed": true,
          "internalType": "address",
          "name": "to",
          "type": "address"
        },
        {
          "indexed": true,
          "internalType": "uint256",
          "name": "tokenId",
          "type": "uint256"
        }
      ],
      "name": "Transfer",
      "type": "event"
    },
    {
      "anonymous": false,
      "inputs": [
        {
          "indexed": false,
          "internalType": "address",
          "name": "account",
          "type": "address"
        }
      ],
      "name": "Unpaused",
      "type": "event"
    },
    {
      "inputs": [
        {
          "internalType": "address",
          "name": "to",
          "type": "address"
        },
        {
          "internalType": "uint256",
          "name": "tokenId",
          "type": "uint256"
        }
      ],
      "name": "approve",
      "outputs": [],
      "stateMutability": "nonpayable",
      "type": "function"
    },
    {
      "inputs": [
        {
          "internalType": "address",
          "name": "owner",
          "type": "address"
        }
      ],
      "name": "balanceOf",
      "outputs": [
        {
          "internalType": "uint256",
          "name": "",
          "type": "uint256"
        }
      ],
      "stateMutability": "view",
      "type": "function"
    },
    {
      "inputs": [],
      "name": "baseURI",
      "outputs": [
        {
          "internalType": "string",
          "name": "",
          "type": "string"
        }
      ],
      "stateMutability": "view",
      "type": "function"
    },
    {
      "inputs": [],
      "name": "claimPossums",
      "outputs": [],
      "stateMutability": "payable",
      "type": "function"
    },
    {
      "inputs": [],
      "name": "contractURI",
      "outputs": [
        {
          "internalType": "string",
          "name": "",
          "type": "string"
        }
      ],
      "stateMutability": "view",
      "type": "function"
    },
    {
      "inputs": [
        {
          "internalType": "uint256",
          "name": "tokenId",
          "type": "uint256"
        }
      ],
      "name": "getApproved",
      "outputs": [
        {
          "internalType": "address",
          "name": "",
          "type": "address"
        }
      ],
      "stateMutability": "view",
      "type": "function"
    },
    {
      "inputs": [],
      "name": "getAvailablePossums",
      "outputs": [
        {
          "internalType": "uint256",
          "name": "",
          "type": "uint256"
        }
      ],
      "stateMutability": "view",
      "type": "function"
    },
    {
      "inputs": [],
      "name": "getBalance",
      "outputs": [
        {
          "internalType": "uint256",
          "name": "",
          "type": "uint256"
        }
      ],
      "stateMutability": "view",
      "type": "function"
    },
    {
      "inputs": [],
      "name": "getClaimDate",
      "outputs": [
        {
          "internalType": "uint256",
          "name": "",
          "type": "uint256"
        }
      ],
      "stateMutability": "view",
      "type": "function"
    },
    {
      "inputs": [],
      "name": "getMintingStartDate",
      "outputs": [
        {
          "internalType": "uint256",
          "name": "",
          "type": "uint256"
        }
      ],
      "stateMutability": "view",
      "type": "function"
    },
    {
      "inputs": [],
      "name": "getNumberOfReservedPossums",
      "outputs": [
        {
          "internalType": "uint256",
          "name": "",
          "type": "uint256"
        }
      ],
      "stateMutability": "view",
      "type": "function"
    },
    {
      "inputs": [],
      "name": "getPossumPrice",
      "outputs": [
        {
          "internalType": "uint256",
          "name": "",
          "type": "uint256"
        }
      ],
      "stateMutability": "view",
      "type": "function"
    },
    {
      "inputs": [],
      "name": "getRandomnessAddress",
      "outputs": [
        {
          "internalType": "address",
          "name": "",
          "type": "address"
        }
      ],
      "stateMutability": "view",
      "type": "function"
    },
    {
      "inputs": [
        {
          "internalType": "address",
          "name": "_wallet",
          "type": "address"
        }
      ],
      "name": "getReservedPossumIds",
      "outputs": [
        {
          "internalType": "uint256[]",
          "name": "reservedIds",
          "type": "uint256[]"
        }
      ],
      "stateMutability": "view",
      "type": "function"
    },
    {
      "inputs": [
        {
          "internalType": "address",
          "name": "_wallet",
          "type": "address"
        }
      ],
      "name": "getReservedPossumsPerWallet",
      "outputs": [
        {
          "internalType": "uint256",
          "name": "",
          "type": "uint256"
        }
      ],
      "stateMutability": "view",
      "type": "function"
    },
    {
      "inputs": [],
      "name": "getTotalMintedPossums",
      "outputs": [
        {
          "internalType": "uint256",
          "name": "",
          "type": "uint256"
        }
      ],
      "stateMutability": "view",
      "type": "function"
    },
    {
      "inputs": [],
      "name": "getTotalPossums",
      "outputs": [
        {
          "internalType": "uint256",
          "name": "",
          "type": "uint256"
        }
      ],
      "stateMutability": "pure",
      "type": "function"
    },
    {
      "inputs": [
        {
          "internalType": "address",
          "name": "owner",
          "type": "address"
        },
        {
          "internalType": "address",
          "name": "operator",
          "type": "address"
        }
      ],
      "name": "isApprovedForAll",
      "outputs": [
        {
          "internalType": "bool",
          "name": "",
          "type": "bool"
        }
      ],
      "stateMutability": "view",
      "type": "function"
    },
    {
      "inputs": [],
      "name": "maxPossumsPerTransaction",
      "outputs": [
        {
          "internalType": "uint256",
          "name": "",
          "type": "uint256"
        }
      ],
      "stateMutability": "view",
      "type": "function"
    },
    {
      "inputs": [],
      "name": "maxPossumsPerWallet",
      "outputs": [
        {
          "internalType": "uint256",
          "name": "",
          "type": "uint256"
        }
      ],
      "stateMutability": "view",
      "type": "function"
    },
    {
      "inputs": [],
      "name": "name",
      "outputs": [
        {
          "internalType": "string",
          "name": "",
          "type": "string"
        }
      ],
      "stateMutability": "view",
      "type": "function"
    },
    {
      "inputs": [],
      "name": "numberOfReservedPossums",
      "outputs": [
        {
          "internalType": "uint256",
          "name": "",
          "type": "uint256"
        }
      ],
      "stateMutability": "view",
      "type": "function"
    },
    {
      "inputs": [],
      "name": "owner",
      "outputs": [
        {
          "internalType": "address",
          "name": "",
          "type": "address"
        }
      ],
      "stateMutability": "view",
      "type": "function"
    },
    {
      "inputs": [
        {
          "internalType": "uint256",
          "name": "tokenId",
          "type": "uint256"
        }
      ],
      "name": "ownerOf",
      "outputs": [
        {
          "internalType": "address",
          "name": "",
          "type": "address"
        }
      ],
      "stateMutability": "view",
      "type": "function"
    },
    {
      "inputs": [],
      "name": "pause",
      "outputs": [],
      "stateMutability": "nonpayable",
      "type": "function"
    },
    {
      "inputs": [],
      "name": "paused",
      "outputs": [
        {
          "internalType": "bool",
          "name": "",
          "type": "bool"
        }
      ],
      "stateMutability": "view",
      "type": "function"
    },
    {
      "inputs": [],
      "name": "possumPrice",
      "outputs": [
        {
          "internalType": "uint256",
          "name": "",
          "type": "uint256"
        }
      ],
      "stateMutability": "view",
      "type": "function"
    },
    {
      "inputs": [],
      "name": "premintCount",
      "outputs": [
        {
          "internalType": "uint256",
          "name": "",
          "type": "uint256"
        }
      ],
      "stateMutability": "view",
      "type": "function"
    },
    {
      "inputs": [],
      "name": "premintPossums",
      "outputs": [],
      "stateMutability": "nonpayable",
      "type": "function"
    },
    {
      "inputs": [],
      "name": "randomness",
      "outputs": [
        {
          "internalType": "address",
          "name": "",
          "type": "address"
        }
      ],
      "stateMutability": "view",
      "type": "function"
    },
    {
      "inputs": [],
      "name": "renounceOwnership",
      "outputs": [],
      "stateMutability": "nonpayable",
      "type": "function"
    },
    {
      "inputs": [
        {
          "internalType": "uint256",
          "name": "amount",
          "type": "uint256"
        }
      ],
      "name": "reservePossums",
      "outputs": [],
      "stateMutability": "payable",
      "type": "function"
    },
    {
      "inputs": [
        {
          "internalType": "address",
          "name": "from",
          "type": "address"
        },
        {
          "internalType": "address",
          "name": "to",
          "type": "address"
        },
        {
          "internalType": "uint256",
          "name": "tokenId",
          "type": "uint256"
        }
      ],
      "name": "safeTransferFrom",
      "outputs": [],
      "stateMutability": "nonpayable",
      "type": "function"
    },
    {
      "inputs": [
        {
          "internalType": "address",
          "name": "from",
          "type": "address"
        },
        {
          "internalType": "address",
          "name": "to",
          "type": "address"
        },
        {
          "internalType": "uint256",
          "name": "tokenId",
          "type": "uint256"
        },
        {
          "internalType": "bytes",
          "name": "_data",
          "type": "bytes"
        }
      ],
      "name": "safeTransferFrom",
      "outputs": [],
      "stateMutability": "nonpayable",
      "type": "function"
    },
    {
      "inputs": [
        {
          "internalType": "address",
          "name": "operator",
          "type": "address"
        },
        {
          "internalType": "bool",
          "name": "approved",
          "type": "bool"
        }
      ],
      "name": "setApprovalForAll",
      "outputs": [],
      "stateMutability": "nonpayable",
      "type": "function"
    },
    {
      "inputs": [
        {
          "internalType": "string",
          "name": "_tokenURI",
          "type": "string"
        }
      ],
      "name": "setBaseTokenURI",
      "outputs": [],
      "stateMutability": "nonpayable",
      "type": "function"
    },
    {
      "inputs": [
        {
          "internalType": "uint256",
          "name": "_possumPrice",
          "type": "uint256"
        }
      ],
      "name": "setPossumPrice",
      "outputs": [],
      "stateMutability": "nonpayable",
      "type": "function"
    },
    {
      "inputs": [
        {
          "internalType": "address",
          "name": "_randomness",
          "type": "address"
        }
      ],
      "name": "setRandomness",
      "outputs": [],
      "stateMutability": "nonpayable",
      "type": "function"
    },
    {
      "inputs": [
        {
          "internalType": "uint256",
          "name": "_startMintDate",
          "type": "uint256"
        }
      ],
      "name": "setStartMintDate",
      "outputs": [],
      "stateMutability": "nonpayable",
      "type": "function"
    },
    {
      "inputs": [],
      "name": "startMintDate",
      "outputs": [
        {
          "internalType": "uint256",
          "name": "",
          "type": "uint256"
        }
      ],
      "stateMutability": "view",
      "type": "function"
    },
    {
      "inputs": [
        {
          "internalType": "bytes4",
          "name": "interfaceId",
          "type": "bytes4"
        }
      ],
      "name": "supportsInterface",
      "outputs": [
        {
          "internalType": "bool",
          "name": "",
          "type": "bool"
        }
      ],
      "stateMutability": "view",
      "type": "function"
    },
    {
      "inputs": [],
      "name": "symbol",
      "outputs": [
        {
          "internalType": "string",
          "name": "",
          "type": "string"
        }
      ],
      "stateMutability": "view",
      "type": "function"
    },
    {
      "inputs": [
        {
          "internalType": "uint256",
          "name": "index",
          "type": "uint256"
        }
      ],
      "name": "tokenByIndex",
      "outputs": [
        {
          "internalType": "uint256",
          "name": "",
          "type": "uint256"
        }
      ],
      "stateMutability": "view",
      "type": "function"
    },
    {
      "inputs": [
        {
          "internalType": "address",
          "name": "owner",
          "type": "address"
        },
        {
          "internalType": "uint256",
          "name": "index",
          "type": "uint256"
        }
      ],
      "name": "tokenOfOwnerByIndex",
      "outputs": [
        {
          "internalType": "uint256",
          "name": "",
          "type": "uint256"
        }
      ],
      "stateMutability": "view",
      "type": "function"
    },
    {
      "inputs": [
        {
          "internalType": "uint256",
          "name": "tokenId",
          "type": "uint256"
        }
      ],
      "name": "tokenURI",
      "outputs": [
        {
          "internalType": "string",
          "name": "",
          "type": "string"
        }
      ],
      "stateMutability": "view",
      "type": "function"
    },
    {
      "inputs": [],
      "name": "totalMintedPossums",
      "outputs": [
        {
          "internalType": "uint256",
          "name": "",
          "type": "uint256"
        }
      ],
      "stateMutability": "view",
      "type": "function"
    },
    {
      "inputs": [],
      "name": "totalPossums",
      "outputs": [
        {
          "internalType": "uint256",
          "name": "",
          "type": "uint256"
        }
      ],
      "stateMutability": "view",
      "type": "function"
    },
    {
      "inputs": [],
      "name": "totalSupply",
      "outputs": [
        {
          "internalType": "uint256",
          "name": "",
          "type": "uint256"
        }
      ],
      "stateMutability": "view",
      "type": "function"
    },
    {
      "inputs": [
        {
          "internalType": "address",
          "name": "from",
          "type": "address"
        },
        {
          "internalType": "address",
          "name": "to",
          "type": "address"
        },
        {
          "internalType": "uint256",
          "name": "tokenId",
          "type": "uint256"
        }
      ],
      "name": "transferFrom",
      "outputs": [],
      "stateMutability": "nonpayable",
      "type": "function"
    },
    {
      "inputs": [
        {
          "internalType": "address",
          "name": "newOwner",
          "type": "address"
        }
      ],
      "name": "transferOwnership",
      "outputs": [],
      "stateMutability": "nonpayable",
      "type": "function"
    },
    {
      "inputs": [],
      "name": "unpause",
      "outputs": [],
      "stateMutability": "nonpayable",
      "type": "function"
    },
    {
      "inputs": [],
      "name": "withdraw",
      "outputs": [],
      "stateMutability": "payable",
      "type": "function"
    },
    {
      "inputs": [
        {
          "internalType": "contract IERC20",
          "name": "token",
          "type": "address"
        },
        {
          "internalType": "uint256",
          "name": "_amount",
          "type": "uint256"
        }
      ],
      "name": "withdrawErc20",
      "outputs": [],
      "stateMutability": "nonpayable",
      "type": "function"
    },
    {
      "stateMutability": "payable",
      "type": "receive"
    }
  ],
  "bytecode": "0x60806040523480156200001157600080fd5b506040516200378038038062003780833981016040819052620000349162000240565b604080518082018252600d81526c547261736820506f7373756d7360981b60208083019182528351808501909452600584526454504f535360d81b908401528151919291620000869160009162000167565b5080516200009c90600190602084019062000167565b505050620000b9620000b36200011160201b60201c565b62000115565b600c805460ff19169055600f859055600e8490558251620000e290601390602086019062000167565b50601280546001600160a01b0319166001600160a01b039390931692909217909155600d55506200038d915050565b3390565b600780546001600160a01b038381166001600160a01b0319831681179093556040519116919082907f8be0079c531659141344cd1fd0a4f28419497f9722a3daafe3b4186f6b6457e090600090a35050565b828054620001759062000350565b90600052602060002090601f016020900481019282620001995760008555620001e4565b82601f10620001b457805160ff1916838001178555620001e4565b82800160010185558215620001e4579182015b82811115620001e4578251825591602001919060010190620001c7565b50620001f2929150620001f6565b5090565b5b80821115620001f25760008155600101620001f7565b634e487b7160e01b600052604160045260246000fd5b80516001600160a01b03811681146200023b57600080fd5b919050565b600080600080600060a086880312156200025957600080fd5b855160208088015160408901519297509550906001600160401b03808211156200028257600080fd5b818901915089601f8301126200029757600080fd5b815181811115620002ac57620002ac6200020d565b604051601f8201601f19908116603f01168101908382118183101715620002d757620002d76200020d565b816040528281528c86848701011115620002f057600080fd5b600093505b82841015620003145784840186015181850187015292850192620002f5565b82841115620003265760008684830101525b8098505050505050506200033d6060870162000223565b9150608086015190509295509295909350565b600181811c908216806200036557607f821691505b602082108114156200038757634e487b7160e01b600052602260045260246000fd5b50919050565b6133e3806200039d6000396000f3fe60806040526004361061031d5760003560e01c80636ab60117116101ab578063a37a85e9116100f7578063da67e22a11610095578063e8a3d4851161006f578063e8a3d48514610870578063e985e9c514610885578063ead17506146108ce578063f2fde38b146108e357600080fd5b8063da67e22a14610825578063dca772841461083b578063e65fadc41461085b57600080fd5b8063b88d4fde116100d1578063b88d4fde146107b0578063bd1f4b52146107d0578063c87b56dd146107f0578063cc6bbd651461081057600080fd5b8063a37a85e914610773578063b031b35b14610793578063b37cb09d1461079b57600080fd5b806384511aff116101645780638da5cb5b1161013e5780638da5cb5b1461070a57806395d89b41146107285780639d9ee6731461073d578063a22cb4651461075357600080fd5b806384511aff146106cb5780638456cb59146106e05780638481de5f146106f557600080fd5b80636ab601171461062a5780636c0360eb1461063f57806370a0823114610654578063715018a614610674578063723bcc13146106895780637fd3352e1461069e57600080fd5b80633bb240bd1161026a5780634f6ccce7116102235780635b46a8f2116101fd5780635b46a8f2146105c65780635ba36949146105dc5780635c975abb146105f25780636352211e1461060a57600080fd5b80634f6ccce71461055a57806350f257e11461057a578063530e04bb146105b057600080fd5b80633bb240bd146104d25780633ccfd60b146104e85780633f4ba83a146104f0578063416c585d1461050557806342842e0e1461051a578063493143e41461053a57600080fd5b806318160ddd116102d757806325554fb1116102b157806325554fb11461045d5780632f745c591461047257806330176e131461049257806336013189146104b257600080fd5b806318160ddd1461040a57806323b872dd1461041f57806324d395961461043f57600080fd5b806261b0ec1461032957806301ffc9a71461033e57806306fdde0314610373578063081812fc14610395578063095ea7b3146103cd57806312065fe0146103ed57600080fd5b3661032457005b600080fd5b61033c610337366004612d81565b610903565b005b34801561034a57600080fd5b5061035e610359366004612db0565b610bb0565b60405190151581526020015b60405180910390f35b34801561037f57600080fd5b50610388610bc1565b60405161036a9190612e25565b3480156103a157600080fd5b506103b56103b0366004612d81565b610c53565b6040516001600160a01b03909116815260200161036a565b3480156103d957600080fd5b5061033c6103e8366004612e4d565b610cdb565b3480156103f957600080fd5b50475b60405190815260200161036a565b34801561041657600080fd5b50600a546103fc565b34801561042b57600080fd5b5061033c61043a366004612e79565b610dec565b34801561044b57600080fd5b506012546001600160a01b03166103b5565b34801561046957600080fd5b506011546103fc565b34801561047e57600080fd5b506103fc61048d366004612e4d565b610e1d565b34801561049e57600080fd5b5061033c6104ad366004612eba565b610eb3565b3480156104be57600080fd5b506012546103b5906001600160a01b031681565b3480156104de57600080fd5b506103fc600f5481565b61033c610ee9565b3480156104fc57600080fd5b5061033c610fc3565b34801561051157600080fd5b5061033c610ff7565b34801561052657600080fd5b5061033c610535366004612e79565b611116565b34801561054657600080fd5b5061033c610555366004612d81565b611131565b34801561056657600080fd5b506103fc610575366004612d81565b611160565b34801561058657600080fd5b506103fc610595366004612f2c565b6001600160a01b031660009081526015602052604090205490565b3480156105bc57600080fd5b506103fc60105481565b3480156105d257600080fd5b506103fc611b5881565b3480156105e857600080fd5b506103fc60115481565b3480156105fe57600080fd5b50600c5460ff1661035e565b34801561061657600080fd5b506103b5610625366004612d81565b6111f3565b34801561063657600080fd5b506103fc601b81565b34801561064b57600080fd5b5061038861126a565b34801561066057600080fd5b506103fc61066f366004612f2c565b6112f8565b34801561068057600080fd5b5061033c61137f565b34801561069557600080fd5b50600f546103fc565b3480156106aa57600080fd5b506106be6106b9366004612f2c565b6113b3565b60405161036a9190612f49565b3480156106d757600080fd5b506103fc603681565b3480156106ec57600080fd5b5061033c611505565b34801561070157600080fd5b506103fc611537565b34801561071657600080fd5b506007546001600160a01b03166103b5565b34801561073457600080fd5b506103886115aa565b34801561074957600080fd5b506103fc600d5481565b34801561075f57600080fd5b5061033c61076e366004612f9b565b6115b9565b34801561077f57600080fd5b5061033c61078e366004612f2c565b6115c4565b61033c611610565b3480156107a757600080fd5b506103fc6118d9565b3480156107bc57600080fd5b5061033c6107cb366004612fea565b611923565b3480156107dc57600080fd5b5061033c6107eb366004612e4d565b61195b565b3480156107fc57600080fd5b5061038861080b366004612d81565b611ae1565b34801561081c57600080fd5b50611b586103fc565b34801561083157600080fd5b506103fc600e5481565b34801561084757600080fd5b5061033c610856366004612d81565b611aec565b34801561086757600080fd5b506010546103fc565b34801561087c57600080fd5b50610388611b1b565b34801561089157600080fd5b5061035e6108a03660046130ca565b6001600160a01b03918216600090815260056020908152604080832093909416825291909152205460ff1690565b3480156108da57600080fd5b50600e546103fc565b3480156108ef57600080fd5b5061033c6108fe366004612f2c565b611b2a565b600e5415801590610915575042600e54105b61095a5760405162461bcd60e51b8152602060048201526011602482015270596f752061726520746f6f206561726c7960781b60448201526064015b60405180910390fd5b6000610964611537565b905081600f54610974919061310e565b3410156109d55760405162461bcd60e51b815260206004820152602960248201527f4e6f7420656e6f75676820457468657220746f207265736572766520746865736044820152686520706f7373756d7360b81b6064820152608401610951565b60008211610a255760405162461bcd60e51b815260206004820152601e60248201527f6e65656420746f2072657365727665206174206c656173742031204e465400006044820152606401610951565b33600090815260156020526040902054603690610a4390849061312d565b11158015610a6d575033600090815260146020526040902054603690610a6a90849061312d565b11155b610ab95760405162461bcd60e51b815260206004820152601f60248201527f596f752063616e6e6f742072657365727665206d6f726520706f7373756d73006044820152606401610951565b81811015610b095760405162461bcd60e51b815260206004820152601760248201527f4e6f7420656e6f75676820506f7373756d73206c6566740000000000000000006044820152606401610951565b601b821115610b535760405162461bcd60e51b815260206004820152601660248201527526b0bc10191b903832b9103a3930b739b0b1ba34b7b760511b6044820152606401610951565b60005b82811015610bab576000610b68611bc5565b604051909150819033907f904dcdc411e931497b95b06ddf8f8184815dd3bedc3c7c7cd4aed3ccd30783d890600090a35080610ba381613145565b915050610b56565b505050565b6000610bbb82611c70565b92915050565b606060008054610bd090613160565b80601f0160208091040260200160405190810160405280929190818152602001828054610bfc90613160565b8015610c495780601f10610c1e57610100808354040283529160200191610c49565b820191906000526020600020905b815481529060010190602001808311610c2c57829003601f168201915b5050505050905090565b6000610c5e82611c95565b610cbf5760405162461bcd60e51b815260206004820152602c60248201527f4552433732313a20617070726f76656420717565727920666f72206e6f6e657860448201526b34b9ba32b73a103a37b5b2b760a11b6064820152608401610951565b506000908152600460205260409020546001600160a01b031690565b6000610ce6826111f3565b9050806001600160a01b0316836001600160a01b03161415610d545760405162461bcd60e51b815260206004820152602160248201527f4552433732313a20617070726f76616c20746f2063757272656e74206f776e656044820152603960f91b6064820152608401610951565b336001600160a01b0382161480610d705750610d7081336108a0565b610de25760405162461bcd60e51b815260206004820152603860248201527f4552433732313a20617070726f76652063616c6c6572206973206e6f74206f7760448201527f6e6572206e6f7220617070726f76656420666f7220616c6c00000000000000006064820152608401610951565b610bab8383611cb2565b610df63382611d20565b610e125760405162461bcd60e51b815260040161095190613195565b610bab838383611e0a565b6000610e28836112f8565b8210610e8a5760405162461bcd60e51b815260206004820152602b60248201527f455243373231456e756d657261626c653a206f776e657220696e646578206f7560448201526a74206f6620626f756e647360a81b6064820152608401610951565b506001600160a01b03919091166000908152600860209081526040808320938352929052205490565b6007546001600160a01b03163314610edd5760405162461bcd60e51b8152600401610951906131e6565b610bab60138383612c74565b6007546001600160a01b03163314610f135760405162461bcd60e51b8152600401610951906131e6565b476000610f286007546001600160a01b031690565b6001600160a01b03168260405160006040518083038185875af1925050503d8060008114610f72576040519150601f19603f3d011682016040523d82523d6000602084013e610f77565b606091505b5050905080610fbf5760405162461bcd60e51b81526020600482015260146024820152732330b4b632b2103a379039b2b7321022ba3432b960611b6044820152606401610951565b5050565b6007546001600160a01b03163314610fed5760405162461bcd60e51b8152600401610951906131e6565b610ff5611fb5565b565b6007546001600160a01b031633146110215760405162461bcd60e51b8152600401610951906131e6565b60125460408051631332545760e11b815290516000926001600160a01b031691632664a8ae9160048083019260209291908290030181865afa15801561106b573d6000803e3d6000fd5b505050506040513d601f19601f8201168201806040525081019061108f919061321b565b905080156110ed5760405162461bcd60e51b815260206004820152602560248201527f596f752063616e206f6e6c79207072656d696e742074686520506f7373756d73604482015264206f6e636560d81b6064820152608401610951565b60005b600d54811015610fbf576111043382612048565b8061110e81613145565b9150506110f0565b610bab83838360405180602001604052806000815250611923565b6007546001600160a01b0316331461115b5760405162461bcd60e51b8152600401610951906131e6565b600e55565b600061116b600a5490565b82106111ce5760405162461bcd60e51b815260206004820152602c60248201527f455243373231456e756d657261626c653a20676c6f62616c20696e646578206f60448201526b7574206f6620626f756e647360a01b6064820152608401610951565b600a82815481106111e1576111e1613238565b90600052602060002001549050919050565b6000818152600260205260408120546001600160a01b031680610bbb5760405162461bcd60e51b815260206004820152602960248201527f4552433732313a206f776e657220717565727920666f72206e6f6e657869737460448201526832b73a103a37b5b2b760b91b6064820152608401610951565b6013805461127790613160565b80601f01602080910402602001604051908101604052809291908181526020018280546112a390613160565b80156112f05780601f106112c5576101008083540402835291602001916112f0565b820191906000526020600020905b8154815290600101906020018083116112d357829003601f168201915b505050505081565b60006001600160a01b0382166113635760405162461bcd60e51b815260206004820152602a60248201527f4552433732313a2062616c616e636520717565727920666f7220746865207a65604482015269726f206164647265737360b01b6064820152608401610951565b506001600160a01b031660009081526003602052604090205490565b6007546001600160a01b031633146113a95760405162461bcd60e51b8152600401610951906131e6565b610ff5600061217c565b6001600160a01b03811660009081526015602052604090205460609061141b5760405162461bcd60e51b815260206004820152601e60248201527f57616c6c657420686173206e6f20726573657276656420706f7373756d7300006044820152606401610951565b6001600160a01b03821660009081526015602052604090205467ffffffffffffffff81111561144c5761144c612fd4565b604051908082528060200260200182016040528015611475578160200160208202803683370190505b50905060005b6001600160a01b0383166000908152601560205260409020548110156114ff576001600160a01b03831660009081526015602052604090208054829081106114c5576114c5613238565b90600052602060002001548282815181106114e2576114e2613238565b6020908102919091010152806114f781613145565b91505061147b565b50919050565b6007546001600160a01b0316331461152f5760405162461bcd60e51b8152600401610951906131e6565b610ff56121ce565b60125460408051638481de5f60e01b815290516000926001600160a01b031691638481de5f9160048083019260209291908290030181865afa158015611581573d6000803e3d6000fd5b505050506040513d601f19601f820116820180604052508101906115a5919061324e565b905090565b606060018054610bd090613160565b610fbf338383612249565b6007546001600160a01b031633146115ee5760405162461bcd60e51b8152600401610951906131e6565b601280546001600160a01b0319166001600160a01b0392909216919091179055565b600e5415801590611622575042600e54105b6116625760405162461bcd60e51b8152602060048201526011602482015270596f752061726520746f6f206561726c7960781b6044820152606401610951565b600061166c6118d9565b33600090815260156020526040902054909150806116cc5760405162461bcd60e51b815260206004820152601c60248201527f796f752068617665206e6f20726573657276656420706f7373756d73000000006044820152606401610951565b428210806116de5750611b5860115410155b6116e757600080fd5b336000908152601460205260409020546036101561170457600080fd5b600080601260009054906101000a90046001600160a01b03166001600160a01b031663eb6ad24e6040518163ffffffff1660e01b8152600401602060405180830381865afa15801561175a573d6000803e3d6000fd5b505050506040513d601f19601f8201168201806040525081019061177e919061324e565b9050806117cd5760405162461bcd60e51b815260206004820152601f60248201527f506f7373756d73206e6f7420726561647920746f20626520636c61696d6564006044820152606401610951565b60005b8381101561187f573360009081526015602052604081208054849190849081106117fc576117fc613238565b9060005260206000200154611811919061312d565b90506118206001611b58613267565b81111561185e576001600d546118369190613267565b6118436001611b58613267565b61184d9083613267565b611857919061312d565b9350611862565b8093505b61186c3385612048565b508061187781613145565b9150506117d0565b5060005b838110156118d2573360009081526015602052604090208054806118a9576118a961327e565b6001900381819060005260206000200160009055905580806118ca90613145565b915050611883565b5050505050565b601254604080516344657d2760e11b815290516000926001600160a01b0316916388cafa4e9160048083019260209291908290030181865afa158015611581573d6000803e3d6000fd5b61192d3383611d20565b6119495760405162461bcd60e51b815260040161095190613195565b61195584848484612318565b50505050565b6007546001600160a01b031633146119855760405162461bcd60e51b8152600401610951906131e6565b6040516370a0823160e01b81523060048201526000906001600160a01b038416906370a0823190602401602060405180830381865afa1580156119cc573d6000803e3d6000fd5b505050506040513d601f19601f820116820180604052508101906119f0919061324e565b11611a4f5760405162461bcd60e51b815260206004820152602960248201527f7468697320636f6e747261637420646f6573206e6f7420636f6e7461696e20746044820152683434b9903a37b5b2b760b91b6064820152608401610951565b816001600160a01b031663a9059cbb611a706007546001600160a01b031690565b6040516001600160e01b031960e084901b1681526001600160a01b039091166004820152602481018490526044016020604051808303816000875af1158015611abd573d6000803e3d6000fd5b505050506040513d601f19601f82011682018060405250810190610bab919061321b565b6060610bbb8261234b565b6007546001600160a01b03163314611b165760405162461bcd60e51b8152600401610951906131e6565b600f55565b606060138054610bd090613160565b6007546001600160a01b03163314611b545760405162461bcd60e51b8152600401610951906131e6565b6001600160a01b038116611bb95760405162461bcd60e51b815260206004820152602660248201527f4f776e61626c653a206e6577206f776e657220697320746865207a65726f206160448201526564647265737360d01b6064820152608401610951565b611bc28161217c565b50565b6012546040805163c6410f7b60e01b815290516000926001600160a01b03169163c6410f7b916004808301926020929190829003018187875af1158015611c10573d6000803e3d6000fd5b505050506040513d601f19601f82011682018060405250810190611c34919061324e565b33600090815260156020908152604082208054600181018255908352908220018290556011805492935090611c6883613145565b919050555090565b60006001600160e01b0319821663780e9d6360e01b1480610bbb5750610bbb826124ad565b6000908152600260205260409020546001600160a01b0316151590565b600081815260046020526040902080546001600160a01b0319166001600160a01b0384169081179091558190611ce7826111f3565b6001600160a01b03167f8c5be1e5ebec7d5bd14f71427d1e84f3dd0314c0f7b2291e5b200ac8c7c3b92560405160405180910390a45050565b6000611d2b82611c95565b611d8c5760405162461bcd60e51b815260206004820152602c60248201527f4552433732313a206f70657261746f7220717565727920666f72206e6f6e657860448201526b34b9ba32b73a103a37b5b2b760a11b6064820152608401610951565b6000611d97836111f3565b9050806001600160a01b0316846001600160a01b03161480611dd25750836001600160a01b0316611dc784610c53565b6001600160a01b0316145b80611e0257506001600160a01b0380821660009081526005602090815260408083209388168352929052205460ff165b949350505050565b826001600160a01b0316611e1d826111f3565b6001600160a01b031614611e855760405162461bcd60e51b815260206004820152602960248201527f4552433732313a207472616e73666572206f6620746f6b656e2074686174206960448201526839903737ba1037bbb760b91b6064820152608401610951565b6001600160a01b038216611ee75760405162461bcd60e51b8152602060048201526024808201527f4552433732313a207472616e7366657220746f20746865207a65726f206164646044820152637265737360e01b6064820152608401610951565b611ef28383836124fd565b611efd600082611cb2565b6001600160a01b0383166000908152600360205260408120805460019290611f26908490613267565b90915550506001600160a01b0382166000908152600360205260408120805460019290611f5490849061312d565b909155505060008181526002602052604080822080546001600160a01b0319166001600160a01b0386811691821790925591518493918716917fddf252ad1be2c89b69c2b068fc378daa952ba7f163c4a11628f55a4df523b3ef91a4505050565b600c5460ff16611ffe5760405162461bcd60e51b815260206004820152601460248201527314185d5cd8589b194e881b9bdd081c185d5cd95960621b6044820152606401610951565b600c805460ff191690557f5db9ee0a495bf2e6ff9c91a7834c1ba4fdd244a5e8aa4e537bd38aeae4b073aa335b6040516001600160a01b03909116815260200160405180910390a1565b611b58601054111561209c5760405162461bcd60e51b815260206004820152601c60248201527f616c6c20506f7373756d732068617665206265656e206d696e746564000000006044820152606401610951565b6120a6828261254e565b61213a81601380546120b790613160565b80601f01602080910402602001604051908101604052809291908181526020018280546120e390613160565b80156121305780601f1061210557610100808354040283529160200191612130565b820191906000526020600020905b81548152906001019060200180831161211357829003601f168201915b5050505050612568565b6010805490600061214a83613145565b90915550506001600160a01b038216600090815260146020526040812080549161217383613145565b91905055505050565b600780546001600160a01b038381166001600160a01b0319831681179093556040519116919082907f8be0079c531659141344cd1fd0a4f28419497f9722a3daafe3b4186f6b6457e090600090a35050565b600c5460ff16156122145760405162461bcd60e51b815260206004820152601060248201526f14185d5cd8589b194e881c185d5cd95960821b6044820152606401610951565b600c805460ff191660011790557f62e78cea01bee320cd4e420270b5ea74000d11b0c9f74754ebdbfc544b05a25861202b3390565b816001600160a01b0316836001600160a01b031614156122ab5760405162461bcd60e51b815260206004820152601960248201527f4552433732313a20617070726f766520746f2063616c6c6572000000000000006044820152606401610951565b6001600160a01b03838116600081815260056020908152604080832094871680845294825291829020805460ff191686151590811790915591519182527f17307eab39ab6107e8899845ad3d59bd9653f200f220920489ca2b5937696c31910160405180910390a3505050565b612323848484611e0a565b61232f848484846125f3565b6119555760405162461bcd60e51b815260040161095190613294565b606061235682611c95565b6123bc5760405162461bcd60e51b815260206004820152603160248201527f45524337323155524953746f726167653a2055524920717565727920666f72206044820152703737b732bc34b9ba32b73a103a37b5b2b760791b6064820152608401610951565b600082815260066020526040812080546123d590613160565b80601f016020809104026020016040519081016040528092919081815260200182805461240190613160565b801561244e5780601f106124235761010080835404028352916020019161244e565b820191906000526020600020905b81548152906001019060200180831161243157829003601f168201915b50505050509050600061245f611b1b565b9050805160001415612472575092915050565b8151156124a457808260405160200161248c9291906132e6565b60405160208183030381529060405292505050919050565b611e02846126f1565b60006001600160e01b031982166380ac58cd60e01b14806124de57506001600160e01b03198216635b5e139f60e01b145b80610bbb57506301ffc9a760e01b6001600160e01b0319831614610bbb565b600c5460ff16156125435760405162461bcd60e51b815260206004820152601060248201526f14185d5cd8589b194e881c185d5cd95960821b6044820152606401610951565b610bab8383836127bc565b610fbf828260405180602001604052806000815250612874565b61257182611c95565b6125d45760405162461bcd60e51b815260206004820152602e60248201527f45524337323155524953746f726167653a2055524920736574206f66206e6f6e60448201526d32bc34b9ba32b73a103a37b5b2b760911b6064820152608401610951565b60008281526006602090815260409091208251610bab92840190612cf8565b60006001600160a01b0384163b156126e657604051630a85bd0160e11b81526001600160a01b0385169063150b7a0290612637903390899088908890600401613315565b6020604051808303816000875af1925050508015612672575060408051601f3d908101601f1916820190925261266f91810190613352565b60015b6126cc573d8080156126a0576040519150601f19603f3d011682016040523d82523d6000602084013e6126a5565b606091505b5080516126c45760405162461bcd60e51b815260040161095190613294565b805181602001fd5b6001600160e01b031916630a85bd0160e11b149050611e02565b506001949350505050565b60606126fc82611c95565b6127605760405162461bcd60e51b815260206004820152602f60248201527f4552433732314d657461646174613a2055524920717565727920666f72206e6f60448201526e3732bc34b9ba32b73a103a37b5b2b760891b6064820152608401610951565b600061276a611b1b565b9050600081511161278a57604051806020016040528060008152506127b5565b80612794846128a7565b6040516020016127a59291906132e6565b6040516020818303038152906040525b9392505050565b6001600160a01b0383166128175761281281600a80546000838152600b60205260408120829055600182018355919091527fc65a7bb8d6351c1cf70c95a316cc6a92839c986682d98bc35f958f4883f9d2a80155565b61283a565b816001600160a01b0316836001600160a01b03161461283a5761283a83826129a5565b6001600160a01b03821661285157610bab81612a42565b826001600160a01b0316826001600160a01b031614610bab57610bab8282612af1565b61287e8383612b35565b61288b60008484846125f3565b610bab5760405162461bcd60e51b815260040161095190613294565b6060816128cb5750506040805180820190915260018152600360fc1b602082015290565b8160005b81156128f557806128df81613145565b91506128ee9050600a83613385565b91506128cf565b60008167ffffffffffffffff81111561291057612910612fd4565b6040519080825280601f01601f19166020018201604052801561293a576020820181803683370190505b5090505b8415611e025761294f600183613267565b915061295c600a86613399565b61296790603061312d565b60f81b81838151811061297c5761297c613238565b60200101906001600160f81b031916908160001a90535061299e600a86613385565b945061293e565b600060016129b2846112f8565b6129bc9190613267565b600083815260096020526040902054909150808214612a0f576001600160a01b03841660009081526008602090815260408083208584528252808320548484528184208190558352600990915290208190555b5060009182526009602090815260408084208490556001600160a01b039094168352600881528383209183525290812055565b600a54600090612a5490600190613267565b6000838152600b6020526040812054600a8054939450909284908110612a7c57612a7c613238565b9060005260206000200154905080600a8381548110612a9d57612a9d613238565b6000918252602080832090910192909255828152600b9091526040808220849055858252812055600a805480612ad557612ad561327e565b6001900381819060005260206000200160009055905550505050565b6000612afc836112f8565b6001600160a01b039093166000908152600860209081526040808320868452825280832085905593825260099052919091209190915550565b6001600160a01b038216612b8b5760405162461bcd60e51b815260206004820181905260248201527f4552433732313a206d696e7420746f20746865207a65726f20616464726573736044820152606401610951565b612b9481611c95565b15612be15760405162461bcd60e51b815260206004820152601c60248201527f4552433732313a20746f6b656e20616c7265616479206d696e746564000000006044820152606401610951565b612bed600083836124fd565b6001600160a01b0382166000908152600360205260408120805460019290612c1690849061312d565b909155505060008181526002602052604080822080546001600160a01b0319166001600160a01b03861690811790915590518392907fddf252ad1be2c89b69c2b068fc378daa952ba7f163c4a11628f55a4df523b3ef908290a45050565b828054612c8090613160565b90600052602060002090601f016020900481019282612ca25760008555612ce8565b82601f10612cbb5782800160ff19823516178555612ce8565b82800160010185558215612ce8579182015b82811115612ce8578235825591602001919060010190612ccd565b50612cf4929150612d6c565b5090565b828054612d0490613160565b90600052602060002090601f016020900481019282612d265760008555612ce8565b82601f10612d3f57805160ff1916838001178555612ce8565b82800160010185558215612ce8579182015b82811115612ce8578251825591602001919060010190612d51565b5b80821115612cf45760008155600101612d6d565b600060208284031215612d9357600080fd5b5035919050565b6001600160e01b031981168114611bc257600080fd5b600060208284031215612dc257600080fd5b81356127b581612d9a565b60005b83811015612de8578181015183820152602001612dd0565b838111156119555750506000910152565b60008151808452612e11816020860160208601612dcd565b601f01601f19169290920160200192915050565b6020815260006127b56020830184612df9565b6001600160a01b0381168114611bc257600080fd5b60008060408385031215612e6057600080fd5b8235612e6b81612e38565b946020939093013593505050565b600080600060608486031215612e8e57600080fd5b8335612e9981612e38565b92506020840135612ea981612e38565b929592945050506040919091013590565b60008060208385031215612ecd57600080fd5b823567ffffffffffffffff80821115612ee557600080fd5b818501915085601f830112612ef957600080fd5b813581811115612f0857600080fd5b866020828501011115612f1a57600080fd5b60209290920196919550909350505050565b600060208284031215612f3e57600080fd5b81356127b581612e38565b6020808252825182820181905260009190848201906040850190845b81811015612f8157835183529284019291840191600101612f65565b50909695505050505050565b8015158114611bc257600080fd5b60008060408385031215612fae57600080fd5b8235612fb981612e38565b91506020830135612fc981612f8d565b809150509250929050565b634e487b7160e01b600052604160045260246000fd5b6000806000806080858703121561300057600080fd5b843561300b81612e38565b9350602085013561301b81612e38565b925060408501359150606085013567ffffffffffffffff8082111561303f57600080fd5b818701915087601f83011261305357600080fd5b81358181111561306557613065612fd4565b604051601f8201601f19908116603f0116810190838211818310171561308d5761308d612fd4565b816040528281528a60208487010111156130a657600080fd5b82602086016020830137600060208483010152809550505050505092959194509250565b600080604083850312156130dd57600080fd5b82356130e881612e38565b91506020830135612fc981612e38565b634e487b7160e01b600052601160045260246000fd5b6000816000190483118215151615613128576131286130f8565b500290565b60008219821115613140576131406130f8565b500190565b6000600019821415613159576131596130f8565b5060010190565b600181811c9082168061317457607f821691505b602082108114156114ff57634e487b7160e01b600052602260045260246000fd5b60208082526031908201527f4552433732313a207472616e736665722063616c6c6572206973206e6f74206f6040820152701ddb995c881b9bdc88185c1c1c9bdd9959607a1b606082015260800190565b6020808252818101527f4f776e61626c653a2063616c6c6572206973206e6f7420746865206f776e6572604082015260600190565b60006020828403121561322d57600080fd5b81516127b581612f8d565b634e487b7160e01b600052603260045260246000fd5b60006020828403121561326057600080fd5b5051919050565b600082821015613279576132796130f8565b500390565b634e487b7160e01b600052603160045260246000fd5b60208082526032908201527f4552433732313a207472616e7366657220746f206e6f6e20455243373231526560408201527131b2b4bb32b91034b6b83632b6b2b73a32b960711b606082015260800190565b600083516132f8818460208801612dcd565b83519083019061330c818360208801612dcd565b01949350505050565b6001600160a01b038581168252841660208201526040810183905260806060820181905260009061334890830184612df9565b9695505050505050565b60006020828403121561336457600080fd5b81516127b581612d9a565b634e487b7160e01b600052601260045260246000fd5b6000826133945761339461336f565b500490565b6000826133a8576133a861336f565b50069056fea2646970667358221220f5b4f4248c88145987e02d3a2acdedd30a935a1ae3defcd9c58427e088a0b94664736f6c634300080a0033",
  "linkReferences": {},
  "deployedLinkReferences": {}
}