{
  "_format": "hh-sol-artifact-1",
  "contractName": "TrashPossums",
  "sourceName": "contracts/TrashPossums.sol",
  "abi": [
    {
      "inputs": [
        {
          "internalType": "uint256",
          "name": "_possumPrice",
          "type": "uint256"
        },
        {
          "internalType": "uint256",
          "name": "_startMintDate",
          "type": "uint256"
        },
        {
          "internalType": "string",
          "name": "_baseUri",
          "type": "string"
        },
        {
          "internalType": "address",
          "name": "_VRFAddress",
          "type": "address"
        },
        {
          "internalType": "address",
          "name": "_linkToken",
          "type": "address"
        },
        {
          "internalType": "bytes32",
          "name": "_keyHash",
          "type": "bytes32"
        },
        {
          "internalType": "uint256",
          "name": "_fee",
          "type": "uint256"
        }
      ],
      "stateMutability": "nonpayable",
      "type": "constructor"
    },
    {
      "anonymous": false,
      "inputs": [
        {
          "indexed": true,
          "internalType": "address",
          "name": "owner",
          "type": "address"
        },
        {
          "indexed": true,
          "internalType": "address",
          "name": "approved",
          "type": "address"
        },
        {
          "indexed": true,
          "internalType": "uint256",
          "name": "tokenId",
          "type": "uint256"
        }
      ],
      "name": "Approval",
      "type": "event"
    },
    {
      "anonymous": false,
      "inputs": [
        {
          "indexed": true,
          "internalType": "address",
          "name": "owner",
          "type": "address"
        },
        {
          "indexed": true,
          "internalType": "address",
          "name": "operator",
          "type": "address"
        },
        {
          "indexed": false,
          "internalType": "bool",
          "name": "approved",
          "type": "bool"
        }
      ],
      "name": "ApprovalForAll",
      "type": "event"
    },
    {
      "anonymous": false,
      "inputs": [
        {
          "indexed": true,
          "internalType": "address",
          "name": "mintedTo",
          "type": "address"
        },
        {
          "indexed": true,
          "internalType": "uint256",
          "name": "tokenId",
          "type": "uint256"
        }
      ],
      "name": "Mint",
      "type": "event"
    },
    {
      "anonymous": false,
      "inputs": [
        {
          "indexed": true,
          "internalType": "address",
          "name": "previousOwner",
          "type": "address"
        },
        {
          "indexed": true,
          "internalType": "address",
          "name": "newOwner",
          "type": "address"
        }
      ],
      "name": "OwnershipTransferred",
      "type": "event"
    },
    {
      "anonymous": false,
      "inputs": [
        {
          "indexed": false,
          "internalType": "address",
          "name": "account",
          "type": "address"
        }
      ],
      "name": "Paused",
      "type": "event"
    },
    {
      "anonymous": false,
      "inputs": [
        {
          "indexed": true,
          "internalType": "address",
          "name": "from",
          "type": "address"
        },
        {
          "indexed": true,
          "internalType": "address",
          "name": "to",
          "type": "address"
        },
        {
          "indexed": true,
          "internalType": "uint256",
          "name": "tokenId",
          "type": "uint256"
        }
      ],
      "name": "Transfer",
      "type": "event"
    },
    {
      "anonymous": false,
      "inputs": [
        {
          "indexed": false,
          "internalType": "address",
          "name": "account",
          "type": "address"
        }
      ],
      "name": "Unpaused",
      "type": "event"
    },
    {
      "inputs": [
        {
          "internalType": "address",
          "name": "to",
          "type": "address"
        },
        {
          "internalType": "uint256",
          "name": "tokenId",
          "type": "uint256"
        }
      ],
      "name": "approve",
      "outputs": [],
      "stateMutability": "nonpayable",
      "type": "function"
    },
    {
      "inputs": [
        {
          "internalType": "address",
          "name": "addr1",
          "type": "address"
        }
      ],
      "name": "balanceOf",
      "outputs": [
        {
          "internalType": "uint256",
          "name": "",
          "type": "uint256"
        }
      ],
      "stateMutability": "view",
      "type": "function"
    },
    {
      "inputs": [],
      "name": "baseTokenURI",
      "outputs": [
        {
          "internalType": "string",
          "name": "",
          "type": "string"
        }
      ],
      "stateMutability": "view",
      "type": "function"
    },
    {
      "inputs": [
        {
          "internalType": "uint256",
          "name": "tokenId",
          "type": "uint256"
        }
      ],
      "name": "getApproved",
      "outputs": [
        {
          "internalType": "address",
          "name": "",
          "type": "address"
        }
      ],
      "stateMutability": "view",
      "type": "function"
    },
    {
      "inputs": [],
      "name": "getMintingStartDate",
      "outputs": [
        {
          "internalType": "uint256",
          "name": "",
          "type": "uint256"
        }
      ],
      "stateMutability": "view",
      "type": "function"
    },
    {
      "inputs": [],
      "name": "getNumberOfAvailablePossums",
      "outputs": [
        {
          "internalType": "uint256",
          "name": "",
          "type": "uint256"
        }
      ],
      "stateMutability": "view",
      "type": "function"
    },
    {
      "inputs": [],
      "name": "getpossumPrice",
      "outputs": [
        {
          "internalType": "uint256",
          "name": "",
          "type": "uint256"
        }
      ],
      "stateMutability": "view",
      "type": "function"
    },
    {
      "inputs": [
        {
          "internalType": "address",
          "name": "owner",
          "type": "address"
        },
        {
          "internalType": "address",
          "name": "operator",
          "type": "address"
        }
      ],
      "name": "isApprovedForAll",
      "outputs": [
        {
          "internalType": "bool",
          "name": "",
          "type": "bool"
        }
      ],
      "stateMutability": "view",
      "type": "function"
    },
    {
      "inputs": [],
      "name": "maxPossumsPerWallet",
      "outputs": [
        {
          "internalType": "uint256",
          "name": "",
          "type": "uint256"
        }
      ],
      "stateMutability": "view",
      "type": "function"
    },
    {
      "inputs": [
        {
          "internalType": "uint256",
          "name": "amount",
          "type": "uint256"
        }
      ],
      "name": "mintPossums",
      "outputs": [],
      "stateMutability": "payable",
      "type": "function"
    },
    {
      "inputs": [],
      "name": "name",
      "outputs": [
        {
          "internalType": "string",
          "name": "",
          "type": "string"
        }
      ],
      "stateMutability": "view",
      "type": "function"
    },
    {
      "inputs": [],
      "name": "owner",
      "outputs": [
        {
          "internalType": "address",
          "name": "",
          "type": "address"
        }
      ],
      "stateMutability": "view",
      "type": "function"
    },
    {
      "inputs": [
        {
          "internalType": "uint256",
          "name": "tokenId",
          "type": "uint256"
        }
      ],
      "name": "ownerOf",
      "outputs": [
        {
          "internalType": "address",
          "name": "",
          "type": "address"
        }
      ],
      "stateMutability": "view",
      "type": "function"
    },
    {
      "inputs": [],
      "name": "pause",
      "outputs": [],
      "stateMutability": "nonpayable",
      "type": "function"
    },
    {
      "inputs": [],
      "name": "paused",
      "outputs": [
        {
          "internalType": "bool",
          "name": "",
          "type": "bool"
        }
      ],
      "stateMutability": "view",
      "type": "function"
    },
    {
      "inputs": [],
      "name": "premintPossums",
      "outputs": [],
      "stateMutability": "nonpayable",
      "type": "function"
    },
    {
      "inputs": [
        {
          "internalType": "bytes32",
          "name": "requestId",
          "type": "bytes32"
        },
        {
          "internalType": "uint256",
          "name": "randomness",
          "type": "uint256"
        }
      ],
      "name": "rawFulfillRandomness",
      "outputs": [],
      "stateMutability": "nonpayable",
      "type": "function"
    },
    {
      "inputs": [],
      "name": "renounceOwnership",
      "outputs": [],
      "stateMutability": "nonpayable",
      "type": "function"
    },
    {
      "inputs": [
        {
          "internalType": "address",
          "name": "from",
          "type": "address"
        },
        {
          "internalType": "address",
          "name": "to",
          "type": "address"
        },
        {
          "internalType": "uint256",
          "name": "tokenId",
          "type": "uint256"
        }
      ],
      "name": "safeTransferFrom",
      "outputs": [],
      "stateMutability": "nonpayable",
      "type": "function"
    },
    {
      "inputs": [
        {
          "internalType": "address",
          "name": "from",
          "type": "address"
        },
        {
          "internalType": "address",
          "name": "to",
          "type": "address"
        },
        {
          "internalType": "uint256",
          "name": "tokenId",
          "type": "uint256"
        },
        {
          "internalType": "bytes",
          "name": "_data",
          "type": "bytes"
        }
      ],
      "name": "safeTransferFrom",
      "outputs": [],
      "stateMutability": "nonpayable",
      "type": "function"
    },
    {
      "inputs": [
        {
          "internalType": "address",
          "name": "operator",
          "type": "address"
        },
        {
          "internalType": "bool",
          "name": "approved",
          "type": "bool"
        }
      ],
      "name": "setApprovalForAll",
      "outputs": [],
      "stateMutability": "nonpayable",
      "type": "function"
    },
    {
      "inputs": [
        {
          "internalType": "string",
          "name": "_uri",
          "type": "string"
        }
      ],
      "name": "setBaseTokenURI",
      "outputs": [],
      "stateMutability": "nonpayable",
      "type": "function"
    },
    {
      "inputs": [
        {
          "internalType": "uint256",
          "name": "_possumPrice",
          "type": "uint256"
        }
      ],
      "name": "setPossumPrice",
      "outputs": [],
      "stateMutability": "nonpayable",
      "type": "function"
    },
    {
      "inputs": [
        {
          "internalType": "bytes4",
          "name": "interfaceId",
          "type": "bytes4"
        }
      ],
      "name": "supportsInterface",
      "outputs": [
        {
          "internalType": "bool",
          "name": "",
          "type": "bool"
        }
      ],
      "stateMutability": "view",
      "type": "function"
    },
    {
      "inputs": [],
      "name": "symbol",
      "outputs": [
        {
          "internalType": "string",
          "name": "",
          "type": "string"
        }
      ],
      "stateMutability": "view",
      "type": "function"
    },
    {
      "inputs": [
        {
          "internalType": "uint256",
          "name": "index",
          "type": "uint256"
        }
      ],
      "name": "tokenByIndex",
      "outputs": [
        {
          "internalType": "uint256",
          "name": "",
          "type": "uint256"
        }
      ],
      "stateMutability": "view",
      "type": "function"
    },
    {
      "inputs": [
        {
          "internalType": "address",
          "name": "owner",
          "type": "address"
        },
        {
          "internalType": "uint256",
          "name": "index",
          "type": "uint256"
        }
      ],
      "name": "tokenOfOwnerByIndex",
      "outputs": [
        {
          "internalType": "uint256",
          "name": "",
          "type": "uint256"
        }
      ],
      "stateMutability": "view",
      "type": "function"
    },
    {
      "inputs": [
        {
          "internalType": "uint256",
          "name": "tokenId",
          "type": "uint256"
        }
      ],
      "name": "tokenURI",
      "outputs": [
        {
          "internalType": "string",
          "name": "",
          "type": "string"
        }
      ],
      "stateMutability": "view",
      "type": "function"
    },
    {
      "inputs": [],
      "name": "totalPossums",
      "outputs": [
        {
          "internalType": "uint256",
          "name": "",
          "type": "uint256"
        }
      ],
      "stateMutability": "view",
      "type": "function"
    },
    {
      "inputs": [],
      "name": "totalSupply",
      "outputs": [
        {
          "internalType": "uint256",
          "name": "",
          "type": "uint256"
        }
      ],
      "stateMutability": "view",
      "type": "function"
    },
    {
      "inputs": [
        {
          "internalType": "address",
          "name": "from",
          "type": "address"
        },
        {
          "internalType": "address",
          "name": "to",
          "type": "address"
        },
        {
          "internalType": "uint256",
          "name": "tokenId",
          "type": "uint256"
        }
      ],
      "name": "transferFrom",
      "outputs": [],
      "stateMutability": "nonpayable",
      "type": "function"
    },
    {
      "inputs": [
        {
          "internalType": "address",
          "name": "newOwner",
          "type": "address"
        }
      ],
      "name": "transferOwnership",
      "outputs": [],
      "stateMutability": "nonpayable",
      "type": "function"
    },
    {
      "inputs": [],
      "name": "unpause",
      "outputs": [],
      "stateMutability": "nonpayable",
      "type": "function"
    },
    {
      "inputs": [],
      "name": "withdraw",
      "outputs": [],
      "stateMutability": "nonpayable",
      "type": "function"
    },
    {
      "stateMutability": "payable",
      "type": "receive"
    }
  ],
  "bytecode": "0x61271060c08181526204e2e06040529060e06204e200803683375050815162000030926015925060200190620001ac565b503480156200003e57600080fd5b50604051620035f1380380620035f18339810160408190526200006191620002ac565b604080518082018252600d81526c547261736820506f7373756d7360981b60208083019182528351808501909452600584526454504f535360d81b90840152815187938793929091620000b791600091620001fc565b508051620000cd906001906020840190620001fc565b5050600b805460ff1916905550620000e53362000152565b6001600160601b0319606092831b811660a052911b16608052600e879055600d86905584516200011d906011906020880190620001fc565b5060129190915560135550601980546001600160a01b0319166001600160a01b03929092169190911790555062000425915050565b600b80546001600160a01b03838116610100818102610100600160a81b031985161790945560405193909204169182907f8be0079c531659141344cd1fd0a4f28419497f9722a3daafe3b4186f6b6457e090600090a35050565b828054828255906000526020600020908101928215620001ea579160200282015b82811115620001ea578251825591602001919060010190620001cd565b50620001f892915062000278565b5090565b8280546200020a90620003d2565b90600052602060002090601f0160209004810192826200022e5760008555620001ea565b82601f106200024957805160ff1916838001178555620001ea565b82800160010185558215620001ea5791820182811115620001ea578251825591602001919060010190620001cd565b5b80821115620001f8576000815560010162000279565b80516001600160a01b0381168114620002a757600080fd5b919050565b600080600080600080600060e0888a031215620002c7578283fd5b87516020808a015160408b01519299509750906001600160401b0380821115620002ef578586fd5b818b0191508b601f83011262000303578586fd5b8151818111156200031857620003186200040f565b604051601f8201601f19908116603f011681019083821181831017156200034357620003436200040f565b816040528281528e868487010111156200035b578889fd5b8893505b828410156200037e57848401860151818501870152928501926200035f565b828411156200038f57888684830101525b809a50505050505050620003a6606089016200028f565b9350620003b6608089016200028f565b925060a0880151915060c0880151905092959891949750929550565b600181811c90821680620003e757607f821691505b602082108114156200040957634e487b7160e01b600052602260045260246000fd5b50919050565b634e487b7160e01b600052604160045260246000fd5b60805160601c60a05160601c6131926200045f6000396000818161100801526125110152600081816120e101526124e201526131926000f3fe6080604052600436106101fd5760003560e01c8063671099381161010d578063a22cb465116100a0578063d547cfb71161006f578063d547cfb714610570578063dca7728414610585578063e985e9c5146105a5578063ead17506146105ee578063f2fde38b1461060357600080fd5b8063a22cb465146104fb578063b59bb11e1461051b578063b88d4fde14610530578063c87b56dd1461055057600080fd5b80638456cb59116100dc5780638456cb591461048e5780638da5cb5b146104a357806394985ddd146104c657806395d89b41146104e657600080fd5b8063671099381461041b57806370a082311461042e578063715018a61461046457806384511aff1461047957600080fd5b80633ccfd60b116101905780634639dba31161015f5780634639dba3146103985780634f6ccce7146103ad5780635b46a8f2146103cd5780635c975abb146103e35780636352211e146103fb57600080fd5b80633ccfd60b146103395780633f4ba83a1461034e578063416c585d1461036357806342842e0e1461037857600080fd5b806318160ddd116101cc57806318160ddd146102ba57806323b872dd146102d95780632f745c59146102f957806330176e131461031957600080fd5b806301ffc9a71461020957806306fdde031461023e578063081812fc14610260578063095ea7b31461029857600080fd5b3661020457005b600080fd5b34801561021557600080fd5b50610229610224366004612d3a565b610623565b60405190151581526020015b60405180910390f35b34801561024a57600080fd5b50610253610634565b6040516102359190612eb0565b34801561026c57600080fd5b5061028061027b366004612db8565b6106c6565b6040516001600160a01b039091168152602001610235565b3480156102a457600080fd5b506102b86102b3366004612cd4565b610753565b005b3480156102c657600080fd5b50600f545b604051908152602001610235565b3480156102e557600080fd5b506102b86102f4366004612bea565b610869565b34801561030557600080fd5b506102cb610314366004612cd4565b61089a565b34801561032557600080fd5b506102b8610334366004612d72565b610930565b34801561034557600080fd5b506102b8610977565b34801561035a57600080fd5b506102b86109d6565b34801561036f57600080fd5b506102b8610a10565b34801561038457600080fd5b506102b8610393366004612bea565b610bb7565b3480156103a457600080fd5b50600e546102cb565b3480156103b957600080fd5b506102cb6103c8366004612db8565b610bd2565b3480156103d957600080fd5b506102cb61271081565b3480156103ef57600080fd5b50600b5460ff16610229565b34801561040757600080fd5b50610280610416366004612db8565b610c73565b6102b8610429366004612db8565b610cea565b34801561043a57600080fd5b506102cb610449366004612b9e565b6001600160a01b031660009081526014602052604090205490565b34801561047057600080fd5b506102b8610f8b565b34801561048557600080fd5b506102cb603681565b34801561049a57600080fd5b506102b8610fc5565b3480156104af57600080fd5b50600b5461010090046001600160a01b0316610280565b3480156104d257600080fd5b506102b86104e1366004612d19565b610ffd565b3480156104f257600080fd5b5061025361107f565b34801561050757600080fd5b506102b8610516366004612c9e565b61108e565b34801561052757600080fd5b506015546102cb565b34801561053c57600080fd5b506102b861054b366004612c25565b611099565b34801561055c57600080fd5b5061025361056b366004612db8565b6110d1565b34801561057c57600080fd5b506102536110dc565b34801561059157600080fd5b506102b86105a0366004612db8565b6110eb565b3480156105b157600080fd5b506102296105c0366004612bb8565b6001600160a01b03918216600090815260056020908152604080832093909416825291909152205460ff1690565b3480156105fa57600080fd5b50600d546102cb565b34801561060f57600080fd5b506102b861061e366004612b9e565b611120565b600061062e826111c1565b92915050565b6060600080546106439061308c565b80601f016020809104026020016040519081016040528092919081815260200182805461066f9061308c565b80156106bc5780601f10610691576101008083540402835291602001916106bc565b820191906000526020600020905b81548152906001019060200180831161069f57829003601f168201915b5050505050905090565b60006106d1826111e6565b6107375760405162461bcd60e51b815260206004820152602c60248201527f4552433732313a20617070726f76656420717565727920666f72206e6f6e657860448201526b34b9ba32b73a103a37b5b2b760a11b60648201526084015b60405180910390fd5b506000908152600460205260409020546001600160a01b031690565b600061075e82610c73565b9050806001600160a01b0316836001600160a01b031614156107cc5760405162461bcd60e51b815260206004820152602160248201527f4552433732313a20617070726f76616c20746f2063757272656e74206f776e656044820152603960f91b606482015260840161072e565b336001600160a01b03821614806107e857506107e881336105c0565b61085a5760405162461bcd60e51b815260206004820152603860248201527f4552433732313a20617070726f76652063616c6c6572206973206e6f74206f7760448201527f6e6572206e6f7220617070726f76656420666f7220616c6c0000000000000000606482015260840161072e565b6108648383611203565b505050565b6108733382611271565b61088f5760405162461bcd60e51b815260040161072e90612fcc565b61086483838361135b565b60006108a583611506565b82106109075760405162461bcd60e51b815260206004820152602b60248201527f455243373231456e756d657261626c653a206f776e657220696e646578206f7560448201526a74206f6620626f756e647360a81b606482015260840161072e565b506001600160a01b03919091166000908152600760209081526040808320938352929052205490565b600b546001600160a01b036101009091041633146109605760405162461bcd60e51b815260040161072e90612f97565b8051610973906011906020840190612a7c565b5050565b600b546001600160a01b036101009091041633146109a75760405162461bcd60e51b815260040161072e90612f97565b6040514790339082156108fc029083906000818181858888f19350505050158015610973573d6000803e3d6000fd5b600b546001600160a01b03610100909104163314610a065760405162461bcd60e51b815260040161072e90612f97565b610a0e61158d565b565b600b546001600160a01b03610100909104163314610a405760405162461bcd60e51b815260040161072e90612f97565b60105460ff1615610aa15760405162461bcd60e51b815260206004820152602560248201527f596f752063616e206f6e6c79207072656d696e742074686520506f7373756d73604482015264206f6e636560d81b606482015260840161072e565b60155460641115610af45760405162461bcd60e51b815260206004820152601d60248201527f4e6f20506f7373756d73206c65667420746f20626520636c61696d6564000000604482015260640161072e565b6064600f6000828254610b07919061301d565b90915550600090505b6064811015610ba757610b233382611620565b601554610b3290600190613049565b60158281548110610b5357634e487b7160e01b600052603260045260246000fd5b6000918252602090912001556015805480610b7e57634e487b7160e01b600052603160045260246000fd5b600190038181906000526020600020016000905590558080610b9f906130c7565b915050610b10565b506010805460ff19166001179055565b61086483838360405180602001604052806000815250611099565b6000610bdd60095490565b8210610c405760405162461bcd60e51b815260206004820152602c60248201527f455243373231456e756d657261626c653a20676c6f62616c20696e646578206f60448201526b7574206f6620626f756e647360a01b606482015260840161072e565b60098281548110610c6157634e487b7160e01b600052603260045260246000fd5b90600052602060002001549050919050565b6000818152600260205260408120546001600160a01b03168061062e5760405162461bcd60e51b815260206004820152602960248201527f4552433732313a206f776e657220717565727920666f72206e6f6e657869737460448201526832b73a103a37b5b2b760b91b606482015260840161072e565b323314610d525760405162461bcd60e51b815260206004820152603060248201527f5468652063616c6c65722063616e206f6e6c792062652061207573657220616e60448201526f19081b9bdd08184818dbdb9d1c9858dd60821b606482015260840161072e565b600d5415801590610d65575042600d5411155b610da55760405162461bcd60e51b8152602060048201526011602482015270596f752061726520746f6f206561726c7960781b604482015260640161072e565b60008111610df55760405162461bcd60e51b815260206004820152601b60248201527f6e65656420746f206d696e74206174206c656173742031204e46540000000000604482015260640161072e565b33600090815260146020526040902054603690610e1390839061301d565b1115610e615760405162461bcd60e51b815260206004820152601d60248201527f596f752063616e6e6f7420636c61696d206d6f726520706f7373756d73000000604482015260640161072e565b601554811115610eb35760405162461bcd60e51b815260206004820152601d60248201527f4e6f20506f7373756d73206c65667420746f20626520636c61696d6564000000604482015260640161072e565b601b811115610ef45760405162461bcd60e51b815260206004820152600d60248201526c09ac2f040646e40e0cae440e8f609b1b604482015260640161072e565b610f206040518060400160405280600a81526020016936b9b39739b2b73232b960b11b8152503361178a565b60005b81811015610973576000610f356117cf565b9050610f413382611620565b610f78604051806040016040528060138152602001726d696e74696e67203120706f7373756d20746f60681b815250333084611b4e565b5080610f83816130c7565b915050610f23565b600b546001600160a01b03610100909104163314610fbb5760405162461bcd60e51b815260040161072e90612f97565b610a0e6000611b97565b600b546001600160a01b03610100909104163314610ff55760405162461bcd60e51b815260040161072e90612f97565b610a0e611bf1565b336001600160a01b037f000000000000000000000000000000000000000000000000000000000000000016146110755760405162461bcd60e51b815260206004820152601f60248201527f4f6e6c7920565246436f6f7264696e61746f722063616e2066756c66696c6c00604482015260640161072e565b6109738282611c6c565b6060600180546106439061308c565b610973338383611cf2565b6110a33383611271565b6110bf5760405162461bcd60e51b815260040161072e90612fcc565b6110cb84848484611dc1565b50505050565b606061062e82611df4565b6060601180546106439061308c565b600b546001600160a01b0361010090910416331461111b5760405162461bcd60e51b815260040161072e90612f97565b600e55565b600b546001600160a01b036101009091041633146111505760405162461bcd60e51b815260040161072e90612f97565b6001600160a01b0381166111b55760405162461bcd60e51b815260206004820152602660248201527f4f776e61626c653a206e6577206f776e657220697320746865207a65726f206160448201526564647265737360d01b606482015260840161072e565b6111be81611b97565b50565b60006001600160e01b0319821663780e9d6360e01b148061062e575061062e82611f56565b6000908152600260205260409020546001600160a01b0316151590565b600081815260046020526040902080546001600160a01b0319166001600160a01b038416908117909155819061123882610c73565b6001600160a01b03167f8c5be1e5ebec7d5bd14f71427d1e84f3dd0314c0f7b2291e5b200ac8c7c3b92560405160405180910390a45050565b600061127c826111e6565b6112dd5760405162461bcd60e51b815260206004820152602c60248201527f4552433732313a206f70657261746f7220717565727920666f72206e6f6e657860448201526b34b9ba32b73a103a37b5b2b760a11b606482015260840161072e565b60006112e883610c73565b9050806001600160a01b0316846001600160a01b031614806113235750836001600160a01b0316611318846106c6565b6001600160a01b0316145b8061135357506001600160a01b0380821660009081526005602090815260408083209388168352929052205460ff165b949350505050565b826001600160a01b031661136e82610c73565b6001600160a01b0316146113d65760405162461bcd60e51b815260206004820152602960248201527f4552433732313a207472616e73666572206f6620746f6b656e2074686174206960448201526839903737ba1037bbb760b91b606482015260840161072e565b6001600160a01b0382166114385760405162461bcd60e51b8152602060048201526024808201527f4552433732313a207472616e7366657220746f20746865207a65726f206164646044820152637265737360e01b606482015260840161072e565b611443838383611fa6565b61144e600082611203565b6001600160a01b0383166000908152600360205260408120805460019290611477908490613049565b90915550506001600160a01b03821660009081526003602052604081208054600192906114a590849061301d565b909155505060008181526002602052604080822080546001600160a01b0319166001600160a01b0386811691821790925591518493918716917fddf252ad1be2c89b69c2b068fc378daa952ba7f163c4a11628f55a4df523b3ef91a4505050565b60006001600160a01b0382166115715760405162461bcd60e51b815260206004820152602a60248201527f4552433732313a2062616c616e636520717565727920666f7220746865207a65604482015269726f206164647265737360b01b606482015260840161072e565b506001600160a01b031660009081526003602052604090205490565b600b5460ff166115d65760405162461bcd60e51b815260206004820152601460248201527314185d5cd8589b194e881b9bdd081c185d5cd95960621b604482015260640161072e565b600b805460ff191690557f5db9ee0a495bf2e6ff9c91a7834c1ba4fdd244a5e8aa4e537bd38aeae4b073aa335b6040516001600160a01b03909116815260200160405180910390a1565b612710600f5411156116745760405162461bcd60e51b815260206004820152601c60248201527f616c6c20506f7373756d732068617665206265656e206d696e74656400000000604482015260640161072e565b61167e8282611ff7565b611712816011805461168f9061308c565b80601f01602080910402602001604051908101604052809291908181526020018280546116bb9061308c565b80156117085780601f106116dd57610100808354040283529160200191611708565b820191906000526020600020905b8154815290600101906020018083116116eb57829003601f168201915b5050505050612011565b600f8054906000611722836130c7565b90915550506001600160a01b038216600090815260146020526040812080549161174b836130c7565b909155505060405181906001600160a01b038416907f0f6798a560793a54c3bcfe86a93cde1e73087d944c0ea20544137d412139688590600090a35050565b61097382826040516024016117a0929190612ec3565b60408051601f198184030181529190526020810180516001600160e01b031663319af33360e01b17905261209c565b60006117d96120bd565b5060185460408051808201909152600d81526c3930b73237b690373ab6b132b960991b602082015261180b90826121d6565b6015818154811061182c57634e487b7160e01b600052603260045260246000fd5b9060005260206000200154600014801561187e57506015805461185190600190613049565b8154811061186f57634e487b7160e01b600052603260045260246000fd5b90600052602060002001546000145b156118fd57601554909150819061189790600190613049565b601582815481106118b857634e487b7160e01b600052603260045260246000fd5b60009182526020909120015560158054806118e357634e487b7160e01b600052603160045260246000fd5b600190038181906000526020600020016000905590555090565b6015818154811061191e57634e487b7160e01b600052603260045260246000fd5b906000526020600020015460001415801561197157506015805461194490600190613049565b8154811061196257634e487b7160e01b600052603260045260246000fd5b90600052602060002001546000145b156119b6576015818154811061199757634e487b7160e01b600052603260045260246000fd5b9060005260206000200154915060016015805490506118979190613049565b601581815481106119d757634e487b7160e01b600052603260045260246000fd5b9060005260206000200154600014158015611a2b5750601580546119fd90600190613049565b81548110611a1b57634e487b7160e01b600052603260045260246000fd5b9060005260206000200154600014155b15611abc5760158181548110611a5157634e487b7160e01b600052603260045260246000fd5b9060005260206000200154915060156001601580549050611a729190613049565b81548110611a9057634e487b7160e01b600052603260045260246000fd5b9060005260206000200154601582815481106118b857634e487b7160e01b600052603260045260246000fd5b60158181548110611add57634e487b7160e01b600052603260045260246000fd5b90600052602060002001546000148015611b30575060158054611b0290600190613049565b81548110611b2057634e487b7160e01b600052603260045260246000fd5b9060005260206000200154600014155b15611b4a57601580549192508291611a7290600190613049565b5090565b6110cb84848484604051602401611b689493929190612eed565b60408051601f198184030181529190526020810180516001600160e01b0316636eb7943d60e01b17905261209c565b600b80546001600160a01b03838116610100818102610100600160a81b031985161790945560405193909204169182907f8be0079c531659141344cd1fd0a4f28419497f9722a3daafe3b4186f6b6457e090600090a35050565b600b5460ff1615611c375760405162461bcd60e51b815260206004820152601060248201526f14185d5cd8589b194e881c185d5cd95960821b604482015260640161072e565b600b805460ff191660011790557f62e78cea01bee320cd4e420270b5ea74000d11b0c9f74754ebdbfc544b05a2586116033390565b6019546001600160a01b031633148015611c8557508115155b611cd15760405162461bcd60e51b815260206004820181905260248201527f6f6e6c792056524620436f6f7264696e61746f722063616e2066756c66696c6c604482015260640161072e565b601554600190611ce190836130e2565b611ceb9190613049565b6018555050565b816001600160a01b0316836001600160a01b03161415611d545760405162461bcd60e51b815260206004820152601960248201527f4552433732313a20617070726f766520746f2063616c6c657200000000000000604482015260640161072e565b6001600160a01b03838116600081815260056020908152604080832094871680845294825291829020805460ff191686151590811790915591519182527f17307eab39ab6107e8899845ad3d59bd9653f200f220920489ca2b5937696c31910160405180910390a3505050565b611dcc84848461135b565b611dd88484848461221b565b6110cb5760405162461bcd60e51b815260040161072e90612f45565b6060611dff826111e6565b611e655760405162461bcd60e51b815260206004820152603160248201527f45524337323155524953746f726167653a2055524920717565727920666f72206044820152703737b732bc34b9ba32b73a103a37b5b2b760791b606482015260840161072e565b60008281526006602052604081208054611e7e9061308c565b80601f0160208091040260200160405190810160405280929190818152602001828054611eaa9061308c565b8015611ef75780601f10611ecc57610100808354040283529160200191611ef7565b820191906000526020600020905b815481529060010190602001808311611eda57829003601f168201915b505050505090506000611f086110dc565b9050805160001415611f1b575092915050565b815115611f4d578082604051602001611f35929190612e14565b60405160208183030381529060405292505050919050565b61135384612328565b60006001600160e01b031982166380ac58cd60e01b1480611f8757506001600160e01b03198216635b5e139f60e01b145b8061062e57506301ffc9a760e01b6001600160e01b031983161461062e565b600b5460ff1615611fec5760405162461bcd60e51b815260206004820152601060248201526f14185d5cd8589b194e881c185d5cd95960821b604482015260640161072e565b6108648383836123f3565b6109738282604051806020016040528060008152506124ab565b61201a826111e6565b61207d5760405162461bcd60e51b815260206004820152602e60248201527f45524337323155524953746f726167653a2055524920736574206f66206e6f6e60448201526d32bc34b9ba32b73a103a37b5b2b760911b606482015260840161072e565b6000828152600660209081526040909120825161086492840190612a7c565b80516a636f6e736f6c652e6c6f67602083016000808483855afa5050505050565b6013546040516370a0823160e01b8152306004820152600091906001600160a01b037f000000000000000000000000000000000000000000000000000000000000000016906370a082319060240160206040518083038186803b15801561212357600080fd5b505afa158015612137573d6000803e3d6000fd5b505050506040513d601f19601f8201168201806040525081019061215b9190612dd0565b10156121c35760405162461bcd60e51b815260206004820152603160248201527f4e6f7420656e6f756768204c696e6b2020696e20636f6e747261637420746f2060448201527033b2ba103930b73237b690373ab6b132b960791b606482015260840161072e565b6121d16012546013546124de565b905090565b61097382826040516024016121ec929190612f23565b60408051601f198184030181529190526020810180516001600160e01b03166309710a9d60e41b17905261209c565b60006001600160a01b0384163b1561231d57604051630a85bd0160e11b81526001600160a01b0385169063150b7a029061225f903390899088908890600401612e43565b602060405180830381600087803b15801561227957600080fd5b505af19250505080156122a9575060408051601f3d908101601f191682019092526122a691810190612d56565b60015b612303573d8080156122d7576040519150601f19603f3d011682016040523d82523d6000602084013e6122dc565b606091505b5080516122fb5760405162461bcd60e51b815260040161072e90612f45565b805181602001fd5b6001600160e01b031916630a85bd0160e11b149050611353565b506001949350505050565b6060612333826111e6565b6123975760405162461bcd60e51b815260206004820152602f60248201527f4552433732314d657461646174613a2055524920717565727920666f72206e6f60448201526e3732bc34b9ba32b73a103a37b5b2b760891b606482015260840161072e565b60006123a16110dc565b905060008151116123c157604051806020016040528060008152506123ec565b806123cb84612669565b6040516020016123dc929190612e14565b6040516020818303038152906040525b9392505050565b6001600160a01b03831661244e5761244981600980546000838152600a60205260408120829055600182018355919091527f6e1540171b6c0c960b71a7020d9f60077f6af931a8bbf590da0223dacf75c7af0155565b612471565b816001600160a01b0316836001600160a01b031614612471576124718382612783565b6001600160a01b0382166124885761086481612820565b826001600160a01b0316826001600160a01b0316146108645761086482826128f9565b6124b5838361293d565b6124c2600084848461221b565b6108645760405162461bcd60e51b815260040161072e90612f45565b60007f00000000000000000000000000000000000000000000000000000000000000006001600160a01b0316634000aea07f00000000000000000000000000000000000000000000000000000000000000008486600060405160200161254e929190918252602082015260400190565b6040516020818303038152906040526040518463ffffffff1660e01b815260040161257b93929190612e80565b602060405180830381600087803b15801561259557600080fd5b505af11580156125a9573d6000803e3d6000fd5b505050506040513d601f19601f820116820180604052508101906125cd9190612cfd565b506000838152600c6020818152604080842054815180840189905280830186905230606082015260808082018390528351808303909101815260a09091019092528151918301919091209387905291905261262990600161301d565b6000858152600c60205260409020556113538482604080516020808201949094528082019290925280518083038201815260609092019052805191012090565b60608161268d5750506040805180820190915260018152600360fc1b602082015290565b8160005b81156126b757806126a1816130c7565b91506126b09050600a83613035565b9150612691565b60008167ffffffffffffffff8111156126e057634e487b7160e01b600052604160045260246000fd5b6040519080825280601f01601f19166020018201604052801561270a576020820181803683370190505b5090505b84156113535761271f600183613049565b915061272c600a866130e2565b61273790603061301d565b60f81b81838151811061275a57634e487b7160e01b600052603260045260246000fd5b60200101906001600160f81b031916908160001a90535061277c600a86613035565b945061270e565b6000600161279084611506565b61279a9190613049565b6000838152600860205260409020549091508082146127ed576001600160a01b03841660009081526007602090815260408083208584528252808320548484528184208190558352600890915290208190555b5060009182526008602090815260408084208490556001600160a01b039094168352600781528383209183525290812055565b60095460009061283290600190613049565b6000838152600a60205260408120546009805493945090928490811061286857634e487b7160e01b600052603260045260246000fd5b90600052602060002001549050806009838154811061289757634e487b7160e01b600052603260045260246000fd5b6000918252602080832090910192909255828152600a909152604080822084905585825281205560098054806128dd57634e487b7160e01b600052603160045260246000fd5b6001900381819060005260206000200160009055905550505050565b600061290483611506565b6001600160a01b039093166000908152600760209081526040808320868452825280832085905593825260089052919091209190915550565b6001600160a01b0382166129935760405162461bcd60e51b815260206004820181905260248201527f4552433732313a206d696e7420746f20746865207a65726f2061646472657373604482015260640161072e565b61299c816111e6565b156129e95760405162461bcd60e51b815260206004820152601c60248201527f4552433732313a20746f6b656e20616c7265616479206d696e74656400000000604482015260640161072e565b6129f560008383611fa6565b6001600160a01b0382166000908152600360205260408120805460019290612a1e90849061301d565b909155505060008181526002602052604080822080546001600160a01b0319166001600160a01b03861690811790915590518392907fddf252ad1be2c89b69c2b068fc378daa952ba7f163c4a11628f55a4df523b3ef908290a45050565b828054612a889061308c565b90600052602060002090601f016020900481019282612aaa5760008555612af0565b82601f10612ac357805160ff1916838001178555612af0565b82800160010185558215612af0579182015b82811115612af0578251825591602001919060010190612ad5565b50611b4a9291505b80821115611b4a5760008155600101612af8565b600067ffffffffffffffff80841115612b2757612b27613122565b604051601f8501601f19908116603f01168101908282118183101715612b4f57612b4f613122565b81604052809350858152868686011115612b6857600080fd5b858560208301376000602087830101525050509392505050565b80356001600160a01b0381168114612b9957600080fd5b919050565b600060208284031215612baf578081fd5b6123ec82612b82565b60008060408385031215612bca578081fd5b612bd383612b82565b9150612be160208401612b82565b90509250929050565b600080600060608486031215612bfe578081fd5b612c0784612b82565b9250612c1560208501612b82565b9150604084013590509250925092565b60008060008060808587031215612c3a578081fd5b612c4385612b82565b9350612c5160208601612b82565b925060408501359150606085013567ffffffffffffffff811115612c73578182fd5b8501601f81018713612c83578182fd5b612c9287823560208401612b0c565b91505092959194509250565b60008060408385031215612cb0578182fd5b612cb983612b82565b91506020830135612cc981613138565b809150509250929050565b60008060408385031215612ce6578182fd5b612cef83612b82565b946020939093013593505050565b600060208284031215612d0e578081fd5b81516123ec81613138565b60008060408385031215612d2b578182fd5b50508035926020909101359150565b600060208284031215612d4b578081fd5b81356123ec81613146565b600060208284031215612d67578081fd5b81516123ec81613146565b600060208284031215612d83578081fd5b813567ffffffffffffffff811115612d99578182fd5b8201601f81018413612da9578182fd5b61135384823560208401612b0c565b600060208284031215612dc9578081fd5b5035919050565b600060208284031215612de1578081fd5b5051919050565b60008151808452612e00816020860160208601613060565b601f01601f19169290920160200192915050565b60008351612e26818460208801613060565b835190830190612e3a818360208801613060565b01949350505050565b6001600160a01b0385811682528416602082015260408101839052608060608201819052600090612e7690830184612de8565b9695505050505050565b60018060a01b0384168152826020820152606060408201526000612ea76060830184612de8565b95945050505050565b6020815260006123ec6020830184612de8565b604081526000612ed66040830185612de8565b905060018060a01b03831660208301529392505050565b608081526000612f006080830187612de8565b6001600160a01b0395861660208401529390941660408201526060015292915050565b604081526000612f366040830185612de8565b90508260208301529392505050565b60208082526032908201527f4552433732313a207472616e7366657220746f206e6f6e20455243373231526560408201527131b2b4bb32b91034b6b83632b6b2b73a32b960711b606082015260800190565b6020808252818101527f4f776e61626c653a2063616c6c6572206973206e6f7420746865206f776e6572604082015260600190565b60208082526031908201527f4552433732313a207472616e736665722063616c6c6572206973206e6f74206f6040820152701ddb995c881b9bdc88185c1c1c9bdd9959607a1b606082015260800190565b60008219821115613030576130306130f6565b500190565b6000826130445761304461310c565b500490565b60008282101561305b5761305b6130f6565b500390565b60005b8381101561307b578181015183820152602001613063565b838111156110cb5750506000910152565b600181811c908216806130a057607f821691505b602082108114156130c157634e487b7160e01b600052602260045260246000fd5b50919050565b60006000198214156130db576130db6130f6565b5060010190565b6000826130f1576130f161310c565b500690565b634e487b7160e01b600052601160045260246000fd5b634e487b7160e01b600052601260045260246000fd5b634e487b7160e01b600052604160045260246000fd5b80151581146111be57600080fd5b6001600160e01b0319811681146111be57600080fdfea26469706673582212208a56cad13b36ab514c9ae432b16a0c0adf0dff29ba2a164de6b09a4ffdbbf6cf64736f6c63430008040033",
  "linkReferences": {},
  "deployedLinkReferences": {}
}