{
  "_format": "hh-sol-artifact-1",
  "contractName": "TrashPossums",
  "sourceName": "contracts/TrashPossums.sol",
  "abi": [
    {
      "inputs": [
        {
          "internalType": "uint256",
          "name": "_possumPrice",
          "type": "uint256"
        },
        {
          "internalType": "uint256",
          "name": "_startMintDate",
          "type": "uint256"
        },
        {
          "internalType": "string",
          "name": "_baseUri",
          "type": "string"
        },
        {
          "internalType": "address",
          "name": "_randomness",
          "type": "address"
        }
      ],
      "stateMutability": "nonpayable",
      "type": "constructor"
    },
    {
      "anonymous": false,
      "inputs": [
        {
          "indexed": true,
          "internalType": "address",
          "name": "owner",
          "type": "address"
        },
        {
          "indexed": true,
          "internalType": "address",
          "name": "approved",
          "type": "address"
        },
        {
          "indexed": true,
          "internalType": "uint256",
          "name": "tokenId",
          "type": "uint256"
        }
      ],
      "name": "Approval",
      "type": "event"
    },
    {
      "anonymous": false,
      "inputs": [
        {
          "indexed": true,
          "internalType": "address",
          "name": "owner",
          "type": "address"
        },
        {
          "indexed": true,
          "internalType": "address",
          "name": "operator",
          "type": "address"
        },
        {
          "indexed": false,
          "internalType": "bool",
          "name": "approved",
          "type": "bool"
        }
      ],
      "name": "ApprovalForAll",
      "type": "event"
    },
    {
      "anonymous": false,
      "inputs": [
        {
          "indexed": true,
          "internalType": "address",
          "name": "previousOwner",
          "type": "address"
        },
        {
          "indexed": true,
          "internalType": "address",
          "name": "newOwner",
          "type": "address"
        }
      ],
      "name": "OwnershipTransferred",
      "type": "event"
    },
    {
      "anonymous": false,
      "inputs": [
        {
          "indexed": false,
          "internalType": "address",
          "name": "account",
          "type": "address"
        }
      ],
      "name": "Paused",
      "type": "event"
    },
    {
      "anonymous": false,
      "inputs": [
        {
          "indexed": true,
          "internalType": "address",
          "name": "to",
          "type": "address"
        },
        {
          "indexed": true,
          "internalType": "uint256",
          "name": "tokenId",
          "type": "uint256"
        }
      ],
      "name": "Reserved",
      "type": "event"
    },
    {
      "anonymous": false,
      "inputs": [
        {
          "indexed": true,
          "internalType": "address",
          "name": "from",
          "type": "address"
        },
        {
          "indexed": true,
          "internalType": "address",
          "name": "to",
          "type": "address"
        },
        {
          "indexed": true,
          "internalType": "uint256",
          "name": "tokenId",
          "type": "uint256"
        }
      ],
      "name": "Transfer",
      "type": "event"
    },
    {
      "anonymous": false,
      "inputs": [
        {
          "indexed": false,
          "internalType": "address",
          "name": "account",
          "type": "address"
        }
      ],
      "name": "Unpaused",
      "type": "event"
    },
    {
      "inputs": [
        {
          "internalType": "address",
          "name": "to",
          "type": "address"
        },
        {
          "internalType": "uint256",
          "name": "tokenId",
          "type": "uint256"
        }
      ],
      "name": "approve",
      "outputs": [],
      "stateMutability": "nonpayable",
      "type": "function"
    },
    {
      "inputs": [
        {
          "internalType": "address",
          "name": "owner",
          "type": "address"
        }
      ],
      "name": "balanceOf",
      "outputs": [
        {
          "internalType": "uint256",
          "name": "",
          "type": "uint256"
        }
      ],
      "stateMutability": "view",
      "type": "function"
    },
    {
      "inputs": [],
      "name": "baseTokenURI",
      "outputs": [
        {
          "internalType": "string",
          "name": "",
          "type": "string"
        }
      ],
      "stateMutability": "view",
      "type": "function"
    },
    {
      "inputs": [],
      "name": "baseURI",
      "outputs": [
        {
          "internalType": "string",
          "name": "",
          "type": "string"
        }
      ],
      "stateMutability": "view",
      "type": "function"
    },
    {
      "inputs": [],
      "name": "claimPossums",
      "outputs": [],
      "stateMutability": "payable",
      "type": "function"
    },
    {
      "inputs": [
        {
          "internalType": "uint256",
          "name": "tokenId",
          "type": "uint256"
        }
      ],
      "name": "getApproved",
      "outputs": [
        {
          "internalType": "address",
          "name": "",
          "type": "address"
        }
      ],
      "stateMutability": "view",
      "type": "function"
    },
    {
      "inputs": [],
      "name": "getAvailablePossums",
      "outputs": [
        {
          "internalType": "uint256",
          "name": "",
          "type": "uint256"
        }
      ],
      "stateMutability": "view",
      "type": "function"
    },
    {
      "inputs": [],
      "name": "getBalance",
      "outputs": [
        {
          "internalType": "uint256",
          "name": "",
          "type": "uint256"
        }
      ],
      "stateMutability": "view",
      "type": "function"
    },
    {
      "inputs": [],
      "name": "getClaimDate",
      "outputs": [
        {
          "internalType": "uint256",
          "name": "",
          "type": "uint256"
        }
      ],
      "stateMutability": "view",
      "type": "function"
    },
    {
      "inputs": [],
      "name": "getMintingStartDate",
      "outputs": [
        {
          "internalType": "uint256",
          "name": "",
          "type": "uint256"
        }
      ],
      "stateMutability": "view",
      "type": "function"
    },
    {
      "inputs": [],
      "name": "getNumberOfReservedPossums",
      "outputs": [
        {
          "internalType": "uint256",
          "name": "",
          "type": "uint256"
        }
      ],
      "stateMutability": "view",
      "type": "function"
    },
    {
      "inputs": [],
      "name": "getPossumPrice",
      "outputs": [
        {
          "internalType": "uint256",
          "name": "",
          "type": "uint256"
        }
      ],
      "stateMutability": "view",
      "type": "function"
    },
    {
      "inputs": [
        {
          "internalType": "address",
          "name": "_wallet",
          "type": "address"
        }
      ],
      "name": "getReservedPossumIds",
      "outputs": [
        {
          "internalType": "uint256[]",
          "name": "reservedIds",
          "type": "uint256[]"
        }
      ],
      "stateMutability": "view",
      "type": "function"
    },
    {
      "inputs": [
        {
          "internalType": "address",
          "name": "_wallet",
          "type": "address"
        }
      ],
      "name": "getReservedPossumsPerWallet",
      "outputs": [
        {
          "internalType": "uint256",
          "name": "",
          "type": "uint256"
        }
      ],
      "stateMutability": "view",
      "type": "function"
    },
    {
      "inputs": [],
      "name": "getTotalMintedPossums",
      "outputs": [
        {
          "internalType": "uint256",
          "name": "",
          "type": "uint256"
        }
      ],
      "stateMutability": "view",
      "type": "function"
    },
    {
      "inputs": [],
      "name": "getTotalPossums",
      "outputs": [
        {
          "internalType": "uint256",
          "name": "",
          "type": "uint256"
        }
      ],
      "stateMutability": "pure",
      "type": "function"
    },
    {
      "inputs": [
        {
          "internalType": "address",
          "name": "owner",
          "type": "address"
        },
        {
          "internalType": "address",
          "name": "operator",
          "type": "address"
        }
      ],
      "name": "isApprovedForAll",
      "outputs": [
        {
          "internalType": "bool",
          "name": "",
          "type": "bool"
        }
      ],
      "stateMutability": "view",
      "type": "function"
    },
    {
      "inputs": [],
      "name": "maxPossumsPerWallet",
      "outputs": [
        {
          "internalType": "uint256",
          "name": "",
          "type": "uint256"
        }
      ],
      "stateMutability": "view",
      "type": "function"
    },
    {
      "inputs": [],
      "name": "name",
      "outputs": [
        {
          "internalType": "string",
          "name": "",
          "type": "string"
        }
      ],
      "stateMutability": "view",
      "type": "function"
    },
    {
      "inputs": [],
      "name": "numberOfReservedPossums",
      "outputs": [
        {
          "internalType": "uint256",
          "name": "",
          "type": "uint256"
        }
      ],
      "stateMutability": "view",
      "type": "function"
    },
    {
      "inputs": [],
      "name": "owner",
      "outputs": [
        {
          "internalType": "address",
          "name": "",
          "type": "address"
        }
      ],
      "stateMutability": "view",
      "type": "function"
    },
    {
      "inputs": [
        {
          "internalType": "uint256",
          "name": "tokenId",
          "type": "uint256"
        }
      ],
      "name": "ownerOf",
      "outputs": [
        {
          "internalType": "address",
          "name": "",
          "type": "address"
        }
      ],
      "stateMutability": "view",
      "type": "function"
    },
    {
      "inputs": [],
      "name": "pause",
      "outputs": [],
      "stateMutability": "nonpayable",
      "type": "function"
    },
    {
      "inputs": [],
      "name": "paused",
      "outputs": [
        {
          "internalType": "bool",
          "name": "",
          "type": "bool"
        }
      ],
      "stateMutability": "view",
      "type": "function"
    },
    {
      "inputs": [],
      "name": "possumPrice",
      "outputs": [
        {
          "internalType": "uint256",
          "name": "",
          "type": "uint256"
        }
      ],
      "stateMutability": "view",
      "type": "function"
    },
    {
      "inputs": [],
      "name": "premintPossums",
      "outputs": [],
      "stateMutability": "nonpayable",
      "type": "function"
    },
    {
      "inputs": [],
      "name": "randomness",
      "outputs": [
        {
          "internalType": "address",
          "name": "",
          "type": "address"
        }
      ],
      "stateMutability": "view",
      "type": "function"
    },
    {
      "inputs": [],
      "name": "renounceOwnership",
      "outputs": [],
      "stateMutability": "nonpayable",
      "type": "function"
    },
    {
      "inputs": [
        {
          "internalType": "uint256",
          "name": "amount",
          "type": "uint256"
        }
      ],
      "name": "reservePossums",
      "outputs": [],
      "stateMutability": "payable",
      "type": "function"
    },
    {
      "inputs": [
        {
          "internalType": "address",
          "name": "from",
          "type": "address"
        },
        {
          "internalType": "address",
          "name": "to",
          "type": "address"
        },
        {
          "internalType": "uint256",
          "name": "tokenId",
          "type": "uint256"
        }
      ],
      "name": "safeTransferFrom",
      "outputs": [],
      "stateMutability": "nonpayable",
      "type": "function"
    },
    {
      "inputs": [
        {
          "internalType": "address",
          "name": "from",
          "type": "address"
        },
        {
          "internalType": "address",
          "name": "to",
          "type": "address"
        },
        {
          "internalType": "uint256",
          "name": "tokenId",
          "type": "uint256"
        },
        {
          "internalType": "bytes",
          "name": "_data",
          "type": "bytes"
        }
      ],
      "name": "safeTransferFrom",
      "outputs": [],
      "stateMutability": "nonpayable",
      "type": "function"
    },
    {
      "inputs": [
        {
          "internalType": "address",
          "name": "operator",
          "type": "address"
        },
        {
          "internalType": "bool",
          "name": "approved",
          "type": "bool"
        }
      ],
      "name": "setApprovalForAll",
      "outputs": [],
      "stateMutability": "nonpayable",
      "type": "function"
    },
    {
      "inputs": [
        {
          "internalType": "string",
          "name": "_tokenURI",
          "type": "string"
        }
      ],
      "name": "setBaseTokenURI",
      "outputs": [],
      "stateMutability": "nonpayable",
      "type": "function"
    },
    {
      "inputs": [
        {
          "internalType": "uint256",
          "name": "_possumPrice",
          "type": "uint256"
        }
      ],
      "name": "setPossumPrice",
      "outputs": [],
      "stateMutability": "nonpayable",
      "type": "function"
    },
    {
      "inputs": [
        {
          "internalType": "address",
          "name": "_randomness",
          "type": "address"
        }
      ],
      "name": "setRandomness",
      "outputs": [],
      "stateMutability": "nonpayable",
      "type": "function"
    },
    {
      "inputs": [
        {
          "internalType": "uint256",
          "name": "_startMintDate",
          "type": "uint256"
        }
      ],
      "name": "setStartMintDate",
      "outputs": [],
      "stateMutability": "nonpayable",
      "type": "function"
    },
    {
      "inputs": [],
      "name": "startMintDate",
      "outputs": [
        {
          "internalType": "uint256",
          "name": "",
          "type": "uint256"
        }
      ],
      "stateMutability": "view",
      "type": "function"
    },
    {
      "inputs": [
        {
          "internalType": "bytes4",
          "name": "interfaceId",
          "type": "bytes4"
        }
      ],
      "name": "supportsInterface",
      "outputs": [
        {
          "internalType": "bool",
          "name": "",
          "type": "bool"
        }
      ],
      "stateMutability": "view",
      "type": "function"
    },
    {
      "inputs": [],
      "name": "symbol",
      "outputs": [
        {
          "internalType": "string",
          "name": "",
          "type": "string"
        }
      ],
      "stateMutability": "view",
      "type": "function"
    },
    {
      "inputs": [
        {
          "internalType": "uint256",
          "name": "index",
          "type": "uint256"
        }
      ],
      "name": "tokenByIndex",
      "outputs": [
        {
          "internalType": "uint256",
          "name": "",
          "type": "uint256"
        }
      ],
      "stateMutability": "view",
      "type": "function"
    },
    {
      "inputs": [
        {
          "internalType": "address",
          "name": "owner",
          "type": "address"
        },
        {
          "internalType": "uint256",
          "name": "index",
          "type": "uint256"
        }
      ],
      "name": "tokenOfOwnerByIndex",
      "outputs": [
        {
          "internalType": "uint256",
          "name": "",
          "type": "uint256"
        }
      ],
      "stateMutability": "view",
      "type": "function"
    },
    {
      "inputs": [
        {
          "internalType": "uint256",
          "name": "tokenId",
          "type": "uint256"
        }
      ],
      "name": "tokenURI",
      "outputs": [
        {
          "internalType": "string",
          "name": "",
          "type": "string"
        }
      ],
      "stateMutability": "view",
      "type": "function"
    },
    {
      "inputs": [],
      "name": "totalMintedPossums",
      "outputs": [
        {
          "internalType": "uint256",
          "name": "",
          "type": "uint256"
        }
      ],
      "stateMutability": "view",
      "type": "function"
    },
    {
      "inputs": [],
      "name": "totalPossums",
      "outputs": [
        {
          "internalType": "uint256",
          "name": "",
          "type": "uint256"
        }
      ],
      "stateMutability": "view",
      "type": "function"
    },
    {
      "inputs": [],
      "name": "totalSupply",
      "outputs": [
        {
          "internalType": "uint256",
          "name": "",
          "type": "uint256"
        }
      ],
      "stateMutability": "view",
      "type": "function"
    },
    {
      "inputs": [
        {
          "internalType": "address",
          "name": "from",
          "type": "address"
        },
        {
          "internalType": "address",
          "name": "to",
          "type": "address"
        },
        {
          "internalType": "uint256",
          "name": "tokenId",
          "type": "uint256"
        }
      ],
      "name": "transferFrom",
      "outputs": [],
      "stateMutability": "nonpayable",
      "type": "function"
    },
    {
      "inputs": [
        {
          "internalType": "address",
          "name": "newOwner",
          "type": "address"
        }
      ],
      "name": "transferOwnership",
      "outputs": [],
      "stateMutability": "nonpayable",
      "type": "function"
    },
    {
      "inputs": [],
      "name": "unpause",
      "outputs": [],
      "stateMutability": "nonpayable",
      "type": "function"
    },
    {
      "inputs": [],
      "name": "withdraw",
      "outputs": [],
      "stateMutability": "payable",
      "type": "function"
    },
    {
      "inputs": [
        {
          "internalType": "contract IERC20",
          "name": "token",
          "type": "address"
        },
        {
          "internalType": "uint256",
          "name": "_amount",
          "type": "uint256"
        }
      ],
      "name": "withdrawErc20",
      "outputs": [],
      "stateMutability": "nonpayable",
      "type": "function"
    },
    {
      "stateMutability": "payable",
      "type": "receive"
    }
  ],
  "bytecode": "0x60806040523480156200001157600080fd5b50604051620036f9380380620036f983398101604081905262000034916200023c565b604080518082018252600d81526c547261736820506f7373756d7360981b60208083019182528351808501909452600584526454504f535360d81b908401528151919291620000869160009162000163565b5080516200009c90600190602084019062000163565b505050620000b9620000b36200010d60201b60201c565b62000111565b600c805460ff19169055600e849055600d8390558151620000e290601090602085019062000163565b50601280546001600160a01b0319166001600160a01b0392909216919091179055506200037f915050565b3390565b600780546001600160a01b038381166001600160a01b0319831681179093556040519116919082907f8be0079c531659141344cd1fd0a4f28419497f9722a3daafe3b4186f6b6457e090600090a35050565b828054620001719062000342565b90600052602060002090601f016020900481019282620001955760008555620001e0565b82601f10620001b057805160ff1916838001178555620001e0565b82800160010185558215620001e0579182015b82811115620001e0578251825591602001919060010190620001c3565b50620001ee929150620001f2565b5090565b5b80821115620001ee5760008155600101620001f3565b634e487b7160e01b600052604160045260246000fd5b80516001600160a01b03811681146200023757600080fd5b919050565b600080600080608085870312156200025357600080fd5b845160208087015160408801519296509450906001600160401b03808211156200027c57600080fd5b818801915088601f8301126200029157600080fd5b815181811115620002a657620002a662000209565b604051601f8201601f19908116603f01168101908382118183101715620002d157620002d162000209565b816040528281528b86848701011115620002ea57600080fd5b600093505b828410156200030e5784840186015181850187015292850192620002ef565b82841115620003205760008684830101525b80975050505050505062000337606086016200021f565b905092959194509250565b600181811c908216806200035757607f821691505b602082108114156200037957634e487b7160e01b600052602260045260246000fd5b50919050565b61336a806200038f6000396000f3fe6080604052600436106102cc5760003560e01c80636c0360eb11610175578063b031b35b116100dc578063d547cfb711610095578063e65fadc41161006f578063e65fadc4146107d6578063e985e9c5146107eb578063ead1750614610834578063f2fde38b1461084957600080fd5b8063d547cfb71461078b578063da67e22a146107a0578063dca77284146107b657600080fd5b8063b031b35b146106f9578063b37cb09d14610701578063b88d4fde14610716578063bd1f4b5214610736578063c87b56dd14610756578063cc6bbd651461077657600080fd5b80638456cb591161012e5780638456cb591461065c5780638481de5f146106715780638da5cb5b1461068657806395d89b41146106a4578063a22cb465146106b9578063a37a85e9146106d957600080fd5b80636c0360eb146105bb57806370a08231146105d0578063715018a6146105f0578063723bcc13146106055780637fd3352e1461061a57806384511aff1461064757600080fd5b80633bb240bd116102345780634f6ccce7116101ed5780635b46a8f2116101c75780635b46a8f2146105575780635ba369491461056d5780635c975abb146105835780636352211e1461059b57600080fd5b80634f6ccce7146104eb57806350f257e11461050b578063530e04bb1461054157600080fd5b80633bb240bd146104635780633ccfd60b146104795780633f4ba83a14610481578063416c585d1461049657806342842e0e146104ab578063493143e4146104cb57600080fd5b806318160ddd1161028657806318160ddd146103b957806323b872dd146103ce57806325554fb1146103ee5780632f745c591461040357806330176e1314610423578063360131891461044357600080fd5b806261b0ec146102d857806301ffc9a7146102ed57806306fdde0314610322578063081812fc14610344578063095ea7b31461037c57806312065fe01461039c57600080fd5b366102d357005b600080fd5b6102eb6102e6366004612d08565b610869565b005b3480156102f957600080fd5b5061030d610308366004612d37565b610b17565b60405190151581526020015b60405180910390f35b34801561032e57600080fd5b50610337610b28565b6040516103199190612dac565b34801561035057600080fd5b5061036461035f366004612d08565b610bba565b6040516001600160a01b039091168152602001610319565b34801561038857600080fd5b506102eb610397366004612dd4565b610c42565b3480156103a857600080fd5b50475b604051908152602001610319565b3480156103c557600080fd5b50600a546103ab565b3480156103da57600080fd5b506102eb6103e9366004612e00565b610d58565b3480156103fa57600080fd5b506011546103ab565b34801561040f57600080fd5b506103ab61041e366004612dd4565b610d89565b34801561042f57600080fd5b506102eb61043e366004612e41565b610e1f565b34801561044f57600080fd5b50601254610364906001600160a01b031681565b34801561046f57600080fd5b506103ab600e5481565b6102eb610e55565b34801561048d57600080fd5b506102eb610f2f565b3480156104a257600080fd5b506102eb610f63565b3480156104b757600080fd5b506102eb6104c6366004612e00565b6110e3565b3480156104d757600080fd5b506102eb6104e6366004612d08565b6110fe565b3480156104f757600080fd5b506103ab610506366004612d08565b61112d565b34801561051757600080fd5b506103ab610526366004612eb3565b6001600160a01b031660009081526014602052604090205490565b34801561054d57600080fd5b506103ab600f5481565b34801561056357600080fd5b506103ab611b5881565b34801561057957600080fd5b506103ab60115481565b34801561058f57600080fd5b50600c5460ff1661030d565b3480156105a757600080fd5b506103646105b6366004612d08565b6111c0565b3480156105c757600080fd5b50610337611237565b3480156105dc57600080fd5b506103ab6105eb366004612eb3565b6112c5565b3480156105fc57600080fd5b506102eb61134c565b34801561061157600080fd5b50600e546103ab565b34801561062657600080fd5b5061063a610635366004612eb3565b611380565b6040516103199190612ed0565b34801561065357600080fd5b506103ab603481565b34801561066857600080fd5b506102eb6114d2565b34801561067d57600080fd5b506103ab611504565b34801561069257600080fd5b506007546001600160a01b0316610364565b3480156106b057600080fd5b50610337611577565b3480156106c557600080fd5b506102eb6106d4366004612f22565b611586565b3480156106e557600080fd5b506102eb6106f4366004612eb3565b611591565b6102eb6115dd565b34801561070d57600080fd5b506103ab611866565b34801561072257600080fd5b506102eb610731366004612f71565b6118b0565b34801561074257600080fd5b506102eb610751366004612dd4565b6118e2565b34801561076257600080fd5b50610337610771366004612d08565b611a68565b34801561078257600080fd5b50611b586103ab565b34801561079757600080fd5b50610337611a73565b3480156107ac57600080fd5b506103ab600d5481565b3480156107c257600080fd5b506102eb6107d1366004612d08565b611a82565b3480156107e257600080fd5b50600f546103ab565b3480156107f757600080fd5b5061030d610806366004613051565b6001600160a01b03918216600090815260056020908152604080832093909416825291909152205460ff1690565b34801561084057600080fd5b50600d546103ab565b34801561085557600080fd5b506102eb610864366004612eb3565b611ab1565b600d541580159061087b575042600d54105b6108c05760405162461bcd60e51b8152602060048201526011602482015270596f752061726520746f6f206561726c7960781b60448201526064015b60405180910390fd5b60006108ca611504565b336000908152601460205260408120549192505082600e546108ec9190613095565b34101561094d5760405162461bcd60e51b815260206004820152602960248201527f4e6f7420656e6f75676820457468657220746f207265736572766520746865736044820152686520706f7373756d7360b81b60648201526084016108b7565b6000831161099d5760405162461bcd60e51b815260206004820152601e60248201527f6e65656420746f2072657365727665206174206c656173742031204e4654000060448201526064016108b7565b60346109a984836130b4565b111580156109d35750336000908152601360205260409020546034906109d09085906130b4565b11155b610a1f5760405162461bcd60e51b815260206004820152601f60248201527f596f752063616e6e6f742072657365727665206d6f726520706f7373756d730060448201526064016108b7565b82821015610a6f5760405162461bcd60e51b815260206004820152601760248201527f4e6f7420656e6f75676820506f7373756d73206c65667400000000000000000060448201526064016108b7565b601b831115610ab95760405162461bcd60e51b815260206004820152601660248201527526b0bc10191b903832b9103a3930b739b0b1ba34b7b760511b60448201526064016108b7565b60005b83811015610b11576000610ace611b4c565b604051909150819033907f904dcdc411e931497b95b06ddf8f8184815dd3bedc3c7c7cd4aed3ccd30783d890600090a35080610b09816130cc565b915050610abc565b50505050565b6000610b2282611bf7565b92915050565b606060008054610b37906130e7565b80601f0160208091040260200160405190810160405280929190818152602001828054610b63906130e7565b8015610bb05780601f10610b8557610100808354040283529160200191610bb0565b820191906000526020600020905b815481529060010190602001808311610b9357829003601f168201915b5050505050905090565b6000610bc582611c1c565b610c265760405162461bcd60e51b815260206004820152602c60248201527f4552433732313a20617070726f76656420717565727920666f72206e6f6e657860448201526b34b9ba32b73a103a37b5b2b760a11b60648201526084016108b7565b506000908152600460205260409020546001600160a01b031690565b6000610c4d826111c0565b9050806001600160a01b0316836001600160a01b03161415610cbb5760405162461bcd60e51b815260206004820152602160248201527f4552433732313a20617070726f76616c20746f2063757272656e74206f776e656044820152603960f91b60648201526084016108b7565b336001600160a01b0382161480610cd75750610cd78133610806565b610d495760405162461bcd60e51b815260206004820152603860248201527f4552433732313a20617070726f76652063616c6c6572206973206e6f74206f7760448201527f6e6572206e6f7220617070726f76656420666f7220616c6c000000000000000060648201526084016108b7565b610d538383611c39565b505050565b610d623382611ca7565b610d7e5760405162461bcd60e51b81526004016108b79061311c565b610d53838383611d91565b6000610d94836112c5565b8210610df65760405162461bcd60e51b815260206004820152602b60248201527f455243373231456e756d657261626c653a206f776e657220696e646578206f7560448201526a74206f6620626f756e647360a81b60648201526084016108b7565b506001600160a01b03919091166000908152600860209081526040808320938352929052205490565b6007546001600160a01b03163314610e495760405162461bcd60e51b81526004016108b79061316d565b610d5360108383612bfb565b6007546001600160a01b03163314610e7f5760405162461bcd60e51b81526004016108b79061316d565b476000610e946007546001600160a01b031690565b6001600160a01b03168260405160006040518083038185875af1925050503d8060008114610ede576040519150601f19603f3d011682016040523d82523d6000602084013e610ee3565b606091505b5050905080610f2b5760405162461bcd60e51b81526020600482015260146024820152732330b4b632b2103a379039b2b7321022ba3432b960611b60448201526064016108b7565b5050565b6007546001600160a01b03163314610f595760405162461bcd60e51b81526004016108b79061316d565b610f61611f3c565b565b6007546001600160a01b03163314610f8d5760405162461bcd60e51b81526004016108b79061316d565b60125460408051631332545760e11b815290516000926001600160a01b031691632664a8ae9160048083019260209291908290030181865afa158015610fd7573d6000803e3d6000fd5b505050506040513d601f19601f82011682018060405250810190610ffb91906131a2565b905080156110595760405162461bcd60e51b815260206004820152602560248201527f596f752063616e206f6e6c79207072656d696e742074686520506f7373756d73604482015264206f6e636560d81b60648201526084016108b7565b60005b60648110156110815761106f3382611fcf565b80611079816130cc565b91505061105c565b50601254604051631c8ac9a560e31b8152606460048201526001600160a01b039091169063e4564d2890602401600060405180830381600087803b1580156110c857600080fd5b505af11580156110dc573d6000803e3d6000fd5b5050505050565b610d53838383604051806020016040528060008152506118b0565b6007546001600160a01b031633146111285760405162461bcd60e51b81526004016108b79061316d565b600d55565b6000611138600a5490565b821061119b5760405162461bcd60e51b815260206004820152602c60248201527f455243373231456e756d657261626c653a20676c6f62616c20696e646578206f60448201526b7574206f6620626f756e647360a01b60648201526084016108b7565b600a82815481106111ae576111ae6131bf565b90600052602060002001549050919050565b6000818152600260205260408120546001600160a01b031680610b225760405162461bcd60e51b815260206004820152602960248201527f4552433732313a206f776e657220717565727920666f72206e6f6e657869737460448201526832b73a103a37b5b2b760b91b60648201526084016108b7565b60108054611244906130e7565b80601f0160208091040260200160405190810160405280929190818152602001828054611270906130e7565b80156112bd5780601f10611292576101008083540402835291602001916112bd565b820191906000526020600020905b8154815290600101906020018083116112a057829003601f168201915b505050505081565b60006001600160a01b0382166113305760405162461bcd60e51b815260206004820152602a60248201527f4552433732313a2062616c616e636520717565727920666f7220746865207a65604482015269726f206164647265737360b01b60648201526084016108b7565b506001600160a01b031660009081526003602052604090205490565b6007546001600160a01b031633146113765760405162461bcd60e51b81526004016108b79061316d565b610f616000612103565b6001600160a01b0381166000908152601460205260409020546060906113e85760405162461bcd60e51b815260206004820152601e60248201527f57616c6c657420686173206e6f20726573657276656420706f7373756d73000060448201526064016108b7565b6001600160a01b03821660009081526014602052604090205467ffffffffffffffff81111561141957611419612f5b565b604051908082528060200260200182016040528015611442578160200160208202803683370190505b50905060005b6001600160a01b0383166000908152601460205260409020548110156114cc576001600160a01b0383166000908152601460205260409020805482908110611492576114926131bf565b90600052602060002001548282815181106114af576114af6131bf565b6020908102919091010152806114c4816130cc565b915050611448565b50919050565b6007546001600160a01b031633146114fc5760405162461bcd60e51b81526004016108b79061316d565b610f61612155565b60125460408051638481de5f60e01b815290516000926001600160a01b031691638481de5f9160048083019260209291908290030181865afa15801561154e573d6000803e3d6000fd5b505050506040513d601f19601f8201168201806040525081019061157291906131d5565b905090565b606060018054610b37906130e7565b610f2b3383836121d0565b6007546001600160a01b031633146115bb5760405162461bcd60e51b81526004016108b79061316d565b601280546001600160a01b0319166001600160a01b0392909216919091179055565b600d54158015906115ef575042600d54105b61162f5760405162461bcd60e51b8152602060048201526011602482015270596f752061726520746f6f206561726c7960781b60448201526064016108b7565b6000611639611866565b336000908152601460205260409020549091506116985760405162461bcd60e51b815260206004820152601c60248201527f796f752068617665206e6f20726573657276656420706f7373756d730000000060448201526064016108b7565b428110806116a95750611b58601154145b6116b257600080fd5b600080601260009054906101000a90046001600160a01b03166001600160a01b031663eb6ad24e6040518163ffffffff1660e01b8152600401602060405180830381865afa158015611708573d6000803e3d6000fd5b505050506040513d601f19601f8201168201806040525081019061172c91906131d5565b90508061177b5760405162461bcd60e51b815260206004820152601f60248201527f506f7373756d73206e6f7420726561647920746f20626520636c61696d65640060448201526064016108b7565b60005b33600090815260146020526040902054811015610b11573360009081526014602052604081208054849190849081106117b9576117b96131bf565b90600052602060002001546117ce91906130b4565b90506117dd6001611b586131ee565b811115611818576117f0600160646131ee565b6117fd6001611b586131ee565b61180790836131ee565b61181191906130b4565b935061181c565b8093505b6118263385611fcf565b336000908152601460205260408120805484908110611847576118476131bf565b600091825260209091200155508061185e816130cc565b91505061177e565b601254604080516344657d2760e11b815290516000926001600160a01b0316916388cafa4e9160048083019260209291908290030181865afa15801561154e573d6000803e3d6000fd5b6118ba3383611ca7565b6118d65760405162461bcd60e51b81526004016108b79061311c565b610b118484848461229f565b6007546001600160a01b0316331461190c5760405162461bcd60e51b81526004016108b79061316d565b6040516370a0823160e01b81523060048201526000906001600160a01b038416906370a0823190602401602060405180830381865afa158015611953573d6000803e3d6000fd5b505050506040513d601f19601f8201168201806040525081019061197791906131d5565b116119d65760405162461bcd60e51b815260206004820152602960248201527f7468697320636f6e747261637420646f6573206e6f7420636f6e7461696e20746044820152683434b9903a37b5b2b760b91b60648201526084016108b7565b816001600160a01b031663a9059cbb6119f76007546001600160a01b031690565b6040516001600160e01b031960e084901b1681526001600160a01b039091166004820152602481018490526044016020604051808303816000875af1158015611a44573d6000803e3d6000fd5b505050506040513d601f19601f82011682018060405250810190610d5391906131a2565b6060610b22826122d2565b606060108054610b37906130e7565b6007546001600160a01b03163314611aac5760405162461bcd60e51b81526004016108b79061316d565b600e55565b6007546001600160a01b03163314611adb5760405162461bcd60e51b81526004016108b79061316d565b6001600160a01b038116611b405760405162461bcd60e51b815260206004820152602660248201527f4f776e61626c653a206e6577206f776e657220697320746865207a65726f206160448201526564647265737360d01b60648201526084016108b7565b611b4981612103565b50565b6012546040805163c6410f7b60e01b815290516000926001600160a01b03169163c6410f7b916004808301926020929190829003018187875af1158015611b97573d6000803e3d6000fd5b505050506040513d601f19601f82011682018060405250810190611bbb91906131d5565b33600090815260146020908152604082208054600181018255908352908220018290556011805492935090611bef836130cc565b919050555090565b60006001600160e01b0319821663780e9d6360e01b1480610b225750610b2282612434565b6000908152600260205260409020546001600160a01b0316151590565b600081815260046020526040902080546001600160a01b0319166001600160a01b0384169081179091558190611c6e826111c0565b6001600160a01b03167f8c5be1e5ebec7d5bd14f71427d1e84f3dd0314c0f7b2291e5b200ac8c7c3b92560405160405180910390a45050565b6000611cb282611c1c565b611d135760405162461bcd60e51b815260206004820152602c60248201527f4552433732313a206f70657261746f7220717565727920666f72206e6f6e657860448201526b34b9ba32b73a103a37b5b2b760a11b60648201526084016108b7565b6000611d1e836111c0565b9050806001600160a01b0316846001600160a01b03161480611d595750836001600160a01b0316611d4e84610bba565b6001600160a01b0316145b80611d8957506001600160a01b0380821660009081526005602090815260408083209388168352929052205460ff165b949350505050565b826001600160a01b0316611da4826111c0565b6001600160a01b031614611e0c5760405162461bcd60e51b815260206004820152602960248201527f4552433732313a207472616e73666572206f6620746f6b656e2074686174206960448201526839903737ba1037bbb760b91b60648201526084016108b7565b6001600160a01b038216611e6e5760405162461bcd60e51b8152602060048201526024808201527f4552433732313a207472616e7366657220746f20746865207a65726f206164646044820152637265737360e01b60648201526084016108b7565b611e79838383612484565b611e84600082611c39565b6001600160a01b0383166000908152600360205260408120805460019290611ead9084906131ee565b90915550506001600160a01b0382166000908152600360205260408120805460019290611edb9084906130b4565b909155505060008181526002602052604080822080546001600160a01b0319166001600160a01b0386811691821790925591518493918716917fddf252ad1be2c89b69c2b068fc378daa952ba7f163c4a11628f55a4df523b3ef91a4505050565b600c5460ff16611f855760405162461bcd60e51b815260206004820152601460248201527314185d5cd8589b194e881b9bdd081c185d5cd95960621b60448201526064016108b7565b600c805460ff191690557f5db9ee0a495bf2e6ff9c91a7834c1ba4fdd244a5e8aa4e537bd38aeae4b073aa335b6040516001600160a01b03909116815260200160405180910390a1565b611b58600f5411156120235760405162461bcd60e51b815260206004820152601c60248201527f616c6c20506f7373756d732068617665206265656e206d696e7465640000000060448201526064016108b7565b61202d82826124d5565b6120c1816010805461203e906130e7565b80601f016020809104026020016040519081016040528092919081815260200182805461206a906130e7565b80156120b75780601f1061208c576101008083540402835291602001916120b7565b820191906000526020600020905b81548152906001019060200180831161209a57829003601f168201915b50505050506124ef565b600f80549060006120d1836130cc565b90915550506001600160a01b03821660009081526013602052604081208054916120fa836130cc565b91905055505050565b600780546001600160a01b038381166001600160a01b0319831681179093556040519116919082907f8be0079c531659141344cd1fd0a4f28419497f9722a3daafe3b4186f6b6457e090600090a35050565b600c5460ff161561219b5760405162461bcd60e51b815260206004820152601060248201526f14185d5cd8589b194e881c185d5cd95960821b60448201526064016108b7565b600c805460ff191660011790557f62e78cea01bee320cd4e420270b5ea74000d11b0c9f74754ebdbfc544b05a258611fb23390565b816001600160a01b0316836001600160a01b031614156122325760405162461bcd60e51b815260206004820152601960248201527f4552433732313a20617070726f766520746f2063616c6c65720000000000000060448201526064016108b7565b6001600160a01b03838116600081815260056020908152604080832094871680845294825291829020805460ff191686151590811790915591519182527f17307eab39ab6107e8899845ad3d59bd9653f200f220920489ca2b5937696c31910160405180910390a3505050565b6122aa848484611d91565b6122b68484848461257a565b610b115760405162461bcd60e51b81526004016108b790613205565b60606122dd82611c1c565b6123435760405162461bcd60e51b815260206004820152603160248201527f45524337323155524953746f726167653a2055524920717565727920666f72206044820152703737b732bc34b9ba32b73a103a37b5b2b760791b60648201526084016108b7565b6000828152600660205260408120805461235c906130e7565b80601f0160208091040260200160405190810160405280929190818152602001828054612388906130e7565b80156123d55780601f106123aa576101008083540402835291602001916123d5565b820191906000526020600020905b8154815290600101906020018083116123b857829003601f168201915b5050505050905060006123e6611a73565b90508051600014156123f9575092915050565b81511561242b578082604051602001612413929190613257565b60405160208183030381529060405292505050919050565b611d8984612678565b60006001600160e01b031982166380ac58cd60e01b148061246557506001600160e01b03198216635b5e139f60e01b145b80610b2257506301ffc9a760e01b6001600160e01b0319831614610b22565b600c5460ff16156124ca5760405162461bcd60e51b815260206004820152601060248201526f14185d5cd8589b194e881c185d5cd95960821b60448201526064016108b7565b610d53838383612743565b610f2b8282604051806020016040528060008152506127fb565b6124f882611c1c565b61255b5760405162461bcd60e51b815260206004820152602e60248201527f45524337323155524953746f726167653a2055524920736574206f66206e6f6e60448201526d32bc34b9ba32b73a103a37b5b2b760911b60648201526084016108b7565b60008281526006602090815260409091208251610d5392840190612c7f565b60006001600160a01b0384163b1561266d57604051630a85bd0160e11b81526001600160a01b0385169063150b7a02906125be903390899088908890600401613286565b6020604051808303816000875af19250505080156125f9575060408051601f3d908101601f191682019092526125f6918101906132c3565b60015b612653573d808015612627576040519150601f19603f3d011682016040523d82523d6000602084013e61262c565b606091505b50805161264b5760405162461bcd60e51b81526004016108b790613205565b805181602001fd5b6001600160e01b031916630a85bd0160e11b149050611d89565b506001949350505050565b606061268382611c1c565b6126e75760405162461bcd60e51b815260206004820152602f60248201527f4552433732314d657461646174613a2055524920717565727920666f72206e6f60448201526e3732bc34b9ba32b73a103a37b5b2b760891b60648201526084016108b7565b60006126f1611a73565b90506000815111612711576040518060200160405280600081525061273c565b8061271b8461282e565b60405160200161272c929190613257565b6040516020818303038152906040525b9392505050565b6001600160a01b03831661279e5761279981600a80546000838152600b60205260408120829055600182018355919091527fc65a7bb8d6351c1cf70c95a316cc6a92839c986682d98bc35f958f4883f9d2a80155565b6127c1565b816001600160a01b0316836001600160a01b0316146127c1576127c1838261292c565b6001600160a01b0382166127d857610d53816129c9565b826001600160a01b0316826001600160a01b031614610d5357610d538282612a78565b6128058383612abc565b612812600084848461257a565b610d535760405162461bcd60e51b81526004016108b790613205565b6060816128525750506040805180820190915260018152600360fc1b602082015290565b8160005b811561287c5780612866816130cc565b91506128759050600a836132f6565b9150612856565b60008167ffffffffffffffff81111561289757612897612f5b565b6040519080825280601f01601f1916602001820160405280156128c1576020820181803683370190505b5090505b8415611d89576128d66001836131ee565b91506128e3600a8661330a565b6128ee9060306130b4565b60f81b818381518110612903576129036131bf565b60200101906001600160f81b031916908160001a905350612925600a866132f6565b94506128c5565b60006001612939846112c5565b61294391906131ee565b600083815260096020526040902054909150808214612996576001600160a01b03841660009081526008602090815260408083208584528252808320548484528184208190558352600990915290208190555b5060009182526009602090815260408084208490556001600160a01b039094168352600881528383209183525290812055565b600a546000906129db906001906131ee565b6000838152600b6020526040812054600a8054939450909284908110612a0357612a036131bf565b9060005260206000200154905080600a8381548110612a2457612a246131bf565b6000918252602080832090910192909255828152600b9091526040808220849055858252812055600a805480612a5c57612a5c61331e565b6001900381819060005260206000200160009055905550505050565b6000612a83836112c5565b6001600160a01b039093166000908152600860209081526040808320868452825280832085905593825260099052919091209190915550565b6001600160a01b038216612b125760405162461bcd60e51b815260206004820181905260248201527f4552433732313a206d696e7420746f20746865207a65726f206164647265737360448201526064016108b7565b612b1b81611c1c565b15612b685760405162461bcd60e51b815260206004820152601c60248201527f4552433732313a20746f6b656e20616c7265616479206d696e7465640000000060448201526064016108b7565b612b7460008383612484565b6001600160a01b0382166000908152600360205260408120805460019290612b9d9084906130b4565b909155505060008181526002602052604080822080546001600160a01b0319166001600160a01b03861690811790915590518392907fddf252ad1be2c89b69c2b068fc378daa952ba7f163c4a11628f55a4df523b3ef908290a45050565b828054612c07906130e7565b90600052602060002090601f016020900481019282612c295760008555612c6f565b82601f10612c425782800160ff19823516178555612c6f565b82800160010185558215612c6f579182015b82811115612c6f578235825591602001919060010190612c54565b50612c7b929150612cf3565b5090565b828054612c8b906130e7565b90600052602060002090601f016020900481019282612cad5760008555612c6f565b82601f10612cc657805160ff1916838001178555612c6f565b82800160010185558215612c6f579182015b82811115612c6f578251825591602001919060010190612cd8565b5b80821115612c7b5760008155600101612cf4565b600060208284031215612d1a57600080fd5b5035919050565b6001600160e01b031981168114611b4957600080fd5b600060208284031215612d4957600080fd5b813561273c81612d21565b60005b83811015612d6f578181015183820152602001612d57565b83811115610b115750506000910152565b60008151808452612d98816020860160208601612d54565b601f01601f19169290920160200192915050565b60208152600061273c6020830184612d80565b6001600160a01b0381168114611b4957600080fd5b60008060408385031215612de757600080fd5b8235612df281612dbf565b946020939093013593505050565b600080600060608486031215612e1557600080fd5b8335612e2081612dbf565b92506020840135612e3081612dbf565b929592945050506040919091013590565b60008060208385031215612e5457600080fd5b823567ffffffffffffffff80821115612e6c57600080fd5b818501915085601f830112612e8057600080fd5b813581811115612e8f57600080fd5b866020828501011115612ea157600080fd5b60209290920196919550909350505050565b600060208284031215612ec557600080fd5b813561273c81612dbf565b6020808252825182820181905260009190848201906040850190845b81811015612f0857835183529284019291840191600101612eec565b50909695505050505050565b8015158114611b4957600080fd5b60008060408385031215612f3557600080fd5b8235612f4081612dbf565b91506020830135612f5081612f14565b809150509250929050565b634e487b7160e01b600052604160045260246000fd5b60008060008060808587031215612f8757600080fd5b8435612f9281612dbf565b93506020850135612fa281612dbf565b925060408501359150606085013567ffffffffffffffff80821115612fc657600080fd5b818701915087601f830112612fda57600080fd5b813581811115612fec57612fec612f5b565b604051601f8201601f19908116603f0116810190838211818310171561301457613014612f5b565b816040528281528a602084870101111561302d57600080fd5b82602086016020830137600060208483010152809550505050505092959194509250565b6000806040838503121561306457600080fd5b823561306f81612dbf565b91506020830135612f5081612dbf565b634e487b7160e01b600052601160045260246000fd5b60008160001904831182151516156130af576130af61307f565b500290565b600082198211156130c7576130c761307f565b500190565b60006000198214156130e0576130e061307f565b5060010190565b600181811c908216806130fb57607f821691505b602082108114156114cc57634e487b7160e01b600052602260045260246000fd5b60208082526031908201527f4552433732313a207472616e736665722063616c6c6572206973206e6f74206f6040820152701ddb995c881b9bdc88185c1c1c9bdd9959607a1b606082015260800190565b6020808252818101527f4f776e61626c653a2063616c6c6572206973206e6f7420746865206f776e6572604082015260600190565b6000602082840312156131b457600080fd5b815161273c81612f14565b634e487b7160e01b600052603260045260246000fd5b6000602082840312156131e757600080fd5b5051919050565b6000828210156132005761320061307f565b500390565b60208082526032908201527f4552433732313a207472616e7366657220746f206e6f6e20455243373231526560408201527131b2b4bb32b91034b6b83632b6b2b73a32b960711b606082015260800190565b60008351613269818460208801612d54565b83519083019061327d818360208801612d54565b01949350505050565b6001600160a01b03858116825284166020820152604081018390526080606082018190526000906132b990830184612d80565b9695505050505050565b6000602082840312156132d557600080fd5b815161273c81612d21565b634e487b7160e01b600052601260045260246000fd5b600082613305576133056132e0565b500490565b600082613319576133196132e0565b500690565b634e487b7160e01b600052603160045260246000fdfea264697066735822122017f2d9e266b51208e458d22cf5d0aa6d3344b2e20de5fd7cb14bd6ac136305b464736f6c634300080a0033",
  "linkReferences": {},
  "deployedLinkReferences": {}
}