{
  "_format": "hh-sol-artifact-1",
  "contractName": "TrashPossums",
  "sourceName": "contracts/TrashPossums.sol",
  "abi": [
    {
      "inputs": [
        {
          "internalType": "uint256",
          "name": "_possumPrice",
          "type": "uint256"
        },
        {
          "internalType": "string",
          "name": "_baseUri",
          "type": "string"
        },
        {
          "internalType": "address",
          "name": "_randomness",
          "type": "address"
        },
        {
          "internalType": "uint256",
          "name": "_premintCount",
          "type": "uint256"
        }
      ],
      "stateMutability": "nonpayable",
      "type": "constructor"
    },
    {
      "anonymous": false,
      "inputs": [
        {
          "indexed": true,
          "internalType": "address",
          "name": "owner",
          "type": "address"
        },
        {
          "indexed": true,
          "internalType": "address",
          "name": "approved",
          "type": "address"
        },
        {
          "indexed": true,
          "internalType": "uint256",
          "name": "tokenId",
          "type": "uint256"
        }
      ],
      "name": "Approval",
      "type": "event"
    },
    {
      "anonymous": false,
      "inputs": [
        {
          "indexed": true,
          "internalType": "address",
          "name": "owner",
          "type": "address"
        },
        {
          "indexed": true,
          "internalType": "address",
          "name": "operator",
          "type": "address"
        },
        {
          "indexed": false,
          "internalType": "bool",
          "name": "approved",
          "type": "bool"
        }
      ],
      "name": "ApprovalForAll",
      "type": "event"
    },
    {
      "anonymous": false,
      "inputs": [
        {
          "indexed": true,
          "internalType": "address",
          "name": "previousOwner",
          "type": "address"
        },
        {
          "indexed": true,
          "internalType": "address",
          "name": "newOwner",
          "type": "address"
        }
      ],
      "name": "OwnershipTransferred",
      "type": "event"
    },
    {
      "anonymous": false,
      "inputs": [
        {
          "indexed": false,
          "internalType": "address",
          "name": "account",
          "type": "address"
        }
      ],
      "name": "Paused",
      "type": "event"
    },
    {
      "anonymous": false,
      "inputs": [
        {
          "indexed": true,
          "internalType": "address",
          "name": "to",
          "type": "address"
        },
        {
          "indexed": true,
          "internalType": "uint256",
          "name": "tokenId",
          "type": "uint256"
        }
      ],
      "name": "Reserved",
      "type": "event"
    },
    {
      "anonymous": false,
      "inputs": [
        {
          "indexed": true,
          "internalType": "address",
          "name": "from",
          "type": "address"
        },
        {
          "indexed": true,
          "internalType": "address",
          "name": "to",
          "type": "address"
        },
        {
          "indexed": true,
          "internalType": "uint256",
          "name": "tokenId",
          "type": "uint256"
        }
      ],
      "name": "Transfer",
      "type": "event"
    },
    {
      "anonymous": false,
      "inputs": [
        {
          "indexed": false,
          "internalType": "address",
          "name": "account",
          "type": "address"
        }
      ],
      "name": "Unpaused",
      "type": "event"
    },
    {
      "inputs": [
        {
          "internalType": "address",
          "name": "to",
          "type": "address"
        },
        {
          "internalType": "uint256",
          "name": "tokenId",
          "type": "uint256"
        }
      ],
      "name": "approve",
      "outputs": [],
      "stateMutability": "nonpayable",
      "type": "function"
    },
    {
      "inputs": [
        {
          "internalType": "address",
          "name": "owner",
          "type": "address"
        }
      ],
      "name": "balanceOf",
      "outputs": [
        {
          "internalType": "uint256",
          "name": "",
          "type": "uint256"
        }
      ],
      "stateMutability": "view",
      "type": "function"
    },
    {
      "inputs": [],
      "name": "baseURI",
      "outputs": [
        {
          "internalType": "string",
          "name": "",
          "type": "string"
        }
      ],
      "stateMutability": "view",
      "type": "function"
    },
    {
      "inputs": [],
      "name": "claimPossums",
      "outputs": [],
      "stateMutability": "payable",
      "type": "function"
    },
    {
      "inputs": [],
      "name": "contractURI",
      "outputs": [
        {
          "internalType": "string",
          "name": "",
          "type": "string"
        }
      ],
      "stateMutability": "view",
      "type": "function"
    },
    {
      "inputs": [
        {
          "internalType": "uint256",
          "name": "tokenId",
          "type": "uint256"
        }
      ],
      "name": "getApproved",
      "outputs": [
        {
          "internalType": "address",
          "name": "",
          "type": "address"
        }
      ],
      "stateMutability": "view",
      "type": "function"
    },
    {
      "inputs": [],
      "name": "getAvailablePossums",
      "outputs": [
        {
          "internalType": "uint256",
          "name": "",
          "type": "uint256"
        }
      ],
      "stateMutability": "view",
      "type": "function"
    },
    {
      "inputs": [],
      "name": "getClaimDate",
      "outputs": [
        {
          "internalType": "uint256",
          "name": "",
          "type": "uint256"
        }
      ],
      "stateMutability": "view",
      "type": "function"
    },
    {
      "inputs": [
        {
          "internalType": "address",
          "name": "_wallet",
          "type": "address"
        }
      ],
      "name": "getReservedPossumIds",
      "outputs": [
        {
          "internalType": "uint256[]",
          "name": "reservedIds",
          "type": "uint256[]"
        }
      ],
      "stateMutability": "view",
      "type": "function"
    },
    {
      "inputs": [
        {
          "internalType": "address",
          "name": "_wallet",
          "type": "address"
        }
      ],
      "name": "getReservedPossumsPerWallet",
      "outputs": [
        {
          "internalType": "uint256",
          "name": "",
          "type": "uint256"
        }
      ],
      "stateMutability": "view",
      "type": "function"
    },
    {
      "inputs": [
        {
          "internalType": "address",
          "name": "owner",
          "type": "address"
        },
        {
          "internalType": "address",
          "name": "operator",
          "type": "address"
        }
      ],
      "name": "isApprovedForAll",
      "outputs": [
        {
          "internalType": "bool",
          "name": "",
          "type": "bool"
        }
      ],
      "stateMutability": "view",
      "type": "function"
    },
    {
      "inputs": [],
      "name": "maxPossumsPerTransaction",
      "outputs": [
        {
          "internalType": "uint256",
          "name": "",
          "type": "uint256"
        }
      ],
      "stateMutability": "view",
      "type": "function"
    },
    {
      "inputs": [],
      "name": "maxPossumsPerWallet",
      "outputs": [
        {
          "internalType": "uint256",
          "name": "",
          "type": "uint256"
        }
      ],
      "stateMutability": "view",
      "type": "function"
    },
    {
      "inputs": [],
      "name": "name",
      "outputs": [
        {
          "internalType": "string",
          "name": "",
          "type": "string"
        }
      ],
      "stateMutability": "view",
      "type": "function"
    },
    {
      "inputs": [],
      "name": "numberOfReservedPossums",
      "outputs": [
        {
          "internalType": "uint256",
          "name": "",
          "type": "uint256"
        }
      ],
      "stateMutability": "view",
      "type": "function"
    },
    {
      "inputs": [],
      "name": "owner",
      "outputs": [
        {
          "internalType": "address",
          "name": "",
          "type": "address"
        }
      ],
      "stateMutability": "view",
      "type": "function"
    },
    {
      "inputs": [
        {
          "internalType": "uint256",
          "name": "tokenId",
          "type": "uint256"
        }
      ],
      "name": "ownerOf",
      "outputs": [
        {
          "internalType": "address",
          "name": "",
          "type": "address"
        }
      ],
      "stateMutability": "view",
      "type": "function"
    },
    {
      "inputs": [],
      "name": "pause",
      "outputs": [],
      "stateMutability": "nonpayable",
      "type": "function"
    },
    {
      "inputs": [],
      "name": "paused",
      "outputs": [
        {
          "internalType": "bool",
          "name": "",
          "type": "bool"
        }
      ],
      "stateMutability": "view",
      "type": "function"
    },
    {
      "inputs": [],
      "name": "possumPrice",
      "outputs": [
        {
          "internalType": "uint256",
          "name": "",
          "type": "uint256"
        }
      ],
      "stateMutability": "view",
      "type": "function"
    },
    {
      "inputs": [],
      "name": "premintCount",
      "outputs": [
        {
          "internalType": "uint256",
          "name": "",
          "type": "uint256"
        }
      ],
      "stateMutability": "view",
      "type": "function"
    },
    {
      "inputs": [],
      "name": "premintPossums",
      "outputs": [],
      "stateMutability": "nonpayable",
      "type": "function"
    },
    {
      "inputs": [],
      "name": "randomness",
      "outputs": [
        {
          "internalType": "address",
          "name": "",
          "type": "address"
        }
      ],
      "stateMutability": "view",
      "type": "function"
    },
    {
      "inputs": [],
      "name": "renounceOwnership",
      "outputs": [],
      "stateMutability": "nonpayable",
      "type": "function"
    },
    {
      "inputs": [
        {
          "internalType": "uint256",
          "name": "amount",
          "type": "uint256"
        }
      ],
      "name": "reservePossums",
      "outputs": [],
      "stateMutability": "payable",
      "type": "function"
    },
    {
      "inputs": [
        {
          "internalType": "address",
          "name": "from",
          "type": "address"
        },
        {
          "internalType": "address",
          "name": "to",
          "type": "address"
        },
        {
          "internalType": "uint256",
          "name": "tokenId",
          "type": "uint256"
        }
      ],
      "name": "safeTransferFrom",
      "outputs": [],
      "stateMutability": "nonpayable",
      "type": "function"
    },
    {
      "inputs": [
        {
          "internalType": "address",
          "name": "from",
          "type": "address"
        },
        {
          "internalType": "address",
          "name": "to",
          "type": "address"
        },
        {
          "internalType": "uint256",
          "name": "tokenId",
          "type": "uint256"
        },
        {
          "internalType": "bytes",
          "name": "_data",
          "type": "bytes"
        }
      ],
      "name": "safeTransferFrom",
      "outputs": [],
      "stateMutability": "nonpayable",
      "type": "function"
    },
    {
      "inputs": [
        {
          "internalType": "address",
          "name": "operator",
          "type": "address"
        },
        {
          "internalType": "bool",
          "name": "approved",
          "type": "bool"
        }
      ],
      "name": "setApprovalForAll",
      "outputs": [],
      "stateMutability": "nonpayable",
      "type": "function"
    },
    {
      "inputs": [
        {
          "internalType": "string",
          "name": "_tokenURI",
          "type": "string"
        }
      ],
      "name": "setBaseTokenURI",
      "outputs": [],
      "stateMutability": "nonpayable",
      "type": "function"
    },
    {
      "inputs": [
        {
          "internalType": "uint256",
          "name": "_possumPrice",
          "type": "uint256"
        }
      ],
      "name": "setPossumPrice",
      "outputs": [],
      "stateMutability": "nonpayable",
      "type": "function"
    },
    {
      "inputs": [
        {
          "internalType": "address",
          "name": "_randomness",
          "type": "address"
        }
      ],
      "name": "setRandomness",
      "outputs": [],
      "stateMutability": "nonpayable",
      "type": "function"
    },
    {
      "inputs": [
        {
          "internalType": "bytes4",
          "name": "interfaceId",
          "type": "bytes4"
        }
      ],
      "name": "supportsInterface",
      "outputs": [
        {
          "internalType": "bool",
          "name": "",
          "type": "bool"
        }
      ],
      "stateMutability": "view",
      "type": "function"
    },
    {
      "inputs": [],
      "name": "symbol",
      "outputs": [
        {
          "internalType": "string",
          "name": "",
          "type": "string"
        }
      ],
      "stateMutability": "view",
      "type": "function"
    },
    {
      "inputs": [
        {
          "internalType": "uint256",
          "name": "index",
          "type": "uint256"
        }
      ],
      "name": "tokenByIndex",
      "outputs": [
        {
          "internalType": "uint256",
          "name": "",
          "type": "uint256"
        }
      ],
      "stateMutability": "view",
      "type": "function"
    },
    {
      "inputs": [
        {
          "internalType": "address",
          "name": "owner",
          "type": "address"
        },
        {
          "internalType": "uint256",
          "name": "index",
          "type": "uint256"
        }
      ],
      "name": "tokenOfOwnerByIndex",
      "outputs": [
        {
          "internalType": "uint256",
          "name": "",
          "type": "uint256"
        }
      ],
      "stateMutability": "view",
      "type": "function"
    },
    {
      "inputs": [
        {
          "internalType": "uint256",
          "name": "tokenId",
          "type": "uint256"
        }
      ],
      "name": "tokenURI",
      "outputs": [
        {
          "internalType": "string",
          "name": "",
          "type": "string"
        }
      ],
      "stateMutability": "view",
      "type": "function"
    },
    {
      "inputs": [],
      "name": "totalMintedPossums",
      "outputs": [
        {
          "internalType": "uint256",
          "name": "",
          "type": "uint256"
        }
      ],
      "stateMutability": "view",
      "type": "function"
    },
    {
      "inputs": [],
      "name": "totalPossums",
      "outputs": [
        {
          "internalType": "uint256",
          "name": "",
          "type": "uint256"
        }
      ],
      "stateMutability": "view",
      "type": "function"
    },
    {
      "inputs": [],
      "name": "totalSupply",
      "outputs": [
        {
          "internalType": "uint256",
          "name": "",
          "type": "uint256"
        }
      ],
      "stateMutability": "view",
      "type": "function"
    },
    {
      "inputs": [
        {
          "internalType": "address",
          "name": "from",
          "type": "address"
        },
        {
          "internalType": "address",
          "name": "to",
          "type": "address"
        },
        {
          "internalType": "uint256",
          "name": "tokenId",
          "type": "uint256"
        }
      ],
      "name": "transferFrom",
      "outputs": [],
      "stateMutability": "nonpayable",
      "type": "function"
    },
    {
      "inputs": [
        {
          "internalType": "address",
          "name": "newOwner",
          "type": "address"
        }
      ],
      "name": "transferOwnership",
      "outputs": [],
      "stateMutability": "nonpayable",
      "type": "function"
    },
    {
      "inputs": [],
      "name": "unpause",
      "outputs": [],
      "stateMutability": "nonpayable",
      "type": "function"
    },
    {
      "inputs": [],
      "name": "withdraw",
      "outputs": [],
      "stateMutability": "nonpayable",
      "type": "function"
    },
    {
      "inputs": [
        {
          "internalType": "contract IERC20",
          "name": "token",
          "type": "address"
        },
        {
          "internalType": "uint256",
          "name": "_amount",
          "type": "uint256"
        }
      ],
      "name": "withdrawErc20",
      "outputs": [],
      "stateMutability": "nonpayable",
      "type": "function"
    },
    {
      "stateMutability": "payable",
      "type": "receive"
    }
  ],
  "bytecode": "0x60806040523480156200001157600080fd5b50604051620035fd380380620035fd83398101604081905262000034916200023a565b604080518082018252600d81526c547261736820506f7373756d7360981b60208083019182528351808501909452600584526454504f535360d81b908401528151919291620000869160009162000161565b5080516200009c90600190602084019062000161565b505050620000b9620000b36200010b60201b60201c565b6200010f565b600c805460ff19169055600e8490558251620000dd90601290602086019062000161565b50601180546001600160a01b0319166001600160a01b039390931692909217909155600d55506200037b9050565b3390565b600780546001600160a01b038381166001600160a01b0319831681179093556040519116919082907f8be0079c531659141344cd1fd0a4f28419497f9722a3daafe3b4186f6b6457e090600090a35050565b8280546200016f906200033e565b90600052602060002090601f016020900481019282620001935760008555620001de565b82601f10620001ae57805160ff1916838001178555620001de565b82800160010185558215620001de579182015b82811115620001de578251825591602001919060010190620001c1565b50620001ec929150620001f0565b5090565b5b80821115620001ec5760008155600101620001f1565b634e487b7160e01b600052604160045260246000fd5b80516001600160a01b03811681146200023557600080fd5b919050565b600080600080608085870312156200025157600080fd5b8451602080870151919550906001600160401b03808211156200027357600080fd5b818801915088601f8301126200028857600080fd5b8151818111156200029d576200029d62000207565b604051601f8201601f19908116603f01168101908382118183101715620002c857620002c862000207565b816040528281528b86848701011115620002e157600080fd5b600093505b82841015620003055784840186015181850187015292850192620002e6565b82841115620003175760008684830101525b8098505050505050506200032e604086016200021d565b6060959095015193969295505050565b600181811c908216806200035357607f821691505b602082108114156200037557634e487b7160e01b600052602260045260246000fd5b50919050565b613272806200038b6000396000f3fe60806040526004361061026a5760003560e01c80636ab6011711610144578063a22cb465116100b6578063bd1f4b521161007a578063bd1f4b52146106af578063c87b56dd146106cf578063dca77284146106ef578063e8a3d4851461070f578063e985e9c514610724578063f2fde38b1461076d57600080fd5b8063a22cb46514610632578063a37a85e914610652578063b031b35b14610672578063b37cb09d1461067a578063b88d4fde1461068f57600080fd5b806384511aff1161010857806384511aff146105aa5780638456cb59146105bf5780638481de5f146105d45780638da5cb5b146105e957806395d89b41146106075780639d9ee6731461061c57600080fd5b80636ab601171461051e5780636c0360eb1461053357806370a0823114610548578063715018a6146105685780637fd3352e1461057d57600080fd5b80633ccfd60b116101dd57806350f257e1116101a157806350f257e11461046e578063530e04bb146104a45780635b46a8f2146104ba5780635ba36949146104d05780635c975abb146104e65780636352211e146104fe57600080fd5b80633ccfd60b146103ef5780633f4ba83a14610404578063416c585d1461041957806342842e0e1461042e5780634f6ccce71461044e57600080fd5b806318160ddd1161022f57806318160ddd1461033a57806323b872dd146103595780632f745c591461037957806330176e131461039957806336013189146103b95780633bb240bd146103d957600080fd5b806261b0ec1461027657806301ffc9a71461028b57806306fdde03146102c0578063081812fc146102e2578063095ea7b31461031a57600080fd5b3661027157005b600080fd5b610289610284366004612c10565b61078d565b005b34801561029757600080fd5b506102ab6102a6366004612c3f565b6109e8565b60405190151581526020015b60405180910390f35b3480156102cc57600080fd5b506102d56109f9565b6040516102b79190612cb4565b3480156102ee57600080fd5b506103026102fd366004612c10565b610a8b565b6040516001600160a01b0390911681526020016102b7565b34801561032657600080fd5b50610289610335366004612cdc565b610b13565b34801561034657600080fd5b50600a545b6040519081526020016102b7565b34801561036557600080fd5b50610289610374366004612d08565b610c24565b34801561038557600080fd5b5061034b610394366004612cdc565b610c55565b3480156103a557600080fd5b506102896103b4366004612d49565b610ceb565b3480156103c557600080fd5b50601154610302906001600160a01b031681565b3480156103e557600080fd5b5061034b600e5481565b3480156103fb57600080fd5b50610289610d21565b34801561041057600080fd5b50610289610de9565b34801561042557600080fd5b50610289610e1d565b34801561043a57600080fd5b50610289610449366004612d08565b610fc1565b34801561045a57600080fd5b5061034b610469366004612c10565b610fdc565b34801561047a57600080fd5b5061034b610489366004612dbb565b6001600160a01b031660009081526014602052604090205490565b3480156104b057600080fd5b5061034b600f5481565b3480156104c657600080fd5b5061034b611b5881565b3480156104dc57600080fd5b5061034b60105481565b3480156104f257600080fd5b50600c5460ff166102ab565b34801561050a57600080fd5b50610302610519366004612c10565b61106f565b34801561052a57600080fd5b5061034b601b81565b34801561053f57600080fd5b506102d56110e6565b34801561055457600080fd5b5061034b610563366004612dbb565b611174565b34801561057457600080fd5b506102896111fb565b34801561058957600080fd5b5061059d610598366004612dbb565b61122f565b6040516102b79190612dd8565b3480156105b657600080fd5b5061034b603681565b3480156105cb57600080fd5b50610289611381565b3480156105e057600080fd5b5061034b6113b3565b3480156105f557600080fd5b506007546001600160a01b0316610302565b34801561061357600080fd5b506102d5611426565b34801561062857600080fd5b5061034b600d5481565b34801561063e57600080fd5b5061028961064d366004612e2a565b611435565b34801561065e57600080fd5b5061028961066d366004612dbb565b611440565b61028961148c565b34801561068657600080fd5b5061034b61175f565b34801561069b57600080fd5b506102896106aa366004612e79565b6117a9565b3480156106bb57600080fd5b506102896106ca366004612cdc565b6117e1565b3480156106db57600080fd5b506102d56106ea366004612c10565b611970565b3480156106fb57600080fd5b5061028961070a366004612c10565b61197b565b34801561071b57600080fd5b506102d56119aa565b34801561073057600080fd5b506102ab61073f366004612f59565b6001600160a01b03918216600090815260056020908152604080832093909416825291909152205460ff1690565b34801561077957600080fd5b50610289610788366004612dbb565b6119b9565b60006107976113b3565b905081600e546107a79190612f9d565b34101561080d5760405162461bcd60e51b815260206004820152602960248201527f4e6f7420656e6f75676820457468657220746f207265736572766520746865736044820152686520706f7373756d7360b81b60648201526084015b60405180910390fd5b6000821161085d5760405162461bcd60e51b815260206004820152601e60248201527f6e65656420746f2072657365727665206174206c656173742031204e465400006044820152606401610804565b3360009081526014602052604090205460369061087b908490612fbc565b111580156108a55750336000908152601360205260409020546036906108a2908490612fbc565b11155b6108f15760405162461bcd60e51b815260206004820152601f60248201527f596f752063616e6e6f742072657365727665206d6f726520706f7373756d73006044820152606401610804565b818110156109415760405162461bcd60e51b815260206004820152601760248201527f4e6f7420656e6f75676820506f7373756d73206c6566740000000000000000006044820152606401610804565b601b82111561098b5760405162461bcd60e51b815260206004820152601660248201527526b0bc10191b903832b9103a3930b739b0b1ba34b7b760511b6044820152606401610804565b60005b828110156109e35760006109a0611a54565b604051909150819033907f904dcdc411e931497b95b06ddf8f8184815dd3bedc3c7c7cd4aed3ccd30783d890600090a350806109db81612fd4565b91505061098e565b505050565b60006109f382611aff565b92915050565b606060008054610a0890612fef565b80601f0160208091040260200160405190810160405280929190818152602001828054610a3490612fef565b8015610a815780601f10610a5657610100808354040283529160200191610a81565b820191906000526020600020905b815481529060010190602001808311610a6457829003601f168201915b5050505050905090565b6000610a9682611b24565b610af75760405162461bcd60e51b815260206004820152602c60248201527f4552433732313a20617070726f76656420717565727920666f72206e6f6e657860448201526b34b9ba32b73a103a37b5b2b760a11b6064820152608401610804565b506000908152600460205260409020546001600160a01b031690565b6000610b1e8261106f565b9050806001600160a01b0316836001600160a01b03161415610b8c5760405162461bcd60e51b815260206004820152602160248201527f4552433732313a20617070726f76616c20746f2063757272656e74206f776e656044820152603960f91b6064820152608401610804565b336001600160a01b0382161480610ba85750610ba8813361073f565b610c1a5760405162461bcd60e51b815260206004820152603860248201527f4552433732313a20617070726f76652063616c6c6572206973206e6f74206f7760448201527f6e6572206e6f7220617070726f76656420666f7220616c6c00000000000000006064820152608401610804565b6109e38383611b41565b610c2e3382611baf565b610c4a5760405162461bcd60e51b815260040161080490613024565b6109e3838383611c99565b6000610c6083611174565b8210610cc25760405162461bcd60e51b815260206004820152602b60248201527f455243373231456e756d657261626c653a206f776e657220696e646578206f7560448201526a74206f6620626f756e647360a81b6064820152608401610804565b506001600160a01b03919091166000908152600860209081526040808320938352929052205490565b6007546001600160a01b03163314610d155760405162461bcd60e51b815260040161080490613075565b6109e360128383612b03565b6007546001600160a01b03163314610d4b5760405162461bcd60e51b815260040161080490613075565b60004711610d9b5760405162461bcd60e51b815260206004820152601760248201527f6e6f2045544820696e2074686520636f6e74726163742e0000000000000000006044820152606401610804565b476000610db06007546001600160a01b031690565b6040519091506001600160a01b0382169083156108fc029084906000818181858888f193505050501580156109e3573d6000803e3d6000fd5b6007546001600160a01b03163314610e135760405162461bcd60e51b815260040161080490613075565b610e1b611e44565b565b6007546001600160a01b03163314610e475760405162461bcd60e51b815260040161080490613075565b60115460408051631332545760e11b815290516000926001600160a01b031691632664a8ae9160048083019260209291908290030181865afa158015610e91573d6000803e3d6000fd5b505050506040513d601f19601f82011682018060405250810190610eb591906130aa565b90508015610f135760405162461bcd60e51b815260206004820152602560248201527f596f752063616e206f6e6c79207072656d696e742074686520506f7373756d73604482015264206f6e636560d81b6064820152608401610804565b601154600d54604051631c8ac9a560e31b81526001600160a01b039092169163e4564d2891610f489160040190815260200190565b6020604051808303816000875af1158015610f67573d6000803e3d6000fd5b505050506040513d601f19601f82011682018060405250810190610f8b91906130aa565b610f9457600080fd5b60005b600d54811015610fbd57610fab3382611ed7565b80610fb581612fd4565b915050610f97565b5050565b6109e3838383604051806020016040528060008152506117a9565b6000610fe7600a5490565b821061104a5760405162461bcd60e51b815260206004820152602c60248201527f455243373231456e756d657261626c653a20676c6f62616c20696e646578206f60448201526b7574206f6620626f756e647360a01b6064820152608401610804565b600a828154811061105d5761105d6130c7565b90600052602060002001549050919050565b6000818152600260205260408120546001600160a01b0316806109f35760405162461bcd60e51b815260206004820152602960248201527f4552433732313a206f776e657220717565727920666f72206e6f6e657869737460448201526832b73a103a37b5b2b760b91b6064820152608401610804565b601280546110f390612fef565b80601f016020809104026020016040519081016040528092919081815260200182805461111f90612fef565b801561116c5780601f106111415761010080835404028352916020019161116c565b820191906000526020600020905b81548152906001019060200180831161114f57829003601f168201915b505050505081565b60006001600160a01b0382166111df5760405162461bcd60e51b815260206004820152602a60248201527f4552433732313a2062616c616e636520717565727920666f7220746865207a65604482015269726f206164647265737360b01b6064820152608401610804565b506001600160a01b031660009081526003602052604090205490565b6007546001600160a01b031633146112255760405162461bcd60e51b815260040161080490613075565b610e1b600061200b565b6001600160a01b0381166000908152601460205260409020546060906112975760405162461bcd60e51b815260206004820152601e60248201527f57616c6c657420686173206e6f20726573657276656420706f7373756d7300006044820152606401610804565b6001600160a01b03821660009081526014602052604090205467ffffffffffffffff8111156112c8576112c8612e63565b6040519080825280602002602001820160405280156112f1578160200160208202803683370190505b50905060005b6001600160a01b03831660009081526014602052604090205481101561137b576001600160a01b0383166000908152601460205260409020805482908110611341576113416130c7565b906000526020600020015482828151811061135e5761135e6130c7565b60209081029190910101528061137381612fd4565b9150506112f7565b50919050565b6007546001600160a01b031633146113ab5760405162461bcd60e51b815260040161080490613075565b610e1b61205d565b60115460408051638481de5f60e01b815290516000926001600160a01b031691638481de5f9160048083019260209291908290030181865afa1580156113fd573d6000803e3d6000fd5b505050506040513d601f19601f8201168201806040525081019061142191906130dd565b905090565b606060018054610a0890612fef565b610fbd3383836120d8565b6007546001600160a01b0316331461146a5760405162461bcd60e51b815260040161080490613075565b601180546001600160a01b0319166001600160a01b0392909216919091179055565b61149461175f565b158015906114a85750426114a661175f565b105b6114e85760405162461bcd60e51b8152602060048201526011602482015270596f752061726520746f6f206561726c7960781b6044820152606401610804565b60006114f261175f565b33600090815260146020526040902054909150806115525760405162461bcd60e51b815260206004820152601c60248201527f796f752068617665206e6f20726573657276656420706f7373756d73000000006044820152606401610804565b428210806115645750611b5860105410155b61156d57600080fd5b336000908152601360205260409020546036101561158a57600080fd5b600080601160009054906101000a90046001600160a01b03166001600160a01b031663eb6ad24e6040518163ffffffff1660e01b8152600401602060405180830381865afa1580156115e0573d6000803e3d6000fd5b505050506040513d601f19601f8201168201806040525081019061160491906130dd565b9050806116535760405162461bcd60e51b815260206004820152601f60248201527f506f7373756d73206e6f7420726561647920746f20626520636c61696d6564006044820152606401610804565b60005b8381101561170557336000908152601460205260408120805484919084908110611682576116826130c7565b90600052602060002001546116979190612fbc565b90506116a66001611b586130f6565b8111156116e4576001600d546116bc91906130f6565b6116c96001611b586130f6565b6116d390836130f6565b6116dd9190612fbc565b93506116e8565b8093505b6116f23385611ed7565b50806116fd81612fd4565b915050611656565b5060005b838110156117585733600090815260146020526040902080548061172f5761172f61310d565b60019003818190600052602060002001600090559055808061175090612fd4565b915050611709565b5050505050565b601154604080516344657d2760e11b815290516000926001600160a01b0316916388cafa4e9160048083019260209291908290030181865afa1580156113fd573d6000803e3d6000fd5b6117b33383611baf565b6117cf5760405162461bcd60e51b815260040161080490613024565b6117db848484846121a7565b50505050565b6007546001600160a01b0316331461180b5760405162461bcd60e51b815260040161080490613075565b6040516370a0823160e01b81523060048201526000906001600160a01b038416906370a0823190602401602060405180830381865afa158015611852573d6000803e3d6000fd5b505050506040513d601f19601f8201168201806040525081019061187691906130dd565b116118d55760405162461bcd60e51b815260206004820152602960248201527f7468697320636f6e747261637420646f6573206e6f7420636f6e7461696e20746044820152683434b9903a37b5b2b760b91b6064820152608401610804565b816001600160a01b031663a9059cbb6118f66007546001600160a01b031690565b6040516001600160e01b031960e084901b1681526001600160a01b039091166004820152602481018490526044016020604051808303816000875af1158015611943573d6000803e3d6000fd5b505050506040513d601f19601f8201168201806040525081019061196791906130aa565b610fbd57600080fd5b60606109f3826121da565b6007546001600160a01b031633146119a55760405162461bcd60e51b815260040161080490613075565b600e55565b606060128054610a0890612fef565b6007546001600160a01b031633146119e35760405162461bcd60e51b815260040161080490613075565b6001600160a01b038116611a485760405162461bcd60e51b815260206004820152602660248201527f4f776e61626c653a206e6577206f776e657220697320746865207a65726f206160448201526564647265737360d01b6064820152608401610804565b611a518161200b565b50565b6011546040805163c6410f7b60e01b815290516000926001600160a01b03169163c6410f7b916004808301926020929190829003018187875af1158015611a9f573d6000803e3d6000fd5b505050506040513d601f19601f82011682018060405250810190611ac391906130dd565b33600090815260146020908152604082208054600181018255908352908220018290556010805492935090611af783612fd4565b919050555090565b60006001600160e01b0319821663780e9d6360e01b14806109f357506109f38261233c565b6000908152600260205260409020546001600160a01b0316151590565b600081815260046020526040902080546001600160a01b0319166001600160a01b0384169081179091558190611b768261106f565b6001600160a01b03167f8c5be1e5ebec7d5bd14f71427d1e84f3dd0314c0f7b2291e5b200ac8c7c3b92560405160405180910390a45050565b6000611bba82611b24565b611c1b5760405162461bcd60e51b815260206004820152602c60248201527f4552433732313a206f70657261746f7220717565727920666f72206e6f6e657860448201526b34b9ba32b73a103a37b5b2b760a11b6064820152608401610804565b6000611c268361106f565b9050806001600160a01b0316846001600160a01b03161480611c615750836001600160a01b0316611c5684610a8b565b6001600160a01b0316145b80611c9157506001600160a01b0380821660009081526005602090815260408083209388168352929052205460ff165b949350505050565b826001600160a01b0316611cac8261106f565b6001600160a01b031614611d145760405162461bcd60e51b815260206004820152602960248201527f4552433732313a207472616e73666572206f6620746f6b656e2074686174206960448201526839903737ba1037bbb760b91b6064820152608401610804565b6001600160a01b038216611d765760405162461bcd60e51b8152602060048201526024808201527f4552433732313a207472616e7366657220746f20746865207a65726f206164646044820152637265737360e01b6064820152608401610804565b611d8183838361238c565b611d8c600082611b41565b6001600160a01b0383166000908152600360205260408120805460019290611db59084906130f6565b90915550506001600160a01b0382166000908152600360205260408120805460019290611de3908490612fbc565b909155505060008181526002602052604080822080546001600160a01b0319166001600160a01b0386811691821790925591518493918716917fddf252ad1be2c89b69c2b068fc378daa952ba7f163c4a11628f55a4df523b3ef91a4505050565b600c5460ff16611e8d5760405162461bcd60e51b815260206004820152601460248201527314185d5cd8589b194e881b9bdd081c185d5cd95960621b6044820152606401610804565b600c805460ff191690557f5db9ee0a495bf2e6ff9c91a7834c1ba4fdd244a5e8aa4e537bd38aeae4b073aa335b6040516001600160a01b03909116815260200160405180910390a1565b611b58600f541115611f2b5760405162461bcd60e51b815260206004820152601c60248201527f616c6c20506f7373756d732068617665206265656e206d696e746564000000006044820152606401610804565b611f3582826123dd565b611fc98160128054611f4690612fef565b80601f0160208091040260200160405190810160405280929190818152602001828054611f7290612fef565b8015611fbf5780601f10611f9457610100808354040283529160200191611fbf565b820191906000526020600020905b815481529060010190602001808311611fa257829003601f168201915b50505050506123f7565b600f8054906000611fd983612fd4565b90915550506001600160a01b038216600090815260136020526040812080549161200283612fd4565b91905055505050565b600780546001600160a01b038381166001600160a01b0319831681179093556040519116919082907f8be0079c531659141344cd1fd0a4f28419497f9722a3daafe3b4186f6b6457e090600090a35050565b600c5460ff16156120a35760405162461bcd60e51b815260206004820152601060248201526f14185d5cd8589b194e881c185d5cd95960821b6044820152606401610804565b600c805460ff191660011790557f62e78cea01bee320cd4e420270b5ea74000d11b0c9f74754ebdbfc544b05a258611eba3390565b816001600160a01b0316836001600160a01b0316141561213a5760405162461bcd60e51b815260206004820152601960248201527f4552433732313a20617070726f766520746f2063616c6c6572000000000000006044820152606401610804565b6001600160a01b03838116600081815260056020908152604080832094871680845294825291829020805460ff191686151590811790915591519182527f17307eab39ab6107e8899845ad3d59bd9653f200f220920489ca2b5937696c31910160405180910390a3505050565b6121b2848484611c99565b6121be84848484612482565b6117db5760405162461bcd60e51b815260040161080490613123565b60606121e582611b24565b61224b5760405162461bcd60e51b815260206004820152603160248201527f45524337323155524953746f726167653a2055524920717565727920666f72206044820152703737b732bc34b9ba32b73a103a37b5b2b760791b6064820152608401610804565b6000828152600660205260408120805461226490612fef565b80601f016020809104026020016040519081016040528092919081815260200182805461229090612fef565b80156122dd5780601f106122b2576101008083540402835291602001916122dd565b820191906000526020600020905b8154815290600101906020018083116122c057829003601f168201915b5050505050905060006122ee6119aa565b9050805160001415612301575092915050565b81511561233357808260405160200161231b929190613175565b60405160208183030381529060405292505050919050565b611c9184612580565b60006001600160e01b031982166380ac58cd60e01b148061236d57506001600160e01b03198216635b5e139f60e01b145b806109f357506301ffc9a760e01b6001600160e01b03198316146109f3565b600c5460ff16156123d25760405162461bcd60e51b815260206004820152601060248201526f14185d5cd8589b194e881c185d5cd95960821b6044820152606401610804565b6109e383838361264b565b610fbd828260405180602001604052806000815250612703565b61240082611b24565b6124635760405162461bcd60e51b815260206004820152602e60248201527f45524337323155524953746f726167653a2055524920736574206f66206e6f6e60448201526d32bc34b9ba32b73a103a37b5b2b760911b6064820152608401610804565b600082815260066020908152604090912082516109e392840190612b87565b60006001600160a01b0384163b1561257557604051630a85bd0160e11b81526001600160a01b0385169063150b7a02906124c69033908990889088906004016131a4565b6020604051808303816000875af1925050508015612501575060408051601f3d908101601f191682019092526124fe918101906131e1565b60015b61255b573d80801561252f576040519150601f19603f3d011682016040523d82523d6000602084013e612534565b606091505b5080516125535760405162461bcd60e51b815260040161080490613123565b805181602001fd5b6001600160e01b031916630a85bd0160e11b149050611c91565b506001949350505050565b606061258b82611b24565b6125ef5760405162461bcd60e51b815260206004820152602f60248201527f4552433732314d657461646174613a2055524920717565727920666f72206e6f60448201526e3732bc34b9ba32b73a103a37b5b2b760891b6064820152608401610804565b60006125f96119aa565b905060008151116126195760405180602001604052806000815250612644565b8061262384612736565b604051602001612634929190613175565b6040516020818303038152906040525b9392505050565b6001600160a01b0383166126a6576126a181600a80546000838152600b60205260408120829055600182018355919091527fc65a7bb8d6351c1cf70c95a316cc6a92839c986682d98bc35f958f4883f9d2a80155565b6126c9565b816001600160a01b0316836001600160a01b0316146126c9576126c98382612834565b6001600160a01b0382166126e0576109e3816128d1565b826001600160a01b0316826001600160a01b0316146109e3576109e38282612980565b61270d83836129c4565b61271a6000848484612482565b6109e35760405162461bcd60e51b815260040161080490613123565b60608161275a5750506040805180820190915260018152600360fc1b602082015290565b8160005b8115612784578061276e81612fd4565b915061277d9050600a83613214565b915061275e565b60008167ffffffffffffffff81111561279f5761279f612e63565b6040519080825280601f01601f1916602001820160405280156127c9576020820181803683370190505b5090505b8415611c91576127de6001836130f6565b91506127eb600a86613228565b6127f6906030612fbc565b60f81b81838151811061280b5761280b6130c7565b60200101906001600160f81b031916908160001a90535061282d600a86613214565b94506127cd565b6000600161284184611174565b61284b91906130f6565b60008381526009602052604090205490915080821461289e576001600160a01b03841660009081526008602090815260408083208584528252808320548484528184208190558352600990915290208190555b5060009182526009602090815260408084208490556001600160a01b039094168352600881528383209183525290812055565b600a546000906128e3906001906130f6565b6000838152600b6020526040812054600a805493945090928490811061290b5761290b6130c7565b9060005260206000200154905080600a838154811061292c5761292c6130c7565b6000918252602080832090910192909255828152600b9091526040808220849055858252812055600a8054806129645761296461310d565b6001900381819060005260206000200160009055905550505050565b600061298b83611174565b6001600160a01b039093166000908152600860209081526040808320868452825280832085905593825260099052919091209190915550565b6001600160a01b038216612a1a5760405162461bcd60e51b815260206004820181905260248201527f4552433732313a206d696e7420746f20746865207a65726f20616464726573736044820152606401610804565b612a2381611b24565b15612a705760405162461bcd60e51b815260206004820152601c60248201527f4552433732313a20746f6b656e20616c7265616479206d696e746564000000006044820152606401610804565b612a7c6000838361238c565b6001600160a01b0382166000908152600360205260408120805460019290612aa5908490612fbc565b909155505060008181526002602052604080822080546001600160a01b0319166001600160a01b03861690811790915590518392907fddf252ad1be2c89b69c2b068fc378daa952ba7f163c4a11628f55a4df523b3ef908290a45050565b828054612b0f90612fef565b90600052602060002090601f016020900481019282612b315760008555612b77565b82601f10612b4a5782800160ff19823516178555612b77565b82800160010185558215612b77579182015b82811115612b77578235825591602001919060010190612b5c565b50612b83929150612bfb565b5090565b828054612b9390612fef565b90600052602060002090601f016020900481019282612bb55760008555612b77565b82601f10612bce57805160ff1916838001178555612b77565b82800160010185558215612b77579182015b82811115612b77578251825591602001919060010190612be0565b5b80821115612b835760008155600101612bfc565b600060208284031215612c2257600080fd5b5035919050565b6001600160e01b031981168114611a5157600080fd5b600060208284031215612c5157600080fd5b813561264481612c29565b60005b83811015612c77578181015183820152602001612c5f565b838111156117db5750506000910152565b60008151808452612ca0816020860160208601612c5c565b601f01601f19169290920160200192915050565b6020815260006126446020830184612c88565b6001600160a01b0381168114611a5157600080fd5b60008060408385031215612cef57600080fd5b8235612cfa81612cc7565b946020939093013593505050565b600080600060608486031215612d1d57600080fd5b8335612d2881612cc7565b92506020840135612d3881612cc7565b929592945050506040919091013590565b60008060208385031215612d5c57600080fd5b823567ffffffffffffffff80821115612d7457600080fd5b818501915085601f830112612d8857600080fd5b813581811115612d9757600080fd5b866020828501011115612da957600080fd5b60209290920196919550909350505050565b600060208284031215612dcd57600080fd5b813561264481612cc7565b6020808252825182820181905260009190848201906040850190845b81811015612e1057835183529284019291840191600101612df4565b50909695505050505050565b8015158114611a5157600080fd5b60008060408385031215612e3d57600080fd5b8235612e4881612cc7565b91506020830135612e5881612e1c565b809150509250929050565b634e487b7160e01b600052604160045260246000fd5b60008060008060808587031215612e8f57600080fd5b8435612e9a81612cc7565b93506020850135612eaa81612cc7565b925060408501359150606085013567ffffffffffffffff80821115612ece57600080fd5b818701915087601f830112612ee257600080fd5b813581811115612ef457612ef4612e63565b604051601f8201601f19908116603f01168101908382118183101715612f1c57612f1c612e63565b816040528281528a6020848701011115612f3557600080fd5b82602086016020830137600060208483010152809550505050505092959194509250565b60008060408385031215612f6c57600080fd5b8235612f7781612cc7565b91506020830135612e5881612cc7565b634e487b7160e01b600052601160045260246000fd5b6000816000190483118215151615612fb757612fb7612f87565b500290565b60008219821115612fcf57612fcf612f87565b500190565b6000600019821415612fe857612fe8612f87565b5060010190565b600181811c9082168061300357607f821691505b6020821081141561137b57634e487b7160e01b600052602260045260246000fd5b60208082526031908201527f4552433732313a207472616e736665722063616c6c6572206973206e6f74206f6040820152701ddb995c881b9bdc88185c1c1c9bdd9959607a1b606082015260800190565b6020808252818101527f4f776e61626c653a2063616c6c6572206973206e6f7420746865206f776e6572604082015260600190565b6000602082840312156130bc57600080fd5b815161264481612e1c565b634e487b7160e01b600052603260045260246000fd5b6000602082840312156130ef57600080fd5b5051919050565b60008282101561310857613108612f87565b500390565b634e487b7160e01b600052603160045260246000fd5b60208082526032908201527f4552433732313a207472616e7366657220746f206e6f6e20455243373231526560408201527131b2b4bb32b91034b6b83632b6b2b73a32b960711b606082015260800190565b60008351613187818460208801612c5c565b83519083019061319b818360208801612c5c565b01949350505050565b6001600160a01b03858116825284166020820152604081018390526080606082018190526000906131d790830184612c88565b9695505050505050565b6000602082840312156131f357600080fd5b815161264481612c29565b634e487b7160e01b600052601260045260246000fd5b600082613223576132236131fe565b500490565b600082613237576132376131fe565b50069056fea2646970667358221220c832547233ebcdaf05c576b46c420de6b8b05bb8e98a6aa9b2488e939ac692cc64736f6c634300080a0033",
  "linkReferences": {},
  "deployedLinkReferences": {}
}