{
  "_format": "hh-sol-artifact-1",
  "contractName": "TrashPossums",
  "sourceName": "contracts/TrashPossums.sol",
  "abi": [
    {
      "inputs": [
        {
          "internalType": "uint256",
          "name": "_possumPrice",
          "type": "uint256"
        },
        {
          "internalType": "uint256",
          "name": "_startMintDate",
          "type": "uint256"
        },
        {
          "internalType": "string",
          "name": "_baseUri",
          "type": "string"
        },
        {
          "internalType": "address",
          "name": "_randomness",
          "type": "address"
        },
        {
          "internalType": "uint256",
          "name": "_premintCount",
          "type": "uint256"
        }
      ],
      "stateMutability": "nonpayable",
      "type": "constructor"
    },
    {
      "anonymous": false,
      "inputs": [
        {
          "indexed": true,
          "internalType": "address",
          "name": "owner",
          "type": "address"
        },
        {
          "indexed": true,
          "internalType": "address",
          "name": "approved",
          "type": "address"
        },
        {
          "indexed": true,
          "internalType": "uint256",
          "name": "tokenId",
          "type": "uint256"
        }
      ],
      "name": "Approval",
      "type": "event"
    },
    {
      "anonymous": false,
      "inputs": [
        {
          "indexed": true,
          "internalType": "address",
          "name": "owner",
          "type": "address"
        },
        {
          "indexed": true,
          "internalType": "address",
          "name": "operator",
          "type": "address"
        },
        {
          "indexed": false,
          "internalType": "bool",
          "name": "approved",
          "type": "bool"
        }
      ],
      "name": "ApprovalForAll",
      "type": "event"
    },
    {
      "anonymous": false,
      "inputs": [
        {
          "indexed": true,
          "internalType": "address",
          "name": "previousOwner",
          "type": "address"
        },
        {
          "indexed": true,
          "internalType": "address",
          "name": "newOwner",
          "type": "address"
        }
      ],
      "name": "OwnershipTransferred",
      "type": "event"
    },
    {
      "anonymous": false,
      "inputs": [
        {
          "indexed": false,
          "internalType": "address",
          "name": "account",
          "type": "address"
        }
      ],
      "name": "Paused",
      "type": "event"
    },
    {
      "anonymous": false,
      "inputs": [
        {
          "indexed": true,
          "internalType": "address",
          "name": "to",
          "type": "address"
        },
        {
          "indexed": true,
          "internalType": "uint256",
          "name": "tokenId",
          "type": "uint256"
        }
      ],
      "name": "Reserved",
      "type": "event"
    },
    {
      "anonymous": false,
      "inputs": [
        {
          "indexed": true,
          "internalType": "address",
          "name": "from",
          "type": "address"
        },
        {
          "indexed": true,
          "internalType": "address",
          "name": "to",
          "type": "address"
        },
        {
          "indexed": true,
          "internalType": "uint256",
          "name": "tokenId",
          "type": "uint256"
        }
      ],
      "name": "Transfer",
      "type": "event"
    },
    {
      "anonymous": false,
      "inputs": [
        {
          "indexed": false,
          "internalType": "address",
          "name": "account",
          "type": "address"
        }
      ],
      "name": "Unpaused",
      "type": "event"
    },
    {
      "inputs": [
        {
          "internalType": "address",
          "name": "to",
          "type": "address"
        },
        {
          "internalType": "uint256",
          "name": "tokenId",
          "type": "uint256"
        }
      ],
      "name": "approve",
      "outputs": [],
      "stateMutability": "nonpayable",
      "type": "function"
    },
    {
      "inputs": [
        {
          "internalType": "address",
          "name": "owner",
          "type": "address"
        }
      ],
      "name": "balanceOf",
      "outputs": [
        {
          "internalType": "uint256",
          "name": "",
          "type": "uint256"
        }
      ],
      "stateMutability": "view",
      "type": "function"
    },
    {
      "inputs": [],
      "name": "baseTokenURI",
      "outputs": [
        {
          "internalType": "string",
          "name": "",
          "type": "string"
        }
      ],
      "stateMutability": "view",
      "type": "function"
    },
    {
      "inputs": [],
      "name": "baseURI",
      "outputs": [
        {
          "internalType": "string",
          "name": "",
          "type": "string"
        }
      ],
      "stateMutability": "view",
      "type": "function"
    },
    {
      "inputs": [],
      "name": "claimPossums",
      "outputs": [],
      "stateMutability": "payable",
      "type": "function"
    },
    {
      "inputs": [],
      "name": "contractURI",
      "outputs": [
        {
          "internalType": "string",
          "name": "",
          "type": "string"
        }
      ],
      "stateMutability": "view",
      "type": "function"
    },
    {
      "inputs": [
        {
          "internalType": "uint256",
          "name": "tokenId",
          "type": "uint256"
        }
      ],
      "name": "getApproved",
      "outputs": [
        {
          "internalType": "address",
          "name": "",
          "type": "address"
        }
      ],
      "stateMutability": "view",
      "type": "function"
    },
    {
      "inputs": [],
      "name": "getAvailablePossums",
      "outputs": [
        {
          "internalType": "uint256",
          "name": "",
          "type": "uint256"
        }
      ],
      "stateMutability": "view",
      "type": "function"
    },
    {
      "inputs": [],
      "name": "getBalance",
      "outputs": [
        {
          "internalType": "uint256",
          "name": "",
          "type": "uint256"
        }
      ],
      "stateMutability": "view",
      "type": "function"
    },
    {
      "inputs": [],
      "name": "getClaimDate",
      "outputs": [
        {
          "internalType": "uint256",
          "name": "",
          "type": "uint256"
        }
      ],
      "stateMutability": "view",
      "type": "function"
    },
    {
      "inputs": [],
      "name": "getMintingStartDate",
      "outputs": [
        {
          "internalType": "uint256",
          "name": "",
          "type": "uint256"
        }
      ],
      "stateMutability": "view",
      "type": "function"
    },
    {
      "inputs": [],
      "name": "getNumberOfReservedPossums",
      "outputs": [
        {
          "internalType": "uint256",
          "name": "",
          "type": "uint256"
        }
      ],
      "stateMutability": "view",
      "type": "function"
    },
    {
      "inputs": [],
      "name": "getPossumPrice",
      "outputs": [
        {
          "internalType": "uint256",
          "name": "",
          "type": "uint256"
        }
      ],
      "stateMutability": "view",
      "type": "function"
    },
    {
      "inputs": [
        {
          "internalType": "address",
          "name": "_wallet",
          "type": "address"
        }
      ],
      "name": "getReservedPossumIds",
      "outputs": [
        {
          "internalType": "uint256[]",
          "name": "reservedIds",
          "type": "uint256[]"
        }
      ],
      "stateMutability": "view",
      "type": "function"
    },
    {
      "inputs": [
        {
          "internalType": "address",
          "name": "_wallet",
          "type": "address"
        }
      ],
      "name": "getReservedPossumsPerWallet",
      "outputs": [
        {
          "internalType": "uint256",
          "name": "",
          "type": "uint256"
        }
      ],
      "stateMutability": "view",
      "type": "function"
    },
    {
      "inputs": [],
      "name": "getTotalMintedPossums",
      "outputs": [
        {
          "internalType": "uint256",
          "name": "",
          "type": "uint256"
        }
      ],
      "stateMutability": "view",
      "type": "function"
    },
    {
      "inputs": [],
      "name": "getTotalPossums",
      "outputs": [
        {
          "internalType": "uint256",
          "name": "",
          "type": "uint256"
        }
      ],
      "stateMutability": "pure",
      "type": "function"
    },
    {
      "inputs": [
        {
          "internalType": "address",
          "name": "owner",
          "type": "address"
        },
        {
          "internalType": "address",
          "name": "operator",
          "type": "address"
        }
      ],
      "name": "isApprovedForAll",
      "outputs": [
        {
          "internalType": "bool",
          "name": "",
          "type": "bool"
        }
      ],
      "stateMutability": "view",
      "type": "function"
    },
    {
      "inputs": [],
      "name": "maxPossumsPerTransaction",
      "outputs": [
        {
          "internalType": "uint256",
          "name": "",
          "type": "uint256"
        }
      ],
      "stateMutability": "view",
      "type": "function"
    },
    {
      "inputs": [],
      "name": "maxPossumsPerWallet",
      "outputs": [
        {
          "internalType": "uint256",
          "name": "",
          "type": "uint256"
        }
      ],
      "stateMutability": "view",
      "type": "function"
    },
    {
      "inputs": [],
      "name": "name",
      "outputs": [
        {
          "internalType": "string",
          "name": "",
          "type": "string"
        }
      ],
      "stateMutability": "view",
      "type": "function"
    },
    {
      "inputs": [],
      "name": "numberOfReservedPossums",
      "outputs": [
        {
          "internalType": "uint256",
          "name": "",
          "type": "uint256"
        }
      ],
      "stateMutability": "view",
      "type": "function"
    },
    {
      "inputs": [],
      "name": "owner",
      "outputs": [
        {
          "internalType": "address",
          "name": "",
          "type": "address"
        }
      ],
      "stateMutability": "view",
      "type": "function"
    },
    {
      "inputs": [
        {
          "internalType": "uint256",
          "name": "tokenId",
          "type": "uint256"
        }
      ],
      "name": "ownerOf",
      "outputs": [
        {
          "internalType": "address",
          "name": "",
          "type": "address"
        }
      ],
      "stateMutability": "view",
      "type": "function"
    },
    {
      "inputs": [],
      "name": "pause",
      "outputs": [],
      "stateMutability": "nonpayable",
      "type": "function"
    },
    {
      "inputs": [],
      "name": "paused",
      "outputs": [
        {
          "internalType": "bool",
          "name": "",
          "type": "bool"
        }
      ],
      "stateMutability": "view",
      "type": "function"
    },
    {
      "inputs": [],
      "name": "possumPrice",
      "outputs": [
        {
          "internalType": "uint256",
          "name": "",
          "type": "uint256"
        }
      ],
      "stateMutability": "view",
      "type": "function"
    },
    {
      "inputs": [],
      "name": "premintCount",
      "outputs": [
        {
          "internalType": "uint256",
          "name": "",
          "type": "uint256"
        }
      ],
      "stateMutability": "view",
      "type": "function"
    },
    {
      "inputs": [],
      "name": "premintPossums",
      "outputs": [],
      "stateMutability": "nonpayable",
      "type": "function"
    },
    {
      "inputs": [],
      "name": "randomness",
      "outputs": [
        {
          "internalType": "address",
          "name": "",
          "type": "address"
        }
      ],
      "stateMutability": "view",
      "type": "function"
    },
    {
      "inputs": [],
      "name": "renounceOwnership",
      "outputs": [],
      "stateMutability": "nonpayable",
      "type": "function"
    },
    {
      "inputs": [
        {
          "internalType": "uint256",
          "name": "amount",
          "type": "uint256"
        }
      ],
      "name": "reservePossums",
      "outputs": [],
      "stateMutability": "payable",
      "type": "function"
    },
    {
      "inputs": [
        {
          "internalType": "address",
          "name": "from",
          "type": "address"
        },
        {
          "internalType": "address",
          "name": "to",
          "type": "address"
        },
        {
          "internalType": "uint256",
          "name": "tokenId",
          "type": "uint256"
        }
      ],
      "name": "safeTransferFrom",
      "outputs": [],
      "stateMutability": "nonpayable",
      "type": "function"
    },
    {
      "inputs": [
        {
          "internalType": "address",
          "name": "from",
          "type": "address"
        },
        {
          "internalType": "address",
          "name": "to",
          "type": "address"
        },
        {
          "internalType": "uint256",
          "name": "tokenId",
          "type": "uint256"
        },
        {
          "internalType": "bytes",
          "name": "_data",
          "type": "bytes"
        }
      ],
      "name": "safeTransferFrom",
      "outputs": [],
      "stateMutability": "nonpayable",
      "type": "function"
    },
    {
      "inputs": [
        {
          "internalType": "address",
          "name": "operator",
          "type": "address"
        },
        {
          "internalType": "bool",
          "name": "approved",
          "type": "bool"
        }
      ],
      "name": "setApprovalForAll",
      "outputs": [],
      "stateMutability": "nonpayable",
      "type": "function"
    },
    {
      "inputs": [
        {
          "internalType": "string",
          "name": "_tokenURI",
          "type": "string"
        }
      ],
      "name": "setBaseTokenURI",
      "outputs": [],
      "stateMutability": "nonpayable",
      "type": "function"
    },
    {
      "inputs": [
        {
          "internalType": "uint256",
          "name": "_possumPrice",
          "type": "uint256"
        }
      ],
      "name": "setPossumPrice",
      "outputs": [],
      "stateMutability": "nonpayable",
      "type": "function"
    },
    {
      "inputs": [
        {
          "internalType": "address",
          "name": "_randomness",
          "type": "address"
        }
      ],
      "name": "setRandomness",
      "outputs": [],
      "stateMutability": "nonpayable",
      "type": "function"
    },
    {
      "inputs": [
        {
          "internalType": "uint256",
          "name": "_startMintDate",
          "type": "uint256"
        }
      ],
      "name": "setStartMintDate",
      "outputs": [],
      "stateMutability": "nonpayable",
      "type": "function"
    },
    {
      "inputs": [],
      "name": "startMintDate",
      "outputs": [
        {
          "internalType": "uint256",
          "name": "",
          "type": "uint256"
        }
      ],
      "stateMutability": "view",
      "type": "function"
    },
    {
      "inputs": [
        {
          "internalType": "bytes4",
          "name": "interfaceId",
          "type": "bytes4"
        }
      ],
      "name": "supportsInterface",
      "outputs": [
        {
          "internalType": "bool",
          "name": "",
          "type": "bool"
        }
      ],
      "stateMutability": "view",
      "type": "function"
    },
    {
      "inputs": [],
      "name": "symbol",
      "outputs": [
        {
          "internalType": "string",
          "name": "",
          "type": "string"
        }
      ],
      "stateMutability": "view",
      "type": "function"
    },
    {
      "inputs": [
        {
          "internalType": "uint256",
          "name": "index",
          "type": "uint256"
        }
      ],
      "name": "tokenByIndex",
      "outputs": [
        {
          "internalType": "uint256",
          "name": "",
          "type": "uint256"
        }
      ],
      "stateMutability": "view",
      "type": "function"
    },
    {
      "inputs": [
        {
          "internalType": "address",
          "name": "owner",
          "type": "address"
        },
        {
          "internalType": "uint256",
          "name": "index",
          "type": "uint256"
        }
      ],
      "name": "tokenOfOwnerByIndex",
      "outputs": [
        {
          "internalType": "uint256",
          "name": "",
          "type": "uint256"
        }
      ],
      "stateMutability": "view",
      "type": "function"
    },
    {
      "inputs": [
        {
          "internalType": "uint256",
          "name": "tokenId",
          "type": "uint256"
        }
      ],
      "name": "tokenURI",
      "outputs": [
        {
          "internalType": "string",
          "name": "",
          "type": "string"
        }
      ],
      "stateMutability": "view",
      "type": "function"
    },
    {
      "inputs": [],
      "name": "totalMintedPossums",
      "outputs": [
        {
          "internalType": "uint256",
          "name": "",
          "type": "uint256"
        }
      ],
      "stateMutability": "view",
      "type": "function"
    },
    {
      "inputs": [],
      "name": "totalPossums",
      "outputs": [
        {
          "internalType": "uint256",
          "name": "",
          "type": "uint256"
        }
      ],
      "stateMutability": "view",
      "type": "function"
    },
    {
      "inputs": [],
      "name": "totalSupply",
      "outputs": [
        {
          "internalType": "uint256",
          "name": "",
          "type": "uint256"
        }
      ],
      "stateMutability": "view",
      "type": "function"
    },
    {
      "inputs": [
        {
          "internalType": "address",
          "name": "from",
          "type": "address"
        },
        {
          "internalType": "address",
          "name": "to",
          "type": "address"
        },
        {
          "internalType": "uint256",
          "name": "tokenId",
          "type": "uint256"
        }
      ],
      "name": "transferFrom",
      "outputs": [],
      "stateMutability": "nonpayable",
      "type": "function"
    },
    {
      "inputs": [
        {
          "internalType": "address",
          "name": "newOwner",
          "type": "address"
        }
      ],
      "name": "transferOwnership",
      "outputs": [],
      "stateMutability": "nonpayable",
      "type": "function"
    },
    {
      "inputs": [],
      "name": "unpause",
      "outputs": [],
      "stateMutability": "nonpayable",
      "type": "function"
    },
    {
      "inputs": [],
      "name": "withdraw",
      "outputs": [],
      "stateMutability": "payable",
      "type": "function"
    },
    {
      "inputs": [
        {
          "internalType": "contract IERC20",
          "name": "token",
          "type": "address"
        },
        {
          "internalType": "uint256",
          "name": "_amount",
          "type": "uint256"
        }
      ],
      "name": "withdrawErc20",
      "outputs": [],
      "stateMutability": "nonpayable",
      "type": "function"
    },
    {
      "stateMutability": "payable",
      "type": "receive"
    }
  ],
  "bytecode": "0x60806040523480156200001157600080fd5b506040516200376238038062003762833981016040819052620000349162000240565b604080518082018252600d81526c547261736820506f7373756d7360981b60208083019182528351808501909452600584526454504f535360d81b908401528151919291620000869160009162000167565b5080516200009c90600190602084019062000167565b505050620000b9620000b36200011160201b60201c565b62000115565b600c805460ff19169055600f859055600e8490558251620000e290601390602086019062000167565b50601280546001600160a01b0319166001600160a01b039390931692909217909155600d55506200038d915050565b3390565b600780546001600160a01b038381166001600160a01b0319831681179093556040519116919082907f8be0079c531659141344cd1fd0a4f28419497f9722a3daafe3b4186f6b6457e090600090a35050565b828054620001759062000350565b90600052602060002090601f016020900481019282620001995760008555620001e4565b82601f10620001b457805160ff1916838001178555620001e4565b82800160010185558215620001e4579182015b82811115620001e4578251825591602001919060010190620001c7565b50620001f2929150620001f6565b5090565b5b80821115620001f25760008155600101620001f7565b634e487b7160e01b600052604160045260246000fd5b80516001600160a01b03811681146200023b57600080fd5b919050565b600080600080600060a086880312156200025957600080fd5b855160208088015160408901519297509550906001600160401b03808211156200028257600080fd5b818901915089601f8301126200029757600080fd5b815181811115620002ac57620002ac6200020d565b604051601f8201601f19908116603f01168101908382118183101715620002d757620002d76200020d565b816040528281528c86848701011115620002f057600080fd5b600093505b82841015620003145784840186015181850187015292850192620002f5565b82841115620003265760008684830101525b8098505050505050506200033d6060870162000223565b9150608086015190509295509295909350565b600181811c908216806200036557607f821691505b602082108114156200038757634e487b7160e01b600052602260045260246000fd5b50919050565b6133c5806200039d6000396000f3fe60806040526004361061031d5760003560e01c80636c0360eb116101ab578063b031b35b116100f7578063da67e22a11610095578063e8a3d4851161006f578063e8a3d48514610807578063e985e9c514610867578063ead17506146108b0578063f2fde38b146108c557600080fd5b8063da67e22a1461081c578063dca7728414610832578063e65fadc41461085257600080fd5b8063bd1f4b52116100d1578063bd1f4b52146107b2578063c87b56dd146107d2578063cc6bbd65146107f2578063d547cfb71461080757600080fd5b8063b031b35b14610775578063b37cb09d1461077d578063b88d4fde1461079257600080fd5b80638456cb591161016457806395d89b411161013e57806395d89b411461070a5780639d9ee6731461071f578063a22cb46514610735578063a37a85e91461075557600080fd5b80638456cb59146106c25780638481de5f146106d75780638da5cb5b146106ec57600080fd5b80636c0360eb1461062157806370a0823114610636578063715018a614610656578063723bcc131461066b5780637fd3352e1461068057806384511aff146106ad57600080fd5b80633ccfd60b1161026a57806350f257e1116102235780635ba36949116101fd5780635ba36949146105be5780635c975abb146105d45780636352211e146105ec5780636ab601171461060c57600080fd5b806350f257e11461055c578063530e04bb146105925780635b46a8f2146105a857600080fd5b80633ccfd60b146104ca5780633f4ba83a146104d2578063416c585d146104e757806342842e0e146104fc578063493143e41461051c5780634f6ccce71461053c57600080fd5b806318160ddd116102d75780632f745c59116102b15780632f745c591461045457806330176e131461047457806336013189146104945780633bb240bd146104b457600080fd5b806318160ddd1461040a57806323b872dd1461041f57806325554fb11461043f57600080fd5b806261b0ec1461032957806301ffc9a71461033e57806306fdde0314610373578063081812fc14610395578063095ea7b3146103cd57806312065fe0146103ed57600080fd5b3661032457005b600080fd5b61033c610337366004612d63565b6108e5565b005b34801561034a57600080fd5b5061035e610359366004612d92565b610b92565b60405190151581526020015b60405180910390f35b34801561037f57600080fd5b50610388610ba3565b60405161036a9190612e07565b3480156103a157600080fd5b506103b56103b0366004612d63565b610c35565b6040516001600160a01b03909116815260200161036a565b3480156103d957600080fd5b5061033c6103e8366004612e2f565b610cbd565b3480156103f957600080fd5b50475b60405190815260200161036a565b34801561041657600080fd5b50600a546103fc565b34801561042b57600080fd5b5061033c61043a366004612e5b565b610dce565b34801561044b57600080fd5b506011546103fc565b34801561046057600080fd5b506103fc61046f366004612e2f565b610dff565b34801561048057600080fd5b5061033c61048f366004612e9c565b610e95565b3480156104a057600080fd5b506012546103b5906001600160a01b031681565b3480156104c057600080fd5b506103fc600f5481565b61033c610ecb565b3480156104de57600080fd5b5061033c610fa5565b3480156104f357600080fd5b5061033c610fd9565b34801561050857600080fd5b5061033c610517366004612e5b565b6110f8565b34801561052857600080fd5b5061033c610537366004612d63565b611113565b34801561054857600080fd5b506103fc610557366004612d63565b611142565b34801561056857600080fd5b506103fc610577366004612f0e565b6001600160a01b031660009081526015602052604090205490565b34801561059e57600080fd5b506103fc60105481565b3480156105b457600080fd5b506103fc611b5881565b3480156105ca57600080fd5b506103fc60115481565b3480156105e057600080fd5b50600c5460ff1661035e565b3480156105f857600080fd5b506103b5610607366004612d63565b6111d5565b34801561061857600080fd5b506103fc601b81565b34801561062d57600080fd5b5061038861124c565b34801561064257600080fd5b506103fc610651366004612f0e565b6112da565b34801561066257600080fd5b5061033c611361565b34801561067757600080fd5b50600f546103fc565b34801561068c57600080fd5b506106a061069b366004612f0e565b611395565b60405161036a9190612f2b565b3480156106b957600080fd5b506103fc603681565b3480156106ce57600080fd5b5061033c6114e7565b3480156106e357600080fd5b506103fc611519565b3480156106f857600080fd5b506007546001600160a01b03166103b5565b34801561071657600080fd5b5061038861158c565b34801561072b57600080fd5b506103fc600d5481565b34801561074157600080fd5b5061033c610750366004612f7d565b61159b565b34801561076157600080fd5b5061033c610770366004612f0e565b6115a6565b61033c6115f2565b34801561078957600080fd5b506103fc6118bb565b34801561079e57600080fd5b5061033c6107ad366004612fcc565b611905565b3480156107be57600080fd5b5061033c6107cd366004612e2f565b61193d565b3480156107de57600080fd5b506103886107ed366004612d63565b611ac3565b3480156107fe57600080fd5b50611b586103fc565b34801561081357600080fd5b50610388611ace565b34801561082857600080fd5b506103fc600e5481565b34801561083e57600080fd5b5061033c61084d366004612d63565b611add565b34801561085e57600080fd5b506010546103fc565b34801561087357600080fd5b5061035e6108823660046130ac565b6001600160a01b03918216600090815260056020908152604080832093909416825291909152205460ff1690565b3480156108bc57600080fd5b50600e546103fc565b3480156108d157600080fd5b5061033c6108e0366004612f0e565b611b0c565b600e54158015906108f7575042600e54105b61093c5760405162461bcd60e51b8152602060048201526011602482015270596f752061726520746f6f206561726c7960781b60448201526064015b60405180910390fd5b6000610946611519565b905081600f5461095691906130f0565b3410156109b75760405162461bcd60e51b815260206004820152602960248201527f4e6f7420656e6f75676820457468657220746f207265736572766520746865736044820152686520706f7373756d7360b81b6064820152608401610933565b60008211610a075760405162461bcd60e51b815260206004820152601e60248201527f6e65656420746f2072657365727665206174206c656173742031204e465400006044820152606401610933565b33600090815260156020526040902054603690610a2590849061310f565b11158015610a4f575033600090815260146020526040902054603690610a4c90849061310f565b11155b610a9b5760405162461bcd60e51b815260206004820152601f60248201527f596f752063616e6e6f742072657365727665206d6f726520706f7373756d73006044820152606401610933565b81811015610aeb5760405162461bcd60e51b815260206004820152601760248201527f4e6f7420656e6f75676820506f7373756d73206c6566740000000000000000006044820152606401610933565b601b821115610b355760405162461bcd60e51b815260206004820152601660248201527526b0bc10191b903832b9103a3930b739b0b1ba34b7b760511b6044820152606401610933565b60005b82811015610b8d576000610b4a611ba7565b604051909150819033907f904dcdc411e931497b95b06ddf8f8184815dd3bedc3c7c7cd4aed3ccd30783d890600090a35080610b8581613127565b915050610b38565b505050565b6000610b9d82611c52565b92915050565b606060008054610bb290613142565b80601f0160208091040260200160405190810160405280929190818152602001828054610bde90613142565b8015610c2b5780601f10610c0057610100808354040283529160200191610c2b565b820191906000526020600020905b815481529060010190602001808311610c0e57829003601f168201915b5050505050905090565b6000610c4082611c77565b610ca15760405162461bcd60e51b815260206004820152602c60248201527f4552433732313a20617070726f76656420717565727920666f72206e6f6e657860448201526b34b9ba32b73a103a37b5b2b760a11b6064820152608401610933565b506000908152600460205260409020546001600160a01b031690565b6000610cc8826111d5565b9050806001600160a01b0316836001600160a01b03161415610d365760405162461bcd60e51b815260206004820152602160248201527f4552433732313a20617070726f76616c20746f2063757272656e74206f776e656044820152603960f91b6064820152608401610933565b336001600160a01b0382161480610d525750610d528133610882565b610dc45760405162461bcd60e51b815260206004820152603860248201527f4552433732313a20617070726f76652063616c6c6572206973206e6f74206f7760448201527f6e6572206e6f7220617070726f76656420666f7220616c6c00000000000000006064820152608401610933565b610b8d8383611c94565b610dd83382611d02565b610df45760405162461bcd60e51b815260040161093390613177565b610b8d838383611dec565b6000610e0a836112da565b8210610e6c5760405162461bcd60e51b815260206004820152602b60248201527f455243373231456e756d657261626c653a206f776e657220696e646578206f7560448201526a74206f6620626f756e647360a81b6064820152608401610933565b506001600160a01b03919091166000908152600860209081526040808320938352929052205490565b6007546001600160a01b03163314610ebf5760405162461bcd60e51b8152600401610933906131c8565b610b8d60138383612c56565b6007546001600160a01b03163314610ef55760405162461bcd60e51b8152600401610933906131c8565b476000610f0a6007546001600160a01b031690565b6001600160a01b03168260405160006040518083038185875af1925050503d8060008114610f54576040519150601f19603f3d011682016040523d82523d6000602084013e610f59565b606091505b5050905080610fa15760405162461bcd60e51b81526020600482015260146024820152732330b4b632b2103a379039b2b7321022ba3432b960611b6044820152606401610933565b5050565b6007546001600160a01b03163314610fcf5760405162461bcd60e51b8152600401610933906131c8565b610fd7611f97565b565b6007546001600160a01b031633146110035760405162461bcd60e51b8152600401610933906131c8565b60125460408051631332545760e11b815290516000926001600160a01b031691632664a8ae9160048083019260209291908290030181865afa15801561104d573d6000803e3d6000fd5b505050506040513d601f19601f8201168201806040525081019061107191906131fd565b905080156110cf5760405162461bcd60e51b815260206004820152602560248201527f596f752063616e206f6e6c79207072656d696e742074686520506f7373756d73604482015264206f6e636560d81b6064820152608401610933565b60005b600d54811015610fa1576110e6338261202a565b806110f081613127565b9150506110d2565b610b8d83838360405180602001604052806000815250611905565b6007546001600160a01b0316331461113d5760405162461bcd60e51b8152600401610933906131c8565b600e55565b600061114d600a5490565b82106111b05760405162461bcd60e51b815260206004820152602c60248201527f455243373231456e756d657261626c653a20676c6f62616c20696e646578206f60448201526b7574206f6620626f756e647360a01b6064820152608401610933565b600a82815481106111c3576111c361321a565b90600052602060002001549050919050565b6000818152600260205260408120546001600160a01b031680610b9d5760405162461bcd60e51b815260206004820152602960248201527f4552433732313a206f776e657220717565727920666f72206e6f6e657869737460448201526832b73a103a37b5b2b760b91b6064820152608401610933565b6013805461125990613142565b80601f016020809104026020016040519081016040528092919081815260200182805461128590613142565b80156112d25780601f106112a7576101008083540402835291602001916112d2565b820191906000526020600020905b8154815290600101906020018083116112b557829003601f168201915b505050505081565b60006001600160a01b0382166113455760405162461bcd60e51b815260206004820152602a60248201527f4552433732313a2062616c616e636520717565727920666f7220746865207a65604482015269726f206164647265737360b01b6064820152608401610933565b506001600160a01b031660009081526003602052604090205490565b6007546001600160a01b0316331461138b5760405162461bcd60e51b8152600401610933906131c8565b610fd7600061215e565b6001600160a01b0381166000908152601560205260409020546060906113fd5760405162461bcd60e51b815260206004820152601e60248201527f57616c6c657420686173206e6f20726573657276656420706f7373756d7300006044820152606401610933565b6001600160a01b03821660009081526015602052604090205467ffffffffffffffff81111561142e5761142e612fb6565b604051908082528060200260200182016040528015611457578160200160208202803683370190505b50905060005b6001600160a01b0383166000908152601560205260409020548110156114e1576001600160a01b03831660009081526015602052604090208054829081106114a7576114a761321a565b90600052602060002001548282815181106114c4576114c461321a565b6020908102919091010152806114d981613127565b91505061145d565b50919050565b6007546001600160a01b031633146115115760405162461bcd60e51b8152600401610933906131c8565b610fd76121b0565b60125460408051638481de5f60e01b815290516000926001600160a01b031691638481de5f9160048083019260209291908290030181865afa158015611563573d6000803e3d6000fd5b505050506040513d601f19601f820116820180604052508101906115879190613230565b905090565b606060018054610bb290613142565b610fa133838361222b565b6007546001600160a01b031633146115d05760405162461bcd60e51b8152600401610933906131c8565b601280546001600160a01b0319166001600160a01b0392909216919091179055565b600e5415801590611604575042600e54105b6116445760405162461bcd60e51b8152602060048201526011602482015270596f752061726520746f6f206561726c7960781b6044820152606401610933565b600061164e6118bb565b33600090815260156020526040902054909150806116ae5760405162461bcd60e51b815260206004820152601c60248201527f796f752068617665206e6f20726573657276656420706f7373756d73000000006044820152606401610933565b428210806116c05750611b5860115410155b6116c957600080fd5b33600090815260146020526040902054603610156116e657600080fd5b600080601260009054906101000a90046001600160a01b03166001600160a01b031663eb6ad24e6040518163ffffffff1660e01b8152600401602060405180830381865afa15801561173c573d6000803e3d6000fd5b505050506040513d601f19601f820116820180604052508101906117609190613230565b9050806117af5760405162461bcd60e51b815260206004820152601f60248201527f506f7373756d73206e6f7420726561647920746f20626520636c61696d6564006044820152606401610933565b60005b83811015611861573360009081526015602052604081208054849190849081106117de576117de61321a565b90600052602060002001546117f3919061310f565b90506118026001611b58613249565b811115611840576001600d546118189190613249565b6118256001611b58613249565b61182f9083613249565b611839919061310f565b9350611844565b8093505b61184e338561202a565b508061185981613127565b9150506117b2565b5060005b838110156118b45733600090815260156020526040902080548061188b5761188b613260565b6001900381819060005260206000200160009055905580806118ac90613127565b915050611865565b5050505050565b601254604080516344657d2760e11b815290516000926001600160a01b0316916388cafa4e9160048083019260209291908290030181865afa158015611563573d6000803e3d6000fd5b61190f3383611d02565b61192b5760405162461bcd60e51b815260040161093390613177565b611937848484846122fa565b50505050565b6007546001600160a01b031633146119675760405162461bcd60e51b8152600401610933906131c8565b6040516370a0823160e01b81523060048201526000906001600160a01b038416906370a0823190602401602060405180830381865afa1580156119ae573d6000803e3d6000fd5b505050506040513d601f19601f820116820180604052508101906119d29190613230565b11611a315760405162461bcd60e51b815260206004820152602960248201527f7468697320636f6e747261637420646f6573206e6f7420636f6e7461696e20746044820152683434b9903a37b5b2b760b91b6064820152608401610933565b816001600160a01b031663a9059cbb611a526007546001600160a01b031690565b6040516001600160e01b031960e084901b1681526001600160a01b039091166004820152602481018490526044016020604051808303816000875af1158015611a9f573d6000803e3d6000fd5b505050506040513d601f19601f82011682018060405250810190610b8d91906131fd565b6060610b9d8261232d565b606060138054610bb290613142565b6007546001600160a01b03163314611b075760405162461bcd60e51b8152600401610933906131c8565b600f55565b6007546001600160a01b03163314611b365760405162461bcd60e51b8152600401610933906131c8565b6001600160a01b038116611b9b5760405162461bcd60e51b815260206004820152602660248201527f4f776e61626c653a206e6577206f776e657220697320746865207a65726f206160448201526564647265737360d01b6064820152608401610933565b611ba48161215e565b50565b6012546040805163c6410f7b60e01b815290516000926001600160a01b03169163c6410f7b916004808301926020929190829003018187875af1158015611bf2573d6000803e3d6000fd5b505050506040513d601f19601f82011682018060405250810190611c169190613230565b33600090815260156020908152604082208054600181018255908352908220018290556011805492935090611c4a83613127565b919050555090565b60006001600160e01b0319821663780e9d6360e01b1480610b9d5750610b9d8261248f565b6000908152600260205260409020546001600160a01b0316151590565b600081815260046020526040902080546001600160a01b0319166001600160a01b0384169081179091558190611cc9826111d5565b6001600160a01b03167f8c5be1e5ebec7d5bd14f71427d1e84f3dd0314c0f7b2291e5b200ac8c7c3b92560405160405180910390a45050565b6000611d0d82611c77565b611d6e5760405162461bcd60e51b815260206004820152602c60248201527f4552433732313a206f70657261746f7220717565727920666f72206e6f6e657860448201526b34b9ba32b73a103a37b5b2b760a11b6064820152608401610933565b6000611d79836111d5565b9050806001600160a01b0316846001600160a01b03161480611db45750836001600160a01b0316611da984610c35565b6001600160a01b0316145b80611de457506001600160a01b0380821660009081526005602090815260408083209388168352929052205460ff165b949350505050565b826001600160a01b0316611dff826111d5565b6001600160a01b031614611e675760405162461bcd60e51b815260206004820152602960248201527f4552433732313a207472616e73666572206f6620746f6b656e2074686174206960448201526839903737ba1037bbb760b91b6064820152608401610933565b6001600160a01b038216611ec95760405162461bcd60e51b8152602060048201526024808201527f4552433732313a207472616e7366657220746f20746865207a65726f206164646044820152637265737360e01b6064820152608401610933565b611ed48383836124df565b611edf600082611c94565b6001600160a01b0383166000908152600360205260408120805460019290611f08908490613249565b90915550506001600160a01b0382166000908152600360205260408120805460019290611f3690849061310f565b909155505060008181526002602052604080822080546001600160a01b0319166001600160a01b0386811691821790925591518493918716917fddf252ad1be2c89b69c2b068fc378daa952ba7f163c4a11628f55a4df523b3ef91a4505050565b600c5460ff16611fe05760405162461bcd60e51b815260206004820152601460248201527314185d5cd8589b194e881b9bdd081c185d5cd95960621b6044820152606401610933565b600c805460ff191690557f5db9ee0a495bf2e6ff9c91a7834c1ba4fdd244a5e8aa4e537bd38aeae4b073aa335b6040516001600160a01b03909116815260200160405180910390a1565b611b58601054111561207e5760405162461bcd60e51b815260206004820152601c60248201527f616c6c20506f7373756d732068617665206265656e206d696e746564000000006044820152606401610933565b6120888282612530565b61211c816013805461209990613142565b80601f01602080910402602001604051908101604052809291908181526020018280546120c590613142565b80156121125780601f106120e757610100808354040283529160200191612112565b820191906000526020600020905b8154815290600101906020018083116120f557829003601f168201915b505050505061254a565b6010805490600061212c83613127565b90915550506001600160a01b038216600090815260146020526040812080549161215583613127565b91905055505050565b600780546001600160a01b038381166001600160a01b0319831681179093556040519116919082907f8be0079c531659141344cd1fd0a4f28419497f9722a3daafe3b4186f6b6457e090600090a35050565b600c5460ff16156121f65760405162461bcd60e51b815260206004820152601060248201526f14185d5cd8589b194e881c185d5cd95960821b6044820152606401610933565b600c805460ff191660011790557f62e78cea01bee320cd4e420270b5ea74000d11b0c9f74754ebdbfc544b05a25861200d3390565b816001600160a01b0316836001600160a01b0316141561228d5760405162461bcd60e51b815260206004820152601960248201527f4552433732313a20617070726f766520746f2063616c6c6572000000000000006044820152606401610933565b6001600160a01b03838116600081815260056020908152604080832094871680845294825291829020805460ff191686151590811790915591519182527f17307eab39ab6107e8899845ad3d59bd9653f200f220920489ca2b5937696c31910160405180910390a3505050565b612305848484611dec565b612311848484846125d5565b6119375760405162461bcd60e51b815260040161093390613276565b606061233882611c77565b61239e5760405162461bcd60e51b815260206004820152603160248201527f45524337323155524953746f726167653a2055524920717565727920666f72206044820152703737b732bc34b9ba32b73a103a37b5b2b760791b6064820152608401610933565b600082815260066020526040812080546123b790613142565b80601f01602080910402602001604051908101604052809291908181526020018280546123e390613142565b80156124305780601f1061240557610100808354040283529160200191612430565b820191906000526020600020905b81548152906001019060200180831161241357829003601f168201915b505050505090506000612441611ace565b9050805160001415612454575092915050565b81511561248657808260405160200161246e9291906132c8565b60405160208183030381529060405292505050919050565b611de4846126d3565b60006001600160e01b031982166380ac58cd60e01b14806124c057506001600160e01b03198216635b5e139f60e01b145b80610b9d57506301ffc9a760e01b6001600160e01b0319831614610b9d565b600c5460ff16156125255760405162461bcd60e51b815260206004820152601060248201526f14185d5cd8589b194e881c185d5cd95960821b6044820152606401610933565b610b8d83838361279e565b610fa1828260405180602001604052806000815250612856565b61255382611c77565b6125b65760405162461bcd60e51b815260206004820152602e60248201527f45524337323155524953746f726167653a2055524920736574206f66206e6f6e60448201526d32bc34b9ba32b73a103a37b5b2b760911b6064820152608401610933565b60008281526006602090815260409091208251610b8d92840190612cda565b60006001600160a01b0384163b156126c857604051630a85bd0160e11b81526001600160a01b0385169063150b7a02906126199033908990889088906004016132f7565b6020604051808303816000875af1925050508015612654575060408051601f3d908101601f1916820190925261265191810190613334565b60015b6126ae573d808015612682576040519150601f19603f3d011682016040523d82523d6000602084013e612687565b606091505b5080516126a65760405162461bcd60e51b815260040161093390613276565b805181602001fd5b6001600160e01b031916630a85bd0160e11b149050611de4565b506001949350505050565b60606126de82611c77565b6127425760405162461bcd60e51b815260206004820152602f60248201527f4552433732314d657461646174613a2055524920717565727920666f72206e6f60448201526e3732bc34b9ba32b73a103a37b5b2b760891b6064820152608401610933565b600061274c611ace565b9050600081511161276c5760405180602001604052806000815250612797565b8061277684612889565b6040516020016127879291906132c8565b6040516020818303038152906040525b9392505050565b6001600160a01b0383166127f9576127f481600a80546000838152600b60205260408120829055600182018355919091527fc65a7bb8d6351c1cf70c95a316cc6a92839c986682d98bc35f958f4883f9d2a80155565b61281c565b816001600160a01b0316836001600160a01b03161461281c5761281c8382612987565b6001600160a01b03821661283357610b8d81612a24565b826001600160a01b0316826001600160a01b031614610b8d57610b8d8282612ad3565b6128608383612b17565b61286d60008484846125d5565b610b8d5760405162461bcd60e51b815260040161093390613276565b6060816128ad5750506040805180820190915260018152600360fc1b602082015290565b8160005b81156128d757806128c181613127565b91506128d09050600a83613367565b91506128b1565b60008167ffffffffffffffff8111156128f2576128f2612fb6565b6040519080825280601f01601f19166020018201604052801561291c576020820181803683370190505b5090505b8415611de457612931600183613249565b915061293e600a8661337b565b61294990603061310f565b60f81b81838151811061295e5761295e61321a565b60200101906001600160f81b031916908160001a905350612980600a86613367565b9450612920565b60006001612994846112da565b61299e9190613249565b6000838152600960205260409020549091508082146129f1576001600160a01b03841660009081526008602090815260408083208584528252808320548484528184208190558352600990915290208190555b5060009182526009602090815260408084208490556001600160a01b039094168352600881528383209183525290812055565b600a54600090612a3690600190613249565b6000838152600b6020526040812054600a8054939450909284908110612a5e57612a5e61321a565b9060005260206000200154905080600a8381548110612a7f57612a7f61321a565b6000918252602080832090910192909255828152600b9091526040808220849055858252812055600a805480612ab757612ab7613260565b6001900381819060005260206000200160009055905550505050565b6000612ade836112da565b6001600160a01b039093166000908152600860209081526040808320868452825280832085905593825260099052919091209190915550565b6001600160a01b038216612b6d5760405162461bcd60e51b815260206004820181905260248201527f4552433732313a206d696e7420746f20746865207a65726f20616464726573736044820152606401610933565b612b7681611c77565b15612bc35760405162461bcd60e51b815260206004820152601c60248201527f4552433732313a20746f6b656e20616c7265616479206d696e746564000000006044820152606401610933565b612bcf600083836124df565b6001600160a01b0382166000908152600360205260408120805460019290612bf890849061310f565b909155505060008181526002602052604080822080546001600160a01b0319166001600160a01b03861690811790915590518392907fddf252ad1be2c89b69c2b068fc378daa952ba7f163c4a11628f55a4df523b3ef908290a45050565b828054612c6290613142565b90600052602060002090601f016020900481019282612c845760008555612cca565b82601f10612c9d5782800160ff19823516178555612cca565b82800160010185558215612cca579182015b82811115612cca578235825591602001919060010190612caf565b50612cd6929150612d4e565b5090565b828054612ce690613142565b90600052602060002090601f016020900481019282612d085760008555612cca565b82601f10612d2157805160ff1916838001178555612cca565b82800160010185558215612cca579182015b82811115612cca578251825591602001919060010190612d33565b5b80821115612cd65760008155600101612d4f565b600060208284031215612d7557600080fd5b5035919050565b6001600160e01b031981168114611ba457600080fd5b600060208284031215612da457600080fd5b813561279781612d7c565b60005b83811015612dca578181015183820152602001612db2565b838111156119375750506000910152565b60008151808452612df3816020860160208601612daf565b601f01601f19169290920160200192915050565b6020815260006127976020830184612ddb565b6001600160a01b0381168114611ba457600080fd5b60008060408385031215612e4257600080fd5b8235612e4d81612e1a565b946020939093013593505050565b600080600060608486031215612e7057600080fd5b8335612e7b81612e1a565b92506020840135612e8b81612e1a565b929592945050506040919091013590565b60008060208385031215612eaf57600080fd5b823567ffffffffffffffff80821115612ec757600080fd5b818501915085601f830112612edb57600080fd5b813581811115612eea57600080fd5b866020828501011115612efc57600080fd5b60209290920196919550909350505050565b600060208284031215612f2057600080fd5b813561279781612e1a565b6020808252825182820181905260009190848201906040850190845b81811015612f6357835183529284019291840191600101612f47565b50909695505050505050565b8015158114611ba457600080fd5b60008060408385031215612f9057600080fd5b8235612f9b81612e1a565b91506020830135612fab81612f6f565b809150509250929050565b634e487b7160e01b600052604160045260246000fd5b60008060008060808587031215612fe257600080fd5b8435612fed81612e1a565b93506020850135612ffd81612e1a565b925060408501359150606085013567ffffffffffffffff8082111561302157600080fd5b818701915087601f83011261303557600080fd5b81358181111561304757613047612fb6565b604051601f8201601f19908116603f0116810190838211818310171561306f5761306f612fb6565b816040528281528a602084870101111561308857600080fd5b82602086016020830137600060208483010152809550505050505092959194509250565b600080604083850312156130bf57600080fd5b82356130ca81612e1a565b91506020830135612fab81612e1a565b634e487b7160e01b600052601160045260246000fd5b600081600019048311821515161561310a5761310a6130da565b500290565b60008219821115613122576131226130da565b500190565b600060001982141561313b5761313b6130da565b5060010190565b600181811c9082168061315657607f821691505b602082108114156114e157634e487b7160e01b600052602260045260246000fd5b60208082526031908201527f4552433732313a207472616e736665722063616c6c6572206973206e6f74206f6040820152701ddb995c881b9bdc88185c1c1c9bdd9959607a1b606082015260800190565b6020808252818101527f4f776e61626c653a2063616c6c6572206973206e6f7420746865206f776e6572604082015260600190565b60006020828403121561320f57600080fd5b815161279781612f6f565b634e487b7160e01b600052603260045260246000fd5b60006020828403121561324257600080fd5b5051919050565b60008282101561325b5761325b6130da565b500390565b634e487b7160e01b600052603160045260246000fd5b60208082526032908201527f4552433732313a207472616e7366657220746f206e6f6e20455243373231526560408201527131b2b4bb32b91034b6b83632b6b2b73a32b960711b606082015260800190565b600083516132da818460208801612daf565b8351908301906132ee818360208801612daf565b01949350505050565b6001600160a01b038581168252841660208201526040810183905260806060820181905260009061332a90830184612ddb565b9695505050505050565b60006020828403121561334657600080fd5b815161279781612d7c565b634e487b7160e01b600052601260045260246000fd5b60008261337657613376613351565b500490565b60008261338a5761338a613351565b50069056fea2646970667358221220643b304f02e345ef45fd6186f0447f8a0a37700554f238c46cd6a5984bd0c8ed64736f6c634300080a0033",
  "linkReferences": {},
  "deployedLinkReferences": {}
}