{
  "_format": "hh-sol-artifact-1",
  "contractName": "TrashPossums",
  "sourceName": "contracts/TrashPossums.sol",
  "abi": [
    {
      "inputs": [
        {
          "internalType": "uint256",
          "name": "_possumPrice",
          "type": "uint256"
        },
        {
          "internalType": "uint256",
          "name": "_startMintDate",
          "type": "uint256"
        },
        {
          "internalType": "string",
          "name": "_baseUri",
          "type": "string"
        },
        {
          "internalType": "address",
          "name": "_randomness",
          "type": "address"
        }
      ],
      "stateMutability": "nonpayable",
      "type": "constructor"
    },
    {
      "anonymous": false,
      "inputs": [
        {
          "indexed": true,
          "internalType": "address",
          "name": "owner",
          "type": "address"
        },
        {
          "indexed": true,
          "internalType": "address",
          "name": "approved",
          "type": "address"
        },
        {
          "indexed": true,
          "internalType": "uint256",
          "name": "tokenId",
          "type": "uint256"
        }
      ],
      "name": "Approval",
      "type": "event"
    },
    {
      "anonymous": false,
      "inputs": [
        {
          "indexed": true,
          "internalType": "address",
          "name": "owner",
          "type": "address"
        },
        {
          "indexed": true,
          "internalType": "address",
          "name": "operator",
          "type": "address"
        },
        {
          "indexed": false,
          "internalType": "bool",
          "name": "approved",
          "type": "bool"
        }
      ],
      "name": "ApprovalForAll",
      "type": "event"
    },
    {
      "anonymous": false,
      "inputs": [
        {
          "indexed": true,
          "internalType": "address",
          "name": "previousOwner",
          "type": "address"
        },
        {
          "indexed": true,
          "internalType": "address",
          "name": "newOwner",
          "type": "address"
        }
      ],
      "name": "OwnershipTransferred",
      "type": "event"
    },
    {
      "anonymous": false,
      "inputs": [
        {
          "indexed": false,
          "internalType": "address",
          "name": "account",
          "type": "address"
        }
      ],
      "name": "Paused",
      "type": "event"
    },
    {
      "anonymous": false,
      "inputs": [
        {
          "indexed": true,
          "internalType": "address",
          "name": "to",
          "type": "address"
        },
        {
          "indexed": true,
          "internalType": "uint256",
          "name": "tokenId",
          "type": "uint256"
        }
      ],
      "name": "Reserved",
      "type": "event"
    },
    {
      "anonymous": false,
      "inputs": [
        {
          "indexed": true,
          "internalType": "address",
          "name": "from",
          "type": "address"
        },
        {
          "indexed": true,
          "internalType": "address",
          "name": "to",
          "type": "address"
        },
        {
          "indexed": true,
          "internalType": "uint256",
          "name": "tokenId",
          "type": "uint256"
        }
      ],
      "name": "Transfer",
      "type": "event"
    },
    {
      "anonymous": false,
      "inputs": [
        {
          "indexed": false,
          "internalType": "address",
          "name": "account",
          "type": "address"
        }
      ],
      "name": "Unpaused",
      "type": "event"
    },
    {
      "inputs": [
        {
          "internalType": "address",
          "name": "to",
          "type": "address"
        },
        {
          "internalType": "uint256",
          "name": "tokenId",
          "type": "uint256"
        }
      ],
      "name": "approve",
      "outputs": [],
      "stateMutability": "nonpayable",
      "type": "function"
    },
    {
      "inputs": [
        {
          "internalType": "address",
          "name": "owner",
          "type": "address"
        }
      ],
      "name": "balanceOf",
      "outputs": [
        {
          "internalType": "uint256",
          "name": "",
          "type": "uint256"
        }
      ],
      "stateMutability": "view",
      "type": "function"
    },
    {
      "inputs": [],
      "name": "baseTokenURI",
      "outputs": [
        {
          "internalType": "string",
          "name": "",
          "type": "string"
        }
      ],
      "stateMutability": "view",
      "type": "function"
    },
    {
      "inputs": [],
      "name": "baseURI",
      "outputs": [
        {
          "internalType": "string",
          "name": "",
          "type": "string"
        }
      ],
      "stateMutability": "view",
      "type": "function"
    },
    {
      "inputs": [],
      "name": "claimPossums",
      "outputs": [],
      "stateMutability": "payable",
      "type": "function"
    },
    {
      "inputs": [
        {
          "internalType": "uint256",
          "name": "tokenId",
          "type": "uint256"
        }
      ],
      "name": "getApproved",
      "outputs": [
        {
          "internalType": "address",
          "name": "",
          "type": "address"
        }
      ],
      "stateMutability": "view",
      "type": "function"
    },
    {
      "inputs": [],
      "name": "getAvailablePossums",
      "outputs": [
        {
          "internalType": "uint256",
          "name": "",
          "type": "uint256"
        }
      ],
      "stateMutability": "view",
      "type": "function"
    },
    {
      "inputs": [],
      "name": "getBalance",
      "outputs": [
        {
          "internalType": "uint256",
          "name": "",
          "type": "uint256"
        }
      ],
      "stateMutability": "view",
      "type": "function"
    },
    {
      "inputs": [],
      "name": "getClaimDate",
      "outputs": [
        {
          "internalType": "uint256",
          "name": "",
          "type": "uint256"
        }
      ],
      "stateMutability": "view",
      "type": "function"
    },
    {
      "inputs": [],
      "name": "getMintingStartDate",
      "outputs": [
        {
          "internalType": "uint256",
          "name": "",
          "type": "uint256"
        }
      ],
      "stateMutability": "view",
      "type": "function"
    },
    {
      "inputs": [],
      "name": "getNumberOfReservedPossums",
      "outputs": [
        {
          "internalType": "uint256",
          "name": "",
          "type": "uint256"
        }
      ],
      "stateMutability": "view",
      "type": "function"
    },
    {
      "inputs": [],
      "name": "getPossumPrice",
      "outputs": [
        {
          "internalType": "uint256",
          "name": "",
          "type": "uint256"
        }
      ],
      "stateMutability": "view",
      "type": "function"
    },
    {
      "inputs": [
        {
          "internalType": "address",
          "name": "_wallet",
          "type": "address"
        }
      ],
      "name": "getReservedPossumIds",
      "outputs": [
        {
          "internalType": "uint256[]",
          "name": "reservedIds",
          "type": "uint256[]"
        }
      ],
      "stateMutability": "view",
      "type": "function"
    },
    {
      "inputs": [
        {
          "internalType": "address",
          "name": "_wallet",
          "type": "address"
        }
      ],
      "name": "getReservedPossumsPerWallet",
      "outputs": [
        {
          "internalType": "uint256",
          "name": "",
          "type": "uint256"
        }
      ],
      "stateMutability": "view",
      "type": "function"
    },
    {
      "inputs": [],
      "name": "getTotalMintedPossums",
      "outputs": [
        {
          "internalType": "uint256",
          "name": "",
          "type": "uint256"
        }
      ],
      "stateMutability": "view",
      "type": "function"
    },
    {
      "inputs": [],
      "name": "getTotalPossums",
      "outputs": [
        {
          "internalType": "uint256",
          "name": "",
          "type": "uint256"
        }
      ],
      "stateMutability": "pure",
      "type": "function"
    },
    {
      "inputs": [
        {
          "internalType": "address",
          "name": "owner",
          "type": "address"
        },
        {
          "internalType": "address",
          "name": "operator",
          "type": "address"
        }
      ],
      "name": "isApprovedForAll",
      "outputs": [
        {
          "internalType": "bool",
          "name": "",
          "type": "bool"
        }
      ],
      "stateMutability": "view",
      "type": "function"
    },
    {
      "inputs": [],
      "name": "maxPossumsPerWallet",
      "outputs": [
        {
          "internalType": "uint256",
          "name": "",
          "type": "uint256"
        }
      ],
      "stateMutability": "view",
      "type": "function"
    },
    {
      "inputs": [],
      "name": "name",
      "outputs": [
        {
          "internalType": "string",
          "name": "",
          "type": "string"
        }
      ],
      "stateMutability": "view",
      "type": "function"
    },
    {
      "inputs": [],
      "name": "numberOfReservedPossums",
      "outputs": [
        {
          "internalType": "uint256",
          "name": "",
          "type": "uint256"
        }
      ],
      "stateMutability": "view",
      "type": "function"
    },
    {
      "inputs": [],
      "name": "owner",
      "outputs": [
        {
          "internalType": "address",
          "name": "",
          "type": "address"
        }
      ],
      "stateMutability": "view",
      "type": "function"
    },
    {
      "inputs": [
        {
          "internalType": "uint256",
          "name": "tokenId",
          "type": "uint256"
        }
      ],
      "name": "ownerOf",
      "outputs": [
        {
          "internalType": "address",
          "name": "",
          "type": "address"
        }
      ],
      "stateMutability": "view",
      "type": "function"
    },
    {
      "inputs": [],
      "name": "pause",
      "outputs": [],
      "stateMutability": "nonpayable",
      "type": "function"
    },
    {
      "inputs": [],
      "name": "paused",
      "outputs": [
        {
          "internalType": "bool",
          "name": "",
          "type": "bool"
        }
      ],
      "stateMutability": "view",
      "type": "function"
    },
    {
      "inputs": [],
      "name": "possumPrice",
      "outputs": [
        {
          "internalType": "uint256",
          "name": "",
          "type": "uint256"
        }
      ],
      "stateMutability": "view",
      "type": "function"
    },
    {
      "inputs": [],
      "name": "premintPossums",
      "outputs": [],
      "stateMutability": "nonpayable",
      "type": "function"
    },
    {
      "inputs": [],
      "name": "randomness",
      "outputs": [
        {
          "internalType": "address",
          "name": "",
          "type": "address"
        }
      ],
      "stateMutability": "view",
      "type": "function"
    },
    {
      "inputs": [],
      "name": "renounceOwnership",
      "outputs": [],
      "stateMutability": "nonpayable",
      "type": "function"
    },
    {
      "inputs": [
        {
          "internalType": "uint256",
          "name": "amount",
          "type": "uint256"
        }
      ],
      "name": "reservePossums",
      "outputs": [],
      "stateMutability": "payable",
      "type": "function"
    },
    {
      "inputs": [
        {
          "internalType": "address",
          "name": "from",
          "type": "address"
        },
        {
          "internalType": "address",
          "name": "to",
          "type": "address"
        },
        {
          "internalType": "uint256",
          "name": "tokenId",
          "type": "uint256"
        }
      ],
      "name": "safeTransferFrom",
      "outputs": [],
      "stateMutability": "nonpayable",
      "type": "function"
    },
    {
      "inputs": [
        {
          "internalType": "address",
          "name": "from",
          "type": "address"
        },
        {
          "internalType": "address",
          "name": "to",
          "type": "address"
        },
        {
          "internalType": "uint256",
          "name": "tokenId",
          "type": "uint256"
        },
        {
          "internalType": "bytes",
          "name": "_data",
          "type": "bytes"
        }
      ],
      "name": "safeTransferFrom",
      "outputs": [],
      "stateMutability": "nonpayable",
      "type": "function"
    },
    {
      "inputs": [
        {
          "internalType": "address",
          "name": "operator",
          "type": "address"
        },
        {
          "internalType": "bool",
          "name": "approved",
          "type": "bool"
        }
      ],
      "name": "setApprovalForAll",
      "outputs": [],
      "stateMutability": "nonpayable",
      "type": "function"
    },
    {
      "inputs": [
        {
          "internalType": "string",
          "name": "_tokenURI",
          "type": "string"
        }
      ],
      "name": "setBaseTokenURI",
      "outputs": [],
      "stateMutability": "nonpayable",
      "type": "function"
    },
    {
      "inputs": [
        {
          "internalType": "uint256",
          "name": "_possumPrice",
          "type": "uint256"
        }
      ],
      "name": "setPossumPrice",
      "outputs": [],
      "stateMutability": "nonpayable",
      "type": "function"
    },
    {
      "inputs": [],
      "name": "startMintDate",
      "outputs": [
        {
          "internalType": "uint256",
          "name": "",
          "type": "uint256"
        }
      ],
      "stateMutability": "view",
      "type": "function"
    },
    {
      "inputs": [
        {
          "internalType": "bytes4",
          "name": "interfaceId",
          "type": "bytes4"
        }
      ],
      "name": "supportsInterface",
      "outputs": [
        {
          "internalType": "bool",
          "name": "",
          "type": "bool"
        }
      ],
      "stateMutability": "view",
      "type": "function"
    },
    {
      "inputs": [],
      "name": "symbol",
      "outputs": [
        {
          "internalType": "string",
          "name": "",
          "type": "string"
        }
      ],
      "stateMutability": "view",
      "type": "function"
    },
    {
      "inputs": [
        {
          "internalType": "uint256",
          "name": "index",
          "type": "uint256"
        }
      ],
      "name": "tokenByIndex",
      "outputs": [
        {
          "internalType": "uint256",
          "name": "",
          "type": "uint256"
        }
      ],
      "stateMutability": "view",
      "type": "function"
    },
    {
      "inputs": [
        {
          "internalType": "address",
          "name": "owner",
          "type": "address"
        },
        {
          "internalType": "uint256",
          "name": "index",
          "type": "uint256"
        }
      ],
      "name": "tokenOfOwnerByIndex",
      "outputs": [
        {
          "internalType": "uint256",
          "name": "",
          "type": "uint256"
        }
      ],
      "stateMutability": "view",
      "type": "function"
    },
    {
      "inputs": [
        {
          "internalType": "uint256",
          "name": "tokenId",
          "type": "uint256"
        }
      ],
      "name": "tokenURI",
      "outputs": [
        {
          "internalType": "string",
          "name": "",
          "type": "string"
        }
      ],
      "stateMutability": "view",
      "type": "function"
    },
    {
      "inputs": [],
      "name": "totalMintedPossums",
      "outputs": [
        {
          "internalType": "uint256",
          "name": "",
          "type": "uint256"
        }
      ],
      "stateMutability": "view",
      "type": "function"
    },
    {
      "inputs": [],
      "name": "totalPossums",
      "outputs": [
        {
          "internalType": "uint256",
          "name": "",
          "type": "uint256"
        }
      ],
      "stateMutability": "view",
      "type": "function"
    },
    {
      "inputs": [],
      "name": "totalSupply",
      "outputs": [
        {
          "internalType": "uint256",
          "name": "",
          "type": "uint256"
        }
      ],
      "stateMutability": "view",
      "type": "function"
    },
    {
      "inputs": [
        {
          "internalType": "address",
          "name": "from",
          "type": "address"
        },
        {
          "internalType": "address",
          "name": "to",
          "type": "address"
        },
        {
          "internalType": "uint256",
          "name": "tokenId",
          "type": "uint256"
        }
      ],
      "name": "transferFrom",
      "outputs": [],
      "stateMutability": "nonpayable",
      "type": "function"
    },
    {
      "inputs": [
        {
          "internalType": "address",
          "name": "newOwner",
          "type": "address"
        }
      ],
      "name": "transferOwnership",
      "outputs": [],
      "stateMutability": "nonpayable",
      "type": "function"
    },
    {
      "inputs": [],
      "name": "unpause",
      "outputs": [],
      "stateMutability": "nonpayable",
      "type": "function"
    },
    {
      "inputs": [],
      "name": "withdraw",
      "outputs": [],
      "stateMutability": "payable",
      "type": "function"
    },
    {
      "inputs": [
        {
          "internalType": "contract IERC20",
          "name": "token",
          "type": "address"
        },
        {
          "internalType": "uint256",
          "name": "_amount",
          "type": "uint256"
        }
      ],
      "name": "withdrawErc20",
      "outputs": [],
      "stateMutability": "nonpayable",
      "type": "function"
    },
    {
      "stateMutability": "payable",
      "type": "receive"
    }
  ],
  "bytecode": "0x60806040523480156200001157600080fd5b50604051620035e7380380620035e783398101604081905262000034916200023c565b604080518082018252600d81526c547261736820506f7373756d7360981b60208083019182528351808501909452600584526454504f535360d81b908401528151919291620000869160009162000163565b5080516200009c90600190602084019062000163565b505050620000b9620000b36200010d60201b60201c565b62000111565b600c805460ff19169055600e849055600d8390558151620000e290601090602085019062000163565b50601280546001600160a01b0319166001600160a01b0392909216919091179055506200037f915050565b3390565b600780546001600160a01b038381166001600160a01b0319831681179093556040519116919082907f8be0079c531659141344cd1fd0a4f28419497f9722a3daafe3b4186f6b6457e090600090a35050565b828054620001719062000342565b90600052602060002090601f016020900481019282620001955760008555620001e0565b82601f10620001b057805160ff1916838001178555620001e0565b82800160010185558215620001e0579182015b82811115620001e0578251825591602001919060010190620001c3565b50620001ee929150620001f2565b5090565b5b80821115620001ee5760008155600101620001f3565b634e487b7160e01b600052604160045260246000fd5b80516001600160a01b03811681146200023757600080fd5b919050565b600080600080608085870312156200025357600080fd5b845160208087015160408801519296509450906001600160401b03808211156200027c57600080fd5b818801915088601f8301126200029157600080fd5b815181811115620002a657620002a662000209565b604051601f8201601f19908116603f01168101908382118183101715620002d157620002d162000209565b816040528281528b86848701011115620002ea57600080fd5b600093505b828410156200030e5784840186015181850187015292850192620002ef565b82841115620003205760008684830101525b80975050505050505062000337606086016200021f565b905092959194509250565b600181811c908216806200035757607f821691505b602082108114156200037957634e487b7160e01b600052602260045260246000fd5b50919050565b613258806200038f6000396000f3fe6080604052600436106102965760003560e01c80636c0360eb1161015a578063b37cb09d116100c1578063da67e22a1161007a578063da67e22a1461072a578063dca7728414610740578063e65fadc414610760578063e985e9c514610775578063ead17506146107be578063f2fde38b146107d357600080fd5b8063b37cb09d1461068b578063b88d4fde146106a0578063bd1f4b52146106c0578063c87b56dd146106e0578063cc6bbd6514610700578063d547cfb71461071557600080fd5b80638456cb59116101135780638456cb59146106065780638481de5f1461061b5780638da5cb5b1461063057806395d89b411461064e578063a22cb46514610663578063b031b35b1461068357600080fd5b80636c0360eb1461056557806370a082311461057a578063715018a61461059a578063723bcc13146105af5780637fd3352e146105c457806384511aff146105f157600080fd5b80633bb240bd116101fe57806350f257e1116101b757806350f257e1146104b5578063530e04bb146104eb5780635b46a8f2146105015780635ba36949146105175780635c975abb1461052d5780636352211e1461054557600080fd5b80633bb240bd1461042d5780633ccfd60b146104435780633f4ba83a1461044b578063416c585d1461046057806342842e0e146104755780634f6ccce71461049557600080fd5b806318160ddd1161025057806318160ddd1461038357806323b872dd1461039857806325554fb1146103b85780632f745c59146103cd57806330176e13146103ed578063360131891461040d57600080fd5b806261b0ec146102a257806301ffc9a7146102b757806306fdde03146102ec578063081812fc1461030e578063095ea7b31461034657806312065fe01461036657600080fd5b3661029d57005b600080fd5b6102b56102b0366004612bf6565b6107f3565b005b3480156102c357600080fd5b506102d76102d2366004612c25565b610aa1565b60405190151581526020015b60405180910390f35b3480156102f857600080fd5b50610301610ab2565b6040516102e39190612c9a565b34801561031a57600080fd5b5061032e610329366004612bf6565b610b44565b6040516001600160a01b0390911681526020016102e3565b34801561035257600080fd5b506102b5610361366004612cc2565b610bcc565b34801561037257600080fd5b50475b6040519081526020016102e3565b34801561038f57600080fd5b50600a54610375565b3480156103a457600080fd5b506102b56103b3366004612cee565b610ce2565b3480156103c457600080fd5b50601154610375565b3480156103d957600080fd5b506103756103e8366004612cc2565b610d13565b3480156103f957600080fd5b506102b5610408366004612d2f565b610da9565b34801561041957600080fd5b5060125461032e906001600160a01b031681565b34801561043957600080fd5b50610375600e5481565b6102b5610ddf565b34801561045757600080fd5b506102b5610eb9565b34801561046c57600080fd5b506102b5610eed565b34801561048157600080fd5b506102b5610490366004612cee565b61106d565b3480156104a157600080fd5b506103756104b0366004612bf6565b611088565b3480156104c157600080fd5b506103756104d0366004612da1565b6001600160a01b031660009081526014602052604090205490565b3480156104f757600080fd5b50610375600f5481565b34801561050d57600080fd5b50610375611b5881565b34801561052357600080fd5b5061037560115481565b34801561053957600080fd5b50600c5460ff166102d7565b34801561055157600080fd5b5061032e610560366004612bf6565b61111b565b34801561057157600080fd5b50610301611192565b34801561058657600080fd5b50610375610595366004612da1565b611220565b3480156105a657600080fd5b506102b56112a7565b3480156105bb57600080fd5b50600e54610375565b3480156105d057600080fd5b506105e46105df366004612da1565b6112db565b6040516102e39190612dbe565b3480156105fd57600080fd5b50610375603481565b34801561061257600080fd5b506102b561142d565b34801561062757600080fd5b5061037561145f565b34801561063c57600080fd5b506007546001600160a01b031661032e565b34801561065a57600080fd5b506103016114d2565b34801561066f57600080fd5b506102b561067e366004612e10565b6114e1565b6102b56114ec565b34801561069757600080fd5b50610375611775565b3480156106ac57600080fd5b506102b56106bb366004612e5f565b6117bf565b3480156106cc57600080fd5b506102b56106db366004612cc2565b6117f1565b3480156106ec57600080fd5b506103016106fb366004612bf6565b611956565b34801561070c57600080fd5b50611b58610375565b34801561072157600080fd5b50610301611961565b34801561073657600080fd5b50610375600d5481565b34801561074c57600080fd5b506102b561075b366004612bf6565b611970565b34801561076c57600080fd5b50600f54610375565b34801561078157600080fd5b506102d7610790366004612f3f565b6001600160a01b03918216600090815260056020908152604080832093909416825291909152205460ff1690565b3480156107ca57600080fd5b50600d54610375565b3480156107df57600080fd5b506102b56107ee366004612da1565b61199f565b600d5415801590610805575042600d54105b61084a5760405162461bcd60e51b8152602060048201526011602482015270596f752061726520746f6f206561726c7960781b60448201526064015b60405180910390fd5b600061085461145f565b336000908152601460205260408120549192505082600e546108769190612f83565b3410156108d75760405162461bcd60e51b815260206004820152602960248201527f4e6f7420656e6f75676820457468657220746f207265736572766520746865736044820152686520706f7373756d7360b81b6064820152608401610841565b600083116109275760405162461bcd60e51b815260206004820152601e60248201527f6e65656420746f2072657365727665206174206c656173742031204e465400006044820152606401610841565b60346109338483612fa2565b1115801561095d57503360009081526013602052604090205460349061095a908590612fa2565b11155b6109a95760405162461bcd60e51b815260206004820152601f60248201527f596f752063616e6e6f742072657365727665206d6f726520706f7373756d73006044820152606401610841565b828210156109f95760405162461bcd60e51b815260206004820152601760248201527f4e6f7420656e6f75676820506f7373756d73206c6566740000000000000000006044820152606401610841565b601b831115610a435760405162461bcd60e51b815260206004820152601660248201527526b0bc10191b903832b9103a3930b739b0b1ba34b7b760511b6044820152606401610841565b60005b83811015610a9b576000610a58611a3a565b604051909150819033907f904dcdc411e931497b95b06ddf8f8184815dd3bedc3c7c7cd4aed3ccd30783d890600090a35080610a9381612fba565b915050610a46565b50505050565b6000610aac82611ae5565b92915050565b606060008054610ac190612fd5565b80601f0160208091040260200160405190810160405280929190818152602001828054610aed90612fd5565b8015610b3a5780601f10610b0f57610100808354040283529160200191610b3a565b820191906000526020600020905b815481529060010190602001808311610b1d57829003601f168201915b5050505050905090565b6000610b4f82611b0a565b610bb05760405162461bcd60e51b815260206004820152602c60248201527f4552433732313a20617070726f76656420717565727920666f72206e6f6e657860448201526b34b9ba32b73a103a37b5b2b760a11b6064820152608401610841565b506000908152600460205260409020546001600160a01b031690565b6000610bd78261111b565b9050806001600160a01b0316836001600160a01b03161415610c455760405162461bcd60e51b815260206004820152602160248201527f4552433732313a20617070726f76616c20746f2063757272656e74206f776e656044820152603960f91b6064820152608401610841565b336001600160a01b0382161480610c615750610c618133610790565b610cd35760405162461bcd60e51b815260206004820152603860248201527f4552433732313a20617070726f76652063616c6c6572206973206e6f74206f7760448201527f6e6572206e6f7220617070726f76656420666f7220616c6c00000000000000006064820152608401610841565b610cdd8383611b27565b505050565b610cec3382611b95565b610d085760405162461bcd60e51b81526004016108419061300a565b610cdd838383611c7f565b6000610d1e83611220565b8210610d805760405162461bcd60e51b815260206004820152602b60248201527f455243373231456e756d657261626c653a206f776e657220696e646578206f7560448201526a74206f6620626f756e647360a81b6064820152608401610841565b506001600160a01b03919091166000908152600860209081526040808320938352929052205490565b6007546001600160a01b03163314610dd35760405162461bcd60e51b81526004016108419061305b565b610cdd60108383612ae9565b6007546001600160a01b03163314610e095760405162461bcd60e51b81526004016108419061305b565b476000610e1e6007546001600160a01b031690565b6001600160a01b03168260405160006040518083038185875af1925050503d8060008114610e68576040519150601f19603f3d011682016040523d82523d6000602084013e610e6d565b606091505b5050905080610eb55760405162461bcd60e51b81526020600482015260146024820152732330b4b632b2103a379039b2b7321022ba3432b960611b6044820152606401610841565b5050565b6007546001600160a01b03163314610ee35760405162461bcd60e51b81526004016108419061305b565b610eeb611e2a565b565b6007546001600160a01b03163314610f175760405162461bcd60e51b81526004016108419061305b565b60125460408051631332545760e11b815290516000926001600160a01b031691632664a8ae9160048083019260209291908290030181865afa158015610f61573d6000803e3d6000fd5b505050506040513d601f19601f82011682018060405250810190610f859190613090565b90508015610fe35760405162461bcd60e51b815260206004820152602560248201527f596f752063616e206f6e6c79207072656d696e742074686520506f7373756d73604482015264206f6e636560d81b6064820152608401610841565b60005b606481101561100b57610ff93382611ebd565b8061100381612fba565b915050610fe6565b50601254604051631c8ac9a560e31b8152606460048201526001600160a01b039091169063e4564d2890602401600060405180830381600087803b15801561105257600080fd5b505af1158015611066573d6000803e3d6000fd5b5050505050565b610cdd838383604051806020016040528060008152506117bf565b6000611093600a5490565b82106110f65760405162461bcd60e51b815260206004820152602c60248201527f455243373231456e756d657261626c653a20676c6f62616c20696e646578206f60448201526b7574206f6620626f756e647360a01b6064820152608401610841565b600a8281548110611109576111096130ad565b90600052602060002001549050919050565b6000818152600260205260408120546001600160a01b031680610aac5760405162461bcd60e51b815260206004820152602960248201527f4552433732313a206f776e657220717565727920666f72206e6f6e657869737460448201526832b73a103a37b5b2b760b91b6064820152608401610841565b6010805461119f90612fd5565b80601f01602080910402602001604051908101604052809291908181526020018280546111cb90612fd5565b80156112185780601f106111ed57610100808354040283529160200191611218565b820191906000526020600020905b8154815290600101906020018083116111fb57829003601f168201915b505050505081565b60006001600160a01b03821661128b5760405162461bcd60e51b815260206004820152602a60248201527f4552433732313a2062616c616e636520717565727920666f7220746865207a65604482015269726f206164647265737360b01b6064820152608401610841565b506001600160a01b031660009081526003602052604090205490565b6007546001600160a01b031633146112d15760405162461bcd60e51b81526004016108419061305b565b610eeb6000611ff1565b6001600160a01b0381166000908152601460205260409020546060906113435760405162461bcd60e51b815260206004820152601e60248201527f57616c6c657420686173206e6f20726573657276656420706f7373756d7300006044820152606401610841565b6001600160a01b03821660009081526014602052604090205467ffffffffffffffff81111561137457611374612e49565b60405190808252806020026020018201604052801561139d578160200160208202803683370190505b50905060005b6001600160a01b038316600090815260146020526040902054811015611427576001600160a01b03831660009081526014602052604090208054829081106113ed576113ed6130ad565b906000526020600020015482828151811061140a5761140a6130ad565b60209081029190910101528061141f81612fba565b9150506113a3565b50919050565b6007546001600160a01b031633146114575760405162461bcd60e51b81526004016108419061305b565b610eeb612043565b60125460408051638481de5f60e01b815290516000926001600160a01b031691638481de5f9160048083019260209291908290030181865afa1580156114a9573d6000803e3d6000fd5b505050506040513d601f19601f820116820180604052508101906114cd91906130c3565b905090565b606060018054610ac190612fd5565b610eb53383836120be565b600d54158015906114fe575042600d54105b61153e5760405162461bcd60e51b8152602060048201526011602482015270596f752061726520746f6f206561726c7960781b6044820152606401610841565b6000611548611775565b336000908152601460205260409020549091506115a75760405162461bcd60e51b815260206004820152601c60248201527f796f752068617665206e6f20726573657276656420706f7373756d73000000006044820152606401610841565b428110806115b85750611b58601154145b6115c157600080fd5b600080601260009054906101000a90046001600160a01b03166001600160a01b031663eb6ad24e6040518163ffffffff1660e01b8152600401602060405180830381865afa158015611617573d6000803e3d6000fd5b505050506040513d601f19601f8201168201806040525081019061163b91906130c3565b90508061168a5760405162461bcd60e51b815260206004820152601f60248201527f506f7373756d73206e6f7420726561647920746f20626520636c61696d6564006044820152606401610841565b60005b33600090815260146020526040902054811015610a9b573360009081526014602052604081208054849190849081106116c8576116c86130ad565b90600052602060002001546116dd9190612fa2565b90506116ec6001611b586130dc565b811115611727576116ff600160646130dc565b61170c6001611b586130dc565b61171690836130dc565b6117209190612fa2565b935061172b565b8093505b6117353385611ebd565b336000908152601460205260408120805484908110611756576117566130ad565b600091825260209091200155508061176d81612fba565b91505061168d565b601254604080516344657d2760e11b815290516000926001600160a01b0316916388cafa4e9160048083019260209291908290030181865afa1580156114a9573d6000803e3d6000fd5b6117c93383611b95565b6117e55760405162461bcd60e51b81526004016108419061300a565b610a9b8484848461218d565b6007546001600160a01b0316331461181b5760405162461bcd60e51b81526004016108419061305b565b6040516370a0823160e01b81523060048201526000906001600160a01b038416906370a0823190602401602060405180830381865afa158015611862573d6000803e3d6000fd5b505050506040513d601f19601f8201168201806040525081019061188691906130c3565b116118e55760405162461bcd60e51b815260206004820152602960248201527f7468697320636f6e747261637420646f6573206e6f7420636f6e7461696e20746044820152683434b9903a37b5b2b760b91b6064820152608401610841565b60405163a9059cbb60e01b8152336004820152602481018290526001600160a01b0383169063a9059cbb906044016020604051808303816000875af1158015611932573d6000803e3d6000fd5b505050506040513d601f19601f82011682018060405250810190610cdd9190613090565b6060610aac826121c0565b606060108054610ac190612fd5565b6007546001600160a01b0316331461199a5760405162461bcd60e51b81526004016108419061305b565b600e55565b6007546001600160a01b031633146119c95760405162461bcd60e51b81526004016108419061305b565b6001600160a01b038116611a2e5760405162461bcd60e51b815260206004820152602660248201527f4f776e61626c653a206e6577206f776e657220697320746865207a65726f206160448201526564647265737360d01b6064820152608401610841565b611a3781611ff1565b50565b6012546040805163c6410f7b60e01b815290516000926001600160a01b03169163c6410f7b916004808301926020929190829003018187875af1158015611a85573d6000803e3d6000fd5b505050506040513d601f19601f82011682018060405250810190611aa991906130c3565b33600090815260146020908152604082208054600181018255908352908220018290556011805492935090611add83612fba565b919050555090565b60006001600160e01b0319821663780e9d6360e01b1480610aac5750610aac82612322565b6000908152600260205260409020546001600160a01b0316151590565b600081815260046020526040902080546001600160a01b0319166001600160a01b0384169081179091558190611b5c8261111b565b6001600160a01b03167f8c5be1e5ebec7d5bd14f71427d1e84f3dd0314c0f7b2291e5b200ac8c7c3b92560405160405180910390a45050565b6000611ba082611b0a565b611c015760405162461bcd60e51b815260206004820152602c60248201527f4552433732313a206f70657261746f7220717565727920666f72206e6f6e657860448201526b34b9ba32b73a103a37b5b2b760a11b6064820152608401610841565b6000611c0c8361111b565b9050806001600160a01b0316846001600160a01b03161480611c475750836001600160a01b0316611c3c84610b44565b6001600160a01b0316145b80611c7757506001600160a01b0380821660009081526005602090815260408083209388168352929052205460ff165b949350505050565b826001600160a01b0316611c928261111b565b6001600160a01b031614611cfa5760405162461bcd60e51b815260206004820152602960248201527f4552433732313a207472616e73666572206f6620746f6b656e2074686174206960448201526839903737ba1037bbb760b91b6064820152608401610841565b6001600160a01b038216611d5c5760405162461bcd60e51b8152602060048201526024808201527f4552433732313a207472616e7366657220746f20746865207a65726f206164646044820152637265737360e01b6064820152608401610841565b611d67838383612372565b611d72600082611b27565b6001600160a01b0383166000908152600360205260408120805460019290611d9b9084906130dc565b90915550506001600160a01b0382166000908152600360205260408120805460019290611dc9908490612fa2565b909155505060008181526002602052604080822080546001600160a01b0319166001600160a01b0386811691821790925591518493918716917fddf252ad1be2c89b69c2b068fc378daa952ba7f163c4a11628f55a4df523b3ef91a4505050565b600c5460ff16611e735760405162461bcd60e51b815260206004820152601460248201527314185d5cd8589b194e881b9bdd081c185d5cd95960621b6044820152606401610841565b600c805460ff191690557f5db9ee0a495bf2e6ff9c91a7834c1ba4fdd244a5e8aa4e537bd38aeae4b073aa335b6040516001600160a01b03909116815260200160405180910390a1565b611b58600f541115611f115760405162461bcd60e51b815260206004820152601c60248201527f616c6c20506f7373756d732068617665206265656e206d696e746564000000006044820152606401610841565b611f1b82826123c3565b611faf8160108054611f2c90612fd5565b80601f0160208091040260200160405190810160405280929190818152602001828054611f5890612fd5565b8015611fa55780601f10611f7a57610100808354040283529160200191611fa5565b820191906000526020600020905b815481529060010190602001808311611f8857829003601f168201915b50505050506123dd565b600f8054906000611fbf83612fba565b90915550506001600160a01b0382166000908152601360205260408120805491611fe883612fba565b91905055505050565b600780546001600160a01b038381166001600160a01b0319831681179093556040519116919082907f8be0079c531659141344cd1fd0a4f28419497f9722a3daafe3b4186f6b6457e090600090a35050565b600c5460ff16156120895760405162461bcd60e51b815260206004820152601060248201526f14185d5cd8589b194e881c185d5cd95960821b6044820152606401610841565b600c805460ff191660011790557f62e78cea01bee320cd4e420270b5ea74000d11b0c9f74754ebdbfc544b05a258611ea03390565b816001600160a01b0316836001600160a01b031614156121205760405162461bcd60e51b815260206004820152601960248201527f4552433732313a20617070726f766520746f2063616c6c6572000000000000006044820152606401610841565b6001600160a01b03838116600081815260056020908152604080832094871680845294825291829020805460ff191686151590811790915591519182527f17307eab39ab6107e8899845ad3d59bd9653f200f220920489ca2b5937696c31910160405180910390a3505050565b612198848484611c7f565b6121a484848484612468565b610a9b5760405162461bcd60e51b8152600401610841906130f3565b60606121cb82611b0a565b6122315760405162461bcd60e51b815260206004820152603160248201527f45524337323155524953746f726167653a2055524920717565727920666f72206044820152703737b732bc34b9ba32b73a103a37b5b2b760791b6064820152608401610841565b6000828152600660205260408120805461224a90612fd5565b80601f016020809104026020016040519081016040528092919081815260200182805461227690612fd5565b80156122c35780601f10612298576101008083540402835291602001916122c3565b820191906000526020600020905b8154815290600101906020018083116122a657829003601f168201915b5050505050905060006122d4611961565b90508051600014156122e7575092915050565b815115612319578082604051602001612301929190613145565b60405160208183030381529060405292505050919050565b611c7784612566565b60006001600160e01b031982166380ac58cd60e01b148061235357506001600160e01b03198216635b5e139f60e01b145b80610aac57506301ffc9a760e01b6001600160e01b0319831614610aac565b600c5460ff16156123b85760405162461bcd60e51b815260206004820152601060248201526f14185d5cd8589b194e881c185d5cd95960821b6044820152606401610841565b610cdd838383612631565b610eb58282604051806020016040528060008152506126e9565b6123e682611b0a565b6124495760405162461bcd60e51b815260206004820152602e60248201527f45524337323155524953746f726167653a2055524920736574206f66206e6f6e60448201526d32bc34b9ba32b73a103a37b5b2b760911b6064820152608401610841565b60008281526006602090815260409091208251610cdd92840190612b6d565b60006001600160a01b0384163b1561255b57604051630a85bd0160e11b81526001600160a01b0385169063150b7a02906124ac903390899088908890600401613174565b6020604051808303816000875af19250505080156124e7575060408051601f3d908101601f191682019092526124e4918101906131b1565b60015b612541573d808015612515576040519150601f19603f3d011682016040523d82523d6000602084013e61251a565b606091505b5080516125395760405162461bcd60e51b8152600401610841906130f3565b805181602001fd5b6001600160e01b031916630a85bd0160e11b149050611c77565b506001949350505050565b606061257182611b0a565b6125d55760405162461bcd60e51b815260206004820152602f60248201527f4552433732314d657461646174613a2055524920717565727920666f72206e6f60448201526e3732bc34b9ba32b73a103a37b5b2b760891b6064820152608401610841565b60006125df611961565b905060008151116125ff576040518060200160405280600081525061262a565b806126098461271c565b60405160200161261a929190613145565b6040516020818303038152906040525b9392505050565b6001600160a01b03831661268c5761268781600a80546000838152600b60205260408120829055600182018355919091527fc65a7bb8d6351c1cf70c95a316cc6a92839c986682d98bc35f958f4883f9d2a80155565b6126af565b816001600160a01b0316836001600160a01b0316146126af576126af838261281a565b6001600160a01b0382166126c657610cdd816128b7565b826001600160a01b0316826001600160a01b031614610cdd57610cdd8282612966565b6126f383836129aa565b6127006000848484612468565b610cdd5760405162461bcd60e51b8152600401610841906130f3565b6060816127405750506040805180820190915260018152600360fc1b602082015290565b8160005b811561276a578061275481612fba565b91506127639050600a836131e4565b9150612744565b60008167ffffffffffffffff81111561278557612785612e49565b6040519080825280601f01601f1916602001820160405280156127af576020820181803683370190505b5090505b8415611c77576127c46001836130dc565b91506127d1600a866131f8565b6127dc906030612fa2565b60f81b8183815181106127f1576127f16130ad565b60200101906001600160f81b031916908160001a905350612813600a866131e4565b94506127b3565b6000600161282784611220565b61283191906130dc565b600083815260096020526040902054909150808214612884576001600160a01b03841660009081526008602090815260408083208584528252808320548484528184208190558352600990915290208190555b5060009182526009602090815260408084208490556001600160a01b039094168352600881528383209183525290812055565b600a546000906128c9906001906130dc565b6000838152600b6020526040812054600a80549394509092849081106128f1576128f16130ad565b9060005260206000200154905080600a8381548110612912576129126130ad565b6000918252602080832090910192909255828152600b9091526040808220849055858252812055600a80548061294a5761294a61320c565b6001900381819060005260206000200160009055905550505050565b600061297183611220565b6001600160a01b039093166000908152600860209081526040808320868452825280832085905593825260099052919091209190915550565b6001600160a01b038216612a005760405162461bcd60e51b815260206004820181905260248201527f4552433732313a206d696e7420746f20746865207a65726f20616464726573736044820152606401610841565b612a0981611b0a565b15612a565760405162461bcd60e51b815260206004820152601c60248201527f4552433732313a20746f6b656e20616c7265616479206d696e746564000000006044820152606401610841565b612a6260008383612372565b6001600160a01b0382166000908152600360205260408120805460019290612a8b908490612fa2565b909155505060008181526002602052604080822080546001600160a01b0319166001600160a01b03861690811790915590518392907fddf252ad1be2c89b69c2b068fc378daa952ba7f163c4a11628f55a4df523b3ef908290a45050565b828054612af590612fd5565b90600052602060002090601f016020900481019282612b175760008555612b5d565b82601f10612b305782800160ff19823516178555612b5d565b82800160010185558215612b5d579182015b82811115612b5d578235825591602001919060010190612b42565b50612b69929150612be1565b5090565b828054612b7990612fd5565b90600052602060002090601f016020900481019282612b9b5760008555612b5d565b82601f10612bb457805160ff1916838001178555612b5d565b82800160010185558215612b5d579182015b82811115612b5d578251825591602001919060010190612bc6565b5b80821115612b695760008155600101612be2565b600060208284031215612c0857600080fd5b5035919050565b6001600160e01b031981168114611a3757600080fd5b600060208284031215612c3757600080fd5b813561262a81612c0f565b60005b83811015612c5d578181015183820152602001612c45565b83811115610a9b5750506000910152565b60008151808452612c86816020860160208601612c42565b601f01601f19169290920160200192915050565b60208152600061262a6020830184612c6e565b6001600160a01b0381168114611a3757600080fd5b60008060408385031215612cd557600080fd5b8235612ce081612cad565b946020939093013593505050565b600080600060608486031215612d0357600080fd5b8335612d0e81612cad565b92506020840135612d1e81612cad565b929592945050506040919091013590565b60008060208385031215612d4257600080fd5b823567ffffffffffffffff80821115612d5a57600080fd5b818501915085601f830112612d6e57600080fd5b813581811115612d7d57600080fd5b866020828501011115612d8f57600080fd5b60209290920196919550909350505050565b600060208284031215612db357600080fd5b813561262a81612cad565b6020808252825182820181905260009190848201906040850190845b81811015612df657835183529284019291840191600101612dda565b50909695505050505050565b8015158114611a3757600080fd5b60008060408385031215612e2357600080fd5b8235612e2e81612cad565b91506020830135612e3e81612e02565b809150509250929050565b634e487b7160e01b600052604160045260246000fd5b60008060008060808587031215612e7557600080fd5b8435612e8081612cad565b93506020850135612e9081612cad565b925060408501359150606085013567ffffffffffffffff80821115612eb457600080fd5b818701915087601f830112612ec857600080fd5b813581811115612eda57612eda612e49565b604051601f8201601f19908116603f01168101908382118183101715612f0257612f02612e49565b816040528281528a6020848701011115612f1b57600080fd5b82602086016020830137600060208483010152809550505050505092959194509250565b60008060408385031215612f5257600080fd5b8235612f5d81612cad565b91506020830135612e3e81612cad565b634e487b7160e01b600052601160045260246000fd5b6000816000190483118215151615612f9d57612f9d612f6d565b500290565b60008219821115612fb557612fb5612f6d565b500190565b6000600019821415612fce57612fce612f6d565b5060010190565b600181811c90821680612fe957607f821691505b6020821081141561142757634e487b7160e01b600052602260045260246000fd5b60208082526031908201527f4552433732313a207472616e736665722063616c6c6572206973206e6f74206f6040820152701ddb995c881b9bdc88185c1c1c9bdd9959607a1b606082015260800190565b6020808252818101527f4f776e61626c653a2063616c6c6572206973206e6f7420746865206f776e6572604082015260600190565b6000602082840312156130a257600080fd5b815161262a81612e02565b634e487b7160e01b600052603260045260246000fd5b6000602082840312156130d557600080fd5b5051919050565b6000828210156130ee576130ee612f6d565b500390565b60208082526032908201527f4552433732313a207472616e7366657220746f206e6f6e20455243373231526560408201527131b2b4bb32b91034b6b83632b6b2b73a32b960711b606082015260800190565b60008351613157818460208801612c42565b83519083019061316b818360208801612c42565b01949350505050565b6001600160a01b03858116825284166020820152604081018390526080606082018190526000906131a790830184612c6e565b9695505050505050565b6000602082840312156131c357600080fd5b815161262a81612c0f565b634e487b7160e01b600052601260045260246000fd5b6000826131f3576131f36131ce565b500490565b600082613207576132076131ce565b500690565b634e487b7160e01b600052603160045260246000fdfea2646970667358221220e2e8855ef06e610cd1e362bb19247c41dbe95f28828c3671d4e1db8601b8d30764736f6c634300080a0033",
  "linkReferences": {},
  "deployedLinkReferences": {}
}