{
  "_format": "hh-sol-artifact-1",
  "contractName": "TrashPossums",
  "sourceName": "contracts/TrashPossums.sol",
  "abi": [
    {
      "inputs": [],
      "stateMutability": "nonpayable",
      "type": "constructor"
    },
    {
      "anonymous": false,
      "inputs": [
        {
          "indexed": true,
          "internalType": "address",
          "name": "owner",
          "type": "address"
        },
        {
          "indexed": true,
          "internalType": "address",
          "name": "approved",
          "type": "address"
        },
        {
          "indexed": true,
          "internalType": "uint256",
          "name": "tokenId",
          "type": "uint256"
        }
      ],
      "name": "Approval",
      "type": "event"
    },
    {
      "anonymous": false,
      "inputs": [
        {
          "indexed": true,
          "internalType": "address",
          "name": "owner",
          "type": "address"
        },
        {
          "indexed": true,
          "internalType": "address",
          "name": "operator",
          "type": "address"
        },
        {
          "indexed": false,
          "internalType": "bool",
          "name": "approved",
          "type": "bool"
        }
      ],
      "name": "ApprovalForAll",
      "type": "event"
    },
    {
      "anonymous": false,
      "inputs": [
        {
          "indexed": true,
          "internalType": "address",
          "name": "from",
          "type": "address"
        },
        {
          "indexed": true,
          "internalType": "uint256",
          "name": "tokenId",
          "type": "uint256"
        }
      ],
      "name": "Mint",
      "type": "event"
    },
    {
      "anonymous": false,
      "inputs": [
        {
          "indexed": true,
          "internalType": "address",
          "name": "previousOwner",
          "type": "address"
        },
        {
          "indexed": true,
          "internalType": "address",
          "name": "newOwner",
          "type": "address"
        }
      ],
      "name": "OwnershipTransferred",
      "type": "event"
    },
    {
      "anonymous": false,
      "inputs": [
        {
          "indexed": false,
          "internalType": "address",
          "name": "account",
          "type": "address"
        }
      ],
      "name": "Paused",
      "type": "event"
    },
    {
      "anonymous": false,
      "inputs": [
        {
          "indexed": true,
          "internalType": "address",
          "name": "from",
          "type": "address"
        },
        {
          "indexed": true,
          "internalType": "address",
          "name": "to",
          "type": "address"
        },
        {
          "indexed": true,
          "internalType": "uint256",
          "name": "tokenId",
          "type": "uint256"
        }
      ],
      "name": "Transfer",
      "type": "event"
    },
    {
      "anonymous": false,
      "inputs": [
        {
          "indexed": false,
          "internalType": "address",
          "name": "account",
          "type": "address"
        }
      ],
      "name": "Unpaused",
      "type": "event"
    },
    {
      "inputs": [
        {
          "internalType": "address",
          "name": "to",
          "type": "address"
        },
        {
          "internalType": "uint256",
          "name": "tokenId",
          "type": "uint256"
        }
      ],
      "name": "approve",
      "outputs": [],
      "stateMutability": "nonpayable",
      "type": "function"
    },
    {
      "inputs": [
        {
          "internalType": "address",
          "name": "owner",
          "type": "address"
        }
      ],
      "name": "balanceOf",
      "outputs": [
        {
          "internalType": "uint256",
          "name": "",
          "type": "uint256"
        }
      ],
      "stateMutability": "view",
      "type": "function"
    },
    {
      "inputs": [],
      "name": "baseTokenURI",
      "outputs": [
        {
          "internalType": "string",
          "name": "",
          "type": "string"
        }
      ],
      "stateMutability": "view",
      "type": "function"
    },
    {
      "inputs": [
        {
          "internalType": "uint256",
          "name": "tokenId",
          "type": "uint256"
        }
      ],
      "name": "burn",
      "outputs": [],
      "stateMutability": "nonpayable",
      "type": "function"
    },
    {
      "inputs": [
        {
          "internalType": "uint256",
          "name": "tokenId",
          "type": "uint256"
        }
      ],
      "name": "getApproved",
      "outputs": [
        {
          "internalType": "address",
          "name": "",
          "type": "address"
        }
      ],
      "stateMutability": "view",
      "type": "function"
    },
    {
      "inputs": [],
      "name": "getAvailablePossums",
      "outputs": [
        {
          "internalType": "uint256",
          "name": "",
          "type": "uint256"
        }
      ],
      "stateMutability": "view",
      "type": "function"
    },
    {
      "inputs": [],
      "name": "getMintingStartDate",
      "outputs": [
        {
          "internalType": "uint256",
          "name": "",
          "type": "uint256"
        }
      ],
      "stateMutability": "view",
      "type": "function"
    },
    {
      "inputs": [],
      "name": "getpossumPrice",
      "outputs": [
        {
          "internalType": "uint256",
          "name": "",
          "type": "uint256"
        }
      ],
      "stateMutability": "view",
      "type": "function"
    },
    {
      "inputs": [
        {
          "internalType": "address",
          "name": "owner",
          "type": "address"
        },
        {
          "internalType": "address",
          "name": "operator",
          "type": "address"
        }
      ],
      "name": "isApprovedForAll",
      "outputs": [
        {
          "internalType": "bool",
          "name": "",
          "type": "bool"
        }
      ],
      "stateMutability": "view",
      "type": "function"
    },
    {
      "inputs": [
        {
          "internalType": "uint256",
          "name": "amount",
          "type": "uint256"
        }
      ],
      "name": "mintPossum",
      "outputs": [],
      "stateMutability": "payable",
      "type": "function"
    },
    {
      "inputs": [],
      "name": "name",
      "outputs": [
        {
          "internalType": "string",
          "name": "",
          "type": "string"
        }
      ],
      "stateMutability": "view",
      "type": "function"
    },
    {
      "inputs": [],
      "name": "owner",
      "outputs": [
        {
          "internalType": "address",
          "name": "",
          "type": "address"
        }
      ],
      "stateMutability": "view",
      "type": "function"
    },
    {
      "inputs": [
        {
          "internalType": "uint256",
          "name": "tokenId",
          "type": "uint256"
        }
      ],
      "name": "ownerOf",
      "outputs": [
        {
          "internalType": "address",
          "name": "",
          "type": "address"
        }
      ],
      "stateMutability": "view",
      "type": "function"
    },
    {
      "inputs": [],
      "name": "pause",
      "outputs": [],
      "stateMutability": "nonpayable",
      "type": "function"
    },
    {
      "inputs": [],
      "name": "paused",
      "outputs": [
        {
          "internalType": "bool",
          "name": "",
          "type": "bool"
        }
      ],
      "stateMutability": "view",
      "type": "function"
    },
    {
      "inputs": [],
      "name": "premintCount",
      "outputs": [
        {
          "internalType": "uint256",
          "name": "",
          "type": "uint256"
        }
      ],
      "stateMutability": "view",
      "type": "function"
    },
    {
      "inputs": [],
      "name": "premintPossums",
      "outputs": [],
      "stateMutability": "nonpayable",
      "type": "function"
    },
    {
      "inputs": [],
      "name": "premintingComplete",
      "outputs": [
        {
          "internalType": "bool",
          "name": "",
          "type": "bool"
        }
      ],
      "stateMutability": "view",
      "type": "function"
    },
    {
      "inputs": [],
      "name": "renounceOwnership",
      "outputs": [],
      "stateMutability": "nonpayable",
      "type": "function"
    },
    {
      "inputs": [
        {
          "internalType": "address",
          "name": "to",
          "type": "address"
        },
        {
          "internalType": "string",
          "name": "_ipfsUri",
          "type": "string"
        }
      ],
      "name": "safeMint",
      "outputs": [],
      "stateMutability": "nonpayable",
      "type": "function"
    },
    {
      "inputs": [
        {
          "internalType": "address",
          "name": "from",
          "type": "address"
        },
        {
          "internalType": "address",
          "name": "to",
          "type": "address"
        },
        {
          "internalType": "uint256",
          "name": "tokenId",
          "type": "uint256"
        }
      ],
      "name": "safeTransferFrom",
      "outputs": [],
      "stateMutability": "nonpayable",
      "type": "function"
    },
    {
      "inputs": [
        {
          "internalType": "address",
          "name": "from",
          "type": "address"
        },
        {
          "internalType": "address",
          "name": "to",
          "type": "address"
        },
        {
          "internalType": "uint256",
          "name": "tokenId",
          "type": "uint256"
        },
        {
          "internalType": "bytes",
          "name": "_data",
          "type": "bytes"
        }
      ],
      "name": "safeTransferFrom",
      "outputs": [],
      "stateMutability": "nonpayable",
      "type": "function"
    },
    {
      "inputs": [
        {
          "internalType": "address",
          "name": "operator",
          "type": "address"
        },
        {
          "internalType": "bool",
          "name": "approved",
          "type": "bool"
        }
      ],
      "name": "setApprovalForAll",
      "outputs": [],
      "stateMutability": "nonpayable",
      "type": "function"
    },
    {
      "inputs": [
        {
          "internalType": "string",
          "name": "_uri",
          "type": "string"
        }
      ],
      "name": "setBaseTokenURI",
      "outputs": [],
      "stateMutability": "nonpayable",
      "type": "function"
    },
    {
      "inputs": [
        {
          "internalType": "uint256",
          "name": "_possumPrice",
          "type": "uint256"
        }
      ],
      "name": "setPossumPrice",
      "outputs": [],
      "stateMutability": "nonpayable",
      "type": "function"
    },
    {
      "inputs": [
        {
          "internalType": "bytes4",
          "name": "interfaceId",
          "type": "bytes4"
        }
      ],
      "name": "supportsInterface",
      "outputs": [
        {
          "internalType": "bool",
          "name": "",
          "type": "bool"
        }
      ],
      "stateMutability": "view",
      "type": "function"
    },
    {
      "inputs": [],
      "name": "symbol",
      "outputs": [
        {
          "internalType": "string",
          "name": "",
          "type": "string"
        }
      ],
      "stateMutability": "view",
      "type": "function"
    },
    {
      "inputs": [
        {
          "internalType": "uint256",
          "name": "index",
          "type": "uint256"
        }
      ],
      "name": "tokenByIndex",
      "outputs": [
        {
          "internalType": "uint256",
          "name": "",
          "type": "uint256"
        }
      ],
      "stateMutability": "view",
      "type": "function"
    },
    {
      "inputs": [
        {
          "internalType": "address",
          "name": "owner",
          "type": "address"
        },
        {
          "internalType": "uint256",
          "name": "index",
          "type": "uint256"
        }
      ],
      "name": "tokenOfOwnerByIndex",
      "outputs": [
        {
          "internalType": "uint256",
          "name": "",
          "type": "uint256"
        }
      ],
      "stateMutability": "view",
      "type": "function"
    },
    {
      "inputs": [
        {
          "internalType": "uint256",
          "name": "tokenId",
          "type": "uint256"
        }
      ],
      "name": "tokenURI",
      "outputs": [
        {
          "internalType": "string",
          "name": "",
          "type": "string"
        }
      ],
      "stateMutability": "view",
      "type": "function"
    },
    {
      "inputs": [],
      "name": "totalPossums",
      "outputs": [
        {
          "internalType": "uint256",
          "name": "",
          "type": "uint256"
        }
      ],
      "stateMutability": "view",
      "type": "function"
    },
    {
      "inputs": [],
      "name": "totalSupply",
      "outputs": [
        {
          "internalType": "uint256",
          "name": "",
          "type": "uint256"
        }
      ],
      "stateMutability": "view",
      "type": "function"
    },
    {
      "inputs": [
        {
          "internalType": "address",
          "name": "from",
          "type": "address"
        },
        {
          "internalType": "address",
          "name": "to",
          "type": "address"
        },
        {
          "internalType": "uint256",
          "name": "tokenId",
          "type": "uint256"
        }
      ],
      "name": "transferFrom",
      "outputs": [],
      "stateMutability": "nonpayable",
      "type": "function"
    },
    {
      "inputs": [
        {
          "internalType": "address",
          "name": "newOwner",
          "type": "address"
        }
      ],
      "name": "transferOwnership",
      "outputs": [],
      "stateMutability": "nonpayable",
      "type": "function"
    },
    {
      "inputs": [],
      "name": "unpause",
      "outputs": [],
      "stateMutability": "nonpayable",
      "type": "function"
    },
    {
      "inputs": [],
      "name": "withdraw",
      "outputs": [],
      "stateMutability": "nonpayable",
      "type": "function"
    }
  ],
  "bytecode": "0x6080604052611e61600d5560b1600e556003600f55636132387060105566f8b0a10e47000060115560006012556101156013556000601460006101000a81548160ff02191690831515021790555060405180608001604052806044815260200162005ae460449139601590805190602001906200007e92919062000379565b503480156200008c57600080fd5b506040518060400160405280600d81526020017f547261736820506f7373756d73000000000000000000000000000000000000008152506040518060400160405280600581526020017f545241534800000000000000000000000000000000000000000000000000000081525081600090805190602001906200011192919062000379565b5080600190805190602001906200012a92919062000379565b5050506000600b60006101000a81548160ff021916908315150217905550620001686200015c6200017e60201b60201c565b6200018660201b60201c565b620001786200024c60201b60201c565b6200057e565b600033905090565b6000600b60019054906101000a900473ffffffffffffffffffffffffffffffffffffffff16905081600b60016101000a81548173ffffffffffffffffffffffffffffffffffffffff021916908373ffffffffffffffffffffffffffffffffffffffff1602179055508173ffffffffffffffffffffffffffffffffffffffff168173ffffffffffffffffffffffffffffffffffffffff167f8be0079c531659141344cd1fd0a4f28419497f9722a3daafe3b4186f6b6457e060405160405180910390a35050565b6200025c6200017e60201b60201c565b73ffffffffffffffffffffffffffffffffffffffff16620002826200034f60201b60201c565b73ffffffffffffffffffffffffffffffffffffffff1614620002db576040517f08c379a0000000000000000000000000000000000000000000000000000000008152600401620002d29062000450565b60405180910390fd5b60005b611e608161ffff16116200034c5760178190806001815401808255809150506001900390600052602060002090601091828204019190066002029091909190916101000a81548161ffff021916908361ffff16021790555080806200034390620004c7565b915050620002de565b50565b6000600b60019054906101000a900473ffffffffffffffffffffffffffffffffffffffff16905090565b828054620003879062000491565b90600052602060002090601f016020900481019282620003ab5760008555620003f7565b82601f10620003c657805160ff1916838001178555620003f7565b82800160010185558215620003f7579182015b82811115620003f6578251825591602001919060010190620003d9565b5b5090506200040691906200040a565b5090565b5b80821115620004255760008160009055506001016200040b565b5090565b60006200043860208362000472565b9150620004458262000555565b602082019050919050565b600060208201905081810360008301526200046b8162000429565b9050919050565b600082825260208201905092915050565b600061ffff82169050919050565b60006002820490506001821680620004aa57607f821691505b60208210811415620004c157620004c062000526565b5b50919050565b6000620004d48262000483565b915061ffff821415620004ec57620004eb620004f7565b5b600182019050919050565b7f4e487b7100000000000000000000000000000000000000000000000000000000600052601160045260246000fd5b7f4e487b7100000000000000000000000000000000000000000000000000000000600052602260045260246000fd5b7f4f776e61626c653a2063616c6c6572206973206e6f7420746865206f776e6572600082015250565b615556806200058e6000396000f3fe60806040526004361061020f5760003560e01c80636352211e11610118578063b88d4fde116100a0578063dca772841161006f578063dca7728414610753578063e985e9c51461077c578063ead17506146107b9578063f2fde38b146107e4578063fbae2e071461080d5761020f565b8063b88d4fde14610699578063c87b56dd146106c2578063d204c45e146106ff578063d547cfb7146107285761020f565b80638481de5f116100e75780638481de5f146105c45780638da5cb5b146105ef57806395d89b411461061a5780639d9ee67314610645578063a22cb465146106705761020f565b80636352211e1461051c57806370a0823114610559578063715018a6146105965780638456cb59146105ad5761020f565b80633ccfd60b1161019b57806342966c681161016a57806342966c68146104355780634639dba31461045e5780634f6ccce7146104895780635b46a8f2146104c65780635c975abb146104f15761020f565b80633ccfd60b146103c75780633f4ba83a146103de578063416c585d146103f557806342842e0e1461040c5761020f565b806318160ddd116101e257806318160ddd146102e25780632344e9181461030d57806323b872dd146103385780632f745c591461036157806330176e131461039e5761020f565b806301ffc9a71461021457806306fdde0314610251578063081812fc1461027c578063095ea7b3146102b9575b600080fd5b34801561022057600080fd5b5061023b60048036038101906102369190613cdc565b610829565b60405161024891906143eb565b60405180910390f35b34801561025d57600080fd5b5061026661083b565b6040516102739190614406565b60405180910390f35b34801561028857600080fd5b506102a3600480360381019061029e9190613d6f565b6108cd565b6040516102b09190614384565b60405180910390f35b3480156102c557600080fd5b506102e060048036038101906102db9190613ca0565b610952565b005b3480156102ee57600080fd5b506102f7610a6a565b6040516103049190614808565b60405180910390f35b34801561031957600080fd5b50610322610a74565b60405161032f91906143eb565b60405180910390f35b34801561034457600080fd5b5061035f600480360381019061035a9190613b46565b610a87565b005b34801561036d57600080fd5b5061038860048036038101906103839190613ca0565b610ae7565b6040516103959190614808565b60405180910390f35b3480156103aa57600080fd5b506103c560048036038101906103c09190613d2e565b610b8c565b005b3480156103d357600080fd5b506103dc610c22565b005b3480156103ea57600080fd5b506103f3610ced565b005b34801561040157600080fd5b5061040a610d73565b005b34801561041857600080fd5b50610433600480360381019061042e9190613b46565b610ef3565b005b34801561044157600080fd5b5061045c60048036038101906104579190613d6f565b610f13565b005b34801561046a57600080fd5b50610473610f6f565b6040516104809190614808565b60405180910390f35b34801561049557600080fd5b506104b060048036038101906104ab9190613d6f565b610f79565b6040516104bd9190614808565b60405180910390f35b3480156104d257600080fd5b506104db611010565b6040516104e89190614808565b60405180910390f35b3480156104fd57600080fd5b50610506611016565b60405161051391906143eb565b60405180910390f35b34801561052857600080fd5b50610543600480360381019061053e9190613d6f565b61102d565b6040516105509190614384565b60405180910390f35b34801561056557600080fd5b50610580600480360381019061057b9190613ae1565b6110df565b60405161058d9190614808565b60405180910390f35b3480156105a257600080fd5b506105ab611197565b005b3480156105b957600080fd5b506105c261121f565b005b3480156105d057600080fd5b506105d96112a5565b6040516105e69190614808565b60405180910390f35b3480156105fb57600080fd5b506106046112b2565b6040516106119190614384565b60405180910390f35b34801561062657600080fd5b5061062f6112dc565b60405161063c9190614406565b60405180910390f35b34801561065157600080fd5b5061065a61136e565b6040516106679190614808565b60405180910390f35b34801561067c57600080fd5b5061069760048036038101906106929190613c10565b611374565b005b3480156106a557600080fd5b506106c060048036038101906106bb9190613b95565b6114f5565b005b3480156106ce57600080fd5b506106e960048036038101906106e49190613d6f565b611557565b6040516106f69190614406565b60405180910390f35b34801561070b57600080fd5b5061072660048036038101906107219190613c4c565b611569565b005b34801561073457600080fd5b5061073d61165a565b60405161074a9190614406565b60405180910390f35b34801561075f57600080fd5b5061077a60048036038101906107759190613d6f565b6116ec565b005b34801561078857600080fd5b506107a3600480360381019061079e9190613b0a565b611772565b6040516107b091906143eb565b60405180910390f35b3480156107c557600080fd5b506107ce611806565b6040516107db9190614808565b60405180910390f35b3480156107f057600080fd5b5061080b60048036038101906108069190613ae1565b611810565b005b61082760048036038101906108229190613d6f565b611908565b005b600061083482611c92565b9050919050565b60606000805461084a90614ad4565b80601f016020809104026020016040519081016040528092919081815260200182805461087690614ad4565b80156108c35780601f10610898576101008083540402835291602001916108c3565b820191906000526020600020905b8154815290600101906020018083116108a657829003601f168201915b5050505050905090565b60006108d882611d0c565b610917576040517f08c379a000000000000000000000000000000000000000000000000000000000815260040161090e906146c8565b60405180910390fd5b6004600083815260200190815260200160002060009054906101000a900473ffffffffffffffffffffffffffffffffffffffff169050919050565b600061095d8261102d565b90508073ffffffffffffffffffffffffffffffffffffffff168373ffffffffffffffffffffffffffffffffffffffff1614156109ce576040517f08c379a00000000000000000000000000000000000000000000000000000000081526004016109c590614768565b60405180910390fd5b8073ffffffffffffffffffffffffffffffffffffffff166109ed611d78565b73ffffffffffffffffffffffffffffffffffffffff161480610a1c5750610a1b81610a16611d78565b611772565b5b610a5b576040517f08c379a0000000000000000000000000000000000000000000000000000000008152600401610a52906145a8565b60405180910390fd5b610a658383611d80565b505050565b6000601254905090565b601460009054906101000a900460ff1681565b610a98610a92611d78565b82611e39565b610ad7576040517f08c379a0000000000000000000000000000000000000000000000000000000008152600401610ace90614788565b60405180910390fd5b610ae2838383611f17565b505050565b6000610af2836110df565b8210610b33576040517f08c379a0000000000000000000000000000000000000000000000000000000008152600401610b2a90614448565b60405180910390fd5b600660008473ffffffffffffffffffffffffffffffffffffffff1673ffffffffffffffffffffffffffffffffffffffff168152602001908152602001600020600083815260200190815260200160002054905092915050565b610b94611d78565b73ffffffffffffffffffffffffffffffffffffffff16610bb26112b2565b73ffffffffffffffffffffffffffffffffffffffff1614610c08576040517f08c379a0000000000000000000000000000000000000000000000000000000008152600401610bff90614708565b60405180910390fd5b8060159080519060200190610c1e9291906138c5565b5050565b610c2a611d78565b73ffffffffffffffffffffffffffffffffffffffff16610c486112b2565b73ffffffffffffffffffffffffffffffffffffffff1614610c9e576040517f08c379a0000000000000000000000000000000000000000000000000000000008152600401610c9590614708565b60405180910390fd5b60004790503373ffffffffffffffffffffffffffffffffffffffff166108fc829081150290604051600060405180830381858888f19350505050158015610ce9573d6000803e3d6000fd5b5050565b610cf5611d78565b73ffffffffffffffffffffffffffffffffffffffff16610d136112b2565b73ffffffffffffffffffffffffffffffffffffffff1614610d69576040517f08c379a0000000000000000000000000000000000000000000000000000000008152600401610d6090614708565b60405180910390fd5b610d71612173565b565b610d7b611d78565b73ffffffffffffffffffffffffffffffffffffffff16610d996112b2565b73ffffffffffffffffffffffffffffffffffffffff1614610def576040517f08c379a0000000000000000000000000000000000000000000000000000000008152600401610de690614708565b60405180910390fd5b601460009054906101000a900460ff1615610e3f576040517f08c379a0000000000000000000000000000000000000000000000000000000008152600401610e3690614568565b60405180910390fd5b6013546017805490501015610e89576040517f08c379a0000000000000000000000000000000000000000000000000000000008152600401610e80906147c8565b60405180910390fd5b60135460126000828254610e9d91906148ed565b9250508190555060005b601354811015610ed557610ec233610ebd612215565b6123d4565b8080610ecd90614b37565b915050610ea7565b506001601460006101000a81548160ff021916908315150217905550565b610f0e838383604051806020016040528060008152506114f5565b505050565b610f24610f1e611d78565b82611e39565b610f63576040517f08c379a0000000000000000000000000000000000000000000000000000000008152600401610f5a906147e8565b60405180910390fd5b610f6c816125a2565b50565b6000601154905090565b6000610f836125ae565b8210610fc4576040517f08c379a0000000000000000000000000000000000000000000000000000000008152600401610fbb906147a8565b60405180910390fd5b60088281548110610ffe577f4e487b7100000000000000000000000000000000000000000000000000000000600052603260045260246000fd5b90600052602060002001549050919050565b600d5481565b6000600b60009054906101000a900460ff16905090565b6000806002600084815260200190815260200160002060009054906101000a900473ffffffffffffffffffffffffffffffffffffffff169050600073ffffffffffffffffffffffffffffffffffffffff168173ffffffffffffffffffffffffffffffffffffffff1614156110d6576040517f08c379a00000000000000000000000000000000000000000000000000000000081526004016110cd90614628565b60405180910390fd5b80915050919050565b60008073ffffffffffffffffffffffffffffffffffffffff168273ffffffffffffffffffffffffffffffffffffffff161415611150576040517f08c379a000000000000000000000000000000000000000000000000000000000815260040161114790614608565b60405180910390fd5b600360008373ffffffffffffffffffffffffffffffffffffffff1673ffffffffffffffffffffffffffffffffffffffff168152602001908152602001600020549050919050565b61119f611d78565b73ffffffffffffffffffffffffffffffffffffffff166111bd6112b2565b73ffffffffffffffffffffffffffffffffffffffff1614611213576040517f08c379a000000000000000000000000000000000000000000000000000000000815260040161120a90614708565b60405180910390fd5b61121d60006125bb565b565b611227611d78565b73ffffffffffffffffffffffffffffffffffffffff166112456112b2565b73ffffffffffffffffffffffffffffffffffffffff161461129b576040517f08c379a000000000000000000000000000000000000000000000000000000000815260040161129290614708565b60405180910390fd5b6112a3612681565b565b6000601780549050905090565b6000600b60019054906101000a900473ffffffffffffffffffffffffffffffffffffffff16905090565b6060600180546112eb90614ad4565b80601f016020809104026020016040519081016040528092919081815260200182805461131790614ad4565b80156113645780601f1061133957610100808354040283529160200191611364565b820191906000526020600020905b81548152906001019060200180831161134757829003601f168201915b5050505050905090565b60135481565b61137c611d78565b73ffffffffffffffffffffffffffffffffffffffff168273ffffffffffffffffffffffffffffffffffffffff1614156113ea576040517f08c379a00000000000000000000000000000000000000000000000000000000081526004016113e190614528565b60405180910390fd5b80600560006113f7611d78565b73ffffffffffffffffffffffffffffffffffffffff1673ffffffffffffffffffffffffffffffffffffffff16815260200190815260200160002060008473ffffffffffffffffffffffffffffffffffffffff1673ffffffffffffffffffffffffffffffffffffffff16815260200190815260200160002060006101000a81548160ff0219169083151502179055508173ffffffffffffffffffffffffffffffffffffffff166114a4611d78565b73ffffffffffffffffffffffffffffffffffffffff167f17307eab39ab6107e8899845ad3d59bd9653f200f220920489ca2b5937696c31836040516114e991906143eb565b60405180910390a35050565b611506611500611d78565b83611e39565b611545576040517f08c379a000000000000000000000000000000000000000000000000000000000815260040161153c90614788565b60405180910390fd5b61155184848484612724565b50505050565b606061156282612780565b9050919050565b611571611d78565b73ffffffffffffffffffffffffffffffffffffffff1661158f6112b2565b73ffffffffffffffffffffffffffffffffffffffff16146115e5576040517f08c379a00000000000000000000000000000000000000000000000000000000081526004016115dc90614708565b60405180910390fd5b60006115f1600c6128d2565b90506115fd83826128e0565b61160781836128fe565b611611600c612972565b808373ffffffffffffffffffffffffffffffffffffffff167f0f6798a560793a54c3bcfe86a93cde1e73087d944c0ea20544137d412139688560405160405180910390a3505050565b60606015805461166990614ad4565b80601f016020809104026020016040519081016040528092919081815260200182805461169590614ad4565b80156116e25780601f106116b7576101008083540402835291602001916116e2565b820191906000526020600020905b8154815290600101906020018083116116c557829003601f168201915b5050505050905090565b6116f4611d78565b73ffffffffffffffffffffffffffffffffffffffff166117126112b2565b73ffffffffffffffffffffffffffffffffffffffff1614611768576040517f08c379a000000000000000000000000000000000000000000000000000000000815260040161175f90614708565b60405180910390fd5b8060118190555050565b6000600560008473ffffffffffffffffffffffffffffffffffffffff1673ffffffffffffffffffffffffffffffffffffffff16815260200190815260200160002060008373ffffffffffffffffffffffffffffffffffffffff1673ffffffffffffffffffffffffffffffffffffffff16815260200190815260200160002060009054906101000a900460ff16905092915050565b6000601054905090565b611818611d78565b73ffffffffffffffffffffffffffffffffffffffff166118366112b2565b73ffffffffffffffffffffffffffffffffffffffff161461188c576040517f08c379a000000000000000000000000000000000000000000000000000000000815260040161188390614708565b60405180910390fd5b600073ffffffffffffffffffffffffffffffffffffffff168173ffffffffffffffffffffffffffffffffffffffff1614156118fc576040517f08c379a00000000000000000000000000000000000000000000000000000000081526004016118f3906144a8565b60405180910390fd5b611905816125bb565b50565b3373ffffffffffffffffffffffffffffffffffffffff163273ffffffffffffffffffffffffffffffffffffffff1614611976576040517f08c379a000000000000000000000000000000000000000000000000000000000815260040161196d90614488565b60405180910390fd5b60006010541415801561198b57504260105411155b6119ca576040517f08c379a00000000000000000000000000000000000000000000000000000000081526004016119c1906145e8565b60405180910390fd5b806011546119d89190614974565b341015611a1a576040517f08c379a0000000000000000000000000000000000000000000000000000000008152600401611a1190614688565b60405180910390fd5b600e5481601660003373ffffffffffffffffffffffffffffffffffffffff1673ffffffffffffffffffffffffffffffffffffffff16815260200190815260200160002054611a6891906148ed565b1115611aa9576040517f08c379a0000000000000000000000000000000000000000000000000000000008152600401611aa0906144c8565b60405180910390fd5b806017805490501015611af1576040517f08c379a0000000000000000000000000000000000000000000000000000000008152600401611ae8906145c8565b60405180910390fd5b600f54811115611b36576040517f08c379a0000000000000000000000000000000000000000000000000000000008152600401611b2d906146e8565b60405180910390fd5b60008167ffffffffffffffff811115611b78577f4e487b7100000000000000000000000000000000000000000000000000000000600052604160045260246000fd5b604051908082528060200260200182016040528015611ba65781602001602082028036833780820191505090505b50905081601660003373ffffffffffffffffffffffffffffffffffffffff1673ffffffffffffffffffffffffffffffffffffffff1681526020019081526020016000206000828254611bf891906148ed565b925050819055508160126000828254611c1191906148ed565b9250508190555060005b82811015611c8357611c2b612215565b828281518110611c64577f4e487b7100000000000000000000000000000000000000000000000000000000600052603260045260246000fd5b6020026020010181815250508080611c7b90614b37565b915050611c1b565b50611c8e3382612988565b5050565b60007f780e9d63000000000000000000000000000000000000000000000000000000007bffffffffffffffffffffffffffffffffffffffffffffffffffffffff1916827bffffffffffffffffffffffffffffffffffffffffffffffffffffffff19161480611d055750611d0482612be4565b5b9050919050565b60008073ffffffffffffffffffffffffffffffffffffffff166002600084815260200190815260200160002060009054906101000a900473ffffffffffffffffffffffffffffffffffffffff1673ffffffffffffffffffffffffffffffffffffffff1614159050919050565b600033905090565b816004600083815260200190815260200160002060006101000a81548173ffffffffffffffffffffffffffffffffffffffff021916908373ffffffffffffffffffffffffffffffffffffffff160217905550808273ffffffffffffffffffffffffffffffffffffffff16611df38361102d565b73ffffffffffffffffffffffffffffffffffffffff167f8c5be1e5ebec7d5bd14f71427d1e84f3dd0314c0f7b2291e5b200ac8c7c3b92560405160405180910390a45050565b6000611e4482611d0c565b611e83576040517f08c379a0000000000000000000000000000000000000000000000000000000008152600401611e7a90614548565b60405180910390fd5b6000611e8e8361102d565b90508073ffffffffffffffffffffffffffffffffffffffff168473ffffffffffffffffffffffffffffffffffffffff161480611efd57508373ffffffffffffffffffffffffffffffffffffffff16611ee5846108cd565b73ffffffffffffffffffffffffffffffffffffffff16145b80611f0e5750611f0d8185611772565b5b91505092915050565b8273ffffffffffffffffffffffffffffffffffffffff16611f378261102d565b73ffffffffffffffffffffffffffffffffffffffff1614611f8d576040517f08c379a0000000000000000000000000000000000000000000000000000000008152600401611f8490614728565b60405180910390fd5b600073ffffffffffffffffffffffffffffffffffffffff168273ffffffffffffffffffffffffffffffffffffffff161415611ffd576040517f08c379a0000000000000000000000000000000000000000000000000000000008152600401611ff490614508565b60405180910390fd5b612008838383612cc6565b612013600082611d80565b6001600360008573ffffffffffffffffffffffffffffffffffffffff1673ffffffffffffffffffffffffffffffffffffffff168152602001908152602001600020600082825461206391906149ce565b925050819055506001600360008473ffffffffffffffffffffffffffffffffffffffff1673ffffffffffffffffffffffffffffffffffffffff16815260200190815260200160002060008282546120ba91906148ed565b92505081905550816002600083815260200190815260200160002060006101000a81548173ffffffffffffffffffffffffffffffffffffffff021916908373ffffffffffffffffffffffffffffffffffffffff160217905550808273ffffffffffffffffffffffffffffffffffffffff168473ffffffffffffffffffffffffffffffffffffffff167fddf252ad1be2c89b69c2b068fc378daa952ba7f163c4a11628f55a4df523b3ef60405160405180910390a4505050565b61217b611016565b6121ba576040517f08c379a00000000000000000000000000000000000000000000000000000000081526004016121b190614428565b60405180910390fd5b6000600b60006101000a81548160ff0219169083151502179055507f5db9ee0a495bf2e6ff9c91a7834c1ba4fdd244a5e8aa4e537bd38aeae4b073aa6121fe611d78565b60405161220b9190614384565b60405180910390a1565b600080612226601780549050612d1e565b9050600060178281548110612264577f4e487b7100000000000000000000000000000000000000000000000000000000600052603260045260246000fd5b90600052602060002090601091828204019190066002029054906101000a900461ffff1661ffff169050601760016017805490506122a291906149ce565b815481106122d9577f4e487b7100000000000000000000000000000000000000000000000000000000600052603260045260246000fd5b90600052602060002090601091828204019190066002029054906101000a900461ffff1660178381548110612337577f4e487b7100000000000000000000000000000000000000000000000000000000600052603260045260246000fd5b90600052602060002090601091828204019190066002026101000a81548161ffff021916908361ffff160217905550601780548061239e577f4e487b7100000000000000000000000000000000000000000000000000000000600052603160045260246000fd5b60019003818190600052602060002090601091828204019190066002026101000a81549061ffff02191690559055809250505090565b600073ffffffffffffffffffffffffffffffffffffffff168273ffffffffffffffffffffffffffffffffffffffff161415612444576040517f08c379a000000000000000000000000000000000000000000000000000000000815260040161243b90614668565b60405180910390fd5b61244d81611d0c565b1561248d576040517f08c379a0000000000000000000000000000000000000000000000000000000008152600401612484906144e8565b60405180910390fd5b61249960008383612cc6565b6001600360008473ffffffffffffffffffffffffffffffffffffffff1673ffffffffffffffffffffffffffffffffffffffff16815260200190815260200160002060008282546124e991906148ed565b92505081905550816002600083815260200190815260200160002060006101000a81548173ffffffffffffffffffffffffffffffffffffffff021916908373ffffffffffffffffffffffffffffffffffffffff160217905550808273ffffffffffffffffffffffffffffffffffffffff16600073ffffffffffffffffffffffffffffffffffffffff167fddf252ad1be2c89b69c2b068fc378daa952ba7f163c4a11628f55a4df523b3ef60405160405180910390a45050565b6125ab81612d7b565b50565b6000600880549050905090565b6000600b60019054906101000a900473ffffffffffffffffffffffffffffffffffffffff16905081600b60016101000a81548173ffffffffffffffffffffffffffffffffffffffff021916908373ffffffffffffffffffffffffffffffffffffffff1602179055508173ffffffffffffffffffffffffffffffffffffffff168173ffffffffffffffffffffffffffffffffffffffff167f8be0079c531659141344cd1fd0a4f28419497f9722a3daafe3b4186f6b6457e060405160405180910390a35050565b612689611016565b156126c9576040517f08c379a00000000000000000000000000000000000000000000000000000000081526004016126c090614588565b60405180910390fd5b6001600b60006101000a81548160ff0219169083151502179055507f62e78cea01bee320cd4e420270b5ea74000d11b0c9f74754ebdbfc544b05a25861270d611d78565b60405161271a9190614384565b60405180910390a1565b61272f848484611f17565b61273b84848484612dce565b61277a576040517f08c379a000000000000000000000000000000000000000000000000000000000815260040161277190614468565b60405180910390fd5b50505050565b606061278b82611d0c565b6127ca576040517f08c379a00000000000000000000000000000000000000000000000000000000081526004016127c1906146a8565b60405180910390fd5b6000600a600084815260200190815260200160002080546127ea90614ad4565b80601f016020809104026020016040519081016040528092919081815260200182805461281690614ad4565b80156128635780601f1061283857610100808354040283529160200191612863565b820191906000526020600020905b81548152906001019060200180831161284657829003601f168201915b505050505090506000612874612f65565b905060008151141561288a5781925050506128cd565b6000825111156128bf5780826040516020016128a7929190614301565b604051602081830303815290604052925050506128cd565b6128c884612ff7565b925050505b919050565b600081600001549050919050565b6128fa82826040518060200160405280600081525061309e565b5050565b61290782611d0c565b612946576040517f08c379a000000000000000000000000000000000000000000000000000000000815260040161293d90614648565b60405180910390fd5b80600a6000848152602001908152602001600020908051906020019061296d9291906138c5565b505050565b6001816000016000828254019250508190555050565b600073ffffffffffffffffffffffffffffffffffffffff168273ffffffffffffffffffffffffffffffffffffffff1614156129f8576040517f08c379a00000000000000000000000000000000000000000000000000000000081526004016129ef90614668565b60405180910390fd5b8051601660008473ffffffffffffffffffffffffffffffffffffffff1673ffffffffffffffffffffffffffffffffffffffff1681526020019081526020016000206000828254612a4891906148ed565b9250508190555060005b8151811015612bdf57612aa4828281518110612a97577f4e487b7100000000000000000000000000000000000000000000000000000000600052603260045260246000fd5b6020026020010151611d0c565b15612ae4576040517f08c379a0000000000000000000000000000000000000000000000000000000008152600401612adb906144e8565b60405180910390fd5b612b30600084848481518110612b23577f4e487b7100000000000000000000000000000000000000000000000000000000600052603260045260246000fd5b6020026020010151612cc6565b818181518110612b69577f4e487b7100000000000000000000000000000000000000000000000000000000600052603260045260246000fd5b60200260200101518373ffffffffffffffffffffffffffffffffffffffff16600073ffffffffffffffffffffffffffffffffffffffff167fddf252ad1be2c89b69c2b068fc378daa952ba7f163c4a11628f55a4df523b3ef60405160405180910390a48080612bd790614b37565b915050612a52565b505050565b60007f80ac58cd000000000000000000000000000000000000000000000000000000007bffffffffffffffffffffffffffffffffffffffffffffffffffffffff1916827bffffffffffffffffffffffffffffffffffffffffffffffffffffffff19161480612caf57507f5b5e139f000000000000000000000000000000000000000000000000000000007bffffffffffffffffffffffffffffffffffffffffffffffffffffffff1916827bffffffffffffffffffffffffffffffffffffffffffffffffffffffff1916145b80612cbf5750612cbe826130f9565b5b9050919050565b612cce611016565b15612d0e576040517f08c379a0000000000000000000000000000000000000000000000000000000008152600401612d0590614588565b60405180910390fd5b612d19838383613163565b505050565b600080601780549050600143612d3491906149ce565b40414433604051602001612d4c959493929190614325565b6040516020818303038152906040528051906020012060001c90508281612d739190614bca565b915050919050565b612d8481613277565b6000600a60008381526020019081526020016000208054612da490614ad4565b905014612dcb57600a60008281526020019081526020016000206000612dca919061394b565b5b50565b6000612def8473ffffffffffffffffffffffffffffffffffffffff16613388565b15612f58578373ffffffffffffffffffffffffffffffffffffffff1663150b7a02612e18611d78565b8786866040518563ffffffff1660e01b8152600401612e3a949392919061439f565b602060405180830381600087803b158015612e5457600080fd5b505af1925050508015612e8557506040513d601f19601f82011682018060405250810190612e829190613d05565b60015b612f08573d8060008114612eb5576040519150601f19603f3d011682016040523d82523d6000602084013e612eba565b606091505b50600081511415612f00576040517f08c379a0000000000000000000000000000000000000000000000000000000008152600401612ef790614468565b60405180910390fd5b805181602001fd5b63150b7a0260e01b7bffffffffffffffffffffffffffffffffffffffffffffffffffffffff1916817bffffffffffffffffffffffffffffffffffffffffffffffffffffffff191614915050612f5d565b600190505b949350505050565b606060158054612f7490614ad4565b80601f0160208091040260200160405190810160405280929190818152602001828054612fa090614ad4565b8015612fed5780601f10612fc257610100808354040283529160200191612fed565b820191906000526020600020905b815481529060010190602001808311612fd057829003601f168201915b5050505050905090565b606061300282611d0c565b613041576040517f08c379a000000000000000000000000000000000000000000000000000000000815260040161303890614748565b60405180910390fd5b600061304b612f65565b9050600081511161306b5760405180602001604052806000815250613096565b806130758461339b565b604051602001613086929190614301565b6040516020818303038152906040525b915050919050565b6130a883836123d4565b6130b56000848484612dce565b6130f4576040517f08c379a00000000000000000000000000000000000000000000000000000000081526004016130eb90614468565b60405180910390fd5b505050565b60007f01ffc9a7000000000000000000000000000000000000000000000000000000007bffffffffffffffffffffffffffffffffffffffffffffffffffffffff1916827bffffffffffffffffffffffffffffffffffffffffffffffffffffffff1916149050919050565b61316e838383613548565b600073ffffffffffffffffffffffffffffffffffffffff168373ffffffffffffffffffffffffffffffffffffffff1614156131b1576131ac8161354d565b6131f0565b8173ffffffffffffffffffffffffffffffffffffffff168373ffffffffffffffffffffffffffffffffffffffff16146131ef576131ee8382613596565b5b5b600073ffffffffffffffffffffffffffffffffffffffff168273ffffffffffffffffffffffffffffffffffffffff1614156132335761322e81613703565b613272565b8273ffffffffffffffffffffffffffffffffffffffff168273ffffffffffffffffffffffffffffffffffffffff1614613271576132708282613846565b5b5b505050565b60006132828261102d565b905061329081600084612cc6565b61329b600083611d80565b6001600360008373ffffffffffffffffffffffffffffffffffffffff1673ffffffffffffffffffffffffffffffffffffffff16815260200190815260200160002060008282546132eb91906149ce565b925050819055506002600083815260200190815260200160002060006101000a81549073ffffffffffffffffffffffffffffffffffffffff021916905581600073ffffffffffffffffffffffffffffffffffffffff168273ffffffffffffffffffffffffffffffffffffffff167fddf252ad1be2c89b69c2b068fc378daa952ba7f163c4a11628f55a4df523b3ef60405160405180910390a45050565b600080823b905060008111915050919050565b606060008214156133e3576040518060400160405280600181526020017f30000000000000000000000000000000000000000000000000000000000000008152509050613543565b600082905060005b600082146134155780806133fe90614b37565b915050600a8261340e9190614943565b91506133eb565b60008167ffffffffffffffff811115613457577f4e487b7100000000000000000000000000000000000000000000000000000000600052604160045260246000fd5b6040519080825280601f01601f1916602001820160405280156134895781602001600182028036833780820191505090505b5090505b6000851461353c576001826134a291906149ce565b9150600a856134b19190614bca565b60306134bd91906148ed565b60f81b8183815181106134f9577f4e487b7100000000000000000000000000000000000000000000000000000000600052603260045260246000fd5b60200101907effffffffffffffffffffffffffffffffffffffffffffffffffffffffffffff1916908160001a905350600a856135359190614943565b945061348d565b8093505050505b919050565b505050565b6008805490506009600083815260200190815260200160002081905550600881908060018154018082558091505060019003906000526020600020016000909190919091505550565b600060016135a3846110df565b6135ad91906149ce565b9050600060076000848152602001908152602001600020549050818114613692576000600660008673ffffffffffffffffffffffffffffffffffffffff1673ffffffffffffffffffffffffffffffffffffffff168152602001908152602001600020600084815260200190815260200160002054905080600660008773ffffffffffffffffffffffffffffffffffffffff1673ffffffffffffffffffffffffffffffffffffffff168152602001908152602001600020600084815260200190815260200160002081905550816007600083815260200190815260200160002081905550505b6007600084815260200190815260200160002060009055600660008573ffffffffffffffffffffffffffffffffffffffff1673ffffffffffffffffffffffffffffffffffffffff16815260200190815260200160002060008381526020019081526020016000206000905550505050565b6000600160088054905061371791906149ce565b905060006009600084815260200190815260200160002054905060006008838154811061376d577f4e487b7100000000000000000000000000000000000000000000000000000000600052603260045260246000fd5b9060005260206000200154905080600883815481106137b5577f4e487b7100000000000000000000000000000000000000000000000000000000600052603260045260246000fd5b90600052602060002001819055508160096000838152602001908152602001600020819055506009600085815260200190815260200160002060009055600880548061382a577f4e487b7100000000000000000000000000000000000000000000000000000000600052603160045260246000fd5b6001900381819060005260206000200160009055905550505050565b6000613851836110df565b905081600660008573ffffffffffffffffffffffffffffffffffffffff1673ffffffffffffffffffffffffffffffffffffffff168152602001908152602001600020600083815260200190815260200160002081905550806007600084815260200190815260200160002081905550505050565b8280546138d190614ad4565b90600052602060002090601f0160209004810192826138f3576000855561393a565b82601f1061390c57805160ff191683800117855561393a565b8280016001018555821561393a579182015b8281111561393957825182559160200191906001019061391e565b5b509050613947919061398b565b5090565b50805461395790614ad4565b6000825580601f106139695750613988565b601f016020900490600052602060002090810190613987919061398b565b5b50565b5b808211156139a457600081600090555060010161398c565b5090565b60006139bb6139b684614848565b614823565b9050828152602081018484840111156139d357600080fd5b6139de848285614a92565b509392505050565b60006139f96139f484614879565b614823565b905082815260208101848484011115613a1157600080fd5b613a1c848285614a92565b509392505050565b600081359050613a33816154c4565b92915050565b600081359050613a48816154db565b92915050565b600081359050613a5d816154f2565b92915050565b600081519050613a72816154f2565b92915050565b600082601f830112613a8957600080fd5b8135613a998482602086016139a8565b91505092915050565b600082601f830112613ab357600080fd5b8135613ac38482602086016139e6565b91505092915050565b600081359050613adb81615509565b92915050565b600060208284031215613af357600080fd5b6000613b0184828501613a24565b91505092915050565b60008060408385031215613b1d57600080fd5b6000613b2b85828601613a24565b9250506020613b3c85828601613a24565b9150509250929050565b600080600060608486031215613b5b57600080fd5b6000613b6986828701613a24565b9350506020613b7a86828701613a24565b9250506040613b8b86828701613acc565b9150509250925092565b60008060008060808587031215613bab57600080fd5b6000613bb987828801613a24565b9450506020613bca87828801613a24565b9350506040613bdb87828801613acc565b925050606085013567ffffffffffffffff811115613bf857600080fd5b613c0487828801613a78565b91505092959194509250565b60008060408385031215613c2357600080fd5b6000613c3185828601613a24565b9250506020613c4285828601613a39565b9150509250929050565b60008060408385031215613c5f57600080fd5b6000613c6d85828601613a24565b925050602083013567ffffffffffffffff811115613c8a57600080fd5b613c9685828601613aa2565b9150509250929050565b60008060408385031215613cb357600080fd5b6000613cc185828601613a24565b9250506020613cd285828601613acc565b9150509250929050565b600060208284031215613cee57600080fd5b6000613cfc84828501613a4e565b91505092915050565b600060208284031215613d1757600080fd5b6000613d2584828501613a63565b91505092915050565b600060208284031215613d4057600080fd5b600082013567ffffffffffffffff811115613d5a57600080fd5b613d6684828501613aa2565b91505092915050565b600060208284031215613d8157600080fd5b6000613d8f84828501613acc565b91505092915050565b613da9613da482614a14565b614b92565b82525050565b613db881614a02565b82525050565b613dcf613dca82614a02565b614b80565b82525050565b613dde81614a26565b82525050565b613df5613df082614a32565b614ba4565b82525050565b6000613e06826148aa565b613e1081856148c0565b9350613e20818560208601614aa1565b613e2981614cb7565b840191505092915050565b6000613e3f826148b5565b613e4981856148d1565b9350613e59818560208601614aa1565b613e6281614cb7565b840191505092915050565b6000613e78826148b5565b613e8281856148e2565b9350613e92818560208601614aa1565b80840191505092915050565b6000613eab6014836148d1565b9150613eb682614cd5565b602082019050919050565b6000613ece602b836148d1565b9150613ed982614cfe565b604082019050919050565b6000613ef16032836148d1565b9150613efc82614d4d565b604082019050919050565b6000613f146030836148d1565b9150613f1f82614d9c565b604082019050919050565b6000613f376026836148d1565b9150613f4282614deb565b604082019050919050565b6000613f5a601d836148d1565b9150613f6582614e3a565b602082019050919050565b6000613f7d601c836148d1565b9150613f8882614e63565b602082019050919050565b6000613fa06024836148d1565b9150613fab82614e8c565b604082019050919050565b6000613fc36019836148d1565b9150613fce82614edb565b602082019050919050565b6000613fe6602c836148d1565b9150613ff182614f04565b604082019050919050565b60006140096025836148d1565b915061401482614f53565b604082019050919050565b600061402c6010836148d1565b915061403782614fa2565b602082019050919050565b600061404f6038836148d1565b915061405a82614fcb565b604082019050919050565b6000614072601c836148d1565b915061407d8261501a565b602082019050919050565b60006140956011836148d1565b91506140a082615043565b602082019050919050565b60006140b8602a836148d1565b91506140c38261506c565b604082019050919050565b60006140db6029836148d1565b91506140e6826150bb565b604082019050919050565b60006140fe602e836148d1565b91506141098261510a565b604082019050919050565b60006141216020836148d1565b915061412c82615159565b602082019050919050565b60006141446025836148d1565b915061414f82615182565b604082019050919050565b60006141676031836148d1565b9150614172826151d1565b604082019050919050565b600061418a602c836148d1565b915061419582615220565b604082019050919050565b60006141ad600d836148d1565b91506141b88261526f565b602082019050919050565b60006141d06020836148d1565b91506141db82615298565b602082019050919050565b60006141f36029836148d1565b91506141fe826152c1565b604082019050919050565b6000614216602f836148d1565b915061422182615310565b604082019050919050565b60006142396021836148d1565b91506142448261535f565b604082019050919050565b600061425c6031836148d1565b9150614267826153ae565b604082019050919050565b600061427f602c836148d1565b915061428a826153fd565b604082019050919050565b60006142a2601d836148d1565b91506142ad8261544c565b602082019050919050565b60006142c56030836148d1565b91506142d082615475565b604082019050919050565b6142e481614a88565b82525050565b6142fb6142f682614a88565b614bc0565b82525050565b600061430d8285613e6d565b91506143198284613e6d565b91508190509392505050565b600061433182886142ea565b6020820191506143418287613de4565b6020820191506143518286613d98565b60148201915061436182856142ea565b6020820191506143718284613dbe565b6014820191508190509695505050505050565b60006020820190506143996000830184613daf565b92915050565b60006080820190506143b46000830187613daf565b6143c16020830186613daf565b6143ce60408301856142db565b81810360608301526143e08184613dfb565b905095945050505050565b60006020820190506144006000830184613dd5565b92915050565b600060208201905081810360008301526144208184613e34565b905092915050565b6000602082019050818103600083015261444181613e9e565b9050919050565b6000602082019050818103600083015261446181613ec1565b9050919050565b6000602082019050818103600083015261448181613ee4565b9050919050565b600060208201905081810360008301526144a181613f07565b9050919050565b600060208201905081810360008301526144c181613f2a565b9050919050565b600060208201905081810360008301526144e181613f4d565b9050919050565b6000602082019050818103600083015261450181613f70565b9050919050565b6000602082019050818103600083015261452181613f93565b9050919050565b6000602082019050818103600083015261454181613fb6565b9050919050565b6000602082019050818103600083015261456181613fd9565b9050919050565b6000602082019050818103600083015261458181613ffc565b9050919050565b600060208201905081810360008301526145a18161401f565b9050919050565b600060208201905081810360008301526145c181614042565b9050919050565b600060208201905081810360008301526145e181614065565b9050919050565b6000602082019050818103600083015261460181614088565b9050919050565b60006020820190508181036000830152614621816140ab565b9050919050565b60006020820190508181036000830152614641816140ce565b9050919050565b60006020820190508181036000830152614661816140f1565b9050919050565b6000602082019050818103600083015261468181614114565b9050919050565b600060208201905081810360008301526146a181614137565b9050919050565b600060208201905081810360008301526146c18161415a565b9050919050565b600060208201905081810360008301526146e18161417d565b9050919050565b60006020820190508181036000830152614701816141a0565b9050919050565b60006020820190508181036000830152614721816141c3565b9050919050565b60006020820190508181036000830152614741816141e6565b9050919050565b6000602082019050818103600083015261476181614209565b9050919050565b600060208201905081810360008301526147818161422c565b9050919050565b600060208201905081810360008301526147a18161424f565b9050919050565b600060208201905081810360008301526147c181614272565b9050919050565b600060208201905081810360008301526147e181614295565b9050919050565b60006020820190508181036000830152614801816142b8565b9050919050565b600060208201905061481d60008301846142db565b92915050565b600061482d61483e565b90506148398282614b06565b919050565b6000604051905090565b600067ffffffffffffffff82111561486357614862614c88565b5b61486c82614cb7565b9050602081019050919050565b600067ffffffffffffffff82111561489457614893614c88565b5b61489d82614cb7565b9050602081019050919050565b600081519050919050565b600081519050919050565b600082825260208201905092915050565b600082825260208201905092915050565b600081905092915050565b60006148f882614a88565b915061490383614a88565b9250827fffffffffffffffffffffffffffffffffffffffffffffffffffffffffffffffff0382111561493857614937614bfb565b5b828201905092915050565b600061494e82614a88565b915061495983614a88565b92508261496957614968614c2a565b5b828204905092915050565b600061497f82614a88565b915061498a83614a88565b9250817fffffffffffffffffffffffffffffffffffffffffffffffffffffffffffffffff04831182151516156149c3576149c2614bfb565b5b828202905092915050565b60006149d982614a88565b91506149e483614a88565b9250828210156149f7576149f6614bfb565b5b828203905092915050565b6000614a0d82614a68565b9050919050565b6000614a1f82614a68565b9050919050565b60008115159050919050565b6000819050919050565b60007fffffffff0000000000000000000000000000000000000000000000000000000082169050919050565b600073ffffffffffffffffffffffffffffffffffffffff82169050919050565b6000819050919050565b82818337600083830152505050565b60005b83811015614abf578082015181840152602081019050614aa4565b83811115614ace576000848401525b50505050565b60006002820490506001821680614aec57607f821691505b60208210811415614b0057614aff614c59565b5b50919050565b614b0f82614cb7565b810181811067ffffffffffffffff82111715614b2e57614b2d614c88565b5b80604052505050565b6000614b4282614a88565b91507fffffffffffffffffffffffffffffffffffffffffffffffffffffffffffffffff821415614b7557614b74614bfb565b5b600182019050919050565b6000614b8b82614bae565b9050919050565b6000614b9d82614bae565b9050919050565b6000819050919050565b6000614bb982614cc8565b9050919050565b6000819050919050565b6000614bd582614a88565b9150614be083614a88565b925082614bf057614bef614c2a565b5b828206905092915050565b7f4e487b7100000000000000000000000000000000000000000000000000000000600052601160045260246000fd5b7f4e487b7100000000000000000000000000000000000000000000000000000000600052601260045260246000fd5b7f4e487b7100000000000000000000000000000000000000000000000000000000600052602260045260246000fd5b7f4e487b7100000000000000000000000000000000000000000000000000000000600052604160045260246000fd5b6000601f19601f8301169050919050565b60008160601b9050919050565b7f5061757361626c653a206e6f7420706175736564000000000000000000000000600082015250565b7f455243373231456e756d657261626c653a206f776e657220696e646578206f7560008201527f74206f6620626f756e6473000000000000000000000000000000000000000000602082015250565b7f4552433732313a207472616e7366657220746f206e6f6e20455243373231526560008201527f63656976657220696d706c656d656e7465720000000000000000000000000000602082015250565b7f5468652063616c6c65722063616e206f6e6c792062652061207573657220616e60008201527f64206e6f74206120636f6e747261637400000000000000000000000000000000602082015250565b7f4f776e61626c653a206e6577206f776e657220697320746865207a65726f206160008201527f6464726573730000000000000000000000000000000000000000000000000000602082015250565b7f596f752063616e6e6f7420636c61696d206d6f726520706f7373756d73000000600082015250565b7f4552433732313a20746f6b656e20616c7265616479206d696e74656400000000600082015250565b7f4552433732313a207472616e7366657220746f20746865207a65726f2061646460008201527f7265737300000000000000000000000000000000000000000000000000000000602082015250565b7f4552433732313a20617070726f766520746f2063616c6c657200000000000000600082015250565b7f4552433732313a206f70657261746f7220717565727920666f72206e6f6e657860008201527f697374656e7420746f6b656e0000000000000000000000000000000000000000602082015250565b7f596f752063616e206f6e6c79207072656d696e742074686520506f7373756d7360008201527f206f6e6365000000000000000000000000000000000000000000000000000000602082015250565b7f5061757361626c653a2070617573656400000000000000000000000000000000600082015250565b7f4552433732313a20617070726f76652063616c6c6572206973206e6f74206f7760008201527f6e6572206e6f7220617070726f76656420666f7220616c6c0000000000000000602082015250565b7f4e6f20506f7373756d206c65667420746f20626520636c61696d656400000000600082015250565b7f596f752061726520746f6f206561726c79000000000000000000000000000000600082015250565b7f4552433732313a2062616c616e636520717565727920666f7220746865207a6560008201527f726f206164647265737300000000000000000000000000000000000000000000602082015250565b7f4552433732313a206f776e657220717565727920666f72206e6f6e657869737460008201527f656e7420746f6b656e0000000000000000000000000000000000000000000000602082015250565b7f45524337323155524953746f726167653a2055524920736574206f66206e6f6e60008201527f6578697374656e7420746f6b656e000000000000000000000000000000000000602082015250565b7f4552433732313a206d696e7420746f20746865207a65726f2061646472657373600082015250565b7f4e6f7420656e6f75676820457468657220746f20636c61696d2074686520706f60008201527f7373756d73000000000000000000000000000000000000000000000000000000602082015250565b7f45524337323155524953746f726167653a2055524920717565727920666f722060008201527f6e6f6e6578697374656e7420746f6b656e000000000000000000000000000000602082015250565b7f4552433732313a20617070726f76656420717565727920666f72206e6f6e657860008201527f697374656e7420746f6b656e0000000000000000000000000000000000000000602082015250565b7f4d61782032372070657220747800000000000000000000000000000000000000600082015250565b7f4f776e61626c653a2063616c6c6572206973206e6f7420746865206f776e6572600082015250565b7f4552433732313a207472616e73666572206f6620746f6b656e2074686174206960008201527f73206e6f74206f776e0000000000000000000000000000000000000000000000602082015250565b7f4552433732314d657461646174613a2055524920717565727920666f72206e6f60008201527f6e6578697374656e7420746f6b656e0000000000000000000000000000000000602082015250565b7f4552433732313a20617070726f76616c20746f2063757272656e74206f776e6560008201527f7200000000000000000000000000000000000000000000000000000000000000602082015250565b7f4552433732313a207472616e736665722063616c6c6572206973206e6f74206f60008201527f776e6572206e6f7220617070726f766564000000000000000000000000000000602082015250565b7f455243373231456e756d657261626c653a20676c6f62616c20696e646578206f60008201527f7574206f6620626f756e64730000000000000000000000000000000000000000602082015250565b7f4e6f20506f7373756d73206c65667420746f20626520636c61696d6564000000600082015250565b7f4552433732314275726e61626c653a2063616c6c6572206973206e6f74206f7760008201527f6e6572206e6f7220617070726f76656400000000000000000000000000000000602082015250565b6154cd81614a02565b81146154d857600080fd5b50565b6154e481614a26565b81146154ef57600080fd5b50565b6154fb81614a3c565b811461550657600080fd5b50565b61551281614a88565b811461551d57600080fd5b5056fea26469706673582212205336fc03bec4c390a3eaec0fd514b63ddd0ecc9d6010ebb5ca6115a53c883cab64736f6c6343000804003368747470733a2f2f697066732e696f2f697066732f516d53526b6d45444b57556548693546694e705155424163437137724b696e686635506275385a505a4e6b5038722f",
  "linkReferences": {},
  "deployedLinkReferences": {}
}