{
  "_format": "hh-sol-artifact-1",
  "contractName": "TrashPossums",
  "sourceName": "contracts/TrashPossums.sol",
  "abi": [
    {
      "inputs": [
        {
          "internalType": "uint256",
          "name": "_possumPrice",
          "type": "uint256"
        },
        {
          "internalType": "uint256",
          "name": "_startMintDate",
          "type": "uint256"
        },
        {
          "internalType": "string",
          "name": "_baseUri",
          "type": "string"
        },
        {
          "internalType": "address",
          "name": "_VRFAddress",
          "type": "address"
        },
        {
          "internalType": "address",
          "name": "_linkToken",
          "type": "address"
        },
        {
          "internalType": "bytes32",
          "name": "_keyHash",
          "type": "bytes32"
        },
        {
          "internalType": "uint256",
          "name": "_fee",
          "type": "uint256"
        }
      ],
      "stateMutability": "nonpayable",
      "type": "constructor"
    },
    {
      "anonymous": false,
      "inputs": [
        {
          "indexed": true,
          "internalType": "address",
          "name": "owner",
          "type": "address"
        },
        {
          "indexed": true,
          "internalType": "address",
          "name": "approved",
          "type": "address"
        },
        {
          "indexed": true,
          "internalType": "uint256",
          "name": "tokenId",
          "type": "uint256"
        }
      ],
      "name": "Approval",
      "type": "event"
    },
    {
      "anonymous": false,
      "inputs": [
        {
          "indexed": true,
          "internalType": "address",
          "name": "owner",
          "type": "address"
        },
        {
          "indexed": true,
          "internalType": "address",
          "name": "operator",
          "type": "address"
        },
        {
          "indexed": false,
          "internalType": "bool",
          "name": "approved",
          "type": "bool"
        }
      ],
      "name": "ApprovalForAll",
      "type": "event"
    },
    {
      "anonymous": false,
      "inputs": [
        {
          "indexed": true,
          "internalType": "address",
          "name": "mintedTo",
          "type": "address"
        },
        {
          "indexed": true,
          "internalType": "uint256",
          "name": "tokenId",
          "type": "uint256"
        }
      ],
      "name": "Mint",
      "type": "event"
    },
    {
      "anonymous": false,
      "inputs": [
        {
          "indexed": true,
          "internalType": "address",
          "name": "previousOwner",
          "type": "address"
        },
        {
          "indexed": true,
          "internalType": "address",
          "name": "newOwner",
          "type": "address"
        }
      ],
      "name": "OwnershipTransferred",
      "type": "event"
    },
    {
      "anonymous": false,
      "inputs": [
        {
          "indexed": false,
          "internalType": "address",
          "name": "account",
          "type": "address"
        }
      ],
      "name": "Paused",
      "type": "event"
    },
    {
      "anonymous": false,
      "inputs": [
        {
          "indexed": true,
          "internalType": "address",
          "name": "from",
          "type": "address"
        },
        {
          "indexed": true,
          "internalType": "address",
          "name": "to",
          "type": "address"
        },
        {
          "indexed": true,
          "internalType": "uint256",
          "name": "tokenId",
          "type": "uint256"
        }
      ],
      "name": "Transfer",
      "type": "event"
    },
    {
      "anonymous": false,
      "inputs": [
        {
          "indexed": false,
          "internalType": "address",
          "name": "account",
          "type": "address"
        }
      ],
      "name": "Unpaused",
      "type": "event"
    },
    {
      "inputs": [
        {
          "internalType": "address",
          "name": "to",
          "type": "address"
        },
        {
          "internalType": "uint256",
          "name": "tokenId",
          "type": "uint256"
        }
      ],
      "name": "approve",
      "outputs": [],
      "stateMutability": "nonpayable",
      "type": "function"
    },
    {
      "inputs": [
        {
          "internalType": "address",
          "name": "owner",
          "type": "address"
        }
      ],
      "name": "balanceOf",
      "outputs": [
        {
          "internalType": "uint256",
          "name": "",
          "type": "uint256"
        }
      ],
      "stateMutability": "view",
      "type": "function"
    },
    {
      "inputs": [],
      "name": "baseTokenURI",
      "outputs": [
        {
          "internalType": "string",
          "name": "",
          "type": "string"
        }
      ],
      "stateMutability": "view",
      "type": "function"
    },
    {
      "inputs": [
        {
          "internalType": "uint256",
          "name": "tokenId",
          "type": "uint256"
        }
      ],
      "name": "getApproved",
      "outputs": [
        {
          "internalType": "address",
          "name": "",
          "type": "address"
        }
      ],
      "stateMutability": "view",
      "type": "function"
    },
    {
      "inputs": [],
      "name": "getMintingStartDate",
      "outputs": [
        {
          "internalType": "uint256",
          "name": "",
          "type": "uint256"
        }
      ],
      "stateMutability": "view",
      "type": "function"
    },
    {
      "inputs": [],
      "name": "getNumberOfAvailablePossums",
      "outputs": [
        {
          "internalType": "uint256",
          "name": "",
          "type": "uint256"
        }
      ],
      "stateMutability": "view",
      "type": "function"
    },
    {
      "inputs": [],
      "name": "getpossumPrice",
      "outputs": [
        {
          "internalType": "uint256",
          "name": "",
          "type": "uint256"
        }
      ],
      "stateMutability": "view",
      "type": "function"
    },
    {
      "inputs": [
        {
          "internalType": "address",
          "name": "owner",
          "type": "address"
        },
        {
          "internalType": "address",
          "name": "operator",
          "type": "address"
        }
      ],
      "name": "isApprovedForAll",
      "outputs": [
        {
          "internalType": "bool",
          "name": "",
          "type": "bool"
        }
      ],
      "stateMutability": "view",
      "type": "function"
    },
    {
      "inputs": [],
      "name": "maxPossumsPerWallet",
      "outputs": [
        {
          "internalType": "uint256",
          "name": "",
          "type": "uint256"
        }
      ],
      "stateMutability": "view",
      "type": "function"
    },
    {
      "inputs": [
        {
          "internalType": "uint256",
          "name": "amount",
          "type": "uint256"
        }
      ],
      "name": "mintPossums",
      "outputs": [],
      "stateMutability": "payable",
      "type": "function"
    },
    {
      "inputs": [],
      "name": "name",
      "outputs": [
        {
          "internalType": "string",
          "name": "",
          "type": "string"
        }
      ],
      "stateMutability": "view",
      "type": "function"
    },
    {
      "inputs": [],
      "name": "owner",
      "outputs": [
        {
          "internalType": "address",
          "name": "",
          "type": "address"
        }
      ],
      "stateMutability": "view",
      "type": "function"
    },
    {
      "inputs": [
        {
          "internalType": "uint256",
          "name": "tokenId",
          "type": "uint256"
        }
      ],
      "name": "ownerOf",
      "outputs": [
        {
          "internalType": "address",
          "name": "",
          "type": "address"
        }
      ],
      "stateMutability": "view",
      "type": "function"
    },
    {
      "inputs": [],
      "name": "pause",
      "outputs": [],
      "stateMutability": "nonpayable",
      "type": "function"
    },
    {
      "inputs": [],
      "name": "paused",
      "outputs": [
        {
          "internalType": "bool",
          "name": "",
          "type": "bool"
        }
      ],
      "stateMutability": "view",
      "type": "function"
    },
    {
      "inputs": [],
      "name": "premintPossums",
      "outputs": [],
      "stateMutability": "nonpayable",
      "type": "function"
    },
    {
      "inputs": [
        {
          "internalType": "bytes32",
          "name": "requestId",
          "type": "bytes32"
        },
        {
          "internalType": "uint256",
          "name": "randomness",
          "type": "uint256"
        }
      ],
      "name": "rawFulfillRandomness",
      "outputs": [],
      "stateMutability": "nonpayable",
      "type": "function"
    },
    {
      "inputs": [],
      "name": "renounceOwnership",
      "outputs": [],
      "stateMutability": "nonpayable",
      "type": "function"
    },
    {
      "inputs": [
        {
          "internalType": "address",
          "name": "from",
          "type": "address"
        },
        {
          "internalType": "address",
          "name": "to",
          "type": "address"
        },
        {
          "internalType": "uint256",
          "name": "tokenId",
          "type": "uint256"
        }
      ],
      "name": "safeTransferFrom",
      "outputs": [],
      "stateMutability": "nonpayable",
      "type": "function"
    },
    {
      "inputs": [
        {
          "internalType": "address",
          "name": "from",
          "type": "address"
        },
        {
          "internalType": "address",
          "name": "to",
          "type": "address"
        },
        {
          "internalType": "uint256",
          "name": "tokenId",
          "type": "uint256"
        },
        {
          "internalType": "bytes",
          "name": "_data",
          "type": "bytes"
        }
      ],
      "name": "safeTransferFrom",
      "outputs": [],
      "stateMutability": "nonpayable",
      "type": "function"
    },
    {
      "inputs": [
        {
          "internalType": "address",
          "name": "operator",
          "type": "address"
        },
        {
          "internalType": "bool",
          "name": "approved",
          "type": "bool"
        }
      ],
      "name": "setApprovalForAll",
      "outputs": [],
      "stateMutability": "nonpayable",
      "type": "function"
    },
    {
      "inputs": [
        {
          "internalType": "string",
          "name": "_uri",
          "type": "string"
        }
      ],
      "name": "setBaseTokenURI",
      "outputs": [],
      "stateMutability": "nonpayable",
      "type": "function"
    },
    {
      "inputs": [
        {
          "internalType": "uint256",
          "name": "_possumPrice",
          "type": "uint256"
        }
      ],
      "name": "setPossumPrice",
      "outputs": [],
      "stateMutability": "nonpayable",
      "type": "function"
    },
    {
      "inputs": [
        {
          "internalType": "bytes4",
          "name": "interfaceId",
          "type": "bytes4"
        }
      ],
      "name": "supportsInterface",
      "outputs": [
        {
          "internalType": "bool",
          "name": "",
          "type": "bool"
        }
      ],
      "stateMutability": "view",
      "type": "function"
    },
    {
      "inputs": [],
      "name": "symbol",
      "outputs": [
        {
          "internalType": "string",
          "name": "",
          "type": "string"
        }
      ],
      "stateMutability": "view",
      "type": "function"
    },
    {
      "inputs": [
        {
          "internalType": "uint256",
          "name": "index",
          "type": "uint256"
        }
      ],
      "name": "tokenByIndex",
      "outputs": [
        {
          "internalType": "uint256",
          "name": "",
          "type": "uint256"
        }
      ],
      "stateMutability": "view",
      "type": "function"
    },
    {
      "inputs": [
        {
          "internalType": "address",
          "name": "owner",
          "type": "address"
        },
        {
          "internalType": "uint256",
          "name": "index",
          "type": "uint256"
        }
      ],
      "name": "tokenOfOwnerByIndex",
      "outputs": [
        {
          "internalType": "uint256",
          "name": "",
          "type": "uint256"
        }
      ],
      "stateMutability": "view",
      "type": "function"
    },
    {
      "inputs": [
        {
          "internalType": "uint256",
          "name": "tokenId",
          "type": "uint256"
        }
      ],
      "name": "tokenURI",
      "outputs": [
        {
          "internalType": "string",
          "name": "",
          "type": "string"
        }
      ],
      "stateMutability": "view",
      "type": "function"
    },
    {
      "inputs": [],
      "name": "totalPossums",
      "outputs": [
        {
          "internalType": "uint256",
          "name": "",
          "type": "uint256"
        }
      ],
      "stateMutability": "view",
      "type": "function"
    },
    {
      "inputs": [],
      "name": "totalSupply",
      "outputs": [
        {
          "internalType": "uint256",
          "name": "",
          "type": "uint256"
        }
      ],
      "stateMutability": "view",
      "type": "function"
    },
    {
      "inputs": [
        {
          "internalType": "address",
          "name": "from",
          "type": "address"
        },
        {
          "internalType": "address",
          "name": "to",
          "type": "address"
        },
        {
          "internalType": "uint256",
          "name": "tokenId",
          "type": "uint256"
        }
      ],
      "name": "transferFrom",
      "outputs": [],
      "stateMutability": "nonpayable",
      "type": "function"
    },
    {
      "inputs": [
        {
          "internalType": "address",
          "name": "newOwner",
          "type": "address"
        }
      ],
      "name": "transferOwnership",
      "outputs": [],
      "stateMutability": "nonpayable",
      "type": "function"
    },
    {
      "inputs": [],
      "name": "unpause",
      "outputs": [],
      "stateMutability": "nonpayable",
      "type": "function"
    },
    {
      "inputs": [],
      "name": "withdraw",
      "outputs": [],
      "stateMutability": "nonpayable",
      "type": "function"
    },
    {
      "stateMutability": "payable",
      "type": "receive"
    }
  ],
  "bytecode": "0x61271060c08181526204e2e06040529060e06204e200803683375050815162000030926016925060200190620001ac565b503480156200003e57600080fd5b50604051620035db380380620035db8339810160408190526200006191620002ac565b604080518082018252600d81526c547261736820506f7373756d7360981b60208083019182528351808501909452600584526454504f535360d81b90840152815187938793929091620000b791600091620001fc565b508051620000cd906001906020840190620001fc565b5050600b805460ff1916905550620000e53362000152565b6001600160601b0319606092831b811660a052911b16608052600e879055600d86905584516200011d906011906020880190620001fc565b5060129190915560135550601480546001600160a01b0319166001600160a01b03929092169190911790555062000425915050565b600b80546001600160a01b03838116610100818102610100600160a81b031985161790945560405193909204169182907f8be0079c531659141344cd1fd0a4f28419497f9722a3daafe3b4186f6b6457e090600090a35050565b828054828255906000526020600020908101928215620001ea579160200282015b82811115620001ea578251825591602001919060010190620001cd565b50620001f892915062000278565b5090565b8280546200020a90620003d2565b90600052602060002090601f0160209004810192826200022e5760008555620001ea565b82601f106200024957805160ff1916838001178555620001ea565b82800160010185558215620001ea5791820182811115620001ea578251825591602001919060010190620001cd565b5b80821115620001f8576000815560010162000279565b80516001600160a01b0381168114620002a757600080fd5b919050565b600080600080600080600060e0888a031215620002c7578283fd5b87516020808a015160408b01519299509750906001600160401b0380821115620002ef578586fd5b818b0191508b601f83011262000303578586fd5b8151818111156200031857620003186200040f565b604051601f8201601f19908116603f011681019083821181831017156200034357620003436200040f565b816040528281528e868487010111156200035b578889fd5b8893505b828410156200037e57848401860151818501870152928501926200035f565b828411156200038f57888684830101525b809a50505050505050620003a6606089016200028f565b9350620003b6608089016200028f565b925060a0880151915060c0880151905092959891949750929550565b600181811c90821680620003e757607f821691505b602082108114156200040957634e487b7160e01b600052602260045260246000fd5b50919050565b634e487b7160e01b600052604160045260246000fd5b60805160601c60a05160601c61317c6200045f6000396000818161107901526124fb0152600081816120cb01526124cc015261317c6000f3fe6080604052600436106101fd5760003560e01c8063671099381161010d578063a22cb465116100a0578063d547cfb71161006f578063d547cfb71461055a578063dca772841461056f578063e985e9c51461058f578063ead17506146105d8578063f2fde38b146105ed57600080fd5b8063a22cb465146104e5578063b59bb11e14610505578063b88d4fde1461051a578063c87b56dd1461053a57600080fd5b80638456cb59116100dc5780638456cb59146104785780638da5cb5b1461048d57806394985ddd146104b057806395d89b41146104d057600080fd5b8063671099381461041b57806370a082311461042e578063715018a61461044e57806384511aff1461046357600080fd5b80633ccfd60b116101905780634639dba31161015f5780634639dba3146103985780634f6ccce7146103ad5780635b46a8f2146103cd5780635c975abb146103e35780636352211e146103fb57600080fd5b80633ccfd60b146103395780633f4ba83a1461034e578063416c585d1461036357806342842e0e1461037857600080fd5b806318160ddd116101cc57806318160ddd146102ba57806323b872dd146102d95780632f745c59146102f957806330176e131461031957600080fd5b806301ffc9a71461020957806306fdde031461023e578063081812fc14610260578063095ea7b31461029857600080fd5b3661020457005b600080fd5b34801561021557600080fd5b50610229610224366004612d24565b61060d565b60405190151581526020015b60405180910390f35b34801561024a57600080fd5b5061025361061e565b6040516102359190612e9a565b34801561026c57600080fd5b5061028061027b366004612da2565b6106b0565b6040516001600160a01b039091168152602001610235565b3480156102a457600080fd5b506102b86102b3366004612cbe565b61073d565b005b3480156102c657600080fd5b50600f545b604051908152602001610235565b3480156102e557600080fd5b506102b86102f4366004612bd4565b610853565b34801561030557600080fd5b506102cb610314366004612cbe565b610884565b34801561032557600080fd5b506102b8610334366004612d5c565b61091a565b34801561034557600080fd5b506102b8610961565b34801561035a57600080fd5b506102b86109c0565b34801561036f57600080fd5b506102b86109fa565b34801561038457600080fd5b506102b8610393366004612bd4565b610ba1565b3480156103a457600080fd5b50600e546102cb565b3480156103b957600080fd5b506102cb6103c8366004612da2565b610bbc565b3480156103d957600080fd5b506102cb61271081565b3480156103ef57600080fd5b50600b5460ff16610229565b34801561040757600080fd5b50610280610416366004612da2565b610c5d565b6102b8610429366004612da2565b610cd4565b34801561043a57600080fd5b506102cb610449366004612b88565b610f75565b34801561045a57600080fd5b506102b8610ffc565b34801561046f57600080fd5b506102cb603681565b34801561048457600080fd5b506102b8611036565b34801561049957600080fd5b50600b5461010090046001600160a01b0316610280565b3480156104bc57600080fd5b506102b86104cb366004612d03565b61106e565b3480156104dc57600080fd5b506102536110f0565b3480156104f157600080fd5b506102b8610500366004612c88565b6110ff565b34801561051157600080fd5b506016546102cb565b34801561052657600080fd5b506102b8610535366004612c0f565b61110a565b34801561054657600080fd5b50610253610555366004612da2565b611142565b34801561056657600080fd5b5061025361114d565b34801561057b57600080fd5b506102b861058a366004612da2565b61115c565b34801561059b57600080fd5b506102296105aa366004612ba2565b6001600160a01b03918216600090815260056020908152604080832093909416825291909152205460ff1690565b3480156105e457600080fd5b50600d546102cb565b3480156105f957600080fd5b506102b8610608366004612b88565b611191565b600061061882611232565b92915050565b60606000805461062d90613076565b80601f016020809104026020016040519081016040528092919081815260200182805461065990613076565b80156106a65780601f1061067b576101008083540402835291602001916106a6565b820191906000526020600020905b81548152906001019060200180831161068957829003601f168201915b5050505050905090565b60006106bb82611257565b6107215760405162461bcd60e51b815260206004820152602c60248201527f4552433732313a20617070726f76656420717565727920666f72206e6f6e657860448201526b34b9ba32b73a103a37b5b2b760a11b60648201526084015b60405180910390fd5b506000908152600460205260409020546001600160a01b031690565b600061074882610c5d565b9050806001600160a01b0316836001600160a01b031614156107b65760405162461bcd60e51b815260206004820152602160248201527f4552433732313a20617070726f76616c20746f2063757272656e74206f776e656044820152603960f91b6064820152608401610718565b336001600160a01b03821614806107d257506107d281336105aa565b6108445760405162461bcd60e51b815260206004820152603860248201527f4552433732313a20617070726f76652063616c6c6572206973206e6f74206f7760448201527f6e6572206e6f7220617070726f76656420666f7220616c6c00000000000000006064820152608401610718565b61084e8383611274565b505050565b61085d33826112e2565b6108795760405162461bcd60e51b815260040161071890612fb6565b61084e8383836113cc565b600061088f83610f75565b82106108f15760405162461bcd60e51b815260206004820152602b60248201527f455243373231456e756d657261626c653a206f776e657220696e646578206f7560448201526a74206f6620626f756e647360a81b6064820152608401610718565b506001600160a01b03919091166000908152600760209081526040808320938352929052205490565b600b546001600160a01b0361010090910416331461094a5760405162461bcd60e51b815260040161071890612f81565b805161095d906011906020840190612a66565b5050565b600b546001600160a01b036101009091041633146109915760405162461bcd60e51b815260040161071890612f81565b6040514790339082156108fc029083906000818181858888f1935050505015801561095d573d6000803e3d6000fd5b600b546001600160a01b036101009091041633146109f05760405162461bcd60e51b815260040161071890612f81565b6109f8611577565b565b600b546001600160a01b03610100909104163314610a2a5760405162461bcd60e51b815260040161071890612f81565b60105460ff1615610a8b5760405162461bcd60e51b815260206004820152602560248201527f596f752063616e206f6e6c79207072656d696e742074686520506f7373756d73604482015264206f6e636560d81b6064820152608401610718565b60165460641115610ade5760405162461bcd60e51b815260206004820152601d60248201527f4e6f20506f7373756d73206c65667420746f20626520636c61696d65640000006044820152606401610718565b6064600f6000828254610af19190613007565b90915550600090505b6064811015610b9157610b0d338261160a565b601654610b1c90600190613033565b60168281548110610b3d57634e487b7160e01b600052603260045260246000fd5b6000918252602090912001556016805480610b6857634e487b7160e01b600052603160045260246000fd5b600190038181906000526020600020016000905590558080610b89906130b1565b915050610afa565b506010805460ff19166001179055565b61084e8383836040518060200160405280600081525061110a565b6000610bc760095490565b8210610c2a5760405162461bcd60e51b815260206004820152602c60248201527f455243373231456e756d657261626c653a20676c6f62616c20696e646578206f60448201526b7574206f6620626f756e647360a01b6064820152608401610718565b60098281548110610c4b57634e487b7160e01b600052603260045260246000fd5b90600052602060002001549050919050565b6000818152600260205260408120546001600160a01b0316806106185760405162461bcd60e51b815260206004820152602960248201527f4552433732313a206f776e657220717565727920666f72206e6f6e657869737460448201526832b73a103a37b5b2b760b91b6064820152608401610718565b323314610d3c5760405162461bcd60e51b815260206004820152603060248201527f5468652063616c6c65722063616e206f6e6c792062652061207573657220616e60448201526f19081b9bdd08184818dbdb9d1c9858dd60821b6064820152608401610718565b600d5415801590610d4f575042600d5411155b610d8f5760405162461bcd60e51b8152602060048201526011602482015270596f752061726520746f6f206561726c7960781b6044820152606401610718565b60008111610ddf5760405162461bcd60e51b815260206004820152601b60248201527f6e65656420746f206d696e74206174206c656173742031204e465400000000006044820152606401610718565b33600090815260156020526040902054603690610dfd908390613007565b1115610e4b5760405162461bcd60e51b815260206004820152601d60248201527f596f752063616e6e6f7420636c61696d206d6f726520706f7373756d730000006044820152606401610718565b601654811115610e9d5760405162461bcd60e51b815260206004820152601d60248201527f4e6f20506f7373756d73206c65667420746f20626520636c61696d65640000006044820152606401610718565b601b811115610ede5760405162461bcd60e51b815260206004820152600d60248201526c09ac2f040646e40e0cae440e8f609b1b6044820152606401610718565b610f0a6040518060400160405280600a81526020016936b9b39739b2b73232b960b11b81525033611774565b60005b8181101561095d576000610f1f6117b9565b9050610f2b338261160a565b610f62604051806040016040528060138152602001726d696e74696e67203120706f7373756d20746f60681b815250333084611b38565b5080610f6d816130b1565b915050610f0d565b60006001600160a01b038216610fe05760405162461bcd60e51b815260206004820152602a60248201527f4552433732313a2062616c616e636520717565727920666f7220746865207a65604482015269726f206164647265737360b01b6064820152608401610718565b506001600160a01b031660009081526003602052604090205490565b600b546001600160a01b0361010090910416331461102c5760405162461bcd60e51b815260040161071890612f81565b6109f86000611b81565b600b546001600160a01b036101009091041633146110665760405162461bcd60e51b815260040161071890612f81565b6109f8611bdb565b336001600160a01b037f000000000000000000000000000000000000000000000000000000000000000016146110e65760405162461bcd60e51b815260206004820152601f60248201527f4f6e6c7920565246436f6f7264696e61746f722063616e2066756c66696c6c006044820152606401610718565b61095d8282611c56565b60606001805461062d90613076565b61095d338383611cdc565b61111433836112e2565b6111305760405162461bcd60e51b815260040161071890612fb6565b61113c84848484611dab565b50505050565b606061061882611dde565b60606011805461062d90613076565b600b546001600160a01b0361010090910416331461118c5760405162461bcd60e51b815260040161071890612f81565b600e55565b600b546001600160a01b036101009091041633146111c15760405162461bcd60e51b815260040161071890612f81565b6001600160a01b0381166112265760405162461bcd60e51b815260206004820152602660248201527f4f776e61626c653a206e6577206f776e657220697320746865207a65726f206160448201526564647265737360d01b6064820152608401610718565b61122f81611b81565b50565b60006001600160e01b0319821663780e9d6360e01b1480610618575061061882611f40565b6000908152600260205260409020546001600160a01b0316151590565b600081815260046020526040902080546001600160a01b0319166001600160a01b03841690811790915581906112a982610c5d565b6001600160a01b03167f8c5be1e5ebec7d5bd14f71427d1e84f3dd0314c0f7b2291e5b200ac8c7c3b92560405160405180910390a45050565b60006112ed82611257565b61134e5760405162461bcd60e51b815260206004820152602c60248201527f4552433732313a206f70657261746f7220717565727920666f72206e6f6e657860448201526b34b9ba32b73a103a37b5b2b760a11b6064820152608401610718565b600061135983610c5d565b9050806001600160a01b0316846001600160a01b031614806113945750836001600160a01b0316611389846106b0565b6001600160a01b0316145b806113c457506001600160a01b0380821660009081526005602090815260408083209388168352929052205460ff165b949350505050565b826001600160a01b03166113df82610c5d565b6001600160a01b0316146114475760405162461bcd60e51b815260206004820152602960248201527f4552433732313a207472616e73666572206f6620746f6b656e2074686174206960448201526839903737ba1037bbb760b91b6064820152608401610718565b6001600160a01b0382166114a95760405162461bcd60e51b8152602060048201526024808201527f4552433732313a207472616e7366657220746f20746865207a65726f206164646044820152637265737360e01b6064820152608401610718565b6114b4838383611f90565b6114bf600082611274565b6001600160a01b03831660009081526003602052604081208054600192906114e8908490613033565b90915550506001600160a01b0382166000908152600360205260408120805460019290611516908490613007565b909155505060008181526002602052604080822080546001600160a01b0319166001600160a01b0386811691821790925591518493918716917fddf252ad1be2c89b69c2b068fc378daa952ba7f163c4a11628f55a4df523b3ef91a4505050565b600b5460ff166115c05760405162461bcd60e51b815260206004820152601460248201527314185d5cd8589b194e881b9bdd081c185d5cd95960621b6044820152606401610718565b600b805460ff191690557f5db9ee0a495bf2e6ff9c91a7834c1ba4fdd244a5e8aa4e537bd38aeae4b073aa335b6040516001600160a01b03909116815260200160405180910390a1565b612710600f54111561165e5760405162461bcd60e51b815260206004820152601c60248201527f616c6c20506f7373756d732068617665206265656e206d696e746564000000006044820152606401610718565b6116688282611fe1565b6116fc816011805461167990613076565b80601f01602080910402602001604051908101604052809291908181526020018280546116a590613076565b80156116f25780601f106116c7576101008083540402835291602001916116f2565b820191906000526020600020905b8154815290600101906020018083116116d557829003601f168201915b5050505050611ffb565b600f805490600061170c836130b1565b90915550506001600160a01b0382166000908152601560205260408120805491611735836130b1565b909155505060405181906001600160a01b038416907f0f6798a560793a54c3bcfe86a93cde1e73087d944c0ea20544137d412139688590600090a35050565b61095d828260405160240161178a929190612ead565b60408051601f198184030181529190526020810180516001600160e01b031663319af33360e01b179052612086565b60006117c36120a7565b5060175460408051808201909152600d81526c3930b73237b690373ab6b132b960991b60208201526117f590826121c0565b6016818154811061181657634e487b7160e01b600052603260045260246000fd5b9060005260206000200154600014801561186857506016805461183b90600190613033565b8154811061185957634e487b7160e01b600052603260045260246000fd5b90600052602060002001546000145b156118e757601654909150819061188190600190613033565b601682815481106118a257634e487b7160e01b600052603260045260246000fd5b60009182526020909120015560168054806118cd57634e487b7160e01b600052603160045260246000fd5b600190038181906000526020600020016000905590555090565b6016818154811061190857634e487b7160e01b600052603260045260246000fd5b906000526020600020015460001415801561195b57506016805461192e90600190613033565b8154811061194c57634e487b7160e01b600052603260045260246000fd5b90600052602060002001546000145b156119a0576016818154811061198157634e487b7160e01b600052603260045260246000fd5b9060005260206000200154915060016016805490506118819190613033565b601681815481106119c157634e487b7160e01b600052603260045260246000fd5b9060005260206000200154600014158015611a155750601680546119e790600190613033565b81548110611a0557634e487b7160e01b600052603260045260246000fd5b9060005260206000200154600014155b15611aa65760168181548110611a3b57634e487b7160e01b600052603260045260246000fd5b9060005260206000200154915060166001601680549050611a5c9190613033565b81548110611a7a57634e487b7160e01b600052603260045260246000fd5b9060005260206000200154601682815481106118a257634e487b7160e01b600052603260045260246000fd5b60168181548110611ac757634e487b7160e01b600052603260045260246000fd5b90600052602060002001546000148015611b1a575060168054611aec90600190613033565b81548110611b0a57634e487b7160e01b600052603260045260246000fd5b9060005260206000200154600014155b15611b3457601680549192508291611a5c90600190613033565b5090565b61113c84848484604051602401611b529493929190612ed7565b60408051601f198184030181529190526020810180516001600160e01b0316636eb7943d60e01b179052612086565b600b80546001600160a01b03838116610100818102610100600160a81b031985161790945560405193909204169182907f8be0079c531659141344cd1fd0a4f28419497f9722a3daafe3b4186f6b6457e090600090a35050565b600b5460ff1615611c215760405162461bcd60e51b815260206004820152601060248201526f14185d5cd8589b194e881c185d5cd95960821b6044820152606401610718565b600b805460ff191660011790557f62e78cea01bee320cd4e420270b5ea74000d11b0c9f74754ebdbfc544b05a2586115ed3390565b6014546001600160a01b031633148015611c6f57508115155b611cbb5760405162461bcd60e51b815260206004820181905260248201527f6f6e6c792056524620436f6f7264696e61746f722063616e2066756c66696c6c6044820152606401610718565b601654600190611ccb90836130cc565b611cd59190613033565b6017555050565b816001600160a01b0316836001600160a01b03161415611d3e5760405162461bcd60e51b815260206004820152601960248201527f4552433732313a20617070726f766520746f2063616c6c6572000000000000006044820152606401610718565b6001600160a01b03838116600081815260056020908152604080832094871680845294825291829020805460ff191686151590811790915591519182527f17307eab39ab6107e8899845ad3d59bd9653f200f220920489ca2b5937696c31910160405180910390a3505050565b611db68484846113cc565b611dc284848484612205565b61113c5760405162461bcd60e51b815260040161071890612f2f565b6060611de982611257565b611e4f5760405162461bcd60e51b815260206004820152603160248201527f45524337323155524953746f726167653a2055524920717565727920666f72206044820152703737b732bc34b9ba32b73a103a37b5b2b760791b6064820152608401610718565b60008281526006602052604081208054611e6890613076565b80601f0160208091040260200160405190810160405280929190818152602001828054611e9490613076565b8015611ee15780601f10611eb657610100808354040283529160200191611ee1565b820191906000526020600020905b815481529060010190602001808311611ec457829003601f168201915b505050505090506000611ef261114d565b9050805160001415611f05575092915050565b815115611f37578082604051602001611f1f929190612dfe565b60405160208183030381529060405292505050919050565b6113c484612312565b60006001600160e01b031982166380ac58cd60e01b1480611f7157506001600160e01b03198216635b5e139f60e01b145b8061061857506301ffc9a760e01b6001600160e01b0319831614610618565b600b5460ff1615611fd65760405162461bcd60e51b815260206004820152601060248201526f14185d5cd8589b194e881c185d5cd95960821b6044820152606401610718565b61084e8383836123dd565b61095d828260405180602001604052806000815250612495565b61200482611257565b6120675760405162461bcd60e51b815260206004820152602e60248201527f45524337323155524953746f726167653a2055524920736574206f66206e6f6e60448201526d32bc34b9ba32b73a103a37b5b2b760911b6064820152608401610718565b6000828152600660209081526040909120825161084e92840190612a66565b80516a636f6e736f6c652e6c6f67602083016000808483855afa5050505050565b6013546040516370a0823160e01b8152306004820152600091906001600160a01b037f000000000000000000000000000000000000000000000000000000000000000016906370a082319060240160206040518083038186803b15801561210d57600080fd5b505afa158015612121573d6000803e3d6000fd5b505050506040513d601f19601f820116820180604052508101906121459190612dba565b10156121ad5760405162461bcd60e51b815260206004820152603160248201527f4e6f7420656e6f756768204c696e6b2020696e20636f6e747261637420746f2060448201527033b2ba103930b73237b690373ab6b132b960791b6064820152608401610718565b6121bb6012546013546124c8565b905090565b61095d82826040516024016121d6929190612f0d565b60408051601f198184030181529190526020810180516001600160e01b03166309710a9d60e41b179052612086565b60006001600160a01b0384163b1561230757604051630a85bd0160e11b81526001600160a01b0385169063150b7a0290612249903390899088908890600401612e2d565b602060405180830381600087803b15801561226357600080fd5b505af1925050508015612293575060408051601f3d908101601f1916820190925261229091810190612d40565b60015b6122ed573d8080156122c1576040519150601f19603f3d011682016040523d82523d6000602084013e6122c6565b606091505b5080516122e55760405162461bcd60e51b815260040161071890612f2f565b805181602001fd5b6001600160e01b031916630a85bd0160e11b1490506113c4565b506001949350505050565b606061231d82611257565b6123815760405162461bcd60e51b815260206004820152602f60248201527f4552433732314d657461646174613a2055524920717565727920666f72206e6f60448201526e3732bc34b9ba32b73a103a37b5b2b760891b6064820152608401610718565b600061238b61114d565b905060008151116123ab57604051806020016040528060008152506123d6565b806123b584612653565b6040516020016123c6929190612dfe565b6040516020818303038152906040525b9392505050565b6001600160a01b0383166124385761243381600980546000838152600a60205260408120829055600182018355919091527f6e1540171b6c0c960b71a7020d9f60077f6af931a8bbf590da0223dacf75c7af0155565b61245b565b816001600160a01b0316836001600160a01b03161461245b5761245b838261276d565b6001600160a01b0382166124725761084e8161280a565b826001600160a01b0316826001600160a01b03161461084e5761084e82826128e3565b61249f8383612927565b6124ac6000848484612205565b61084e5760405162461bcd60e51b815260040161071890612f2f565b60007f00000000000000000000000000000000000000000000000000000000000000006001600160a01b0316634000aea07f000000000000000000000000000000000000000000000000000000000000000084866000604051602001612538929190918252602082015260400190565b6040516020818303038152906040526040518463ffffffff1660e01b815260040161256593929190612e6a565b602060405180830381600087803b15801561257f57600080fd5b505af1158015612593573d6000803e3d6000fd5b505050506040513d601f19601f820116820180604052508101906125b79190612ce7565b506000838152600c6020818152604080842054815180840189905280830186905230606082015260808082018390528351808303909101815260a090910190925281519183019190912093879052919052612613906001613007565b6000858152600c60205260409020556113c48482604080516020808201949094528082019290925280518083038201815260609092019052805191012090565b6060816126775750506040805180820190915260018152600360fc1b602082015290565b8160005b81156126a1578061268b816130b1565b915061269a9050600a8361301f565b915061267b565b60008167ffffffffffffffff8111156126ca57634e487b7160e01b600052604160045260246000fd5b6040519080825280601f01601f1916602001820160405280156126f4576020820181803683370190505b5090505b84156113c457612709600183613033565b9150612716600a866130cc565b612721906030613007565b60f81b81838151811061274457634e487b7160e01b600052603260045260246000fd5b60200101906001600160f81b031916908160001a905350612766600a8661301f565b94506126f8565b6000600161277a84610f75565b6127849190613033565b6000838152600860205260409020549091508082146127d7576001600160a01b03841660009081526007602090815260408083208584528252808320548484528184208190558352600890915290208190555b5060009182526008602090815260408084208490556001600160a01b039094168352600781528383209183525290812055565b60095460009061281c90600190613033565b6000838152600a60205260408120546009805493945090928490811061285257634e487b7160e01b600052603260045260246000fd5b90600052602060002001549050806009838154811061288157634e487b7160e01b600052603260045260246000fd5b6000918252602080832090910192909255828152600a909152604080822084905585825281205560098054806128c757634e487b7160e01b600052603160045260246000fd5b6001900381819060005260206000200160009055905550505050565b60006128ee83610f75565b6001600160a01b039093166000908152600760209081526040808320868452825280832085905593825260089052919091209190915550565b6001600160a01b03821661297d5760405162461bcd60e51b815260206004820181905260248201527f4552433732313a206d696e7420746f20746865207a65726f20616464726573736044820152606401610718565b61298681611257565b156129d35760405162461bcd60e51b815260206004820152601c60248201527f4552433732313a20746f6b656e20616c7265616479206d696e746564000000006044820152606401610718565b6129df60008383611f90565b6001600160a01b0382166000908152600360205260408120805460019290612a08908490613007565b909155505060008181526002602052604080822080546001600160a01b0319166001600160a01b03861690811790915590518392907fddf252ad1be2c89b69c2b068fc378daa952ba7f163c4a11628f55a4df523b3ef908290a45050565b828054612a7290613076565b90600052602060002090601f016020900481019282612a945760008555612ada565b82601f10612aad57805160ff1916838001178555612ada565b82800160010185558215612ada579182015b82811115612ada578251825591602001919060010190612abf565b50611b349291505b80821115611b345760008155600101612ae2565b600067ffffffffffffffff80841115612b1157612b1161310c565b604051601f8501601f19908116603f01168101908282118183101715612b3957612b3961310c565b81604052809350858152868686011115612b5257600080fd5b858560208301376000602087830101525050509392505050565b80356001600160a01b0381168114612b8357600080fd5b919050565b600060208284031215612b99578081fd5b6123d682612b6c565b60008060408385031215612bb4578081fd5b612bbd83612b6c565b9150612bcb60208401612b6c565b90509250929050565b600080600060608486031215612be8578081fd5b612bf184612b6c565b9250612bff60208501612b6c565b9150604084013590509250925092565b60008060008060808587031215612c24578081fd5b612c2d85612b6c565b9350612c3b60208601612b6c565b925060408501359150606085013567ffffffffffffffff811115612c5d578182fd5b8501601f81018713612c6d578182fd5b612c7c87823560208401612af6565b91505092959194509250565b60008060408385031215612c9a578182fd5b612ca383612b6c565b91506020830135612cb381613122565b809150509250929050565b60008060408385031215612cd0578182fd5b612cd983612b6c565b946020939093013593505050565b600060208284031215612cf8578081fd5b81516123d681613122565b60008060408385031215612d15578182fd5b50508035926020909101359150565b600060208284031215612d35578081fd5b81356123d681613130565b600060208284031215612d51578081fd5b81516123d681613130565b600060208284031215612d6d578081fd5b813567ffffffffffffffff811115612d83578182fd5b8201601f81018413612d93578182fd5b6113c484823560208401612af6565b600060208284031215612db3578081fd5b5035919050565b600060208284031215612dcb578081fd5b5051919050565b60008151808452612dea81602086016020860161304a565b601f01601f19169290920160200192915050565b60008351612e1081846020880161304a565b835190830190612e2481836020880161304a565b01949350505050565b6001600160a01b0385811682528416602082015260408101839052608060608201819052600090612e6090830184612dd2565b9695505050505050565b60018060a01b0384168152826020820152606060408201526000612e916060830184612dd2565b95945050505050565b6020815260006123d66020830184612dd2565b604081526000612ec06040830185612dd2565b905060018060a01b03831660208301529392505050565b608081526000612eea6080830187612dd2565b6001600160a01b0395861660208401529390941660408201526060015292915050565b604081526000612f206040830185612dd2565b90508260208301529392505050565b60208082526032908201527f4552433732313a207472616e7366657220746f206e6f6e20455243373231526560408201527131b2b4bb32b91034b6b83632b6b2b73a32b960711b606082015260800190565b6020808252818101527f4f776e61626c653a2063616c6c6572206973206e6f7420746865206f776e6572604082015260600190565b60208082526031908201527f4552433732313a207472616e736665722063616c6c6572206973206e6f74206f6040820152701ddb995c881b9bdc88185c1c1c9bdd9959607a1b606082015260800190565b6000821982111561301a5761301a6130e0565b500190565b60008261302e5761302e6130f6565b500490565b600082821015613045576130456130e0565b500390565b60005b8381101561306557818101518382015260200161304d565b8381111561113c5750506000910152565b600181811c9082168061308a57607f821691505b602082108114156130ab57634e487b7160e01b600052602260045260246000fd5b50919050565b60006000198214156130c5576130c56130e0565b5060010190565b6000826130db576130db6130f6565b500690565b634e487b7160e01b600052601160045260246000fd5b634e487b7160e01b600052601260045260246000fd5b634e487b7160e01b600052604160045260246000fd5b801515811461122f57600080fd5b6001600160e01b03198116811461122f57600080fdfea26469706673582212204cdf3adebf8b86ba2e64f163817371a67e39cec4fdb52c3cc3e82b4a9b6f0b0a64736f6c63430008040033",
  "linkReferences": {},
  "deployedLinkReferences": {}
}