{
  "_format": "hh-sol-artifact-1",
  "contractName": "TrashPossums",
  "sourceName": "contracts/TrashPossums.sol",
  "abi": [
    {
      "inputs": [
        {
          "internalType": "uint256",
          "name": "_possumPrice",
          "type": "uint256"
        },
        {
          "internalType": "uint256",
          "name": "_startMintDate",
          "type": "uint256"
        },
        {
          "internalType": "string",
          "name": "_baseUri",
          "type": "string"
        },
        {
          "internalType": "uint256",
          "name": "_claimDate",
          "type": "uint256"
        },
        {
          "internalType": "address",
          "name": "_VRFAddress",
          "type": "address"
        },
        {
          "internalType": "address",
          "name": "_linkToken",
          "type": "address"
        },
        {
          "internalType": "bytes32",
          "name": "_keyHash",
          "type": "bytes32"
        },
        {
          "internalType": "uint256",
          "name": "_fee",
          "type": "uint256"
        },
        {
          "internalType": "address",
          "name": "_randomness",
          "type": "address"
        }
      ],
      "stateMutability": "nonpayable",
      "type": "constructor"
    },
    {
      "anonymous": false,
      "inputs": [
        {
          "indexed": true,
          "internalType": "address",
          "name": "owner",
          "type": "address"
        },
        {
          "indexed": true,
          "internalType": "address",
          "name": "approved",
          "type": "address"
        },
        {
          "indexed": true,
          "internalType": "uint256",
          "name": "tokenId",
          "type": "uint256"
        }
      ],
      "name": "Approval",
      "type": "event"
    },
    {
      "anonymous": false,
      "inputs": [
        {
          "indexed": true,
          "internalType": "address",
          "name": "owner",
          "type": "address"
        },
        {
          "indexed": true,
          "internalType": "address",
          "name": "operator",
          "type": "address"
        },
        {
          "indexed": false,
          "internalType": "bool",
          "name": "approved",
          "type": "bool"
        }
      ],
      "name": "ApprovalForAll",
      "type": "event"
    },
    {
      "anonymous": false,
      "inputs": [
        {
          "indexed": true,
          "internalType": "address",
          "name": "previousOwner",
          "type": "address"
        },
        {
          "indexed": true,
          "internalType": "address",
          "name": "newOwner",
          "type": "address"
        }
      ],
      "name": "OwnershipTransferred",
      "type": "event"
    },
    {
      "anonymous": false,
      "inputs": [
        {
          "indexed": false,
          "internalType": "address",
          "name": "account",
          "type": "address"
        }
      ],
      "name": "Paused",
      "type": "event"
    },
    {
      "anonymous": false,
      "inputs": [
        {
          "indexed": true,
          "internalType": "address",
          "name": "to",
          "type": "address"
        },
        {
          "indexed": true,
          "internalType": "uint256",
          "name": "tokenId",
          "type": "uint256"
        }
      ],
      "name": "Reserved",
      "type": "event"
    },
    {
      "anonymous": false,
      "inputs": [
        {
          "indexed": true,
          "internalType": "address",
          "name": "from",
          "type": "address"
        },
        {
          "indexed": true,
          "internalType": "address",
          "name": "to",
          "type": "address"
        },
        {
          "indexed": true,
          "internalType": "uint256",
          "name": "tokenId",
          "type": "uint256"
        }
      ],
      "name": "Transfer",
      "type": "event"
    },
    {
      "anonymous": false,
      "inputs": [
        {
          "indexed": false,
          "internalType": "address",
          "name": "account",
          "type": "address"
        }
      ],
      "name": "Unpaused",
      "type": "event"
    },
    {
      "inputs": [
        {
          "internalType": "address",
          "name": "to",
          "type": "address"
        },
        {
          "internalType": "uint256",
          "name": "tokenId",
          "type": "uint256"
        }
      ],
      "name": "approve",
      "outputs": [],
      "stateMutability": "nonpayable",
      "type": "function"
    },
    {
      "inputs": [
        {
          "internalType": "address",
          "name": "owner",
          "type": "address"
        }
      ],
      "name": "balanceOf",
      "outputs": [
        {
          "internalType": "uint256",
          "name": "",
          "type": "uint256"
        }
      ],
      "stateMutability": "view",
      "type": "function"
    },
    {
      "inputs": [],
      "name": "baseTokenURI",
      "outputs": [
        {
          "internalType": "string",
          "name": "",
          "type": "string"
        }
      ],
      "stateMutability": "view",
      "type": "function"
    },
    {
      "inputs": [],
      "name": "claimPossums",
      "outputs": [],
      "stateMutability": "nonpayable",
      "type": "function"
    },
    {
      "inputs": [],
      "name": "claimableDate",
      "outputs": [
        {
          "internalType": "uint256",
          "name": "",
          "type": "uint256"
        }
      ],
      "stateMutability": "view",
      "type": "function"
    },
    {
      "inputs": [],
      "name": "executeOffset",
      "outputs": [
        {
          "internalType": "bool",
          "name": "",
          "type": "bool"
        }
      ],
      "stateMutability": "nonpayable",
      "type": "function"
    },
    {
      "inputs": [
        {
          "internalType": "uint256",
          "name": "_premintCount",
          "type": "uint256"
        }
      ],
      "name": "executePremint",
      "outputs": [],
      "stateMutability": "nonpayable",
      "type": "function"
    },
    {
      "inputs": [],
      "name": "fee",
      "outputs": [
        {
          "internalType": "uint256",
          "name": "",
          "type": "uint256"
        }
      ],
      "stateMutability": "view",
      "type": "function"
    },
    {
      "inputs": [
        {
          "internalType": "uint256",
          "name": "tokenId",
          "type": "uint256"
        }
      ],
      "name": "getApproved",
      "outputs": [
        {
          "internalType": "address",
          "name": "",
          "type": "address"
        }
      ],
      "stateMutability": "view",
      "type": "function"
    },
    {
      "inputs": [],
      "name": "getAvailablePossums",
      "outputs": [
        {
          "internalType": "uint256",
          "name": "",
          "type": "uint256"
        }
      ],
      "stateMutability": "view",
      "type": "function"
    },
    {
      "inputs": [],
      "name": "getBalance",
      "outputs": [
        {
          "internalType": "uint256",
          "name": "",
          "type": "uint256"
        }
      ],
      "stateMutability": "view",
      "type": "function"
    },
    {
      "inputs": [],
      "name": "getClaimDate",
      "outputs": [
        {
          "internalType": "uint256",
          "name": "",
          "type": "uint256"
        }
      ],
      "stateMutability": "view",
      "type": "function"
    },
    {
      "inputs": [],
      "name": "getClaimableDate",
      "outputs": [
        {
          "internalType": "uint256",
          "name": "",
          "type": "uint256"
        }
      ],
      "stateMutability": "view",
      "type": "function"
    },
    {
      "inputs": [],
      "name": "getMintingStartDate",
      "outputs": [
        {
          "internalType": "uint256",
          "name": "",
          "type": "uint256"
        }
      ],
      "stateMutability": "view",
      "type": "function"
    },
    {
      "inputs": [],
      "name": "getNumberOfReservedPossums",
      "outputs": [
        {
          "internalType": "uint256",
          "name": "",
          "type": "uint256"
        }
      ],
      "stateMutability": "view",
      "type": "function"
    },
    {
      "inputs": [],
      "name": "getOffset",
      "outputs": [
        {
          "internalType": "uint256",
          "name": "",
          "type": "uint256"
        }
      ],
      "stateMutability": "view",
      "type": "function"
    },
    {
      "inputs": [],
      "name": "getPossumPrice",
      "outputs": [
        {
          "internalType": "uint256",
          "name": "",
          "type": "uint256"
        }
      ],
      "stateMutability": "view",
      "type": "function"
    },
    {
      "inputs": [
        {
          "internalType": "address",
          "name": "_wallet",
          "type": "address"
        }
      ],
      "name": "getReservedPossumIds",
      "outputs": [
        {
          "internalType": "uint256[]",
          "name": "reservedIds",
          "type": "uint256[]"
        }
      ],
      "stateMutability": "view",
      "type": "function"
    },
    {
      "inputs": [
        {
          "internalType": "address",
          "name": "_wallet",
          "type": "address"
        }
      ],
      "name": "getReservedPossumsPerWallet",
      "outputs": [
        {
          "internalType": "uint256",
          "name": "",
          "type": "uint256"
        }
      ],
      "stateMutability": "view",
      "type": "function"
    },
    {
      "inputs": [],
      "name": "getTotalPossums",
      "outputs": [
        {
          "internalType": "uint256",
          "name": "",
          "type": "uint256"
        }
      ],
      "stateMutability": "pure",
      "type": "function"
    },
    {
      "inputs": [],
      "name": "getTrash",
      "outputs": [
        {
          "internalType": "address",
          "name": "",
          "type": "address"
        }
      ],
      "stateMutability": "view",
      "type": "function"
    },
    {
      "inputs": [
        {
          "internalType": "address",
          "name": "owner",
          "type": "address"
        },
        {
          "internalType": "address",
          "name": "operator",
          "type": "address"
        }
      ],
      "name": "isApprovedForAll",
      "outputs": [
        {
          "internalType": "bool",
          "name": "",
          "type": "bool"
        }
      ],
      "stateMutability": "view",
      "type": "function"
    },
    {
      "inputs": [],
      "name": "keyHash",
      "outputs": [
        {
          "internalType": "bytes32",
          "name": "",
          "type": "bytes32"
        }
      ],
      "stateMutability": "view",
      "type": "function"
    },
    {
      "inputs": [],
      "name": "maxPossumsPerWallet",
      "outputs": [
        {
          "internalType": "uint256",
          "name": "",
          "type": "uint256"
        }
      ],
      "stateMutability": "view",
      "type": "function"
    },
    {
      "inputs": [],
      "name": "name",
      "outputs": [
        {
          "internalType": "string",
          "name": "",
          "type": "string"
        }
      ],
      "stateMutability": "view",
      "type": "function"
    },
    {
      "inputs": [],
      "name": "offsetExecuted",
      "outputs": [
        {
          "internalType": "bool",
          "name": "",
          "type": "bool"
        }
      ],
      "stateMutability": "view",
      "type": "function"
    },
    {
      "inputs": [],
      "name": "owner",
      "outputs": [
        {
          "internalType": "address",
          "name": "",
          "type": "address"
        }
      ],
      "stateMutability": "view",
      "type": "function"
    },
    {
      "inputs": [
        {
          "internalType": "uint256",
          "name": "tokenId",
          "type": "uint256"
        }
      ],
      "name": "ownerOf",
      "outputs": [
        {
          "internalType": "address",
          "name": "",
          "type": "address"
        }
      ],
      "stateMutability": "view",
      "type": "function"
    },
    {
      "inputs": [],
      "name": "pause",
      "outputs": [],
      "stateMutability": "nonpayable",
      "type": "function"
    },
    {
      "inputs": [],
      "name": "paused",
      "outputs": [
        {
          "internalType": "bool",
          "name": "",
          "type": "bool"
        }
      ],
      "stateMutability": "view",
      "type": "function"
    },
    {
      "inputs": [],
      "name": "popArray",
      "outputs": [],
      "stateMutability": "nonpayable",
      "type": "function"
    },
    {
      "inputs": [],
      "name": "premintExecuted",
      "outputs": [
        {
          "internalType": "bool",
          "name": "",
          "type": "bool"
        }
      ],
      "stateMutability": "view",
      "type": "function"
    },
    {
      "inputs": [],
      "name": "premintPossums",
      "outputs": [],
      "stateMutability": "nonpayable",
      "type": "function"
    },
    {
      "inputs": [],
      "name": "randomIdOffset",
      "outputs": [
        {
          "internalType": "uint256",
          "name": "",
          "type": "uint256"
        }
      ],
      "stateMutability": "view",
      "type": "function"
    },
    {
      "inputs": [],
      "name": "randomIdOffsetExecuted",
      "outputs": [
        {
          "internalType": "bool",
          "name": "",
          "type": "bool"
        }
      ],
      "stateMutability": "view",
      "type": "function"
    },
    {
      "inputs": [],
      "name": "randomness",
      "outputs": [
        {
          "internalType": "address",
          "name": "",
          "type": "address"
        }
      ],
      "stateMutability": "view",
      "type": "function"
    },
    {
      "inputs": [
        {
          "internalType": "bytes32",
          "name": "requestId",
          "type": "bytes32"
        },
        {
          "internalType": "uint256",
          "name": "randomness",
          "type": "uint256"
        }
      ],
      "name": "rawFulfillRandomness",
      "outputs": [],
      "stateMutability": "nonpayable",
      "type": "function"
    },
    {
      "inputs": [],
      "name": "renounceOwnership",
      "outputs": [],
      "stateMutability": "nonpayable",
      "type": "function"
    },
    {
      "inputs": [
        {
          "internalType": "uint256",
          "name": "amount",
          "type": "uint256"
        }
      ],
      "name": "reservePossums",
      "outputs": [],
      "stateMutability": "payable",
      "type": "function"
    },
    {
      "inputs": [
        {
          "internalType": "address",
          "name": "from",
          "type": "address"
        },
        {
          "internalType": "address",
          "name": "to",
          "type": "address"
        },
        {
          "internalType": "uint256",
          "name": "tokenId",
          "type": "uint256"
        }
      ],
      "name": "safeTransferFrom",
      "outputs": [],
      "stateMutability": "nonpayable",
      "type": "function"
    },
    {
      "inputs": [
        {
          "internalType": "address",
          "name": "from",
          "type": "address"
        },
        {
          "internalType": "address",
          "name": "to",
          "type": "address"
        },
        {
          "internalType": "uint256",
          "name": "tokenId",
          "type": "uint256"
        },
        {
          "internalType": "bytes",
          "name": "_data",
          "type": "bytes"
        }
      ],
      "name": "safeTransferFrom",
      "outputs": [],
      "stateMutability": "nonpayable",
      "type": "function"
    },
    {
      "inputs": [
        {
          "internalType": "address",
          "name": "operator",
          "type": "address"
        },
        {
          "internalType": "bool",
          "name": "approved",
          "type": "bool"
        }
      ],
      "name": "setApprovalForAll",
      "outputs": [],
      "stateMutability": "nonpayable",
      "type": "function"
    },
    {
      "inputs": [
        {
          "internalType": "uint256",
          "name": "index",
          "type": "uint256"
        },
        {
          "internalType": "uint256",
          "name": "key",
          "type": "uint256"
        }
      ],
      "name": "setArray",
      "outputs": [],
      "stateMutability": "nonpayable",
      "type": "function"
    },
    {
      "inputs": [
        {
          "internalType": "string",
          "name": "_uri",
          "type": "string"
        }
      ],
      "name": "setBaseTokenURI",
      "outputs": [],
      "stateMutability": "nonpayable",
      "type": "function"
    },
    {
      "inputs": [
        {
          "internalType": "uint256",
          "name": "_claimable",
          "type": "uint256"
        }
      ],
      "name": "setClaimable",
      "outputs": [],
      "stateMutability": "nonpayable",
      "type": "function"
    },
    {
      "inputs": [
        {
          "internalType": "uint256",
          "name": "_possumPrice",
          "type": "uint256"
        }
      ],
      "name": "setPossumPrice",
      "outputs": [],
      "stateMutability": "nonpayable",
      "type": "function"
    },
    {
      "inputs": [
        {
          "internalType": "address",
          "name": "trash",
          "type": "address"
        }
      ],
      "name": "setTrash",
      "outputs": [],
      "stateMutability": "nonpayable",
      "type": "function"
    },
    {
      "inputs": [
        {
          "internalType": "bytes4",
          "name": "interfaceId",
          "type": "bytes4"
        }
      ],
      "name": "supportsInterface",
      "outputs": [
        {
          "internalType": "bool",
          "name": "",
          "type": "bool"
        }
      ],
      "stateMutability": "view",
      "type": "function"
    },
    {
      "inputs": [],
      "name": "symbol",
      "outputs": [
        {
          "internalType": "string",
          "name": "",
          "type": "string"
        }
      ],
      "stateMutability": "view",
      "type": "function"
    },
    {
      "inputs": [
        {
          "internalType": "uint256",
          "name": "index",
          "type": "uint256"
        }
      ],
      "name": "tokenByIndex",
      "outputs": [
        {
          "internalType": "uint256",
          "name": "",
          "type": "uint256"
        }
      ],
      "stateMutability": "view",
      "type": "function"
    },
    {
      "inputs": [
        {
          "internalType": "address",
          "name": "owner",
          "type": "address"
        },
        {
          "internalType": "uint256",
          "name": "index",
          "type": "uint256"
        }
      ],
      "name": "tokenOfOwnerByIndex",
      "outputs": [
        {
          "internalType": "uint256",
          "name": "",
          "type": "uint256"
        }
      ],
      "stateMutability": "view",
      "type": "function"
    },
    {
      "inputs": [
        {
          "internalType": "uint256",
          "name": "tokenId",
          "type": "uint256"
        }
      ],
      "name": "tokenURI",
      "outputs": [
        {
          "internalType": "string",
          "name": "",
          "type": "string"
        }
      ],
      "stateMutability": "view",
      "type": "function"
    },
    {
      "inputs": [],
      "name": "totalPossums",
      "outputs": [
        {
          "internalType": "uint256",
          "name": "",
          "type": "uint256"
        }
      ],
      "stateMutability": "view",
      "type": "function"
    },
    {
      "inputs": [],
      "name": "totalSupply",
      "outputs": [
        {
          "internalType": "uint256",
          "name": "",
          "type": "uint256"
        }
      ],
      "stateMutability": "view",
      "type": "function"
    },
    {
      "inputs": [
        {
          "internalType": "address",
          "name": "from",
          "type": "address"
        },
        {
          "internalType": "address",
          "name": "to",
          "type": "address"
        },
        {
          "internalType": "uint256",
          "name": "tokenId",
          "type": "uint256"
        }
      ],
      "name": "transferFrom",
      "outputs": [],
      "stateMutability": "nonpayable",
      "type": "function"
    },
    {
      "inputs": [
        {
          "internalType": "address",
          "name": "newOwner",
          "type": "address"
        }
      ],
      "name": "transferOwnership",
      "outputs": [],
      "stateMutability": "nonpayable",
      "type": "function"
    },
    {
      "inputs": [],
      "name": "unpause",
      "outputs": [],
      "stateMutability": "nonpayable",
      "type": "function"
    },
    {
      "inputs": [],
      "name": "withdraw",
      "outputs": [],
      "stateMutability": "payable",
      "type": "function"
    },
    {
      "inputs": [
        {
          "internalType": "contract IERC20",
          "name": "token",
          "type": "address"
        },
        {
          "internalType": "uint256",
          "name": "_amount",
          "type": "uint256"
        }
      ],
      "name": "withdrawErc20",
      "outputs": [],
      "stateMutability": "nonpayable",
      "type": "function"
    },
    {
      "stateMutability": "payable",
      "type": "receive"
    }
  ],
  "bytecode": "0x61271060c08181526204e2e06040529060e06204e200803683375050815162000030926014925060200190620001e3565b503480156200003e57600080fd5b50604051620043a2380380620043a28339810160408190526200006191620002f9565b8484848460195484846040518060400160405280600d81526020016c547261736820506f7373756d7360981b8152506040518060400160405280600581526020016454504f535360d81b8152508160009080519060200190620000c692919062000233565b508051620000dc90600190602084019062000233565b505050620000f9620000f36200018d60201b60201c565b62000191565b600c805460ff191690556001600160a01b0391821660a052811660805260109390935550600f80546001600160a01b0319169490921693909317905550600e55601689905560158890558651620001589060189060208a019062000233565b506019959095555050601b80546001600160a01b0319166001600160a01b039094169390931790925550620004829350505050565b3390565b600780546001600160a01b038381166001600160a01b0319831681179093556040519116919082907f8be0079c531659141344cd1fd0a4f28419497f9722a3daafe3b4186f6b6457e090600090a35050565b82805482825590600052602060002090810192821562000221579160200282015b828111156200022157825182559160200191906001019062000204565b506200022f929150620002af565b5090565b828054620002419062000445565b90600052602060002090601f01602090048101928262000265576000855562000221565b82601f106200028057805160ff191683800117855562000221565b828001600101855582156200022157918201828111156200022157825182559160200191906001019062000204565b5b808211156200022f5760008155600101620002b0565b634e487b7160e01b600052604160045260246000fd5b80516001600160a01b0381168114620002f457600080fd5b919050565b60008060008060008060008060006101208a8c0312156200031957600080fd5b895160208b015160408c0151919a5098506001600160401b03808211156200034057600080fd5b818c0191508c601f8301126200035557600080fd5b8151818111156200036a576200036a620002c6565b604051601f8201601f19908116603f01168101908382118183101715620003955762000395620002c6565b816040528281528f6020848701011115620003af57600080fd5b600093505b82841015620003d7576020848601015160208583010152602084019350620003b4565b82841115620003ea576000602084830101525b809b50505050505060608a015195506200040760808b01620002dc565b94506200041760a08b01620002dc565b935060c08a0151925060e08a01519150620004366101008b01620002dc565b90509295985092959850929598565b600181811c908216806200045a57607f821691505b602082108114156200047c57634e487b7160e01b600052602260045260246000fd5b50919050565b60805160a051613eec620004b6600039600081816118d70152613127015260008181612c4701526130f80152613eec6000f3fe60806040526004361061038f5760003560e01c806384511aff116101dc578063b88d4fde11610102578063dca77284116100a0578063e985e9c51161006f578063e985e9c5146109a6578063ead17506146109ef578063eb6ad24e14610a04578063f2fde38b14610a1957600080fd5b8063dca772841461092f578063ddca3f431461094f578063de166edc14610965578063e4564d281461098657600080fd5b8063c87b56dd116100dc578063c87b56dd146108d0578063cc6bbd65146108f0578063cdbfc95014610905578063d547cfb71461091a57600080fd5b8063b88d4fde14610876578063bd1f4b5214610896578063be374b7a146108b657600080fd5b806395d89b411161017a578063ace6f90c11610149578063ace6f90c14610817578063ae713d2a14610837578063b031b35b1461084c578063b37cb09d1461086157600080fd5b806395d89b41146107b457806396880d8b146107c95780639b48f484146107df578063a22cb465146107f757600080fd5b806388cafa4e116101b657806388cafa4e146107415780638da5cb5b14610756578063911686141461077457806394985ddd1461079457600080fd5b806384511aff146107025780638456cb59146107175780638481de5f1461072c57600080fd5b80633ccfd60b116102c15780635b46a8f21161025f57806370a082311161022e57806370a082311461068b578063715018a6146106ab578063723bcc13146106c05780637fd3352e146106d557600080fd5b80635b46a8f2146106275780635c975abb1461063d57806361728f39146106555780636352211e1461066b57600080fd5b806342842e0e1161029b57806342842e0e1461059b5780634f6ccce7146105bb57806350f257e1146105db578063551a82cf1461061157600080fd5b80633ccfd60b146105695780633f4ba83a14610571578063416c585d1461058657600080fd5b806312065fe01161032e57806325554fb11161030857806325554fb1146104f45780632f745c591461050957806330176e1314610529578063360131891461054957600080fd5b806312065fe0146104a257806318160ddd146104bf57806323b872dd146104d457600080fd5b8063081812fc1161036a578063081812fc14610407578063095ea7b31461043f5780630dca60821461045f578063102611461461047f57600080fd5b806261b0ec1461039b57806301ffc9a7146103b057806306fdde03146103e557600080fd5b3661039657005b600080fd5b6103ae6103a93660046137c1565b610a39565b005b3480156103bc57600080fd5b506103d06103cb3660046137f0565b610e4f565b60405190151581526020015b60405180910390f35b3480156103f157600080fd5b506103fa610e60565b6040516103dc9190613865565b34801561041357600080fd5b506104276104223660046137c1565b610ef2565b6040516001600160a01b0390911681526020016103dc565b34801561044b57600080fd5b506103ae61045a36600461388d565b610f7a565b34801561046b57600080fd5b506103ae61047a3660046138b9565b611090565b34801561048b57600080fd5b5060135461010090046001600160a01b0316610427565b3480156104ae57600080fd5b50475b6040519081526020016103dc565b3480156104cb57600080fd5b506017546104b1565b3480156104e057600080fd5b506103ae6104ef3660046138db565b6110f7565b34801561050057600080fd5b50601a546104b1565b34801561051557600080fd5b506104b161052436600461388d565b611128565b34801561053557600080fd5b506103ae6105443660046139a8565b6111be565b34801561055557600080fd5b50601b54610427906001600160a01b031681565b6103ae6111ff565b34801561057d57600080fd5b506103ae6112d5565b34801561059257600080fd5b506103ae611309565b3480156105a757600080fd5b506103ae6105b63660046138db565b611516565b3480156105c757600080fd5b506104b16105d63660046137c1565b611531565b3480156105e757600080fd5b506104b16105f63660046139f1565b6001600160a01b03166000908152601d602052604090205490565b34801561061d57600080fd5b506104b160125481565b34801561063357600080fd5b506104b161271081565b34801561064957600080fd5b50600c5460ff166103d0565b34801561066157600080fd5b506104b160105481565b34801561067757600080fd5b506104276106863660046137c1565b6115c4565b34801561069757600080fd5b506104b16106a63660046139f1565b61163b565b3480156106b757600080fd5b506103ae6116c2565b3480156106cc57600080fd5b506016546104b1565b3480156106e157600080fd5b506106f56106f03660046139f1565b6116f6565b6040516103dc9190613a0e565b34801561070e57600080fd5b506104b1603481565b34801561072357600080fd5b506103ae611848565b34801561073857600080fd5b506014546104b1565b34801561074d57600080fd5b506012546104b1565b34801561076257600080fd5b506007546001600160a01b0316610427565b34801561078057600080fd5b506103ae61078f3660046139f1565b61187a565b3480156107a057600080fd5b506103ae6107af3660046138b9565b6118cc565b3480156107c057600080fd5b506103fa61194e565b3480156107d557600080fd5b506104b160115481565b3480156107eb57600080fd5b5060135460ff166103d0565b34801561080357600080fd5b506103ae610812366004613a60565b61195d565b34801561082357600080fd5b506103ae6108323660046137c1565b611968565b34801561084357600080fd5b506103ae611997565b34801561085857600080fd5b506103ae6119ef565b34801561086d57600080fd5b506019546104b1565b34801561088257600080fd5b506103ae610891366004613a99565b611c19565b3480156108a257600080fd5b506103ae6108b136600461388d565b611c4b565b3480156108c257600080fd5b506013546103d09060ff1681565b3480156108dc57600080fd5b506103fa6108eb3660046137c1565b611db0565b3480156108fc57600080fd5b506127106104b1565b34801561091157600080fd5b506103d0611dbb565b34801561092657600080fd5b506103fa611e8d565b34801561093b57600080fd5b506103ae61094a3660046137c1565b611e9c565b34801561095b57600080fd5b506104b1600e5481565b34801561097157600080fd5b506013546103d090600160a81b900460ff1681565b34801561099257600080fd5b506103ae6109a13660046137c1565b611ecb565b3480156109b257600080fd5b506103d06109c1366004613b19565b6001600160a01b03918216600090815260056020908152604080832093909416825291909152205460ff1690565b3480156109fb57600080fd5b506015546104b1565b348015610a1057600080fd5b506011546104b1565b348015610a2557600080fd5b506103ae610a343660046139f1565b611fd6565b60155415801590610a4c57504260155411155b610a915760405162461bcd60e51b8152602060048201526011602482015270596f752061726520746f6f206561726c7960781b60448201526064015b60405180910390fd5b601b54604080516375b5692760e11b815290516000926001600160a01b03169163eb6ad24e9160048083019260209291908290030181865afa158015610adb573d6000803e3d6000fd5b505050506040513d601f19601f82011682018060405250810190610aff9190613b47565b90506000601b60009054906101000a90046001600160a01b03166001600160a01b0316638481de5f6040518163ffffffff1660e01b8152600401602060405180830381865afa158015610b56573d6000803e3d6000fd5b505050506040513d601f19601f82011682018060405250810190610b7a9190613b47565b905082601654610b8a9190613b76565b341015610beb5760405162461bcd60e51b815260206004820152602960248201527f4e6f7420656e6f75676820457468657220746f207265736572766520746865736044820152686520706f7373756d7360b81b6064820152608401610a88565b60008311610c3b5760405162461bcd60e51b815260206004820152601b60248201527f6e65656420746f206d696e74206174206c656173742031204e465400000000006044820152606401610a88565b336000908152601c6020526040902054603490610c59908590613b95565b1115610ca75760405162461bcd60e51b815260206004820152601f60248201527f596f752063616e6e6f742072657365727665206d6f726520706f7373756d73006044820152606401610a88565b82811015610ce95760405162461bcd60e51b815260206004820152600f60248201526e139bc8141bdcdcdd5b5cc81b19599d608a1b6044820152606401610a88565b601b831115610d335760405162461bcd60e51b815260206004820152601660248201527526b0bc10191b903832b9103a3930b739b0b1ba34b7b760511b6044820152606401610a88565b8115610d905760405162461bcd60e51b815260206004820152602660248201527f6f666673657420616c726561647920656e61637465642c2063616e6e6f74207260448201526565736572766560d01b6064820152608401610a88565b60005b83811015610e49576000610da5612071565b336000908152601d602090815260408220805460018101825590835290822001829055601a805492935090610dd983613bad565b9190505550610e09604051806040016040528060088152602001671c995cd95c9d995960c21b81525033836122dc565b604051819033907f904dcdc411e931497b95b06ddf8f8184815dd3bedc3c7c7cd4aed3ccd30783d890600090a35080610e4181613bad565b915050610d93565b50505050565b6000610e5a82612323565b92915050565b606060008054610e6f90613bc8565b80601f0160208091040260200160405190810160405280929190818152602001828054610e9b90613bc8565b8015610ee85780601f10610ebd57610100808354040283529160200191610ee8565b820191906000526020600020905b815481529060010190602001808311610ecb57829003601f168201915b5050505050905090565b6000610efd82612348565b610f5e5760405162461bcd60e51b815260206004820152602c60248201527f4552433732313a20617070726f76656420717565727920666f72206e6f6e657860448201526b34b9ba32b73a103a37b5b2b760a11b6064820152608401610a88565b506000908152600460205260409020546001600160a01b031690565b6000610f85826115c4565b9050806001600160a01b0316836001600160a01b03161415610ff35760405162461bcd60e51b815260206004820152602160248201527f4552433732313a20617070726f76616c20746f2063757272656e74206f776e656044820152603960f91b6064820152608401610a88565b336001600160a01b038216148061100f575061100f81336109c1565b6110815760405162461bcd60e51b815260206004820152603860248201527f4552433732313a20617070726f76652063616c6c6572206973206e6f74206f7760448201527f6e6572206e6f7220617070726f76656420666f7220616c6c00000000000000006064820152608401610a88565b61108b8383612365565b505050565b60135461010090046001600160a01b031633146110bf5760405162461bcd60e51b8152600401610a8890613bfd565b6110ca826001613b95565b6110d49082613c34565b601483815481106110e7576110e7613c4b565b6000918252602090912001555050565b61110133826123d3565b61111d5760405162461bcd60e51b8152600401610a8890613c61565b61108b8383836124bd565b60006111338361163b565b82106111955760405162461bcd60e51b815260206004820152602b60248201527f455243373231456e756d657261626c653a206f776e657220696e646578206f7560448201526a74206f6620626f756e647360a81b6064820152608401610a88565b506001600160a01b03919091166000908152600860209081526040808320938352929052205490565b6007546001600160a01b031633146111e85760405162461bcd60e51b8152600401610a8890613cb2565b80516111fb906018906020840190613728565b5050565b6007546001600160a01b031633146112295760405162461bcd60e51b8152600401610a8890613cb2565b47600061123e6007546001600160a01b031690565b6001600160a01b03168260405160006040518083038185875af1925050503d8060008114611288576040519150601f19603f3d011682016040523d82523d6000602084013e61128d565b606091505b50509050806111fb5760405162461bcd60e51b81526020600482015260146024820152732330b4b632b2103a379039b2b7321022ba3432b960611b6044820152606401610a88565b6007546001600160a01b031633146112ff5760405162461bcd60e51b8152600401610a8890613cb2565b611307612668565b565b6007546001600160a01b031633146113335760405162461bcd60e51b8152600401610a8890613cb2565b601b5460408051638481de5f60e01b815290516000926001600160a01b031691638481de5f9160048083019260209291908290030181865afa15801561137d573d6000803e3d6000fd5b505050506040513d601f19601f820116820180604052508101906113a19190613b47565b601e5490915060ff16156114055760405162461bcd60e51b815260206004820152602560248201527f596f752063616e206f6e6c79207072656d696e742074686520506f7373756d73604482015264206f6e636560d81b6064820152608401610a88565b60648110156114565760405162461bcd60e51b815260206004820152601d60248201527f4e6f20506f7373756d73206c65667420746f20626520636c61696d65640000006044820152606401610a88565b61147f60405180604001604052806005815260200164105590525360da1b8152508260646126fb565b60005b60648110156114a7576114953382612742565b8061149f81613bad565b915050611482565b50601b54604051631c8ac9a560e31b8152606460048201526001600160a01b039091169063e4564d2890602401600060405180830381600087803b1580156114ee57600080fd5b505af1158015611502573d6000803e3d6000fd5b5050601e805460ff19166001179055505050565b61108b83838360405180602001604052806000815250611c19565b600061153c600a5490565b821061159f5760405162461bcd60e51b815260206004820152602c60248201527f455243373231456e756d657261626c653a20676c6f62616c20696e646578206f60448201526b7574206f6620626f756e647360a01b6064820152608401610a88565b600a82815481106115b2576115b2613c4b565b90600052602060002001549050919050565b6000818152600260205260408120546001600160a01b031680610e5a5760405162461bcd60e51b815260206004820152602960248201527f4552433732313a206f776e657220717565727920666f72206e6f6e657869737460448201526832b73a103a37b5b2b760b91b6064820152608401610a88565b60006001600160a01b0382166116a65760405162461bcd60e51b815260206004820152602a60248201527f4552433732313a2062616c616e636520717565727920666f7220746865207a65604482015269726f206164647265737360b01b6064820152608401610a88565b506001600160a01b031660009081526003602052604090205490565b6007546001600160a01b031633146116ec5760405162461bcd60e51b8152600401610a8890613cb2565b6113076000612876565b6001600160a01b0381166000908152601d602052604090205460609061175e5760405162461bcd60e51b815260206004820152601e60248201527f57616c6c657420686173206e6f20726573657276656420706f7373756d7300006044820152606401610a88565b6001600160a01b0382166000908152601d602052604090205467ffffffffffffffff81111561178f5761178f61391c565b6040519080825280602002602001820160405280156117b8578160200160208202803683370190505b50905060005b6001600160a01b0383166000908152601d6020526040902054811015611842576001600160a01b0383166000908152601d6020526040902080548290811061180857611808613c4b565b906000526020600020015482828151811061182557611825613c4b565b60209081029190910101528061183a81613bad565b9150506117be565b50919050565b6007546001600160a01b031633146118725760405162461bcd60e51b8152600401610a8890613cb2565b6113076128c8565b6007546001600160a01b031633146118a45760405162461bcd60e51b8152600401610a8890613cb2565b601380546001600160a01b0390921661010002610100600160a81b0319909216919091179055565b336001600160a01b037f000000000000000000000000000000000000000000000000000000000000000016146119445760405162461bcd60e51b815260206004820152601f60248201527f4f6e6c7920565246436f6f7264696e61746f722063616e2066756c66696c6c006044820152606401610a88565b6111fb8282612943565b606060018054610e6f90613bc8565b6111fb3383836129bb565b6007546001600160a01b031633146119925760405162461bcd60e51b8152600401610a8890613cb2565b601255565b60135461010090046001600160a01b031633146119c65760405162461bcd60e51b8152600401610a8890613bfd565b60148054806119d7576119d7613ce7565b60019003818190600052602060002001600090559055565b336000908152601d6020526040902054611a4b5760405162461bcd60e51b815260206004820152601c60248201527f796f752068617665206e6f20726573657276656420706f7373756d73000000006044820152606401610a88565b426019541080611a5e5750612710601a54145b611a6757600080fd5b600080601b60009054906101000a90046001600160a01b03166001600160a01b031663eb6ad24e6040518163ffffffff1660e01b8152600401602060405180830381865afa158015611abd573d6000803e3d6000fd5b505050506040513d601f19601f82011682018060405250810190611ae19190613b47565b905080611b305760405162461bcd60e51b815260206004820152601f60248201527f506f7373756d73206e6f7420726561647920746f20626520636c61696d6564006044820152606401610a88565b60005b336000908152601d602052604090205481101561108b57336000908152601d60205260408120805484919084908110611b6e57611b6e613c4b565b9060005260206000200154611b839190613b95565b9050611b926001612710613c34565b811115611bcd57611ba560016064613c34565b611bb26001612710613c34565b611bbc9083613c34565b611bc69190613b95565b9350611bd1565b8093505b611bfc60405180604001604052806008815260200167636c61696d696e6760c01b81525033866122dc565b611c063385612742565b5080611c1181613bad565b915050611b33565b611c2333836123d3565b611c3f5760405162461bcd60e51b8152600401610a8890613c61565b610e4984848484612a8a565b6007546001600160a01b03163314611c755760405162461bcd60e51b8152600401610a8890613cb2565b6040516370a0823160e01b81523060048201526000906001600160a01b038416906370a0823190602401602060405180830381865afa158015611cbc573d6000803e3d6000fd5b505050506040513d601f19601f82011682018060405250810190611ce09190613b47565b11611d3f5760405162461bcd60e51b815260206004820152602960248201527f7468697320636f6e747261637420646f6573206e6f7420636f6e7461696e20746044820152683434b9903a37b5b2b760b91b6064820152608401610a88565b60405163a9059cbb60e01b8152336004820152602481018290526001600160a01b0383169063a9059cbb906044016020604051808303816000875af1158015611d8c573d6000803e3d6000fd5b505050506040513d601f19601f8201168201806040525081019061108b9190613cfd565b6060610e5a82612abd565b6000601154600014611e0f5760405162461bcd60e51b815260206004820152601760248201527f6f666673657420616c72656164792065786563757465640000000000000000006044820152606401610a88565b6014541580611e1f575060125442115b611e6b5760405162461bcd60e51b815260206004820152601960248201527f43616e6e6f742065786563757465206f666673657420796574000000000000006044820152606401610a88565b611e73612c1f565b5050600a6011556013805460ff1916600190811790915590565b606060188054610e6f90613bc8565b6007546001600160a01b03163314611ec65760405162461bcd60e51b8152600401610a8890613cb2565b601655565b60135461010090046001600160a01b03163314611efa5760405162461bcd60e51b8152600401610a8890613bfd565b601354600160a81b900460ff1615611f4c5760405162461bcd60e51b815260206004820152601560248201527463616e206f6e6c79207072656d696e74206f6e636560581b6044820152606401610a88565b60005b81811015611fbf57601454611f6690600190613c34565b60148281548110611f7957611f79613c4b565b6000918252602090912001556014805480611f9657611f96613ce7565b600190038181906000526020600020016000905590558080611fb790613bad565b915050611f4f565b50506013805460ff60a81b1916600160a81b179055565b6007546001600160a01b031633146120005760405162461bcd60e51b8152600401610a8890613cb2565b6001600160a01b0381166120655760405162461bcd60e51b815260206004820152602660248201527f4f776e61626c653a206e6577206f776e657220697320746865207a65726f206160448201526564647265737360d01b6064820152608401610a88565b61206e81612876565b50565b60008061207c612d35565b90506014818154811061209157612091613c4b565b906000526020600020015460001480156120d55750601480546120b690600190613c34565b815481106120c6576120c6613c4b565b90600052602060002001546000145b156121125760145490915081906120ee90600190613c34565b6014828154811061210157612101613c4b565b6000918252602090912001556122b1565b6014818154811061212557612125613c4b565b906000526020600020015460001415801561216a57506014805461214b90600190613c34565b8154811061215b5761215b613c4b565b90600052602060002001546000145b156121a1576014818154811061218257612182613c4b565b9060005260206000200154915060016014805490506120ee9190613c34565b601481815481106121b4576121b4613c4b565b90600052602060002001546000141580156121fa5750601480546121da90600190613c34565b815481106121ea576121ea613c4b565b9060005260206000200154600014155b15612261576014818154811061221257612212613c4b565b90600052602060002001549150601460016014805490506122339190613c34565b8154811061224357612243613c4b565b90600052602060002001546014828154811061210157612101613c4b565b60148054919250829161227690600190613c34565b8154811061228657612286613c4b565b9060005260206000200154601482815481106122a4576122a4613c4b565b6000918252602090912001555b60148054806122c2576122c2613ce7565b600190038181906000526020600020016000905590555090565b61108b8383836040516024016122f493929190613d1a565b60408051601f198184030181529190526020810180516001600160e01b03166307c8121760e01b179052612dc5565b60006001600160e01b0319821663780e9d6360e01b1480610e5a5750610e5a82612de6565b6000908152600260205260409020546001600160a01b0316151590565b600081815260046020526040902080546001600160a01b0319166001600160a01b038416908117909155819061239a826115c4565b6001600160a01b03167f8c5be1e5ebec7d5bd14f71427d1e84f3dd0314c0f7b2291e5b200ac8c7c3b92560405160405180910390a45050565b60006123de82612348565b61243f5760405162461bcd60e51b815260206004820152602c60248201527f4552433732313a206f70657261746f7220717565727920666f72206e6f6e657860448201526b34b9ba32b73a103a37b5b2b760a11b6064820152608401610a88565b600061244a836115c4565b9050806001600160a01b0316846001600160a01b031614806124855750836001600160a01b031661247a84610ef2565b6001600160a01b0316145b806124b557506001600160a01b0380821660009081526005602090815260408083209388168352929052205460ff165b949350505050565b826001600160a01b03166124d0826115c4565b6001600160a01b0316146125385760405162461bcd60e51b815260206004820152602960248201527f4552433732313a207472616e73666572206f6620746f6b656e2074686174206960448201526839903737ba1037bbb760b91b6064820152608401610a88565b6001600160a01b03821661259a5760405162461bcd60e51b8152602060048201526024808201527f4552433732313a207472616e7366657220746f20746865207a65726f206164646044820152637265737360e01b6064820152608401610a88565b6125a5838383612e36565b6125b0600082612365565b6001600160a01b03831660009081526003602052604081208054600192906125d9908490613c34565b90915550506001600160a01b0382166000908152600360205260408120805460019290612607908490613b95565b909155505060008181526002602052604080822080546001600160a01b0319166001600160a01b0386811691821790925591518493918716917fddf252ad1be2c89b69c2b068fc378daa952ba7f163c4a11628f55a4df523b3ef91a4505050565b600c5460ff166126b15760405162461bcd60e51b815260206004820152601460248201527314185d5cd8589b194e881b9bdd081c185d5cd95960621b6044820152606401610a88565b600c805460ff191690557f5db9ee0a495bf2e6ff9c91a7834c1ba4fdd244a5e8aa4e537bd38aeae4b073aa335b6040516001600160a01b03909116815260200160405180910390a1565b61108b83838360405160240161271393929190613d48565b60408051601f198184030181529190526020810180516001600160e01b031663969cdd0360e01b179052612dc5565b61271060175411156127965760405162461bcd60e51b815260206004820152601c60248201527f616c6c20506f7373756d732068617665206265656e206d696e746564000000006044820152606401610a88565b6127a08282612e87565b61283481601880546127b190613bc8565b80601f01602080910402602001604051908101604052809291908181526020018280546127dd90613bc8565b801561282a5780601f106127ff5761010080835404028352916020019161282a565b820191906000526020600020905b81548152906001019060200180831161280d57829003601f168201915b5050505050612ea1565b6017805490600061284483613bad565b90915550506001600160a01b0382166000908152601c6020526040812080549161286d83613bad565b91905055505050565b600780546001600160a01b038381166001600160a01b0319831681179093556040519116919082907f8be0079c531659141344cd1fd0a4f28419497f9722a3daafe3b4186f6b6457e090600090a35050565b600c5460ff161561290e5760405162461bcd60e51b815260206004820152601060248201526f14185d5cd8589b194e881c185d5cd95960821b6044820152606401610a88565b600c805460ff191660011790557f62e78cea01bee320cd4e420270b5ea74000d11b0c9f74754ebdbfc544b05a2586126de3390565b600f546001600160a01b03163314801561295c57508115155b6129a85760405162461bcd60e51b815260206004820181905260248201527f6f6e6c792056524620436f6f7264696e61746f722063616e2066756c66696c6c6044820152606401610a88565b6129b461270f82613d83565b6011555050565b816001600160a01b0316836001600160a01b03161415612a1d5760405162461bcd60e51b815260206004820152601960248201527f4552433732313a20617070726f766520746f2063616c6c6572000000000000006044820152606401610a88565b6001600160a01b03838116600081815260056020908152604080832094871680845294825291829020805460ff191686151590811790915591519182527f17307eab39ab6107e8899845ad3d59bd9653f200f220920489ca2b5937696c31910160405180910390a3505050565b612a958484846124bd565b612aa184848484612f2c565b610e495760405162461bcd60e51b8152600401610a8890613d97565b6060612ac882612348565b612b2e5760405162461bcd60e51b815260206004820152603160248201527f45524337323155524953746f726167653a2055524920717565727920666f72206044820152703737b732bc34b9ba32b73a103a37b5b2b760791b6064820152608401610a88565b60008281526006602052604081208054612b4790613bc8565b80601f0160208091040260200160405190810160405280929190818152602001828054612b7390613bc8565b8015612bc05780601f10612b9557610100808354040283529160200191612bc0565b820191906000526020600020905b815481529060010190602001808311612ba357829003601f168201915b505050505090506000612bd1611e8d565b9050805160001415612be4575092915050565b815115612c16578082604051602001612bfe929190613de9565b60405160208183030381529060405292505050919050565b6124b58461302a565b60004260125410612c2f57600080fd5b600e546040516370a0823160e01b81523060048201527f00000000000000000000000000000000000000000000000000000000000000006001600160a01b0316906370a0823190602401602060405180830381865afa158015612c96573d6000803e3d6000fd5b505050506040513d601f19601f82011682018060405250810190612cba9190613b47565b1015612d225760405162461bcd60e51b815260206004820152603160248201527f4e6f7420656e6f756768204c696e6b2020696e20636f6e747261637420746f2060448201527033b2ba103930b73237b690373ab6b132b960791b6064820152608401610a88565b612d30601054600e546130f4565b905090565b6014546000908190612d48600143613c34565b6040805160208101939093529040908201526bffffffffffffffffffffffff1941606090811b82168184015244607484015233901b16609482015260a80160408051601f198184030181529190528051602090910120601454909150600090600190612db49084613d83565b612dbe9190613c34565b9392505050565b80516a636f6e736f6c652e6c6f67602083016000808483855afa5050505050565b60006001600160e01b031982166380ac58cd60e01b1480612e1757506001600160e01b03198216635b5e139f60e01b145b80610e5a57506301ffc9a760e01b6001600160e01b0319831614610e5a565b600c5460ff1615612e7c5760405162461bcd60e51b815260206004820152601060248201526f14185d5cd8589b194e881c185d5cd95960821b6044820152606401610a88565b61108b838383613270565b6111fb828260405180602001604052806000815250613328565b612eaa82612348565b612f0d5760405162461bcd60e51b815260206004820152602e60248201527f45524337323155524953746f726167653a2055524920736574206f66206e6f6e60448201526d32bc34b9ba32b73a103a37b5b2b760911b6064820152608401610a88565b6000828152600660209081526040909120825161108b92840190613728565b60006001600160a01b0384163b1561301f57604051630a85bd0160e11b81526001600160a01b0385169063150b7a0290612f70903390899088908890600401613e18565b6020604051808303816000875af1925050508015612fab575060408051601f3d908101601f19168201909252612fa891810190613e55565b60015b613005573d808015612fd9576040519150601f19603f3d011682016040523d82523d6000602084013e612fde565b606091505b508051612ffd5760405162461bcd60e51b8152600401610a8890613d97565b805181602001fd5b6001600160e01b031916630a85bd0160e11b1490506124b5565b506001949350505050565b606061303582612348565b6130995760405162461bcd60e51b815260206004820152602f60248201527f4552433732314d657461646174613a2055524920717565727920666f72206e6f60448201526e3732bc34b9ba32b73a103a37b5b2b760891b6064820152608401610a88565b60006130a3611e8d565b905060008151116130c35760405180602001604052806000815250612dbe565b806130cd8461335b565b6040516020016130de929190613de9565b6040516020818303038152906040529392505050565b60007f00000000000000000000000000000000000000000000000000000000000000006001600160a01b0316634000aea07f000000000000000000000000000000000000000000000000000000000000000084866000604051602001613164929190918252602082015260400190565b6040516020818303038152906040526040518463ffffffff1660e01b815260040161319193929190613e72565b6020604051808303816000875af11580156131b0573d6000803e3d6000fd5b505050506040513d601f19601f820116820180604052508101906131d49190613cfd565b506000838152600d6020818152604080842054815180840189905280830186905230606082015260808082018390528351808303909101815260a090910190925281519183019190912093879052919052613230906001613b95565b6000858152600d60205260409020556124b58482604080516020808201949094528082019290925280518083038201815260609092019052805191012090565b6001600160a01b0383166132cb576132c681600a80546000838152600b60205260408120829055600182018355919091527fc65a7bb8d6351c1cf70c95a316cc6a92839c986682d98bc35f958f4883f9d2a80155565b6132ee565b816001600160a01b0316836001600160a01b0316146132ee576132ee8382613459565b6001600160a01b0382166133055761108b816134f6565b826001600160a01b0316826001600160a01b03161461108b5761108b82826135a5565b61333283836135e9565b61333f6000848484612f2c565b61108b5760405162461bcd60e51b8152600401610a8890613d97565b60608161337f5750506040805180820190915260018152600360fc1b602082015290565b8160005b81156133a9578061339381613bad565b91506133a29050600a83613ea2565b9150613383565b60008167ffffffffffffffff8111156133c4576133c461391c565b6040519080825280601f01601f1916602001820160405280156133ee576020820181803683370190505b5090505b84156124b557613403600183613c34565b9150613410600a86613d83565b61341b906030613b95565b60f81b81838151811061343057613430613c4b565b60200101906001600160f81b031916908160001a905350613452600a86613ea2565b94506133f2565b600060016134668461163b565b6134709190613c34565b6000838152600960205260409020549091508082146134c3576001600160a01b03841660009081526008602090815260408083208584528252808320548484528184208190558352600990915290208190555b5060009182526009602090815260408084208490556001600160a01b039094168352600881528383209183525290812055565b600a5460009061350890600190613c34565b6000838152600b6020526040812054600a805493945090928490811061353057613530613c4b565b9060005260206000200154905080600a838154811061355157613551613c4b565b6000918252602080832090910192909255828152600b9091526040808220849055858252812055600a80548061358957613589613ce7565b6001900381819060005260206000200160009055905550505050565b60006135b08361163b565b6001600160a01b039093166000908152600860209081526040808320868452825280832085905593825260099052919091209190915550565b6001600160a01b03821661363f5760405162461bcd60e51b815260206004820181905260248201527f4552433732313a206d696e7420746f20746865207a65726f20616464726573736044820152606401610a88565b61364881612348565b156136955760405162461bcd60e51b815260206004820152601c60248201527f4552433732313a20746f6b656e20616c7265616479206d696e746564000000006044820152606401610a88565b6136a160008383612e36565b6001600160a01b03821660009081526003602052604081208054600192906136ca908490613b95565b909155505060008181526002602052604080822080546001600160a01b0319166001600160a01b03861690811790915590518392907fddf252ad1be2c89b69c2b068fc378daa952ba7f163c4a11628f55a4df523b3ef908290a45050565b82805461373490613bc8565b90600052602060002090601f016020900481019282613756576000855561379c565b82601f1061376f57805160ff191683800117855561379c565b8280016001018555821561379c579182015b8281111561379c578251825591602001919060010190613781565b506137a89291506137ac565b5090565b5b808211156137a857600081556001016137ad565b6000602082840312156137d357600080fd5b5035919050565b6001600160e01b03198116811461206e57600080fd5b60006020828403121561380257600080fd5b8135612dbe816137da565b60005b83811015613828578181015183820152602001613810565b83811115610e495750506000910152565b6000815180845261385181602086016020860161380d565b601f01601f19169290920160200192915050565b602081526000612dbe6020830184613839565b6001600160a01b038116811461206e57600080fd5b600080604083850312156138a057600080fd5b82356138ab81613878565b946020939093013593505050565b600080604083850312156138cc57600080fd5b50508035926020909101359150565b6000806000606084860312156138f057600080fd5b83356138fb81613878565b9250602084013561390b81613878565b929592945050506040919091013590565b634e487b7160e01b600052604160045260246000fd5b600067ffffffffffffffff8084111561394d5761394d61391c565b604051601f8501601f19908116603f011681019082821181831017156139755761397561391c565b8160405280935085815286868601111561398e57600080fd5b858560208301376000602087830101525050509392505050565b6000602082840312156139ba57600080fd5b813567ffffffffffffffff8111156139d157600080fd5b8201601f810184136139e257600080fd5b6124b584823560208401613932565b600060208284031215613a0357600080fd5b8135612dbe81613878565b6020808252825182820181905260009190848201906040850190845b81811015613a4657835183529284019291840191600101613a2a565b50909695505050505050565b801515811461206e57600080fd5b60008060408385031215613a7357600080fd5b8235613a7e81613878565b91506020830135613a8e81613a52565b809150509250929050565b60008060008060808587031215613aaf57600080fd5b8435613aba81613878565b93506020850135613aca81613878565b925060408501359150606085013567ffffffffffffffff811115613aed57600080fd5b8501601f81018713613afe57600080fd5b613b0d87823560208401613932565b91505092959194509250565b60008060408385031215613b2c57600080fd5b8235613b3781613878565b91506020830135613a8e81613878565b600060208284031215613b5957600080fd5b5051919050565b634e487b7160e01b600052601160045260246000fd5b6000816000190483118215151615613b9057613b90613b60565b500290565b60008219821115613ba857613ba8613b60565b500190565b6000600019821415613bc157613bc1613b60565b5060010190565b600181811c90821680613bdc57607f821691505b6020821081141561184257634e487b7160e01b600052602260045260246000fd5b60208082526018908201527f6f6e6c792054726173682063616e2063616c6c20746869730000000000000000604082015260600190565b600082821015613c4657613c46613b60565b500390565b634e487b7160e01b600052603260045260246000fd5b60208082526031908201527f4552433732313a207472616e736665722063616c6c6572206973206e6f74206f6040820152701ddb995c881b9bdc88185c1c1c9bdd9959607a1b606082015260800190565b6020808252818101527f4f776e61626c653a2063616c6c6572206973206e6f7420746865206f776e6572604082015260600190565b634e487b7160e01b600052603160045260246000fd5b600060208284031215613d0f57600080fd5b8151612dbe81613a52565b606081526000613d2d6060830186613839565b6001600160a01b039490941660208301525060400152919050565b606081526000613d5b6060830186613839565b60208301949094525060400152919050565b634e487b7160e01b600052601260045260246000fd5b600082613d9257613d92613d6d565b500690565b60208082526032908201527f4552433732313a207472616e7366657220746f206e6f6e20455243373231526560408201527131b2b4bb32b91034b6b83632b6b2b73a32b960711b606082015260800190565b60008351613dfb81846020880161380d565b835190830190613e0f81836020880161380d565b01949350505050565b6001600160a01b0385811682528416602082015260408101839052608060608201819052600090613e4b90830184613839565b9695505050505050565b600060208284031215613e6757600080fd5b8151612dbe816137da565b60018060a01b0384168152826020820152606060408201526000613e996060830184613839565b95945050505050565b600082613eb157613eb1613d6d565b50049056fea2646970667358221220ecdca63e28359ee3e199e3df27ea812e52e1619f8077ffad4e7dae8f5a83ff8c64736f6c634300080a0033",
  "linkReferences": {},
  "deployedLinkReferences": {}
}