{
  "_format": "hh-sol-artifact-1",
  "contractName": "TrashPossums",
  "sourceName": "contracts/TrashPossums.sol",
  "abi": [
    {
      "inputs": [],
      "stateMutability": "nonpayable",
      "type": "constructor"
    },
    {
      "anonymous": false,
      "inputs": [
        {
          "indexed": true,
          "internalType": "address",
          "name": "owner",
          "type": "address"
        },
        {
          "indexed": true,
          "internalType": "address",
          "name": "approved",
          "type": "address"
        },
        {
          "indexed": true,
          "internalType": "uint256",
          "name": "tokenId",
          "type": "uint256"
        }
      ],
      "name": "Approval",
      "type": "event"
    },
    {
      "anonymous": false,
      "inputs": [
        {
          "indexed": true,
          "internalType": "address",
          "name": "owner",
          "type": "address"
        },
        {
          "indexed": true,
          "internalType": "address",
          "name": "operator",
          "type": "address"
        },
        {
          "indexed": false,
          "internalType": "bool",
          "name": "approved",
          "type": "bool"
        }
      ],
      "name": "ApprovalForAll",
      "type": "event"
    },
    {
      "anonymous": false,
      "inputs": [
        {
          "indexed": true,
          "internalType": "address",
          "name": "mintedTo",
          "type": "address"
        },
        {
          "indexed": true,
          "internalType": "uint256",
          "name": "tokenId",
          "type": "uint256"
        }
      ],
      "name": "Mint",
      "type": "event"
    },
    {
      "anonymous": false,
      "inputs": [
        {
          "indexed": true,
          "internalType": "address",
          "name": "previousOwner",
          "type": "address"
        },
        {
          "indexed": true,
          "internalType": "address",
          "name": "newOwner",
          "type": "address"
        }
      ],
      "name": "OwnershipTransferred",
      "type": "event"
    },
    {
      "anonymous": false,
      "inputs": [
        {
          "indexed": false,
          "internalType": "address",
          "name": "account",
          "type": "address"
        }
      ],
      "name": "Paused",
      "type": "event"
    },
    {
      "anonymous": false,
      "inputs": [
        {
          "indexed": false,
          "internalType": "uint256",
          "name": "tokenId",
          "type": "uint256"
        }
      ],
      "name": "TokenClaimed",
      "type": "event"
    },
    {
      "anonymous": false,
      "inputs": [
        {
          "indexed": true,
          "internalType": "address",
          "name": "from",
          "type": "address"
        },
        {
          "indexed": true,
          "internalType": "address",
          "name": "to",
          "type": "address"
        },
        {
          "indexed": true,
          "internalType": "uint256",
          "name": "tokenId",
          "type": "uint256"
        }
      ],
      "name": "Transfer",
      "type": "event"
    },
    {
      "anonymous": false,
      "inputs": [
        {
          "indexed": false,
          "internalType": "address",
          "name": "account",
          "type": "address"
        }
      ],
      "name": "Unpaused",
      "type": "event"
    },
    {
      "inputs": [
        {
          "internalType": "address",
          "name": "to",
          "type": "address"
        },
        {
          "internalType": "uint256",
          "name": "tokenId",
          "type": "uint256"
        }
      ],
      "name": "approve",
      "outputs": [],
      "stateMutability": "nonpayable",
      "type": "function"
    },
    {
      "inputs": [
        {
          "internalType": "address",
          "name": "addr1",
          "type": "address"
        }
      ],
      "name": "balanceOf",
      "outputs": [
        {
          "internalType": "uint256",
          "name": "",
          "type": "uint256"
        }
      ],
      "stateMutability": "view",
      "type": "function"
    },
    {
      "inputs": [],
      "name": "baseTokenURI",
      "outputs": [
        {
          "internalType": "string",
          "name": "",
          "type": "string"
        }
      ],
      "stateMutability": "view",
      "type": "function"
    },
    {
      "inputs": [
        {
          "internalType": "uint256",
          "name": "tokenId",
          "type": "uint256"
        }
      ],
      "name": "getApproved",
      "outputs": [
        {
          "internalType": "address",
          "name": "",
          "type": "address"
        }
      ],
      "stateMutability": "view",
      "type": "function"
    },
    {
      "inputs": [],
      "name": "getAvailablePossums",
      "outputs": [
        {
          "internalType": "uint256",
          "name": "",
          "type": "uint256"
        }
      ],
      "stateMutability": "view",
      "type": "function"
    },
    {
      "inputs": [],
      "name": "getMintingStartDate",
      "outputs": [
        {
          "internalType": "uint256",
          "name": "",
          "type": "uint256"
        }
      ],
      "stateMutability": "view",
      "type": "function"
    },
    {
      "inputs": [],
      "name": "getpossumPrice",
      "outputs": [
        {
          "internalType": "uint256",
          "name": "",
          "type": "uint256"
        }
      ],
      "stateMutability": "view",
      "type": "function"
    },
    {
      "inputs": [
        {
          "internalType": "address",
          "name": "owner",
          "type": "address"
        },
        {
          "internalType": "address",
          "name": "operator",
          "type": "address"
        }
      ],
      "name": "isApprovedForAll",
      "outputs": [
        {
          "internalType": "bool",
          "name": "",
          "type": "bool"
        }
      ],
      "stateMutability": "view",
      "type": "function"
    },
    {
      "inputs": [],
      "name": "maxPossumsPerWallet",
      "outputs": [
        {
          "internalType": "uint256",
          "name": "",
          "type": "uint256"
        }
      ],
      "stateMutability": "view",
      "type": "function"
    },
    {
      "inputs": [
        {
          "internalType": "uint256",
          "name": "amount",
          "type": "uint256"
        }
      ],
      "name": "mintPossums",
      "outputs": [],
      "stateMutability": "payable",
      "type": "function"
    },
    {
      "inputs": [],
      "name": "name",
      "outputs": [
        {
          "internalType": "string",
          "name": "",
          "type": "string"
        }
      ],
      "stateMutability": "view",
      "type": "function"
    },
    {
      "inputs": [],
      "name": "owner",
      "outputs": [
        {
          "internalType": "address",
          "name": "",
          "type": "address"
        }
      ],
      "stateMutability": "view",
      "type": "function"
    },
    {
      "inputs": [
        {
          "internalType": "uint256",
          "name": "tokenId",
          "type": "uint256"
        }
      ],
      "name": "ownerOf",
      "outputs": [
        {
          "internalType": "address",
          "name": "",
          "type": "address"
        }
      ],
      "stateMutability": "view",
      "type": "function"
    },
    {
      "inputs": [],
      "name": "pause",
      "outputs": [],
      "stateMutability": "nonpayable",
      "type": "function"
    },
    {
      "inputs": [],
      "name": "paused",
      "outputs": [
        {
          "internalType": "bool",
          "name": "",
          "type": "bool"
        }
      ],
      "stateMutability": "view",
      "type": "function"
    },
    {
      "inputs": [],
      "name": "premintPossums",
      "outputs": [],
      "stateMutability": "nonpayable",
      "type": "function"
    },
    {
      "inputs": [],
      "name": "renounceOwnership",
      "outputs": [],
      "stateMutability": "nonpayable",
      "type": "function"
    },
    {
      "inputs": [
        {
          "internalType": "address",
          "name": "from",
          "type": "address"
        },
        {
          "internalType": "address",
          "name": "to",
          "type": "address"
        },
        {
          "internalType": "uint256",
          "name": "tokenId",
          "type": "uint256"
        }
      ],
      "name": "safeTransferFrom",
      "outputs": [],
      "stateMutability": "nonpayable",
      "type": "function"
    },
    {
      "inputs": [
        {
          "internalType": "address",
          "name": "from",
          "type": "address"
        },
        {
          "internalType": "address",
          "name": "to",
          "type": "address"
        },
        {
          "internalType": "uint256",
          "name": "tokenId",
          "type": "uint256"
        },
        {
          "internalType": "bytes",
          "name": "_data",
          "type": "bytes"
        }
      ],
      "name": "safeTransferFrom",
      "outputs": [],
      "stateMutability": "nonpayable",
      "type": "function"
    },
    {
      "inputs": [
        {
          "internalType": "address",
          "name": "operator",
          "type": "address"
        },
        {
          "internalType": "bool",
          "name": "approved",
          "type": "bool"
        }
      ],
      "name": "setApprovalForAll",
      "outputs": [],
      "stateMutability": "nonpayable",
      "type": "function"
    },
    {
      "inputs": [
        {
          "internalType": "string",
          "name": "_uri",
          "type": "string"
        }
      ],
      "name": "setBaseTokenURI",
      "outputs": [],
      "stateMutability": "nonpayable",
      "type": "function"
    },
    {
      "inputs": [
        {
          "internalType": "uint256",
          "name": "_possumPrice",
          "type": "uint256"
        }
      ],
      "name": "setPossumPrice",
      "outputs": [],
      "stateMutability": "nonpayable",
      "type": "function"
    },
    {
      "inputs": [
        {
          "internalType": "uint256",
          "name": "tokenId",
          "type": "uint256"
        },
        {
          "internalType": "string",
          "name": "_ipfsUri",
          "type": "string"
        }
      ],
      "name": "setPossumUri",
      "outputs": [],
      "stateMutability": "nonpayable",
      "type": "function"
    },
    {
      "inputs": [
        {
          "internalType": "bytes4",
          "name": "interfaceId",
          "type": "bytes4"
        }
      ],
      "name": "supportsInterface",
      "outputs": [
        {
          "internalType": "bool",
          "name": "",
          "type": "bool"
        }
      ],
      "stateMutability": "view",
      "type": "function"
    },
    {
      "inputs": [],
      "name": "symbol",
      "outputs": [
        {
          "internalType": "string",
          "name": "",
          "type": "string"
        }
      ],
      "stateMutability": "view",
      "type": "function"
    },
    {
      "inputs": [
        {
          "internalType": "uint256",
          "name": "index",
          "type": "uint256"
        }
      ],
      "name": "tokenByIndex",
      "outputs": [
        {
          "internalType": "uint256",
          "name": "",
          "type": "uint256"
        }
      ],
      "stateMutability": "view",
      "type": "function"
    },
    {
      "inputs": [
        {
          "internalType": "address",
          "name": "owner",
          "type": "address"
        },
        {
          "internalType": "uint256",
          "name": "index",
          "type": "uint256"
        }
      ],
      "name": "tokenOfOwnerByIndex",
      "outputs": [
        {
          "internalType": "uint256",
          "name": "",
          "type": "uint256"
        }
      ],
      "stateMutability": "view",
      "type": "function"
    },
    {
      "inputs": [
        {
          "internalType": "uint256",
          "name": "tokenId",
          "type": "uint256"
        }
      ],
      "name": "tokenURI",
      "outputs": [
        {
          "internalType": "string",
          "name": "",
          "type": "string"
        }
      ],
      "stateMutability": "view",
      "type": "function"
    },
    {
      "inputs": [],
      "name": "totalPossums",
      "outputs": [
        {
          "internalType": "uint256",
          "name": "",
          "type": "uint256"
        }
      ],
      "stateMutability": "view",
      "type": "function"
    },
    {
      "inputs": [],
      "name": "totalSupply",
      "outputs": [
        {
          "internalType": "uint256",
          "name": "",
          "type": "uint256"
        }
      ],
      "stateMutability": "view",
      "type": "function"
    },
    {
      "inputs": [
        {
          "internalType": "address",
          "name": "from",
          "type": "address"
        },
        {
          "internalType": "address",
          "name": "to",
          "type": "address"
        },
        {
          "internalType": "uint256",
          "name": "tokenId",
          "type": "uint256"
        }
      ],
      "name": "transferFrom",
      "outputs": [],
      "stateMutability": "nonpayable",
      "type": "function"
    },
    {
      "inputs": [
        {
          "internalType": "address",
          "name": "newOwner",
          "type": "address"
        }
      ],
      "name": "transferOwnership",
      "outputs": [],
      "stateMutability": "nonpayable",
      "type": "function"
    },
    {
      "inputs": [],
      "name": "unpause",
      "outputs": [],
      "stateMutability": "nonpayable",
      "type": "function"
    },
    {
      "inputs": [],
      "name": "withdraw",
      "outputs": [],
      "stateMutability": "nonpayable",
      "type": "function"
    },
    {
      "stateMutability": "payable",
      "type": "receive"
    }
  ],
  "bytecode": "0x6361323870600d5566f8b0a10e470000600e5560646010556011805460ff1916905561010060405260446080818152906200318d60a03980516200004c916012916020909101906200017d565b50604080516127108082526204e220820190925290602082016204e2008036833750508151620000849260149250602001906200020c565b506017805460ff191690553480156200009c57600080fd5b50604080518082018252600d81526c547261736820506f7373756d7360981b60208083019182528351808501909452600584526454504f535360d81b908401528151919291620000ef916000916200017d565b508051620001059060019060208401906200017d565b5050600b805460ff19169055506200011d3362000123565b6200029d565b600b80546001600160a01b03838116610100818102610100600160a81b031985161790945560405193909204169182907f8be0079c531659141344cd1fd0a4f28419497f9722a3daafe3b4186f6b6457e090600090a35050565b8280546200018b9062000260565b90600052602060002090601f016020900481019282620001af5760008555620001fa565b82601f10620001ca57805160ff1916838001178555620001fa565b82800160010185558215620001fa579182015b82811115620001fa578251825591602001919060010190620001dd565b506200020892915062000249565b5090565b828054828255906000526020600020908101928215620001fa5791602002820182811115620001fa578251825591602001919060010190620001dd565b5b808211156200020857600081556001016200024a565b600181811c908216806200027557607f821691505b602082108114156200029757634e487b7160e01b600052602260045260246000fd5b50919050565b612ee080620002ad6000396000f3fe6080604052600436106101fd5760003560e01c8063671099381161010d578063a22cb465116100a0578063dca772841161006f578063dca7728414610565578063e985e9c514610585578063ead17506146105ce578063f2fde38b146105e3578063f9f346f51461060357600080fd5b8063a22cb465146104f0578063b88d4fde14610510578063c87b56dd14610530578063d547cfb71461055057600080fd5b80638456cb59116100dc5780638456cb591461048e5780638481de5f146104a35780638da5cb5b146104b857806395d89b41146104db57600080fd5b8063671099381461041b57806370a082311461042e578063715018a61461046457806384511aff1461047957600080fd5b80633ccfd60b116101905780634639dba31161015f5780634639dba3146103985780634f6ccce7146103ad5780635b46a8f2146103cd5780635c975abb146103e35780636352211e146103fb57600080fd5b80633ccfd60b146103395780633f4ba83a1461034e578063416c585d1461036357806342842e0e1461037857600080fd5b806318160ddd116101cc57806318160ddd146102ba57806323b872dd146102d95780632f745c59146102f957806330176e131461031957600080fd5b806301ffc9a71461020957806306fdde031461023e578063081812fc14610260578063095ea7b31461029857600080fd5b3661020457005b600080fd5b34801561021557600080fd5b50610229610224366004612a6a565b610623565b60405190151581526020015b60405180910390f35b34801561024a57600080fd5b50610253610634565b6040516102359190612c0f565b34801561026c57600080fd5b5061028061027b366004612ae8565b6106c6565b6040516001600160a01b039091168152602001610235565b3480156102a457600080fd5b506102b86102b3366004612a41565b610753565b005b3480156102c657600080fd5b50600f545b604051908152602001610235565b3480156102e557600080fd5b506102b86102f4366004612953565b610869565b34801561030557600080fd5b506102cb610314366004612a41565b61089a565b34801561032557600080fd5b506102b8610334366004612aa2565b610930565b34801561034557600080fd5b506102b8610977565b34801561035a57600080fd5b506102b86109d6565b34801561036f57600080fd5b506102b8610a10565b34801561038457600080fd5b506102b8610393366004612953565b610bba565b3480156103a457600080fd5b50600e546102cb565b3480156103b957600080fd5b506102cb6103c8366004612ae8565b610bd5565b3480156103d957600080fd5b506102cb61271081565b3480156103ef57600080fd5b50600b5460ff16610229565b34801561040757600080fd5b50610280610416366004612ae8565b610c76565b6102b8610429366004612ae8565b610ced565b34801561043a57600080fd5b506102cb610449366004612907565b6001600160a01b031660009081526013602052604090205490565b34801561047057600080fd5b506102b8610f3d565b34801561048557600080fd5b506102cb601b81565b34801561049a57600080fd5b506102b8610f77565b3480156104af57600080fd5b506014546102cb565b3480156104c457600080fd5b50600b5461010090046001600160a01b0316610280565b3480156104e757600080fd5b50610253610faf565b3480156104fc57600080fd5b506102b861050b366004612a07565b610fbe565b34801561051c57600080fd5b506102b861052b36600461298e565b610fc9565b34801561053c57600080fd5b5061025361054b366004612ae8565b611001565b34801561055c57600080fd5b5061025361100c565b34801561057157600080fd5b506102b8610580366004612ae8565b61101b565b34801561059157600080fd5b506102296105a0366004612921565b6001600160a01b03918216600090815260056020908152604080832093909416825291909152205460ff1690565b3480156105da57600080fd5b50600d546102cb565b3480156105ef57600080fd5b506102b86105fe366004612907565b611050565b34801561060f57600080fd5b506102b861061e366004612b00565b6110f1565b600061062e826111b4565b92915050565b60606000805461064390612de8565b80601f016020809104026020016040519081016040528092919081815260200182805461066f90612de8565b80156106bc5780601f10610691576101008083540402835291602001916106bc565b820191906000526020600020905b81548152906001019060200180831161069f57829003601f168201915b5050505050905090565b60006106d1826111d9565b6107375760405162461bcd60e51b815260206004820152602c60248201527f4552433732313a20617070726f76656420717565727920666f72206e6f6e657860448201526b34b9ba32b73a103a37b5b2b760a11b60648201526084015b60405180910390fd5b506000908152600460205260409020546001600160a01b031690565b600061075e82610c76565b9050806001600160a01b0316836001600160a01b031614156107cc5760405162461bcd60e51b815260206004820152602160248201527f4552433732313a20617070726f76616c20746f2063757272656e74206f776e656044820152603960f91b606482015260840161072e565b336001600160a01b03821614806107e857506107e881336105a0565b61085a5760405162461bcd60e51b815260206004820152603860248201527f4552433732313a20617070726f76652063616c6c6572206973206e6f74206f7760448201527f6e6572206e6f7220617070726f76656420666f7220616c6c0000000000000000606482015260840161072e565b61086483836111f6565b505050565b6108733382611264565b61088f5760405162461bcd60e51b815260040161072e90612d28565b61086483838361134e565b60006108a5836114f9565b82106109075760405162461bcd60e51b815260206004820152602b60248201527f455243373231456e756d657261626c653a206f776e657220696e646578206f7560448201526a74206f6620626f756e647360a81b606482015260840161072e565b506001600160a01b03919091166000908152600660209081526040808320938352929052205490565b600b546001600160a01b036101009091041633146109605760405162461bcd60e51b815260040161072e90612cf3565b805161097390601290602084019061276c565b5050565b600b546001600160a01b036101009091041633146109a75760405162461bcd60e51b815260040161072e90612cf3565b6040514790339082156108fc029083906000818181858888f19350505050158015610973573d6000803e3d6000fd5b600b546001600160a01b03610100909104163314610a065760405162461bcd60e51b815260040161072e90612cf3565b610a0e611580565b565b600b546001600160a01b03610100909104163314610a405760405162461bcd60e51b815260040161072e90612cf3565b60115460ff1615610aa15760405162461bcd60e51b815260206004820152602560248201527f596f752063616e206f6e6c79207072656d696e742074686520506f7373756d73604482015264206f6e636560d81b606482015260840161072e565b6010546014541015610af55760405162461bcd60e51b815260206004820152601d60248201527f4e6f20506f7373756d73206c65667420746f20626520636c61696d6564000000604482015260640161072e565b601054600f6000828254610b099190612d79565b90915550600090505b601054811015610baa57610b263382611613565b601454610b3590600190612da5565b60148281548110610b5657634e487b7160e01b600052603260045260246000fd5b6000918252602090912001556014805480610b8157634e487b7160e01b600052603160045260246000fd5b600190038181906000526020600020016000905590558080610ba290612e23565b915050610b12565b506011805460ff19166001179055565b61086483838360405180602001604052806000815250610fc9565b6000610be060085490565b8210610c435760405162461bcd60e51b815260206004820152602c60248201527f455243373231456e756d657261626c653a20676c6f62616c20696e646578206f60448201526b7574206f6620626f756e647360a01b606482015260840161072e565b60088281548110610c6457634e487b7160e01b600052603260045260246000fd5b90600052602060002001549050919050565b6000818152600260205260408120546001600160a01b03168061062e5760405162461bcd60e51b815260206004820152602960248201527f4552433732313a206f776e657220717565727920666f72206e6f6e657869737460448201526832b73a103a37b5b2b760b91b606482015260840161072e565b323314610d555760405162461bcd60e51b815260206004820152603060248201527f5468652063616c6c65722063616e206f6e6c792062652061207573657220616e60448201526f19081b9bdd08184818dbdb9d1c9858dd60821b606482015260840161072e565b600d5415801590610d68575042600d5411155b610da85760405162461bcd60e51b8152602060048201526011602482015270596f752061726520746f6f206561726c7960781b604482015260640161072e565b33600090815260136020526040902054601b90610dc6908390612d79565b1115610e145760405162461bcd60e51b815260206004820152601d60248201527f596f752063616e6e6f7420636c61696d206d6f726520706f7373756d73000000604482015260640161072e565b601454811115610e665760405162461bcd60e51b815260206004820152601c60248201527f4e6f20506f7373756d206c65667420746f20626520636c61696d656400000000604482015260640161072e565b601b811115610ea75760405162461bcd60e51b815260206004820152600d60248201526c09ac2f040646e40e0cae440e8f609b1b604482015260640161072e565b610ed36040518060400160405280600a81526020016936b9b39739b2b73232b960b11b815250336116e9565b60005b81811015610973576000610ee861172e565b9050610ef43382611613565b610f2a604051806040016040528060138152602001726d696e74696e67203120706f7373756d20746f60681b8152503330611abd565b5080610f3581612e23565b915050610ed6565b600b546001600160a01b03610100909104163314610f6d5760405162461bcd60e51b815260040161072e90612cf3565b610a0e6000611b04565b600b546001600160a01b03610100909104163314610fa75760405162461bcd60e51b815260040161072e90612cf3565b610a0e611b5e565b60606001805461064390612de8565b610973338383611bd9565b610fd33383611264565b610fef5760405162461bcd60e51b815260040161072e90612d28565b610ffb84848484611ca8565b50505050565b606061062e82611cdb565b60606012805461064390612de8565b600b546001600160a01b0361010090910416331461104b5760405162461bcd60e51b815260040161072e90612cf3565b600e55565b600b546001600160a01b036101009091041633146110805760405162461bcd60e51b815260040161072e90612cf3565b6001600160a01b0381166110e55760405162461bcd60e51b815260206004820152602660248201527f4f776e61626c653a206e6577206f776e657220697320746865207a65726f206160448201526564647265737360d01b606482015260840161072e565b6110ee81611b04565b50565b600b546001600160a01b036101009091041633146111215760405162461bcd60e51b815260040161072e90612cf3565b60008381526016602052604090205460ff161561113d57600080fd5b61117d8383838080601f016020809104026020016040519081016040528093929190818152602001838380828437600092019190915250611e3d92505050565b60008381526015602052604090206111969083836127ec565b5050506000908152601660205260409020805460ff19166001179055565b60006001600160e01b0319821663780e9d6360e01b148061062e575061062e82611ec8565b6000908152600260205260409020546001600160a01b0316151590565b600081815260046020526040902080546001600160a01b0319166001600160a01b038416908117909155819061122b82610c76565b6001600160a01b03167f8c5be1e5ebec7d5bd14f71427d1e84f3dd0314c0f7b2291e5b200ac8c7c3b92560405160405180910390a45050565b600061126f826111d9565b6112d05760405162461bcd60e51b815260206004820152602c60248201527f4552433732313a206f70657261746f7220717565727920666f72206e6f6e657860448201526b34b9ba32b73a103a37b5b2b760a11b606482015260840161072e565b60006112db83610c76565b9050806001600160a01b0316846001600160a01b031614806113165750836001600160a01b031661130b846106c6565b6001600160a01b0316145b8061134657506001600160a01b0380821660009081526005602090815260408083209388168352929052205460ff165b949350505050565b826001600160a01b031661136182610c76565b6001600160a01b0316146113c95760405162461bcd60e51b815260206004820152602960248201527f4552433732313a207472616e73666572206f6620746f6b656e2074686174206960448201526839903737ba1037bbb760b91b606482015260840161072e565b6001600160a01b03821661142b5760405162461bcd60e51b8152602060048201526024808201527f4552433732313a207472616e7366657220746f20746865207a65726f206164646044820152637265737360e01b606482015260840161072e565b611436838383611f18565b6114416000826111f6565b6001600160a01b038316600090815260036020526040812080546001929061146a908490612da5565b90915550506001600160a01b0382166000908152600360205260408120805460019290611498908490612d79565b909155505060008181526002602052604080822080546001600160a01b0319166001600160a01b0386811691821790925591518493918716917fddf252ad1be2c89b69c2b068fc378daa952ba7f163c4a11628f55a4df523b3ef91a4505050565b60006001600160a01b0382166115645760405162461bcd60e51b815260206004820152602a60248201527f4552433732313a2062616c616e636520717565727920666f7220746865207a65604482015269726f206164647265737360b01b606482015260840161072e565b506001600160a01b031660009081526003602052604090205490565b600b5460ff166115c95760405162461bcd60e51b815260206004820152601460248201527314185d5cd8589b194e881b9bdd081c185d5cd95960621b604482015260640161072e565b600b805460ff191690557f5db9ee0a495bf2e6ff9c91a7834c1ba4fdd244a5e8aa4e537bd38aeae4b073aa335b6040516001600160a01b03909116815260200160405180910390a1565b612710600f5411156116675760405162461bcd60e51b815260206004820152601c60248201527f616c6c20506f7373756d732068617665206265656e206d696e74656400000000604482015260640161072e565b6116718282611f69565b600f805490600061168183612e23565b90915550506001600160a01b03821660009081526013602052604081208054916116aa83612e23565b909155505060405181906001600160a01b038416907f0f6798a560793a54c3bcfe86a93cde1e73087d944c0ea20544137d412139688590600090a35050565b61097382826040516024016116ff929190612c22565b60408051601f198184030181529190526020810180516001600160e01b031663319af33360e01b179052611f83565b60008061173f601480549050611fa4565b90506014818154811061176257634e487b7160e01b600052603260045260246000fd5b906000526020600020015460001480156117b457506014805461178790600190612da5565b815481106117a557634e487b7160e01b600052603260045260246000fd5b90600052602060002001546000145b1561186c5760145490915081906117cd90600190612da5565b601482815481106117ee57634e487b7160e01b600052603260045260246000fd5b600091825260209091200155601480548061181957634e487b7160e01b600052603160045260246000fd5b600190038181906000526020600020016000905590557f97212d5af6cf1ddbeedea7e5f9a18970d2dde6bcc4583898856a241144c4877f8260405161186091815260200190565b60405180910390a15090565b6014818154811061188d57634e487b7160e01b600052603260045260246000fd5b90600052602060002001546000141580156118e05750601480546118b390600190612da5565b815481106118d157634e487b7160e01b600052603260045260246000fd5b90600052602060002001546000145b15611925576014818154811061190657634e487b7160e01b600052603260045260246000fd5b9060005260206000200154915060016014805490506117cd9190612da5565b6014818154811061194657634e487b7160e01b600052603260045260246000fd5b906000526020600020015460001415801561199a57506014805461196c90600190612da5565b8154811061198a57634e487b7160e01b600052603260045260246000fd5b9060005260206000200154600014155b15611a2b57601481815481106119c057634e487b7160e01b600052603260045260246000fd5b90600052602060002001549150601460016014805490506119e19190612da5565b815481106119ff57634e487b7160e01b600052603260045260246000fd5b9060005260206000200154601482815481106117ee57634e487b7160e01b600052603260045260246000fd5b60148181548110611a4c57634e487b7160e01b600052603260045260246000fd5b90600052602060002001546000148015611a9f575060148054611a7190600190612da5565b81548110611a8f57634e487b7160e01b600052603260045260246000fd5b9060005260206000200154600014155b15611ab9576014805491925082916119e190600190612da5565b5090565b610864838383604051602401611ad593929190612c4c565b60408051601f198184030181529190526020810180516001600160e01b03166307e763af60e51b179052611f83565b600b80546001600160a01b03838116610100818102610100600160a81b031985161790945560405193909204169182907f8be0079c531659141344cd1fd0a4f28419497f9722a3daafe3b4186f6b6457e090600090a35050565b600b5460ff1615611ba45760405162461bcd60e51b815260206004820152601060248201526f14185d5cd8589b194e881c185d5cd95960821b604482015260640161072e565b600b805460ff191660011790557f62e78cea01bee320cd4e420270b5ea74000d11b0c9f74754ebdbfc544b05a2586115f63390565b816001600160a01b0316836001600160a01b03161415611c3b5760405162461bcd60e51b815260206004820152601960248201527f4552433732313a20617070726f766520746f2063616c6c657200000000000000604482015260640161072e565b6001600160a01b03838116600081815260056020908152604080832094871680845294825291829020805460ff191686151590811790915591519182527f17307eab39ab6107e8899845ad3d59bd9653f200f220920489ca2b5937696c31910160405180910390a3505050565b611cb384848461134e565b611cbf84848484612052565b610ffb5760405162461bcd60e51b815260040161072e90612ca1565b6060611ce6826111d9565b611d4c5760405162461bcd60e51b815260206004820152603160248201527f45524337323155524953746f726167653a2055524920717565727920666f72206044820152703737b732bc34b9ba32b73a103a37b5b2b760791b606482015260840161072e565b6000828152600a602052604081208054611d6590612de8565b80601f0160208091040260200160405190810160405280929190818152602001828054611d9190612de8565b8015611dde5780601f10611db357610100808354040283529160200191611dde565b820191906000526020600020905b815481529060010190602001808311611dc157829003601f168201915b505050505090506000611def61100c565b9050805160001415611e02575092915050565b815115611e34578082604051602001611e1c929190612ba3565b60405160208183030381529060405292505050919050565b6113468461215f565b611e46826111d9565b611ea95760405162461bcd60e51b815260206004820152602e60248201527f45524337323155524953746f726167653a2055524920736574206f66206e6f6e60448201526d32bc34b9ba32b73a103a37b5b2b760911b606482015260840161072e565b6000828152600a6020908152604090912082516108649284019061276c565b60006001600160e01b031982166380ac58cd60e01b1480611ef957506001600160e01b03198216635b5e139f60e01b145b8061062e57506301ffc9a760e01b6001600160e01b031983161461062e565b600b5460ff1615611f5e5760405162461bcd60e51b815260206004820152601060248201526f14185d5cd8589b194e881c185d5cd95960821b604482015260640161072e565b610864838383612229565b6109738282604051806020016040528060008152506122e1565b80516a636f6e736f6c652e6c6f67602083016000808483855afa5050505050565b6014546000908190611fb7600143612da5565b6040805160208101939093529040908201526bffffffffffffffffffffffff1941606090811b82168184015244607484015233901b16609482015260a80160408051601f198184030181528282528051602091820120838301909252600d83526c3930b73237b690373ab6b132b960991b9083015291506120419061203c8584612e3e565b612314565b61204b8382612e3e565b9392505050565b60006001600160a01b0384163b1561215457604051630a85bd0160e11b81526001600160a01b0385169063150b7a0290612096903390899088908890600401612bd2565b602060405180830381600087803b1580156120b057600080fd5b505af19250505080156120e0575060408051601f3d908101601f191682019092526120dd91810190612a86565b60015b61213a573d80801561210e576040519150601f19603f3d011682016040523d82523d6000602084013e612113565b606091505b5080516121325760405162461bcd60e51b815260040161072e90612ca1565b805181602001fd5b6001600160e01b031916630a85bd0160e11b149050611346565b506001949350505050565b606061216a826111d9565b6121ce5760405162461bcd60e51b815260206004820152602f60248201527f4552433732314d657461646174613a2055524920717565727920666f72206e6f60448201526e3732bc34b9ba32b73a103a37b5b2b760891b606482015260840161072e565b60006121d861100c565b905060008151116121f8576040518060200160405280600081525061204b565b8061220284612359565b604051602001612213929190612ba3565b6040516020818303038152906040529392505050565b6001600160a01b0383166122845761227f81600880546000838152600960205260408120829055600182018355919091527ff3f7a9fe364faab93b216da50a3214154f22a0a2b415b23a84c8169e8b636ee30155565b6122a7565b816001600160a01b0316836001600160a01b0316146122a7576122a78382612473565b6001600160a01b0382166122be5761086481612510565b826001600160a01b0316826001600160a01b0316146108645761086482826125e9565b6122eb838361262d565b6122f86000848484612052565b6108645760405162461bcd60e51b815260040161072e90612ca1565b610973828260405160240161232a929190612c7f565b60408051601f198184030181529190526020810180516001600160e01b03166309710a9d60e41b179052611f83565b60608161237d5750506040805180820190915260018152600360fc1b602082015290565b8160005b81156123a7578061239181612e23565b91506123a09050600a83612d91565b9150612381565b60008167ffffffffffffffff8111156123d057634e487b7160e01b600052604160045260246000fd5b6040519080825280601f01601f1916602001820160405280156123fa576020820181803683370190505b5090505b84156113465761240f600183612da5565b915061241c600a86612e3e565b612427906030612d79565b60f81b81838151811061244a57634e487b7160e01b600052603260045260246000fd5b60200101906001600160f81b031916908160001a90535061246c600a86612d91565b94506123fe565b60006001612480846114f9565b61248a9190612da5565b6000838152600760205260409020549091508082146124dd576001600160a01b03841660009081526006602090815260408083208584528252808320548484528184208190558352600790915290208190555b5060009182526007602090815260408084208490556001600160a01b039094168352600681528383209183525290812055565b60085460009061252290600190612da5565b6000838152600960205260408120546008805493945090928490811061255857634e487b7160e01b600052603260045260246000fd5b90600052602060002001549050806008838154811061258757634e487b7160e01b600052603260045260246000fd5b60009182526020808320909101929092558281526009909152604080822084905585825281205560088054806125cd57634e487b7160e01b600052603160045260246000fd5b6001900381819060005260206000200160009055905550505050565b60006125f4836114f9565b6001600160a01b039093166000908152600660209081526040808320868452825280832085905593825260079052919091209190915550565b6001600160a01b0382166126835760405162461bcd60e51b815260206004820181905260248201527f4552433732313a206d696e7420746f20746865207a65726f2061646472657373604482015260640161072e565b61268c816111d9565b156126d95760405162461bcd60e51b815260206004820152601c60248201527f4552433732313a20746f6b656e20616c7265616479206d696e74656400000000604482015260640161072e565b6126e560008383611f18565b6001600160a01b038216600090815260036020526040812080546001929061270e908490612d79565b909155505060008181526002602052604080822080546001600160a01b0319166001600160a01b03861690811790915590518392907fddf252ad1be2c89b69c2b068fc378daa952ba7f163c4a11628f55a4df523b3ef908290a45050565b82805461277890612de8565b90600052602060002090601f01602090048101928261279a57600085556127e0565b82601f106127b357805160ff19168380011785556127e0565b828001600101855582156127e0579182015b828111156127e05782518255916020019190600101906127c5565b50611ab9929150612860565b8280546127f890612de8565b90600052602060002090601f01602090048101928261281a57600085556127e0565b82601f106128335782800160ff198235161785556127e0565b828001600101855582156127e0579182015b828111156127e0578235825591602001919060010190612845565b5b80821115611ab95760008155600101612861565b600067ffffffffffffffff8084111561289057612890612e7e565b604051601f8501601f19908116603f011681019082821181831017156128b8576128b8612e7e565b816040528093508581528686860111156128d157600080fd5b858560208301376000602087830101525050509392505050565b80356001600160a01b038116811461290257600080fd5b919050565b600060208284031215612918578081fd5b61204b826128eb565b60008060408385031215612933578081fd5b61293c836128eb565b915061294a602084016128eb565b90509250929050565b600080600060608486031215612967578081fd5b612970846128eb565b925061297e602085016128eb565b9150604084013590509250925092565b600080600080608085870312156129a3578081fd5b6129ac856128eb565b93506129ba602086016128eb565b925060408501359150606085013567ffffffffffffffff8111156129dc578182fd5b8501601f810187136129ec578182fd5b6129fb87823560208401612875565b91505092959194509250565b60008060408385031215612a19578182fd5b612a22836128eb565b915060208301358015158114612a36578182fd5b809150509250929050565b60008060408385031215612a53578182fd5b612a5c836128eb565b946020939093013593505050565b600060208284031215612a7b578081fd5b813561204b81612e94565b600060208284031215612a97578081fd5b815161204b81612e94565b600060208284031215612ab3578081fd5b813567ffffffffffffffff811115612ac9578182fd5b8201601f81018413612ad9578182fd5b61134684823560208401612875565b600060208284031215612af9578081fd5b5035919050565b600080600060408486031215612b14578283fd5b83359250602084013567ffffffffffffffff80821115612b32578384fd5b818601915086601f830112612b45578384fd5b813581811115612b53578485fd5b876020828501011115612b64578485fd5b6020830194508093505050509250925092565b60008151808452612b8f816020860160208601612dbc565b601f01601f19169290920160200192915050565b60008351612bb5818460208801612dbc565b835190830190612bc9818360208801612dbc565b01949350505050565b6001600160a01b0385811682528416602082015260408101839052608060608201819052600090612c0590830184612b77565b9695505050505050565b60208152600061204b6020830184612b77565b604081526000612c356040830185612b77565b905060018060a01b03831660208301529392505050565b606081526000612c5f6060830186612b77565b6001600160a01b0394851660208401529290931660409091015292915050565b604081526000612c926040830185612b77565b90508260208301529392505050565b60208082526032908201527f4552433732313a207472616e7366657220746f206e6f6e20455243373231526560408201527131b2b4bb32b91034b6b83632b6b2b73a32b960711b606082015260800190565b6020808252818101527f4f776e61626c653a2063616c6c6572206973206e6f7420746865206f776e6572604082015260600190565b60208082526031908201527f4552433732313a207472616e736665722063616c6c6572206973206e6f74206f6040820152701ddb995c881b9bdc88185c1c1c9bdd9959607a1b606082015260800190565b60008219821115612d8c57612d8c612e52565b500190565b600082612da057612da0612e68565b500490565b600082821015612db757612db7612e52565b500390565b60005b83811015612dd7578181015183820152602001612dbf565b83811115610ffb5750506000910152565b600181811c90821680612dfc57607f821691505b60208210811415612e1d57634e487b7160e01b600052602260045260246000fd5b50919050565b6000600019821415612e3757612e37612e52565b5060010190565b600082612e4d57612e4d612e68565b500690565b634e487b7160e01b600052601160045260246000fd5b634e487b7160e01b600052601260045260246000fd5b634e487b7160e01b600052604160045260246000fd5b6001600160e01b0319811681146110ee57600080fdfea264697066735822122085387e2aee0387449765107c800db306a58772437f36ba66650de1ba1913da0b64736f6c6343000804003368747470733a2f2f697066732e696f2f697066732f516d653773733341525667787636725871565069696b4d4a3875324e4c676d67737a673133705972444b456f69752f",
  "linkReferences": {},
  "deployedLinkReferences": {}
}