{
  "_format": "hh-sol-artifact-1",
  "contractName": "TrashPossums",
  "sourceName": "contracts/TrashPossums.sol",
  "abi": [
    {
      "inputs": [
        {
          "internalType": "uint256",
          "name": "_possumPrice",
          "type": "uint256"
        },
        {
          "internalType": "uint256",
          "name": "_startMintDate",
          "type": "uint256"
        },
        {
          "internalType": "string",
          "name": "_baseUri",
          "type": "string"
        },
        {
          "internalType": "address",
          "name": "_randomness",
          "type": "address"
        }
      ],
      "stateMutability": "nonpayable",
      "type": "constructor"
    },
    {
      "anonymous": false,
      "inputs": [
        {
          "indexed": true,
          "internalType": "address",
          "name": "owner",
          "type": "address"
        },
        {
          "indexed": true,
          "internalType": "address",
          "name": "approved",
          "type": "address"
        },
        {
          "indexed": true,
          "internalType": "uint256",
          "name": "tokenId",
          "type": "uint256"
        }
      ],
      "name": "Approval",
      "type": "event"
    },
    {
      "anonymous": false,
      "inputs": [
        {
          "indexed": true,
          "internalType": "address",
          "name": "owner",
          "type": "address"
        },
        {
          "indexed": true,
          "internalType": "address",
          "name": "operator",
          "type": "address"
        },
        {
          "indexed": false,
          "internalType": "bool",
          "name": "approved",
          "type": "bool"
        }
      ],
      "name": "ApprovalForAll",
      "type": "event"
    },
    {
      "anonymous": false,
      "inputs": [
        {
          "indexed": true,
          "internalType": "address",
          "name": "previousOwner",
          "type": "address"
        },
        {
          "indexed": true,
          "internalType": "address",
          "name": "newOwner",
          "type": "address"
        }
      ],
      "name": "OwnershipTransferred",
      "type": "event"
    },
    {
      "anonymous": false,
      "inputs": [
        {
          "indexed": false,
          "internalType": "address",
          "name": "account",
          "type": "address"
        }
      ],
      "name": "Paused",
      "type": "event"
    },
    {
      "anonymous": false,
      "inputs": [
        {
          "indexed": true,
          "internalType": "address",
          "name": "to",
          "type": "address"
        },
        {
          "indexed": true,
          "internalType": "uint256",
          "name": "tokenId",
          "type": "uint256"
        }
      ],
      "name": "Reserved",
      "type": "event"
    },
    {
      "anonymous": false,
      "inputs": [
        {
          "indexed": true,
          "internalType": "address",
          "name": "from",
          "type": "address"
        },
        {
          "indexed": true,
          "internalType": "address",
          "name": "to",
          "type": "address"
        },
        {
          "indexed": true,
          "internalType": "uint256",
          "name": "tokenId",
          "type": "uint256"
        }
      ],
      "name": "Transfer",
      "type": "event"
    },
    {
      "anonymous": false,
      "inputs": [
        {
          "indexed": false,
          "internalType": "address",
          "name": "account",
          "type": "address"
        }
      ],
      "name": "Unpaused",
      "type": "event"
    },
    {
      "inputs": [
        {
          "internalType": "address",
          "name": "to",
          "type": "address"
        },
        {
          "internalType": "uint256",
          "name": "tokenId",
          "type": "uint256"
        }
      ],
      "name": "approve",
      "outputs": [],
      "stateMutability": "nonpayable",
      "type": "function"
    },
    {
      "inputs": [
        {
          "internalType": "address",
          "name": "owner",
          "type": "address"
        }
      ],
      "name": "balanceOf",
      "outputs": [
        {
          "internalType": "uint256",
          "name": "",
          "type": "uint256"
        }
      ],
      "stateMutability": "view",
      "type": "function"
    },
    {
      "inputs": [],
      "name": "baseTokenURI",
      "outputs": [
        {
          "internalType": "string",
          "name": "",
          "type": "string"
        }
      ],
      "stateMutability": "view",
      "type": "function"
    },
    {
      "inputs": [],
      "name": "baseURI",
      "outputs": [
        {
          "internalType": "string",
          "name": "",
          "type": "string"
        }
      ],
      "stateMutability": "view",
      "type": "function"
    },
    {
      "inputs": [],
      "name": "claimPossums",
      "outputs": [],
      "stateMutability": "payable",
      "type": "function"
    },
    {
      "inputs": [
        {
          "internalType": "uint256",
          "name": "tokenId",
          "type": "uint256"
        }
      ],
      "name": "getApproved",
      "outputs": [
        {
          "internalType": "address",
          "name": "",
          "type": "address"
        }
      ],
      "stateMutability": "view",
      "type": "function"
    },
    {
      "inputs": [],
      "name": "getAvailablePossums",
      "outputs": [
        {
          "internalType": "uint256",
          "name": "",
          "type": "uint256"
        }
      ],
      "stateMutability": "view",
      "type": "function"
    },
    {
      "inputs": [],
      "name": "getBalance",
      "outputs": [
        {
          "internalType": "uint256",
          "name": "",
          "type": "uint256"
        }
      ],
      "stateMutability": "view",
      "type": "function"
    },
    {
      "inputs": [],
      "name": "getClaimDate",
      "outputs": [
        {
          "internalType": "uint256",
          "name": "",
          "type": "uint256"
        }
      ],
      "stateMutability": "view",
      "type": "function"
    },
    {
      "inputs": [],
      "name": "getMintingStartDate",
      "outputs": [
        {
          "internalType": "uint256",
          "name": "",
          "type": "uint256"
        }
      ],
      "stateMutability": "view",
      "type": "function"
    },
    {
      "inputs": [],
      "name": "getNumberOfReservedPossums",
      "outputs": [
        {
          "internalType": "uint256",
          "name": "",
          "type": "uint256"
        }
      ],
      "stateMutability": "view",
      "type": "function"
    },
    {
      "inputs": [],
      "name": "getPossumPrice",
      "outputs": [
        {
          "internalType": "uint256",
          "name": "",
          "type": "uint256"
        }
      ],
      "stateMutability": "view",
      "type": "function"
    },
    {
      "inputs": [
        {
          "internalType": "address",
          "name": "_wallet",
          "type": "address"
        }
      ],
      "name": "getReservedPossumIds",
      "outputs": [
        {
          "internalType": "uint256[]",
          "name": "reservedIds",
          "type": "uint256[]"
        }
      ],
      "stateMutability": "view",
      "type": "function"
    },
    {
      "inputs": [
        {
          "internalType": "address",
          "name": "_wallet",
          "type": "address"
        }
      ],
      "name": "getReservedPossumsPerWallet",
      "outputs": [
        {
          "internalType": "uint256",
          "name": "",
          "type": "uint256"
        }
      ],
      "stateMutability": "view",
      "type": "function"
    },
    {
      "inputs": [],
      "name": "getTotalMintedPossums",
      "outputs": [
        {
          "internalType": "uint256",
          "name": "",
          "type": "uint256"
        }
      ],
      "stateMutability": "view",
      "type": "function"
    },
    {
      "inputs": [],
      "name": "getTotalPossums",
      "outputs": [
        {
          "internalType": "uint256",
          "name": "",
          "type": "uint256"
        }
      ],
      "stateMutability": "pure",
      "type": "function"
    },
    {
      "inputs": [
        {
          "internalType": "address",
          "name": "owner",
          "type": "address"
        },
        {
          "internalType": "address",
          "name": "operator",
          "type": "address"
        }
      ],
      "name": "isApprovedForAll",
      "outputs": [
        {
          "internalType": "bool",
          "name": "",
          "type": "bool"
        }
      ],
      "stateMutability": "view",
      "type": "function"
    },
    {
      "inputs": [],
      "name": "maxPossumsPerWallet",
      "outputs": [
        {
          "internalType": "uint256",
          "name": "",
          "type": "uint256"
        }
      ],
      "stateMutability": "view",
      "type": "function"
    },
    {
      "inputs": [],
      "name": "name",
      "outputs": [
        {
          "internalType": "string",
          "name": "",
          "type": "string"
        }
      ],
      "stateMutability": "view",
      "type": "function"
    },
    {
      "inputs": [],
      "name": "numberOfReservedPossums",
      "outputs": [
        {
          "internalType": "uint256",
          "name": "",
          "type": "uint256"
        }
      ],
      "stateMutability": "view",
      "type": "function"
    },
    {
      "inputs": [],
      "name": "owner",
      "outputs": [
        {
          "internalType": "address",
          "name": "",
          "type": "address"
        }
      ],
      "stateMutability": "view",
      "type": "function"
    },
    {
      "inputs": [
        {
          "internalType": "uint256",
          "name": "tokenId",
          "type": "uint256"
        }
      ],
      "name": "ownerOf",
      "outputs": [
        {
          "internalType": "address",
          "name": "",
          "type": "address"
        }
      ],
      "stateMutability": "view",
      "type": "function"
    },
    {
      "inputs": [],
      "name": "pause",
      "outputs": [],
      "stateMutability": "nonpayable",
      "type": "function"
    },
    {
      "inputs": [],
      "name": "paused",
      "outputs": [
        {
          "internalType": "bool",
          "name": "",
          "type": "bool"
        }
      ],
      "stateMutability": "view",
      "type": "function"
    },
    {
      "inputs": [],
      "name": "possumPrice",
      "outputs": [
        {
          "internalType": "uint256",
          "name": "",
          "type": "uint256"
        }
      ],
      "stateMutability": "view",
      "type": "function"
    },
    {
      "inputs": [],
      "name": "premintPossums",
      "outputs": [],
      "stateMutability": "nonpayable",
      "type": "function"
    },
    {
      "inputs": [],
      "name": "randomness",
      "outputs": [
        {
          "internalType": "address",
          "name": "",
          "type": "address"
        }
      ],
      "stateMutability": "view",
      "type": "function"
    },
    {
      "inputs": [],
      "name": "renounceOwnership",
      "outputs": [],
      "stateMutability": "nonpayable",
      "type": "function"
    },
    {
      "inputs": [
        {
          "internalType": "uint256",
          "name": "amount",
          "type": "uint256"
        }
      ],
      "name": "reservePossums",
      "outputs": [],
      "stateMutability": "payable",
      "type": "function"
    },
    {
      "inputs": [
        {
          "internalType": "address",
          "name": "from",
          "type": "address"
        },
        {
          "internalType": "address",
          "name": "to",
          "type": "address"
        },
        {
          "internalType": "uint256",
          "name": "tokenId",
          "type": "uint256"
        }
      ],
      "name": "safeTransferFrom",
      "outputs": [],
      "stateMutability": "nonpayable",
      "type": "function"
    },
    {
      "inputs": [
        {
          "internalType": "address",
          "name": "from",
          "type": "address"
        },
        {
          "internalType": "address",
          "name": "to",
          "type": "address"
        },
        {
          "internalType": "uint256",
          "name": "tokenId",
          "type": "uint256"
        },
        {
          "internalType": "bytes",
          "name": "_data",
          "type": "bytes"
        }
      ],
      "name": "safeTransferFrom",
      "outputs": [],
      "stateMutability": "nonpayable",
      "type": "function"
    },
    {
      "inputs": [
        {
          "internalType": "address",
          "name": "operator",
          "type": "address"
        },
        {
          "internalType": "bool",
          "name": "approved",
          "type": "bool"
        }
      ],
      "name": "setApprovalForAll",
      "outputs": [],
      "stateMutability": "nonpayable",
      "type": "function"
    },
    {
      "inputs": [
        {
          "internalType": "string",
          "name": "_tokenURI",
          "type": "string"
        }
      ],
      "name": "setBaseTokenURI",
      "outputs": [],
      "stateMutability": "nonpayable",
      "type": "function"
    },
    {
      "inputs": [
        {
          "internalType": "uint256",
          "name": "_possumPrice",
          "type": "uint256"
        }
      ],
      "name": "setPossumPrice",
      "outputs": [],
      "stateMutability": "nonpayable",
      "type": "function"
    },
    {
      "inputs": [],
      "name": "startMintDate",
      "outputs": [
        {
          "internalType": "uint256",
          "name": "",
          "type": "uint256"
        }
      ],
      "stateMutability": "view",
      "type": "function"
    },
    {
      "inputs": [
        {
          "internalType": "bytes4",
          "name": "interfaceId",
          "type": "bytes4"
        }
      ],
      "name": "supportsInterface",
      "outputs": [
        {
          "internalType": "bool",
          "name": "",
          "type": "bool"
        }
      ],
      "stateMutability": "view",
      "type": "function"
    },
    {
      "inputs": [],
      "name": "symbol",
      "outputs": [
        {
          "internalType": "string",
          "name": "",
          "type": "string"
        }
      ],
      "stateMutability": "view",
      "type": "function"
    },
    {
      "inputs": [
        {
          "internalType": "uint256",
          "name": "index",
          "type": "uint256"
        }
      ],
      "name": "tokenByIndex",
      "outputs": [
        {
          "internalType": "uint256",
          "name": "",
          "type": "uint256"
        }
      ],
      "stateMutability": "view",
      "type": "function"
    },
    {
      "inputs": [
        {
          "internalType": "address",
          "name": "owner",
          "type": "address"
        },
        {
          "internalType": "uint256",
          "name": "index",
          "type": "uint256"
        }
      ],
      "name": "tokenOfOwnerByIndex",
      "outputs": [
        {
          "internalType": "uint256",
          "name": "",
          "type": "uint256"
        }
      ],
      "stateMutability": "view",
      "type": "function"
    },
    {
      "inputs": [
        {
          "internalType": "uint256",
          "name": "tokenId",
          "type": "uint256"
        }
      ],
      "name": "tokenURI",
      "outputs": [
        {
          "internalType": "string",
          "name": "",
          "type": "string"
        }
      ],
      "stateMutability": "view",
      "type": "function"
    },
    {
      "inputs": [],
      "name": "totalMintedPossums",
      "outputs": [
        {
          "internalType": "uint256",
          "name": "",
          "type": "uint256"
        }
      ],
      "stateMutability": "view",
      "type": "function"
    },
    {
      "inputs": [],
      "name": "totalPossums",
      "outputs": [
        {
          "internalType": "uint256",
          "name": "",
          "type": "uint256"
        }
      ],
      "stateMutability": "view",
      "type": "function"
    },
    {
      "inputs": [],
      "name": "totalSupply",
      "outputs": [
        {
          "internalType": "uint256",
          "name": "",
          "type": "uint256"
        }
      ],
      "stateMutability": "view",
      "type": "function"
    },
    {
      "inputs": [
        {
          "internalType": "address",
          "name": "from",
          "type": "address"
        },
        {
          "internalType": "address",
          "name": "to",
          "type": "address"
        },
        {
          "internalType": "uint256",
          "name": "tokenId",
          "type": "uint256"
        }
      ],
      "name": "transferFrom",
      "outputs": [],
      "stateMutability": "nonpayable",
      "type": "function"
    },
    {
      "inputs": [
        {
          "internalType": "address",
          "name": "newOwner",
          "type": "address"
        }
      ],
      "name": "transferOwnership",
      "outputs": [],
      "stateMutability": "nonpayable",
      "type": "function"
    },
    {
      "inputs": [],
      "name": "unpause",
      "outputs": [],
      "stateMutability": "nonpayable",
      "type": "function"
    },
    {
      "inputs": [],
      "name": "withdraw",
      "outputs": [],
      "stateMutability": "payable",
      "type": "function"
    },
    {
      "inputs": [
        {
          "internalType": "contract IERC20",
          "name": "token",
          "type": "address"
        },
        {
          "internalType": "uint256",
          "name": "_amount",
          "type": "uint256"
        }
      ],
      "name": "withdrawErc20",
      "outputs": [],
      "stateMutability": "nonpayable",
      "type": "function"
    },
    {
      "stateMutability": "payable",
      "type": "receive"
    }
  ],
  "bytecode": "0x60806040523480156200001157600080fd5b50604051620036f4380380620036f483398101604081905262000034916200023c565b604080518082018252600d81526c547261736820506f7373756d7360981b60208083019182528351808501909452600584526454504f535360d81b908401528151919291620000869160009162000163565b5080516200009c90600190602084019062000163565b505050620000b9620000b36200010d60201b60201c565b62000111565b600c805460ff19169055600e849055600d8390558151620000e290601090602085019062000163565b50601280546001600160a01b0319166001600160a01b0392909216919091179055506200037f915050565b3390565b600780546001600160a01b038381166001600160a01b0319831681179093556040519116919082907f8be0079c531659141344cd1fd0a4f28419497f9722a3daafe3b4186f6b6457e090600090a35050565b828054620001719062000342565b90600052602060002090601f016020900481019282620001955760008555620001e0565b82601f10620001b057805160ff1916838001178555620001e0565b82800160010185558215620001e0579182015b82811115620001e0578251825591602001919060010190620001c3565b50620001ee929150620001f2565b5090565b5b80821115620001ee5760008155600101620001f3565b634e487b7160e01b600052604160045260246000fd5b80516001600160a01b03811681146200023757600080fd5b919050565b600080600080608085870312156200025357600080fd5b845160208087015160408801519296509450906001600160401b03808211156200027c57600080fd5b818801915088601f8301126200029157600080fd5b815181811115620002a657620002a662000209565b604051601f8201601f19908116603f01168101908382118183101715620002d157620002d162000209565b816040528281528b86848701011115620002ea57600080fd5b600093505b828410156200030e5784840186015181850187015292850192620002ef565b82841115620003205760008684830101525b80975050505050505062000337606086016200021f565b905092959194509250565b600181811c908216806200035757607f821691505b602082108114156200037957634e487b7160e01b600052602260045260246000fd5b50919050565b613365806200038f6000396000f3fe6080604052600436106102965760003560e01c80636c0360eb1161015a578063b37cb09d116100c1578063da67e22a1161007a578063da67e22a1461072a578063dca7728414610740578063e65fadc414610760578063e985e9c514610775578063ead17506146107be578063f2fde38b146107d357600080fd5b8063b37cb09d1461068b578063b88d4fde146106a0578063bd1f4b52146106c0578063c87b56dd146106e0578063cc6bbd6514610700578063d547cfb71461071557600080fd5b80638456cb59116101135780638456cb59146106065780638481de5f1461061b5780638da5cb5b1461063057806395d89b411461064e578063a22cb46514610663578063b031b35b1461068357600080fd5b80636c0360eb1461056557806370a082311461057a578063715018a61461059a578063723bcc13146105af5780637fd3352e146105c457806384511aff146105f157600080fd5b80633bb240bd116101fe57806350f257e1116101b757806350f257e1146104b5578063530e04bb146104eb5780635b46a8f2146105015780635ba36949146105175780635c975abb1461052d5780636352211e1461054557600080fd5b80633bb240bd1461042d5780633ccfd60b146104435780633f4ba83a1461044b578063416c585d1461046057806342842e0e146104755780634f6ccce71461049557600080fd5b806318160ddd1161025057806318160ddd1461038357806323b872dd1461039857806325554fb1146103b85780632f745c59146103cd57806330176e13146103ed578063360131891461040d57600080fd5b806261b0ec146102a257806301ffc9a7146102b757806306fdde03146102ec578063081812fc1461030e578063095ea7b31461034657806312065fe01461036657600080fd5b3661029d57005b600080fd5b6102b56102b0366004612d03565b6107f3565b005b3480156102c357600080fd5b506102d76102d2366004612d32565b610c59565b60405190151581526020015b60405180910390f35b3480156102f857600080fd5b50610301610c6a565b6040516102e39190612da7565b34801561031a57600080fd5b5061032e610329366004612d03565b610cfc565b6040516001600160a01b0390911681526020016102e3565b34801561035257600080fd5b506102b5610361366004612dcf565b610d84565b34801561037257600080fd5b50475b6040519081526020016102e3565b34801561038f57600080fd5b50600a54610375565b3480156103a457600080fd5b506102b56103b3366004612dfb565b610e9a565b3480156103c457600080fd5b50601154610375565b3480156103d957600080fd5b506103756103e8366004612dcf565b610ecb565b3480156103f957600080fd5b506102b5610408366004612e3c565b610f61565b34801561041957600080fd5b5060125461032e906001600160a01b031681565b34801561043957600080fd5b50610375600e5481565b6102b5610f97565b34801561045757600080fd5b506102b5611071565b34801561046c57600080fd5b506102b56110a5565b34801561048157600080fd5b506102b5610490366004612dfb565b611225565b3480156104a157600080fd5b506103756104b0366004612d03565b611240565b3480156104c157600080fd5b506103756104d0366004612eae565b6001600160a01b031660009081526014602052604090205490565b3480156104f757600080fd5b50610375600f5481565b34801561050d57600080fd5b5061037561271081565b34801561052357600080fd5b5061037560115481565b34801561053957600080fd5b50600c5460ff166102d7565b34801561055157600080fd5b5061032e610560366004612d03565b6112d3565b34801561057157600080fd5b5061030161134a565b34801561058657600080fd5b50610375610595366004612eae565b6113d8565b3480156105a657600080fd5b506102b561145f565b3480156105bb57600080fd5b50600e54610375565b3480156105d057600080fd5b506105e46105df366004612eae565b611493565b6040516102e39190612ecb565b3480156105fd57600080fd5b50610375603481565b34801561061257600080fd5b506102b56115e5565b34801561062757600080fd5b50610375611617565b34801561063c57600080fd5b506007546001600160a01b031661032e565b34801561065a57600080fd5b5061030161168a565b34801561066f57600080fd5b506102b561067e366004612f1d565b611699565b6102b56116a4565b34801561069757600080fd5b5061037561192d565b3480156106ac57600080fd5b506102b56106bb366004612f6c565b611977565b3480156106cc57600080fd5b506102b56106db366004612dcf565b6119a9565b3480156106ec57600080fd5b506103016106fb366004612d03565b611b0e565b34801561070c57600080fd5b50612710610375565b34801561072157600080fd5b50610301611b19565b34801561073657600080fd5b50610375600d5481565b34801561074c57600080fd5b506102b561075b366004612d03565b611b28565b34801561076c57600080fd5b50600f54610375565b34801561078157600080fd5b506102d761079036600461304c565b6001600160a01b03918216600090815260056020908152604080832093909416825291909152205460ff1690565b3480156107ca57600080fd5b50600d54610375565b3480156107df57600080fd5b506102b56107ee366004612eae565b611b57565b600d5415801590610805575042600d54105b61084a5760405162461bcd60e51b8152602060048201526011602482015270596f752061726520746f6f206561726c7960781b60448201526064015b60405180910390fd5b601254604080516375b5692760e11b815290516000926001600160a01b03169163eb6ad24e9160048083019260209291908290030181865afa158015610894573d6000803e3d6000fd5b505050506040513d601f19601f820116820180604052508101906108b8919061307a565b90506000601260009054906101000a90046001600160a01b03166001600160a01b0316638481de5f6040518163ffffffff1660e01b8152600401602060405180830381865afa15801561090f573d6000803e3d6000fd5b505050506040513d601f19601f82011682018060405250810190610933919061307a565b905082600e5461094391906130a9565b3410156109a45760405162461bcd60e51b815260206004820152602960248201527f4e6f7420656e6f75676820457468657220746f207265736572766520746865736044820152686520706f7373756d7360b81b6064820152608401610841565b600083116109f45760405162461bcd60e51b815260206004820152601e60248201527f6e65656420746f2072657365727665206174206c656173742031204e465400006044820152606401610841565b33600090815260136020526040902054603490610a129085906130c8565b1115610a605760405162461bcd60e51b815260206004820152601f60248201527f596f752063616e6e6f742072657365727665206d6f726520706f7373756d73006044820152606401610841565b82811015610aa25760405162461bcd60e51b815260206004820152600f60248201526e139bc8141bdcdcdd5b5cc81b19599d608a1b6044820152606401610841565b601b831115610aec5760405162461bcd60e51b815260206004820152601660248201527526b0bc10191b903832b9103a3930b739b0b1ba34b7b760511b6044820152606401610841565b8115610b605760405162461bcd60e51b815260206004820152603760248201527f6f666673657420616c726561647920656e61637465642c2063616e6e6f74207260448201527f65736572766520616e79206d6f726520706f7373756d730000000000000000006064820152608401610841565b60005b83811015610c53576012546040805163c6410f7b60e01b815290516000926001600160a01b03169163c6410f7b916004808301926020929190829003018187875af1158015610bb6573d6000803e3d6000fd5b505050506040513d601f19601f82011682018060405250810190610bda919061307a565b33600090815260146020908152604082208054600181018255908352908220018290556011805492935090610c0e836130e0565b9091555050604051819033907f904dcdc411e931497b95b06ddf8f8184815dd3bedc3c7c7cd4aed3ccd30783d890600090a35080610c4b816130e0565b915050610b63565b50505050565b6000610c6482611bf2565b92915050565b606060008054610c79906130fb565b80601f0160208091040260200160405190810160405280929190818152602001828054610ca5906130fb565b8015610cf25780601f10610cc757610100808354040283529160200191610cf2565b820191906000526020600020905b815481529060010190602001808311610cd557829003601f168201915b5050505050905090565b6000610d0782611c17565b610d685760405162461bcd60e51b815260206004820152602c60248201527f4552433732313a20617070726f76656420717565727920666f72206e6f6e657860448201526b34b9ba32b73a103a37b5b2b760a11b6064820152608401610841565b506000908152600460205260409020546001600160a01b031690565b6000610d8f826112d3565b9050806001600160a01b0316836001600160a01b03161415610dfd5760405162461bcd60e51b815260206004820152602160248201527f4552433732313a20617070726f76616c20746f2063757272656e74206f776e656044820152603960f91b6064820152608401610841565b336001600160a01b0382161480610e195750610e198133610790565b610e8b5760405162461bcd60e51b815260206004820152603860248201527f4552433732313a20617070726f76652063616c6c6572206973206e6f74206f7760448201527f6e6572206e6f7220617070726f76656420666f7220616c6c00000000000000006064820152608401610841565b610e958383611c34565b505050565b610ea43382611ca2565b610ec05760405162461bcd60e51b815260040161084190613130565b610e95838383611d8c565b6000610ed6836113d8565b8210610f385760405162461bcd60e51b815260206004820152602b60248201527f455243373231456e756d657261626c653a206f776e657220696e646578206f7560448201526a74206f6620626f756e647360a81b6064820152608401610841565b506001600160a01b03919091166000908152600860209081526040808320938352929052205490565b6007546001600160a01b03163314610f8b5760405162461bcd60e51b815260040161084190613181565b610e9560108383612bf6565b6007546001600160a01b03163314610fc15760405162461bcd60e51b815260040161084190613181565b476000610fd66007546001600160a01b031690565b6001600160a01b03168260405160006040518083038185875af1925050503d8060008114611020576040519150601f19603f3d011682016040523d82523d6000602084013e611025565b606091505b505090508061106d5760405162461bcd60e51b81526020600482015260146024820152732330b4b632b2103a379039b2b7321022ba3432b960611b6044820152606401610841565b5050565b6007546001600160a01b0316331461109b5760405162461bcd60e51b815260040161084190613181565b6110a3611f37565b565b6007546001600160a01b031633146110cf5760405162461bcd60e51b815260040161084190613181565b60125460408051631332545760e11b815290516000926001600160a01b031691632664a8ae9160048083019260209291908290030181865afa158015611119573d6000803e3d6000fd5b505050506040513d601f19601f8201168201806040525081019061113d91906131b6565b9050801561119b5760405162461bcd60e51b815260206004820152602560248201527f596f752063616e206f6e6c79207072656d696e742074686520506f7373756d73604482015264206f6e636560d81b6064820152608401610841565b60005b60648110156111c3576111b13382611fca565b806111bb816130e0565b91505061119e565b50601254604051631c8ac9a560e31b8152606460048201526001600160a01b039091169063e4564d2890602401600060405180830381600087803b15801561120a57600080fd5b505af115801561121e573d6000803e3d6000fd5b5050505050565b610e9583838360405180602001604052806000815250611977565b600061124b600a5490565b82106112ae5760405162461bcd60e51b815260206004820152602c60248201527f455243373231456e756d657261626c653a20676c6f62616c20696e646578206f60448201526b7574206f6620626f756e647360a01b6064820152608401610841565b600a82815481106112c1576112c16131d3565b90600052602060002001549050919050565b6000818152600260205260408120546001600160a01b031680610c645760405162461bcd60e51b815260206004820152602960248201527f4552433732313a206f776e657220717565727920666f72206e6f6e657869737460448201526832b73a103a37b5b2b760b91b6064820152608401610841565b60108054611357906130fb565b80601f0160208091040260200160405190810160405280929190818152602001828054611383906130fb565b80156113d05780601f106113a5576101008083540402835291602001916113d0565b820191906000526020600020905b8154815290600101906020018083116113b357829003601f168201915b505050505081565b60006001600160a01b0382166114435760405162461bcd60e51b815260206004820152602a60248201527f4552433732313a2062616c616e636520717565727920666f7220746865207a65604482015269726f206164647265737360b01b6064820152608401610841565b506001600160a01b031660009081526003602052604090205490565b6007546001600160a01b031633146114895760405162461bcd60e51b815260040161084190613181565b6110a360006120fe565b6001600160a01b0381166000908152601460205260409020546060906114fb5760405162461bcd60e51b815260206004820152601e60248201527f57616c6c657420686173206e6f20726573657276656420706f7373756d7300006044820152606401610841565b6001600160a01b03821660009081526014602052604090205467ffffffffffffffff81111561152c5761152c612f56565b604051908082528060200260200182016040528015611555578160200160208202803683370190505b50905060005b6001600160a01b0383166000908152601460205260409020548110156115df576001600160a01b03831660009081526014602052604090208054829081106115a5576115a56131d3565b90600052602060002001548282815181106115c2576115c26131d3565b6020908102919091010152806115d7816130e0565b91505061155b565b50919050565b6007546001600160a01b0316331461160f5760405162461bcd60e51b815260040161084190613181565b6110a3612150565b60125460408051638481de5f60e01b815290516000926001600160a01b031691638481de5f9160048083019260209291908290030181865afa158015611661573d6000803e3d6000fd5b505050506040513d601f19601f82011682018060405250810190611685919061307a565b905090565b606060018054610c79906130fb565b61106d3383836121cb565b600d54158015906116b6575042600d54105b6116f65760405162461bcd60e51b8152602060048201526011602482015270596f752061726520746f6f206561726c7960781b6044820152606401610841565b600061170061192d565b3360009081526014602052604090205490915061175f5760405162461bcd60e51b815260206004820152601c60248201527f796f752068617665206e6f20726573657276656420706f7373756d73000000006044820152606401610841565b428110806117705750612710601154145b61177957600080fd5b600080601260009054906101000a90046001600160a01b03166001600160a01b031663eb6ad24e6040518163ffffffff1660e01b8152600401602060405180830381865afa1580156117cf573d6000803e3d6000fd5b505050506040513d601f19601f820116820180604052508101906117f3919061307a565b9050806118425760405162461bcd60e51b815260206004820152601f60248201527f506f7373756d73206e6f7420726561647920746f20626520636c61696d6564006044820152606401610841565b60005b33600090815260146020526040902054811015610c5357336000908152601460205260408120805484919084908110611880576118806131d3565b906000526020600020015461189591906130c8565b90506118a460016127106131e9565b8111156118df576118b7600160646131e9565b6118c460016127106131e9565b6118ce90836131e9565b6118d891906130c8565b93506118e3565b8093505b6118ed3385611fca565b33600090815260146020526040812080548490811061190e5761190e6131d3565b6000918252602090912001555080611925816130e0565b915050611845565b601254604080516344657d2760e11b815290516000926001600160a01b0316916388cafa4e9160048083019260209291908290030181865afa158015611661573d6000803e3d6000fd5b6119813383611ca2565b61199d5760405162461bcd60e51b815260040161084190613130565b610c538484848461229a565b6007546001600160a01b031633146119d35760405162461bcd60e51b815260040161084190613181565b6040516370a0823160e01b81523060048201526000906001600160a01b038416906370a0823190602401602060405180830381865afa158015611a1a573d6000803e3d6000fd5b505050506040513d601f19601f82011682018060405250810190611a3e919061307a565b11611a9d5760405162461bcd60e51b815260206004820152602960248201527f7468697320636f6e747261637420646f6573206e6f7420636f6e7461696e20746044820152683434b9903a37b5b2b760b91b6064820152608401610841565b60405163a9059cbb60e01b8152336004820152602481018290526001600160a01b0383169063a9059cbb906044016020604051808303816000875af1158015611aea573d6000803e3d6000fd5b505050506040513d601f19601f82011682018060405250810190610e9591906131b6565b6060610c64826122cd565b606060108054610c79906130fb565b6007546001600160a01b03163314611b525760405162461bcd60e51b815260040161084190613181565b600e55565b6007546001600160a01b03163314611b815760405162461bcd60e51b815260040161084190613181565b6001600160a01b038116611be65760405162461bcd60e51b815260206004820152602660248201527f4f776e61626c653a206e6577206f776e657220697320746865207a65726f206160448201526564647265737360d01b6064820152608401610841565b611bef816120fe565b50565b60006001600160e01b0319821663780e9d6360e01b1480610c645750610c648261242f565b6000908152600260205260409020546001600160a01b0316151590565b600081815260046020526040902080546001600160a01b0319166001600160a01b0384169081179091558190611c69826112d3565b6001600160a01b03167f8c5be1e5ebec7d5bd14f71427d1e84f3dd0314c0f7b2291e5b200ac8c7c3b92560405160405180910390a45050565b6000611cad82611c17565b611d0e5760405162461bcd60e51b815260206004820152602c60248201527f4552433732313a206f70657261746f7220717565727920666f72206e6f6e657860448201526b34b9ba32b73a103a37b5b2b760a11b6064820152608401610841565b6000611d19836112d3565b9050806001600160a01b0316846001600160a01b03161480611d545750836001600160a01b0316611d4984610cfc565b6001600160a01b0316145b80611d8457506001600160a01b0380821660009081526005602090815260408083209388168352929052205460ff165b949350505050565b826001600160a01b0316611d9f826112d3565b6001600160a01b031614611e075760405162461bcd60e51b815260206004820152602960248201527f4552433732313a207472616e73666572206f6620746f6b656e2074686174206960448201526839903737ba1037bbb760b91b6064820152608401610841565b6001600160a01b038216611e695760405162461bcd60e51b8152602060048201526024808201527f4552433732313a207472616e7366657220746f20746865207a65726f206164646044820152637265737360e01b6064820152608401610841565b611e7483838361247f565b611e7f600082611c34565b6001600160a01b0383166000908152600360205260408120805460019290611ea89084906131e9565b90915550506001600160a01b0382166000908152600360205260408120805460019290611ed69084906130c8565b909155505060008181526002602052604080822080546001600160a01b0319166001600160a01b0386811691821790925591518493918716917fddf252ad1be2c89b69c2b068fc378daa952ba7f163c4a11628f55a4df523b3ef91a4505050565b600c5460ff16611f805760405162461bcd60e51b815260206004820152601460248201527314185d5cd8589b194e881b9bdd081c185d5cd95960621b6044820152606401610841565b600c805460ff191690557f5db9ee0a495bf2e6ff9c91a7834c1ba4fdd244a5e8aa4e537bd38aeae4b073aa335b6040516001600160a01b03909116815260200160405180910390a1565b612710600f54111561201e5760405162461bcd60e51b815260206004820152601c60248201527f616c6c20506f7373756d732068617665206265656e206d696e746564000000006044820152606401610841565b61202882826124d0565b6120bc8160108054612039906130fb565b80601f0160208091040260200160405190810160405280929190818152602001828054612065906130fb565b80156120b25780601f10612087576101008083540402835291602001916120b2565b820191906000526020600020905b81548152906001019060200180831161209557829003601f168201915b50505050506124ea565b600f80549060006120cc836130e0565b90915550506001600160a01b03821660009081526013602052604081208054916120f5836130e0565b91905055505050565b600780546001600160a01b038381166001600160a01b0319831681179093556040519116919082907f8be0079c531659141344cd1fd0a4f28419497f9722a3daafe3b4186f6b6457e090600090a35050565b600c5460ff16156121965760405162461bcd60e51b815260206004820152601060248201526f14185d5cd8589b194e881c185d5cd95960821b6044820152606401610841565b600c805460ff191660011790557f62e78cea01bee320cd4e420270b5ea74000d11b0c9f74754ebdbfc544b05a258611fad3390565b816001600160a01b0316836001600160a01b0316141561222d5760405162461bcd60e51b815260206004820152601960248201527f4552433732313a20617070726f766520746f2063616c6c6572000000000000006044820152606401610841565b6001600160a01b03838116600081815260056020908152604080832094871680845294825291829020805460ff191686151590811790915591519182527f17307eab39ab6107e8899845ad3d59bd9653f200f220920489ca2b5937696c31910160405180910390a3505050565b6122a5848484611d8c565b6122b184848484612575565b610c535760405162461bcd60e51b815260040161084190613200565b60606122d882611c17565b61233e5760405162461bcd60e51b815260206004820152603160248201527f45524337323155524953746f726167653a2055524920717565727920666f72206044820152703737b732bc34b9ba32b73a103a37b5b2b760791b6064820152608401610841565b60008281526006602052604081208054612357906130fb565b80601f0160208091040260200160405190810160405280929190818152602001828054612383906130fb565b80156123d05780601f106123a5576101008083540402835291602001916123d0565b820191906000526020600020905b8154815290600101906020018083116123b357829003601f168201915b5050505050905060006123e1611b19565b90508051600014156123f4575092915050565b81511561242657808260405160200161240e929190613252565b60405160208183030381529060405292505050919050565b611d8484612673565b60006001600160e01b031982166380ac58cd60e01b148061246057506001600160e01b03198216635b5e139f60e01b145b80610c6457506301ffc9a760e01b6001600160e01b0319831614610c64565b600c5460ff16156124c55760405162461bcd60e51b815260206004820152601060248201526f14185d5cd8589b194e881c185d5cd95960821b6044820152606401610841565b610e9583838361273e565b61106d8282604051806020016040528060008152506127f6565b6124f382611c17565b6125565760405162461bcd60e51b815260206004820152602e60248201527f45524337323155524953746f726167653a2055524920736574206f66206e6f6e60448201526d32bc34b9ba32b73a103a37b5b2b760911b6064820152608401610841565b60008281526006602090815260409091208251610e9592840190612c7a565b60006001600160a01b0384163b1561266857604051630a85bd0160e11b81526001600160a01b0385169063150b7a02906125b9903390899088908890600401613281565b6020604051808303816000875af19250505080156125f4575060408051601f3d908101601f191682019092526125f1918101906132be565b60015b61264e573d808015612622576040519150601f19603f3d011682016040523d82523d6000602084013e612627565b606091505b5080516126465760405162461bcd60e51b815260040161084190613200565b805181602001fd5b6001600160e01b031916630a85bd0160e11b149050611d84565b506001949350505050565b606061267e82611c17565b6126e25760405162461bcd60e51b815260206004820152602f60248201527f4552433732314d657461646174613a2055524920717565727920666f72206e6f60448201526e3732bc34b9ba32b73a103a37b5b2b760891b6064820152608401610841565b60006126ec611b19565b9050600081511161270c5760405180602001604052806000815250612737565b8061271684612829565b604051602001612727929190613252565b6040516020818303038152906040525b9392505050565b6001600160a01b0383166127995761279481600a80546000838152600b60205260408120829055600182018355919091527fc65a7bb8d6351c1cf70c95a316cc6a92839c986682d98bc35f958f4883f9d2a80155565b6127bc565b816001600160a01b0316836001600160a01b0316146127bc576127bc8382612927565b6001600160a01b0382166127d357610e95816129c4565b826001600160a01b0316826001600160a01b031614610e9557610e958282612a73565b6128008383612ab7565b61280d6000848484612575565b610e955760405162461bcd60e51b815260040161084190613200565b60608161284d5750506040805180820190915260018152600360fc1b602082015290565b8160005b81156128775780612861816130e0565b91506128709050600a836132f1565b9150612851565b60008167ffffffffffffffff81111561289257612892612f56565b6040519080825280601f01601f1916602001820160405280156128bc576020820181803683370190505b5090505b8415611d84576128d16001836131e9565b91506128de600a86613305565b6128e99060306130c8565b60f81b8183815181106128fe576128fe6131d3565b60200101906001600160f81b031916908160001a905350612920600a866132f1565b94506128c0565b60006001612934846113d8565b61293e91906131e9565b600083815260096020526040902054909150808214612991576001600160a01b03841660009081526008602090815260408083208584528252808320548484528184208190558352600990915290208190555b5060009182526009602090815260408084208490556001600160a01b039094168352600881528383209183525290812055565b600a546000906129d6906001906131e9565b6000838152600b6020526040812054600a80549394509092849081106129fe576129fe6131d3565b9060005260206000200154905080600a8381548110612a1f57612a1f6131d3565b6000918252602080832090910192909255828152600b9091526040808220849055858252812055600a805480612a5757612a57613319565b6001900381819060005260206000200160009055905550505050565b6000612a7e836113d8565b6001600160a01b039093166000908152600860209081526040808320868452825280832085905593825260099052919091209190915550565b6001600160a01b038216612b0d5760405162461bcd60e51b815260206004820181905260248201527f4552433732313a206d696e7420746f20746865207a65726f20616464726573736044820152606401610841565b612b1681611c17565b15612b635760405162461bcd60e51b815260206004820152601c60248201527f4552433732313a20746f6b656e20616c7265616479206d696e746564000000006044820152606401610841565b612b6f6000838361247f565b6001600160a01b0382166000908152600360205260408120805460019290612b989084906130c8565b909155505060008181526002602052604080822080546001600160a01b0319166001600160a01b03861690811790915590518392907fddf252ad1be2c89b69c2b068fc378daa952ba7f163c4a11628f55a4df523b3ef908290a45050565b828054612c02906130fb565b90600052602060002090601f016020900481019282612c245760008555612c6a565b82601f10612c3d5782800160ff19823516178555612c6a565b82800160010185558215612c6a579182015b82811115612c6a578235825591602001919060010190612c4f565b50612c76929150612cee565b5090565b828054612c86906130fb565b90600052602060002090601f016020900481019282612ca85760008555612c6a565b82601f10612cc157805160ff1916838001178555612c6a565b82800160010185558215612c6a579182015b82811115612c6a578251825591602001919060010190612cd3565b5b80821115612c765760008155600101612cef565b600060208284031215612d1557600080fd5b5035919050565b6001600160e01b031981168114611bef57600080fd5b600060208284031215612d4457600080fd5b813561273781612d1c565b60005b83811015612d6a578181015183820152602001612d52565b83811115610c535750506000910152565b60008151808452612d93816020860160208601612d4f565b601f01601f19169290920160200192915050565b6020815260006127376020830184612d7b565b6001600160a01b0381168114611bef57600080fd5b60008060408385031215612de257600080fd5b8235612ded81612dba565b946020939093013593505050565b600080600060608486031215612e1057600080fd5b8335612e1b81612dba565b92506020840135612e2b81612dba565b929592945050506040919091013590565b60008060208385031215612e4f57600080fd5b823567ffffffffffffffff80821115612e6757600080fd5b818501915085601f830112612e7b57600080fd5b813581811115612e8a57600080fd5b866020828501011115612e9c57600080fd5b60209290920196919550909350505050565b600060208284031215612ec057600080fd5b813561273781612dba565b6020808252825182820181905260009190848201906040850190845b81811015612f0357835183529284019291840191600101612ee7565b50909695505050505050565b8015158114611bef57600080fd5b60008060408385031215612f3057600080fd5b8235612f3b81612dba565b91506020830135612f4b81612f0f565b809150509250929050565b634e487b7160e01b600052604160045260246000fd5b60008060008060808587031215612f8257600080fd5b8435612f8d81612dba565b93506020850135612f9d81612dba565b925060408501359150606085013567ffffffffffffffff80821115612fc157600080fd5b818701915087601f830112612fd557600080fd5b813581811115612fe757612fe7612f56565b604051601f8201601f19908116603f0116810190838211818310171561300f5761300f612f56565b816040528281528a602084870101111561302857600080fd5b82602086016020830137600060208483010152809550505050505092959194509250565b6000806040838503121561305f57600080fd5b823561306a81612dba565b91506020830135612f4b81612dba565b60006020828403121561308c57600080fd5b5051919050565b634e487b7160e01b600052601160045260246000fd5b60008160001904831182151516156130c3576130c3613093565b500290565b600082198211156130db576130db613093565b500190565b60006000198214156130f4576130f4613093565b5060010190565b600181811c9082168061310f57607f821691505b602082108114156115df57634e487b7160e01b600052602260045260246000fd5b60208082526031908201527f4552433732313a207472616e736665722063616c6c6572206973206e6f74206f6040820152701ddb995c881b9bdc88185c1c1c9bdd9959607a1b606082015260800190565b6020808252818101527f4f776e61626c653a2063616c6c6572206973206e6f7420746865206f776e6572604082015260600190565b6000602082840312156131c857600080fd5b815161273781612f0f565b634e487b7160e01b600052603260045260246000fd5b6000828210156131fb576131fb613093565b500390565b60208082526032908201527f4552433732313a207472616e7366657220746f206e6f6e20455243373231526560408201527131b2b4bb32b91034b6b83632b6b2b73a32b960711b606082015260800190565b60008351613264818460208801612d4f565b835190830190613278818360208801612d4f565b01949350505050565b6001600160a01b03858116825284166020820152604081018390526080606082018190526000906132b490830184612d7b565b9695505050505050565b6000602082840312156132d057600080fd5b815161273781612d1c565b634e487b7160e01b600052601260045260246000fd5b600082613300576133006132db565b500490565b600082613314576133146132db565b500690565b634e487b7160e01b600052603160045260246000fdfea26469706673582212204ada9c49ca2fd6f0d4a502cd9ad0faebce64e958405aa1987126a5ab86b1dcb064736f6c634300080a0033",
  "linkReferences": {},
  "deployedLinkReferences": {}
}