{
  "_format": "hh-sol-artifact-1",
  "contractName": "Randomness",
  "sourceName": "contracts/Randomness.sol",
  "abi": [
    {
      "inputs": [
        {
          "internalType": "address",
          "name": "_VRFAddress",
          "type": "address"
        },
        {
          "internalType": "address",
          "name": "_linkToken",
          "type": "address"
        },
        {
          "internalType": "bytes32",
          "name": "_keyHash",
          "type": "bytes32"
        },
        {
          "internalType": "uint256",
          "name": "_fee",
          "type": "uint256"
        },
        {
          "internalType": "uint256",
          "name": "_claimableDate",
          "type": "uint256"
        }
      ],
      "stateMutability": "nonpayable",
      "type": "constructor"
    },
    {
      "anonymous": false,
      "inputs": [
        {
          "indexed": true,
          "internalType": "address",
          "name": "previousOwner",
          "type": "address"
        },
        {
          "indexed": true,
          "internalType": "address",
          "name": "newOwner",
          "type": "address"
        }
      ],
      "name": "OwnershipTransferred",
      "type": "event"
    },
    {
      "inputs": [],
      "name": "claimableDate",
      "outputs": [
        {
          "internalType": "uint256",
          "name": "",
          "type": "uint256"
        }
      ],
      "stateMutability": "view",
      "type": "function"
    },
    {
      "inputs": [],
      "name": "executeOffset",
      "outputs": [
        {
          "internalType": "bool",
          "name": "",
          "type": "bool"
        }
      ],
      "stateMutability": "nonpayable",
      "type": "function"
    },
    {
      "inputs": [
        {
          "internalType": "uint256",
          "name": "_premintCount",
          "type": "uint256"
        }
      ],
      "name": "executePremint",
      "outputs": [],
      "stateMutability": "nonpayable",
      "type": "function"
    },
    {
      "inputs": [],
      "name": "fee",
      "outputs": [
        {
          "internalType": "uint256",
          "name": "",
          "type": "uint256"
        }
      ],
      "stateMutability": "view",
      "type": "function"
    },
    {
      "inputs": [],
      "name": "getAvailablePossums",
      "outputs": [
        {
          "internalType": "uint256",
          "name": "",
          "type": "uint256"
        }
      ],
      "stateMutability": "view",
      "type": "function"
    },
    {
      "inputs": [],
      "name": "getClaimableDate",
      "outputs": [
        {
          "internalType": "uint256",
          "name": "",
          "type": "uint256"
        }
      ],
      "stateMutability": "view",
      "type": "function"
    },
    {
      "inputs": [],
      "name": "getOffset",
      "outputs": [
        {
          "internalType": "uint256",
          "name": "",
          "type": "uint256"
        }
      ],
      "stateMutability": "view",
      "type": "function"
    },
    {
      "inputs": [],
      "name": "getPossumToBeClaimed",
      "outputs": [
        {
          "internalType": "uint256",
          "name": "tokenId",
          "type": "uint256"
        }
      ],
      "stateMutability": "nonpayable",
      "type": "function"
    },
    {
      "inputs": [],
      "name": "getPremint",
      "outputs": [
        {
          "internalType": "bool",
          "name": "",
          "type": "bool"
        }
      ],
      "stateMutability": "view",
      "type": "function"
    },
    {
      "inputs": [],
      "name": "getTrash",
      "outputs": [
        {
          "internalType": "address",
          "name": "",
          "type": "address"
        }
      ],
      "stateMutability": "view",
      "type": "function"
    },
    {
      "inputs": [],
      "name": "keyHash",
      "outputs": [
        {
          "internalType": "bytes32",
          "name": "",
          "type": "bytes32"
        }
      ],
      "stateMutability": "view",
      "type": "function"
    },
    {
      "inputs": [],
      "name": "offsetExecuted",
      "outputs": [
        {
          "internalType": "bool",
          "name": "",
          "type": "bool"
        }
      ],
      "stateMutability": "view",
      "type": "function"
    },
    {
      "inputs": [],
      "name": "owner",
      "outputs": [
        {
          "internalType": "address",
          "name": "",
          "type": "address"
        }
      ],
      "stateMutability": "view",
      "type": "function"
    },
    {
      "inputs": [],
      "name": "premintExecuted",
      "outputs": [
        {
          "internalType": "bool",
          "name": "",
          "type": "bool"
        }
      ],
      "stateMutability": "view",
      "type": "function"
    },
    {
      "inputs": [],
      "name": "randomIdOffset",
      "outputs": [
        {
          "internalType": "uint256",
          "name": "",
          "type": "uint256"
        }
      ],
      "stateMutability": "view",
      "type": "function"
    },
    {
      "inputs": [],
      "name": "randomIdOffsetExecuted",
      "outputs": [
        {
          "internalType": "bool",
          "name": "",
          "type": "bool"
        }
      ],
      "stateMutability": "view",
      "type": "function"
    },
    {
      "inputs": [
        {
          "internalType": "bytes32",
          "name": "requestId",
          "type": "bytes32"
        },
        {
          "internalType": "uint256",
          "name": "randomness",
          "type": "uint256"
        }
      ],
      "name": "rawFulfillRandomness",
      "outputs": [],
      "stateMutability": "nonpayable",
      "type": "function"
    },
    {
      "inputs": [],
      "name": "renounceOwnership",
      "outputs": [],
      "stateMutability": "nonpayable",
      "type": "function"
    },
    {
      "inputs": [
        {
          "internalType": "uint256",
          "name": "_claimable",
          "type": "uint256"
        }
      ],
      "name": "setClaimableDate",
      "outputs": [],
      "stateMutability": "nonpayable",
      "type": "function"
    },
    {
      "inputs": [
        {
          "internalType": "address",
          "name": "trash",
          "type": "address"
        }
      ],
      "name": "setTrash",
      "outputs": [],
      "stateMutability": "nonpayable",
      "type": "function"
    },
    {
      "inputs": [
        {
          "internalType": "address",
          "name": "newOwner",
          "type": "address"
        }
      ],
      "name": "transferOwnership",
      "outputs": [],
      "stateMutability": "nonpayable",
      "type": "function"
    }
  ],
  "bytecode": "0x611b5860c081815262036be06040529060e062036b00803683375050815162000030926008925060200190620000fd565b503480156200003e57600080fd5b506040516200115838038062001158833981016040819052620000619162000181565b84846200006e33620000ad565b6001600160a01b0391821660a0528116608052600493909355600380546001600160a01b031916959093169490941790915560025550600655620001d4565b600080546001600160a01b038381166001600160a01b0319831681178455604051919092169283917f8be0079c531659141344cd1fd0a4f28419497f9722a3daafe3b4186f6b6457e09190a35050565b8280548282559060005260206000209081019282156200013b579160200282015b828111156200013b5782518255916020019190600101906200011e565b50620001499291506200014d565b5090565b5b808211156200014957600081556001016200014e565b80516001600160a01b03811681146200017c57600080fd5b919050565b600080600080600060a086880312156200019a57600080fd5b620001a58662000164565b9450620001b56020870162000164565b6040870151606088015160809098015196999198509695945092505050565b60805160a051610f5062000208600039600081816103250152610bdc015260008181610abb0152610bad0152610f506000f3fe608060405234801561001057600080fd5b50600436106101375760003560e01c806396880d8b116100b8578063ddca3f431161007c578063ddca3f431461022b578063de166edc14610234578063e4564d2814610248578063eb6ad24e1461025b578063f2548bb314610263578063f2fde38b1461027657600080fd5b806396880d8b146101fa5780639b48f48414610203578063be374b7a1461020e578063c6410f7b1461021b578063cdbfc9501461022357600080fd5b80638481de5f116100ff5780638481de5f146101b357806388cafa4e146101bb5780638da5cb5b146101c357806391168614146101d457806394985ddd146101e757600080fd5b8063102611461461013c5780632664a8ae1461016b578063551a82cf1461018957806361728f39146101a0578063715018a6146101a9575b600080fd5b60075461010090046001600160a01b03165b6040516001600160a01b0390911681526020015b60405180910390f35b600754600160a81b900460ff165b6040519015158152602001610162565b61019260065481565b604051908152602001610162565b61019260045481565b6101b1610289565b005b600854610192565b600654610192565b6000546001600160a01b031661014e565b6101b16101e2366004610d2c565b6102c8565b6101b16101f5366004610d55565b61031a565b61019260055481565b60075460ff16610179565b6007546101799060ff1681565b6101926103a0565b610179610667565b61019260025481565b60075461017990600160a81b900460ff1681565b6101b1610256366004610d77565b61073b565b600554610192565b6101b1610271366004610d77565b610871565b6101b1610284366004610d2c565b6108a0565b6000546001600160a01b031633146102bc5760405162461bcd60e51b81526004016102b390610d90565b60405180910390fd5b6102c6600061093b565b565b6000546001600160a01b031633146102f25760405162461bcd60e51b81526004016102b390610d90565b600780546001600160a01b0390921661010002610100600160a81b0319909216919091179055565b336001600160a01b037f000000000000000000000000000000000000000000000000000000000000000016146103925760405162461bcd60e51b815260206004820152601f60248201527f4f6e6c7920565246436f6f7264696e61746f722063616e2066756c66696c6c0060448201526064016102b3565b61039c828261098b565b5050565b60075460009061010090046001600160a01b031633146103fd5760405162461bcd60e51b81526020600482015260186024820152776f6e6c792054726173682063616e2063616c6c207468697360401b60448201526064016102b3565b6000610407610a03565b90506008818154811061041c5761041c610dc5565b9060005260206000200154600014801561046057506008805461044190600190610df1565b8154811061045157610451610dc5565b90600052602060002001546000145b1561049d57600854909150819061047990600190610df1565b6008828154811061048c5761048c610dc5565b60009182526020909120015561063c565b600881815481106104b0576104b0610dc5565b90600052602060002001546000141580156104f55750600880546104d690600190610df1565b815481106104e6576104e6610dc5565b90600052602060002001546000145b1561052c576008818154811061050d5761050d610dc5565b9060005260206000200154915060016008805490506104799190610df1565b6008818154811061053f5761053f610dc5565b906000526020600020015460001415801561058557506008805461056590600190610df1565b8154811061057557610575610dc5565b9060005260206000200154600014155b156105ec576008818154811061059d5761059d610dc5565b90600052602060002001549150600860016008805490506105be9190610df1565b815481106105ce576105ce610dc5565b90600052602060002001546008828154811061048c5761048c610dc5565b60088054919250829161060190600190610df1565b8154811061061157610611610dc5565b90600052602060002001546008828154811061062f5761062f610dc5565b6000918252602090912001555b600880548061064d5761064d610e08565b600190038181906000526020600020016000905590555090565b60075460009060ff16156106bd5760405162461bcd60e51b815260206004820152601760248201527f6f666673657420616c726561647920657865637574656400000000000000000060448201526064016102b3565b60085415806106cd575060065442115b6107195760405162461bcd60e51b815260206004820152601960248201527f43616e6e6f742065786563757465206f6666736574207965740000000000000060448201526064016102b3565b600a600555610726610a93565b50506007805460ff1916600190811790915590565b60075461010090046001600160a01b031633146107955760405162461bcd60e51b81526020600482015260186024820152776f6e6c792054726173682063616e2063616c6c207468697360401b60448201526064016102b3565b600754600160a81b900460ff16156107e75760405162461bcd60e51b815260206004820152601560248201527463616e206f6e6c79207072656d696e74206f6e636560581b60448201526064016102b3565b60005b8181101561085a5760085461080190600190610df1565b6008828154811061081457610814610dc5565b600091825260209091200155600880548061083157610831610e08565b60019003818190600052602060002001600090559055808061085290610e1e565b9150506107ea565b50506007805460ff60a81b1916600160a81b179055565b6000546001600160a01b0316331461089b5760405162461bcd60e51b81526004016102b390610d90565b600655565b6000546001600160a01b031633146108ca5760405162461bcd60e51b81526004016102b390610d90565b6001600160a01b03811661092f5760405162461bcd60e51b815260206004820152602660248201527f4f776e61626c653a206e6577206f776e657220697320746865207a65726f206160448201526564647265737360d01b60648201526084016102b3565b6109388161093b565b50565b600080546001600160a01b038381166001600160a01b0319831681178455604051919092169283917f8be0079c531659141344cd1fd0a4f28419497f9722a3daafe3b4186f6b6457e09190a35050565b6003546001600160a01b0316331480156109a457508115155b6109f05760405162461bcd60e51b815260206004820181905260248201527f6f6e6c792056524620436f6f7264696e61746f722063616e2066756c66696c6c60448201526064016102b3565b6109fc61177082610e39565b6005555050565b6008546000908190610a16600143610df1565b6040805160208101939093529040908201526bffffffffffffffffffffffff1941606090811b82168184015244607484015233901b16609482015260a80160408051601f198184030181529190528051602090910120600854909150600090600190610a829084610e39565b610a8c9190610df1565b9392505050565b60004260065410610aa357600080fd5b6002546040516370a0823160e01b81523060048201527f00000000000000000000000000000000000000000000000000000000000000006001600160a01b0316906370a0823190602401602060405180830381865afa158015610b0a573d6000803e3d6000fd5b505050506040513d601f19601f82011682018060405250810190610b2e9190610e5b565b1015610b965760405162461bcd60e51b815260206004820152603160248201527f4e6f7420656e6f756768204c696e6b2020696e20636f6e747261637420746f2060448201527033b2ba103930b73237b690373ab6b132b960791b60648201526084016102b3565b610ba4600454600254610ba9565b905090565b60007f00000000000000000000000000000000000000000000000000000000000000006001600160a01b0316634000aea07f000000000000000000000000000000000000000000000000000000000000000084866000604051602001610c19929190918252602082015260400190565b6040516020818303038152906040526040518463ffffffff1660e01b8152600401610c4693929190610e74565b6020604051808303816000875af1158015610c65573d6000803e3d6000fd5b505050506040513d601f19601f82011682018060405250810190610c899190610ee0565b50600083815260016020818152604080842054815180840189905280830186905230606082015260808082018390528351808303909101815260a09091019092528151918301919091209387905290829052610ce491610f02565b600085815260016020526040902055610d248482604080516020808201949094528082019290925280518083038201815260609092019052805191012090565b949350505050565b600060208284031215610d3e57600080fd5b81356001600160a01b0381168114610a8c57600080fd5b60008060408385031215610d6857600080fd5b50508035926020909101359150565b600060208284031215610d8957600080fd5b5035919050565b6020808252818101527f4f776e61626c653a2063616c6c6572206973206e6f7420746865206f776e6572604082015260600190565b634e487b7160e01b600052603260045260246000fd5b634e487b7160e01b600052601160045260246000fd5b600082821015610e0357610e03610ddb565b500390565b634e487b7160e01b600052603160045260246000fd5b6000600019821415610e3257610e32610ddb565b5060010190565b600082610e5657634e487b7160e01b600052601260045260246000fd5b500690565b600060208284031215610e6d57600080fd5b5051919050565b60018060a01b038416815260006020848184015260606040840152835180606085015260005b81811015610eb657858101830151858201608001528201610e9a565b81811115610ec8576000608083870101525b50601f01601f19169290920160800195945050505050565b600060208284031215610ef257600080fd5b81518015158114610a8c57600080fd5b60008219821115610f1557610f15610ddb565b50019056fea2646970667358221220dcd1199605fcd6ca691b6f81154c283b304ab8914399f348f0cd54aca7f47bb364736f6c634300080a0033",
  "linkReferences": {},
  "deployedLinkReferences": {}
}