{
  "_format": "hh-sol-artifact-1",
  "contractName": "Randomness",
  "sourceName": "contracts/Randomness.sol",
  "abi": [
    {
      "inputs": [
        {
          "internalType": "address",
          "name": "_VRFAddress",
          "type": "address"
        },
        {
          "internalType": "address",
          "name": "_linkToken",
          "type": "address"
        },
        {
          "internalType": "bytes32",
          "name": "_keyHash",
          "type": "bytes32"
        },
        {
          "internalType": "uint256",
          "name": "_fee",
          "type": "uint256"
        },
        {
          "internalType": "uint256",
          "name": "claimableDate",
          "type": "uint256"
        }
      ],
      "stateMutability": "nonpayable",
      "type": "constructor"
    },
    {
      "anonymous": false,
      "inputs": [
        {
          "indexed": true,
          "internalType": "address",
          "name": "previousOwner",
          "type": "address"
        },
        {
          "indexed": true,
          "internalType": "address",
          "name": "newOwner",
          "type": "address"
        }
      ],
      "name": "OwnershipTransferred",
      "type": "event"
    },
    {
      "inputs": [],
      "name": "claimableDate",
      "outputs": [
        {
          "internalType": "uint256",
          "name": "",
          "type": "uint256"
        }
      ],
      "stateMutability": "view",
      "type": "function"
    },
    {
      "inputs": [],
      "name": "executeOffset",
      "outputs": [
        {
          "internalType": "bool",
          "name": "",
          "type": "bool"
        }
      ],
      "stateMutability": "nonpayable",
      "type": "function"
    },
    {
      "inputs": [
        {
          "internalType": "uint256",
          "name": "_premintCount",
          "type": "uint256"
        }
      ],
      "name": "executePremint",
      "outputs": [],
      "stateMutability": "nonpayable",
      "type": "function"
    },
    {
      "inputs": [],
      "name": "fee",
      "outputs": [
        {
          "internalType": "uint256",
          "name": "",
          "type": "uint256"
        }
      ],
      "stateMutability": "view",
      "type": "function"
    },
    {
      "inputs": [],
      "name": "getAvailablePossums",
      "outputs": [
        {
          "internalType": "uint256",
          "name": "",
          "type": "uint256"
        }
      ],
      "stateMutability": "view",
      "type": "function"
    },
    {
      "inputs": [],
      "name": "getClaimableDate",
      "outputs": [
        {
          "internalType": "uint256",
          "name": "",
          "type": "uint256"
        }
      ],
      "stateMutability": "view",
      "type": "function"
    },
    {
      "inputs": [],
      "name": "getOffset",
      "outputs": [
        {
          "internalType": "uint256",
          "name": "",
          "type": "uint256"
        }
      ],
      "stateMutability": "view",
      "type": "function"
    },
    {
      "inputs": [],
      "name": "getTrash",
      "outputs": [
        {
          "internalType": "address",
          "name": "",
          "type": "address"
        }
      ],
      "stateMutability": "view",
      "type": "function"
    },
    {
      "inputs": [],
      "name": "keyHash",
      "outputs": [
        {
          "internalType": "bytes32",
          "name": "",
          "type": "bytes32"
        }
      ],
      "stateMutability": "view",
      "type": "function"
    },
    {
      "inputs": [],
      "name": "offsetExecuted",
      "outputs": [
        {
          "internalType": "bool",
          "name": "",
          "type": "bool"
        }
      ],
      "stateMutability": "view",
      "type": "function"
    },
    {
      "inputs": [],
      "name": "owner",
      "outputs": [
        {
          "internalType": "address",
          "name": "",
          "type": "address"
        }
      ],
      "stateMutability": "view",
      "type": "function"
    },
    {
      "inputs": [],
      "name": "popArray",
      "outputs": [],
      "stateMutability": "nonpayable",
      "type": "function"
    },
    {
      "inputs": [],
      "name": "premintExecuted",
      "outputs": [
        {
          "internalType": "bool",
          "name": "",
          "type": "bool"
        }
      ],
      "stateMutability": "view",
      "type": "function"
    },
    {
      "inputs": [],
      "name": "randomIdOffset",
      "outputs": [
        {
          "internalType": "uint256",
          "name": "",
          "type": "uint256"
        }
      ],
      "stateMutability": "view",
      "type": "function"
    },
    {
      "inputs": [],
      "name": "randomIdOffsetExecuted",
      "outputs": [
        {
          "internalType": "bool",
          "name": "",
          "type": "bool"
        }
      ],
      "stateMutability": "view",
      "type": "function"
    },
    {
      "inputs": [
        {
          "internalType": "bytes32",
          "name": "requestId",
          "type": "bytes32"
        },
        {
          "internalType": "uint256",
          "name": "randomness",
          "type": "uint256"
        }
      ],
      "name": "rawFulfillRandomness",
      "outputs": [],
      "stateMutability": "nonpayable",
      "type": "function"
    },
    {
      "inputs": [],
      "name": "renounceOwnership",
      "outputs": [],
      "stateMutability": "nonpayable",
      "type": "function"
    },
    {
      "inputs": [
        {
          "internalType": "uint256",
          "name": "index",
          "type": "uint256"
        },
        {
          "internalType": "uint256",
          "name": "key",
          "type": "uint256"
        }
      ],
      "name": "setArray",
      "outputs": [],
      "stateMutability": "nonpayable",
      "type": "function"
    },
    {
      "inputs": [
        {
          "internalType": "uint256",
          "name": "_claimable",
          "type": "uint256"
        }
      ],
      "name": "setClaimable",
      "outputs": [],
      "stateMutability": "nonpayable",
      "type": "function"
    },
    {
      "inputs": [
        {
          "internalType": "address",
          "name": "trash",
          "type": "address"
        }
      ],
      "name": "setTrash",
      "outputs": [],
      "stateMutability": "nonpayable",
      "type": "function"
    },
    {
      "inputs": [
        {
          "internalType": "address",
          "name": "newOwner",
          "type": "address"
        }
      ],
      "name": "transferOwnership",
      "outputs": [],
      "stateMutability": "nonpayable",
      "type": "function"
    }
  ],
  "bytecode": "0x61271060c08181526204e2e06040529060e06204e200803683375050815162000030926008925060200190620000fa565b503480156200003e57600080fd5b5060405162000ecf38038062000ecf83398101604081905262000061916200017e565b84846200006e33620000aa565b6001600160a01b0391821660a052811660805260049390935550600380546001600160a01b0319169490921693909317905550600255620001d1565b600080546001600160a01b038381166001600160a01b0319831681178455604051919092169283917f8be0079c531659141344cd1fd0a4f28419497f9722a3daafe3b4186f6b6457e09190a35050565b82805482825590600052602060002090810192821562000138579160200282015b82811115620001385782518255916020019190600101906200011b565b50620001469291506200014a565b5090565b5b808211156200014657600081556001016200014b565b80516001600160a01b03811681146200017957600080fd5b919050565b600080600080600060a086880312156200019757600080fd5b620001a28662000161565b9450620001b26020870162000161565b6040870151606088015160809098015196999198509695945092505050565b60805160a051610cca620002056000396000818161038d01526109180152600081816107f701526108e90152610cca6000f3fe608060405234801561001057600080fd5b50600436106101375760003560e01c806396880d8b116100b8578063cdbfc9501161007c578063cdbfc95014610237578063ddca3f431461023f578063de166edc14610248578063e4564d281461025c578063eb6ad24e1461026f578063f2fde38b1461027757600080fd5b806396880d8b146101ef5780639b48f484146101f8578063ace6f90c1461020f578063ae713d2a14610222578063be374b7a1461022a57600080fd5b80638481de5f116100ff5780638481de5f146101a857806388cafa4e146101b05780638da5cb5b146101b857806391168614146101c957806394985ddd146101dc57600080fd5b80630dca60821461013c5780631026114614610151578063551a82cf1461018057806361728f3914610197578063715018a6146101a0575b600080fd5b61014f61014a366004610a68565b61028a565b005b60075461010090046001600160a01b03165b6040516001600160a01b0390911681526020015b60405180910390f35b61018960065481565b604051908152602001610177565b61018960045481565b61014f6102fa565b600854610189565b600654610189565b6000546001600160a01b0316610163565b61014f6101d7366004610a8a565b610330565b61014f6101ea366004610a68565b610382565b61018960055481565b60075460ff165b6040519015158152602001610177565b61014f61021d366004610aba565b610408565b61014f610437565b6007546101ff9060ff1681565b6101ff61048f565b61018960025481565b6007546101ff90600160a81b900460ff1681565b61014f61026a366004610aba565b610561565b600554610189565b61014f610285366004610a8a565b61066c565b60075461010090046001600160a01b031633146102c25760405162461bcd60e51b81526004016102b990610ad3565b60405180910390fd5b6102cd826001610b20565b6102d79082610b38565b600883815481106102ea576102ea610b4f565b6000918252602090912001555050565b6000546001600160a01b031633146103245760405162461bcd60e51b81526004016102b990610b65565b61032e6000610707565b565b6000546001600160a01b0316331461035a5760405162461bcd60e51b81526004016102b990610b65565b600780546001600160a01b0390921661010002610100600160a81b0319909216919091179055565b336001600160a01b037f000000000000000000000000000000000000000000000000000000000000000016146103fa5760405162461bcd60e51b815260206004820152601f60248201527f4f6e6c7920565246436f6f7264696e61746f722063616e2066756c66696c6c0060448201526064016102b9565b6104048282610757565b5050565b6000546001600160a01b031633146104325760405162461bcd60e51b81526004016102b990610b65565b600655565b60075461010090046001600160a01b031633146104665760405162461bcd60e51b81526004016102b990610ad3565b600880548061047757610477610b9a565b60019003818190600052602060002001600090559055565b60006005546000146104e35760405162461bcd60e51b815260206004820152601760248201527f6f666673657420616c726561647920657865637574656400000000000000000060448201526064016102b9565b60085415806104f3575060065442115b61053f5760405162461bcd60e51b815260206004820152601960248201527f43616e6e6f742065786563757465206f6666736574207965740000000000000060448201526064016102b9565b6105476107cf565b5050600a6005556007805460ff1916600190811790915590565b60075461010090046001600160a01b031633146105905760405162461bcd60e51b81526004016102b990610ad3565b600754600160a81b900460ff16156105e25760405162461bcd60e51b815260206004820152601560248201527463616e206f6e6c79207072656d696e74206f6e636560581b60448201526064016102b9565b60005b81811015610655576008546105fc90600190610b38565b6008828154811061060f5761060f610b4f565b600091825260209091200155600880548061062c5761062c610b9a565b60019003818190600052602060002001600090559055808061064d90610bb0565b9150506105e5565b50506007805460ff60a81b1916600160a81b179055565b6000546001600160a01b031633146106965760405162461bcd60e51b81526004016102b990610b65565b6001600160a01b0381166106fb5760405162461bcd60e51b815260206004820152602660248201527f4f776e61626c653a206e6577206f776e657220697320746865207a65726f206160448201526564647265737360d01b60648201526084016102b9565b61070481610707565b50565b600080546001600160a01b038381166001600160a01b0319831681178455604051919092169283917f8be0079c531659141344cd1fd0a4f28419497f9722a3daafe3b4186f6b6457e09190a35050565b6003546001600160a01b03163314801561077057508115155b6107bc5760405162461bcd60e51b815260206004820181905260248201527f6f6e6c792056524620436f6f7264696e61746f722063616e2066756c66696c6c60448201526064016102b9565b6107c861270f82610bcb565b6005555050565b600042600654106107df57600080fd5b6002546040516370a0823160e01b81523060048201527f00000000000000000000000000000000000000000000000000000000000000006001600160a01b0316906370a0823190602401602060405180830381865afa158015610846573d6000803e3d6000fd5b505050506040513d601f19601f8201168201806040525081019061086a9190610bed565b10156108d25760405162461bcd60e51b815260206004820152603160248201527f4e6f7420656e6f756768204c696e6b2020696e20636f6e747261637420746f2060448201527033b2ba103930b73237b690373ab6b132b960791b60648201526084016102b9565b6108e06004546002546108e5565b905090565b60007f00000000000000000000000000000000000000000000000000000000000000006001600160a01b0316634000aea07f000000000000000000000000000000000000000000000000000000000000000084866000604051602001610955929190918252602082015260400190565b6040516020818303038152906040526040518463ffffffff1660e01b815260040161098293929190610c06565b6020604051808303816000875af11580156109a1573d6000803e3d6000fd5b505050506040513d601f19601f820116820180604052508101906109c59190610c72565b50600083815260016020818152604080842054815180840189905280830186905230606082015260808082018390528351808303909101815260a09091019092528151918301919091209387905290829052610a2091610b20565b600085815260016020526040902055610a608482604080516020808201949094528082019290925280518083038201815260609092019052805191012090565b949350505050565b60008060408385031215610a7b57600080fd5b50508035926020909101359150565b600060208284031215610a9c57600080fd5b81356001600160a01b0381168114610ab357600080fd5b9392505050565b600060208284031215610acc57600080fd5b5035919050565b60208082526018908201527f6f6e6c792054726173682063616e2063616c6c20746869730000000000000000604082015260600190565b634e487b7160e01b600052601160045260246000fd5b60008219821115610b3357610b33610b0a565b500190565b600082821015610b4a57610b4a610b0a565b500390565b634e487b7160e01b600052603260045260246000fd5b6020808252818101527f4f776e61626c653a2063616c6c6572206973206e6f7420746865206f776e6572604082015260600190565b634e487b7160e01b600052603160045260246000fd5b6000600019821415610bc457610bc4610b0a565b5060010190565b600082610be857634e487b7160e01b600052601260045260246000fd5b500690565b600060208284031215610bff57600080fd5b5051919050565b60018060a01b038416815260006020848184015260606040840152835180606085015260005b81811015610c4857858101830151858201608001528201610c2c565b81811115610c5a576000608083870101525b50601f01601f19169290920160800195945050505050565b600060208284031215610c8457600080fd5b81518015158114610ab357600080fdfea2646970667358221220626f3a7bd4789fc5001172c180e1efb2bfca91fed7f6f1cf1ccf93fc0f8e6efb64736f6c634300080a0033",
  "linkReferences": {},
  "deployedLinkReferences": {}
}