{
  "_format": "hh-sol-artifact-1",
  "contractName": "Randomness",
  "sourceName": "contracts/Randomness.sol",
  "abi": [
    {
      "inputs": [
        {
          "internalType": "address",
          "name": "_VRFAddress",
          "type": "address"
        },
        {
          "internalType": "uint64",
          "name": "_subscriptionId",
          "type": "uint64"
        },
        {
          "internalType": "address",
          "name": "_linkTokenAddress",
          "type": "address"
        },
        {
          "internalType": "bytes32",
          "name": "_keyHash",
          "type": "bytes32"
        }
      ],
      "stateMutability": "nonpayable",
      "type": "constructor"
    },
    {
      "inputs": [
        {
          "internalType": "address",
          "name": "have",
          "type": "address"
        },
        {
          "internalType": "address",
          "name": "want",
          "type": "address"
        }
      ],
      "name": "OnlyCoordinatorCanFulfill",
      "type": "error"
    },
    {
      "anonymous": false,
      "inputs": [
        {
          "indexed": true,
          "internalType": "address",
          "name": "previousOwner",
          "type": "address"
        },
        {
          "indexed": true,
          "internalType": "address",
          "name": "newOwner",
          "type": "address"
        }
      ],
      "name": "OwnershipTransferred",
      "type": "event"
    },
    {
      "anonymous": false,
      "inputs": [
        {
          "indexed": false,
          "internalType": "uint256",
          "name": "requestId",
          "type": "uint256"
        }
      ],
      "name": "RequestedRandomness",
      "type": "event"
    },
    {
      "inputs": [],
      "name": "VRFCoordinator",
      "outputs": [
        {
          "internalType": "address",
          "name": "",
          "type": "address"
        }
      ],
      "stateMutability": "view",
      "type": "function"
    },
    {
      "inputs": [],
      "name": "claimableDate",
      "outputs": [
        {
          "internalType": "uint256",
          "name": "",
          "type": "uint256"
        }
      ],
      "stateMutability": "view",
      "type": "function"
    },
    {
      "inputs": [],
      "name": "executeOffset",
      "outputs": [
        {
          "internalType": "bool",
          "name": "",
          "type": "bool"
        }
      ],
      "stateMutability": "nonpayable",
      "type": "function"
    },
    {
      "inputs": [
        {
          "internalType": "uint256",
          "name": "_premintCount",
          "type": "uint256"
        }
      ],
      "name": "executePremint",
      "outputs": [],
      "stateMutability": "nonpayable",
      "type": "function"
    },
    {
      "inputs": [],
      "name": "getAvailablePossums",
      "outputs": [
        {
          "internalType": "uint256",
          "name": "",
          "type": "uint256"
        }
      ],
      "stateMutability": "view",
      "type": "function"
    },
    {
      "inputs": [],
      "name": "getClaimableDate",
      "outputs": [
        {
          "internalType": "uint256",
          "name": "",
          "type": "uint256"
        }
      ],
      "stateMutability": "view",
      "type": "function"
    },
    {
      "inputs": [],
      "name": "getOffset",
      "outputs": [
        {
          "internalType": "uint256",
          "name": "",
          "type": "uint256"
        }
      ],
      "stateMutability": "view",
      "type": "function"
    },
    {
      "inputs": [],
      "name": "getPossumToBeClaimed",
      "outputs": [
        {
          "internalType": "uint256",
          "name": "tokenId",
          "type": "uint256"
        }
      ],
      "stateMutability": "nonpayable",
      "type": "function"
    },
    {
      "inputs": [],
      "name": "getPremint",
      "outputs": [
        {
          "internalType": "bool",
          "name": "",
          "type": "bool"
        }
      ],
      "stateMutability": "view",
      "type": "function"
    },
    {
      "inputs": [],
      "name": "getTrash",
      "outputs": [
        {
          "internalType": "address",
          "name": "",
          "type": "address"
        }
      ],
      "stateMutability": "view",
      "type": "function"
    },
    {
      "inputs": [],
      "name": "keyHash",
      "outputs": [
        {
          "internalType": "bytes32",
          "name": "",
          "type": "bytes32"
        }
      ],
      "stateMutability": "view",
      "type": "function"
    },
    {
      "inputs": [],
      "name": "owner",
      "outputs": [
        {
          "internalType": "address",
          "name": "",
          "type": "address"
        }
      ],
      "stateMutability": "view",
      "type": "function"
    },
    {
      "inputs": [],
      "name": "premintExecuted",
      "outputs": [
        {
          "internalType": "bool",
          "name": "",
          "type": "bool"
        }
      ],
      "stateMutability": "view",
      "type": "function"
    },
    {
      "inputs": [],
      "name": "randomIdOffset",
      "outputs": [
        {
          "internalType": "uint256",
          "name": "",
          "type": "uint256"
        }
      ],
      "stateMutability": "view",
      "type": "function"
    },
    {
      "inputs": [],
      "name": "randomIdOffsetExecuted",
      "outputs": [
        {
          "internalType": "bool",
          "name": "",
          "type": "bool"
        }
      ],
      "stateMutability": "view",
      "type": "function"
    },
    {
      "inputs": [
        {
          "internalType": "uint256",
          "name": "requestId",
          "type": "uint256"
        },
        {
          "internalType": "uint256[]",
          "name": "randomWords",
          "type": "uint256[]"
        }
      ],
      "name": "rawFulfillRandomWords",
      "outputs": [],
      "stateMutability": "nonpayable",
      "type": "function"
    },
    {
      "inputs": [],
      "name": "renounceOwnership",
      "outputs": [],
      "stateMutability": "nonpayable",
      "type": "function"
    },
    {
      "inputs": [],
      "name": "requestId",
      "outputs": [
        {
          "internalType": "uint256",
          "name": "",
          "type": "uint256"
        }
      ],
      "stateMutability": "view",
      "type": "function"
    },
    {
      "inputs": [
        {
          "internalType": "uint256",
          "name": "_claimable",
          "type": "uint256"
        }
      ],
      "name": "setClaimableDate",
      "outputs": [],
      "stateMutability": "nonpayable",
      "type": "function"
    },
    {
      "inputs": [
        {
          "internalType": "address",
          "name": "trash",
          "type": "address"
        }
      ],
      "name": "setTrash",
      "outputs": [],
      "stateMutability": "nonpayable",
      "type": "function"
    },
    {
      "inputs": [
        {
          "internalType": "address",
          "name": "newOwner",
          "type": "address"
        }
      ],
      "name": "transferOwnership",
      "outputs": [],
      "stateMutability": "nonpayable",
      "type": "function"
    },
    {
      "inputs": [],
      "name": "trashAddress",
      "outputs": [
        {
          "internalType": "address",
          "name": "",
          "type": "address"
        }
      ],
      "stateMutability": "view",
      "type": "function"
    },
    {
      "inputs": [],
      "name": "withdraw",
      "outputs": [],
      "stateMutability": "payable",
      "type": "function"
    },
    {
      "inputs": [
        {
          "internalType": "contract IERC20",
          "name": "token",
          "type": "address"
        },
        {
          "internalType": "uint256",
          "name": "_amount",
          "type": "uint256"
        }
      ],
      "name": "withdrawErc20",
      "outputs": [],
      "stateMutability": "nonpayable",
      "type": "function"
    },
    {
      "stateMutability": "payable",
      "type": "receive"
    }
  ],
  "bytecode": "0x6003805463ffffffff60401b19166a030d4000000000000000001790556005805465ffffffffffff191662010003179055611b5860a081815262036bc06040529060c062036b0080368337505081516200006192600a92506020019062000170565b503480156200006f57600080fd5b50604051620014e4380380620014e48339810160408190526200009291620001f4565b836200009e3362000120565b6001600160a01b0390811660805260058054600160301b600160d01b0319166601000000000000968316968702179055600680546001600160a01b03199081169490921693909317909255600380546001600160401b0319166001600160401b0394909416939093179092556001805490911690921790915560025562000254565b600080546001600160a01b038381166001600160a01b0319831681178455604051919092169283917f8be0079c531659141344cd1fd0a4f28419497f9722a3daafe3b4186f6b6457e09190a35050565b828054828255906000526020600020908101928215620001ae579160200282015b82811115620001ae57825182559160200191906001019062000191565b50620001bc929150620001c0565b5090565b5b80821115620001bc5760008155600101620001c1565b80516001600160a01b0381168114620001ef57600080fd5b919050565b600080600080608085870312156200020b57600080fd5b6200021685620001d7565b60208601519094506001600160401b03811681146200023457600080fd5b92506200024460408601620001d7565b6060959095015193969295505050565b60805161126d6200027760003960008181610418015261045a015261126d6000f3fe60806040526004361061014e5760003560e01c806391168614116100b6578063ce2218331161006f578063ce22183314610352578063de166edc14610377578063e4564d2814610398578063eb6ad24e146103b8578063f2548bb3146103cd578063f2fde38b146103ed57600080fd5b806391168614146102b857806396880d8b146102d8578063bd1f4b52146102ee578063be374b7a1461030e578063c6410f7b14610328578063cdbfc9501461033d57600080fd5b8063551a82cf11610108578063551a82cf1461022f57806361728f3914610245578063715018a61461025b5780638481de5f1461027057806388cafa4e146102855780638da5cb5b1461029a57600080fd5b80626d6cae1461015a57806310261146146101835780631fe543e3146101ba5780632664a8ae146101dc57806333b60863146102075780633ccfd60b1461022757600080fd5b3661015557005b600080fd5b34801561016657600080fd5b5061017060045481565b6040519081526020015b60405180910390f35b34801561018f57600080fd5b5060095461010090046001600160a01b03165b6040516001600160a01b03909116815260200161017a565b3480156101c657600080fd5b506101da6101d5366004610ff0565b61040d565b005b3480156101e857600080fd5b50600954600160a81b900460ff165b604051901515815260200161017a565b34801561021357600080fd5b506001546101a2906001600160a01b031681565b6101da61049a565b34801561023b57600080fd5b5061017060085481565b34801561025157600080fd5b5061017060025481565b34801561026757600080fd5b506101da610570565b34801561027c57600080fd5b50600a54610170565b34801561029157600080fd5b50600854610170565b3480156102a657600080fd5b506000546001600160a01b03166101a2565b3480156102c457600080fd5b506101da6102d33660046110cf565b6105a6565b3480156102e457600080fd5b5061017060075481565b3480156102fa57600080fd5b506101da6103093660046110ec565b6105f8565b34801561031a57600080fd5b506009546101f79060ff1681565b34801561033457600080fd5b506101706107bc565b34801561034957600080fd5b506101f7610a88565b34801561035e57600080fd5b506009546101a29061010090046001600160a01b031681565b34801561038357600080fd5b506009546101f790600160a81b900460ff1681565b3480156103a457600080fd5b506101da6103b3366004611118565b610ba5565b3480156103c457600080fd5b50600754610170565b3480156103d957600080fd5b506101da6103e8366004611118565b610cab565b3480156103f957600080fd5b506101da6104083660046110cf565b610cda565b336001600160a01b037f0000000000000000000000000000000000000000000000000000000000000000161461048c5760405163073e64fd60e21b81523360048201526001600160a01b037f00000000000000000000000000000000000000000000000000000000000000001660248201526044015b60405180910390fd5b6104968282610d75565b5050565b6000546001600160a01b031633146104c45760405162461bcd60e51b815260040161048390611131565b4760006104d96000546001600160a01b031690565b6001600160a01b03168260405160006040518083038185875af1925050503d8060008114610523576040519150601f19603f3d011682016040523d82523d6000602084013e610528565b606091505b50509050806104965760405162461bcd60e51b81526020600482015260146024820152732330b4b632b2103a379039b2b7321022ba3432b960611b6044820152606401610483565b6000546001600160a01b0316331461059a5760405162461bcd60e51b815260040161048390611131565b6105a46000610da4565b565b6000546001600160a01b031633146105d05760405162461bcd60e51b815260040161048390611131565b600980546001600160a01b0390921661010002610100600160a81b0319909216919091179055565b6000546001600160a01b031633146106225760405162461bcd60e51b815260040161048390611131565b6040516370a0823160e01b81523060048201526000906001600160a01b038416906370a0823190602401602060405180830381865afa158015610669573d6000803e3d6000fd5b505050506040513d601f19601f8201168201806040525081019061068d9190611166565b116106ec5760405162461bcd60e51b815260206004820152602960248201527f7468697320636f6e747261637420646f6573206e6f7420636f6e7461696e20746044820152683434b9903a37b5b2b760b91b6064820152608401610483565b816001600160a01b031663a9059cbb61070d6000546001600160a01b031690565b6040516001600160e01b031960e084901b1681526001600160a01b039091166004820152602481018490526044016020604051808303816000875af115801561075a573d6000803e3d6000fd5b505050506040513d601f19601f8201168201806040525081019061077e919061117f565b6104965760405162461bcd60e51b815260206004820152600f60248201526e1d1c985b9cd9995c8819985a5b1959608a1b6044820152606401610483565b60095460009061010090046001600160a01b0316331461081e5760405162461bcd60e51b815260206004820152601860248201527f6f6e6c792054726173682063616e2063616c6c207468697300000000000000006044820152606401610483565b6000610828610df4565b9050600a818154811061083d5761083d6111a1565b906000526020600020015460001480156108815750600a8054610862906001906111cd565b81548110610872576108726111a1565b90600052602060002001546000145b156108be57600a54909150819061089a906001906111cd565b600a82815481106108ad576108ad6111a1565b600091825260209091200155610a5d565b600a81815481106108d1576108d16111a1565b90600052602060002001546000141580156109165750600a80546108f7906001906111cd565b81548110610907576109076111a1565b90600052602060002001546000145b1561094d57600a818154811061092e5761092e6111a1565b906000526020600020015491506001600a8054905061089a91906111cd565b600a8181548110610960576109606111a1565b90600052602060002001546000141580156109a65750600a8054610986906001906111cd565b81548110610996576109966111a1565b9060005260206000200154600014155b15610a0d57600a81815481106109be576109be6111a1565b90600052602060002001549150600a6001600a805490506109df91906111cd565b815481106109ef576109ef6111a1565b9060005260206000200154600a82815481106108ad576108ad6111a1565b600a80549192508291610a22906001906111cd565b81548110610a3257610a326111a1565b9060005260206000200154600a8281548110610a5057610a506111a1565b6000918252602090912001555b600a805480610a6e57610a6e6111e4565b600190038181906000526020600020016000905590555090565b60095460009060ff1615610ade5760405162461bcd60e51b815260206004820152601760248201527f6f666673657420616c72656164792065786563757465640000000000000000006044820152606401610483565b600a541580610aee575060085442115b610b3a5760405162461bcd60e51b815260206004820152601960248201527f43616e6e6f742065786563757465206f666673657420796574000000000000006044820152606401610483565b600854610b895760405162461bcd60e51b815260206004820152601760248201527f6e6f7420726561647920746f206f6666736574207965740000000000000000006044820152606401610483565b610b91610e84565b506009805460ff1916600190811790915590565b6000546001600160a01b03163314610bcf5760405162461bcd60e51b815260040161048390611131565b600954600160a81b900460ff1615610c215760405162461bcd60e51b815260206004820152601560248201527463616e206f6e6c79207072656d696e74206f6e636560581b6044820152606401610483565b60005b81811015610c9457600a54610c3b906001906111cd565b600a8281548110610c4e57610c4e6111a1565b600091825260209091200155600a805480610c6b57610c6b6111e4565b600190038181906000526020600020016000905590558080610c8c906111fa565b915050610c24565b50506009805460ff60a81b1916600160a81b179055565b6000546001600160a01b03163314610cd55760405162461bcd60e51b815260040161048390611131565b600855565b6000546001600160a01b03163314610d045760405162461bcd60e51b815260040161048390611131565b6001600160a01b038116610d695760405162461bcd60e51b815260206004820152602660248201527f4f776e61626c653a206e6577206f776e657220697320746865207a65726f206160448201526564647265737360d01b6064820152608401610483565b610d7281610da4565b50565b61177081600081518110610d8b57610d8b6111a1565b6020026020010151610d9d9190611215565b6007555050565b600080546001600160a01b038381166001600160a01b0319831681178455604051919092169283917f8be0079c531659141344cd1fd0a4f28419497f9722a3daafe3b4186f6b6457e09190a35050565b600a546000908190610e076001436111cd565b6040805160208101939093529040908201526bffffffffffffffffffffffff1941606090811b82168184015244607484015233901b16609482015260a80160408051601f198184030181529190528051602090910120600a54909150600090600190610e739084611215565b610e7d91906111cd565b9392505050565b42600854108015610e96575060085415155b610ee25760405162461bcd60e51b815260206004820152601e60248201527f6e6f7420726561647920746f206765742072616e646f6d206e756d62657200006044820152606401610483565b6005546002546003546040516305d3b1d360e41b8152600481019290925267ffffffffffffffff8116602483015261ffff8316604483015268010000000000000000900463ffffffff908116606483015262010000830416608482015266010000000000009091046001600160a01b031690635d3b1d309060a4016020604051808303816000875af1158015610f7c573d6000803e3d6000fd5b505050506040513d601f19601f82011682018060405250810190610fa09190611166565b60048190556040519081527f5d7d0431c4991fcc9f63f03ad0ead4128b866a8ed115a818b6d87a3afedb72649060200160405180910390a1565b634e487b7160e01b600052604160045260246000fd5b6000806040838503121561100357600080fd5b8235915060208084013567ffffffffffffffff8082111561102357600080fd5b818601915086601f83011261103757600080fd5b81358181111561104957611049610fda565b8060051b604051601f19603f8301168101818110858211171561106e5761106e610fda565b60405291825284820192508381018501918983111561108c57600080fd5b938501935b828510156110aa57843584529385019392850192611091565b8096505050505050509250929050565b6001600160a01b0381168114610d7257600080fd5b6000602082840312156110e157600080fd5b8135610e7d816110ba565b600080604083850312156110ff57600080fd5b823561110a816110ba565b946020939093013593505050565b60006020828403121561112a57600080fd5b5035919050565b6020808252818101527f4f776e61626c653a2063616c6c6572206973206e6f7420746865206f776e6572604082015260600190565b60006020828403121561117857600080fd5b5051919050565b60006020828403121561119157600080fd5b81518015158114610e7d57600080fd5b634e487b7160e01b600052603260045260246000fd5b634e487b7160e01b600052601160045260246000fd5b6000828210156111df576111df6111b7565b500390565b634e487b7160e01b600052603160045260246000fd5b600060001982141561120e5761120e6111b7565b5060010190565b60008261123257634e487b7160e01b600052601260045260246000fd5b50069056fea26469706673582212206f2a6b29cbfeb148b52bf6b6b7ede29f93fb0508b5a3fdf0f639a9a3f60fb1e264736f6c634300080a0033",
  "linkReferences": {},
  "deployedLinkReferences": {}
}