{
  "_format": "hh-sol-artifact-1",
  "contractName": "Randomness",
  "sourceName": "contracts/Randomness.sol",
  "abi": [
    {
      "inputs": [
        {
          "internalType": "address",
          "name": "_VRFAddress",
          "type": "address"
        },
        {
          "internalType": "address",
          "name": "_linkToken",
          "type": "address"
        },
        {
          "internalType": "bytes32",
          "name": "_keyHash",
          "type": "bytes32"
        },
        {
          "internalType": "uint256",
          "name": "_fee",
          "type": "uint256"
        },
        {
          "internalType": "uint256",
          "name": "_claimableDate",
          "type": "uint256"
        }
      ],
      "stateMutability": "nonpayable",
      "type": "constructor"
    },
    {
      "anonymous": false,
      "inputs": [
        {
          "indexed": true,
          "internalType": "address",
          "name": "previousOwner",
          "type": "address"
        },
        {
          "indexed": true,
          "internalType": "address",
          "name": "newOwner",
          "type": "address"
        }
      ],
      "name": "OwnershipTransferred",
      "type": "event"
    },
    {
      "inputs": [],
      "name": "claimableDate",
      "outputs": [
        {
          "internalType": "uint256",
          "name": "",
          "type": "uint256"
        }
      ],
      "stateMutability": "view",
      "type": "function"
    },
    {
      "inputs": [],
      "name": "executeOffset",
      "outputs": [
        {
          "internalType": "bool",
          "name": "",
          "type": "bool"
        }
      ],
      "stateMutability": "nonpayable",
      "type": "function"
    },
    {
      "inputs": [
        {
          "internalType": "uint256",
          "name": "_premintCount",
          "type": "uint256"
        }
      ],
      "name": "executePremint",
      "outputs": [],
      "stateMutability": "nonpayable",
      "type": "function"
    },
    {
      "inputs": [],
      "name": "fee",
      "outputs": [
        {
          "internalType": "uint256",
          "name": "",
          "type": "uint256"
        }
      ],
      "stateMutability": "view",
      "type": "function"
    },
    {
      "inputs": [],
      "name": "getAvailablePossums",
      "outputs": [
        {
          "internalType": "uint256",
          "name": "",
          "type": "uint256"
        }
      ],
      "stateMutability": "view",
      "type": "function"
    },
    {
      "inputs": [],
      "name": "getClaimableDate",
      "outputs": [
        {
          "internalType": "uint256",
          "name": "",
          "type": "uint256"
        }
      ],
      "stateMutability": "view",
      "type": "function"
    },
    {
      "inputs": [],
      "name": "getOffset",
      "outputs": [
        {
          "internalType": "uint256",
          "name": "",
          "type": "uint256"
        }
      ],
      "stateMutability": "view",
      "type": "function"
    },
    {
      "inputs": [],
      "name": "getPossumToBeClaimed",
      "outputs": [
        {
          "internalType": "uint256",
          "name": "tokenId",
          "type": "uint256"
        }
      ],
      "stateMutability": "nonpayable",
      "type": "function"
    },
    {
      "inputs": [],
      "name": "getTrash",
      "outputs": [
        {
          "internalType": "address",
          "name": "",
          "type": "address"
        }
      ],
      "stateMutability": "view",
      "type": "function"
    },
    {
      "inputs": [],
      "name": "keyHash",
      "outputs": [
        {
          "internalType": "bytes32",
          "name": "",
          "type": "bytes32"
        }
      ],
      "stateMutability": "view",
      "type": "function"
    },
    {
      "inputs": [],
      "name": "offsetExecuted",
      "outputs": [
        {
          "internalType": "bool",
          "name": "",
          "type": "bool"
        }
      ],
      "stateMutability": "view",
      "type": "function"
    },
    {
      "inputs": [],
      "name": "owner",
      "outputs": [
        {
          "internalType": "address",
          "name": "",
          "type": "address"
        }
      ],
      "stateMutability": "view",
      "type": "function"
    },
    {
      "inputs": [],
      "name": "popArray",
      "outputs": [],
      "stateMutability": "nonpayable",
      "type": "function"
    },
    {
      "inputs": [],
      "name": "premintExecuted",
      "outputs": [
        {
          "internalType": "bool",
          "name": "",
          "type": "bool"
        }
      ],
      "stateMutability": "view",
      "type": "function"
    },
    {
      "inputs": [],
      "name": "randomIdOffset",
      "outputs": [
        {
          "internalType": "uint256",
          "name": "",
          "type": "uint256"
        }
      ],
      "stateMutability": "view",
      "type": "function"
    },
    {
      "inputs": [],
      "name": "randomIdOffsetExecuted",
      "outputs": [
        {
          "internalType": "bool",
          "name": "",
          "type": "bool"
        }
      ],
      "stateMutability": "view",
      "type": "function"
    },
    {
      "inputs": [
        {
          "internalType": "bytes32",
          "name": "requestId",
          "type": "bytes32"
        },
        {
          "internalType": "uint256",
          "name": "randomness",
          "type": "uint256"
        }
      ],
      "name": "rawFulfillRandomness",
      "outputs": [],
      "stateMutability": "nonpayable",
      "type": "function"
    },
    {
      "inputs": [],
      "name": "renounceOwnership",
      "outputs": [],
      "stateMutability": "nonpayable",
      "type": "function"
    },
    {
      "inputs": [
        {
          "internalType": "uint256",
          "name": "index",
          "type": "uint256"
        },
        {
          "internalType": "uint256",
          "name": "key",
          "type": "uint256"
        }
      ],
      "name": "setArray",
      "outputs": [],
      "stateMutability": "nonpayable",
      "type": "function"
    },
    {
      "inputs": [
        {
          "internalType": "uint256",
          "name": "_claimable",
          "type": "uint256"
        }
      ],
      "name": "setClaimableDate",
      "outputs": [],
      "stateMutability": "nonpayable",
      "type": "function"
    },
    {
      "inputs": [
        {
          "internalType": "address",
          "name": "trash",
          "type": "address"
        }
      ],
      "name": "setTrash",
      "outputs": [],
      "stateMutability": "nonpayable",
      "type": "function"
    },
    {
      "inputs": [
        {
          "internalType": "address",
          "name": "newOwner",
          "type": "address"
        }
      ],
      "name": "transferOwnership",
      "outputs": [],
      "stateMutability": "nonpayable",
      "type": "function"
    }
  ],
  "bytecode": "0x61271060c08181526204e2e06040529060e06204e200803683375050815162000030926008925060200190620000fd565b503480156200003e57600080fd5b506040516200120c3803806200120c833981016040819052620000619162000181565b84846200006e33620000ad565b6001600160a01b0391821660a0528116608052600493909355600380546001600160a01b031916959093169490941790915560025550600655620001d4565b600080546001600160a01b038381166001600160a01b0319831681178455604051919092169283917f8be0079c531659141344cd1fd0a4f28419497f9722a3daafe3b4186f6b6457e09190a35050565b8280548282559060005260206000209081019282156200013b579160200282015b828111156200013b5782518255916020019190600101906200011e565b50620001499291506200014d565b5090565b5b808211156200014957600081556001016200014e565b80516001600160a01b03811681146200017c57600080fd5b919050565b600080600080600060a086880312156200019a57600080fd5b620001a58662000164565b9450620001b56020870162000164565b6040870151606088015160809098015196999198509695945092505050565b60805160a05161100462000208600039600081816103a00152610c59015260008181610b380152610c2a01526110046000f3fe608060405234801561001057600080fd5b50600436106101425760003560e01c80639b48f484116100b8578063ddca3f431161007c578063ddca3f431461023f578063de166edc14610248578063e4564d281461025c578063eb6ad24e1461026f578063f2548bb314610277578063f2fde38b1461028a57600080fd5b80639b48f48414610203578063ae713d2a1461021a578063be374b7a14610222578063c6410f7b1461022f578063cdbfc9501461023757600080fd5b80638481de5f1161010a5780638481de5f146101b357806388cafa4e146101bb5780638da5cb5b146101c357806391168614146101d457806394985ddd146101e757806396880d8b146101fa57600080fd5b80630dca608214610147578063102611461461015c578063551a82cf1461018b57806361728f39146101a2578063715018a6146101ab575b600080fd5b61015a610155366004610da9565b61029d565b005b60075461010090046001600160a01b03165b6040516001600160a01b0390911681526020015b60405180910390f35b61019460065481565b604051908152602001610182565b61019460045481565b61015a61030d565b600854610194565b600654610194565b6000546001600160a01b031661016e565b61015a6101e2366004610dcb565b610343565b61015a6101f5366004610da9565b610395565b61019460055481565b60075460ff165b6040519015158152602001610182565b61015a61041b565b60075461020a9060ff1681565b610194610473565b61020a61070f565b61019460025481565b60075461020a90600160a81b900460ff1681565b61015a61026a366004610df4565b6107e3565b600554610194565b61015a610285366004610df4565b6108ee565b61015a610298366004610dcb565b61091d565b60075461010090046001600160a01b031633146102d55760405162461bcd60e51b81526004016102cc90610e0d565b60405180910390fd5b6102e0826001610e5a565b6102ea9082610e72565b600883815481106102fd576102fd610e89565b6000918252602090912001555050565b6000546001600160a01b031633146103375760405162461bcd60e51b81526004016102cc90610e9f565b61034160006109b8565b565b6000546001600160a01b0316331461036d5760405162461bcd60e51b81526004016102cc90610e9f565b600780546001600160a01b0390921661010002610100600160a81b0319909216919091179055565b336001600160a01b037f0000000000000000000000000000000000000000000000000000000000000000161461040d5760405162461bcd60e51b815260206004820152601f60248201527f4f6e6c7920565246436f6f7264696e61746f722063616e2066756c66696c6c0060448201526064016102cc565b6104178282610a08565b5050565b60075461010090046001600160a01b0316331461044a5760405162461bcd60e51b81526004016102cc90610e0d565b600880548061045b5761045b610ed4565b60019003818190600052602060002001600090559055565b60075460009061010090046001600160a01b031633146104a55760405162461bcd60e51b81526004016102cc90610e0d565b60006104af610a80565b9050600881815481106104c4576104c4610e89565b906000526020600020015460001480156105085750600880546104e990600190610e72565b815481106104f9576104f9610e89565b90600052602060002001546000145b1561054557600854909150819061052190600190610e72565b6008828154811061053457610534610e89565b6000918252602090912001556106e4565b6008818154811061055857610558610e89565b906000526020600020015460001415801561059d57506008805461057e90600190610e72565b8154811061058e5761058e610e89565b90600052602060002001546000145b156105d457600881815481106105b5576105b5610e89565b9060005260206000200154915060016008805490506105219190610e72565b600881815481106105e7576105e7610e89565b906000526020600020015460001415801561062d57506008805461060d90600190610e72565b8154811061061d5761061d610e89565b9060005260206000200154600014155b15610694576008818154811061064557610645610e89565b90600052602060002001549150600860016008805490506106669190610e72565b8154811061067657610676610e89565b90600052602060002001546008828154811061053457610534610e89565b6008805491925082916106a990600190610e72565b815481106106b9576106b9610e89565b9060005260206000200154600882815481106106d7576106d7610e89565b6000918252602090912001555b60088054806106f5576106f5610ed4565b600190038181906000526020600020016000905590555090565b60075460009060ff16156107655760405162461bcd60e51b815260206004820152601760248201527f6f666673657420616c726561647920657865637574656400000000000000000060448201526064016102cc565b6008541580610775575060065442115b6107c15760405162461bcd60e51b815260206004820152601960248201527f43616e6e6f742065786563757465206f6666736574207965740000000000000060448201526064016102cc565b6107c9610b10565b5050600a6005556007805460ff1916600190811790915590565b60075461010090046001600160a01b031633146108125760405162461bcd60e51b81526004016102cc90610e0d565b600754600160a81b900460ff16156108645760405162461bcd60e51b815260206004820152601560248201527463616e206f6e6c79207072656d696e74206f6e636560581b60448201526064016102cc565b60005b818110156108d75760085461087e90600190610e72565b6008828154811061089157610891610e89565b60009182526020909120015560088054806108ae576108ae610ed4565b6001900381819060005260206000200160009055905580806108cf90610eea565b915050610867565b50506007805460ff60a81b1916600160a81b179055565b6000546001600160a01b031633146109185760405162461bcd60e51b81526004016102cc90610e9f565b600655565b6000546001600160a01b031633146109475760405162461bcd60e51b81526004016102cc90610e9f565b6001600160a01b0381166109ac5760405162461bcd60e51b815260206004820152602660248201527f4f776e61626c653a206e6577206f776e657220697320746865207a65726f206160448201526564647265737360d01b60648201526084016102cc565b6109b5816109b8565b50565b600080546001600160a01b038381166001600160a01b0319831681178455604051919092169283917f8be0079c531659141344cd1fd0a4f28419497f9722a3daafe3b4186f6b6457e09190a35050565b6003546001600160a01b031633148015610a2157508115155b610a6d5760405162461bcd60e51b815260206004820181905260248201527f6f6e6c792056524620436f6f7264696e61746f722063616e2066756c66696c6c60448201526064016102cc565b610a7961270f82610f05565b6005555050565b6008546000908190610a93600143610e72565b6040805160208101939093529040908201526bffffffffffffffffffffffff1941606090811b82168184015244607484015233901b16609482015260a80160408051601f198184030181529190528051602090910120600854909150600090600190610aff9084610f05565b610b099190610e72565b9392505050565b60004260065410610b2057600080fd5b6002546040516370a0823160e01b81523060048201527f00000000000000000000000000000000000000000000000000000000000000006001600160a01b0316906370a0823190602401602060405180830381865afa158015610b87573d6000803e3d6000fd5b505050506040513d601f19601f82011682018060405250810190610bab9190610f27565b1015610c135760405162461bcd60e51b815260206004820152603160248201527f4e6f7420656e6f756768204c696e6b2020696e20636f6e747261637420746f2060448201527033b2ba103930b73237b690373ab6b132b960791b60648201526084016102cc565b610c21600454600254610c26565b905090565b60007f00000000000000000000000000000000000000000000000000000000000000006001600160a01b0316634000aea07f000000000000000000000000000000000000000000000000000000000000000084866000604051602001610c96929190918252602082015260400190565b6040516020818303038152906040526040518463ffffffff1660e01b8152600401610cc393929190610f40565b6020604051808303816000875af1158015610ce2573d6000803e3d6000fd5b505050506040513d601f19601f82011682018060405250810190610d069190610fac565b50600083815260016020818152604080842054815180840189905280830186905230606082015260808082018390528351808303909101815260a09091019092528151918301919091209387905290829052610d6191610e5a565b600085815260016020526040902055610da18482604080516020808201949094528082019290925280518083038201815260609092019052805191012090565b949350505050565b60008060408385031215610dbc57600080fd5b50508035926020909101359150565b600060208284031215610ddd57600080fd5b81356001600160a01b0381168114610b0957600080fd5b600060208284031215610e0657600080fd5b5035919050565b60208082526018908201527f6f6e6c792054726173682063616e2063616c6c20746869730000000000000000604082015260600190565b634e487b7160e01b600052601160045260246000fd5b60008219821115610e6d57610e6d610e44565b500190565b600082821015610e8457610e84610e44565b500390565b634e487b7160e01b600052603260045260246000fd5b6020808252818101527f4f776e61626c653a2063616c6c6572206973206e6f7420746865206f776e6572604082015260600190565b634e487b7160e01b600052603160045260246000fd5b6000600019821415610efe57610efe610e44565b5060010190565b600082610f2257634e487b7160e01b600052601260045260246000fd5b500690565b600060208284031215610f3957600080fd5b5051919050565b60018060a01b038416815260006020848184015260606040840152835180606085015260005b81811015610f8257858101830151858201608001528201610f66565b81811115610f94576000608083870101525b50601f01601f19169290920160800195945050505050565b600060208284031215610fbe57600080fd5b81518015158114610b0957600080fdfea26469706673582212201e75bcb62e39fcede6d14a7baa48ebcb35dd2ca26a2128f829cbed1240c0ac3564736f6c634300080a0033",
  "linkReferences": {},
  "deployedLinkReferences": {}
}