{
  "_format": "hh-sol-artifact-1",
  "contractName": "Randomness",
  "sourceName": "contracts/Randomness.sol",
  "abi": [
    {
      "inputs": [
        {
          "internalType": "address",
          "name": "_VRFAddress",
          "type": "address"
        },
        {
          "internalType": "address",
          "name": "_linkToken",
          "type": "address"
        },
        {
          "internalType": "bytes32",
          "name": "_keyHash",
          "type": "bytes32"
        },
        {
          "internalType": "uint256",
          "name": "_fee",
          "type": "uint256"
        }
      ],
      "stateMutability": "nonpayable",
      "type": "constructor"
    },
    {
      "anonymous": false,
      "inputs": [
        {
          "indexed": true,
          "internalType": "address",
          "name": "previousOwner",
          "type": "address"
        },
        {
          "indexed": true,
          "internalType": "address",
          "name": "newOwner",
          "type": "address"
        }
      ],
      "name": "OwnershipTransferred",
      "type": "event"
    },
    {
      "inputs": [],
      "name": "VRFCoordinator",
      "outputs": [
        {
          "internalType": "address",
          "name": "",
          "type": "address"
        }
      ],
      "stateMutability": "view",
      "type": "function"
    },
    {
      "inputs": [],
      "name": "claimableDate",
      "outputs": [
        {
          "internalType": "uint256",
          "name": "",
          "type": "uint256"
        }
      ],
      "stateMutability": "view",
      "type": "function"
    },
    {
      "inputs": [],
      "name": "executeOffset",
      "outputs": [
        {
          "internalType": "bool",
          "name": "",
          "type": "bool"
        }
      ],
      "stateMutability": "nonpayable",
      "type": "function"
    },
    {
      "inputs": [
        {
          "internalType": "uint256",
          "name": "_premintCount",
          "type": "uint256"
        }
      ],
      "name": "executePremint",
      "outputs": [],
      "stateMutability": "nonpayable",
      "type": "function"
    },
    {
      "inputs": [],
      "name": "fee",
      "outputs": [
        {
          "internalType": "uint256",
          "name": "",
          "type": "uint256"
        }
      ],
      "stateMutability": "view",
      "type": "function"
    },
    {
      "inputs": [],
      "name": "getAvailablePossums",
      "outputs": [
        {
          "internalType": "uint256",
          "name": "",
          "type": "uint256"
        }
      ],
      "stateMutability": "view",
      "type": "function"
    },
    {
      "inputs": [],
      "name": "getClaimableDate",
      "outputs": [
        {
          "internalType": "uint256",
          "name": "",
          "type": "uint256"
        }
      ],
      "stateMutability": "view",
      "type": "function"
    },
    {
      "inputs": [],
      "name": "getOffset",
      "outputs": [
        {
          "internalType": "uint256",
          "name": "",
          "type": "uint256"
        }
      ],
      "stateMutability": "view",
      "type": "function"
    },
    {
      "inputs": [],
      "name": "getPossumToBeClaimed",
      "outputs": [
        {
          "internalType": "uint256",
          "name": "tokenId",
          "type": "uint256"
        }
      ],
      "stateMutability": "nonpayable",
      "type": "function"
    },
    {
      "inputs": [],
      "name": "getPremint",
      "outputs": [
        {
          "internalType": "bool",
          "name": "",
          "type": "bool"
        }
      ],
      "stateMutability": "view",
      "type": "function"
    },
    {
      "inputs": [],
      "name": "getTrash",
      "outputs": [
        {
          "internalType": "address",
          "name": "",
          "type": "address"
        }
      ],
      "stateMutability": "view",
      "type": "function"
    },
    {
      "inputs": [],
      "name": "keyHash",
      "outputs": [
        {
          "internalType": "bytes32",
          "name": "",
          "type": "bytes32"
        }
      ],
      "stateMutability": "view",
      "type": "function"
    },
    {
      "inputs": [],
      "name": "owner",
      "outputs": [
        {
          "internalType": "address",
          "name": "",
          "type": "address"
        }
      ],
      "stateMutability": "view",
      "type": "function"
    },
    {
      "inputs": [],
      "name": "premintExecuted",
      "outputs": [
        {
          "internalType": "bool",
          "name": "",
          "type": "bool"
        }
      ],
      "stateMutability": "view",
      "type": "function"
    },
    {
      "inputs": [],
      "name": "randomIdOffset",
      "outputs": [
        {
          "internalType": "uint256",
          "name": "",
          "type": "uint256"
        }
      ],
      "stateMutability": "view",
      "type": "function"
    },
    {
      "inputs": [],
      "name": "randomIdOffsetExecuted",
      "outputs": [
        {
          "internalType": "bool",
          "name": "",
          "type": "bool"
        }
      ],
      "stateMutability": "view",
      "type": "function"
    },
    {
      "inputs": [
        {
          "internalType": "bytes32",
          "name": "requestId",
          "type": "bytes32"
        },
        {
          "internalType": "uint256",
          "name": "randomness",
          "type": "uint256"
        }
      ],
      "name": "rawFulfillRandomness",
      "outputs": [],
      "stateMutability": "nonpayable",
      "type": "function"
    },
    {
      "inputs": [],
      "name": "renounceOwnership",
      "outputs": [],
      "stateMutability": "nonpayable",
      "type": "function"
    },
    {
      "inputs": [
        {
          "internalType": "uint256",
          "name": "_claimable",
          "type": "uint256"
        }
      ],
      "name": "setClaimableDate",
      "outputs": [],
      "stateMutability": "nonpayable",
      "type": "function"
    },
    {
      "inputs": [
        {
          "internalType": "address",
          "name": "trash",
          "type": "address"
        }
      ],
      "name": "setTrash",
      "outputs": [],
      "stateMutability": "nonpayable",
      "type": "function"
    },
    {
      "inputs": [
        {
          "internalType": "address",
          "name": "newOwner",
          "type": "address"
        }
      ],
      "name": "transferOwnership",
      "outputs": [],
      "stateMutability": "nonpayable",
      "type": "function"
    },
    {
      "inputs": [],
      "name": "trashAddress",
      "outputs": [
        {
          "internalType": "address",
          "name": "",
          "type": "address"
        }
      ],
      "stateMutability": "view",
      "type": "function"
    },
    {
      "inputs": [],
      "name": "withdraw",
      "outputs": [],
      "stateMutability": "payable",
      "type": "function"
    },
    {
      "inputs": [
        {
          "internalType": "contract IERC20",
          "name": "token",
          "type": "address"
        },
        {
          "internalType": "uint256",
          "name": "_amount",
          "type": "uint256"
        }
      ],
      "name": "withdrawErc20",
      "outputs": [],
      "stateMutability": "nonpayable",
      "type": "function"
    },
    {
      "stateMutability": "payable",
      "type": "receive"
    }
  ],
  "bytecode": "0x611b5860c081815262036be06040529060e062036b00803683375050815162000030926008925060200190620000f9565b503480156200003e57600080fd5b506040516200160c3803806200160c83398101604081905262000061916200017d565b83836200006e33620000a9565b6001600160a01b0391821660a0528116608052600492909255600380546001600160a01b0319169490921693909317905550600255620001c5565b600080546001600160a01b038381166001600160a01b0319831681178455604051919092169283917f8be0079c531659141344cd1fd0a4f28419497f9722a3daafe3b4186f6b6457e09190a35050565b82805482825590600052602060002090810192821562000137579160200282015b82811115620001375782518255916020019190600101906200011a565b506200014592915062000149565b5090565b5b808211156200014557600081556001016200014a565b80516001600160a01b03811681146200017857600080fd5b919050565b600080600080608085870312156200019457600080fd5b6200019f8562000160565b9350620001af6020860162000160565b6040860151606090960151949790965092505050565b60805160a051611413620001f960003960008181610584015261106a015260008181610f49015261103b01526114136000f3fe60806040526004361061014f5760003560e01c806396880d8b116100b6578063ddca3f431161006f578063ddca3f4314610362578063de166edc14610378578063e4564d2814610399578063eb6ad24e146103b9578063f2548bb3146103ce578063f2fde38b146103ee57600080fd5b806396880d8b146102c3578063bd1f4b52146102d9578063be374b7a146102f9578063c6410f7b14610313578063cdbfc95014610328578063ce2218331461033d57600080fd5b8063715018a611610108578063715018a6146102265780638481de5f1461023b57806388cafa4e146102505780638da5cb5b14610265578063911686141461028357806394985ddd146102a357600080fd5b8063102611461461015b5780632664a8ae1461019757806333b60863146101c25780633ccfd60b146101e2578063551a82cf146101ec57806361728f391461021057600080fd5b3661015657005b600080fd5b34801561016757600080fd5b5060075461010090046001600160a01b03165b6040516001600160a01b0390911681526020015b60405180910390f35b3480156101a357600080fd5b50600754600160a81b900460ff165b604051901515815260200161018e565b3480156101ce57600080fd5b5060035461017a906001600160a01b031681565b6101ea61040e565b005b3480156101f857600080fd5b5061020260065481565b60405190815260200161018e565b34801561021c57600080fd5b5061020260045481565b34801561023257600080fd5b506101ea6104f1565b34801561024757600080fd5b50600854610202565b34801561025c57600080fd5b50600654610202565b34801561027157600080fd5b506000546001600160a01b031661017a565b34801561028f57600080fd5b506101ea61029e3660046111cf565b610527565b3480156102af57600080fd5b506101ea6102be3660046111ec565b610579565b3480156102cf57600080fd5b5061020260055481565b3480156102e557600080fd5b506101ea6102f436600461120e565b6105fb565b34801561030557600080fd5b506007546101b29060ff1681565b34801561031f57600080fd5b506102026107bf565b34801561033457600080fd5b506101b2610a8b565b34801561034957600080fd5b5060075461017a9061010090046001600160a01b031681565b34801561036e57600080fd5b5061020260025481565b34801561038457600080fd5b506007546101b290600160a81b900460ff1681565b3480156103a557600080fd5b506101ea6103b436600461123a565b610ba9565b3480156103c557600080fd5b50600554610202565b3480156103da57600080fd5b506101ea6103e936600461123a565b610caf565b3480156103fa57600080fd5b506101ea6104093660046111cf565b610cde565b6000546001600160a01b031633146104415760405162461bcd60e51b815260040161043890611253565b60405180910390fd5b4760006104566000546001600160a01b031690565b6001600160a01b03168260405160006040518083038185875af1925050503d80600081146104a0576040519150601f19603f3d011682016040523d82523d6000602084013e6104a5565b606091505b50509050806104ed5760405162461bcd60e51b81526020600482015260146024820152732330b4b632b2103a379039b2b7321022ba3432b960611b6044820152606401610438565b5050565b6000546001600160a01b0316331461051b5760405162461bcd60e51b815260040161043890611253565b6105256000610d79565b565b6000546001600160a01b031633146105515760405162461bcd60e51b815260040161043890611253565b600780546001600160a01b0390921661010002610100600160a81b0319909216919091179055565b336001600160a01b037f000000000000000000000000000000000000000000000000000000000000000016146105f15760405162461bcd60e51b815260206004820152601f60248201527f4f6e6c7920565246436f6f7264696e61746f722063616e2066756c66696c6c006044820152606401610438565b6104ed8282610dc9565b6000546001600160a01b031633146106255760405162461bcd60e51b815260040161043890611253565b6040516370a0823160e01b81523060048201526000906001600160a01b038416906370a0823190602401602060405180830381865afa15801561066c573d6000803e3d6000fd5b505050506040513d601f19601f820116820180604052508101906106909190611288565b116106ef5760405162461bcd60e51b815260206004820152602960248201527f7468697320636f6e747261637420646f6573206e6f7420636f6e7461696e20746044820152683434b9903a37b5b2b760b91b6064820152608401610438565b816001600160a01b031663a9059cbb6107106000546001600160a01b031690565b6040516001600160e01b031960e084901b1681526001600160a01b039091166004820152602481018490526044016020604051808303816000875af115801561075d573d6000803e3d6000fd5b505050506040513d601f19601f8201168201806040525081019061078191906112a1565b6104ed5760405162461bcd60e51b815260206004820152600f60248201526e1d1c985b9cd9995c8819985a5b1959608a1b6044820152606401610438565b60075460009061010090046001600160a01b031633146108215760405162461bcd60e51b815260206004820152601860248201527f6f6e6c792054726173682063616e2063616c6c207468697300000000000000006044820152606401610438565b600061082b610e41565b905060088181548110610840576108406112c3565b90600052602060002001546000148015610884575060088054610865906001906112ef565b81548110610875576108756112c3565b90600052602060002001546000145b156108c157600854909150819061089d906001906112ef565b600882815481106108b0576108b06112c3565b600091825260209091200155610a60565b600881815481106108d4576108d46112c3565b90600052602060002001546000141580156109195750600880546108fa906001906112ef565b8154811061090a5761090a6112c3565b90600052602060002001546000145b156109505760088181548110610931576109316112c3565b90600052602060002001549150600160088054905061089d91906112ef565b60088181548110610963576109636112c3565b90600052602060002001546000141580156109a9575060088054610989906001906112ef565b81548110610999576109996112c3565b9060005260206000200154600014155b15610a1057600881815481106109c1576109c16112c3565b90600052602060002001549150600860016008805490506109e291906112ef565b815481106109f2576109f26112c3565b9060005260206000200154600882815481106108b0576108b06112c3565b600880549192508291610a25906001906112ef565b81548110610a3557610a356112c3565b906000526020600020015460088281548110610a5357610a536112c3565b6000918252602090912001555b6008805480610a7157610a71611306565b600190038181906000526020600020016000905590555090565b60075460009060ff1615610ae15760405162461bcd60e51b815260206004820152601760248201527f6f666673657420616c72656164792065786563757465640000000000000000006044820152606401610438565b6008541580610af1575060065442115b610b3d5760405162461bcd60e51b815260206004820152601960248201527f43616e6e6f742065786563757465206f666673657420796574000000000000006044820152606401610438565b600654610b8c5760405162461bcd60e51b815260206004820152601760248201527f6e6f7420726561647920746f206f6666736574207965740000000000000000006044820152606401610438565b610b94610ed1565b50506007805460ff1916600190811790915590565b6000546001600160a01b03163314610bd35760405162461bcd60e51b815260040161043890611253565b600754600160a81b900460ff1615610c255760405162461bcd60e51b815260206004820152601560248201527463616e206f6e6c79207072656d696e74206f6e636560581b6044820152606401610438565b60005b81811015610c9857600854610c3f906001906112ef565b60088281548110610c5257610c526112c3565b6000918252602090912001556008805480610c6f57610c6f611306565b600190038181906000526020600020016000905590558080610c909061131c565b915050610c28565b50506007805460ff60a81b1916600160a81b179055565b6000546001600160a01b03163314610cd95760405162461bcd60e51b815260040161043890611253565b600655565b6000546001600160a01b03163314610d085760405162461bcd60e51b815260040161043890611253565b6001600160a01b038116610d6d5760405162461bcd60e51b815260206004820152602660248201527f4f776e61626c653a206e6577206f776e657220697320746865207a65726f206160448201526564647265737360d01b6064820152608401610438565b610d7681610d79565b50565b600080546001600160a01b038381166001600160a01b0319831681178455604051919092169283917f8be0079c531659141344cd1fd0a4f28419497f9722a3daafe3b4186f6b6457e09190a35050565b6003546001600160a01b031633148015610de257508115155b610e2e5760405162461bcd60e51b815260206004820181905260248201527f6f6e6c792056524620436f6f7264696e61746f722063616e2066756c66696c6c6044820152606401610438565b610e3a61177082611337565b6005555050565b6008546000908190610e546001436112ef565b6040805160208101939093529040908201526bffffffffffffffffffffffff1941606090811b82168184015244607484015233901b16609482015260a80160408051601f198184030181529190528051602090910120600854909150600090600190610ec09084611337565b610eca91906112ef565b9392505050565b600042600654108015610ee5575060065415155b610f315760405162461bcd60e51b815260206004820152601e60248201527f6e6f7420726561647920746f206765742072616e646f6d206e756d62657200006044820152606401610438565b6002546040516370a0823160e01b81523060048201527f00000000000000000000000000000000000000000000000000000000000000006001600160a01b0316906370a0823190602401602060405180830381865afa158015610f98573d6000803e3d6000fd5b505050506040513d601f19601f82011682018060405250810190610fbc9190611288565b10156110245760405162461bcd60e51b815260206004820152603160248201527f4e6f7420656e6f756768204c696e6b2020696e20636f6e747261637420746f2060448201527033b2ba103930b73237b690373ab6b132b960791b6064820152608401610438565b611032600454600254611037565b905090565b60007f00000000000000000000000000000000000000000000000000000000000000006001600160a01b0316634000aea07f0000000000000000000000000000000000000000000000000000000000000000848660006040516020016110a7929190918252602082015260400190565b6040516020818303038152906040526040518463ffffffff1660e01b81526004016110d493929190611359565b6020604051808303816000875af11580156110f3573d6000803e3d6000fd5b505050506040513d601f19601f8201168201806040525081019061111791906112a1565b50600083815260016020818152604080842054815180840189905280830186905230606082015260808082018390528351808303909101815260a09091019092528151918301919091209387905290829052611172916113c5565b6000858152600160205260409020556111b28482604080516020808201949094528082019290925280518083038201815260609092019052805191012090565b949350505050565b6001600160a01b0381168114610d7657600080fd5b6000602082840312156111e157600080fd5b8135610eca816111ba565b600080604083850312156111ff57600080fd5b50508035926020909101359150565b6000806040838503121561122157600080fd5b823561122c816111ba565b946020939093013593505050565b60006020828403121561124c57600080fd5b5035919050565b6020808252818101527f4f776e61626c653a2063616c6c6572206973206e6f7420746865206f776e6572604082015260600190565b60006020828403121561129a57600080fd5b5051919050565b6000602082840312156112b357600080fd5b81518015158114610eca57600080fd5b634e487b7160e01b600052603260045260246000fd5b634e487b7160e01b600052601160045260246000fd5b600082821015611301576113016112d9565b500390565b634e487b7160e01b600052603160045260246000fd5b6000600019821415611330576113306112d9565b5060010190565b60008261135457634e487b7160e01b600052601260045260246000fd5b500690565b60018060a01b038416815260006020848184015260606040840152835180606085015260005b8181101561139b5785810183015185820160800152820161137f565b818111156113ad576000608083870101525b50601f01601f19169290920160800195945050505050565b600082198211156113d8576113d86112d9565b50019056fea2646970667358221220d940203e97e559b9f88811bd18ddfc3cd512804b8be6b1b130ab02eadf2867b264736f6c634300080a0033",
  "linkReferences": {},
  "deployedLinkReferences": {}
}