{
  "_format": "hh-sol-artifact-1",
  "contractName": "Randomness",
  "sourceName": "contracts/Randomness.sol",
  "abi": [
    {
      "inputs": [
        {
          "internalType": "address",
          "name": "_VRFAddress",
          "type": "address"
        },
        {
          "internalType": "address",
          "name": "_linkToken",
          "type": "address"
        },
        {
          "internalType": "bytes32",
          "name": "_keyHash",
          "type": "bytes32"
        },
        {
          "internalType": "uint256",
          "name": "_fee",
          "type": "uint256"
        }
      ],
      "stateMutability": "nonpayable",
      "type": "constructor"
    },
    {
      "anonymous": false,
      "inputs": [
        {
          "indexed": true,
          "internalType": "address",
          "name": "previousOwner",
          "type": "address"
        },
        {
          "indexed": true,
          "internalType": "address",
          "name": "newOwner",
          "type": "address"
        }
      ],
      "name": "OwnershipTransferred",
      "type": "event"
    },
    {
      "inputs": [],
      "name": "VRFCoordinator",
      "outputs": [
        {
          "internalType": "address",
          "name": "",
          "type": "address"
        }
      ],
      "stateMutability": "view",
      "type": "function"
    },
    {
      "inputs": [],
      "name": "claimableDate",
      "outputs": [
        {
          "internalType": "uint256",
          "name": "",
          "type": "uint256"
        }
      ],
      "stateMutability": "view",
      "type": "function"
    },
    {
      "inputs": [],
      "name": "executeOffset",
      "outputs": [
        {
          "internalType": "bool",
          "name": "",
          "type": "bool"
        }
      ],
      "stateMutability": "nonpayable",
      "type": "function"
    },
    {
      "inputs": [
        {
          "internalType": "uint256",
          "name": "_premintCount",
          "type": "uint256"
        }
      ],
      "name": "executePremint",
      "outputs": [],
      "stateMutability": "nonpayable",
      "type": "function"
    },
    {
      "inputs": [],
      "name": "fee",
      "outputs": [
        {
          "internalType": "uint256",
          "name": "",
          "type": "uint256"
        }
      ],
      "stateMutability": "view",
      "type": "function"
    },
    {
      "inputs": [],
      "name": "getAvailablePossums",
      "outputs": [
        {
          "internalType": "uint256",
          "name": "",
          "type": "uint256"
        }
      ],
      "stateMutability": "view",
      "type": "function"
    },
    {
      "inputs": [],
      "name": "getClaimableDate",
      "outputs": [
        {
          "internalType": "uint256",
          "name": "",
          "type": "uint256"
        }
      ],
      "stateMutability": "view",
      "type": "function"
    },
    {
      "inputs": [],
      "name": "getOffset",
      "outputs": [
        {
          "internalType": "uint256",
          "name": "",
          "type": "uint256"
        }
      ],
      "stateMutability": "view",
      "type": "function"
    },
    {
      "inputs": [],
      "name": "getPossumToBeClaimed",
      "outputs": [
        {
          "internalType": "uint256",
          "name": "tokenId",
          "type": "uint256"
        }
      ],
      "stateMutability": "nonpayable",
      "type": "function"
    },
    {
      "inputs": [],
      "name": "getPremint",
      "outputs": [
        {
          "internalType": "bool",
          "name": "",
          "type": "bool"
        }
      ],
      "stateMutability": "view",
      "type": "function"
    },
    {
      "inputs": [],
      "name": "getTrash",
      "outputs": [
        {
          "internalType": "address",
          "name": "",
          "type": "address"
        }
      ],
      "stateMutability": "view",
      "type": "function"
    },
    {
      "inputs": [],
      "name": "keyHash",
      "outputs": [
        {
          "internalType": "bytes32",
          "name": "",
          "type": "bytes32"
        }
      ],
      "stateMutability": "view",
      "type": "function"
    },
    {
      "inputs": [],
      "name": "offsetExecuted",
      "outputs": [
        {
          "internalType": "bool",
          "name": "",
          "type": "bool"
        }
      ],
      "stateMutability": "view",
      "type": "function"
    },
    {
      "inputs": [],
      "name": "owner",
      "outputs": [
        {
          "internalType": "address",
          "name": "",
          "type": "address"
        }
      ],
      "stateMutability": "view",
      "type": "function"
    },
    {
      "inputs": [],
      "name": "premintExecuted",
      "outputs": [
        {
          "internalType": "bool",
          "name": "",
          "type": "bool"
        }
      ],
      "stateMutability": "view",
      "type": "function"
    },
    {
      "inputs": [],
      "name": "randomIdOffset",
      "outputs": [
        {
          "internalType": "uint256",
          "name": "",
          "type": "uint256"
        }
      ],
      "stateMutability": "view",
      "type": "function"
    },
    {
      "inputs": [],
      "name": "randomIdOffsetExecuted",
      "outputs": [
        {
          "internalType": "bool",
          "name": "",
          "type": "bool"
        }
      ],
      "stateMutability": "view",
      "type": "function"
    },
    {
      "inputs": [
        {
          "internalType": "bytes32",
          "name": "requestId",
          "type": "bytes32"
        },
        {
          "internalType": "uint256",
          "name": "randomness",
          "type": "uint256"
        }
      ],
      "name": "rawFulfillRandomness",
      "outputs": [],
      "stateMutability": "nonpayable",
      "type": "function"
    },
    {
      "inputs": [],
      "name": "renounceOwnership",
      "outputs": [],
      "stateMutability": "nonpayable",
      "type": "function"
    },
    {
      "inputs": [
        {
          "internalType": "uint256",
          "name": "_claimable",
          "type": "uint256"
        }
      ],
      "name": "setClaimableDate",
      "outputs": [],
      "stateMutability": "nonpayable",
      "type": "function"
    },
    {
      "inputs": [
        {
          "internalType": "address",
          "name": "trash",
          "type": "address"
        }
      ],
      "name": "setTrash",
      "outputs": [],
      "stateMutability": "nonpayable",
      "type": "function"
    },
    {
      "inputs": [
        {
          "internalType": "address",
          "name": "newOwner",
          "type": "address"
        }
      ],
      "name": "transferOwnership",
      "outputs": [],
      "stateMutability": "nonpayable",
      "type": "function"
    },
    {
      "inputs": [],
      "name": "trashAddress",
      "outputs": [
        {
          "internalType": "address",
          "name": "",
          "type": "address"
        }
      ],
      "stateMutability": "view",
      "type": "function"
    },
    {
      "inputs": [],
      "name": "withdraw",
      "outputs": [],
      "stateMutability": "payable",
      "type": "function"
    },
    {
      "inputs": [
        {
          "internalType": "contract IERC20",
          "name": "token",
          "type": "address"
        },
        {
          "internalType": "uint256",
          "name": "_amount",
          "type": "uint256"
        }
      ],
      "name": "withdrawErc20",
      "outputs": [],
      "stateMutability": "nonpayable",
      "type": "function"
    },
    {
      "stateMutability": "payable",
      "type": "receive"
    }
  ],
  "bytecode": "0x611b5860c081815262036be06040529060e062036b00803683375050815162000030926008925060200190620000f9565b503480156200003e57600080fd5b50604051620016363803806200163683398101604081905262000061916200017d565b83836200006e33620000a9565b6001600160a01b0391821660a0528116608052600492909255600380546001600160a01b0319169490921693909317905550600255620001c5565b600080546001600160a01b038381166001600160a01b0319831681178455604051919092169283917f8be0079c531659141344cd1fd0a4f28419497f9722a3daafe3b4186f6b6457e09190a35050565b82805482825590600052602060002090810192821562000137579160200282015b82811115620001375782518255916020019190600101906200011a565b506200014592915062000149565b5090565b5b808211156200014557600081556001016200014a565b80516001600160a01b03811681146200017857600080fd5b919050565b600080600080608085870312156200019457600080fd5b6200019f8562000160565b9350620001af6020860162000160565b6040860151606090960151949790965092505050565b60805160a05161143d620001f9600039600081816105b70152611094015260008181610f730152611065015261143d6000f3fe60806040526004361061016a5760003560e01c806396880d8b116100d1578063ce2218331161008a578063e4564d2811610064578063e4564d28146103cc578063eb6ad24e146103ec578063f2548bb314610401578063f2fde38b1461042157600080fd5b8063ce22183314610370578063ddca3f4314610395578063de166edc146103ab57600080fd5b806396880d8b146102de5780639b48f484146102f4578063bd1f4b521461030c578063be374b7a1461032c578063c6410f7b14610346578063cdbfc9501461035b57600080fd5b8063715018a611610123578063715018a6146102415780638481de5f1461025657806388cafa4e1461026b5780638da5cb5b14610280578063911686141461029e57806394985ddd146102be57600080fd5b806310261146146101765780632664a8ae146101b257806333b60863146101dd5780633ccfd60b146101fd578063551a82cf1461020757806361728f391461022b57600080fd5b3661017157005b600080fd5b34801561018257600080fd5b5060075461010090046001600160a01b03165b6040516001600160a01b0390911681526020015b60405180910390f35b3480156101be57600080fd5b50600754600160a81b900460ff165b60405190151581526020016101a9565b3480156101e957600080fd5b50600354610195906001600160a01b031681565b610205610441565b005b34801561021357600080fd5b5061021d60065481565b6040519081526020016101a9565b34801561023757600080fd5b5061021d60045481565b34801561024d57600080fd5b50610205610524565b34801561026257600080fd5b5060085461021d565b34801561027757600080fd5b5060065461021d565b34801561028c57600080fd5b506000546001600160a01b0316610195565b3480156102aa57600080fd5b506102056102b93660046111f9565b61055a565b3480156102ca57600080fd5b506102056102d9366004611216565b6105ac565b3480156102ea57600080fd5b5061021d60055481565b34801561030057600080fd5b5060075460ff166101cd565b34801561031857600080fd5b50610205610327366004611238565b61062e565b34801561033857600080fd5b506007546101cd9060ff1681565b34801561035257600080fd5b5061021d6107b9565b34801561036757600080fd5b506101cd610a80565b34801561037c57600080fd5b506007546101959061010090046001600160a01b031681565b3480156103a157600080fd5b5061021d60025481565b3480156103b757600080fd5b506007546101cd90600160a81b900460ff1681565b3480156103d857600080fd5b506102056103e7366004611264565b610ba3565b3480156103f857600080fd5b5060055461021d565b34801561040d57600080fd5b5061020561041c366004611264565b610cd9565b34801561042d57600080fd5b5061020561043c3660046111f9565b610d08565b6000546001600160a01b031633146104745760405162461bcd60e51b815260040161046b9061127d565b60405180910390fd5b4760006104896000546001600160a01b031690565b6001600160a01b03168260405160006040518083038185875af1925050503d80600081146104d3576040519150601f19603f3d011682016040523d82523d6000602084013e6104d8565b606091505b50509050806105205760405162461bcd60e51b81526020600482015260146024820152732330b4b632b2103a379039b2b7321022ba3432b960611b604482015260640161046b565b5050565b6000546001600160a01b0316331461054e5760405162461bcd60e51b815260040161046b9061127d565b6105586000610da3565b565b6000546001600160a01b031633146105845760405162461bcd60e51b815260040161046b9061127d565b600780546001600160a01b0390921661010002610100600160a81b0319909216919091179055565b336001600160a01b037f000000000000000000000000000000000000000000000000000000000000000016146106245760405162461bcd60e51b815260206004820152601f60248201527f4f6e6c7920565246436f6f7264696e61746f722063616e2066756c66696c6c00604482015260640161046b565b6105208282610df3565b6000546001600160a01b031633146106585760405162461bcd60e51b815260040161046b9061127d565b6040516370a0823160e01b81523060048201526000906001600160a01b038416906370a0823190602401602060405180830381865afa15801561069f573d6000803e3d6000fd5b505050506040513d601f19601f820116820180604052508101906106c391906112b2565b116107225760405162461bcd60e51b815260206004820152602960248201527f7468697320636f6e747261637420646f6573206e6f7420636f6e7461696e20746044820152683434b9903a37b5b2b760b91b606482015260840161046b565b816001600160a01b031663a9059cbb6107436000546001600160a01b031690565b6040516001600160e01b031960e084901b1681526001600160a01b039091166004820152602481018490526044016020604051808303816000875af1158015610790573d6000803e3d6000fd5b505050506040513d601f19601f820116820180604052508101906107b491906112cb565b505050565b60075460009061010090046001600160a01b031633146108165760405162461bcd60e51b81526020600482015260186024820152776f6e6c792054726173682063616e2063616c6c207468697360401b604482015260640161046b565b6000610820610e6b565b905060088181548110610835576108356112ed565b9060005260206000200154600014801561087957506008805461085a90600190611319565b8154811061086a5761086a6112ed565b90600052602060002001546000145b156108b657600854909150819061089290600190611319565b600882815481106108a5576108a56112ed565b600091825260209091200155610a55565b600881815481106108c9576108c96112ed565b906000526020600020015460001415801561090e5750600880546108ef90600190611319565b815481106108ff576108ff6112ed565b90600052602060002001546000145b156109455760088181548110610926576109266112ed565b9060005260206000200154915060016008805490506108929190611319565b60088181548110610958576109586112ed565b906000526020600020015460001415801561099e57506008805461097e90600190611319565b8154811061098e5761098e6112ed565b9060005260206000200154600014155b15610a0557600881815481106109b6576109b66112ed565b90600052602060002001549150600860016008805490506109d79190611319565b815481106109e7576109e76112ed565b9060005260206000200154600882815481106108a5576108a56112ed565b600880549192508291610a1a90600190611319565b81548110610a2a57610a2a6112ed565b906000526020600020015460088281548110610a4857610a486112ed565b6000918252602090912001555b6008805480610a6657610a66611330565b600190038181906000526020600020016000905590555090565b60075460009060ff1615610ad65760405162461bcd60e51b815260206004820152601760248201527f6f666673657420616c7265616479206578656375746564000000000000000000604482015260640161046b565b6008541580610ae6575060065442115b610b325760405162461bcd60e51b815260206004820152601960248201527f43616e6e6f742065786563757465206f66667365742079657400000000000000604482015260640161046b565b600654610b815760405162461bcd60e51b815260206004820152601760248201527f6e6f7420726561647920746f206f666673657420796574000000000000000000604482015260640161046b565b610b89610efb565b5050600a6005556007805460ff1916600190811790915590565b60075461010090046001600160a01b03163314610bfd5760405162461bcd60e51b81526020600482015260186024820152776f6e6c792054726173682063616e2063616c6c207468697360401b604482015260640161046b565b600754600160a81b900460ff1615610c4f5760405162461bcd60e51b815260206004820152601560248201527463616e206f6e6c79207072656d696e74206f6e636560581b604482015260640161046b565b60005b81811015610cc257600854610c6990600190611319565b60088281548110610c7c57610c7c6112ed565b6000918252602090912001556008805480610c9957610c99611330565b600190038181906000526020600020016000905590558080610cba90611346565b915050610c52565b50506007805460ff60a81b1916600160a81b179055565b6000546001600160a01b03163314610d035760405162461bcd60e51b815260040161046b9061127d565b600655565b6000546001600160a01b03163314610d325760405162461bcd60e51b815260040161046b9061127d565b6001600160a01b038116610d975760405162461bcd60e51b815260206004820152602660248201527f4f776e61626c653a206e6577206f776e657220697320746865207a65726f206160448201526564647265737360d01b606482015260840161046b565b610da081610da3565b50565b600080546001600160a01b038381166001600160a01b0319831681178455604051919092169283917f8be0079c531659141344cd1fd0a4f28419497f9722a3daafe3b4186f6b6457e09190a35050565b6003546001600160a01b031633148015610e0c57508115155b610e585760405162461bcd60e51b815260206004820181905260248201527f6f6e6c792056524620436f6f7264696e61746f722063616e2066756c66696c6c604482015260640161046b565b610e6461177082611361565b6005555050565b6008546000908190610e7e600143611319565b6040805160208101939093529040908201526bffffffffffffffffffffffff1941606090811b82168184015244607484015233901b16609482015260a80160408051601f198184030181529190528051602090910120600854909150600090600190610eea9084611361565b610ef49190611319565b9392505050565b600042600654108015610f0f575060065415155b610f5b5760405162461bcd60e51b815260206004820152601e60248201527f6e6f7420726561647920746f206765742072616e646f6d206e756d6265720000604482015260640161046b565b6002546040516370a0823160e01b81523060048201527f00000000000000000000000000000000000000000000000000000000000000006001600160a01b0316906370a0823190602401602060405180830381865afa158015610fc2573d6000803e3d6000fd5b505050506040513d601f19601f82011682018060405250810190610fe691906112b2565b101561104e5760405162461bcd60e51b815260206004820152603160248201527f4e6f7420656e6f756768204c696e6b2020696e20636f6e747261637420746f2060448201527033b2ba103930b73237b690373ab6b132b960791b606482015260840161046b565b61105c600454600254611061565b905090565b60007f00000000000000000000000000000000000000000000000000000000000000006001600160a01b0316634000aea07f0000000000000000000000000000000000000000000000000000000000000000848660006040516020016110d1929190918252602082015260400190565b6040516020818303038152906040526040518463ffffffff1660e01b81526004016110fe93929190611383565b6020604051808303816000875af115801561111d573d6000803e3d6000fd5b505050506040513d601f19601f8201168201806040525081019061114191906112cb565b50600083815260016020818152604080842054815180840189905280830186905230606082015260808082018390528351808303909101815260a0909101909252815191830191909120938790529082905261119c916113ef565b6000858152600160205260409020556111dc8482604080516020808201949094528082019290925280518083038201815260609092019052805191012090565b949350505050565b6001600160a01b0381168114610da057600080fd5b60006020828403121561120b57600080fd5b8135610ef4816111e4565b6000806040838503121561122957600080fd5b50508035926020909101359150565b6000806040838503121561124b57600080fd5b8235611256816111e4565b946020939093013593505050565b60006020828403121561127657600080fd5b5035919050565b6020808252818101527f4f776e61626c653a2063616c6c6572206973206e6f7420746865206f776e6572604082015260600190565b6000602082840312156112c457600080fd5b5051919050565b6000602082840312156112dd57600080fd5b81518015158114610ef457600080fd5b634e487b7160e01b600052603260045260246000fd5b634e487b7160e01b600052601160045260246000fd5b60008282101561132b5761132b611303565b500390565b634e487b7160e01b600052603160045260246000fd5b600060001982141561135a5761135a611303565b5060010190565b60008261137e57634e487b7160e01b600052601260045260246000fd5b500690565b60018060a01b038416815260006020848184015260606040840152835180606085015260005b818110156113c5578581018301518582016080015282016113a9565b818111156113d7576000608083870101525b50601f01601f19169290920160800195945050505050565b6000821982111561140257611402611303565b50019056fea26469706673582212205fe8f4affa21401e2d62b9294556fa72c6b06b7faf1a7fd7ba5ade54155e2fbe64736f6c634300080a0033",
  "linkReferences": {},
  "deployedLinkReferences": {}
}