{
  "_format": "hh-sol-artifact-1",
  "contractName": "Randomness",
  "sourceName": "contracts/Randomness.sol",
  "abi": [
    {
      "inputs": [
        {
          "internalType": "address",
          "name": "_VRFAddress",
          "type": "address"
        },
        {
          "internalType": "address",
          "name": "_linkToken",
          "type": "address"
        },
        {
          "internalType": "bytes32",
          "name": "_keyHash",
          "type": "bytes32"
        },
        {
          "internalType": "uint256",
          "name": "_fee",
          "type": "uint256"
        },
        {
          "internalType": "uint256",
          "name": "_claimableDate",
          "type": "uint256"
        },
        {
          "internalType": "uint256",
          "name": "_arrayLength",
          "type": "uint256"
        }
      ],
      "stateMutability": "nonpayable",
      "type": "constructor"
    },
    {
      "inputs": [],
      "name": "arrayLength",
      "outputs": [
        {
          "internalType": "uint256",
          "name": "",
          "type": "uint256"
        }
      ],
      "stateMutability": "view",
      "type": "function"
    },
    {
      "inputs": [],
      "name": "executeOffset",
      "outputs": [
        {
          "internalType": "bool",
          "name": "",
          "type": "bool"
        }
      ],
      "stateMutability": "nonpayable",
      "type": "function"
    },
    {
      "inputs": [],
      "name": "getAvailiblePossums",
      "outputs": [
        {
          "internalType": "uint256",
          "name": "",
          "type": "uint256"
        }
      ],
      "stateMutability": "view",
      "type": "function"
    },
    {
      "inputs": [],
      "name": "getOffset",
      "outputs": [
        {
          "internalType": "uint256",
          "name": "",
          "type": "uint256"
        }
      ],
      "stateMutability": "view",
      "type": "function"
    },
    {
      "inputs": [],
      "name": "getPremintNumber",
      "outputs": [
        {
          "internalType": "uint256",
          "name": "",
          "type": "uint256"
        }
      ],
      "stateMutability": "view",
      "type": "function"
    },
    {
      "inputs": [],
      "name": "gettrash",
      "outputs": [
        {
          "internalType": "address",
          "name": "",
          "type": "address"
        }
      ],
      "stateMutability": "view",
      "type": "function"
    },
    {
      "inputs": [],
      "name": "offsetExecuted",
      "outputs": [
        {
          "internalType": "bool",
          "name": "",
          "type": "bool"
        }
      ],
      "stateMutability": "view",
      "type": "function"
    },
    {
      "inputs": [],
      "name": "premintPossums",
      "outputs": [],
      "stateMutability": "nonpayable",
      "type": "function"
    },
    {
      "inputs": [],
      "name": "premintSet",
      "outputs": [
        {
          "internalType": "bool",
          "name": "",
          "type": "bool"
        }
      ],
      "stateMutability": "view",
      "type": "function"
    },
    {
      "inputs": [],
      "name": "premintingComplete",
      "outputs": [
        {
          "internalType": "bool",
          "name": "",
          "type": "bool"
        }
      ],
      "stateMutability": "view",
      "type": "function"
    },
    {
      "inputs": [],
      "name": "randomIdOffsetExecuted",
      "outputs": [
        {
          "internalType": "bool",
          "name": "",
          "type": "bool"
        }
      ],
      "stateMutability": "view",
      "type": "function"
    },
    {
      "inputs": [
        {
          "internalType": "bytes32",
          "name": "requestId",
          "type": "bytes32"
        },
        {
          "internalType": "uint256",
          "name": "randomness",
          "type": "uint256"
        }
      ],
      "name": "rawFulfillRandomness",
      "outputs": [],
      "stateMutability": "nonpayable",
      "type": "function"
    },
    {
      "inputs": [],
      "name": "trashSet",
      "outputs": [
        {
          "internalType": "bool",
          "name": "",
          "type": "bool"
        }
      ],
      "stateMutability": "view",
      "type": "function"
    }
  ],
  "bytecode": "0x606460075561271060c08181526204e2e06040529060e06204e200803683375050815161003392600a9250602001906100b6565b5034801561004057600080fd5b50604051610c81380380610c8183398101604081905261005f91610132565b6001600160601b0319606087811b821660a0529590951b909416608052600392909255600280546001600160a01b0319166001600160a01b0390951694909417909355600192909255600591909155600955610189565b8280548282559060005260206000209081019282156100f1579160200282015b828111156100f15782518255916020019190600101906100d6565b506100fd929150610101565b5090565b5b808211156100fd5760008155600101610102565b80516001600160a01b038116811461012d57600080fd5b919050565b60008060008060008060c0878903121561014a578182fd5b61015387610116565b955061016160208801610116565b945060408701519350606087015192506080870151915060a087015190509295509295509295565b60805160601c60a05160601c610abf6101c260003960008181610408015261079f01526000818161064901526107630152610abf6000f3fe608060405234801561001057600080fd5b50600436106100df5760003560e01c80639b48f4841161008c578063cdbfc95011610066578063cdbfc950146101a7578063e554482e146101af578063eb6ad24e146101b8578063ecb77ff3146101c057600080fd5b80639b48f48414610171578063be374b7a14610182578063ca3d8b851461019557600080fd5b80634e4a72de116100bd5780634e4a72de1461012957806388a4dcae1461013657806394985ddd1461015e57600080fd5b80632344e918146100e4578063416c585d1461010d57806343aceab614610117575b600080fd5b6008546100f8906301000000900460ff1681565b60405190151581526020015b60405180910390f35b6101156101c8565b005b600a545b604051908152602001610104565b6008546100f89060ff1681565b60065460405173ffffffffffffffffffffffffffffffffffffffff9091168152602001610104565b61011561016c36600461091c565b6103f0565b60085462010000900460ff166100f8565b6008546100f89062010000900460ff1681565b6008546100f890610100900460ff1681565b6100f8610483565b61011b60095481565b60045461011b565b60075461011b565b60065473ffffffffffffffffffffffffffffffffffffffff16331461025a5760405162461bcd60e51b815260206004820152602160248201527f6f6e6c79206368696c6420636f6e74726163742063616e2063616c6c2074686960448201527f730000000000000000000000000000000000000000000000000000000000000060648201526084015b60405180910390fd5b6008546301000000900460ff16156102da5760405162461bcd60e51b815260206004820152602560248201527f596f752063616e206f6e6c79207072656d696e742074686520506f7373756d7360448201527f206f6e63650000000000000000000000000000000000000000000000000000006064820152608401610251565b600754600a54101561032e5760405162461bcd60e51b815260206004820152601d60248201527f4e6f20506f7373756d73206c65667420746f20626520636c61696d65640000006044820152606401610251565b60005b6007548110156103bf57600a5461034a90600190610a03565b600a828154811061036b57634e487b7160e01b600052603260045260246000fd5b600091825260209091200155600a80548061039657634e487b7160e01b600052603160045260246000fd5b6001900381819060005260206000200160009055905580806103b790610a1a565b915050610331565b50600880547fffffffffffffffffffffffffffffffffffffffffffffffffffffffff00ffffff166301000000179055565b3373ffffffffffffffffffffffffffffffffffffffff7f000000000000000000000000000000000000000000000000000000000000000016146104755760405162461bcd60e51b815260206004820152601f60248201527f4f6e6c7920565246436f6f7264696e61746f722063616e2066756c66696c6c006044820152606401610251565b61047f8282610583565b5050565b60085460009062010000900460ff16156104df5760405162461bcd60e51b815260206004820152601760248201527f6f666673657420616c72656164792065786563757465640000000000000000006044820152606401610251565b600a5415806104ef575060055442115b61053b5760405162461bcd60e51b815260206004820152601960248201527f43616e6e6f742065786563757465206f666673657420796574000000000000006044820152606401610251565b610543610608565b5050600a600455600880547fffffffffffffffffffffffffffffffffffffffffffffffffffffffffff00ffff166201000090811791829055900460ff1690565b60025473ffffffffffffffffffffffffffffffffffffffff16331480156105a957508115155b6105f55760405162461bcd60e51b815260206004820181905260248201527f6f6e6c792056524620436f6f7264696e61746f722063616e2066756c66696c6c6044820152606401610251565b61060161270f82610a53565b6004555050565b6000426005541061061857600080fd5b6001546040517f70a082310000000000000000000000000000000000000000000000000000000081523060048201527f000000000000000000000000000000000000000000000000000000000000000073ffffffffffffffffffffffffffffffffffffffff16906370a082319060240160206040518083038186803b1580156106a057600080fd5b505afa1580156106b4573d6000803e3d6000fd5b505050506040513d601f19601f820116820180604052508101906106d8919061093d565b101561074c5760405162461bcd60e51b815260206004820152603160248201527f4e6f7420656e6f756768204c696e6b2020696e20636f6e747261637420746f2060448201527f6765742072616e646f6d206e756d6265720000000000000000000000000000006064820152608401610251565b61075a60035460015461075f565b905090565b60007f000000000000000000000000000000000000000000000000000000000000000073ffffffffffffffffffffffffffffffffffffffff16634000aea07f0000000000000000000000000000000000000000000000000000000000000000848660006040516020016107dc929190918252602082015260400190565b6040516020818303038152906040526040518463ffffffff1660e01b815260040161080993929190610955565b602060405180830381600087803b15801561082357600080fd5b505af1158015610837573d6000803e3d6000fd5b505050506040513d601f19601f8201168201806040525081019061085b91906108f5565b5060008381526020818152604080832054815180840188905280830185905230606082015260808082018390528351808303909101815260a0909101909252815191830191909120868452929091526108b59060016109eb565b6000858152602081815260409182902092909255805180830187905280820184905281518082038301815260609091019091528051910120949350505050565b600060208284031215610906578081fd5b81518015158114610915578182fd5b9392505050565b6000806040838503121561092e578081fd5b50508035926020909101359150565b60006020828403121561094e578081fd5b5051919050565b73ffffffffffffffffffffffffffffffffffffffff84168152600060208481840152606060408401528351806060850152825b818110156109a457858101830151858201608001528201610988565b818111156109b55783608083870101525b50601f017fffffffffffffffffffffffffffffffffffffffffffffffffffffffffffffffe0169290920160800195945050505050565b600082198211156109fe576109fe610a73565b500190565b600082821015610a1557610a15610a73565b500390565b60007fffffffffffffffffffffffffffffffffffffffffffffffffffffffffffffffff821415610a4c57610a4c610a73565b5060010190565b600082610a6e57634e487b7160e01b81526012600452602481fd5b500690565b634e487b7160e01b600052601160045260246000fdfea264697066735822122079fa9cf065d8287e8399898d7a4d5c664eaebd76dc44bed95ed8e18ad869fd9a64736f6c63430008040033",
  "linkReferences": {},
  "deployedLinkReferences": {}
}