{
  "_format": "hh-sol-artifact-1",
  "contractName": "Randomness",
  "sourceName": "contracts/Randomness.sol",
  "abi": [
    {
      "inputs": [
        {
          "internalType": "address",
          "name": "_VRFAddress",
          "type": "address"
        },
        {
          "internalType": "uint64",
          "name": "_subscriptionId",
          "type": "uint64"
        },
        {
          "internalType": "address",
          "name": "_linkTokenAddress",
          "type": "address"
        },
        {
          "internalType": "bytes32",
          "name": "_keyHash",
          "type": "bytes32"
        }
      ],
      "stateMutability": "nonpayable",
      "type": "constructor"
    },
    {
      "inputs": [
        {
          "internalType": "address",
          "name": "have",
          "type": "address"
        },
        {
          "internalType": "address",
          "name": "want",
          "type": "address"
        }
      ],
      "name": "OnlyCoordinatorCanFulfill",
      "type": "error"
    },
    {
      "anonymous": false,
      "inputs": [
        {
          "indexed": true,
          "internalType": "address",
          "name": "previousOwner",
          "type": "address"
        },
        {
          "indexed": true,
          "internalType": "address",
          "name": "newOwner",
          "type": "address"
        }
      ],
      "name": "OwnershipTransferred",
      "type": "event"
    },
    {
      "inputs": [],
      "name": "VRFCoordinator",
      "outputs": [
        {
          "internalType": "address",
          "name": "",
          "type": "address"
        }
      ],
      "stateMutability": "view",
      "type": "function"
    },
    {
      "inputs": [],
      "name": "claimableDate",
      "outputs": [
        {
          "internalType": "uint256",
          "name": "",
          "type": "uint256"
        }
      ],
      "stateMutability": "view",
      "type": "function"
    },
    {
      "inputs": [],
      "name": "executeOffset",
      "outputs": [
        {
          "internalType": "bool",
          "name": "",
          "type": "bool"
        }
      ],
      "stateMutability": "nonpayable",
      "type": "function"
    },
    {
      "inputs": [
        {
          "internalType": "uint256",
          "name": "_premintCount",
          "type": "uint256"
        }
      ],
      "name": "executePremint",
      "outputs": [],
      "stateMutability": "nonpayable",
      "type": "function"
    },
    {
      "inputs": [],
      "name": "getAvailablePossums",
      "outputs": [
        {
          "internalType": "uint256",
          "name": "",
          "type": "uint256"
        }
      ],
      "stateMutability": "view",
      "type": "function"
    },
    {
      "inputs": [],
      "name": "getClaimableDate",
      "outputs": [
        {
          "internalType": "uint256",
          "name": "",
          "type": "uint256"
        }
      ],
      "stateMutability": "view",
      "type": "function"
    },
    {
      "inputs": [],
      "name": "getOffset",
      "outputs": [
        {
          "internalType": "uint256",
          "name": "",
          "type": "uint256"
        }
      ],
      "stateMutability": "view",
      "type": "function"
    },
    {
      "inputs": [],
      "name": "getPossumToBeClaimed",
      "outputs": [
        {
          "internalType": "uint256",
          "name": "tokenId",
          "type": "uint256"
        }
      ],
      "stateMutability": "nonpayable",
      "type": "function"
    },
    {
      "inputs": [],
      "name": "getPremint",
      "outputs": [
        {
          "internalType": "bool",
          "name": "",
          "type": "bool"
        }
      ],
      "stateMutability": "view",
      "type": "function"
    },
    {
      "inputs": [],
      "name": "getTrash",
      "outputs": [
        {
          "internalType": "address",
          "name": "",
          "type": "address"
        }
      ],
      "stateMutability": "view",
      "type": "function"
    },
    {
      "inputs": [],
      "name": "keyHash",
      "outputs": [
        {
          "internalType": "bytes32",
          "name": "",
          "type": "bytes32"
        }
      ],
      "stateMutability": "view",
      "type": "function"
    },
    {
      "inputs": [],
      "name": "owner",
      "outputs": [
        {
          "internalType": "address",
          "name": "",
          "type": "address"
        }
      ],
      "stateMutability": "view",
      "type": "function"
    },
    {
      "inputs": [],
      "name": "premintExecuted",
      "outputs": [
        {
          "internalType": "bool",
          "name": "",
          "type": "bool"
        }
      ],
      "stateMutability": "view",
      "type": "function"
    },
    {
      "inputs": [
        {
          "internalType": "uint256",
          "name": "",
          "type": "uint256"
        }
      ],
      "name": "randomIdOffset",
      "outputs": [
        {
          "internalType": "uint256",
          "name": "",
          "type": "uint256"
        }
      ],
      "stateMutability": "view",
      "type": "function"
    },
    {
      "inputs": [],
      "name": "randomIdOffsetExecuted",
      "outputs": [
        {
          "internalType": "bool",
          "name": "",
          "type": "bool"
        }
      ],
      "stateMutability": "view",
      "type": "function"
    },
    {
      "inputs": [
        {
          "internalType": "uint256",
          "name": "requestId",
          "type": "uint256"
        },
        {
          "internalType": "uint256[]",
          "name": "randomWords",
          "type": "uint256[]"
        }
      ],
      "name": "rawFulfillRandomWords",
      "outputs": [],
      "stateMutability": "nonpayable",
      "type": "function"
    },
    {
      "inputs": [],
      "name": "renounceOwnership",
      "outputs": [],
      "stateMutability": "nonpayable",
      "type": "function"
    },
    {
      "inputs": [],
      "name": "requestId",
      "outputs": [
        {
          "internalType": "uint256",
          "name": "",
          "type": "uint256"
        }
      ],
      "stateMutability": "view",
      "type": "function"
    },
    {
      "inputs": [
        {
          "internalType": "uint256",
          "name": "_claimable",
          "type": "uint256"
        }
      ],
      "name": "setClaimableDate",
      "outputs": [],
      "stateMutability": "nonpayable",
      "type": "function"
    },
    {
      "inputs": [
        {
          "internalType": "address",
          "name": "trash",
          "type": "address"
        }
      ],
      "name": "setTrash",
      "outputs": [],
      "stateMutability": "nonpayable",
      "type": "function"
    },
    {
      "inputs": [
        {
          "internalType": "address",
          "name": "newOwner",
          "type": "address"
        }
      ],
      "name": "transferOwnership",
      "outputs": [],
      "stateMutability": "nonpayable",
      "type": "function"
    },
    {
      "inputs": [],
      "name": "trashAddress",
      "outputs": [
        {
          "internalType": "address",
          "name": "",
          "type": "address"
        }
      ],
      "stateMutability": "view",
      "type": "function"
    },
    {
      "inputs": [],
      "name": "withdraw",
      "outputs": [],
      "stateMutability": "payable",
      "type": "function"
    },
    {
      "inputs": [
        {
          "internalType": "contract IERC20",
          "name": "token",
          "type": "address"
        },
        {
          "internalType": "uint256",
          "name": "_amount",
          "type": "uint256"
        }
      ],
      "name": "withdrawErc20",
      "outputs": [],
      "stateMutability": "nonpayable",
      "type": "function"
    },
    {
      "stateMutability": "payable",
      "type": "receive"
    }
  ],
  "bytecode": "0x6003805463ffffffff60401b19166a030d4000000000000000001790556005805465ffffffffffff191662020003179055611b5860a081815262036bc06040529060c062036b0080368337505081516200006192600a92506020019062000170565b503480156200006f57600080fd5b5060405162001557380380620015578339810160408190526200009291620001f4565b836200009e3362000120565b6001600160a01b0390811660805260058054600160301b600160d01b0319166601000000000000968316968702179055600680546001600160a01b03199081169490921693909317909255600380546001600160401b0319166001600160401b0394909416939093179092556001805490911690921790915560025562000254565b600080546001600160a01b038381166001600160a01b0319831681178455604051919092169283917f8be0079c531659141344cd1fd0a4f28419497f9722a3daafe3b4186f6b6457e09190a35050565b828054828255906000526020600020908101928215620001ae579160200282015b82811115620001ae57825182559160200191906001019062000191565b50620001bc929150620001c0565b5090565b5b80821115620001bc5760008155600101620001c1565b80516001600160a01b0381168114620001ef57600080fd5b919050565b600080600080608085870312156200020b57600080fd5b6200021685620001d7565b60208601519094506001600160401b03811681146200023457600080fd5b92506200024460408601620001d7565b6060959095015193969295505050565b6080516112e06200027760003960008181610422015261046401526112e06000f3fe60806040526004361061014e5760003560e01c806391168614116100b6578063ce2218331161006f578063ce2218331461035c578063de166edc14610381578063e4564d28146103a2578063eb6ad24e146103c2578063f2548bb3146103d7578063f2fde38b146103f757600080fd5b806391168614146102b8578063bd1f4b52146102d8578063be374b7a146102f8578063c6410f7b14610312578063c66a566314610327578063cdbfc9501461034757600080fd5b8063551a82cf11610108578063551a82cf1461022f57806361728f3914610245578063715018a61461025b5780638481de5f1461027057806388cafa4e146102855780638da5cb5b1461029a57600080fd5b80626d6cae1461015a57806310261146146101835780631fe543e3146101ba5780632664a8ae146101dc57806333b60863146102075780633ccfd60b1461022757600080fd5b3661015557005b600080fd5b34801561016657600080fd5b5061017060045481565b6040519081526020015b60405180910390f35b34801561018f57600080fd5b5060095461010090046001600160a01b03165b6040516001600160a01b03909116815260200161017a565b3480156101c657600080fd5b506101da6101d5366004611063565b610417565b005b3480156101e857600080fd5b50600954600160a81b900460ff165b604051901515815260200161017a565b34801561021357600080fd5b506001546101a2906001600160a01b031681565b6101da6104a4565b34801561023b57600080fd5b5061017060085481565b34801561025157600080fd5b5061017060025481565b34801561026757600080fd5b506101da61057a565b34801561027c57600080fd5b50600a54610170565b34801561029157600080fd5b50600854610170565b3480156102a657600080fd5b506000546001600160a01b03166101a2565b3480156102c457600080fd5b506101da6102d3366004611142565b6105b0565b3480156102e457600080fd5b506101da6102f336600461115f565b610602565b34801561030457600080fd5b506009546101f79060ff1681565b34801561031e57600080fd5b506101706107c6565b34801561033357600080fd5b5061017061034236600461118b565b610a92565b34801561035357600080fd5b506101f7610ab3565b34801561036857600080fd5b506009546101a29061010090046001600160a01b031681565b34801561038d57600080fd5b506009546101f790600160a81b900460ff1681565b3480156103ae57600080fd5b506101da6103bd36600461118b565b610bd0565b3480156103ce57600080fd5b50610170610cd6565b3480156103e357600080fd5b506101da6103f236600461118b565b610d0a565b34801561040357600080fd5b506101da610412366004611142565b610d39565b336001600160a01b037f000000000000000000000000000000000000000000000000000000000000000016146104965760405163073e64fd60e21b81523360048201526001600160a01b037f00000000000000000000000000000000000000000000000000000000000000001660248201526044015b60405180910390fd5b6104a08282610dd4565b5050565b6000546001600160a01b031633146104ce5760405162461bcd60e51b815260040161048d906111a4565b4760006104e36000546001600160a01b031690565b6001600160a01b03168260405160006040518083038185875af1925050503d806000811461052d576040519150601f19603f3d011682016040523d82523d6000602084013e610532565b606091505b50509050806104a05760405162461bcd60e51b81526020600482015260146024820152732330b4b632b2103a379039b2b7321022ba3432b960611b604482015260640161048d565b6000546001600160a01b031633146105a45760405162461bcd60e51b815260040161048d906111a4565b6105ae6000610dec565b565b6000546001600160a01b031633146105da5760405162461bcd60e51b815260040161048d906111a4565b600980546001600160a01b0390921661010002610100600160a81b0319909216919091179055565b6000546001600160a01b0316331461062c5760405162461bcd60e51b815260040161048d906111a4565b6040516370a0823160e01b81523060048201526000906001600160a01b038416906370a0823190602401602060405180830381865afa158015610673573d6000803e3d6000fd5b505050506040513d601f19601f8201168201806040525081019061069791906111d9565b116106f65760405162461bcd60e51b815260206004820152602960248201527f7468697320636f6e747261637420646f6573206e6f7420636f6e7461696e20746044820152683434b9903a37b5b2b760b91b606482015260840161048d565b816001600160a01b031663a9059cbb6107176000546001600160a01b031690565b6040516001600160e01b031960e084901b1681526001600160a01b039091166004820152602481018490526044016020604051808303816000875af1158015610764573d6000803e3d6000fd5b505050506040513d601f19601f8201168201806040525081019061078891906111f2565b6104a05760405162461bcd60e51b815260206004820152600f60248201526e1d1c985b9cd9995c8819985a5b1959608a1b604482015260640161048d565b60095460009061010090046001600160a01b031633146108285760405162461bcd60e51b815260206004820152601860248201527f6f6e6c792054726173682063616e2063616c6c20746869730000000000000000604482015260640161048d565b6000610832610e3c565b9050600a818154811061084757610847611214565b9060005260206000200154600014801561088b5750600a805461086c90600190611240565b8154811061087c5761087c611214565b90600052602060002001546000145b156108c857600a5490915081906108a490600190611240565b600a82815481106108b7576108b7611214565b600091825260209091200155610a67565b600a81815481106108db576108db611214565b90600052602060002001546000141580156109205750600a805461090190600190611240565b8154811061091157610911611214565b90600052602060002001546000145b1561095757600a818154811061093857610938611214565b906000526020600020015491506001600a805490506108a49190611240565b600a818154811061096a5761096a611214565b90600052602060002001546000141580156109b05750600a805461099090600190611240565b815481106109a0576109a0611214565b9060005260206000200154600014155b15610a1757600a81815481106109c8576109c8611214565b90600052602060002001549150600a6001600a805490506109e99190611240565b815481106109f9576109f9611214565b9060005260206000200154600a82815481106108b7576108b7611214565b600a80549192508291610a2c90600190611240565b81548110610a3c57610a3c611214565b9060005260206000200154600a8281548110610a5a57610a5a611214565b6000918252602090912001555b600a805480610a7857610a78611257565b600190038181906000526020600020016000905590555090565b60078181548110610aa257600080fd5b600091825260209091200154905081565b60095460009060ff1615610b095760405162461bcd60e51b815260206004820152601760248201527f6f666673657420616c7265616479206578656375746564000000000000000000604482015260640161048d565b600a541580610b19575060085442115b610b655760405162461bcd60e51b815260206004820152601960248201527f43616e6e6f742065786563757465206f66667365742079657400000000000000604482015260640161048d565b600854610bb45760405162461bcd60e51b815260206004820152601760248201527f6e6f7420726561647920746f206f666673657420796574000000000000000000604482015260640161048d565b610bbc610ecc565b506009805460ff1916600190811790915590565b6000546001600160a01b03163314610bfa5760405162461bcd60e51b815260040161048d906111a4565b600954600160a81b900460ff1615610c4c5760405162461bcd60e51b815260206004820152601560248201527463616e206f6e6c79207072656d696e74206f6e636560581b604482015260640161048d565b60005b81811015610cbf57600a54610c6690600190611240565b600a8281548110610c7957610c79611214565b600091825260209091200155600a805480610c9657610c96611257565b600190038181906000526020600020016000905590558080610cb79061126d565b915050610c4f565b50506009805460ff60a81b1916600160a81b179055565b600754600090610ce65750600090565b6007600081548110610cfa57610cfa611214565b9060005260206000200154905090565b6000546001600160a01b03163314610d345760405162461bcd60e51b815260040161048d906111a4565b600855565b6000546001600160a01b03163314610d635760405162461bcd60e51b815260040161048d906111a4565b6001600160a01b038116610dc85760405162461bcd60e51b815260206004820152602660248201527f4f776e61626c653a206e6577206f776e657220697320746865207a65726f206160448201526564647265737360d01b606482015260840161048d565b610dd181610dec565b50565b8051610de7906007906020840190610fed565b505050565b600080546001600160a01b038381166001600160a01b0319831681178455604051919092169283917f8be0079c531659141344cd1fd0a4f28419497f9722a3daafe3b4186f6b6457e09190a35050565b600a546000908190610e4f600143611240565b6040805160208101939093529040908201526bffffffffffffffffffffffff1941606090811b82168184015244607484015233901b16609482015260a80160408051601f198184030181529190528051602090910120600a54909150600090600190610ebb9084611288565b610ec59190611240565b9392505050565b42600854108015610ede575060085415155b610f2a5760405162461bcd60e51b815260206004820152601e60248201527f6e6f7420726561647920746f206765742072616e646f6d206e756d6265720000604482015260640161048d565b6005546002546003546040516305d3b1d360e41b8152600481019290925267ffffffffffffffff8116602483015261ffff8316604483015268010000000000000000900463ffffffff908116606483015262010000830416608482015266010000000000009091046001600160a01b031690635d3b1d309060a4016020604051808303816000875af1158015610fc4573d6000803e3d6000fd5b505050506040513d601f19601f82011682018060405250810190610fe891906111d9565b600455565b828054828255906000526020600020908101928215611028579160200282015b8281111561102857825182559160200191906001019061100d565b50611034929150611038565b5090565b5b808211156110345760008155600101611039565b634e487b7160e01b600052604160045260246000fd5b6000806040838503121561107657600080fd5b8235915060208084013567ffffffffffffffff8082111561109657600080fd5b818601915086601f8301126110aa57600080fd5b8135818111156110bc576110bc61104d565b8060051b604051601f19603f830116810181811085821117156110e1576110e161104d565b6040529182528482019250838101850191898311156110ff57600080fd5b938501935b8285101561111d57843584529385019392850192611104565b8096505050505050509250929050565b6001600160a01b0381168114610dd157600080fd5b60006020828403121561115457600080fd5b8135610ec58161112d565b6000806040838503121561117257600080fd5b823561117d8161112d565b946020939093013593505050565b60006020828403121561119d57600080fd5b5035919050565b6020808252818101527f4f776e61626c653a2063616c6c6572206973206e6f7420746865206f776e6572604082015260600190565b6000602082840312156111eb57600080fd5b5051919050565b60006020828403121561120457600080fd5b81518015158114610ec557600080fd5b634e487b7160e01b600052603260045260246000fd5b634e487b7160e01b600052601160045260246000fd5b6000828210156112525761125261122a565b500390565b634e487b7160e01b600052603160045260246000fd5b60006000198214156112815761128161122a565b5060010190565b6000826112a557634e487b7160e01b600052601260045260246000fd5b50069056fea2646970667358221220da8260b62caeb984e463b2570a322010a33a7a06cf1917ba13fc4796e75d8c9864736f6c634300080a0033",
  "linkReferences": {},
  "deployedLinkReferences": {}
}